{
  "contractName": "Certifier",
  "abi": [
    {
      "anonymous": false,
      "inputs": [
        {
          "indexed": true,
          "internalType": "address",
          "name": "certifier",
          "type": "address"
        },
        {
          "indexed": true,
          "internalType": "bytes32",
          "name": "subject",
          "type": "bytes32"
        },
        {
          "indexed": true,
          "internalType": "bytes32",
          "name": "proof",
          "type": "bytes32"
        },
        {
          "indexed": false,
          "internalType": "bytes32",
          "name": "method",
          "type": "bytes32"
        }
      ],
      "name": "CertificationEvent",
      "type": "event"
    },
    {
      "inputs": [
        {
          "internalType": "string",
          "name": "_criteria",
          "type": "string"
        },
        {
          "internalType": "address",
          "name": "_who",
          "type": "address"
        }
      ],
      "name": "getEligibilityProof",
      "outputs": [
        {
          "internalType": "bytes32",
          "name": "",
          "type": "bytes32"
        }
      ],
      "stateMutability": "pure",
      "type": "function",
      "constant": true
    },
    {
      "inputs": [
        {
          "internalType": "string",
          "name": "_criteria",
          "type": "string"
        },
        {
          "internalType": "address",
          "name": "_who",
          "type": "address"
        }
      ],
      "name": "checkEligibility",
      "outputs": [
        {
          "components": [
            {
              "internalType": "address",
              "name": "certifier",
              "type": "address"
            },
            {
              "internalType": "bytes32",
              "name": "subject",
              "type": "bytes32"
            },
            {
              "internalType": "bytes32",
              "name": "proof",
              "type": "bytes32"
            },
            {
              "internalType": "bytes32",
              "name": "method",
              "type": "bytes32"
            }
          ],
          "internalType": "struct Certifier.Certification",
          "name": "",
          "type": "tuple"
        }
      ],
      "stateMutability": "nonpayable",
      "type": "function"
    }
  ],
  "bytecode": "0x608060405234801561001057600080fd5b506105f9806100206000396000f3fe608060405234801561001057600080fd5b50600436106100365760003560e01c8063384d405b1461003b5780636e9b73eb1461006b575b600080fd5b61005560048036038101906100509190610308565b61009b565b6040516100629190610381565b60405180910390f35b61008560048036038101906100809190610308565b6100cb565b604051610092919061040f565b60405180910390f35b60006040516020016100ac906104a7565b6040516020818303038152906040528051906020012090509392505050565b6100d36101f4565b6100db6101f4565b30816000019073ffffffffffffffffffffffffffffffffffffffff16908173ffffffffffffffffffffffffffffffffffffffff168152505082858560405160200161012893929190610538565b6040516020818303038152906040528051906020012081602001818152505061015285858561009b565b81604001818152505060405160200161016a906105ae565b6040516020818303038152906040528051906020012081606001818152505080604001518160200151826000015173ffffffffffffffffffffffffffffffffffffffff167f4b9b28167aaca4f17986de0fdbb4b8a46f4ef3ff72b05ae079b8406cac07adf784606001516040516101e19190610381565b60405180910390a4809150509392505050565b6040518060800160405280600073ffffffffffffffffffffffffffffffffffffffff1681526020016000801916815260200160008019168152602001600080191681525090565b600080fd5b600080fd5b600080fd5b600080fd5b600080fd5b60008083601f84011261026a57610269610245565b5b8235905067ffffffffffffffff8111156102875761028661024a565b5b6020830191508360018202830111156102a3576102a261024f565b5b9250929050565b600073ffffffffffffffffffffffffffffffffffffffff82169050919050565b60006102d5826102aa565b9050919050565b6102e5816102ca565b81146102f057600080fd5b50565b600081359050610302816102dc565b92915050565b6000806000604084860312156103215761032061023b565b5b600084013567ffffffffffffffff81111561033f5761033e610240565b5b61034b86828701610254565b9350935050602061035e868287016102f3565b9150509250925092565b6000819050919050565b61037b81610368565b82525050565b60006020820190506103966000830184610372565b92915050565b6103a5816102ca565b82525050565b6103b481610368565b82525050565b6080820160008201516103d0600085018261039c565b5060208201516103e360208501826103ab565b5060408201516103f660408501826103ab565b50606082015161040960608501826103ab565b50505050565b600060808201905061042460008301846103ba565b92915050565b600081905092915050565b7f4920636c61696d2074686973206164647265737320697320636572746966696560008201527f6400000000000000000000000000000000000000000000000000000000000000602082015250565b600061049160218361042a565b915061049c82610435565b602182019050919050565b60006104b282610484565b9150819050919050565b60008160601b9050919050565b60006104d4826104bc565b9050919050565b60006104e6826104c9565b9050919050565b6104fe6104f9826102ca565b6104db565b82525050565b82818337600083830152505050565b600061051f838561042a565b935061052c838584610504565b82840190509392505050565b600061054482866104ed565b601482019150610555828486610513565b9150819050949350505050565b7f66616b65206d6574686f64000000000000000000000000000000000000000000600082015250565b6000610598600b8361042a565b91506105a382610562565b600b82019050919050565b60006105b98261058b565b915081905091905056fea2646970667358221220f8a59abd88e4f91844da018a8b9268aa17462406e5aa4ce5f219b194708deef064736f6c63430008130033",
  "immutableReferences": {},
  "source": "// SPDX-License-Identifier: MIT\n\npragma solidity 0.8.19;\n\n\n/*\nFAKE CONTRACT to test eligibility\nin order to respect deadline, I didn't implement a real contract as we need to make more researches\nabout our solutions and the best way to implement them :\n-checking off chain and having a BDD with a hash of the proof, \n-or using DID, proof of KYC...\nThis contract will list certifiers, methods, store valid certifications (to not have to check again)/ log with events\nIt will receive a list of conditions and check if the address is eligible \n\nAt the moment the function checkEligibility simulates the check of the conditions and always return a valid result\n*/\n\ncontract Certifier {\n\n    event CertificationEvent(address indexed certifier, bytes32 indexed subject, bytes32 indexed proof, bytes32 method);\n\n    struct Certification {\n        address certifier;\n        bytes32 subject;\n        bytes32 proof;\n        bytes32 method;\n        // uint256 timestamp;\n    }\n\n    function getEligibilityProof(string calldata _criteria, address _who) public pure returns (bytes32) {\n        return keccak256(abi.encodePacked(\"I claim this address is certified\" ));\n    }\n    function checkEligibility(string calldata _criteria, address _who) external returns (Certification memory) {\n        Certification memory certification;\n        certification.certifier = address(this);\n        certification.subject = keccak256(abi.encodePacked(_who, _criteria));\n        certification.proof = getEligibilityProof( _criteria,  _who);\n        certification.method = keccak256(abi.encodePacked(\"fake method\"));\n        // certification.timestamp = block.timestamp;\n        emit CertificationEvent(certification.certifier, certification.subject, certification.proof, certification.method);\n        return certification;\n    }\n\n}",
  "sourcePath": "/home/ibournubuntu/ALYRA/PROJET_FINAL/DPoll/truffle/contracts/Certifier.sol",
  "compiler": {
    "name": "solc",
    "version": "0.8.19+commit.7dd6d404.Emscripten.clang"
  },
  "schemaVersion": "3.4.14",
  "updatedAt": "2023-07-27T03:23:38.619Z",
  "networkType": "ethereum",
  "devdoc": {
    "kind": "dev",
    "methods": {},
    "version": 1
  },
  "userdoc": {
    "kind": "user",
    "methods": {},
    "version": 1
  }
}