{
  "contractName": "DPollVoting",
  "abi": [
    {
      "anonymous": false,
      "inputs": [
        {
          "indexed": false,
          "internalType": "address",
          "name": "to",
          "type": "address"
        },
        {
          "indexed": false,
          "internalType": "uint256",
          "name": "amount",
          "type": "uint256"
        },
        {
          "indexed": false,
          "internalType": "string",
          "name": "action",
          "type": "string"
        }
      ],
      "name": "DAOTokenTransfer",
      "type": "event"
    },
    {
      "anonymous": false,
      "inputs": [
        {
          "indexed": true,
          "internalType": "address",
          "name": "previousOwner",
          "type": "address"
        },
        {
          "indexed": true,
          "internalType": "address",
          "name": "newOwner",
          "type": "address"
        }
      ],
      "name": "OwnershipTransferred",
      "type": "event"
    },
    {
      "inputs": [],
      "name": "DAO_MEMBERSHIP_FEE",
      "outputs": [
        {
          "internalType": "uint256",
          "name": "",
          "type": "uint256"
        }
      ],
      "stateMutability": "view",
      "type": "function"
    },
    {
      "inputs": [],
      "name": "DAObalance",
      "outputs": [
        {
          "internalType": "uint256",
          "name": "",
          "type": "uint256"
        }
      ],
      "stateMutability": "view",
      "type": "function"
    },
    {
      "inputs": [],
      "name": "DPTtoken",
      "outputs": [
        {
          "internalType": "contract DPollToken",
          "name": "",
          "type": "address"
        }
      ],
      "stateMutability": "view",
      "type": "function"
    },
    {
      "inputs": [
        {
          "internalType": "address",
          "name": "_memberAddress",
          "type": "address"
        }
      ],
      "name": "addMember",
      "outputs": [],
      "stateMutability": "payable",
      "type": "function"
    },
    {
      "inputs": [],
      "name": "creationDelay",
      "outputs": [
        {
          "internalType": "uint256",
          "name": "value",
          "type": "uint256"
        },
        {
          "internalType": "uint256",
          "name": "min",
          "type": "uint256"
        },
        {
          "internalType": "uint256",
          "name": "max",
          "type": "uint256"
        }
      ],
      "stateMutability": "view",
      "type": "function"
    },
    {
      "inputs": [],
      "name": "distributedTokenCount",
      "outputs": [
        {
          "internalType": "uint256",
          "name": "",
          "type": "uint256"
        }
      ],
      "stateMutability": "view",
      "type": "function"
    },
    {
      "inputs": [],
      "name": "executionDelay",
      "outputs": [
        {
          "internalType": "uint256",
          "name": "value",
          "type": "uint256"
        },
        {
          "internalType": "uint256",
          "name": "min",
          "type": "uint256"
        },
        {
          "internalType": "uint256",
          "name": "max",
          "type": "uint256"
        }
      ],
      "stateMutability": "view",
      "type": "function"
    },
    {
      "inputs": [],
      "name": "getDAOBalance",
      "outputs": [
        {
          "internalType": "uint256",
          "name": "",
          "type": "uint256"
        }
      ],
      "stateMutability": "view",
      "type": "function"
    },
    {
      "inputs": [
        {
          "internalType": "address",
          "name": "_memberAddress",
          "type": "address"
        },
        {
          "internalType": "enum DPollStorage.MemberRole",
          "name": "_role",
          "type": "uint8"
        }
      ],
      "name": "grantRole",
      "outputs": [],
      "stateMutability": "nonpayable",
      "type": "function"
    },
    {
      "inputs": [],
      "name": "initialCreationDelay",
      "outputs": [
        {
          "internalType": "uint256",
          "name": "",
          "type": "uint256"
        }
      ],
      "stateMutability": "view",
      "type": "function"
    },
    {
      "inputs": [],
      "name": "initialExecutionDelay",
      "outputs": [
        {
          "internalType": "uint256",
          "name": "",
          "type": "uint256"
        }
      ],
      "stateMutability": "view",
      "type": "function"
    },
    {
      "inputs": [],
      "name": "initialVotingDuration",
      "outputs": [
        {
          "internalType": "uint256",
          "name": "",
          "type": "uint256"
        }
      ],
      "stateMutability": "view",
      "type": "function"
    },
    {
      "inputs": [
        {
          "internalType": "address",
          "name": "",
          "type": "address"
        }
      ],
      "name": "members",
      "outputs": [
        {
          "internalType": "address",
          "name": "memberAddress",
          "type": "address"
        },
        {
          "internalType": "uint256",
          "name": "memberSince",
          "type": "uint256"
        },
        {
          "internalType": "uint256",
          "name": "lastProposalCreation",
          "type": "uint256"
        },
        {
          "internalType": "uint256",
          "name": "balance",
          "type": "uint256"
        },
        {
          "internalType": "uint256",
          "name": "rewardsBlance",
          "type": "uint256"
        },
        {
          "internalType": "enum DPollStorage.MemberRole",
          "name": "role",
          "type": "uint8"
        }
      ],
      "stateMutability": "view",
      "type": "function"
    },
    {
      "inputs": [
        {
          "internalType": "uint256",
          "name": "",
          "type": "uint256"
        }
      ],
      "name": "membersList",
      "outputs": [
        {
          "internalType": "address",
          "name": "memberAddress",
          "type": "address"
        },
        {
          "internalType": "uint256",
          "name": "memberSince",
          "type": "uint256"
        },
        {
          "internalType": "uint256",
          "name": "lastProposalCreation",
          "type": "uint256"
        },
        {
          "internalType": "uint256",
          "name": "balance",
          "type": "uint256"
        },
        {
          "internalType": "uint256",
          "name": "rewardsBlance",
          "type": "uint256"
        },
        {
          "internalType": "enum DPollStorage.MemberRole",
          "name": "role",
          "type": "uint8"
        }
      ],
      "stateMutability": "view",
      "type": "function"
    },
    {
      "inputs": [],
      "name": "minTokenToCreate",
      "outputs": [
        {
          "internalType": "uint256",
          "name": "",
          "type": "uint256"
        }
      ],
      "stateMutability": "view",
      "type": "function"
    },
    {
      "inputs": [],
      "name": "minTokenToVote",
      "outputs": [
        {
          "internalType": "uint256",
          "name": "",
          "type": "uint256"
        }
      ],
      "stateMutability": "view",
      "type": "function"
    },
    {
      "inputs": [],
      "name": "owner",
      "outputs": [
        {
          "internalType": "address",
          "name": "",
          "type": "address"
        }
      ],
      "stateMutability": "view",
      "type": "function"
    },
    {
      "inputs": [
        {
          "internalType": "uint256",
          "name": "",
          "type": "uint256"
        }
      ],
      "name": "pendingProposalsId",
      "outputs": [
        {
          "internalType": "uint256",
          "name": "",
          "type": "uint256"
        }
      ],
      "stateMutability": "view",
      "type": "function"
    },
    {
      "inputs": [],
      "name": "proposalCount",
      "outputs": [
        {
          "internalType": "uint256",
          "name": "",
          "type": "uint256"
        }
      ],
      "stateMutability": "view",
      "type": "function"
    },
    {
      "inputs": [
        {
          "internalType": "uint256",
          "name": "",
          "type": "uint256"
        }
      ],
      "name": "proposals",
      "outputs": [
        {
          "internalType": "uint256",
          "name": "id",
          "type": "uint256"
        },
        {
          "internalType": "string",
          "name": "title",
          "type": "string"
        },
        {
          "internalType": "string",
          "name": "description",
          "type": "string"
        },
        {
          "internalType": "enum DPollStorage.ProposalType",
          "name": "purpose",
          "type": "uint8"
        },
        {
          "components": [
            {
              "internalType": "uint256",
              "name": "votesFor",
              "type": "uint256"
            },
            {
              "internalType": "uint256",
              "name": "votesAgainst",
              "type": "uint256"
            },
            {
              "internalType": "uint256",
              "name": "votesTotal",
              "type": "uint256"
            },
            {
              "internalType": "enum DPollStorage.PollStatus",
              "name": "status",
              "type": "uint8"
            },
            {
              "internalType": "uint256",
              "name": "createdAt",
              "type": "uint256"
            },
            {
              "internalType": "uint256",
              "name": "closedAt",
              "type": "uint256"
            },
            {
              "internalType": "uint256",
              "name": "executedAt",
              "type": "uint256"
            }
          ],
          "internalType": "struct DPollStorage.ProposalState",
          "name": "state",
          "type": "tuple"
        },
        {
          "internalType": "address",
          "name": "creator",
          "type": "address"
        },
        {
          "components": [
            {
              "internalType": "address[]",
              "name": "payloadAddresses",
              "type": "address[]"
            },
            {
              "internalType": "uint256[]",
              "name": "payloadUint256",
              "type": "uint256[]"
            },
            {
              "internalType": "string[]",
              "name": "payloadString",
              "type": "string[]"
            }
          ],
          "internalType": "struct DPollStorage.ProposalPayload",
          "name": "payload",
          "type": "tuple"
        }
      ],
      "stateMutability": "view",
      "type": "function"
    },
    {
      "inputs": [
        {
          "internalType": "address",
          "name": "_memberAddress",
          "type": "address"
        }
      ],
      "name": "removeMember",
      "outputs": [],
      "stateMutability": "nonpayable",
      "type": "function"
    },
    {
      "inputs": [],
      "name": "renounceOwnership",
      "outputs": [],
      "stateMutability": "nonpayable",
      "type": "function"
    },
    {
      "inputs": [
        {
          "internalType": "address",
          "name": "_memberAddress",
          "type": "address"
        }
      ],
      "name": "revokeMembership",
      "outputs": [],
      "stateMutability": "nonpayable",
      "type": "function"
    },
    {
      "inputs": [
        {
          "internalType": "address",
          "name": "_memberAddress",
          "type": "address"
        }
      ],
      "name": "revokeRole",
      "outputs": [],
      "stateMutability": "nonpayable",
      "type": "function"
    },
    {
      "inputs": [
        {
          "internalType": "address",
          "name": "newOwner",
          "type": "address"
        }
      ],
      "name": "transferOwnership",
      "outputs": [],
      "stateMutability": "nonpayable",
      "type": "function"
    },
    {
      "inputs": [],
      "name": "votingDuration",
      "outputs": [
        {
          "internalType": "uint256",
          "name": "value",
          "type": "uint256"
        },
        {
          "internalType": "uint256",
          "name": "min",
          "type": "uint256"
        },
        {
          "internalType": "uint256",
          "name": "max",
          "type": "uint256"
        }
      ],
      "stateMutability": "view",
      "type": "function"
    },
    {
      "inputs": [
        {
          "internalType": "address",
          "name": "_memberAddress",
          "type": "address"
        }
      ],
      "name": "getMember",
      "outputs": [
        {
          "components": [
            {
              "internalType": "address",
              "name": "memberAddress",
              "type": "address"
            },
            {
              "internalType": "uint256",
              "name": "memberSince",
              "type": "uint256"
            },
            {
              "internalType": "uint256",
              "name": "lastProposalCreation",
              "type": "uint256"
            },
            {
              "internalType": "uint256",
              "name": "balance",
              "type": "uint256"
            },
            {
              "internalType": "uint256",
              "name": "rewardsBlance",
              "type": "uint256"
            },
            {
              "internalType": "enum DPollStorage.MemberRole",
              "name": "role",
              "type": "uint8"
            }
          ],
          "internalType": "struct DPollStorage.Member",
          "name": "",
          "type": "tuple"
        }
      ],
      "stateMutability": "view",
      "type": "function"
    }
  ],
  "bytecode": "0x6080604052600160035560026003546200001a9190620003b1565b600455604260055560326006556078600755607860085560405180606001604052806007548152602001601e81526020016224ea008152506009600082015181600001556020820151816001015560408201518160020155505060405180606001604052806008548152602001601e81526020016224ea00815250600c6000820151816000015560208201518160010155604082015181600201555050604051806060016040528060788152602001601e81526020016224ea00815250600f600082015181600001556020820151816001015560408201518160020155505060405180604001604052806040518060400160405280600e81526020017f566f74696e674475726174696f6e00000000000000000000000000000000000081525081526020016040518060400160405280600e81526020017f457865637574696f6e44656c617900000000000000000000000000000000000081525081525060169060026200018a9291906200028b565b503480156200019857600080fd5b50620001b9620001ad620001bf60201b60201c565b620001c760201b60201c565b62000753565b600033905090565b60008060009054906101000a900473ffffffffffffffffffffffffffffffffffffffff169050816000806101000a81548173ffffffffffffffffffffffffffffffffffffffff021916908373ffffffffffffffffffffffffffffffffffffffff1602179055508173ffffffffffffffffffffffffffffffffffffffff168173ffffffffffffffffffffffffffffffffffffffff167f8be0079c531659141344cd1fd0a4f28419497f9722a3daafe3b4186f6b6457e060405160405180910390a35050565b828054828255906000526020600020908101928215620002d8579160200282015b82811115620002d7578251829081620002c691906200066c565b5091602001919060010190620002ac565b5b509050620002e79190620002eb565b5090565b5b808211156200030f576000818162000305919062000313565b50600101620002ec565b5090565b508054620003219062000465565b6000825580601f1062000335575062000356565b601f01602090049060005260206000209081019062000355919062000359565b5b50565b5b80821115620003745760008160009055506001016200035a565b5090565b6000819050919050565b7f4e487b7100000000000000000000000000000000000000000000000000000000600052601160045260246000fd5b6000620003be8262000378565b9150620003cb8362000378565b9250828202620003db8162000378565b91508282048414831517620003f557620003f462000382565b5b5092915050565b600081519050919050565b7f4e487b7100000000000000000000000000000000000000000000000000000000600052604160045260246000fd5b7f4e487b7100000000000000000000000000000000000000000000000000000000600052602260045260246000fd5b600060028204905060018216806200047e57607f821691505b60208210810362000494576200049362000436565b5b50919050565b60008190508160005260206000209050919050565b60006020601f8301049050919050565b600082821b905092915050565b600060088302620004fe7fffffffffffffffffffffffffffffffffffffffffffffffffffffffffffffffff82620004bf565b6200050a8683620004bf565b95508019841693508086168417925050509392505050565b6000819050919050565b60006200054d62000547620005418462000378565b62000522565b62000378565b9050919050565b6000819050919050565b62000569836200052c565b62000581620005788262000554565b848454620004cc565b825550505050565b600090565b6200059862000589565b620005a58184846200055e565b505050565b5b81811015620005cd57620005c16000826200058e565b600181019050620005ab565b5050565b601f8211156200061c57620005e6816200049a565b620005f184620004af565b8101602085101562000601578190505b620006196200061085620004af565b830182620005aa565b50505b505050565b600082821c905092915050565b6000620006416000198460080262000621565b1980831691505092915050565b60006200065c83836200062e565b9150826002028217905092915050565b6200067782620003fc565b67ffffffffffffffff81111562000693576200069262000407565b5b6200069f825462000465565b620006ac828285620005d1565b600060209050601f831160018114620006e45760008415620006cf578287015190505b620006db85826200064e565b8655506200074b565b601f198416620006f4866200049a565b60005b828110156200071e57848901518255600182019150602085019450602081019050620006f7565b868310156200073e57848901516200073a601f8916826200062e565b8355505b6001600288020188555050505b505050505050565b61279080620007636000396000f3fe60806040526004361061019c5760003560e01c80638912620c116100ec578063c086ba571161008a578063d825de3411610064578063d825de34146105c3578063da35c664146105ee578063ea778dc014610619578063f2fde38b146106445761019c565b8063c086ba5714610553578063c5ae086a1461057e578063ca6d56dc146105a75761019c565b806398811973116100c657806398811973146104a7578063a3db1d20146104d2578063a475fa18146104fd578063b1ad5979146105285761019c565b80638912620c146104245780638b2579891461044f5780638da5cb5b1461047c5761019c565b80631f9aa412116101595780634cdc930f116101335780634cdc930f1461037a578063503d3bc4146103a7578063715018a6146103e457806380e52e3f146103fb5761019c565b80631f9aa412146102e95780632ada2596146103145780633e840236146103515761019c565b8063013cf08b146101a157806308ae4b0c146101e45780630b1ca49a14610226578063132002fc1461024f57806313b8ad311461027c57806319a6705d146102be575b600080fd5b3480156101ad57600080fd5b506101c860048036038101906101c39190611933565b61066d565b6040516101db9796959493929190611e73565b60405180910390f35b3480156101f057600080fd5b5061020b60048036038101906102069190611f26565b610a36565b60405161021d96959493929190611f9b565b60405180910390f35b34801561023257600080fd5b5061024d60048036038101906102489190611f26565b610a9f565b005b34801561025b57600080fd5b50610264610e72565b60405161027393929190611ffc565b60405180910390f35b34801561028857600080fd5b506102a3600480360381019061029e9190611933565b610e8a565b6040516102b596959493929190611f9b565b60405180910390f35b3480156102ca57600080fd5b506102d3610f03565b6040516102e09190612033565b60405180910390f35b3480156102f557600080fd5b506102fe610f08565b60405161030b9190612033565b60405180910390f35b34801561032057600080fd5b5061033b60048036038101906103369190611f26565b610f0e565b60405161034891906120d8565b60405180910390f35b34801561035d57600080fd5b5061037860048036038101906103739190612118565b611020565b005b34801561038657600080fd5b5061038f611096565b60405161039e93929190611ffc565b60405180910390f35b3480156103b357600080fd5b506103ce60048036038101906103c99190611933565b6110ae565b6040516103db9190612033565b60405180910390f35b3480156103f057600080fd5b506103f96110d2565b005b34801561040757600080fd5b50610422600480360381019061041d9190611f26565b6110e6565b005b34801561043057600080fd5b5061043961115c565b60405161044691906121b7565b60405180910390f35b34801561045b57600080fd5b50610464611182565b60405161047393929190611ffc565b60405180910390f35b34801561048857600080fd5b5061049161119a565b60405161049e91906121d2565b60405180910390f35b3480156104b357600080fd5b506104bc6111c3565b6040516104c99190612033565b60405180910390f35b3480156104de57600080fd5b506104e76111c9565b6040516104f49190612033565b60405180910390f35b34801561050957600080fd5b506105126111cf565b60405161051f9190612033565b60405180910390f35b34801561053457600080fd5b5061053d6111d5565b60405161054a9190612033565b60405180910390f35b34801561055f57600080fd5b506105686111db565b6040516105759190612033565b60405180910390f35b34801561058a57600080fd5b506105a560048036038101906105a09190611f26565b6111e1565b005b6105c160048036038101906105bc9190611f26565b61136b565b005b3480156105cf57600080fd5b506105d86116b2565b6040516105e59190612033565b60405180910390f35b3480156105fa57600080fd5b506106036116bd565b6040516106109190612033565b60405180910390f35b34801561062557600080fd5b5061062e6116c3565b60405161063b9190612033565b60405180910390f35b34801561065057600080fd5b5061066b60048036038101906106669190611f26565b6116cd565b005b60176020528060005260406000206000915090508060000154908060010180546106969061221c565b80601f01602080910402602001604051908101604052809291908181526020018280546106c29061221c565b801561070f5780601f106106e45761010080835404028352916020019161070f565b820191906000526020600020905b8154815290600101906020018083116106f257829003601f168201915b5050505050908060020180546107249061221c565b80601f01602080910402602001604051908101604052809291908181526020018280546107509061221c565b801561079d5780601f106107725761010080835404028352916020019161079d565b820191906000526020600020905b81548152906001019060200180831161078057829003601f168201915b5050505050908060030160009054906101000a900460ff1690806004016040518060e00160405290816000820154815260200160018201548152602001600282015481526020016003820160009054906101000a900460ff166003811115610808576108076119ff565b5b600381111561081a576108196119ff565b5b815260200160048201548152602001600582015481526020016006820154815250509080600b0160009054906101000a900473ffffffffffffffffffffffffffffffffffffffff169080600c01604051806060016040529081600082018054806020026020016040519081016040528092919081815260200182805480156108f757602002820191906000526020600020905b8160009054906101000a900473ffffffffffffffffffffffffffffffffffffffff1673ffffffffffffffffffffffffffffffffffffffff16815260200190600101908083116108ad575b505050505081526020016001820180548060200260200160405190810160405280929190818152602001828054801561094f57602002820191906000526020600020905b81548152602001906001019080831161093b575b5050505050815260200160028201805480602002602001604051908101604052809291908181526020016000905b82821015610a2957838290600052602060002001805461099c9061221c565b80601f01602080910402602001604051908101604052809291908181526020018280546109c89061221c565b8015610a155780601f106109ea57610100808354040283529160200191610a15565b820191906000526020600020905b8154815290600101906020018083116109f857829003601f168201915b50505050508152602001906001019061097d565b5050505081525050905087565b60146020528060005260406000206000915090508060000160009054906101000a900473ffffffffffffffffffffffffffffffffffffffff16908060010154908060020154908060030154908060040154908060050160009054906101000a900460ff16905086565b3373ffffffffffffffffffffffffffffffffffffffff168173ffffffffffffffffffffffffffffffffffffffff1614610b0d576040517f08c379a0000000000000000000000000000000000000000000000000000000008152600401610b04906122bf565b60405180910390fd5b6000601460008373ffffffffffffffffffffffffffffffffffffffff1673ffffffffffffffffffffffffffffffffffffffff1681526020019081526020016000206040518060c00160405290816000820160009054906101000a900473ffffffffffffffffffffffffffffffffffffffff1673ffffffffffffffffffffffffffffffffffffffff1673ffffffffffffffffffffffffffffffffffffffff168152602001600182015481526020016002820154815260200160038201548152602001600482015481526020016005820160009054906101000a900460ff166004811115610bfc57610bfb6119ff565b5b6004811115610c0e57610c0d6119ff565b5b815250509050600480811115610c2757610c266119ff565b5b8160a001516004811115610c3e57610c3d6119ff565b5b14610c7e576040517f08c379a0000000000000000000000000000000000000000000000000000000008152600401610c759061232b565b60405180910390fd5b426224ea008260200151610c92919061237a565b10610cd2576040517f08c379a0000000000000000000000000000000000000000000000000000000008152600401610cc990612420565b60405180910390fd5b6000816060015190506000601460008573ffffffffffffffffffffffffffffffffffffffff1673ffffffffffffffffffffffffffffffffffffffff1681526020019081526020016000206003018190555060008373ffffffffffffffffffffffffffffffffffffffff1682604051610d4990612471565b60006040518083038185875af1925050503d8060008114610d86576040519150601f19603f3d011682016040523d82523d6000602084013e610d8b565b606091505b5050905080610dcf576040517f08c379a0000000000000000000000000000000000000000000000000000000008152600401610dc6906124d2565b60405180910390fd5b601460008573ffffffffffffffffffffffffffffffffffffffff1673ffffffffffffffffffffffffffffffffffffffff168152602001908152602001600020600080820160006101000a81549073ffffffffffffffffffffffffffffffffffffffff021916905560018201600090556002820160009055600382016000905560048201600090556005820160006101000a81549060ff0219169055505050505050565b60098060000154908060010154908060020154905083565b60158181548110610e9a57600080fd5b90600052602060002090600602016000915090508060000160009054906101000a900473ffffffffffffffffffffffffffffffffffffffff16908060010154908060020154908060030154908060040154908060050160009054906101000a900460ff16905086565b607881565b60085481565b610f1661189a565b601460008373ffffffffffffffffffffffffffffffffffffffff1673ffffffffffffffffffffffffffffffffffffffff1681526020019081526020016000206040518060c00160405290816000820160009054906101000a900473ffffffffffffffffffffffffffffffffffffffff1673ffffffffffffffffffffffffffffffffffffffff1673ffffffffffffffffffffffffffffffffffffffff168152602001600182015481526020016002820154815260200160038201548152602001600482015481526020016005820160009054906101000a900460ff166004811115611003576110026119ff565b5b6004811115611015576110146119ff565b5b815250509050919050565b611028611750565b80601460008473ffffffffffffffffffffffffffffffffffffffff1673ffffffffffffffffffffffffffffffffffffffff16815260200190815260200160002060050160006101000a81548160ff0219169083600481111561108d5761108c6119ff565b5b02179055505050565b600f8060000154908060010154908060020154905083565b601881815481106110be57600080fd5b906000526020600020016000915090505481565b6110da611750565b6110e460006117ce565b565b6110ee611750565b6000601460008373ffffffffffffffffffffffffffffffffffffffff1673ffffffffffffffffffffffffffffffffffffffff16815260200190815260200160002060050160006101000a81548160ff02191690836004811115611154576111536119ff565b5b021790555050565b600160009054906101000a900473ffffffffffffffffffffffffffffffffffffffff1681565b600c8060000154908060010154908060020154905083565b60008060009054906101000a900473ffffffffffffffffffffffffffffffffffffffff16905090565b60125481565b60075481565b60035481565b60025481565b60045481565b6111e9611750565b6000601460008373ffffffffffffffffffffffffffffffffffffffff1673ffffffffffffffffffffffffffffffffffffffff168152602001908152602001600020905060048081111561123f5761123e6119ff565b5b8160050160009054906101000a900460ff166004811115611263576112626119ff565b5b146112a3576040517f08c379a000000000000000000000000000000000000000000000000000000000815260040161129a9061253e565b60405180910390fd5b8060030154600260008282546112b9919061237a565b9250508190555060008160030181905550601460008373ffffffffffffffffffffffffffffffffffffffff1673ffffffffffffffffffffffffffffffffffffffff168152602001908152602001600020600080820160006101000a81549073ffffffffffffffffffffffffffffffffffffffff021916905560018201600090556002820160009055600382016000905560048201600090556005820160006101000a81549060ff021916905550505050565b66470de4df8200003410156113b5576040517f08c379a00000000000000000000000000000000000000000000000000000000081526004016113ac906125d0565b60405180910390fd5b600060048111156113c9576113c86119ff565b5b601460008373ffffffffffffffffffffffffffffffffffffffff1673ffffffffffffffffffffffffffffffffffffffff16815260200190815260200160002060050160009054906101000a900460ff16600481111561142b5761142a6119ff565b5b1461146b576040517f08c379a00000000000000000000000000000000000000000000000000000000081526004016114629061263c565b60405180910390fd5b61147361189a565b81816000019073ffffffffffffffffffffffffffffffffffffffff16908173ffffffffffffffffffffffffffffffffffffffff16815250504281602001818152505060048160a0019060048111156114ce576114cd6119ff565b5b908160048111156114e2576114e16119ff565b5b81525050601581908060018154018082558091505060019003906000526020600020906006020160009091909190915060008201518160000160006101000a81548173ffffffffffffffffffffffffffffffffffffffff021916908373ffffffffffffffffffffffffffffffffffffffff1602179055506020820151816001015560408201518160020155606082015181600301556080820151816004015560a08201518160050160006101000a81548160ff021916908360048111156115ac576115ab6119ff565b5b0217905550505080601460008473ffffffffffffffffffffffffffffffffffffffff1673ffffffffffffffffffffffffffffffffffffffff16815260200190815260200160002060008201518160000160006101000a81548173ffffffffffffffffffffffffffffffffffffffff021916908373ffffffffffffffffffffffffffffffffffffffff1602179055506020820151816001015560408201518160020155606082015181600301556080820151816004015560a08201518160050160006101000a81548160ff0219169083600481111561168d5761168c6119ff565b5b021790555090505034600260008282546116a7919061237a565b925050819055505050565b66470de4df82000081565b60135481565b6000600254905090565b6116d5611750565b600073ffffffffffffffffffffffffffffffffffffffff168173ffffffffffffffffffffffffffffffffffffffff1603611744576040517f08c379a000000000000000000000000000000000000000000000000000000000815260040161173b906126ce565b60405180910390fd5b61174d816117ce565b50565b611758611892565b73ffffffffffffffffffffffffffffffffffffffff1661177661119a565b73ffffffffffffffffffffffffffffffffffffffff16146117cc576040517f08c379a00000000000000000000000000000000000000000000000000000000081526004016117c39061273a565b60405180910390fd5b565b60008060009054906101000a900473ffffffffffffffffffffffffffffffffffffffff169050816000806101000a81548173ffffffffffffffffffffffffffffffffffffffff021916908373ffffffffffffffffffffffffffffffffffffffff1602179055508173ffffffffffffffffffffffffffffffffffffffff168173ffffffffffffffffffffffffffffffffffffffff167f8be0079c531659141344cd1fd0a4f28419497f9722a3daafe3b4186f6b6457e060405160405180910390a35050565b600033905090565b6040518060c00160405280600073ffffffffffffffffffffffffffffffffffffffff16815260200160008152602001600081526020016000815260200160008152602001600060048111156118f2576118f16119ff565b5b81525090565b600080fd5b6000819050919050565b611910816118fd565b811461191b57600080fd5b50565b60008135905061192d81611907565b92915050565b600060208284031215611949576119486118f8565b5b60006119578482850161191e565b91505092915050565b611969816118fd565b82525050565b600081519050919050565b600082825260208201905092915050565b60005b838110156119a957808201518184015260208101905061198e565b60008484015250505050565b6000601f19601f8301169050919050565b60006119d18261196f565b6119db818561197a565b93506119eb81856020860161198b565b6119f4816119b5565b840191505092915050565b7f4e487b7100000000000000000000000000000000000000000000000000000000600052602160045260246000fd5b60048110611a3f57611a3e6119ff565b5b50565b6000819050611a5082611a2e565b919050565b6000611a6082611a42565b9050919050565b611a7081611a55565b82525050565b611a7f816118fd565b82525050565b60048110611a9657611a956119ff565b5b50565b6000819050611aa782611a85565b919050565b6000611ab782611a99565b9050919050565b611ac781611aac565b82525050565b60e082016000820151611ae36000850182611a76565b506020820151611af66020850182611a76565b506040820151611b096040850182611a76565b506060820151611b1c6060850182611abe565b506080820151611b2f6080850182611a76565b5060a0820151611b4260a0850182611a76565b5060c0820151611b5560c0850182611a76565b50505050565b600073ffffffffffffffffffffffffffffffffffffffff82169050919050565b6000611b8682611b5b565b9050919050565b611b9681611b7b565b82525050565b600081519050919050565b600082825260208201905092915050565b6000819050602082019050919050565b611bd181611b7b565b82525050565b6000611be38383611bc8565b60208301905092915050565b6000602082019050919050565b6000611c0782611b9c565b611c118185611ba7565b9350611c1c83611bb8565b8060005b83811015611c4d578151611c348882611bd7565b9750611c3f83611bef565b925050600181019050611c20565b5085935050505092915050565b600081519050919050565b600082825260208201905092915050565b6000819050602082019050919050565b6000611c928383611a76565b60208301905092915050565b6000602082019050919050565b6000611cb682611c5a565b611cc08185611c65565b9350611ccb83611c76565b8060005b83811015611cfc578151611ce38882611c86565b9750611cee83611c9e565b925050600181019050611ccf565b5085935050505092915050565b600081519050919050565b600082825260208201905092915050565b6000819050602082019050919050565b600082825260208201905092915050565b6000611d518261196f565b611d5b8185611d35565b9350611d6b81856020860161198b565b611d74816119b5565b840191505092915050565b6000611d8b8383611d46565b905092915050565b6000602082019050919050565b6000611dab82611d09565b611db58185611d14565b935083602082028501611dc785611d25565b8060005b85811015611e035784840389528151611de48582611d7f565b9450611def83611d93565b925060208a01995050600181019050611dcb565b50829750879550505050505092915050565b60006060830160008301518482036000860152611e328282611bfc565b91505060208301518482036020860152611e4c8282611cab565b91505060408301518482036040860152611e668282611da0565b9150508091505092915050565b60006101a082019050611e89600083018a611960565b8181036020830152611e9b81896119c6565b90508181036040830152611eaf81886119c6565b9050611ebe6060830187611a67565b611ecb6080830186611acd565b611ed9610160830185611b8d565b818103610180830152611eec8184611e15565b905098975050505050505050565b611f0381611b7b565b8114611f0e57600080fd5b50565b600081359050611f2081611efa565b92915050565b600060208284031215611f3c57611f3b6118f8565b5b6000611f4a84828501611f11565b91505092915050565b60058110611f6457611f636119ff565b5b50565b6000819050611f7582611f53565b919050565b6000611f8582611f67565b9050919050565b611f9581611f7a565b82525050565b600060c082019050611fb06000830189611b8d565b611fbd6020830188611960565b611fca6040830187611960565b611fd76060830186611960565b611fe46080830185611960565b611ff160a0830184611f8c565b979650505050505050565b60006060820190506120116000830186611960565b61201e6020830185611960565b61202b6040830184611960565b949350505050565b60006020820190506120486000830184611960565b92915050565b61205781611f7a565b82525050565b60c0820160008201516120736000850182611bc8565b5060208201516120866020850182611a76565b5060408201516120996040850182611a76565b5060608201516120ac6060850182611a76565b5060808201516120bf6080850182611a76565b5060a08201516120d260a085018261204e565b50505050565b600060c0820190506120ed600083018461205d565b92915050565b6005811061210057600080fd5b50565b600081359050612112816120f3565b92915050565b6000806040838503121561212f5761212e6118f8565b5b600061213d85828601611f11565b925050602061214e85828601612103565b9150509250929050565b6000819050919050565b600061217d61217861217384611b5b565b612158565b611b5b565b9050919050565b600061218f82612162565b9050919050565b60006121a182612184565b9050919050565b6121b181612196565b82525050565b60006020820190506121cc60008301846121a8565b92915050565b60006020820190506121e76000830184611b8d565b92915050565b7f4e487b7100000000000000000000000000000000000000000000000000000000600052602260045260246000fd5b6000600282049050600182168061223457607f821691505b602082108103612247576122466121ed565b5b50919050565b7f4f6e6c79206d656d6265722063616e2064656369646520746f206c656176652060008201527f7468652044414f00000000000000000000000000000000000000000000000000602082015250565b60006122a960278361197a565b91506122b48261224d565b604082019050919050565b600060208201905081810360008301526122d88161229c565b9050919050565b7f596f7520617265206e6f742061206d656d626572000000000000000000000000600082015250565b600061231560148361197a565b9150612320826122df565b602082019050919050565b6000602082019050818103600083015261234481612308565b9050919050565b7f4e487b7100000000000000000000000000000000000000000000000000000000600052601160045260246000fd5b6000612385826118fd565b9150612390836118fd565b92508282019050808211156123a8576123a761234b565b5b92915050565b7f596f75206e65656420746f20776169742032382064617973206265666f72652060008201527f6c656176696e67207468652044414f0000000000000000000000000000000000602082015250565b600061240a602f8361197a565b9150612415826123ae565b604082019050919050565b60006020820190508181036000830152612439816123fd565b9050919050565b600081905092915050565b50565b600061245b600083612440565b91506124668261244b565b600082019050919050565b600061247c8261244e565b9150819050919050565b7f5472616e73666572206661696c65642e00000000000000000000000000000000600082015250565b60006124bc60108361197a565b91506124c782612486565b602082019050919050565b600060208201905081810360008301526124eb816124af565b9050919050565b7f41646472657373206973206e6f742061206d656d626572000000000000000000600082015250565b600061252860178361197a565b9150612533826124f2565b602082019050919050565b600060208201905081810360008301526125578161251b565b9050919050565b7f596f75206e65656420746f2073656e64206174206c6561737420302e3032206560008201527f7468657200000000000000000000000000000000000000000000000000000000602082015250565b60006125ba60248361197a565b91506125c58261255e565b604082019050919050565b600060208201905081810360008301526125e9816125ad565b9050919050565b7f596f752061726520616c72656164792061206d656d6265720000000000000000600082015250565b600061262660188361197a565b9150612631826125f0565b602082019050919050565b6000602082019050818103600083015261265581612619565b9050919050565b7f4f776e61626c653a206e6577206f776e657220697320746865207a65726f206160008201527f6464726573730000000000000000000000000000000000000000000000000000602082015250565b60006126b860268361197a565b91506126c38261265c565b604082019050919050565b600060208201905081810360008301526126e7816126ab565b9050919050565b7f4f776e61626c653a2063616c6c6572206973206e6f7420746865206f776e6572600082015250565b600061272460208361197a565b915061272f826126ee565b602082019050919050565b6000602082019050818103600083015261275381612717565b905091905056fea26469706673582212201ec846b8eee47339ee5bd325e5bc46043867fe0fc597ea4db9800cb0a66c256a64736f6c63430008130033",
  "immutableReferences": {},
  "source": "// SPDX-License-Identifier: MIT\n\npragma solidity 0.8.19;\n\n/*\nAt the moment about proposals :\n-these actions are avaible only for active members\n-proposals have a type (proposal, update, transfert, revocation). the first one is 'formal' and\nthe 3 others are 'execution' to update setting (see DPollStorage), transfert DPTtoken or revoke membership\n-proposals have a state (created, open, closed, executed)\n-to create a proposal, you need to be a member and have at least 2 DPTtoken\n-to vote, you need to be a member and have at least 1 DPTtoken\n-to close a vote, you need to be a member and have at least 1 DPTtoken\n-to execute a proposal, you need to be a member and have at least 1 DPTtoken\n-There's a delay to vote since the creation of the proposal and to execute the proposal since the end of the vote\n-All these actions give 1 DPTtoken to the member who perform them\n*/\n\n/**\n@title DPollVoting\n@author  ibourn\n@notice This contract is used to manage the proposals and the voting\n */\nimport \"@openzeppelin/contracts/access/Ownable.sol\";\nimport \"./DPollStorage.sol\";\nimport \"./DPollMember.sol\";\n\ncontract DPollVoting is DPollMember {\n   \n    modifier onlyMember() {\n        require(members[msg.sender].role == MemberRole.MEMBER, \"You are not a member\");\n        _;\n    }\n\n//     //modifer to avoid illimited creation of proposal max 1 creation per 4 days\n\n//     modifier onlyOncePer4Days() {\n//         require(members[msg.sender].lastProposalCreation + creationDelay.value < block.timestamp, \"You can only create one proposal every 4 days\");\n//         _;\n//     }\n\n//     //ADD getPEndingsProposal() to get all the proposals not executed\n\n//     //DAO has all the initial supply\n//     //vote give 1 DPTtoken to voter //create give 1 DPTtoken to creator\n//     //process to avoid creation to gain illimited DPTtoken\n//     function createProposal(\n//         string memory _title,\n//         string memory _description,\n//         ProposalType _purpose,\n//         address[] memory _payloadAddresses,\n//         uint256[] memory _payloadUint256,\n//         string[] memory _payloadString\n//     ) public onlyMember onlyOncePer4Days {\n//         proposalCount++;\n//         Proposal storage proposal = proposals[proposalCount];\n//         proposal.id = proposalCount;\n//         proposal.title = _title;\n//         proposal.description = _description;\n//         proposal.purpose = _purpose;\n//         proposal.state.status = PollStatus.CREATED;\n//         proposal.state.createdAt = block.timestamp;\n//         proposal.creator = msg.sender;\n//         proposal.payload.payloadAddresses = _payloadAddresses;\n//         proposal.payload.payloadUint256 = _payloadUint256;\n//         proposal.payload.payloadString = _payloadString;\n\n//         rewardAction(msg.sender);\n       \n//     }\n\n\n\n//     //ponderer le vote par le nombre de token (plus tard sera autrement rootsquare..)\n//     //verifier que le voter a bien le nombre de token necessaire\n//     function vote(uint256 _proposalId, bool _vote) public onlyMember {\n//         // ProposalType proposalType = proposals[_proposalId].purpose;\n//         require(DPTtoken.balanceOf(msg.sender) >= minTokenToVote, \"You need to have at least 1 DPTtoken to vote\");\n//         Proposal storage proposal = proposals[_proposalId];\n//         require(proposal.state.status == PollStatus.OPEN, \"Poll is not open\");\n//         require(proposal.voted[msg.sender] == false, \"You already voted\");\n//         proposal.voted[msg.sender] = true;\n//         proposal.state.votesTotal++;\n//         if (_vote) {\n//             proposal.state.votesFor++;\n//         } else {\n//             proposal.state.votesAgainst++;\n//         }\n//         rewardAction(msg.sender);\n//     }\n\n//     function closeVote(uint256 _proposalId) public onlyMember {\n//         Proposal storage proposal = proposals[_proposalId];\n//         require(proposal.state.status == PollStatus.OPEN, \"Poll is not open\");\n//         require(proposal.state.closedAt == 0, \"Poll is already closed\");\n//         require(proposal.state.createdAt + votingDuration.value < block.timestamp, \"Voting period is not over\");\n//         proposal.state.status = PollStatus.CLOSED;\n//         proposal.state.closedAt = block.timestamp;\n\n//         rewardAction(msg.sender);\n//     }\n\n//     function executeVote(uint256 _proposalId) public onlyMember {\n//         Proposal storage proposal = proposals[_proposalId];\n//         require(proposal.state.status == PollStatus.CLOSED, \"Poll is not closed\");\n//         require(proposal.state.executedAt != 0, \"Poll is already executed\");\n//         require(proposal.state.closedAt + executionDelay.value < block.timestamp, \"Execution delay is not over\");\n//         require(proposal.purpose != ProposalType.PROPOSAL, \"Proposal is not an execution\");\n//         proposal.state.status = PollStatus.EXECUTED;\n//         proposal.state.executedAt = block.timestamp;\n//         if (proposal.purpose == ProposalType.UPDATE_EXECUTION) {\n//             executeUpdate(_proposalId);\n//         } else if (proposal.purpose == ProposalType.TRANSFERT_EXECUTION) {\n//             executeTransfert(_proposalId);\n//         } else if (proposal.purpose == ProposalType.REVOCATION_EXECUTION) {\n//             executeRevocation(_proposalId);\n//         }\n\n//         rewardAction(msg.sender);\n//     }\n\n\n// //when eternal storage => compsotion name easier to get the variable in mapping\n//     //add check des range de vairbale possible\n//     function executeUpdate(uint256 _proposalId) internal onlyMember {\n//         ProposalPayload memory payload = proposals[_proposalId].payload;\n//         Value memory currentVotingDuration = votingDuration;\n//         Value memory currentExecutionDelay = executionDelay;\n//         Value memory currentCreationDelay = creationDelay;\n//         uint payloadStringLength = payload.payloadString.length;\n//         require(payloadStringLength == payload.payloadUint256.length, \"Payload length mismatch\");\n//         require(payloadStringLength != 0, \"Payload is empty\");\n//         require(checkUpdatableVariables(payload.payloadString), \"Payload contains non updatable variables\");\n\n//         for (uint256 i = 0; i < payloadStringLength; i++) {\n//             bytes32 variable = keccak256(abi.encodePacked(payload.payloadString[i]));\n//             uint value = payload.payloadUint256[i];\n//             if (variable == keccak256(abi.encodePacked(\"VotingDuration\"))) {\n//                 require(value >= currentVotingDuration.min && value <= currentVotingDuration.max, \"Voting duration out of range\");\n//                 votingDuration.value = value;\n//             } else if (variable == keccak256(abi.encodePacked(\"ExecutionDelay\"))) {\n//                 require(value >= currentExecutionDelay.min && value <= currentExecutionDelay.max, \"Execution delay out of range\");\n//                 executionDelay.value = value;\n//             } else if (variable == keccak256(abi.encodePacked(\"CreationDelay\"))) {\n//                 require(value >= currentCreationDelay.min && value <= currentCreationDelay.max, \"Creation delay out of range\");\n//                 creationDelay.value = value;\n//             }\n//         }\n\n\n\n    \n\n//     }\n\n//     function checkUpdatableVariables(string[] memory _updatableVariables) internal view returns (bool) {\n//         for (uint256 i = 0; i < _updatableVariables.length; i++) {\n//             bool isUpdatable = false;\n//             for (uint256 j = 0; j < updatableVariables.length; j++) {\n//                 if (keccak256(abi.encodePacked(_updatableVariables[i])) == keccak256(abi.encodePacked(updatableVariables[j]))) {\n//                     isUpdatable = true;\n//                 }\n//             }\n//             if (!isUpdatable) {\n//                 return false;\n//             }\n//         }\n//         return true;\n//     }\n\n//     function executeTransfert(uint256 _proposalId) internal onlyMember {\n//         ProposalPayload memory payload = proposals[_proposalId].payload;\n//         require(payload.payloadAddresses.length == payload.payloadUint256.length, \"Payload length mismatch\");\n//         require(payload.payloadAddresses.length != 0, \"Payload is empty\");\n//         uint256 totalAmount = 0;\n//         for (uint256 i = 0; i < payload.payloadAddresses.length; i++) {\n//             DPTtoken.transfer(payload.payloadAddresses[i], payload.payloadUint256[i]);  \n//         }\n//     }\n\n//     function executeRevocation(uint256 _proposalId) internal onlyMember {\n//         ProposalPayload memory payload = proposals[_proposalId].payload;\n//         require(payload.payloadAddresses.length != 0, \"Payload is empty\");\n//         for (uint256 i = 0; i < payload.payloadAddresses.length; i++) {\n//            revokeMembership(payload.payloadAddresses[i]);\n//         }\n\n//     }\n\n    event DAOTokenTransfer(address to, uint amount, string action);\n    function rewardAction(address _to) internal {\n        require(_to != address(0), \"Invalid address\");\n        require(members[_to].role == MemberRole.MEMBER, \"Not member\");\n        DPTtoken.transfer(_to, 1);\n\n\n        emit DAOTokenTransfer(_to, 1, \"Reward\");\n    }\n\n    function getMember(address _memberAddress) public view returns (Member memory) {\n        return members[_memberAddress];\n    }\n\n\n}",
  "sourcePath": "/home/ibournubuntu/ALYRA/PROJET_FINAL/DPoll/truffle/contracts/DPollVoting.sol",
  "compiler": {
    "name": "solc",
    "version": "0.8.19+commit.7dd6d404.Emscripten.clang"
  },
  "schemaVersion": "3.4.14",
  "updatedAt": "2023-07-21T10:48:04.381Z",
  "devdoc": {
    "kind": "dev",
    "methods": {
      "owner()": {
        "details": "Returns the address of the current owner."
      },
      "renounceOwnership()": {
        "details": "Leaves the contract without owner. It will not be possible to call `onlyOwner` functions. Can only be called by the current owner. NOTE: Renouncing ownership will leave the contract without an owner, thereby disabling any functionality that is only available to the owner."
      },
      "transferOwnership(address)": {
        "details": "Transfers ownership of the contract to a new account (`newOwner`). Can only be called by the current owner."
      }
    },
    "version": 1
  },
  "userdoc": {
    "kind": "user",
    "methods": {},
    "version": 1
  }
}