{
  "contractName": "DPollMember",
  "abi": [
    {
      "anonymous": false,
      "inputs": [
        {
          "indexed": true,
          "internalType": "address",
          "name": "previousOwner",
          "type": "address"
        },
        {
          "indexed": true,
          "internalType": "address",
          "name": "newOwner",
          "type": "address"
        }
      ],
      "name": "OwnershipTransferred",
      "type": "event"
    },
    {
      "inputs": [],
      "name": "DAOPollValidatorAddress",
      "outputs": [
        {
          "internalType": "address",
          "name": "",
          "type": "address"
        }
      ],
      "stateMutability": "view",
      "type": "function"
    },
    {
      "inputs": [],
      "name": "DAOProposalsAddress",
      "outputs": [
        {
          "internalType": "address",
          "name": "",
          "type": "address"
        }
      ],
      "stateMutability": "view",
      "type": "function"
    },
    {
      "inputs": [],
      "name": "DAO_MEMBERSHIP_FEE",
      "outputs": [
        {
          "internalType": "uint256",
          "name": "",
          "type": "uint256"
        }
      ],
      "stateMutability": "view",
      "type": "function"
    },
    {
      "inputs": [],
      "name": "DAObalance",
      "outputs": [
        {
          "internalType": "uint256",
          "name": "",
          "type": "uint256"
        }
      ],
      "stateMutability": "view",
      "type": "function"
    },
    {
      "inputs": [],
      "name": "DPTtoken",
      "outputs": [
        {
          "internalType": "contract DPollToken",
          "name": "",
          "type": "address"
        }
      ],
      "stateMutability": "view",
      "type": "function"
    },
    {
      "inputs": [
        {
          "internalType": "address",
          "name": "",
          "type": "address"
        }
      ],
      "name": "members",
      "outputs": [
        {
          "internalType": "address",
          "name": "memberAddress",
          "type": "address"
        },
        {
          "internalType": "uint256",
          "name": "memberSince",
          "type": "uint256"
        },
        {
          "internalType": "uint256",
          "name": "lastProposalCreation",
          "type": "uint256"
        },
        {
          "internalType": "uint256",
          "name": "balance",
          "type": "uint256"
        },
        {
          "internalType": "uint256",
          "name": "rewardsBalance",
          "type": "uint256"
        },
        {
          "internalType": "enum DPollStorage.MemberRole",
          "name": "role",
          "type": "uint8"
        }
      ],
      "stateMutability": "view",
      "type": "function"
    },
    {
      "inputs": [
        {
          "internalType": "uint256",
          "name": "",
          "type": "uint256"
        }
      ],
      "name": "membersList",
      "outputs": [
        {
          "internalType": "address",
          "name": "memberAddress",
          "type": "address"
        },
        {
          "internalType": "uint256",
          "name": "memberSince",
          "type": "uint256"
        },
        {
          "internalType": "uint256",
          "name": "lastProposalCreation",
          "type": "uint256"
        },
        {
          "internalType": "uint256",
          "name": "balance",
          "type": "uint256"
        },
        {
          "internalType": "uint256",
          "name": "rewardsBalance",
          "type": "uint256"
        },
        {
          "internalType": "enum DPollStorage.MemberRole",
          "name": "role",
          "type": "uint8"
        }
      ],
      "stateMutability": "view",
      "type": "function"
    },
    {
      "inputs": [],
      "name": "owner",
      "outputs": [
        {
          "internalType": "address",
          "name": "",
          "type": "address"
        }
      ],
      "stateMutability": "view",
      "type": "function"
    },
    {
      "inputs": [],
      "name": "renounceOwnership",
      "outputs": [],
      "stateMutability": "nonpayable",
      "type": "function"
    },
    {
      "inputs": [
        {
          "internalType": "address",
          "name": "newOwner",
          "type": "address"
        }
      ],
      "name": "transferOwnership",
      "outputs": [],
      "stateMutability": "nonpayable",
      "type": "function"
    },
    {
      "inputs": [
        {
          "internalType": "address",
          "name": "_memberAddress",
          "type": "address"
        }
      ],
      "name": "isMember",
      "outputs": [
        {
          "internalType": "bool",
          "name": "",
          "type": "bool"
        }
      ],
      "stateMutability": "view",
      "type": "function"
    },
    {
      "inputs": [
        {
          "internalType": "address",
          "name": "_memberAddress",
          "type": "address"
        }
      ],
      "name": "isMemberExtCall",
      "outputs": [
        {
          "internalType": "bool",
          "name": "",
          "type": "bool"
        }
      ],
      "stateMutability": "view",
      "type": "function"
    },
    {
      "inputs": [
        {
          "internalType": "address",
          "name": "_memberAddress",
          "type": "address"
        }
      ],
      "name": "getMember",
      "outputs": [
        {
          "components": [
            {
              "internalType": "address",
              "name": "memberAddress",
              "type": "address"
            },
            {
              "internalType": "uint256",
              "name": "memberSince",
              "type": "uint256"
            },
            {
              "internalType": "uint256",
              "name": "lastProposalCreation",
              "type": "uint256"
            },
            {
              "internalType": "uint256",
              "name": "balance",
              "type": "uint256"
            },
            {
              "internalType": "uint256",
              "name": "rewardsBalance",
              "type": "uint256"
            },
            {
              "internalType": "enum DPollStorage.MemberRole",
              "name": "role",
              "type": "uint8"
            }
          ],
          "internalType": "struct DPollStorage.Member",
          "name": "",
          "type": "tuple"
        }
      ],
      "stateMutability": "view",
      "type": "function"
    },
    {
      "inputs": [],
      "name": "getMembersCount",
      "outputs": [
        {
          "internalType": "uint256",
          "name": "",
          "type": "uint256"
        }
      ],
      "stateMutability": "view",
      "type": "function"
    },
    {
      "inputs": [
        {
          "internalType": "address",
          "name": "_memberAddress",
          "type": "address"
        }
      ],
      "name": "addMember",
      "outputs": [],
      "stateMutability": "payable",
      "type": "function"
    },
    {
      "inputs": [
        {
          "internalType": "address",
          "name": "_memberAddress",
          "type": "address"
        }
      ],
      "name": "removeMember",
      "outputs": [],
      "stateMutability": "nonpayable",
      "type": "function"
    }
  ],
  "bytecode": "0x608060405234801561001057600080fd5b5061002d61002261003260201b60201c565b61003a60201b60201c565b6100fe565b600033905090565b60008060009054906101000a900473ffffffffffffffffffffffffffffffffffffffff169050816000806101000a81548173ffffffffffffffffffffffffffffffffffffffff021916908373ffffffffffffffffffffffffffffffffffffffff1602179055508173ffffffffffffffffffffffffffffffffffffffff168173ffffffffffffffffffffffffffffffffffffffff167f8be0079c531659141344cd1fd0a4f28419497f9722a3daafe3b4186f6b6457e060405160405180910390a35050565b611a238061010d6000396000f3fe6080604052600436106100f35760003560e01c80638912620c1161008a578063ca6d56dc11610059578063ca6d56dc1461034a578063d825de3414610366578063ed02e40514610391578063f2fde38b146103bc576100f3565b80638912620c1461028c5780638da5cb5b146102b7578063a230c524146102e2578063b1ad59791461031f576100f3565b806313b8ad31116100c657806313b8ad31146101cb5780632ada25961461020d578063715018a61461024a5780637d39bb5914610261576100f3565b8063076af049146100f857806308ae4b0c1461013557806309772f8f146101775780630b1ca49a146101a2575b600080fd5b34801561010457600080fd5b5061011f600480360381019061011a91906111a0565b6103e5565b60405161012c91906111e8565b60405180910390f35b34801561014157600080fd5b5061015c600480360381019061015791906111a0565b6103f7565b60405161016e969594939291906112a2565b60405180910390f35b34801561018357600080fd5b5061018c610460565b6040516101999190611303565b60405180910390f35b3480156101ae57600080fd5b506101c960048036038101906101c491906111a0565b61046d565b005b3480156101d757600080fd5b506101f260048036038101906101ed919061134a565b61088b565b604051610204969594939291906112a2565b60405180910390f35b34801561021957600080fd5b50610234600480360381019061022f91906111a0565b610904565b604051610241919061141f565b60405180910390f35b34801561025657600080fd5b5061025f610a16565b005b34801561026d57600080fd5b50610276610a2a565b604051610283919061143a565b60405180910390f35b34801561029857600080fd5b506102a1610a50565b6040516102ae91906114b4565b60405180910390f35b3480156102c357600080fd5b506102cc610a76565b6040516102d9919061143a565b60405180910390f35b3480156102ee57600080fd5b50610309600480360381019061030491906111a0565b610a9f565b60405161031691906111e8565b60405180910390f35b34801561032b57600080fd5b50610334610b1e565b6040516103419190611303565b60405180910390f35b610364600480360381019061035f91906111a0565b610b24565b005b34801561037257600080fd5b5061037b610ee1565b6040516103889190611303565b60405180910390f35b34801561039d57600080fd5b506103a6610eec565b6040516103b3919061143a565b60405180910390f35b3480156103c857600080fd5b506103e360048036038101906103de91906111a0565b610f12565b005b60006103f082610a9f565b9050919050565b60056020528060005260406000206000915090508060000160009054906101000a900473ffffffffffffffffffffffffffffffffffffffff16908060010154908060020154908060030154908060040154908060050160009054906101000a900460ff16905086565b6000600680549050905090565b6001808111156104805761047f61122b565b5b600560003373ffffffffffffffffffffffffffffffffffffffff1673ffffffffffffffffffffffffffffffffffffffff16815260200190815260200160002060050160009054906101000a900460ff1660018111156104e2576104e161122b565b5b14610522576040517f08c379a00000000000000000000000000000000000000000000000000000000081526004016105199061152c565b60405180910390fd5b3373ffffffffffffffffffffffffffffffffffffffff168173ffffffffffffffffffffffffffffffffffffffff1614610590576040517f08c379a0000000000000000000000000000000000000000000000000000000008152600401610587906115be565b60405180910390fd5b6000600560008373ffffffffffffffffffffffffffffffffffffffff1673ffffffffffffffffffffffffffffffffffffffff1681526020019081526020016000206040518060c00160405290816000820160009054906101000a900473ffffffffffffffffffffffffffffffffffffffff1673ffffffffffffffffffffffffffffffffffffffff1673ffffffffffffffffffffffffffffffffffffffff168152602001600182015481526020016002820154815260200160038201548152602001600482015481526020016005820160009054906101000a900460ff16600181111561067f5761067e61122b565b5b60018111156106915761069061122b565b5b815250509050426224ea0082602001516106ab919061160d565b106106eb576040517f08c379a00000000000000000000000000000000000000000000000000000000081526004016106e2906116b3565b60405180910390fd5b6000816060015190506000600560008573ffffffffffffffffffffffffffffffffffffffff1673ffffffffffffffffffffffffffffffffffffffff1681526020019081526020016000206003018190555060008373ffffffffffffffffffffffffffffffffffffffff168260405161076290611704565b60006040518083038185875af1925050503d806000811461079f576040519150601f19603f3d011682016040523d82523d6000602084013e6107a4565b606091505b50509050806107e8576040517f08c379a00000000000000000000000000000000000000000000000000000000081526004016107df90611765565b60405180910390fd5b600560008573ffffffffffffffffffffffffffffffffffffffff1673ffffffffffffffffffffffffffffffffffffffff168152602001908152602001600020600080820160006101000a81549073ffffffffffffffffffffffffffffffffffffffff021916905560018201600090556002820160009055600382016000905560048201600090556005820160006101000a81549060ff0219169055505050505050565b6006818154811061089b57600080fd5b90600052602060002090600602016000915090508060000160009054906101000a900473ffffffffffffffffffffffffffffffffffffffff16908060010154908060020154908060030154908060040154908060050160009054906101000a900460ff16905086565b61090c6110df565b600560008373ffffffffffffffffffffffffffffffffffffffff1673ffffffffffffffffffffffffffffffffffffffff1681526020019081526020016000206040518060c00160405290816000820160009054906101000a900473ffffffffffffffffffffffffffffffffffffffff1673ffffffffffffffffffffffffffffffffffffffff1673ffffffffffffffffffffffffffffffffffffffff168152602001600182015481526020016002820154815260200160038201548152602001600482015481526020016005820160009054906101000a900460ff1660018111156109f9576109f861122b565b5b6001811115610a0b57610a0a61122b565b5b815250509050919050565b610a1e610f95565b610a286000611013565b565b600260009054906101000a900473ffffffffffffffffffffffffffffffffffffffff1681565b600360009054906101000a900473ffffffffffffffffffffffffffffffffffffffff1681565b60008060009054906101000a900473ffffffffffffffffffffffffffffffffffffffff16905090565b6000600180811115610ab457610ab361122b565b5b600560008473ffffffffffffffffffffffffffffffffffffffff1673ffffffffffffffffffffffffffffffffffffffff16815260200190815260200160002060050160009054906101000a900460ff166001811115610b1657610b1561122b565b5b149050919050565b60045481565b66470de4df820000341015610b6e576040517f08c379a0000000000000000000000000000000000000000000000000000000008152600401610b65906117f7565b60405180910390fd5b60006001811115610b8257610b8161122b565b5b600560008373ffffffffffffffffffffffffffffffffffffffff1673ffffffffffffffffffffffffffffffffffffffff16815260200190815260200160002060050160009054906101000a900460ff166001811115610be457610be361122b565b5b14610c24576040517f08c379a0000000000000000000000000000000000000000000000000000000008152600401610c1b90611863565b60405180910390fd5b6000600560008373ffffffffffffffffffffffffffffffffffffffff1673ffffffffffffffffffffffffffffffffffffffff1681526020019081526020016000206001015414610ca9576040517f08c379a0000000000000000000000000000000000000000000000000000000008152600401610ca0906118cf565b60405180910390fd5b610cb16110df565b81816000019073ffffffffffffffffffffffffffffffffffffffff16908173ffffffffffffffffffffffffffffffffffffffff16815250504281602001818152505060018160a001906001811115610d0c57610d0b61122b565b5b90816001811115610d2057610d1f61122b565b5b8152505034816060018181525050600681908060018154018082558091505060019003906000526020600020906006020160009091909190915060008201518160000160006101000a81548173ffffffffffffffffffffffffffffffffffffffff021916908373ffffffffffffffffffffffffffffffffffffffff1602179055506020820151816001015560408201518160020155606082015181600301556080820151816004015560a08201518160050160006101000a81548160ff02191690836001811115610df457610df361122b565b5b0217905550505080600560008473ffffffffffffffffffffffffffffffffffffffff1673ffffffffffffffffffffffffffffffffffffffff16815260200190815260200160002060008201518160000160006101000a81548173ffffffffffffffffffffffffffffffffffffffff021916908373ffffffffffffffffffffffffffffffffffffffff1602179055506020820151816001015560408201518160020155606082015181600301556080820151816004015560a08201518160050160006101000a81548160ff02191690836001811115610ed557610ed461122b565b5b02179055509050505050565b66470de4df82000081565b600160009054906101000a900473ffffffffffffffffffffffffffffffffffffffff1681565b610f1a610f95565b600073ffffffffffffffffffffffffffffffffffffffff168173ffffffffffffffffffffffffffffffffffffffff1603610f89576040517f08c379a0000000000000000000000000000000000000000000000000000000008152600401610f8090611961565b60405180910390fd5b610f9281611013565b50565b610f9d6110d7565b73ffffffffffffffffffffffffffffffffffffffff16610fbb610a76565b73ffffffffffffffffffffffffffffffffffffffff1614611011576040517f08c379a0000000000000000000000000000000000000000000000000000000008152600401611008906119cd565b60405180910390fd5b565b60008060009054906101000a900473ffffffffffffffffffffffffffffffffffffffff169050816000806101000a81548173ffffffffffffffffffffffffffffffffffffffff021916908373ffffffffffffffffffffffffffffffffffffffff1602179055508173ffffffffffffffffffffffffffffffffffffffff168173ffffffffffffffffffffffffffffffffffffffff167f8be0079c531659141344cd1fd0a4f28419497f9722a3daafe3b4186f6b6457e060405160405180910390a35050565b600033905090565b6040518060c00160405280600073ffffffffffffffffffffffffffffffffffffffff16815260200160008152602001600081526020016000815260200160008152602001600060018111156111375761113661122b565b5b81525090565b600080fd5b600073ffffffffffffffffffffffffffffffffffffffff82169050919050565b600061116d82611142565b9050919050565b61117d81611162565b811461118857600080fd5b50565b60008135905061119a81611174565b92915050565b6000602082840312156111b6576111b561113d565b5b60006111c48482850161118b565b91505092915050565b60008115159050919050565b6111e2816111cd565b82525050565b60006020820190506111fd60008301846111d9565b92915050565b61120c81611162565b82525050565b6000819050919050565b61122581611212565b82525050565b7f4e487b7100000000000000000000000000000000000000000000000000000000600052602160045260246000fd5b6002811061126b5761126a61122b565b5b50565b600081905061127c8261125a565b919050565b600061128c8261126e565b9050919050565b61129c81611281565b82525050565b600060c0820190506112b76000830189611203565b6112c4602083018861121c565b6112d1604083018761121c565b6112de606083018661121c565b6112eb608083018561121c565b6112f860a0830184611293565b979650505050505050565b6000602082019050611318600083018461121c565b92915050565b61132781611212565b811461133257600080fd5b50565b6000813590506113448161131e565b92915050565b6000602082840312156113605761135f61113d565b5b600061136e84828501611335565b91505092915050565b61138081611162565b82525050565b61138f81611212565b82525050565b61139e81611281565b82525050565b60c0820160008201516113ba6000850182611377565b5060208201516113cd6020850182611386565b5060408201516113e06040850182611386565b5060608201516113f36060850182611386565b5060808201516114066080850182611386565b5060a082015161141960a0850182611395565b50505050565b600060c08201905061143460008301846113a4565b92915050565b600060208201905061144f6000830184611203565b92915050565b6000819050919050565b600061147a61147561147084611142565b611455565b611142565b9050919050565b600061148c8261145f565b9050919050565b600061149e82611481565b9050919050565b6114ae81611493565b82525050565b60006020820190506114c960008301846114a5565b92915050565b600082825260208201905092915050565b7f596f7520617265206e6f742061206d656d626572000000000000000000000000600082015250565b60006115166014836114cf565b9150611521826114e0565b602082019050919050565b6000602082019050818103600083015261154581611509565b9050919050565b7f4f6e6c79206d656d6265722063616e2064656369646520746f206c656176652060008201527f7468652044414f00000000000000000000000000000000000000000000000000602082015250565b60006115a86027836114cf565b91506115b38261154c565b604082019050919050565b600060208201905081810360008301526115d78161159b565b9050919050565b7f4e487b7100000000000000000000000000000000000000000000000000000000600052601160045260246000fd5b600061161882611212565b915061162383611212565b925082820190508082111561163b5761163a6115de565b5b92915050565b7f596f75206e65656420746f20776169742032382064617973206265666f72652060008201527f6c656176696e67207468652044414f0000000000000000000000000000000000602082015250565b600061169d602f836114cf565b91506116a882611641565b604082019050919050565b600060208201905081810360008301526116cc81611690565b9050919050565b600081905092915050565b50565b60006116ee6000836116d3565b91506116f9826116de565b600082019050919050565b600061170f826116e1565b9150819050919050565b7f5472616e73666572206661696c65642e00000000000000000000000000000000600082015250565b600061174f6010836114cf565b915061175a82611719565b602082019050919050565b6000602082019050818103600083015261177e81611742565b9050919050565b7f596f75206e65656420746f2073656e64206174206c6561737420302e3032206560008201527f7468657200000000000000000000000000000000000000000000000000000000602082015250565b60006117e16024836114cf565b91506117ec82611785565b604082019050919050565b60006020820190508181036000830152611810816117d4565b9050919050565b7f596f752061726520616c72656164792061206d656d6265720000000000000000600082015250565b600061184d6018836114cf565b915061185882611817565b602082019050919050565b6000602082019050818103600083015261187c81611840565b9050919050565b7f416c726561647920696e207468652044414f0000000000000000000000000000600082015250565b60006118b96012836114cf565b91506118c482611883565b602082019050919050565b600060208201905081810360008301526118e8816118ac565b9050919050565b7f4f776e61626c653a206e6577206f776e657220697320746865207a65726f206160008201527f6464726573730000000000000000000000000000000000000000000000000000602082015250565b600061194b6026836114cf565b9150611956826118ef565b604082019050919050565b6000602082019050818103600083015261197a8161193e565b9050919050565b7f4f776e61626c653a2063616c6c6572206973206e6f7420746865206f776e6572600082015250565b60006119b76020836114cf565b91506119c282611981565b602082019050919050565b600060208201905081810360008301526119e6816119aa565b905091905056fea2646970667358221220c7d0adfdc84308f02c33ed717b88d9c4b19ba30b583f15a82979f6bdd8c904f464736f6c63430008130033",
  "immutableReferences": {},
  "source": "// SPDX-License-Identifier: MIT\n\npragma solidity 0.8.19;\n\n/*\nfor now, in this POC :\n-anyone can become a member by sending 0.1 ether to the DAO\n-this amount is locked for 28 days (can be changed) to vaoid sybil attack (you will be member for 28 days minimum)\n-when leaving the DAO this amount is sent back to the member BUT not if the member is revoked by the DAO\n\n-the DPTtoken is the gouvrnance token of the DAO\n-The DAO mint all the DPTtoken at the creation and distribute them to the members\n-to gain DPTtoken you need to be a member and perform action for the DAO :\n+ create, vote, close, execute a proposal\n+ validate or invalidate a poll, close a submission ...\n\n-closing proposal, submission and such action are 'opened' to allow later bots to perform them\nin order to allow an automatization of tasks with an incentive to do it well\n*/\n\n/**\n@title DPollMember\n@author ibourn\n@notice This contract is used to manage the members of the DAO and the DPToken holders (gouvernance token)\n */\nimport \"./DPollStorage.sol\";\nimport \"./IDAOmembership.sol\";\n\n//@todo add events to membership actions\ncontract DPollMember is DPollStorage, IDAOmembership {\n    modifier onlyMember() {\n        require(members[msg.sender].role == MemberRole.MEMBER, \"You are not a member\");\n        _;\n    }\n\n    function isMember(address _memberAddress) public view returns (bool) {\n        return members[_memberAddress].role == MemberRole.MEMBER;\n    }\n    //!!DONT FORGET TEST NEW FUNCTION\n    function isMemberExtCall(address _memberAddress) external view returns (bool) {\n        return isMember(_memberAddress);\n    }\n\n    function getMember(address _memberAddress) public view returns (Member memory) {\n        return members[_memberAddress];\n    }\n\n    function getMembersCount() public view returns (uint) {\n        return membersList.length;\n    }\n\n    //later only DAO will be able to grant or revoke role with Execution proposals\n    function grantRole(address _memberAddress, MemberRole _role) internal onlyOwner {\n        members[_memberAddress].role = _role;\n    }\n\n    // function revokeRole(address _memberAddress) public onlyDAO {\n    //     members[_memberAddress].role = MemberRole.GUEST;\n    // }\n\n    function addMember(address _memberAddress) public payable {\n        require(msg.value >= DAO_MEMBERSHIP_FEE, \"You need to send at least 0.02 ether\");\n        require(members[_memberAddress].role == MemberRole.GUEST, \"You are already a member\");\n        require(members[_memberAddress].memberSince == 0, \"Already in the DAO\");\n        Member memory newMember;\n        newMember.memberAddress = _memberAddress;\n        newMember.memberSince = block.timestamp;\n        newMember.role = MemberRole.MEMBER;\n        newMember.balance = msg.value;\n        membersList.push(newMember);\n        members[_memberAddress] = newMember;\n\n        // DAObalance += msg.value;\n    }\n\n    function removeMember(address _memberAddress) public onlyMember() {\n        require(_memberAddress == msg.sender, \"Only member can decide to leave the DAO\");\n        Member memory member = members[_memberAddress];\n        require(member.memberSince + 28 days < block.timestamp, \"You need to wait 28 days before leaving the DAO\");\n        uint amount = member.balance;\n        members[_memberAddress].balance = 0;\n        (bool success, ) = payable(_memberAddress).call{value: amount}(\"\");\n        require(success, \"Transfer failed.\");\n        delete members[_memberAddress];\n        //update balance => DPT to DAO // eth send back to member\n    }\n\n    // function revokeMembership(address _memberAddress) public onlyDAO {\n    //     Member storage member = members[_memberAddress];\n    //     require(member.role == MemberRole.MEMBER, \"Address is not a member\");\n    //     DAObalance += member.balance;\n    //     member.balance = 0;\n\n    //     delete members[_memberAddress];\n    //     //update balance => DPT to DAO // eth send back to member\n    // }\n\n\n}",
  "sourcePath": "/home/ibournubuntu/ALYRA/PROJET_FINAL/DPoll/truffle/contracts/DPollMember.sol",
  "compiler": {
    "name": "solc",
    "version": "0.8.19+commit.7dd6d404.Emscripten.clang"
  },
  "schemaVersion": "3.4.14",
  "updatedAt": "2023-07-22T22:06:55.984Z",
  "devdoc": {
    "kind": "dev",
    "methods": {
      "owner()": {
        "details": "Returns the address of the current owner."
      },
      "renounceOwnership()": {
        "details": "Leaves the contract without owner. It will not be possible to call `onlyOwner` functions. Can only be called by the current owner. NOTE: Renouncing ownership will leave the contract without an owner, thereby disabling any functionality that is only available to the owner."
      },
      "transferOwnership(address)": {
        "details": "Transfers ownership of the contract to a new account (`newOwner`). Can only be called by the current owner."
      }
    },
    "version": 1
  },
  "userdoc": {
    "kind": "user",
    "methods": {},
    "version": 1
  }
}