{
  "contractName": "DPollPluginProposals",
  "abi": [
    {
      "inputs": [
        {
          "internalType": "address",
          "name": "_DAOaddress",
          "type": "address"
        },
        {
          "internalType": "address",
          "name": "_DPTtokenAddress",
          "type": "address"
        }
      ],
      "stateMutability": "nonpayable",
      "type": "constructor"
    },
    {
      "anonymous": false,
      "inputs": [
        {
          "indexed": true,
          "internalType": "address",
          "name": "previousOwner",
          "type": "address"
        },
        {
          "indexed": true,
          "internalType": "address",
          "name": "newOwner",
          "type": "address"
        }
      ],
      "name": "OwnershipTransferred",
      "type": "event"
    },
    {
      "anonymous": false,
      "inputs": [
        {
          "indexed": true,
          "internalType": "address",
          "name": "creator",
          "type": "address"
        },
        {
          "indexed": true,
          "internalType": "uint256",
          "name": "proposalId",
          "type": "uint256"
        },
        {
          "indexed": false,
          "internalType": "enum DPollPluginProposals.ProposalStatus",
          "name": "status",
          "type": "uint8"
        }
      ],
      "name": "ProposalChange",
      "type": "event"
    },
    {
      "anonymous": false,
      "inputs": [
        {
          "indexed": true,
          "internalType": "uint256",
          "name": "proposalId",
          "type": "uint256"
        },
        {
          "indexed": true,
          "internalType": "enum DPollPluginProposals.ProposalType",
          "name": "proposalType",
          "type": "uint8"
        }
      ],
      "name": "ProposalExecution",
      "type": "event"
    },
    {
      "inputs": [],
      "name": "DAOAddress",
      "outputs": [
        {
          "internalType": "address",
          "name": "",
          "type": "address"
        }
      ],
      "stateMutability": "view",
      "type": "function",
      "constant": true
    },
    {
      "inputs": [],
      "name": "DPTtoken",
      "outputs": [
        {
          "internalType": "contract DPollToken",
          "name": "",
          "type": "address"
        }
      ],
      "stateMutability": "view",
      "type": "function",
      "constant": true
    },
    {
      "inputs": [],
      "name": "DPTtokenAddress",
      "outputs": [
        {
          "internalType": "address",
          "name": "",
          "type": "address"
        }
      ],
      "stateMutability": "view",
      "type": "function",
      "constant": true
    },
    {
      "inputs": [],
      "name": "creationDelay",
      "outputs": [
        {
          "internalType": "uint256",
          "name": "value",
          "type": "uint256"
        },
        {
          "internalType": "uint256",
          "name": "min",
          "type": "uint256"
        },
        {
          "internalType": "uint256",
          "name": "max",
          "type": "uint256"
        }
      ],
      "stateMutability": "view",
      "type": "function",
      "constant": true
    },
    {
      "inputs": [],
      "name": "dpollDAO",
      "outputs": [
        {
          "internalType": "contract DPollDAO",
          "name": "",
          "type": "address"
        }
      ],
      "stateMutability": "view",
      "type": "function",
      "constant": true
    },
    {
      "inputs": [],
      "name": "initialCreationDelay",
      "outputs": [
        {
          "internalType": "uint256",
          "name": "",
          "type": "uint256"
        }
      ],
      "stateMutability": "view",
      "type": "function",
      "constant": true
    },
    {
      "inputs": [],
      "name": "initialVotingDuration",
      "outputs": [
        {
          "internalType": "uint256",
          "name": "",
          "type": "uint256"
        }
      ],
      "stateMutability": "view",
      "type": "function",
      "constant": true
    },
    {
      "inputs": [],
      "name": "minTokenToCreate",
      "outputs": [
        {
          "internalType": "uint256",
          "name": "",
          "type": "uint256"
        }
      ],
      "stateMutability": "view",
      "type": "function",
      "constant": true
    },
    {
      "inputs": [],
      "name": "minTokenToVote",
      "outputs": [
        {
          "internalType": "uint256",
          "name": "",
          "type": "uint256"
        }
      ],
      "stateMutability": "view",
      "type": "function",
      "constant": true
    },
    {
      "inputs": [],
      "name": "owner",
      "outputs": [
        {
          "internalType": "address",
          "name": "",
          "type": "address"
        }
      ],
      "stateMutability": "view",
      "type": "function",
      "constant": true
    },
    {
      "inputs": [],
      "name": "proposalCount",
      "outputs": [
        {
          "internalType": "uint256",
          "name": "",
          "type": "uint256"
        }
      ],
      "stateMutability": "view",
      "type": "function",
      "constant": true
    },
    {
      "inputs": [
        {
          "internalType": "uint256",
          "name": "",
          "type": "uint256"
        }
      ],
      "name": "proposals",
      "outputs": [
        {
          "internalType": "uint256",
          "name": "id",
          "type": "uint256"
        },
        {
          "internalType": "string",
          "name": "title",
          "type": "string"
        },
        {
          "internalType": "string",
          "name": "description",
          "type": "string"
        },
        {
          "internalType": "enum DPollPluginProposals.ProposalType",
          "name": "purpose",
          "type": "uint8"
        },
        {
          "components": [
            {
              "internalType": "uint256",
              "name": "votesFor",
              "type": "uint256"
            },
            {
              "internalType": "uint256",
              "name": "votesAgainst",
              "type": "uint256"
            },
            {
              "internalType": "uint256",
              "name": "votesTotal",
              "type": "uint256"
            },
            {
              "internalType": "enum DPollPluginProposals.ProposalStatus",
              "name": "status",
              "type": "uint8"
            },
            {
              "internalType": "uint256",
              "name": "createdAt",
              "type": "uint256"
            },
            {
              "internalType": "uint256",
              "name": "closedAt",
              "type": "uint256"
            },
            {
              "internalType": "uint256",
              "name": "executedAt",
              "type": "uint256"
            },
            {
              "internalType": "bool",
              "name": "isAccepted",
              "type": "bool"
            }
          ],
          "internalType": "struct DPollPluginProposals.ProposalState",
          "name": "state",
          "type": "tuple"
        },
        {
          "internalType": "address",
          "name": "creator",
          "type": "address"
        },
        {
          "components": [
            {
              "internalType": "uint256[]",
              "name": "payloadUint256",
              "type": "uint256[]"
            },
            {
              "internalType": "string[]",
              "name": "payloadString",
              "type": "string[]"
            }
          ],
          "internalType": "struct DPollPluginProposals.ProposalPayload",
          "name": "payload",
          "type": "tuple"
        }
      ],
      "stateMutability": "view",
      "type": "function",
      "constant": true
    },
    {
      "inputs": [],
      "name": "renounceOwnership",
      "outputs": [],
      "stateMutability": "nonpayable",
      "type": "function"
    },
    {
      "inputs": [
        {
          "internalType": "address",
          "name": "newOwner",
          "type": "address"
        }
      ],
      "name": "transferOwnership",
      "outputs": [],
      "stateMutability": "nonpayable",
      "type": "function"
    },
    {
      "inputs": [],
      "name": "votingDuration",
      "outputs": [
        {
          "internalType": "uint256",
          "name": "value",
          "type": "uint256"
        },
        {
          "internalType": "uint256",
          "name": "min",
          "type": "uint256"
        },
        {
          "internalType": "uint256",
          "name": "max",
          "type": "uint256"
        }
      ],
      "stateMutability": "view",
      "type": "function",
      "constant": true
    },
    {
      "inputs": [
        {
          "internalType": "string",
          "name": "_title",
          "type": "string"
        },
        {
          "internalType": "string",
          "name": "_description",
          "type": "string"
        },
        {
          "internalType": "enum DPollPluginProposals.ProposalType",
          "name": "_purpose",
          "type": "uint8"
        },
        {
          "internalType": "string[]",
          "name": "_payloadString",
          "type": "string[]"
        }
      ],
      "name": "createProposal",
      "outputs": [],
      "stateMutability": "nonpayable",
      "type": "function"
    },
    {
      "inputs": [
        {
          "internalType": "uint256",
          "name": "_proposalId",
          "type": "uint256"
        }
      ],
      "name": "openProposal",
      "outputs": [],
      "stateMutability": "nonpayable",
      "type": "function"
    },
    {
      "inputs": [
        {
          "internalType": "uint256",
          "name": "_proposalId",
          "type": "uint256"
        },
        {
          "internalType": "bool",
          "name": "_vote",
          "type": "bool"
        }
      ],
      "name": "vote",
      "outputs": [],
      "stateMutability": "nonpayable",
      "type": "function"
    },
    {
      "inputs": [
        {
          "internalType": "uint256",
          "name": "_proposalId",
          "type": "uint256"
        }
      ],
      "name": "closeProposal",
      "outputs": [],
      "stateMutability": "nonpayable",
      "type": "function"
    },
    {
      "inputs": [
        {
          "internalType": "uint256",
          "name": "_proposalId",
          "type": "uint256"
        }
      ],
      "name": "executeProposal",
      "outputs": [],
      "stateMutability": "nonpayable",
      "type": "function"
    }
  ],
  "bytecode": "0x6080604052600180556002600154620000199190620003c1565b60025560426003556032600455607860055560405180606001604052806005548152602001601e81526020016224ea00815250600b6000820151816000015560208201518160010155604082015181600201555050604051806060016040528060788152602001601e81526020016224ea00815250600e6000820151816000015560208201518160010155604082015181600201555050348015620000bd57600080fd5b506040516200494b3803806200494b8339818101604052810190620000e3919062000476565b62000103620000f7620002bc60201b60201c565b620002c460201b60201c565b81600860006101000a81548173ffffffffffffffffffffffffffffffffffffffff021916908373ffffffffffffffffffffffffffffffffffffffff160217905550600860009054906101000a900473ffffffffffffffffffffffffffffffffffffffff16600760006101000a81548173ffffffffffffffffffffffffffffffffffffffff021916908373ffffffffffffffffffffffffffffffffffffffff16021790555080600a60006101000a81548173ffffffffffffffffffffffffffffffffffffffff021916908373ffffffffffffffffffffffffffffffffffffffff160217905550600a60009054906101000a900473ffffffffffffffffffffffffffffffffffffffff16600960006101000a81548173ffffffffffffffffffffffffffffffffffffffff021916908373ffffffffffffffffffffffffffffffffffffffff160217905550601180600181540180825580915050600190039060005260206000200160006040518060400160405280600e81526020017f566f74696e674475726174696f6e00000000000000000000000000000000000081525090919091509081620002b391906200072d565b50505062000814565b600033905090565b60008060009054906101000a900473ffffffffffffffffffffffffffffffffffffffff169050816000806101000a81548173ffffffffffffffffffffffffffffffffffffffff021916908373ffffffffffffffffffffffffffffffffffffffff1602179055508173ffffffffffffffffffffffffffffffffffffffff168173ffffffffffffffffffffffffffffffffffffffff167f8be0079c531659141344cd1fd0a4f28419497f9722a3daafe3b4186f6b6457e060405160405180910390a35050565b6000819050919050565b7f4e487b7100000000000000000000000000000000000000000000000000000000600052601160045260246000fd5b6000620003ce8262000388565b9150620003db8362000388565b9250828202620003eb8162000388565b9150828204841483151762000405576200040462000392565b5b5092915050565b600080fd5b600073ffffffffffffffffffffffffffffffffffffffff82169050919050565b60006200043e8262000411565b9050919050565b620004508162000431565b81146200045c57600080fd5b50565b600081519050620004708162000445565b92915050565b6000806040838503121562000490576200048f6200040c565b5b6000620004a0858286016200045f565b9250506020620004b3858286016200045f565b9150509250929050565b600081519050919050565b7f4e487b7100000000000000000000000000000000000000000000000000000000600052604160045260246000fd5b7f4e487b7100000000000000000000000000000000000000000000000000000000600052602260045260246000fd5b600060028204905060018216806200053f57607f821691505b602082108103620005555762000554620004f7565b5b50919050565b60008190508160005260206000209050919050565b60006020601f8301049050919050565b600082821b905092915050565b600060088302620005bf7fffffffffffffffffffffffffffffffffffffffffffffffffffffffffffffffff8262000580565b620005cb868362000580565b95508019841693508086168417925050509392505050565b6000819050919050565b60006200060e62000608620006028462000388565b620005e3565b62000388565b9050919050565b6000819050919050565b6200062a83620005ed565b62000642620006398262000615565b8484546200058d565b825550505050565b600090565b620006596200064a565b620006668184846200061f565b505050565b5b818110156200068e57620006826000826200064f565b6001810190506200066c565b5050565b601f821115620006dd57620006a7816200055b565b620006b28462000570565b81016020851015620006c2578190505b620006da620006d18562000570565b8301826200066b565b50505b505050565b600082821c905092915050565b60006200070260001984600802620006e2565b1980831691505092915050565b60006200071d8383620006ef565b9150826002028217905092915050565b6200073882620004bd565b67ffffffffffffffff811115620007545762000753620004c8565b5b62000760825462000526565b6200076d82828562000692565b600060209050601f831160018114620007a5576000841562000790578287015190505b6200079c85826200070f565b8655506200080c565b601f198416620007b5866200055b565b60005b82811015620007df57848901518255600182019150602085019450602081019050620007b8565b86831015620007ff5784890151620007fb601f891682620006ef565b8355505b6001600288020188555050505b505050505050565b61412780620008246000396000f3fe608060405234801561001057600080fd5b506004361061012c5760003560e01c80638da5cb5b116100ad578063cb58bd3111610071578063cb58bd31146102f1578063d392eab11461030f578063da35c6641461032d578063f2fde38b1461034b578063f41fb63f146103675761012c565b80638da5cb5b1461025d578063a3db1d201461027b578063a475fa1814610299578063c086ba57146102b7578063c9d27afe146102d55761012c565b806319a6705d116100f457806319a6705d146101db57806331288f40146101f95780634cdc930f14610215578063715018a6146102355780638912620c1461023f5761012c565b8063013cf08b1461013157806302733bc9146101675780630386a016146101835780630d61b5191461019f578063132002fc146101bb575b600080fd5b61014b60048036038101906101469190612828565b610385565b60405161015e9796959493929190612cbf565b60405180910390f35b610181600480360381019061017c9190612f86565b6106dc565b005b61019d60048036038101906101989190612828565b610b78565b005b6101b960048036038101906101b49190612828565b611055565b005b6101c3611536565b6040516101d293929190613041565b60405180910390f35b6101e361154e565b6040516101f09190613078565b60405180910390f35b610213600480360381019061020e9190612828565b611553565b005b61021d611987565b60405161022c93929190613041565b60405180910390f35b61023d61199f565b005b6102476119b3565b60405161025491906130f2565b60405180910390f35b6102656119d9565b604051610272919061310d565b60405180910390f35b610283611a02565b6040516102909190613078565b60405180910390f35b6102a1611a08565b6040516102ae9190613078565b60405180910390f35b6102bf611a0e565b6040516102cc9190613078565b60405180910390f35b6102ef60048036038101906102ea9190613154565b611a14565b005b6102f9611e45565b60405161030691906131b5565b60405180910390f35b610317611e6b565b604051610324919061310d565b60405180910390f35b610335611e91565b6040516103429190613078565b60405180910390f35b610365600480360381019061036091906131fc565b611e97565b005b61036f611f1a565b60405161037c919061310d565b60405180910390f35b60126020528060005260406000206000915090508060000154908060010180546103ae90613258565b80601f01602080910402602001604051908101604052809291908181526020018280546103da90613258565b80156104275780601f106103fc57610100808354040283529160200191610427565b820191906000526020600020905b81548152906001019060200180831161040a57829003601f168201915b50505050509080600201805461043c90613258565b80601f016020809104026020016040519081016040528092919081815260200182805461046890613258565b80156104b55780601f1061048a576101008083540402835291602001916104b5565b820191906000526020600020905b81548152906001019060200180831161049857829003601f168201915b5050505050908060030160009054906101000a900460ff169080600401604051806101000160405290816000820154815260200160018201548152602001600282015481526020016003820160009054906101000a900460ff166003811115610521576105206128f4565b5b6003811115610533576105326128f4565b5b81526020016004820154815260200160058201548152602001600682015481526020016007820160009054906101000a900460ff1615151515815250509080600c0160009054906101000a900473ffffffffffffffffffffffffffffffffffffffff169080600d01604051806040016040529081600082018054806020026020016040519081016040528092919081815260200182805480156105f557602002820191906000526020600020905b8154815260200190600101908083116105e1575b5050505050815260200160018201805480602002602001604051908101604052809291908181526020016000905b828210156106cf57838290600052602060002001805461064290613258565b80601f016020809104026020016040519081016040528092919081815260200182805461066e90613258565b80156106bb5780601f10610690576101008083540402835291602001916106bb565b820191906000526020600020905b81548152906001019060200180831161069e57829003601f168201915b505050505081526020019060010190610623565b5050505081525050905087565b600760009054906101000a900473ffffffffffffffffffffffffffffffffffffffff1673ffffffffffffffffffffffffffffffffffffffff1663a230c524336040518263ffffffff1660e01b8152600401610737919061310d565b602060405180830381865afa158015610754573d6000803e3d6000fd5b505050506040513d601f19601f82011682018060405250810190610778919061329e565b6107b7576040517f08c379a00000000000000000000000000000000000000000000000000000000081526004016107ae90613317565b60405180910390fd5b42600e60000154600760009054906101000a900473ffffffffffffffffffffffffffffffffffffffff1673ffffffffffffffffffffffffffffffffffffffff16632ada2596336040518263ffffffff1660e01b8152600401610819919061310d565b60c060405180830381865afa158015610836573d6000803e3d6000fd5b505050506040513d601f19601f8201168201806040525081019061085a919061342b565b604001516108689190613487565b106108a8576040517f08c379a000000000000000000000000000000000000000000000000000000000815260040161089f9061352d565b60405180910390fd5b600254600960009054906101000a900473ffffffffffffffffffffffffffffffffffffffff1673ffffffffffffffffffffffffffffffffffffffff166370a08231336040518263ffffffff1660e01b8152600401610906919061310d565b602060405180830381865afa158015610923573d6000803e3d6000fd5b505050506040513d601f19601f82011682018060405250810190610947919061354d565b1015610988576040517f08c379a000000000000000000000000000000000000000000000000000000000815260040161097f906135c6565b60405180910390fd5b6006600081548092919061099b906135e6565b9190505550600060126000600654815260200190815260200160002090506006548160000181905550848160010190816109d591906137d0565b50838160020190816109e791906137d0565b50828160030160006101000a81548160ff02191690836003811115610a0f57610a0e6128f4565b5b02179055504281600401600401819055503381600c0160006101000a81548173ffffffffffffffffffffffffffffffffffffffff021916908373ffffffffffffffffffffffffffffffffffffffff1602179055508181600d016001019080519060200190610a7e929190612704565b50600760009054906101000a900473ffffffffffffffffffffffffffffffffffffffff1673ffffffffffffffffffffffffffffffffffffffff16631a1b8b6a336040518263ffffffff1660e01b8152600401610ada919061310d565b600060405180830381600087803b158015610af457600080fd5b505af1158015610b08573d6000803e3d6000fd5b505050506006543373ffffffffffffffffffffffffffffffffffffffff167f3fe20b4d25e23e4d454068ff9d21c6d8612d6202f03023dec36faf57e07dc2608360040160030160009054906101000a900460ff16604051610b6991906138b1565b60405180910390a35050505050565b600760009054906101000a900473ffffffffffffffffffffffffffffffffffffffff1673ffffffffffffffffffffffffffffffffffffffff1663a230c524336040518263ffffffff1660e01b8152600401610bd3919061310d565b602060405180830381865afa158015610bf0573d6000803e3d6000fd5b505050506040513d601f19601f82011682018060405250810190610c14919061329e565b610c53576040517f08c379a0000000000000000000000000000000000000000000000000000000008152600401610c4a90613317565b60405180910390fd5b600154600960009054906101000a900473ffffffffffffffffffffffffffffffffffffffff1673ffffffffffffffffffffffffffffffffffffffff166370a08231336040518263ffffffff1660e01b8152600401610cb1919061310d565b602060405180830381865afa158015610cce573d6000803e3d6000fd5b505050506040513d601f19601f82011682018060405250810190610cf2919061354d565b1015610d33576040517f08c379a0000000000000000000000000000000000000000000000000000000008152600401610d2a906135c6565b60405180910390fd5b600060126000838152602001908152602001600020905060016003811115610d5e57610d5d6128f4565b5b8160040160030160009054906101000a900460ff166003811115610d8557610d846128f4565b5b14610dc5576040517f08c379a0000000000000000000000000000000000000000000000000000000008152600401610dbc90613918565b60405180910390fd5b42600b600001548260040160040154610dde9190613487565b10610e1e576040517f08c379a0000000000000000000000000000000000000000000000000000000008152600401610e1590613984565b60405180910390fd5b60028160040160030160006101000a81548160ff02191690836003811115610e4957610e486128f4565b5b0217905550428160040160050181905550600081600401600201549050600354600760009054906101000a900473ffffffffffffffffffffffffffffffffffffffff1673ffffffffffffffffffffffffffffffffffffffff166309772f8f6040518163ffffffff1660e01b8152600401602060405180830381865afa158015610ed6573d6000803e3d6000fd5b505050506040513d601f19601f82011682018060405250810190610efa919061354d565b606483610f0791906139a4565b610f119190613a15565b10610f60576004548160648460040160000154610f2e91906139a4565b610f389190613a15565b1115610f5f5760018260040160070160006101000a81548160ff0219169083151502179055505b5b600760009054906101000a900473ffffffffffffffffffffffffffffffffffffffff1673ffffffffffffffffffffffffffffffffffffffff16631a1b8b6a336040518263ffffffff1660e01b8152600401610fbb919061310d565b600060405180830381600087803b158015610fd557600080fd5b505af1158015610fe9573d6000803e3d6000fd5b50505050823373ffffffffffffffffffffffffffffffffffffffff167f3fe20b4d25e23e4d454068ff9d21c6d8612d6202f03023dec36faf57e07dc2608460040160030160009054906101000a900460ff1660405161104891906138b1565b60405180910390a3505050565b600760009054906101000a900473ffffffffffffffffffffffffffffffffffffffff1673ffffffffffffffffffffffffffffffffffffffff1663a230c524336040518263ffffffff1660e01b81526004016110b0919061310d565b602060405180830381865afa1580156110cd573d6000803e3d6000fd5b505050506040513d601f19601f820116820180604052508101906110f1919061329e565b611130576040517f08c379a000000000000000000000000000000000000000000000000000000000815260040161112790613317565b60405180910390fd5b600154600960009054906101000a900473ffffffffffffffffffffffffffffffffffffffff1673ffffffffffffffffffffffffffffffffffffffff166370a08231336040518263ffffffff1660e01b815260040161118e919061310d565b602060405180830381865afa1580156111ab573d6000803e3d6000fd5b505050506040513d601f19601f820116820180604052508101906111cf919061354d565b1015611210576040517f08c379a0000000000000000000000000000000000000000000000000000000008152600401611207906135c6565b60405180910390fd5b60006012600083815260200190815260200160002090506002600381111561123b5761123a6128f4565b5b8160040160030160009054906101000a900460ff166003811115611262576112616128f4565b5b146112a2576040517f08c379a000000000000000000000000000000000000000000000000000000000815260040161129990613a92565b60405180910390fd5b600115158160040160070160009054906101000a900460ff161515146112fd576040517f08c379a00000000000000000000000000000000000000000000000000000000081526004016112f490613afe565b60405180910390fd5b6000816004016006015403611347576040517f08c379a000000000000000000000000000000000000000000000000000000000815260040161133e90613b6a565b60405180910390fd5b6000600381111561135b5761135a6128f4565b5b8160030160009054906101000a900460ff16600381111561137f5761137e6128f4565b5b036113bf576040517f08c379a00000000000000000000000000000000000000000000000000000000081526004016113b690613bd6565b60405180910390fd5b60038160040160030160006101000a81548160ff021916908360038111156113ea576113e96128f4565b5b02179055504281600401600601819055506001600381111561140f5761140e6128f4565b5b8160030160009054906101000a900460ff166003811115611433576114326128f4565b5b036114425761144182611f40565b5b600760009054906101000a900473ffffffffffffffffffffffffffffffffffffffff1673ffffffffffffffffffffffffffffffffffffffff16631a1b8b6a336040518263ffffffff1660e01b815260040161149d919061310d565b600060405180830381600087803b1580156114b757600080fd5b505af11580156114cb573d6000803e3d6000fd5b50505050813373ffffffffffffffffffffffffffffffffffffffff167f3fe20b4d25e23e4d454068ff9d21c6d8612d6202f03023dec36faf57e07dc2608360040160030160009054906101000a900460ff1660405161152a91906138b1565b60405180910390a35050565b600b8060000154908060010154908060020154905083565b607881565b600760009054906101000a900473ffffffffffffffffffffffffffffffffffffffff1673ffffffffffffffffffffffffffffffffffffffff1663a230c524336040518263ffffffff1660e01b81526004016115ae919061310d565b602060405180830381865afa1580156115cb573d6000803e3d6000fd5b505050506040513d601f19601f820116820180604052508101906115ef919061329e565b61162e576040517f08c379a000000000000000000000000000000000000000000000000000000000815260040161162590613317565b60405180910390fd5b600154600960009054906101000a900473ffffffffffffffffffffffffffffffffffffffff1673ffffffffffffffffffffffffffffffffffffffff166370a08231336040518263ffffffff1660e01b815260040161168c919061310d565b602060405180830381865afa1580156116a9573d6000803e3d6000fd5b505050506040513d601f19601f820116820180604052508101906116cd919061354d565b101561170e576040517f08c379a0000000000000000000000000000000000000000000000000000000008152600401611705906135c6565b60405180910390fd5b600073ffffffffffffffffffffffffffffffffffffffff1660126000838152602001908152602001600020600c0160009054906101000a900473ffffffffffffffffffffffffffffffffffffffff1673ffffffffffffffffffffffffffffffffffffffff16036117b3576040517f08c379a00000000000000000000000000000000000000000000000000000000081526004016117aa90613c42565b60405180910390fd5b600060038111156117c7576117c66128f4565b5b6012600083815260200190815260200160002060040160030160009054906101000a900460ff166003811115611800576117ff6128f4565b5b14611840576040517f08c379a000000000000000000000000000000000000000000000000000000000815260040161183790613cae565b60405180910390fd5b60016012600083815260200190815260200160002060040160030160006101000a81548160ff0219169083600381111561187d5761187c6128f4565b5b0217905550600760009054906101000a900473ffffffffffffffffffffffffffffffffffffffff1673ffffffffffffffffffffffffffffffffffffffff16631a1b8b6a336040518263ffffffff1660e01b81526004016118dd919061310d565b600060405180830381600087803b1580156118f757600080fd5b505af115801561190b573d6000803e3d6000fd5b50505050803373ffffffffffffffffffffffffffffffffffffffff167f3fe20b4d25e23e4d454068ff9d21c6d8612d6202f03023dec36faf57e07dc2606012600085815260200190815260200160002060040160030160009054906101000a900460ff1660405161197c91906138b1565b60405180910390a350565b600e8060000154908060010154908060020154905083565b6119a76123e1565b6119b1600061245f565b565b600960009054906101000a900473ffffffffffffffffffffffffffffffffffffffff1681565b60008060009054906101000a900473ffffffffffffffffffffffffffffffffffffffff16905090565b60055481565b60015481565b60025481565b600760009054906101000a900473ffffffffffffffffffffffffffffffffffffffff1673ffffffffffffffffffffffffffffffffffffffff1663a230c524336040518263ffffffff1660e01b8152600401611a6f919061310d565b602060405180830381865afa158015611a8c573d6000803e3d6000fd5b505050506040513d601f19601f82011682018060405250810190611ab0919061329e565b611aef576040517f08c379a0000000000000000000000000000000000000000000000000000000008152600401611ae690613317565b60405180910390fd5b600154600960009054906101000a900473ffffffffffffffffffffffffffffffffffffffff1673ffffffffffffffffffffffffffffffffffffffff166370a08231336040518263ffffffff1660e01b8152600401611b4d919061310d565b602060405180830381865afa158015611b6a573d6000803e3d6000fd5b505050506040513d601f19601f82011682018060405250810190611b8e919061354d565b1015611bcf576040517f08c379a0000000000000000000000000000000000000000000000000000000008152600401611bc6906135c6565b60405180910390fd5b600060126000848152602001908152602001600020905060016003811115611bfa57611bf96128f4565b5b8160040160030160009054906101000a900460ff166003811115611c2157611c206128f4565b5b14611c61576040517f08c379a0000000000000000000000000000000000000000000000000000000008152600401611c5890613918565b60405180910390fd5b6000151581600f0160003373ffffffffffffffffffffffffffffffffffffffff1673ffffffffffffffffffffffffffffffffffffffff16815260200190815260200160002060009054906101000a900460ff16151514611cf6576040517f08c379a0000000000000000000000000000000000000000000000000000000008152600401611ced90613d1a565b60405180910390fd5b600181600f0160003373ffffffffffffffffffffffffffffffffffffffff1673ffffffffffffffffffffffffffffffffffffffff16815260200190815260200160002060006101000a81548160ff021916908315150217905550806004016002016000815480929190611d68906135e6565b91905055508115611d9557806004016000016000815480929190611d8b906135e6565b9190505550611db3565b806004016001016000815480929190611dad906135e6565b91905055505b600760009054906101000a900473ffffffffffffffffffffffffffffffffffffffff1673ffffffffffffffffffffffffffffffffffffffff16631a1b8b6a336040518263ffffffff1660e01b8152600401611e0e919061310d565b600060405180830381600087803b158015611e2857600080fd5b505af1158015611e3c573d6000803e3d6000fd5b50505050505050565b600760009054906101000a900473ffffffffffffffffffffffffffffffffffffffff1681565b600860009054906101000a900473ffffffffffffffffffffffffffffffffffffffff1681565b60065481565b611e9f6123e1565b600073ffffffffffffffffffffffffffffffffffffffff168173ffffffffffffffffffffffffffffffffffffffff1603611f0e576040517f08c379a0000000000000000000000000000000000000000000000000000000008152600401611f0590613dac565b60405180910390fd5b611f178161245f565b50565b600a60009054906101000a900473ffffffffffffffffffffffffffffffffffffffff1681565b600760009054906101000a900473ffffffffffffffffffffffffffffffffffffffff1673ffffffffffffffffffffffffffffffffffffffff1663a230c524336040518263ffffffff1660e01b8152600401611f9b919061310d565b602060405180830381865afa158015611fb8573d6000803e3d6000fd5b505050506040513d601f19601f82011682018060405250810190611fdc919061329e565b61201b576040517f08c379a000000000000000000000000000000000000000000000000000000000815260040161201290613317565b60405180910390fd5b600060126000838152602001908152602001600020600d016040518060400160405290816000820180548060200260200160405190810160405280929190818152602001828054801561208d57602002820191906000526020600020905b815481526020019060010190808311612079575b5050505050815260200160018201805480602002602001604051908101604052809291908181526020016000905b828210156121675783829060005260206000200180546120da90613258565b80601f016020809104026020016040519081016040528092919081815260200182805461210690613258565b80156121535780601f1061212857610100808354040283529160200191612153565b820191906000526020600020905b81548152906001019060200180831161213657829003601f168201915b5050505050815260200190600101906120bb565b505050508152505090506000600b604051806060016040529081600082015481526020016001820154815260200160028201548152505090506000826020015151905082600001515181146121f1576040517f08c379a00000000000000000000000000000000000000000000000000000000081526004016121e890613e18565b60405180910390fd5b60008103612234576040517f08c379a000000000000000000000000000000000000000000000000000000000815260040161222b90613e84565b60405180910390fd5b6122418360200151612523565b612280576040517f08c379a000000000000000000000000000000000000000000000000000000000815260040161227790613f16565b60405180910390fd5b60005b81811015612399576000846020015182815181106122a4576122a3613f36565b5b60200260200101516040516020016122bc9190613fa1565b6040516020818303038152906040528051906020012090506000856000015183815181106122ed576122ec613f36565b5b6020026020010151905060405160200161230690614004565b604051602081830303815290604052805190602001208203612384578460200151811015801561233a575084604001518111155b612379576040517f08c379a000000000000000000000000000000000000000000000000000000000815260040161237090614065565b60405180910390fd5b80600b600001819055505b50508080612391906135e6565b915050612283565b50600160038111156123ae576123ad6128f4565b5b847f8d6c56abc8ddf56344ae6a50a40cc91df8e5bdc739b7794e03d839d4d1cfa1ff60405160405180910390a350505050565b6123e96126fc565b73ffffffffffffffffffffffffffffffffffffffff166124076119d9565b73ffffffffffffffffffffffffffffffffffffffff161461245d576040517f08c379a0000000000000000000000000000000000000000000000000000000008152600401612454906140d1565b60405180910390fd5b565b60008060009054906101000a900473ffffffffffffffffffffffffffffffffffffffff169050816000806101000a81548173ffffffffffffffffffffffffffffffffffffffff021916908373ffffffffffffffffffffffffffffffffffffffff1602179055508173ffffffffffffffffffffffffffffffffffffffff168173ffffffffffffffffffffffffffffffffffffffff167f8be0079c531659141344cd1fd0a4f28419497f9722a3daafe3b4186f6b6457e060405160405180910390a35050565b6000806011805480602002602001604051908101604052809291908181526020016000905b828210156125f457838290600052602060002001805461256790613258565b80601f016020809104026020016040519081016040528092919081815260200182805461259390613258565b80156125e05780601f106125b5576101008083540402835291602001916125e0565b820191906000526020600020905b8154815290600101906020018083116125c357829003601f168201915b505050505081526020019060010190612548565b5050505090506000815190506000805b85518110156126ef5760005b838110156126c95784818151811061262b5761262a613f36565b5b60200260200101516040516020016126439190613fa1565b6040516020818303038152906040528051906020012087838151811061266c5761266b613f36565b5b60200260200101516040516020016126849190613fa1565b60405160208183030381529060405280519060200120036126a857600192506126b6565b6000955050505050506126f7565b80806126c1906135e6565b915050612610565b50816126dc5760009450505050506126f7565b80806126e7906135e6565b915050612604565b508093505050505b919050565b600033905090565b82805482825590600052602060002090810192821561274c579160200282015b8281111561274b57825182908161273b91906137d0565b5091602001919060010190612724565b5b509050612759919061275d565b5090565b5b8082111561277d57600081816127749190612781565b5060010161275e565b5090565b50805461278d90613258565b6000825580601f1061279f57506127be565b601f0160209004906000526020600020908101906127bd91906127c1565b5b50565b5b808211156127da5760008160009055506001016127c2565b5090565b6000604051905090565b600080fd5b600080fd5b6000819050919050565b612805816127f2565b811461281057600080fd5b50565b600081359050612822816127fc565b92915050565b60006020828403121561283e5761283d6127e8565b5b600061284c84828501612813565b91505092915050565b61285e816127f2565b82525050565b600081519050919050565b600082825260208201905092915050565b60005b8381101561289e578082015181840152602081019050612883565b60008484015250505050565b6000601f19601f8301169050919050565b60006128c682612864565b6128d0818561286f565b93506128e0818560208601612880565b6128e9816128aa565b840191505092915050565b7f4e487b7100000000000000000000000000000000000000000000000000000000600052602160045260246000fd5b60048110612934576129336128f4565b5b50565b600081905061294582612923565b919050565b600061295582612937565b9050919050565b6129658161294a565b82525050565b612974816127f2565b82525050565b6004811061298b5761298a6128f4565b5b50565b600081905061299c8261297a565b919050565b60006129ac8261298e565b9050919050565b6129bc816129a1565b82525050565b60008115159050919050565b6129d7816129c2565b82525050565b610100820160008201516129f4600085018261296b565b506020820151612a07602085018261296b565b506040820151612a1a604085018261296b565b506060820151612a2d60608501826129b3565b506080820151612a40608085018261296b565b5060a0820151612a5360a085018261296b565b5060c0820151612a6660c085018261296b565b5060e0820151612a7960e08501826129ce565b50505050565b600073ffffffffffffffffffffffffffffffffffffffff82169050919050565b6000612aaa82612a7f565b9050919050565b612aba81612a9f565b82525050565b600081519050919050565b600082825260208201905092915050565b6000819050602082019050919050565b6000612af8838361296b565b60208301905092915050565b6000602082019050919050565b6000612b1c82612ac0565b612b268185612acb565b9350612b3183612adc565b8060005b83811015612b62578151612b498882612aec565b9750612b5483612b04565b925050600181019050612b35565b5085935050505092915050565b600081519050919050565b600082825260208201905092915050565b6000819050602082019050919050565b600082825260208201905092915050565b6000612bb782612864565b612bc18185612b9b565b9350612bd1818560208601612880565b612bda816128aa565b840191505092915050565b6000612bf18383612bac565b905092915050565b6000602082019050919050565b6000612c1182612b6f565b612c1b8185612b7a565b935083602082028501612c2d85612b8b565b8060005b85811015612c695784840389528151612c4a8582612be5565b9450612c5583612bf9565b925060208a01995050600181019050612c31565b50829750879550505050505092915050565b60006040830160008301518482036000860152612c988282612b11565b91505060208301518482036020860152612cb28282612c06565b9150508091505092915050565b60006101c082019050612cd5600083018a612855565b8181036020830152612ce781896128bb565b90508181036040830152612cfb81886128bb565b9050612d0a606083018761295c565b612d1760808301866129dd565b612d25610180830185612ab1565b8181036101a0830152612d388184612c7b565b905098975050505050505050565b600080fd5b600080fd5b7f4e487b7100000000000000000000000000000000000000000000000000000000600052604160045260246000fd5b612d88826128aa565b810181811067ffffffffffffffff82111715612da757612da6612d50565b5b80604052505050565b6000612dba6127de565b9050612dc68282612d7f565b919050565b600067ffffffffffffffff821115612de657612de5612d50565b5b612def826128aa565b9050602081019050919050565b82818337600083830152505050565b6000612e1e612e1984612dcb565b612db0565b905082815260208101848484011115612e3a57612e39612d4b565b5b612e45848285612dfc565b509392505050565b600082601f830112612e6257612e61612d46565b5b8135612e72848260208601612e0b565b91505092915050565b60048110612e8857600080fd5b50565b600081359050612e9a81612e7b565b92915050565b600067ffffffffffffffff821115612ebb57612eba612d50565b5b602082029050602081019050919050565b600080fd5b6000612ee4612edf84612ea0565b612db0565b90508083825260208201905060208402830185811115612f0757612f06612ecc565b5b835b81811015612f4e57803567ffffffffffffffff811115612f2c57612f2b612d46565b5b808601612f398982612e4d565b85526020850194505050602081019050612f09565b5050509392505050565b600082601f830112612f6d57612f6c612d46565b5b8135612f7d848260208601612ed1565b91505092915050565b60008060008060808587031215612fa057612f9f6127e8565b5b600085013567ffffffffffffffff811115612fbe57612fbd6127ed565b5b612fca87828801612e4d565b945050602085013567ffffffffffffffff811115612feb57612fea6127ed565b5b612ff787828801612e4d565b935050604061300887828801612e8b565b925050606085013567ffffffffffffffff811115613029576130286127ed565b5b61303587828801612f58565b91505092959194509250565b60006060820190506130566000830186612855565b6130636020830185612855565b6130706040830184612855565b949350505050565b600060208201905061308d6000830184612855565b92915050565b6000819050919050565b60006130b86130b36130ae84612a7f565b613093565b612a7f565b9050919050565b60006130ca8261309d565b9050919050565b60006130dc826130bf565b9050919050565b6130ec816130d1565b82525050565b600060208201905061310760008301846130e3565b92915050565b60006020820190506131226000830184612ab1565b92915050565b613131816129c2565b811461313c57600080fd5b50565b60008135905061314e81613128565b92915050565b6000806040838503121561316b5761316a6127e8565b5b600061317985828601612813565b925050602061318a8582860161313f565b9150509250929050565b600061319f826130bf565b9050919050565b6131af81613194565b82525050565b60006020820190506131ca60008301846131a6565b92915050565b6131d981612a9f565b81146131e457600080fd5b50565b6000813590506131f6816131d0565b92915050565b600060208284031215613212576132116127e8565b5b6000613220848285016131e7565b91505092915050565b7f4e487b7100000000000000000000000000000000000000000000000000000000600052602260045260246000fd5b6000600282049050600182168061327057607f821691505b60208210810361328357613282613229565b5b50919050565b60008151905061329881613128565b92915050565b6000602082840312156132b4576132b36127e8565b5b60006132c284828501613289565b91505092915050565b7f596f7520617265206e6f742061206d656d626572000000000000000000000000600082015250565b600061330160148361286f565b915061330c826132cb565b602082019050919050565b60006020820190508181036000830152613330816132f4565b9050919050565b600080fd5b60008151905061334b816131d0565b92915050565b600081519050613360816127fc565b92915050565b6002811061337357600080fd5b50565b60008151905061338581613366565b92915050565b600060c082840312156133a1576133a0613337565b5b6133ab60c0612db0565b905060006133bb8482850161333c565b60008301525060206133cf84828501613351565b60208301525060406133e384828501613351565b60408301525060606133f784828501613351565b606083015250608061340b84828501613351565b60808301525060a061341f84828501613376565b60a08301525092915050565b600060c08284031215613441576134406127e8565b5b600061344f8482850161338b565b91505092915050565b7f4e487b7100000000000000000000000000000000000000000000000000000000600052601160045260246000fd5b6000613492826127f2565b915061349d836127f2565b92508282019050808211156134b5576134b4613458565b5b92915050565b7f596f752063616e206f6e6c7920637265617465206f6e652070726f706f73616c60008201527f2065766572792034206461797300000000000000000000000000000000000000602082015250565b6000613517602d8361286f565b9150613522826134bb565b604082019050919050565b600060208201905081810360008301526135468161350a565b9050919050565b600060208284031215613563576135626127e8565b5b600061357184828501613351565b91505092915050565b7f4e6f7420656e6f75676820766f746520706f7765720000000000000000000000600082015250565b60006135b060158361286f565b91506135bb8261357a565b602082019050919050565b600060208201905081810360008301526135df816135a3565b9050919050565b60006135f1826127f2565b91507fffffffffffffffffffffffffffffffffffffffffffffffffffffffffffffffff820361362357613622613458565b5b600182019050919050565b60008190508160005260206000209050919050565b60006020601f8301049050919050565b600082821b905092915050565b6000600883026136907fffffffffffffffffffffffffffffffffffffffffffffffffffffffffffffffff82613653565b61369a8683613653565b95508019841693508086168417925050509392505050565b60006136cd6136c86136c3846127f2565b613093565b6127f2565b9050919050565b6000819050919050565b6136e7836136b2565b6136fb6136f3826136d4565b848454613660565b825550505050565b600090565b613710613703565b61371b8184846136de565b505050565b5b8181101561373f57613734600082613708565b600181019050613721565b5050565b601f821115613784576137558161362e565b61375e84613643565b8101602085101561376d578190505b61378161377985613643565b830182613720565b50505b505050565b600082821c905092915050565b60006137a760001984600802613789565b1980831691505092915050565b60006137c08383613796565b9150826002028217905092915050565b6137d982612864565b67ffffffffffffffff8111156137f2576137f1612d50565b5b6137fc8254613258565b613807828285613743565b600060209050601f83116001811461383a5760008415613828578287015190505b61383285826137b4565b86555061389a565b601f1984166138488661362e565b60005b828110156138705784890151825560018201915060208501945060208101905061384b565b8683101561388d5784890151613889601f891682613796565b8355505b6001600288020188555050505b505050505050565b6138ab816129a1565b82525050565b60006020820190506138c660008301846138a2565b92915050565b7f506f6c6c206973206e6f74206f70656e00000000000000000000000000000000600082015250565b600061390260108361286f565b915061390d826138cc565b602082019050919050565b60006020820190508181036000830152613931816138f5565b9050919050565b7f566f74696e6720706572696f64206973206e6f74206f76657200000000000000600082015250565b600061396e60198361286f565b915061397982613938565b602082019050919050565b6000602082019050818103600083015261399d81613961565b9050919050565b60006139af826127f2565b91506139ba836127f2565b92508282026139c8816127f2565b915082820484148315176139df576139de613458565b5b5092915050565b7f4e487b7100000000000000000000000000000000000000000000000000000000600052601260045260246000fd5b6000613a20826127f2565b9150613a2b836127f2565b925082613a3b57613a3a6139e6565b5b828204905092915050565b7f506f6c6c206973206e6f7420636c6f7365640000000000000000000000000000600082015250565b6000613a7c60128361286f565b9150613a8782613a46565b602082019050919050565b60006020820190508181036000830152613aab81613a6f565b9050919050565b7f506f6c6c206973206e6f74206163636570746564000000000000000000000000600082015250565b6000613ae860148361286f565b9150613af382613ab2565b602082019050919050565b60006020820190508181036000830152613b1781613adb565b9050919050565b7f506f6c6c20697320616c72656164792065786563757465640000000000000000600082015250565b6000613b5460188361286f565b9150613b5f82613b1e565b602082019050919050565b60006020820190508181036000830152613b8381613b47565b9050919050565b7f50726f706f73616c206973206e6f7420616e20657865637574696f6e00000000600082015250565b6000613bc0601c8361286f565b9150613bcb82613b8a565b602082019050919050565b60006020820190508181036000830152613bef81613bb3565b9050919050565b7f50726f706f73616c20646f6573206e6f74206578697374000000000000000000600082015250565b6000613c2c60178361286f565b9150613c3782613bf6565b602082019050919050565b60006020820190508181036000830152613c5b81613c1f565b9050919050565b7f50726f706f73616c206973206e6f742063726561746564000000000000000000600082015250565b6000613c9860178361286f565b9150613ca382613c62565b602082019050919050565b60006020820190508181036000830152613cc781613c8b565b9050919050565b7f596f7520616c726561647920766f746564000000000000000000000000000000600082015250565b6000613d0460118361286f565b9150613d0f82613cce565b602082019050919050565b60006020820190508181036000830152613d3381613cf7565b9050919050565b7f4f776e61626c653a206e6577206f776e657220697320746865207a65726f206160008201527f6464726573730000000000000000000000000000000000000000000000000000602082015250565b6000613d9660268361286f565b9150613da182613d3a565b604082019050919050565b60006020820190508181036000830152613dc581613d89565b9050919050565b7f5061796c6f6164206c656e677468206d69736d61746368000000000000000000600082015250565b6000613e0260178361286f565b9150613e0d82613dcc565b602082019050919050565b60006020820190508181036000830152613e3181613df5565b9050919050565b7f5061796c6f616420697320656d70747900000000000000000000000000000000600082015250565b6000613e6e60108361286f565b9150613e7982613e38565b602082019050919050565b60006020820190508181036000830152613e9d81613e61565b9050919050565b7f5061796c6f616420636f6e7461696e73206e6f6e20757064617461626c65207660008201527f61726961626c6573000000000000000000000000000000000000000000000000602082015250565b6000613f0060288361286f565b9150613f0b82613ea4565b604082019050919050565b60006020820190508181036000830152613f2f81613ef3565b9050919050565b7f4e487b7100000000000000000000000000000000000000000000000000000000600052603260045260246000fd5b600081905092915050565b6000613f7b82612864565b613f858185613f65565b9350613f95818560208601612880565b80840191505092915050565b6000613fad8284613f70565b915081905092915050565b7f566f74696e674475726174696f6e000000000000000000000000000000000000600082015250565b6000613fee600e83613f65565b9150613ff982613fb8565b600e82019050919050565b600061400f82613fe1565b9150819050919050565b7f566f74696e67206475726174696f6e206f7574206f662072616e676500000000600082015250565b600061404f601c8361286f565b915061405a82614019565b602082019050919050565b6000602082019050818103600083015261407e81614042565b9050919050565b7f4f776e61626c653a2063616c6c6572206973206e6f7420746865206f776e6572600082015250565b60006140bb60208361286f565b91506140c682614085565b602082019050919050565b600060208201905081810360008301526140ea816140ae565b905091905056fea264697066735822122050f0c154f3f744e794672acb5a25a83c85d11ed7f0c34c1353efe994daf7c03164736f6c63430008130033",
  "immutableReferences": {},
  "source": "// SPDX-License-Identifier: MIT\n\npragma solidity 0.8.19;\n\n/*\n * At the moment about proposals :\n * -these actions are avaible only for active members\n * -proposals have a type (proposal, update, transfert, revocation). the first one is 'formal' and\n * the 3 others are 'execution' to update setting (see DPollStorage), transfert DPTtoken or revoke membership\n * -proposals have a state (created, open, closed, executed)\n * -to create a proposal, you need to be a member and have at least 2 DPTtoken\n * -to open a proposal, you need to be a member and have at least 1 DPTtoken\n * -to vote, you need to be a member and have at least 1 DPTtoken\n * -to close a vote, you need to be a member and have at least 1 DPTtoken\n * -to execute a proposal, you need to be a member and have at least 1 DPTtoken\n * -There's a delay to vote since the creation of the proposal and to execute the proposal since the end of the vote\n * -All these actions give 1 DPTtoken to the member who perform them\n *\n * FOR THIS EXAM : \n * -only voting delay is fully implemented and made configurable by proposal\n * -for security reasons and to let bot run the flow more constraints need to be added later  \n *\n * -only voting dealy is updatable to implement the process of DAO proposal for executions\n * (in later version, more varibables will be updatable and other execution type will be implemented as transfert from de DAO or member revocation in case of malicious behaviour)\n *\n * -DPT token is here only used as voting power to access proposal actions (later a snapshot mechanism will be implemented to allow ponderation of votes...)\n*/\n\n/**\n@title DPollPluginProposals\n@author  ibourn\n@notice This contract is a DAO plugin to manage proposals. It's a POC and not fully functionnal\n@dev it's spliited from the main contract to allow upgradability later and to reduce the size of the main contract\n */\nimport \"@openzeppelin/contracts/access/Ownable.sol\";\nimport \"./DPollStorage.sol\";\nimport \"./DPollMember.sol\";\nimport \"./DPollDAO.sol\";    \nimport \"./DPollToken.sol\";\n\ncontract DPollPluginProposals is Ownable {\n    /**\n    @notice This enum is used to define the status of a proposal\n     */\n    enum ProposalStatus {CREATED, OPEN, CLOSED, EXECUTED}\n    /**\n    @notice This enum is used to define the action type of a proposal\n     */\n    enum ProposalType { PROPOSAL, UPDATE_EXECUTION, TRANSFERT_EXECUTION, REVOCATION_EXECUTION }\n\n    struct ProposalState {\n        uint256 votesFor;\n        uint256 votesAgainst;\n        uint256 votesTotal;\n        ProposalStatus status;\n        uint256 createdAt;\n        uint256 closedAt;\n        uint256 executedAt;\n        bool isAccepted;\n    }\n\n    //@todo: use bytes32 to store the payload\n    struct ProposalPayload {\n        // address[] payloadAddresses;\n        uint256[] payloadUint256;\n        string[] payloadString;\n    }\n\n    struct Proposal {\n        uint256 id;\n        string title;\n        string description;\n        ProposalType purpose;\n        ProposalState state;\n        address creator;\n        ProposalPayload payload;\n        mapping(address => bool) voted;\n    }\n\n    struct Value {\n        uint256 value;\n        uint256 min;\n        uint256 max;\n    }\n\n    uint public minTokenToVote = 1;\n    uint public minTokenToCreate = minTokenToVote * 2;\n\n    uint proposalPctQuorum = 66;\n    // uint executionPctQuorum = 75;\n    uint minPctThreshold = 50;\n\n    uint public initialVotingDuration = 2 minutes;\n    // uint public initialExecutionDelay = 2 minutes;\n    uint public constant initialCreationDelay = 2 minutes;\n\n    uint256 public proposalCount;\n\n    DPollDAO public dpollDAO;\n    address  public DAOAddress;\n    DPollToken public DPTtoken;\n    address public DPTtokenAddress;\n\n\n    Value public votingDuration = Value(initialVotingDuration, 30 seconds, 4 weeks);\n    // Value public executionDelay = Value(initialExecutionDelay, 30 seconds, 4 weeks);\n    Value public creationDelay = Value(initialCreationDelay, 30 seconds, 4 weeks);\n    // uint256 public distributedTokenCount; //unused now\n    //@todo:to transform in mapping (bytes32 => bool) : list all updatable variables\n    string[] internal updatableVariables;\n    //max index is proposalCount\n    mapping(uint256 => Proposal) public proposals; \n    // uint256[] public pendingProposalsId;\n\n    event ProposalChange(address indexed creator, uint256 indexed proposalId, ProposalStatus status);\n    event ProposalExecution(uint256 indexed proposalId, ProposalType indexed proposalType);\n\n\n    modifier onlyMember() {\n        require(dpollDAO.isMember(msg.sender), \"You are not a member\");\n        _;\n    }\n\n    //modifer to avoid illimited creation of proposal max 1 creation per 4 days\n    modifier onlyOncePer4Days() {\n        require(dpollDAO.getMember(msg.sender).lastProposalCreation + creationDelay.value < block.timestamp, \"You can only create one proposal every 4 days\");\n        _;\n    }\n    \n\n    constructor(address _DAOaddress, address _DPTtokenAddress) {\n        DAOAddress = _DAOaddress;//payable(_DAOaddress);\n        dpollDAO = DPollDAO(DAOAddress);\n\n        DPTtokenAddress = _DPTtokenAddress;\n        DPTtoken = DPollToken(DPTtokenAddress);\n        // updatableVariables.push(\"ExecutionDelay\");\n        updatableVariables.push(\"VotingDuration\");\n    }\n\n    /**\n    @notice This function is used to create a proposal\n    @param _title The title of the proposal\n    @param _description The description of the proposal\n    @param _purpose The type of the proposal\n    @param _payloadString The string used in the payload\n     */\n    function createProposal(\n        string memory _title,\n        string memory _description,\n        ProposalType _purpose,\n        // address[] memory _payloadAddresses,\n        // uint256[] memory _payloadUint256,\n        string[] memory _payloadString\n    ) public onlyMember onlyOncePer4Days {\n        require(DPTtoken.balanceOf(msg.sender) >= minTokenToCreate, \"Not enough vote power\");\n\n        proposalCount++; //begin at index 1\n        Proposal storage proposal = proposals[proposalCount];\n\n        proposal.id = proposalCount;\n        proposal.title = _title;\n        proposal.description = _description;\n        proposal.purpose = _purpose;\n        // proposal.state.status = ProposalStatus.CREATED;//default\n        proposal.state.createdAt = block.timestamp;\n        proposal.creator = msg.sender;\n        // proposal.payload.payloadAddresses = _payloadAddresses;\n        // proposal.payload.payloadUint256 = _payloadUint256;\n        proposal.payload.payloadString = _payloadString;\n\n\n        dpollDAO.rewardVoter(msg.sender); \n        emit ProposalChange(msg.sender, proposalCount, proposal.state.status);\n    }\n\n\n    function openProposal(uint256 _proposalId) public onlyMember() {\n        require(DPTtoken.balanceOf(msg.sender) >= minTokenToVote, \"Not enough vote power\");\n        require(proposals[_proposalId].creator != address(0), \"Proposal does not exist\");\n        require(proposals[_proposalId].state.status == ProposalStatus.CREATED, \"Proposal is not created\");\n        proposals[_proposalId].state.status = ProposalStatus.OPEN;\n\n        dpollDAO.rewardVoter(msg.sender); \n        emit ProposalChange(msg.sender, _proposalId, proposals[_proposalId].state.status);\n\n    }\n\n\n    function vote(uint256 _proposalId, bool _vote) public onlyMember {\n        // ProposalType proposalType = proposals[_proposalId].purpose;\n        require(DPTtoken.balanceOf(msg.sender) >= minTokenToVote, \"Not enough vote power\");\n        Proposal storage proposal = proposals[_proposalId];\n        require(proposal.state.status == ProposalStatus.OPEN, \"Poll is not open\");\n        require(proposal.voted[msg.sender] == false, \"You already voted\");\n        proposal.voted[msg.sender] = true;\n        proposal.state.votesTotal++;\n        if (_vote) {\n            proposal.state.votesFor++;\n        } else {\n            proposal.state.votesAgainst++;\n        }\n        \n        dpollDAO.rewardVoter(msg.sender);\n\n    }\n\n    function closeProposal(uint256 _proposalId) public onlyMember {\n        require(DPTtoken.balanceOf(msg.sender) >= minTokenToVote, \"Not enough vote power\");\n        Proposal storage proposal = proposals[_proposalId];\n        require(proposal.state.status == ProposalStatus.OPEN, \"Poll is not open\");\n        // require(proposal.state.closedAt != 0, \"Poll is already closed\");\n        require(proposal.state.createdAt + votingDuration.value < block.timestamp, \"Voting period is not over\");\n        proposal.state.status = ProposalStatus.CLOSED;\n        proposal.state.closedAt = block.timestamp;\n\n\n        uint256 totalVotes = proposal.state.votesTotal;\n        //Enough participants in regard to the membership count\n        if ((totalVotes * 100 / dpollDAO.getMembersCount()) >= proposalPctQuorum) {\n            //Enough votes for in regard to the total votes\n            if ((proposal.state.votesFor * 100 / totalVotes) > minPctThreshold) {\n                proposal.state.isAccepted = true;\n            } \n        }\n\n        dpollDAO.rewardVoter(msg.sender);\n        emit ProposalChange(msg.sender, _proposalId, proposal.state.status);\n\n    }\n\n    function executeProposal(uint256 _proposalId) public onlyMember {\n        require(DPTtoken.balanceOf(msg.sender) >= minTokenToVote, \"Not enough vote power\");\n\n        Proposal storage proposal = proposals[_proposalId];\n        require(proposal.state.status == ProposalStatus.CLOSED, \"Poll is not closed\");\n        require(proposal.state.isAccepted == true, \"Poll is not accepted\");\n        require(proposal.state.executedAt != 0, \"Poll is already executed\");\n        // require(proposal.state.closedAt + executionDelay.value < block.timestamp, \"Execution delay is not over\");\n        require(proposal.purpose != ProposalType.PROPOSAL, \"Proposal is not an execution\");\n        proposal.state.status = ProposalStatus.EXECUTED;\n        proposal.state.executedAt = block.timestamp;\n        if (proposal.purpose == ProposalType.UPDATE_EXECUTION) {\n            executeUpdate(_proposalId);\n        }\n        // else if (proposal.purpose == ProposalType.TRANSFERT_EXECUTION) {\n        //     executeTransfert(_proposalId);\n        // } else if (proposal.purpose == ProposalType.REVOCATION_EXECUTION) {\n        //     executeRevocation(_proposalId);\n        // }\n\n\n        dpollDAO.rewardVoter(msg.sender);\n        emit ProposalChange(msg.sender, _proposalId, proposal.state.status);\n    }\n\n//when eternal storage => compsotion name easier to get the variable in mapping\n    //add check des range de vairbale possible\n    function executeUpdate(uint256 _proposalId) internal onlyMember {\n        ProposalPayload memory payload = proposals[_proposalId].payload;\n        Value memory currentVotingDuration = votingDuration;\n        // Value memory currentExecutionDelay = executionDelay;\n        // Value memory currentCreationDelay = creationDelay;\n        uint payloadStringLength = payload.payloadString.length;\n        require(payloadStringLength == payload.payloadUint256.length, \"Payload length mismatch\");\n        require(payloadStringLength != 0, \"Payload is empty\");\n        require(checkUpdatableVariables(payload.payloadString), \"Payload contains non updatable variables\");\n\n        for (uint256 i = 0; i < payloadStringLength; i++) {\n            bytes32 variable = keccak256(abi.encodePacked(payload.payloadString[i]));\n            uint value = payload.payloadUint256[i];\n            if (variable == keccak256(abi.encodePacked(\"VotingDuration\"))) {\n                require(value >= currentVotingDuration.min && value <= currentVotingDuration.max, \"Voting duration out of range\");\n                votingDuration.value = value;\n            }\n             //else if (variable == keccak256(abi.encodePacked(\"ExecutionDelay\"))) {\n            //     require(value >= currentExecutionDelay.min && value <= currentExecutionDelay.max, \"Execution delay out of range\");\n            //     executionDelay.value = value;\n            // } else if (variable == keccak256(abi.encodePacked(\"CreationDelay\"))) {\n            //     require(value >= currentCreationDelay.min && value <= currentCreationDelay.max, \"Creation delay out of range\");\n            //     creationDelay.value = value;\n            // }\n        }\n        emit ProposalExecution(_proposalId, ProposalType.UPDATE_EXECUTION);\n    }\n\n    //later use of mapping to get bytes32 of the variable => bool isUpdatable\n\n    function checkUpdatableVariables(string[] memory _updatableVariables) internal view returns (bool) {\n        string[] memory availableVariables = updatableVariables;\n        uint availableVariablesLength = availableVariables.length;\n        bool isUpdatable = false;\n        for (uint256 i = 0; i < _updatableVariables.length; i++) {\n            for (uint256 j = 0; j < availableVariablesLength; j++) {\n                if (keccak256(abi.encodePacked(_updatableVariables[i])) == keccak256(abi.encodePacked(availableVariables[j]))) {\n                    isUpdatable = true;\n                } else {\n                    // isUpdatable = false;\n                    // break;\n                    return false;\n                }   \n            }\n            if (!isUpdatable) {\n                // break;\n                return false;\n            }\n        }\n        return isUpdatable;\n    }\n\n    // function executeTransfert(uint256 _proposalId) internal onlyMember {\n    //     ProposalPayload memory payload = proposals[_proposalId].payload;\n    //     require(payload.payloadAddresses.length == payload.payloadUint256.length, \"Payload length mismatch\");\n    //     require(payload.payloadAddresses.length != 0, \"Payload is empty\");\n    //     uint256 totalAmount = 0;\n    //     for (uint256 i = 0; i < payload.payloadAddresses.length; i++) {\n    //         DPTtoken.transfer(payload.payloadAddresses[i], payload.payloadUint256[i]);  \n    //     }\n    // }\n    // function executeRevocation(uint256 _proposalId) internal onlyMember {\n    //     ProposalPayload memory payload = proposals[_proposalId].payload;\n    //     require(payload.payloadAddresses.length != 0, \"Payload is empty\");\n    //     for (uint256 i = 0; i < payload.payloadAddresses.length; i++) {\n    //        revokeMembership(payload.payloadAddresses[i]);\n    //     }\n\n    // }\n}\n\n",
  "sourcePath": "/home/ibournubuntu/ALYRA/PROJET_FINAL/DPoll/truffle/contracts/DPollPluginProposals.sol",
  "compiler": {
    "name": "solc",
    "version": "0.8.19+commit.7dd6d404.Emscripten.clang"
  },
  "schemaVersion": "3.4.14",
  "updatedAt": "2023-07-25T18:00:36.046Z",
  "networkType": "ethereum",
  "devdoc": {
    "kind": "dev",
    "methods": {
      "createProposal(string,string,uint8,string[])": {
        "params": {
          "_description": "The description of the proposal",
          "_payloadString": "The string used in the payload",
          "_purpose": "The type of the proposal",
          "_title": "The title of the proposal"
        }
      },
      "owner()": {
        "details": "Returns the address of the current owner."
      },
      "renounceOwnership()": {
        "details": "Leaves the contract without owner. It will not be possible to call `onlyOwner` functions. Can only be called by the current owner. NOTE: Renouncing ownership will leave the contract without an owner, thereby disabling any functionality that is only available to the owner."
      },
      "transferOwnership(address)": {
        "details": "Transfers ownership of the contract to a new account (`newOwner`). Can only be called by the current owner."
      }
    },
    "version": 1
  },
  "userdoc": {
    "kind": "user",
    "methods": {
      "createProposal(string,string,uint8,string[])": {
        "notice": "This function is used to create a proposal"
      }
    },
    "version": 1
  }
}