{
  "contractName": "DPollStorage",
  "abi": [
    {
      "anonymous": false,
      "inputs": [
        {
          "indexed": true,
          "internalType": "address",
          "name": "previousOwner",
          "type": "address"
        },
        {
          "indexed": true,
          "internalType": "address",
          "name": "newOwner",
          "type": "address"
        }
      ],
      "name": "OwnershipTransferred",
      "type": "event"
    },
    {
      "inputs": [],
      "name": "DAOPollValidatorAddress",
      "outputs": [
        {
          "internalType": "address",
          "name": "",
          "type": "address"
        }
      ],
      "stateMutability": "view",
      "type": "function"
    },
    {
      "inputs": [],
      "name": "DAOProposalsAddress",
      "outputs": [
        {
          "internalType": "address",
          "name": "",
          "type": "address"
        }
      ],
      "stateMutability": "view",
      "type": "function"
    },
    {
      "inputs": [],
      "name": "DAO_MEMBERSHIP_FEE",
      "outputs": [
        {
          "internalType": "uint256",
          "name": "",
          "type": "uint256"
        }
      ],
      "stateMutability": "view",
      "type": "function"
    },
    {
      "inputs": [],
      "name": "DAObalance",
      "outputs": [
        {
          "internalType": "uint256",
          "name": "",
          "type": "uint256"
        }
      ],
      "stateMutability": "view",
      "type": "function"
    },
    {
      "inputs": [],
      "name": "DPTtoken",
      "outputs": [
        {
          "internalType": "contract DPollToken",
          "name": "",
          "type": "address"
        }
      ],
      "stateMutability": "view",
      "type": "function"
    },
    {
      "inputs": [
        {
          "internalType": "address",
          "name": "",
          "type": "address"
        }
      ],
      "name": "members",
      "outputs": [
        {
          "internalType": "address",
          "name": "memberAddress",
          "type": "address"
        },
        {
          "internalType": "uint256",
          "name": "memberSince",
          "type": "uint256"
        },
        {
          "internalType": "uint256",
          "name": "lastProposalCreation",
          "type": "uint256"
        },
        {
          "internalType": "uint256",
          "name": "balance",
          "type": "uint256"
        },
        {
          "internalType": "uint256",
          "name": "rewardsBalance",
          "type": "uint256"
        },
        {
          "internalType": "enum DPollStorage.MemberRole",
          "name": "role",
          "type": "uint8"
        }
      ],
      "stateMutability": "view",
      "type": "function"
    },
    {
      "inputs": [
        {
          "internalType": "uint256",
          "name": "",
          "type": "uint256"
        }
      ],
      "name": "membersList",
      "outputs": [
        {
          "internalType": "address",
          "name": "memberAddress",
          "type": "address"
        },
        {
          "internalType": "uint256",
          "name": "memberSince",
          "type": "uint256"
        },
        {
          "internalType": "uint256",
          "name": "lastProposalCreation",
          "type": "uint256"
        },
        {
          "internalType": "uint256",
          "name": "balance",
          "type": "uint256"
        },
        {
          "internalType": "uint256",
          "name": "rewardsBalance",
          "type": "uint256"
        },
        {
          "internalType": "enum DPollStorage.MemberRole",
          "name": "role",
          "type": "uint8"
        }
      ],
      "stateMutability": "view",
      "type": "function"
    },
    {
      "inputs": [],
      "name": "owner",
      "outputs": [
        {
          "internalType": "address",
          "name": "",
          "type": "address"
        }
      ],
      "stateMutability": "view",
      "type": "function"
    },
    {
      "inputs": [],
      "name": "renounceOwnership",
      "outputs": [],
      "stateMutability": "nonpayable",
      "type": "function"
    },
    {
      "inputs": [
        {
          "internalType": "address",
          "name": "newOwner",
          "type": "address"
        }
      ],
      "name": "transferOwnership",
      "outputs": [],
      "stateMutability": "nonpayable",
      "type": "function"
    }
  ],
  "bytecode": "0x608060405234801561001057600080fd5b5061002d61002261003260201b60201c565b61003a60201b60201c565b6100fe565b600033905090565b60008060009054906101000a900473ffffffffffffffffffffffffffffffffffffffff169050816000806101000a81548173ffffffffffffffffffffffffffffffffffffffff021916908373ffffffffffffffffffffffffffffffffffffffff1602179055508173ffffffffffffffffffffffffffffffffffffffff168173ffffffffffffffffffffffffffffffffffffffff167f8be0079c531659141344cd1fd0a4f28419497f9722a3daafe3b4186f6b6457e060405160405180910390a35050565b6109348061010d6000396000f3fe608060405234801561001057600080fd5b506004361061009e5760003560e01c80638da5cb5b116100665780638da5cb5b14610153578063b1ad597914610171578063d825de341461018f578063ed02e405146101ad578063f2fde38b146101cb5761009e565b806308ae4b0c146100a357806313b8ad31146100d8578063715018a61461010d5780637d39bb59146101175780638912620c14610135575b600080fd5b6100bd60048036038101906100b891906105b9565b6101e7565b6040516100cf96959493929190610685565b60405180910390f35b6100f260048036038101906100ed9190610712565b610250565b60405161010496959493929190610685565b60405180910390f35b6101156102c9565b005b61011f6102dd565b60405161012c919061073f565b60405180910390f35b61013d610303565b60405161014a91906107b9565b60405180910390f35b61015b610329565b604051610168919061073f565b60405180910390f35b610179610352565b60405161018691906107d4565b60405180910390f35b610197610358565b6040516101a491906107d4565b60405180910390f35b6101b5610363565b6040516101c2919061073f565b60405180910390f35b6101e560048036038101906101e091906105b9565b610389565b005b60056020528060005260406000206000915090508060000160009054906101000a900473ffffffffffffffffffffffffffffffffffffffff16908060010154908060020154908060030154908060040154908060050160009054906101000a900460ff16905086565b6006818154811061026057600080fd5b90600052602060002090600602016000915090508060000160009054906101000a900473ffffffffffffffffffffffffffffffffffffffff16908060010154908060020154908060030154908060040154908060050160009054906101000a900460ff16905086565b6102d161040c565b6102db600061048a565b565b600260009054906101000a900473ffffffffffffffffffffffffffffffffffffffff1681565b600360009054906101000a900473ffffffffffffffffffffffffffffffffffffffff1681565b60008060009054906101000a900473ffffffffffffffffffffffffffffffffffffffff16905090565b60045481565b66470de4df82000081565b600160009054906101000a900473ffffffffffffffffffffffffffffffffffffffff1681565b61039161040c565b600073ffffffffffffffffffffffffffffffffffffffff168173ffffffffffffffffffffffffffffffffffffffff1603610400576040517f08c379a00000000000000000000000000000000000000000000000000000000081526004016103f790610872565b60405180910390fd5b6104098161048a565b50565b61041461054e565b73ffffffffffffffffffffffffffffffffffffffff16610432610329565b73ffffffffffffffffffffffffffffffffffffffff1614610488576040517f08c379a000000000000000000000000000000000000000000000000000000000815260040161047f906108de565b60405180910390fd5b565b60008060009054906101000a900473ffffffffffffffffffffffffffffffffffffffff169050816000806101000a81548173ffffffffffffffffffffffffffffffffffffffff021916908373ffffffffffffffffffffffffffffffffffffffff1602179055508173ffffffffffffffffffffffffffffffffffffffff168173ffffffffffffffffffffffffffffffffffffffff167f8be0079c531659141344cd1fd0a4f28419497f9722a3daafe3b4186f6b6457e060405160405180910390a35050565b600033905090565b600080fd5b600073ffffffffffffffffffffffffffffffffffffffff82169050919050565b60006105868261055b565b9050919050565b6105968161057b565b81146105a157600080fd5b50565b6000813590506105b38161058d565b92915050565b6000602082840312156105cf576105ce610556565b5b60006105dd848285016105a4565b91505092915050565b6105ef8161057b565b82525050565b6000819050919050565b610608816105f5565b82525050565b7f4e487b7100000000000000000000000000000000000000000000000000000000600052602160045260246000fd5b6002811061064e5761064d61060e565b5b50565b600081905061065f8261063d565b919050565b600061066f82610651565b9050919050565b61067f81610664565b82525050565b600060c08201905061069a60008301896105e6565b6106a760208301886105ff565b6106b460408301876105ff565b6106c160608301866105ff565b6106ce60808301856105ff565b6106db60a0830184610676565b979650505050505050565b6106ef816105f5565b81146106fa57600080fd5b50565b60008135905061070c816106e6565b92915050565b60006020828403121561072857610727610556565b5b6000610736848285016106fd565b91505092915050565b600060208201905061075460008301846105e6565b92915050565b6000819050919050565b600061077f61077a6107758461055b565b61075a565b61055b565b9050919050565b600061079182610764565b9050919050565b60006107a382610786565b9050919050565b6107b381610798565b82525050565b60006020820190506107ce60008301846107aa565b92915050565b60006020820190506107e960008301846105ff565b92915050565b600082825260208201905092915050565b7f4f776e61626c653a206e6577206f776e657220697320746865207a65726f206160008201527f6464726573730000000000000000000000000000000000000000000000000000602082015250565b600061085c6026836107ef565b915061086782610800565b604082019050919050565b6000602082019050818103600083015261088b8161084f565b9050919050565b7f4f776e61626c653a2063616c6c6572206973206e6f7420746865206f776e6572600082015250565b60006108c86020836107ef565b91506108d382610892565b602082019050919050565b600060208201905081810360008301526108f7816108bb565b905091905056fea26469706673582212204c9ae54dcf8853efc2d56d2afccf8032f328ede67445779c2e1dc6479f9ed5c064736f6c63430008130033",
  "immutableReferences": {},
  "source": "// SPDX-License-Identifier: MIT\n\npragma solidity 0.8.19;\n\n/*\nThis version of the DAO is only a POC, final functionnalities are not all implemented\n\nLater versions will include:\n-eternal storage to allow mor flexibility and upgradability\n-a master contract and a slave containing the logics\n-inherited contracts 'member...' will be used as plugins (facets like)\n\nAt the moment :\n-the process to vote for proprosals concerning setting updates is limited to 3 variables:\nvotingDuration, executionDelay and creationDelay\n-vote are not ponderated by voting power. Need later to implement a snapshot mechanism to allow voting power usage\n-a blacklist is not implemented yet to prevent malicious or suspicious behaviour from revoked members\n\n@todo : many optimization and refactoring\n */\n\n/**\n@title DPollStorage\n@author ibourn\n@notice This contract is used to store the DAO data\n */\nimport \"@openzeppelin/contracts/access/Ownable.sol\";\nimport \"./DPollToken.sol\";\n\ncontract DPollStorage is Ownable {\n    // enum MemberRole {GUEST, DAO, TEAM, OWNER, MEMBER}\n    enum MemberRole {GUEST, MEMBER}\n\n//change to ProposalStatus\n    // enum PollStatus {CREATED, OPEN, CLOSED, EXECUTED}\n    // enum ProposalType { PROPOSAL, UPDATE_EXECUTION, TRANSFERT_EXECUTION, REVOCATION_EXECUTION }\n\n    //balance is the entry fees claimable later\n    //rewardsBalance is all eth rewerd (at the moment only validator)\n    //DPT token are transfert directly to member \n    struct Member {\n        address memberAddress;\n        uint256 memberSince;\n        uint256 lastProposalCreation;\n        uint256 balance;\n        uint256 rewardsBalance;\n        MemberRole role;\n    }\n\n    address public DAOPollValidatorAddress;\n    address public DAOProposalsAddress;\n    //:::::::::::::::::::::::::::: MEMBERSHIP ::::::::::::::::::::::::\n    DPollToken public DPTtoken;\n    uint public DAObalance;\n    uint256 public constant DAO_MEMBERSHIP_FEE = 0.02 ether;\n\n\n\n    // //:::::::::::::::::::::::::::: MEMBERSHIP ::::::::::::::::::::::::\n\n    mapping(address => Member) public members;\n    Member[] public membersList;\n\n\n}",
  "sourcePath": "/home/ibournubuntu/ALYRA/PROJET_FINAL/DPoll/truffle/contracts/DPollStorage.sol",
  "compiler": {
    "name": "solc",
    "version": "0.8.19+commit.7dd6d404.Emscripten.clang"
  },
  "schemaVersion": "3.4.14",
  "updatedAt": "2023-07-25T13:10:37.151Z",
  "devdoc": {
    "kind": "dev",
    "methods": {
      "owner()": {
        "details": "Returns the address of the current owner."
      },
      "renounceOwnership()": {
        "details": "Leaves the contract without owner. It will not be possible to call `onlyOwner` functions. Can only be called by the current owner. NOTE: Renouncing ownership will leave the contract without an owner, thereby disabling any functionality that is only available to the owner."
      },
      "transferOwnership(address)": {
        "details": "Transfers ownership of the contract to a new account (`newOwner`). Can only be called by the current owner."
      }
    },
    "version": 1
  },
  "userdoc": {
    "kind": "user",
    "methods": {},
    "version": 1
  }
}