{
  "contractName": "DPollPluginValidator",
  "abi": [
    {
      "inputs": [
        {
          "internalType": "address",
          "name": "_DAOaddress",
          "type": "address"
        }
      ],
      "stateMutability": "nonpayable",
      "type": "constructor"
    },
    {
      "anonymous": false,
      "inputs": [
        {
          "indexed": false,
          "internalType": "address",
          "name": "to",
          "type": "address"
        },
        {
          "indexed": false,
          "internalType": "uint256",
          "name": "amount",
          "type": "uint256"
        },
        {
          "indexed": false,
          "internalType": "string",
          "name": "action",
          "type": "string"
        }
      ],
      "name": "DAOBalanceTansfer",
      "type": "event"
    },
    {
      "anonymous": false,
      "inputs": [
        {
          "indexed": true,
          "internalType": "address",
          "name": "previousOwner",
          "type": "address"
        },
        {
          "indexed": true,
          "internalType": "address",
          "name": "newOwner",
          "type": "address"
        }
      ],
      "name": "OwnershipTransferred",
      "type": "event"
    },
    {
      "anonymous": false,
      "inputs": [
        {
          "indexed": false,
          "internalType": "address",
          "name": "pollAddress",
          "type": "address"
        },
        {
          "indexed": false,
          "internalType": "enum DPollPluginValidator.SubmissionStatus",
          "name": "newStatus",
          "type": "uint8"
        },
        {
          "indexed": false,
          "internalType": "string",
          "name": "message",
          "type": "string"
        }
      ],
      "name": "PollStatusChange",
      "type": "event"
    },
    {
      "inputs": [],
      "name": "DAOAddress",
      "outputs": [
        {
          "internalType": "address",
          "name": "",
          "type": "address"
        }
      ],
      "stateMutability": "view",
      "type": "function",
      "constant": true
    },
    {
      "inputs": [],
      "name": "dpollDAO",
      "outputs": [
        {
          "internalType": "contract DPollDAO",
          "name": "",
          "type": "address"
        }
      ],
      "stateMutability": "view",
      "type": "function",
      "constant": true
    },
    {
      "inputs": [],
      "name": "owner",
      "outputs": [
        {
          "internalType": "address",
          "name": "",
          "type": "address"
        }
      ],
      "stateMutability": "view",
      "type": "function",
      "constant": true
    },
    {
      "inputs": [],
      "name": "pollSubmissionDuration",
      "outputs": [
        {
          "internalType": "uint256",
          "name": "",
          "type": "uint256"
        }
      ],
      "stateMutability": "view",
      "type": "function",
      "constant": true
    },
    {
      "inputs": [
        {
          "internalType": "address",
          "name": "",
          "type": "address"
        }
      ],
      "name": "pollSubmissionIds",
      "outputs": [
        {
          "internalType": "uint256",
          "name": "",
          "type": "uint256"
        }
      ],
      "stateMutability": "view",
      "type": "function",
      "constant": true
    },
    {
      "inputs": [
        {
          "internalType": "uint256",
          "name": "",
          "type": "uint256"
        }
      ],
      "name": "pollSubmissions",
      "outputs": [
        {
          "internalType": "address",
          "name": "pollAddress",
          "type": "address"
        },
        {
          "internalType": "uint256",
          "name": "submissionDate",
          "type": "uint256"
        },
        {
          "internalType": "uint256",
          "name": "voteCount",
          "type": "uint256"
        },
        {
          "internalType": "uint256",
          "name": "amountToDAO",
          "type": "uint256"
        },
        {
          "internalType": "uint256",
          "name": "amountToValidators",
          "type": "uint256"
        },
        {
          "internalType": "enum DPollPluginValidator.SubmissionStatus",
          "name": "status",
          "type": "uint8"
        }
      ],
      "stateMutability": "view",
      "type": "function",
      "constant": true
    },
    {
      "inputs": [],
      "name": "renounceOwnership",
      "outputs": [],
      "stateMutability": "nonpayable",
      "type": "function"
    },
    {
      "inputs": [],
      "name": "requiredValidations",
      "outputs": [
        {
          "internalType": "uint256",
          "name": "",
          "type": "uint256"
        }
      ],
      "stateMutability": "view",
      "type": "function",
      "constant": true
    },
    {
      "inputs": [],
      "name": "requiredValidators",
      "outputs": [
        {
          "internalType": "uint256",
          "name": "",
          "type": "uint256"
        }
      ],
      "stateMutability": "view",
      "type": "function",
      "constant": true
    },
    {
      "inputs": [
        {
          "internalType": "address",
          "name": "newOwner",
          "type": "address"
        }
      ],
      "name": "transferOwnership",
      "outputs": [],
      "stateMutability": "nonpayable",
      "type": "function"
    },
    {
      "inputs": [
        {
          "internalType": "address",
          "name": "",
          "type": "address"
        },
        {
          "internalType": "uint256",
          "name": "",
          "type": "uint256"
        }
      ],
      "name": "validatorsVotes",
      "outputs": [
        {
          "internalType": "bool",
          "name": "",
          "type": "bool"
        }
      ],
      "stateMutability": "view",
      "type": "function",
      "constant": true
    },
    {
      "inputs": [
        {
          "internalType": "address",
          "name": "_pollAddress",
          "type": "address"
        },
        {
          "internalType": "uint256",
          "name": "_toValidators",
          "type": "uint256"
        },
        {
          "internalType": "uint256",
          "name": "_toDAO",
          "type": "uint256"
        }
      ],
      "name": "submitPoll",
      "outputs": [],
      "stateMutability": "payable",
      "type": "function",
      "payable": true
    },
    {
      "inputs": [
        {
          "internalType": "uint256",
          "name": "_pollSubmissionId",
          "type": "uint256"
        },
        {
          "internalType": "bool",
          "name": "_vote",
          "type": "bool"
        }
      ],
      "name": "voteForPoll",
      "outputs": [],
      "stateMutability": "nonpayable",
      "type": "function"
    },
    {
      "inputs": [
        {
          "internalType": "uint256",
          "name": "_pollSubmissionId",
          "type": "uint256"
        }
      ],
      "name": "closeSubmission",
      "outputs": [],
      "stateMutability": "nonpayable",
      "type": "function"
    },
    {
      "inputs": [
        {
          "internalType": "uint256",
          "name": "_pollSubmissionId",
          "type": "uint256"
        }
      ],
      "name": "setValidation",
      "outputs": [],
      "stateMutability": "nonpayable",
      "type": "function"
    }
  ],
  "bytecode": "0x60806040523480156200001157600080fd5b50604051620027d2380380620027d2833981810160405281019062000037919062000238565b620000576200004b6200010260201b60201c565b6200010a60201b60201c565b80600260006101000a81548173ffffffffffffffffffffffffffffffffffffffff021916908373ffffffffffffffffffffffffffffffffffffffff160217905550600260009054906101000a900473ffffffffffffffffffffffffffffffffffffffff16600160006101000a81548173ffffffffffffffffffffffffffffffffffffffff021916908373ffffffffffffffffffffffffffffffffffffffff160217905550506200026a565b600033905090565b60008060009054906101000a900473ffffffffffffffffffffffffffffffffffffffff169050816000806101000a81548173ffffffffffffffffffffffffffffffffffffffff021916908373ffffffffffffffffffffffffffffffffffffffff1602179055508173ffffffffffffffffffffffffffffffffffffffff168173ffffffffffffffffffffffffffffffffffffffff167f8be0079c531659141344cd1fd0a4f28419497f9722a3daafe3b4186f6b6457e060405160405180910390a35050565b600080fd5b600073ffffffffffffffffffffffffffffffffffffffff82169050919050565b60006200020082620001d3565b9050919050565b6200021281620001f3565b81146200021e57600080fd5b50565b600081519050620002328162000207565b92915050565b600060208284031215620002515762000250620001ce565b5b6000620002618482850162000221565b91505092915050565b612558806200027a6000396000f3fe6080604052600436106100e85760003560e01c8063aae95a601161008a578063cb58bd3111610059578063cb58bd31146102da578063d392eab114610305578063d824fc5e14610330578063f2fde38b14610359576100e8565b8063aae95a601461022d578063aba7074e14610258578063b46411c314610281578063b49d6ecb1461029d576100e8565b8063715018a6116100c6578063715018a6146101835780638da5cb5b1461019a57806397c875dd146101c55780639d02003c146101f0576100e8565b80630996636b146100ed5780630de1e2b41461012f5780630ff1b9291461015a575b600080fd5b3480156100f957600080fd5b50610114600480360381019061010f91906117af565b610382565b604051610126969594939291906118a3565b60405180910390f35b34801561013b57600080fd5b506101446103fb565b6040516101519190611904565b60405180910390f35b34801561016657600080fd5b50610181600480360381019061017c91906117af565b610400565b005b34801561018f57600080fd5b50610198610729565b005b3480156101a657600080fd5b506101af61073d565b6040516101bc919061191f565b60405180910390f35b3480156101d157600080fd5b506101da610766565b6040516101e79190611904565b60405180910390f35b3480156101fc57600080fd5b5061021760048036038101906102129190611966565b61076b565b60405161022491906119c1565b60405180910390f35b34801561023957600080fd5b5061024261079a565b60405161024f9190611904565b60405180910390f35b34801561026457600080fd5b5061027f600480360381019061027a9190611a08565b6107a1565b005b61029b60048036038101906102969190611a48565b610bcc565b005b3480156102a957600080fd5b506102c460048036038101906102bf9190611a9b565b610fa7565b6040516102d19190611904565b60405180910390f35b3480156102e657600080fd5b506102ef610fbf565b6040516102fc9190611b27565b60405180910390f35b34801561031157600080fd5b5061031a610fe5565b604051610327919061191f565b60405180910390f35b34801561033c57600080fd5b50610357600480360381019061035291906117af565b61100b565b005b34801561036557600080fd5b50610380600480360381019061037b9190611a9b565b61149b565b005b6003818154811061039257600080fd5b90600052602060002090600702016000915090508060000160009054906101000a900473ffffffffffffffffffffffffffffffffffffffff16908060010154908060020154908060030154908060040154908060050160009054906101000a900460ff16905086565b600281565b600160009054906101000a900473ffffffffffffffffffffffffffffffffffffffff1673ffffffffffffffffffffffffffffffffffffffff1663a230c524336040518263ffffffff1660e01b815260040161045b919061191f565b602060405180830381865afa158015610478573d6000803e3d6000fd5b505050506040513d601f19601f8201168201806040525081019061049c9190611b57565b6104db576040517f08c379a00000000000000000000000000000000000000000000000000000000081526004016104d290611be1565b60405180910390fd5b806003805490508110610523576040517f08c379a000000000000000000000000000000000000000000000000000000000815260040161051a90611c4d565b60405180910390fd5b60006003838154811061053957610538611c6d565b5b906000526020600020906007020190506000600281111561055d5761055c61182c565b5b8160050160009054906101000a900460ff1660028111156105815761058061182c565b5b146105c1576040517f08c379a00000000000000000000000000000000000000000000000000000000081526004016105b890611ce8565b60405180910390fd5b60038160060180549050101561060c576040517f08c379a000000000000000000000000000000000000000000000000000000000815260040161060390611d7a565b60405180910390fd5b60018160050160006101000a81548160ff021916908360028111156106345761063361182c565b5b0217905550600160009054906101000a900473ffffffffffffffffffffffffffffffffffffffff1673ffffffffffffffffffffffffffffffffffffffff16634754857c336040518263ffffffff1660e01b8152600401610694919061191f565b600060405180830381600087803b1580156106ae57600080fd5b505af11580156106c2573d6000803e3d6000fd5b505050507f91f6aacd27fa3ec374d76835769225dca9f8b9dbe5a5db8fdc057572c642c2e58160000160009054906101000a900473ffffffffffffffffffffffffffffffffffffffff16600160405161071c929190611de6565b60405180910390a1505050565b61073161151e565b61073b600061159c565b565b60008060009054906101000a900473ffffffffffffffffffffffffffffffffffffffff16905090565b600381565b60056020528160005260406000206020528060005260406000206000915091509054906101000a900460ff1681565b62093a8081565b600160009054906101000a900473ffffffffffffffffffffffffffffffffffffffff1673ffffffffffffffffffffffffffffffffffffffff1663a230c524336040518263ffffffff1660e01b81526004016107fc919061191f565b602060405180830381865afa158015610819573d6000803e3d6000fd5b505050506040513d601f19601f8201168201806040525081019061083d9190611b57565b61087c576040517f08c379a000000000000000000000000000000000000000000000000000000000815260040161087390611be1565b60405180910390fd5b8160038054905081106108c4576040517f08c379a00000000000000000000000000000000000000000000000000000000081526004016108bb90611c4d565b60405180910390fd5b6000600384815481106108da576108d9611c6d565b5b90600052602060002090600702019050600060028111156108fe576108fd61182c565b5b8160050160009054906101000a900460ff1660028111156109225761092161182c565b5b14610962576040517f08c379a000000000000000000000000000000000000000000000000000000000815260040161095990611ce8565b60405180910390fd5b60038160060180549050106109ac576040517f08c379a00000000000000000000000000000000000000000000000000000000081526004016109a390611e6e565b60405180910390fd5b600560003373ffffffffffffffffffffffffffffffffffffffff1673ffffffffffffffffffffffffffffffffffffffff168152602001908152602001600020600085815260200190815260200160002060009054906101000a900460ff1615610a4a576040517f08c379a0000000000000000000000000000000000000000000000000000000008152600401610a4190611eda565b60405180910390fd5b80600601339080600181540180825580915050600190039060005260206000200160009091909190916101000a81548173ffffffffffffffffffffffffffffffffffffffff021916908373ffffffffffffffffffffffffffffffffffffffff1602179055506001600560003373ffffffffffffffffffffffffffffffffffffffff1673ffffffffffffffffffffffffffffffffffffffff168152602001908152602001600020600086815260200190815260200160002060006101000a81548160ff0219169083151502179055508215610b3957806002016000815480929190610b3390611f29565b91905055505b600160009054906101000a900473ffffffffffffffffffffffffffffffffffffffff1673ffffffffffffffffffffffffffffffffffffffff16634754857c336040518263ffffffff1660e01b8152600401610b94919061191f565b600060405180830381600087803b158015610bae57600080fd5b505af1158015610bc2573d6000803e3d6000fd5b5050505050505050565b828073ffffffffffffffffffffffffffffffffffffffff163373ffffffffffffffffffffffffffffffffffffffff1614610c3b576040517f08c379a0000000000000000000000000000000000000000000000000000000008152600401610c3290611fbd565b60405180910390fd5b60008284610c499190611fdd565b90506000600460008773ffffffffffffffffffffffffffffffffffffffff1673ffffffffffffffffffffffffffffffffffffffff168152602001908152602001600020549050600060038054905014610d5f57600081141580610d1e5750600073ffffffffffffffffffffffffffffffffffffffff1660038281548110610cd357610cd2611c6d565b5b906000526020600020906007020160000160009054906101000a900473ffffffffffffffffffffffffffffffffffffffff1673ffffffffffffffffffffffffffffffffffffffff1614155b15610d5e576040517f08c379a0000000000000000000000000000000000000000000000000000000008152600401610d559061205d565b60405180910390fd5b5b662386f26fc10000341080610d7357508134105b15610db3576040517f08c379a0000000000000000000000000000000000000000000000000000000008152600401610daa906120c9565b60405180910390fd5b610dbb611668565b86816000019073ffffffffffffffffffffffffffffffffffffffff16908173ffffffffffffffffffffffffffffffffffffffff1681525050848160600181815250508581608001818152505082341115610e25578234610e1b91906120e9565b8160600181815250505b600381908060018154018082558091505060019003906000526020600020906007020160009091909190915060008201518160000160006101000a81548173ffffffffffffffffffffffffffffffffffffffff021916908373ffffffffffffffffffffffffffffffffffffffff1602179055506020820151816001015560408201518160020155606082015181600301556080820151816004015560a08201518160050160006101000a81548160ff02191690836002811115610eeb57610eea61182c565b5b021790555060c0820151816006019080519060200190610f0c9291906116cd565b5050506001600380549050610f2191906120e9565b600460008973ffffffffffffffffffffffffffffffffffffffff1673ffffffffffffffffffffffffffffffffffffffff168152602001908152602001600020819055507f91f6aacd27fa3ec374d76835769225dca9f8b9dbe5a5db8fdc057572c642c2e5876000604051610f96929190612169565b60405180910390a150505050505050565b60046020528060005260406000206000915090505481565b600160009054906101000a900473ffffffffffffffffffffffffffffffffffffffff1681565b600260009054906101000a900473ffffffffffffffffffffffffffffffffffffffff1681565b600160009054906101000a900473ffffffffffffffffffffffffffffffffffffffff1673ffffffffffffffffffffffffffffffffffffffff1663a230c524336040518263ffffffff1660e01b8152600401611066919061191f565b602060405180830381865afa158015611083573d6000803e3d6000fd5b505050506040513d601f19601f820116820180604052508101906110a79190611b57565b6110e6576040517f08c379a00000000000000000000000000000000000000000000000000000000081526004016110dd90611be1565b60405180910390fd5b80600380549050811061112e576040517f08c379a000000000000000000000000000000000000000000000000000000000815260040161112590611c4d565b60405180910390fd5b60006003838154811061114457611143611c6d565b5b90600052602060002090600702019050600160028111156111685761116761182c565b5b8160050160009054906101000a900460ff16600281111561118c5761118b61182c565b5b146111cc576040517f08c379a00000000000000000000000000000000000000000000000000000000081526004016111c3906121f1565b60405180910390fd5b806004015481600301546111e09190611fdd565b471015611222576040517f08c379a0000000000000000000000000000000000000000000000000000000008152600401611219906120c9565b60405180910390fd5b600080826003015490506000600284600201541061124a576001925083600301549050600091505b600160009054906101000a900473ffffffffffffffffffffffffffffffffffffffff1673ffffffffffffffffffffffffffffffffffffffff1663556947cf8560040154836112989190611fdd565b838760040154886006016040518563ffffffff1660e01b81526004016112c093929190612335565b6000604051808303818588803b1580156112d957600080fd5b505af11580156112ed573d6000803e3d6000fd5b50505050508360000160009054906101000a900473ffffffffffffffffffffffffffffffffffffffff1673ffffffffffffffffffffffffffffffffffffffff1663e1b9742a838660000160009054906101000a900473ffffffffffffffffffffffffffffffffffffffff16866040518463ffffffff1660e01b8152600401611376929190612373565b6000604051808303818588803b15801561138f57600080fd5b505af11580156113a3573d6000803e3d6000fd5b5050505050600160009054906101000a900473ffffffffffffffffffffffffffffffffffffffff1673ffffffffffffffffffffffffffffffffffffffff16634754857c336040518263ffffffff1660e01b8152600401611403919061191f565b600060405180830381600087803b15801561141d57600080fd5b505af1158015611431573d6000803e3d6000fd5b505050507f91f6aacd27fa3ec374d76835769225dca9f8b9dbe5a5db8fdc057572c642c2e58460000160009054906101000a900473ffffffffffffffffffffffffffffffffffffffff16600260405161148b9291906123e8565b60405180910390a1505050505050565b6114a361151e565b600073ffffffffffffffffffffffffffffffffffffffff168173ffffffffffffffffffffffffffffffffffffffff1603611512576040517f08c379a000000000000000000000000000000000000000000000000000000000815260040161150990612496565b60405180910390fd5b61151b8161159c565b50565b611526611660565b73ffffffffffffffffffffffffffffffffffffffff1661154461073d565b73ffffffffffffffffffffffffffffffffffffffff161461159a576040517f08c379a000000000000000000000000000000000000000000000000000000000815260040161159190612502565b60405180910390fd5b565b60008060009054906101000a900473ffffffffffffffffffffffffffffffffffffffff169050816000806101000a81548173ffffffffffffffffffffffffffffffffffffffff021916908373ffffffffffffffffffffffffffffffffffffffff1602179055508173ffffffffffffffffffffffffffffffffffffffff168173ffffffffffffffffffffffffffffffffffffffff167f8be0079c531659141344cd1fd0a4f28419497f9722a3daafe3b4186f6b6457e060405160405180910390a35050565b600033905090565b6040518060e00160405280600073ffffffffffffffffffffffffffffffffffffffff16815260200160008152602001600081526020016000815260200160008152602001600060028111156116c0576116bf61182c565b5b8152602001606081525090565b828054828255906000526020600020908101928215611746579160200282015b828111156117455782518260006101000a81548173ffffffffffffffffffffffffffffffffffffffff021916908373ffffffffffffffffffffffffffffffffffffffff160217905550916020019190600101906116ed565b5b5090506117539190611757565b5090565b5b80821115611770576000816000905550600101611758565b5090565b600080fd5b6000819050919050565b61178c81611779565b811461179757600080fd5b50565b6000813590506117a981611783565b92915050565b6000602082840312156117c5576117c4611774565b5b60006117d38482850161179a565b91505092915050565b600073ffffffffffffffffffffffffffffffffffffffff82169050919050565b6000611807826117dc565b9050919050565b611817816117fc565b82525050565b61182681611779565b82525050565b7f4e487b7100000000000000000000000000000000000000000000000000000000600052602160045260246000fd5b6003811061186c5761186b61182c565b5b50565b600081905061187d8261185b565b919050565b600061188d8261186f565b9050919050565b61189d81611882565b82525050565b600060c0820190506118b8600083018961180e565b6118c5602083018861181d565b6118d2604083018761181d565b6118df606083018661181d565b6118ec608083018561181d565b6118f960a0830184611894565b979650505050505050565b6000602082019050611919600083018461181d565b92915050565b6000602082019050611934600083018461180e565b92915050565b611943816117fc565b811461194e57600080fd5b50565b6000813590506119608161193a565b92915050565b6000806040838503121561197d5761197c611774565b5b600061198b85828601611951565b925050602061199c8582860161179a565b9150509250929050565b60008115159050919050565b6119bb816119a6565b82525050565b60006020820190506119d660008301846119b2565b92915050565b6119e5816119a6565b81146119f057600080fd5b50565b600081359050611a02816119dc565b92915050565b60008060408385031215611a1f57611a1e611774565b5b6000611a2d8582860161179a565b9250506020611a3e858286016119f3565b9150509250929050565b600080600060608486031215611a6157611a60611774565b5b6000611a6f86828701611951565b9350506020611a808682870161179a565b9250506040611a918682870161179a565b9150509250925092565b600060208284031215611ab157611ab0611774565b5b6000611abf84828501611951565b91505092915050565b6000819050919050565b6000611aed611ae8611ae3846117dc565b611ac8565b6117dc565b9050919050565b6000611aff82611ad2565b9050919050565b6000611b1182611af4565b9050919050565b611b2181611b06565b82525050565b6000602082019050611b3c6000830184611b18565b92915050565b600081519050611b51816119dc565b92915050565b600060208284031215611b6d57611b6c611774565b5b6000611b7b84828501611b42565b91505092915050565b600082825260208201905092915050565b7f596f7520617265206e6f742061206d656d626572000000000000000000000000600082015250565b6000611bcb601483611b84565b9150611bd682611b95565b602082019050919050565b60006020820190508181036000830152611bfa81611bbe565b9050919050565b7f54686520706f6c6c20646f6573206e6f74206578697374000000000000000000600082015250565b6000611c37601783611b84565b9150611c4282611c01565b602082019050919050565b60006020820190508181036000830152611c6681611c2a565b9050919050565b7f4e487b7100000000000000000000000000000000000000000000000000000000600052603260045260246000fd5b7f54686520706f6c6c206973206e6f74207375626d697474656400000000000000600082015250565b6000611cd2601983611b84565b9150611cdd82611c9c565b602082019050919050565b60006020820190508181036000830152611d0181611cc5565b9050919050565b7f54686520706f6c6c207375626d697373696f6e206973206e6f742066696e697360008201527f6865640000000000000000000000000000000000000000000000000000000000602082015250565b6000611d64602383611b84565b9150611d6f82611d08565b604082019050919050565b60006020820190508181036000830152611d9381611d57565b9050919050565b7f506f6c6c20636c6f736564000000000000000000000000000000000000000000600082015250565b6000611dd0600b83611b84565b9150611ddb82611d9a565b602082019050919050565b6000606082019050611dfb600083018561180e565b611e086020830184611894565b8181036040830152611e1981611dc3565b90509392505050565b7f416c726561647920656e6f75676820766f746573000000000000000000000000600082015250565b6000611e58601483611b84565b9150611e6382611e22565b602082019050919050565b60006020820190508181036000830152611e8781611e4b565b9050919050565b7f416c726561647920766f74656400000000000000000000000000000000000000600082015250565b6000611ec4600d83611b84565b9150611ecf82611e8e565b602082019050919050565b60006020820190508181036000830152611ef381611eb7565b9050919050565b7f4e487b7100000000000000000000000000000000000000000000000000000000600052601160045260246000fd5b6000611f3482611779565b91507fffffffffffffffffffffffffffffffffffffffffffffffffffffffffffffffff8203611f6657611f65611efa565b5b600182019050919050565b7f54686520506f6c6c2073686f756c64207375626d697420697473656c66000000600082015250565b6000611fa7601d83611b84565b9150611fb282611f71565b602082019050919050565b60006020820190508181036000830152611fd681611f9a565b9050919050565b6000611fe882611779565b9150611ff383611779565b925082820190508082111561200b5761200a611efa565b5b92915050565b7f506f6c6c20616c7265616479207375626d697474656400000000000000000000600082015250565b6000612047601683611b84565b915061205282612011565b602082019050919050565b600060208201905081810360008301526120768161203a565b9050919050565b7f4e6f7420656e6f7567682066756e647300000000000000000000000000000000600082015250565b60006120b3601083611b84565b91506120be8261207d565b602082019050919050565b600060208201905081810360008301526120e2816120a6565b9050919050565b60006120f482611779565b91506120ff83611779565b925082820390508181111561211757612116611efa565b5b92915050565b7f506f6c6c207375626d6974746564000000000000000000000000000000000000600082015250565b6000612153600e83611b84565b915061215e8261211d565b602082019050919050565b600060608201905061217e600083018561180e565b61218b6020830184611894565b818103604083015261219c81612146565b90509392505050565b7f54686520706f6c6c206973206e6f7420636c6f73656400000000000000000000600082015250565b60006121db601683611b84565b91506121e6826121a5565b602082019050919050565b6000602082019050818103600083015261220a816121ce565b9050919050565b600081549050919050565b600082825260208201905092915050565b60008190508160005260206000209050919050565b61224b816117fc565b82525050565b600061225d8383612242565b60208301905092915050565b60008160001c9050919050565b600073ffffffffffffffffffffffffffffffffffffffff82169050919050565b60006122a96122a483612269565b612276565b9050919050565b60006122bc8254612296565b9050919050565b6000600182019050919050565b60006122db82612211565b6122e5818561221c565b93506122f08361222d565b8060005b8381101561232857612305826122b0565b61230f8882612251565b975061231a836122c3565b9250506001810190506122f4565b5085935050505092915050565b600060608201905061234a600083018661181d565b612357602083018561181d565b818103604083015261236981846122d0565b9050949350505050565b6000604082019050612388600083018561180e565b61239560208301846119b2565b9392505050565b7f506f6c6c2076616c696461746564000000000000000000000000000000000000600082015250565b60006123d2600e83611b84565b91506123dd8261239c565b602082019050919050565b60006060820190506123fd600083018561180e565b61240a6020830184611894565b818103604083015261241b816123c5565b90509392505050565b7f4f776e61626c653a206e6577206f776e657220697320746865207a65726f206160008201527f6464726573730000000000000000000000000000000000000000000000000000602082015250565b6000612480602683611b84565b915061248b82612424565b604082019050919050565b600060208201905081810360008301526124af81612473565b9050919050565b7f4f776e61626c653a2063616c6c6572206973206e6f7420746865206f776e6572600082015250565b60006124ec602083611b84565b91506124f7826124b6565b602082019050919050565b6000602082019050818103600083015261251b816124df565b905091905056fea2646970667358221220ea0ad763e474c23c751f6e1c365b47ec7f615a078fd73938a2b9c00f38be440864736f6c63430008130033",
  "immutableReferences": {},
  "source": "// SPDX-License-Identifier: MIT\n\npragma solidity 0.8.19;\n /*\n  * For this exam :\n  * -Validation of poll are keeped simple : 3 validators are required to validate a poll and 2 voting for to validate it\n  * -Time constraints are removed to facilitate tests and live demo\n  * \n  * -the flow is :\n  * +a poll is submitted to the DAO by sending its address and some ETH to the DAO (50% will be given to validators, 50% to the treasury if the poll is validated)\n  * +DAO members can vote for the poll\n  * +a certain amount of vote is required to close the poll (3 as example for now) (later : in a certain delay)\n  * +then the DAO members can validate or invalidate the poll calling the setValidation function of the PollValidator contract\n  *\n  * -in case of validation of the poll : the plugin send the funds to the DAO to pay validators and DAO (updating the balances to be claim later)\n  * -in case of invalidation of the poll : the plugin send the funds to the DAO to pay validator fees (updating the balances to be claim later) and \n  * send back the DAO fees to the poll when calling the setPollValidation function of the poll (the poll can claim it later)\n  */\n\nimport \"@openzeppelin/contracts/access/Ownable.sol\";\nimport \"./IPollValidator.sol\";\nimport \"./DPollDAO.sol\";\n\n/**\n@title DPollPluginValidator\n@author ibourn\n@notice This contract is used to manage the polls validation\n@dev This contract is a plugin for the DAO, it is used to validate or invalidate a poll. It's splitted as a plugin to allow upgradability and flexibility and to reduce the size of the DAO contract\n */\n\ncontract DPollPluginValidator is Ownable {\n    enum SubmissionStatus {SUBMITTED, CLOSED, VALIDATED }\n\n    struct PollSubmission {\n        address pollAddress;\n        uint256 submissionDate;\n        uint256 voteCount;\n        uint256 amountToDAO;\n        uint256 amountToValidators;\n        SubmissionStatus status;\n        address[] validators;\n    }\n\n    DPollDAO public dpollDAO;\n    address public DAOAddress;\n\n    uint256 public constant requiredValidators = 3;\n    uint256 public constant requiredValidations = 2;\n    uint256 public constant pollSubmissionDuration = 1 weeks;\n\n    PollSubmission[] public pollSubmissions;\n    mapping(address => uint256) public pollSubmissionIds;\n    mapping (address => mapping (uint256 => bool)) public validatorsVotes;\n\n    event PollStatusChange(address pollAddress, SubmissionStatus newStatus, string message);\n    event DAOBalanceTansfer(address to, uint amount, string action);\n\n\n    modifier onlyDAOmember() {\n        require(dpollDAO.isMember(msg.sender), \"You are not a member\");\n        _;\n    }\n    modifier onlySelfSubmit(address _pollAddress) {\n        require(msg.sender == _pollAddress, \"The Poll should submit itself\");\n        _;\n    }\n    modifier onlyExisting(uint _pollSubmissionId) {\n        require(_pollSubmissionId < pollSubmissions.length, \"The poll does not exist\");\n        _;\n    }\n\n\n    constructor(address _DAOaddress) {\n        DAOAddress = _DAOaddress;\n        dpollDAO = DPollDAO(DAOAddress);\n    }\n\n    function submitPoll(address _pollAddress, uint _toValidators, uint _toDAO) external payable onlySelfSubmit(_pollAddress) {\n        uint totalRecieved = _toValidators + _toDAO;\n        uint pollSubmissionId = pollSubmissionIds[_pollAddress];\n        if (pollSubmissions.length != 0 ) {\n             if (pollSubmissionId != 0 || (pollSubmissions[pollSubmissionId].pollAddress != address(0))) {\n                revert (\"Poll already submitted\");\n          }\n        } \n        if (msg.value < 0.01 ether || msg.value < totalRecieved) {\n            revert (\"Not enough funds\");\n        }\n\n        PollSubmission memory newPollSubmission;\n        newPollSubmission.pollAddress = _pollAddress;\n        // newPollSubmission.submissionDate = block.timestamp;\n        // newPollSubmission.status = SubmissionStatus.SUBMITTED;//default\n        newPollSubmission.amountToDAO = _toDAO;\n        newPollSubmission.amountToValidators = _toValidators;\n        if (msg.value > totalRecieved) {\n            newPollSubmission.amountToDAO = msg.value - totalRecieved;\n        }\n        pollSubmissions.push(newPollSubmission);\n        pollSubmissionIds[_pollAddress] = pollSubmissions.length - 1;\n        \n        emit PollStatusChange(_pollAddress, SubmissionStatus.SUBMITTED, \"Poll submitted\");\n    }\n\n    function voteForPoll(uint _pollSubmissionId, bool _vote) public onlyDAOmember() onlyExisting(_pollSubmissionId) {\n\n        PollSubmission storage pollSubmission = pollSubmissions[_pollSubmissionId];\n        require(pollSubmission.status == SubmissionStatus.SUBMITTED, \"The poll is not submitted\");\n        // require(pollSubmission.submissionDate + pollSubmissionDuration < block.timestamp, \"The poll submission is closed\");\n        require(pollSubmission.validators.length < requiredValidators, \"Already enough votes\");\n        require(!validatorsVotes[msg.sender][_pollSubmissionId], \"Already voted\");\n        \n        pollSubmission.validators.push(msg.sender);\n        validatorsVotes[msg.sender][_pollSubmissionId] = true;\n\n        if (_vote) {\n            pollSubmission.voteCount++;\n        }\n\n        dpollDAO.rewardValidator(msg.sender);\n    }\n\n    //due to restriction and later time constraints, no modifier to allow automatisation of the workflow\n    function closeSubmission(uint _pollSubmissionId) public onlyDAOmember() onlyExisting(_pollSubmissionId) {\n        PollSubmission storage pollSubmission = pollSubmissions[_pollSubmissionId];\n        require(pollSubmission.status == SubmissionStatus.SUBMITTED, \"The poll is not submitted\");\n        // require(pollSubmission.submissionDate + pollSubmissionDuration <= block.timestamp, \"The poll submission is closed\");\n        require(pollSubmission.validators.length >= requiredValidators, \"The poll submission is not finished\");\n        \n        pollSubmission.status = SubmissionStatus.CLOSED;\n        dpollDAO.rewardValidator(msg.sender);\n        emit PollStatusChange(pollSubmission.pollAddress, SubmissionStatus.CLOSED, \"Poll closed\");\n    }\n\n    function setValidation(uint _pollSubmissionId) public onlyDAOmember() onlyExisting(_pollSubmissionId) {\n        PollSubmission storage pollSubmission = pollSubmissions[_pollSubmissionId];\n        require(pollSubmission.status == SubmissionStatus.CLOSED, \"The poll is not closed\");\n        require(address(this).balance >= pollSubmission.amountToDAO + pollSubmission.amountToValidators, \"Not enough funds\");\n        \n        //default state : poll not validated\n        bool isValid;\n        uint amountBack = pollSubmission.amountToDAO;\n        uint daoAmount;\n\n        if(pollSubmission.voteCount >= requiredValidations) {\n            isValid = true;\n            daoAmount = pollSubmission.amountToDAO;\n            amountBack = 0;\n        } \n\n        //Send fund to pay validators (and DAO if validated)\n        dpollDAO.payValidation{value: daoAmount + pollSubmission.amountToValidators}(daoAmount, pollSubmission.amountToValidators, pollSubmission.validators);\n        \n        //Set validation state of the poll and refund from DAO fees if not validated\n        IPollValidator(pollSubmission.pollAddress).setPollValidation{value: amountBack}(pollSubmission.pollAddress, isValid);\n\n        dpollDAO.rewardValidator(msg.sender);\n        emit PollStatusChange(pollSubmission.pollAddress, SubmissionStatus.VALIDATED, \"Poll validated\");\n    }\n    \n\n}",
  "sourcePath": "/home/ibournubuntu/ALYRA/PROJET_FINAL/DPoll/truffle/contracts/DPollPluginValidator.sol",
  "compiler": {
    "name": "solc",
    "version": "0.8.19+commit.7dd6d404.Emscripten.clang"
  },
  "schemaVersion": "3.4.14",
  "updatedAt": "2023-07-25T18:00:36.023Z",
  "networkType": "ethereum",
  "devdoc": {
    "author": "ibourn",
    "details": "This contract is a plugin for the DAO, it is used to validate or invalidate a poll. It's splitted as a plugin to allow upgradability and flexibility and to reduce the size of the DAO contract",
    "kind": "dev",
    "methods": {
      "owner()": {
        "details": "Returns the address of the current owner."
      },
      "renounceOwnership()": {
        "details": "Leaves the contract without owner. It will not be possible to call `onlyOwner` functions. Can only be called by the current owner. NOTE: Renouncing ownership will leave the contract without an owner, thereby disabling any functionality that is only available to the owner."
      },
      "transferOwnership(address)": {
        "details": "Transfers ownership of the contract to a new account (`newOwner`). Can only be called by the current owner."
      }
    },
    "title": "DPollPluginValidator",
    "version": 1
  },
  "userdoc": {
    "kind": "user",
    "methods": {},
    "notice": "This contract is used to manage the polls validation",
    "version": 1
  }
}