{
  "contractName": "DPOllDAO",
  "abi": [
    {
      "inputs": [],
      "stateMutability": "nonpayable",
      "type": "constructor"
    },
    {
      "anonymous": false,
      "inputs": [
        {
          "indexed": false,
          "internalType": "address",
          "name": "to",
          "type": "address"
        },
        {
          "indexed": false,
          "internalType": "uint256",
          "name": "amount",
          "type": "uint256"
        },
        {
          "indexed": false,
          "internalType": "string",
          "name": "action",
          "type": "string"
        }
      ],
      "name": "DAOBalanceTansfer",
      "type": "event"
    },
    {
      "anonymous": false,
      "inputs": [
        {
          "indexed": true,
          "internalType": "address",
          "name": "previousOwner",
          "type": "address"
        },
        {
          "indexed": true,
          "internalType": "address",
          "name": "newOwner",
          "type": "address"
        }
      ],
      "name": "OwnershipTransferred",
      "type": "event"
    },
    {
      "anonymous": false,
      "inputs": [
        {
          "indexed": false,
          "internalType": "address",
          "name": "pollAddress",
          "type": "address"
        },
        {
          "indexed": false,
          "internalType": "enum DPollStorage.SubmissionStatus",
          "name": "newStatus",
          "type": "uint8"
        },
        {
          "indexed": false,
          "internalType": "string",
          "name": "message",
          "type": "string"
        }
      ],
      "name": "PollStatusChange",
      "type": "event"
    },
    {
      "stateMutability": "payable",
      "type": "fallback"
    },
    {
      "inputs": [],
      "name": "DAO_MEMBERSHIP_FEE",
      "outputs": [
        {
          "internalType": "uint256",
          "name": "",
          "type": "uint256"
        }
      ],
      "stateMutability": "view",
      "type": "function"
    },
    {
      "inputs": [],
      "name": "DAObalance",
      "outputs": [
        {
          "internalType": "uint256",
          "name": "",
          "type": "uint256"
        }
      ],
      "stateMutability": "view",
      "type": "function"
    },
    {
      "inputs": [],
      "name": "DPTtoken",
      "outputs": [
        {
          "internalType": "contract DPollToken",
          "name": "",
          "type": "address"
        }
      ],
      "stateMutability": "view",
      "type": "function"
    },
    {
      "inputs": [
        {
          "internalType": "address",
          "name": "_memberAddress",
          "type": "address"
        }
      ],
      "name": "addMember",
      "outputs": [],
      "stateMutability": "payable",
      "type": "function"
    },
    {
      "inputs": [
        {
          "internalType": "uint256",
          "name": "_proposalId",
          "type": "uint256"
        }
      ],
      "name": "closeVote",
      "outputs": [],
      "stateMutability": "nonpayable",
      "type": "function"
    },
    {
      "inputs": [
        {
          "internalType": "string",
          "name": "_title",
          "type": "string"
        },
        {
          "internalType": "string",
          "name": "_description",
          "type": "string"
        },
        {
          "internalType": "enum DPollStorage.ProposalType",
          "name": "_purpose",
          "type": "uint8"
        },
        {
          "internalType": "address[]",
          "name": "_payloadAddresses",
          "type": "address[]"
        },
        {
          "internalType": "uint256[]",
          "name": "_payloadUint256",
          "type": "uint256[]"
        },
        {
          "internalType": "string[]",
          "name": "_payloadString",
          "type": "string[]"
        }
      ],
      "name": "createProposal",
      "outputs": [],
      "stateMutability": "nonpayable",
      "type": "function"
    },
    {
      "inputs": [],
      "name": "creationDelay",
      "outputs": [
        {
          "internalType": "uint256",
          "name": "value",
          "type": "uint256"
        },
        {
          "internalType": "uint256",
          "name": "min",
          "type": "uint256"
        },
        {
          "internalType": "uint256",
          "name": "max",
          "type": "uint256"
        }
      ],
      "stateMutability": "view",
      "type": "function"
    },
    {
      "inputs": [],
      "name": "distributedTokenCount",
      "outputs": [
        {
          "internalType": "uint256",
          "name": "",
          "type": "uint256"
        }
      ],
      "stateMutability": "view",
      "type": "function"
    },
    {
      "inputs": [
        {
          "internalType": "uint256",
          "name": "_proposalId",
          "type": "uint256"
        }
      ],
      "name": "executeVote",
      "outputs": [],
      "stateMutability": "nonpayable",
      "type": "function"
    },
    {
      "inputs": [],
      "name": "executionDelay",
      "outputs": [
        {
          "internalType": "uint256",
          "name": "value",
          "type": "uint256"
        },
        {
          "internalType": "uint256",
          "name": "min",
          "type": "uint256"
        },
        {
          "internalType": "uint256",
          "name": "max",
          "type": "uint256"
        }
      ],
      "stateMutability": "view",
      "type": "function"
    },
    {
      "inputs": [
        {
          "internalType": "address",
          "name": "_memberAddress",
          "type": "address"
        },
        {
          "internalType": "enum DPollStorage.MemberRole",
          "name": "_role",
          "type": "uint8"
        }
      ],
      "name": "grantRole",
      "outputs": [],
      "stateMutability": "nonpayable",
      "type": "function"
    },
    {
      "inputs": [],
      "name": "initialCreationDelay",
      "outputs": [
        {
          "internalType": "uint256",
          "name": "",
          "type": "uint256"
        }
      ],
      "stateMutability": "view",
      "type": "function"
    },
    {
      "inputs": [],
      "name": "initialExecutionDelay",
      "outputs": [
        {
          "internalType": "uint256",
          "name": "",
          "type": "uint256"
        }
      ],
      "stateMutability": "view",
      "type": "function"
    },
    {
      "inputs": [],
      "name": "initialVotingDuration",
      "outputs": [
        {
          "internalType": "uint256",
          "name": "",
          "type": "uint256"
        }
      ],
      "stateMutability": "view",
      "type": "function"
    },
    {
      "inputs": [
        {
          "internalType": "address",
          "name": "",
          "type": "address"
        }
      ],
      "name": "members",
      "outputs": [
        {
          "internalType": "address",
          "name": "memberAddress",
          "type": "address"
        },
        {
          "internalType": "uint256",
          "name": "memberSince",
          "type": "uint256"
        },
        {
          "internalType": "uint256",
          "name": "lastProposalCreation",
          "type": "uint256"
        },
        {
          "internalType": "uint256",
          "name": "balance",
          "type": "uint256"
        },
        {
          "internalType": "uint256",
          "name": "rewardsBlance",
          "type": "uint256"
        },
        {
          "internalType": "enum DPollStorage.MemberRole",
          "name": "role",
          "type": "uint8"
        }
      ],
      "stateMutability": "view",
      "type": "function"
    },
    {
      "inputs": [
        {
          "internalType": "uint256",
          "name": "",
          "type": "uint256"
        }
      ],
      "name": "membersList",
      "outputs": [
        {
          "internalType": "address",
          "name": "memberAddress",
          "type": "address"
        },
        {
          "internalType": "uint256",
          "name": "memberSince",
          "type": "uint256"
        },
        {
          "internalType": "uint256",
          "name": "lastProposalCreation",
          "type": "uint256"
        },
        {
          "internalType": "uint256",
          "name": "balance",
          "type": "uint256"
        },
        {
          "internalType": "uint256",
          "name": "rewardsBlance",
          "type": "uint256"
        },
        {
          "internalType": "enum DPollStorage.MemberRole",
          "name": "role",
          "type": "uint8"
        }
      ],
      "stateMutability": "view",
      "type": "function"
    },
    {
      "inputs": [],
      "name": "minTokenToCreate",
      "outputs": [
        {
          "internalType": "uint256",
          "name": "",
          "type": "uint256"
        }
      ],
      "stateMutability": "view",
      "type": "function"
    },
    {
      "inputs": [],
      "name": "minTokenToVote",
      "outputs": [
        {
          "internalType": "uint256",
          "name": "",
          "type": "uint256"
        }
      ],
      "stateMutability": "view",
      "type": "function"
    },
    {
      "inputs": [],
      "name": "owner",
      "outputs": [
        {
          "internalType": "address",
          "name": "",
          "type": "address"
        }
      ],
      "stateMutability": "view",
      "type": "function"
    },
    {
      "inputs": [
        {
          "internalType": "uint256",
          "name": "",
          "type": "uint256"
        }
      ],
      "name": "pendingProposalsId",
      "outputs": [
        {
          "internalType": "uint256",
          "name": "",
          "type": "uint256"
        }
      ],
      "stateMutability": "view",
      "type": "function"
    },
    {
      "inputs": [],
      "name": "pollSubmissionDuration",
      "outputs": [
        {
          "internalType": "uint256",
          "name": "",
          "type": "uint256"
        }
      ],
      "stateMutability": "view",
      "type": "function"
    },
    {
      "inputs": [
        {
          "internalType": "uint256",
          "name": "",
          "type": "uint256"
        }
      ],
      "name": "pollSubmissions",
      "outputs": [
        {
          "internalType": "address",
          "name": "pollAddress",
          "type": "address"
        },
        {
          "internalType": "uint256",
          "name": "submissionDate",
          "type": "uint256"
        },
        {
          "internalType": "uint256",
          "name": "voteCount",
          "type": "uint256"
        },
        {
          "internalType": "uint256",
          "name": "amountToDAO",
          "type": "uint256"
        },
        {
          "internalType": "uint256",
          "name": "amountToValidators",
          "type": "uint256"
        },
        {
          "internalType": "enum DPollStorage.SubmissionStatus",
          "name": "status",
          "type": "uint8"
        }
      ],
      "stateMutability": "view",
      "type": "function"
    },
    {
      "inputs": [],
      "name": "proposalCount",
      "outputs": [
        {
          "internalType": "uint256",
          "name": "",
          "type": "uint256"
        }
      ],
      "stateMutability": "view",
      "type": "function"
    },
    {
      "inputs": [
        {
          "internalType": "uint256",
          "name": "",
          "type": "uint256"
        }
      ],
      "name": "proposals",
      "outputs": [
        {
          "internalType": "uint256",
          "name": "id",
          "type": "uint256"
        },
        {
          "internalType": "string",
          "name": "title",
          "type": "string"
        },
        {
          "internalType": "string",
          "name": "description",
          "type": "string"
        },
        {
          "internalType": "enum DPollStorage.ProposalType",
          "name": "purpose",
          "type": "uint8"
        },
        {
          "components": [
            {
              "internalType": "uint256",
              "name": "votesFor",
              "type": "uint256"
            },
            {
              "internalType": "uint256",
              "name": "votesAgainst",
              "type": "uint256"
            },
            {
              "internalType": "uint256",
              "name": "votesTotal",
              "type": "uint256"
            },
            {
              "internalType": "enum DPollStorage.PollStatus",
              "name": "status",
              "type": "uint8"
            },
            {
              "internalType": "uint256",
              "name": "createdAt",
              "type": "uint256"
            },
            {
              "internalType": "uint256",
              "name": "closedAt",
              "type": "uint256"
            },
            {
              "internalType": "uint256",
              "name": "executedAt",
              "type": "uint256"
            }
          ],
          "internalType": "struct DPollStorage.ProposalState",
          "name": "state",
          "type": "tuple"
        },
        {
          "internalType": "address",
          "name": "creator",
          "type": "address"
        },
        {
          "components": [
            {
              "internalType": "address[]",
              "name": "payloadAddresses",
              "type": "address[]"
            },
            {
              "internalType": "uint256[]",
              "name": "payloadUint256",
              "type": "uint256[]"
            },
            {
              "internalType": "string[]",
              "name": "payloadString",
              "type": "string[]"
            }
          ],
          "internalType": "struct DPollStorage.ProposalPayload",
          "name": "payload",
          "type": "tuple"
        }
      ],
      "stateMutability": "view",
      "type": "function"
    },
    {
      "inputs": [
        {
          "internalType": "address",
          "name": "_memberAddress",
          "type": "address"
        }
      ],
      "name": "removeMember",
      "outputs": [],
      "stateMutability": "nonpayable",
      "type": "function"
    },
    {
      "inputs": [],
      "name": "renounceOwnership",
      "outputs": [],
      "stateMutability": "nonpayable",
      "type": "function"
    },
    {
      "inputs": [],
      "name": "requiredValidations",
      "outputs": [
        {
          "internalType": "uint256",
          "name": "",
          "type": "uint256"
        }
      ],
      "stateMutability": "view",
      "type": "function"
    },
    {
      "inputs": [],
      "name": "requiredValidators",
      "outputs": [
        {
          "internalType": "uint256",
          "name": "",
          "type": "uint256"
        }
      ],
      "stateMutability": "view",
      "type": "function"
    },
    {
      "inputs": [
        {
          "internalType": "address",
          "name": "_memberAddress",
          "type": "address"
        }
      ],
      "name": "revokeMembership",
      "outputs": [],
      "stateMutability": "nonpayable",
      "type": "function"
    },
    {
      "inputs": [
        {
          "internalType": "address",
          "name": "_memberAddress",
          "type": "address"
        }
      ],
      "name": "revokeRole",
      "outputs": [],
      "stateMutability": "nonpayable",
      "type": "function"
    },
    {
      "inputs": [],
      "name": "rewardAction",
      "outputs": [],
      "stateMutability": "nonpayable",
      "type": "function"
    },
    {
      "inputs": [
        {
          "internalType": "address",
          "name": "newOwner",
          "type": "address"
        }
      ],
      "name": "transferOwnership",
      "outputs": [],
      "stateMutability": "nonpayable",
      "type": "function"
    },
    {
      "inputs": [
        {
          "internalType": "uint256",
          "name": "_proposalId",
          "type": "uint256"
        },
        {
          "internalType": "bool",
          "name": "_vote",
          "type": "bool"
        }
      ],
      "name": "vote",
      "outputs": [],
      "stateMutability": "nonpayable",
      "type": "function"
    },
    {
      "inputs": [],
      "name": "votingDuration",
      "outputs": [
        {
          "internalType": "uint256",
          "name": "value",
          "type": "uint256"
        },
        {
          "internalType": "uint256",
          "name": "min",
          "type": "uint256"
        },
        {
          "internalType": "uint256",
          "name": "max",
          "type": "uint256"
        }
      ],
      "stateMutability": "view",
      "type": "function"
    },
    {
      "stateMutability": "payable",
      "type": "receive"
    },
    {
      "inputs": [],
      "name": "deposit",
      "outputs": [],
      "stateMutability": "payable",
      "type": "function"
    },
    {
      "inputs": [],
      "name": "emergencyWithdraw",
      "outputs": [],
      "stateMutability": "nonpayable",
      "type": "function"
    },
    {
      "inputs": [
        {
          "internalType": "address",
          "name": "_pollAddress",
          "type": "address"
        },
        {
          "internalType": "uint256",
          "name": "_toValidators",
          "type": "uint256"
        },
        {
          "internalType": "uint256",
          "name": "_toDAO",
          "type": "uint256"
        }
      ],
      "name": "submitPoll",
      "outputs": [],
      "stateMutability": "payable",
      "type": "function"
    },
    {
      "inputs": [
        {
          "internalType": "uint256",
          "name": "_pollSubmissionId",
          "type": "uint256"
        },
        {
          "internalType": "bool",
          "name": "_vote",
          "type": "bool"
        }
      ],
      "name": "voteForPoll",
      "outputs": [],
      "stateMutability": "nonpayable",
      "type": "function"
    },
    {
      "inputs": [
        {
          "internalType": "uint256",
          "name": "_pollSubmissionId",
          "type": "uint256"
        }
      ],
      "name": "closeSubmission",
      "outputs": [],
      "stateMutability": "nonpayable",
      "type": "function"
    },
    {
      "inputs": [
        {
          "internalType": "uint256",
          "name": "_pollSubmissionId",
          "type": "uint256"
        }
      ],
      "name": "setValidation",
      "outputs": [],
      "stateMutability": "nonpayable",
      "type": "function"
    },
    {
      "inputs": [],
      "name": "withdrawReward",
      "outputs": [],
      "stateMutability": "nonpayable",
      "type": "function"
    }
  ],
  "bytecode": "0x6080604052600160035560026003546200001a9190620005a7565b6004556042600555604b60065560326007556078600855607860095560405180606001604052806008548152602001601e81526020016224ea00815250600a600082015181600001556020820151816001015560408201518160020155505060405180606001604052806009548152602001601e81526020016224ea00815250600d6000820151816000015560208201518160010155604082015181600201555050604051806060016040528060788152602001601e81526020016224ea00815250601060008201518160000155602082015181600101556040820151816002015550506003601555600260165562093a8060175560405180604001604052806040518060400160405280600e81526020017f566f74696e674475726174696f6e00000000000000000000000000000000000081525081526020016040518060400160405280600e81526020017f457865637574696f6e44656c6179000000000000000000000000000000000000815250815250601a906002620001a092919062000473565b50348015620001ae57600080fd5b50620001cf620001c36200026c60201b60201c565b6200027460201b60201c565b6000600281905550620f4240604051620001e990620004d3565b620001f591906200063f565b604051809103906000f08015801562000212573d6000803e3d6000fd5b50600160006101000a81548173ffffffffffffffffffffffffffffffffffffffff021916908373ffffffffffffffffffffffffffffffffffffffff160217905550620002663360036200033860201b60201c565b62000a5b565b600033905090565b60008060009054906101000a900473ffffffffffffffffffffffffffffffffffffffff169050816000806101000a81548173ffffffffffffffffffffffffffffffffffffffff021916908373ffffffffffffffffffffffffffffffffffffffff1602179055508173ffffffffffffffffffffffffffffffffffffffff168173ffffffffffffffffffffffffffffffffffffffff167f8be0079c531659141344cd1fd0a4f28419497f9722a3daafe3b4186f6b6457e060405160405180910390a35050565b62000348620003b960201b60201c565b80601860008473ffffffffffffffffffffffffffffffffffffffff1673ffffffffffffffffffffffffffffffffffffffff16815260200190815260200160002060050160006101000a81548160ff02191690836004811115620003b057620003af6200065c565b5b02179055505050565b620003c96200026c60201b60201c565b73ffffffffffffffffffffffffffffffffffffffff16620003ef6200044a60201b60201c565b73ffffffffffffffffffffffffffffffffffffffff161462000448576040517f08c379a00000000000000000000000000000000000000000000000000000000081526004016200043f90620006ec565b60405180910390fd5b565b60008060009054906101000a900473ffffffffffffffffffffffffffffffffffffffff16905090565b828054828255906000526020600020908101928215620004c0579160200282015b82811115620004bf578251829081620004ae919062000974565b509160200191906001019062000494565b5b509050620004cf9190620004e1565b5090565b61197c806200780a83390190565b5b80821115620005055760008181620004fb919062000509565b50600101620004e2565b5090565b508054620005179062000777565b6000825580601f106200052b57506200054c565b601f0160209004906000526020600020908101906200054b91906200054f565b5b50565b5b808211156200056a57600081600090555060010162000550565b5090565b6000819050919050565b7f4e487b7100000000000000000000000000000000000000000000000000000000600052601160045260246000fd5b6000620005b4826200056e565b9150620005c1836200056e565b9250828202620005d1816200056e565b91508282048414831517620005eb57620005ea62000578565b5b5092915050565b6000819050919050565b6000819050919050565b600062000627620006216200061b84620005f2565b620005fc565b6200056e565b9050919050565b620006398162000606565b82525050565b60006020820190506200065660008301846200062e565b92915050565b7f4e487b7100000000000000000000000000000000000000000000000000000000600052602160045260246000fd5b600082825260208201905092915050565b7f4f776e61626c653a2063616c6c6572206973206e6f7420746865206f776e6572600082015250565b6000620006d46020836200068b565b9150620006e1826200069c565b602082019050919050565b600060208201905081810360008301526200070781620006c5565b9050919050565b600081519050919050565b7f4e487b7100000000000000000000000000000000000000000000000000000000600052604160045260246000fd5b7f4e487b7100000000000000000000000000000000000000000000000000000000600052602260045260246000fd5b600060028204905060018216806200079057607f821691505b602082108103620007a657620007a562000748565b5b50919050565b60008190508160005260206000209050919050565b60006020601f8301049050919050565b600082821b905092915050565b600060088302620008107fffffffffffffffffffffffffffffffffffffffffffffffffffffffffffffffff82620007d1565b6200081c8683620007d1565b95508019841693508086168417925050509392505050565b6000620008556200084f62000849846200056e565b620005fc565b6200056e565b9050919050565b6000819050919050565b620008718362000834565b6200088962000880826200085c565b848454620007de565b825550505050565b600090565b620008a062000891565b620008ad81848462000866565b505050565b5b81811015620008d557620008c960008262000896565b600181019050620008b3565b5050565b601f8211156200092457620008ee81620007ac565b620008f984620007c1565b8101602085101562000909578190505b620009216200091885620007c1565b830182620008b2565b50505b505050565b600082821c905092915050565b6000620009496000198460080262000929565b1980831691505092915050565b600062000964838362000936565b9150826002028217905092915050565b6200097f826200070e565b67ffffffffffffffff8111156200099b576200099a62000719565b5b620009a7825462000777565b620009b4828285620008d9565b600060209050601f831160018114620009ec5760008415620009d7578287015190505b620009e3858262000956565b86555062000a53565b601f198416620009fc86620007ac565b60005b8281101562000a2657848901518255600182019150602085019450602081019050620009ff565b8683101562000a46578489015162000a42601f89168262000936565b8355505b6001600288020188555050505b505050505050565b616d9f8062000a6b6000396000f3fe60806040526004361061024a5760003560e01c806397c875dd11610139578063c885bc58116100b6578063d824fc5e1161007a578063d824fc5e1461082c578063d825de3414610855578063da35c66414610880578063db2e21bc146108ab578063f2fde38b146108c2578063f98a4eca146108eb57610259565b8063c885bc581461079d578063c9d27afe146107b4578063ca6d56dc146107dd578063d0e30db0146107f9578063d1ae3d661461080357610259565b8063aba7074e116100fd578063aba7074e146106d9578063b1ad597914610702578063b46411c31461072d578063c086ba5714610749578063c5ae086a1461077457610259565b806397c875dd14610602578063988119731461062d578063a3db1d2014610658578063a475fa1814610683578063aae95a60146106ae57610259565b806331665d60116101c7578063715018a61161018b578063715018a61461053f57806380e52e3f146105565780638912620c1461057f5780638b257989146105aa5780638da5cb5b146105d757610259565b806331665d601461046c5780633e840236146104835780634cdc930f146104ac578063503d3bc4146104d95780636e48a0351461051657610259565b80630ff1b9291161020e5780630ff1b9291461037e578063132002fc146103a757806313b8ad31146103d457806319a6705d146104165780631f9aa4121461044157610259565b8063013cf08b1461026357806308ae4b0c146102a65780630996636b146102e85780630b1ca49a1461032a5780630de1e2b41461035357610259565b3661025957610257610914565b005b610261610914565b005b34801561026f57600080fd5b5061028a6004803603810190610285919061461f565b610972565b60405161029d9796959493929190614b5f565b60405180910390f35b3480156102b257600080fd5b506102cd60048036038101906102c89190614c12565b610d3b565b6040516102df96959493929190614c87565b60405180910390f35b3480156102f457600080fd5b5061030f600480360381019061030a919061461f565b610da4565b60405161032196959493929190614d30565b60405180910390f35b34801561033657600080fd5b50610351600480360381019061034c9190614c12565b610e1d565b005b34801561035f57600080fd5b506103686111f0565b6040516103759190614d91565b60405180910390f35b34801561038a57600080fd5b506103a560048036038101906103a0919061461f565b6111f6565b005b3480156103b357600080fd5b506103bc61142c565b6040516103cb93929190614dac565b60405180910390f35b3480156103e057600080fd5b506103fb60048036038101906103f6919061461f565b611444565b60405161040d96959493929190614c87565b60405180910390f35b34801561042257600080fd5b5061042b6114bd565b6040516104389190614d91565b60405180910390f35b34801561044d57600080fd5b506104566114c2565b6040516104639190614d91565b60405180910390f35b34801561047857600080fd5b506104816114c8565b005b34801561048f57600080fd5b506104aa60048036038101906104a59190614e08565b611621565b005b3480156104b857600080fd5b506104c1611697565b6040516104d093929190614dac565b60405180910390f35b3480156104e557600080fd5b5061050060048036038101906104fb919061461f565b6116af565b60405161050d9190614d91565b60405180910390f35b34801561052257600080fd5b5061053d6004803603810190610538919061461f565b6116d3565b005b34801561054b57600080fd5b5061055461199f565b005b34801561056257600080fd5b5061057d60048036038101906105789190614c12565b6119b3565b005b34801561058b57600080fd5b50610594611a29565b6040516105a19190614ea7565b60405180910390f35b3480156105b657600080fd5b506105bf611a4f565b6040516105ce93929190614dac565b60405180910390f35b3480156105e357600080fd5b506105ec611a67565b6040516105f99190614ec2565b60405180910390f35b34801561060e57600080fd5b50610617611a90565b6040516106249190614d91565b60405180910390f35b34801561063957600080fd5b50610642611a96565b60405161064f9190614d91565b60405180910390f35b34801561066457600080fd5b5061066d611a9c565b60405161067a9190614d91565b60405180910390f35b34801561068f57600080fd5b50610698611aa2565b6040516106a59190614d91565b60405180910390f35b3480156106ba57600080fd5b506106c3611aa8565b6040516106d09190614d91565b60405180910390f35b3480156106e557600080fd5b5061070060048036038101906106fb9190614f15565b611aae565b005b34801561070e57600080fd5b50610717611cdf565b6040516107249190614d91565b60405180910390f35b61074760048036038101906107429190614f55565b611ce5565b005b34801561075557600080fd5b5061075e611e7b565b60405161076b9190614d91565b60405180910390f35b34801561078057600080fd5b5061079b60048036038101906107969190614c12565b611e81565b005b3480156107a957600080fd5b506107b261200b565b005b3480156107c057600080fd5b506107db60048036038101906107d69190614f15565b612208565b005b6107f760048036038101906107f29190614c12565b61258e565b005b610801610914565b005b34801561080f57600080fd5b5061082a6004803603810190610825919061536e565b612726565b005b34801561083857600080fd5b50610853600480360381019061084e919061461f565b6129df565b005b34801561086157600080fd5b5061086a612d0f565b6040516108779190614d91565b60405180910390f35b34801561088c57600080fd5b50610895612d1a565b6040516108a29190614d91565b60405180910390f35b3480156108b757600080fd5b506108c0612d20565b005b3480156108ce57600080fd5b506108e960048036038101906108e49190614c12565b612de1565b005b3480156108f757600080fd5b50610912600480360381019061090d919061461f565b612e64565b005b60003411610957576040517f08c379a000000000000000000000000000000000000000000000000000000000815260040161094e906154d3565b60405180910390fd5b34600260008282546109699190615522565b92505081905550565b601b60205280600052604060002060009150905080600001549080600101805461099b90615585565b80601f01602080910402602001604051908101604052809291908181526020018280546109c790615585565b8015610a145780601f106109e957610100808354040283529160200191610a14565b820191906000526020600020905b8154815290600101906020018083116109f757829003601f168201915b505050505090806002018054610a2990615585565b80601f0160208091040260200160405190810160405280929190818152602001828054610a5590615585565b8015610aa25780601f10610a7757610100808354040283529160200191610aa2565b820191906000526020600020905b815481529060010190602001808311610a8557829003601f168201915b5050505050908060030160009054906101000a900460ff1690806004016040518060e00160405290816000820154815260200160018201548152602001600282015481526020016003820160009054906101000a900460ff166003811115610b0d57610b0c6146eb565b5b6003811115610b1f57610b1e6146eb565b5b815260200160048201548152602001600582015481526020016006820154815250509080600b0160009054906101000a900473ffffffffffffffffffffffffffffffffffffffff169080600c0160405180606001604052908160008201805480602002602001604051908101604052809291908181526020018280548015610bfc57602002820191906000526020600020905b8160009054906101000a900473ffffffffffffffffffffffffffffffffffffffff1673ffffffffffffffffffffffffffffffffffffffff1681526020019060010190808311610bb2575b5050505050815260200160018201805480602002602001604051908101604052809291908181526020018280548015610c5457602002820191906000526020600020905b815481526020019060010190808311610c40575b5050505050815260200160028201805480602002602001604051908101604052809291908181526020016000905b82821015610d2e578382906000526020600020018054610ca190615585565b80601f0160208091040260200160405190810160405280929190818152602001828054610ccd90615585565b8015610d1a5780601f10610cef57610100808354040283529160200191610d1a565b820191906000526020600020905b815481529060010190602001808311610cfd57829003601f168201915b505050505081526020019060010190610c82565b5050505081525050905087565b60186020528060005260406000206000915090508060000160009054906101000a900473ffffffffffffffffffffffffffffffffffffffff16908060010154908060020154908060030154908060040154908060050160009054906101000a900460ff16905086565b601d8181548110610db457600080fd5b90600052602060002090600702016000915090508060000160009054906101000a900473ffffffffffffffffffffffffffffffffffffffff16908060010154908060020154908060030154908060040154908060050160009054906101000a900460ff16905086565b3373ffffffffffffffffffffffffffffffffffffffff168173ffffffffffffffffffffffffffffffffffffffff1614610e8b576040517f08c379a0000000000000000000000000000000000000000000000000000000008152600401610e8290615628565b60405180910390fd5b6000601860008373ffffffffffffffffffffffffffffffffffffffff1673ffffffffffffffffffffffffffffffffffffffff1681526020019081526020016000206040518060c00160405290816000820160009054906101000a900473ffffffffffffffffffffffffffffffffffffffff1673ffffffffffffffffffffffffffffffffffffffff1673ffffffffffffffffffffffffffffffffffffffff168152602001600182015481526020016002820154815260200160038201548152602001600482015481526020016005820160009054906101000a900460ff166004811115610f7a57610f796146eb565b5b6004811115610f8c57610f8b6146eb565b5b815250509050600480811115610fa557610fa46146eb565b5b8160a001516004811115610fbc57610fbb6146eb565b5b14610ffc576040517f08c379a0000000000000000000000000000000000000000000000000000000008152600401610ff390615694565b60405180910390fd5b426224ea0082602001516110109190615522565b10611050576040517f08c379a000000000000000000000000000000000000000000000000000000000815260040161104790615726565b60405180910390fd5b6000816060015190506000601860008573ffffffffffffffffffffffffffffffffffffffff1673ffffffffffffffffffffffffffffffffffffffff1681526020019081526020016000206003018190555060008373ffffffffffffffffffffffffffffffffffffffff16826040516110c790615777565b60006040518083038185875af1925050503d8060008114611104576040519150601f19603f3d011682016040523d82523d6000602084013e611109565b606091505b505090508061114d576040517f08c379a0000000000000000000000000000000000000000000000000000000008152600401611144906157d8565b60405180910390fd5b601860008573ffffffffffffffffffffffffffffffffffffffff1673ffffffffffffffffffffffffffffffffffffffff168152602001908152602001600020600080820160006101000a81549073ffffffffffffffffffffffffffffffffffffffff021916905560018201600090556002820160009055600382016000905560048201600090556005820160006101000a81549060ff0219169055505050505050565b60165481565b600480811115611209576112086146eb565b5b601860003373ffffffffffffffffffffffffffffffffffffffff1673ffffffffffffffffffffffffffffffffffffffff16815260200190815260200160002060050160009054906101000a900460ff16600481111561126b5761126a6146eb565b5b146112ab576040517f08c379a00000000000000000000000000000000000000000000000000000000081526004016112a290615694565b60405180910390fd5b6000601d82815481106112c1576112c06157f8565b5b90600052602060002090600702019050600060028111156112e5576112e46146eb565b5b8160050160009054906101000a900460ff166002811115611309576113086146eb565b5b14611349576040517f08c379a000000000000000000000000000000000000000000000000000000000815260040161134090615873565b60405180910390fd5b60155481600601805490501015611395576040517f08c379a000000000000000000000000000000000000000000000000000000000815260040161138c90615905565b60405180910390fd5b60018160050160006101000a81548160ff021916908360028111156113bd576113bc6146eb565b5b02179055506113ca6114c8565b7f91f6aacd27fa3ec374d76835769225dca9f8b9dbe5a5db8fdc057572c642c2e58160000160009054906101000a900473ffffffffffffffffffffffffffffffffffffffff166001604051611420929190615971565b60405180910390a15050565b600a8060000154908060010154908060020154905083565b6019818154811061145457600080fd5b90600052602060002090600602016000915090508060000160009054906101000a900473ffffffffffffffffffffffffffffffffffffffff16908060010154908060020154908060030154908060040154908060050160009054906101000a900460ff16905086565b607881565b60095481565b6004808111156114db576114da6146eb565b5b601860003373ffffffffffffffffffffffffffffffffffffffff1673ffffffffffffffffffffffffffffffffffffffff16815260200190815260200160002060050160009054906101000a900460ff16600481111561153d5761153c6146eb565b5b1461157d576040517f08c379a000000000000000000000000000000000000000000000000000000000815260040161157490615694565b60405180910390fd5b600160009054906101000a900473ffffffffffffffffffffffffffffffffffffffff1673ffffffffffffffffffffffffffffffffffffffff1663a9059cbb3360016040518363ffffffff1660e01b81526004016115db9291906159e8565b6020604051808303816000875af11580156115fa573d6000803e3d6000fd5b505050506040513d601f19601f8201168201806040525081019061161e9190615a26565b50565b611629613286565b80601860008473ffffffffffffffffffffffffffffffffffffffff1673ffffffffffffffffffffffffffffffffffffffff16815260200190815260200160002060050160006101000a81548160ff0219169083600481111561168e5761168d6146eb565b5b02179055505050565b60108060000154908060010154908060020154905083565b601c81815481106116bf57600080fd5b906000526020600020016000915090505481565b6004808111156116e6576116e56146eb565b5b601860003373ffffffffffffffffffffffffffffffffffffffff1673ffffffffffffffffffffffffffffffffffffffff16815260200190815260200160002060050160009054906101000a900460ff166004811115611748576117476146eb565b5b14611788576040517f08c379a000000000000000000000000000000000000000000000000000000000815260040161177f90615694565b60405180910390fd5b6000601b60008381526020019081526020016000209050600160038111156117b3576117b26146eb565b5b8160040160030160009054906101000a900460ff1660038111156117da576117d96146eb565b5b1461181a576040517f08c379a000000000000000000000000000000000000000000000000000000000815260040161181190615a9f565b60405180910390fd5b6000816004016005015414611864576040517f08c379a000000000000000000000000000000000000000000000000000000000815260040161185b90615b0b565b60405180910390fd5b42600a60000154826004016004015461187d9190615522565b106118bd576040517f08c379a00000000000000000000000000000000000000000000000000000000081526004016118b490615b77565b60405180910390fd5b60028160040160030160006101000a81548160ff021916908360038111156118e8576118e76146eb565b5b0217905550428160040160050181905550600160009054906101000a900473ffffffffffffffffffffffffffffffffffffffff1673ffffffffffffffffffffffffffffffffffffffff1663a9059cbb3360016040518363ffffffff1660e01b81526004016119579291906159e8565b6020604051808303816000875af1158015611976573d6000803e3d6000fd5b505050506040513d601f19601f8201168201806040525081019061199a9190615a26565b505050565b6119a7613286565b6119b16000613304565b565b6119bb613286565b6000601860008373ffffffffffffffffffffffffffffffffffffffff1673ffffffffffffffffffffffffffffffffffffffff16815260200190815260200160002060050160006101000a81548160ff02191690836004811115611a2157611a206146eb565b5b021790555050565b600160009054906101000a900473ffffffffffffffffffffffffffffffffffffffff1681565b600d8060000154908060010154908060020154905083565b60008060009054906101000a900473ffffffffffffffffffffffffffffffffffffffff16905090565b60155481565b60135481565b60085481565b60035481565b60175481565b600480811115611ac157611ac06146eb565b5b601860003373ffffffffffffffffffffffffffffffffffffffff1673ffffffffffffffffffffffffffffffffffffffff16815260200190815260200160002060050160009054906101000a900460ff166004811115611b2357611b226146eb565b5b14611b63576040517f08c379a0000000000000000000000000000000000000000000000000000000008152600401611b5a90615694565b60405180910390fd5b6000601d8381548110611b7957611b786157f8565b5b9060005260206000209060070201905060006002811115611b9d57611b9c6146eb565b5b8160050160009054906101000a900460ff166002811115611bc157611bc06146eb565b5b14611c01576040517f08c379a0000000000000000000000000000000000000000000000000000000008152600401611bf890615873565b60405180910390fd5b601554816006018054905010611c4c576040517f08c379a0000000000000000000000000000000000000000000000000000000008152600401611c4390615be3565b60405180910390fd5b80600601339080600181540180825580915050600190039060005260206000200160009091909190916101000a81548173ffffffffffffffffffffffffffffffffffffffff021916908373ffffffffffffffffffffffffffffffffffffffff1602179055508115611cd257806002016000815480929190611ccc90615c03565b91905055505b611cda6114c8565b505050565b60025481565b8273ffffffffffffffffffffffffffffffffffffffff163373ffffffffffffffffffffffffffffffffffffffff1614611d53576040517f08c379a0000000000000000000000000000000000000000000000000000000008152600401611d4a90615c97565b60405180910390fd5b662386f26fc10000341015611d9d576040517f08c379a0000000000000000000000000000000000000000000000000000000008152600401611d94906154d3565b60405180910390fd5b611da5614361565b83816000019073ffffffffffffffffffffffffffffffffffffffff16908173ffffffffffffffffffffffffffffffffffffffff168152505060008160a001906002811115611df657611df56146eb565b5b90816002811115611e0a57611e096146eb565b5b8152505081816060018181525050828160800181815250503460026000828254611e349190615522565b925050819055507f91f6aacd27fa3ec374d76835769225dca9f8b9dbe5a5db8fdc057572c642c2e5846000604051611e6d929190615d03565b60405180910390a150505050565b60045481565b611e89613286565b6000601860008373ffffffffffffffffffffffffffffffffffffffff1673ffffffffffffffffffffffffffffffffffffffff1681526020019081526020016000209050600480811115611edf57611ede6146eb565b5b8160050160009054906101000a900460ff166004811115611f0357611f026146eb565b5b14611f43576040517f08c379a0000000000000000000000000000000000000000000000000000000008152600401611f3a90615d8b565b60405180910390fd5b806003015460026000828254611f599190615522565b9250508190555060008160030181905550601860008373ffffffffffffffffffffffffffffffffffffffff1673ffffffffffffffffffffffffffffffffffffffff168152602001908152602001600020600080820160006101000a81549073ffffffffffffffffffffffffffffffffffffffff021916905560018201600090556002820160009055600382016000905560048201600090556005820160006101000a81549060ff021916905550505050565b6000601860003373ffffffffffffffffffffffffffffffffffffffff1673ffffffffffffffffffffffffffffffffffffffff1681526020019081526020016000206004015411612090576040517f08c379a000000000000000000000000000000000000000000000000000000000815260040161208790615df7565b60405180910390fd5b6000601860003373ffffffffffffffffffffffffffffffffffffffff1673ffffffffffffffffffffffffffffffffffffffff1681526020019081526020016000206004015490506000601860003373ffffffffffffffffffffffffffffffffffffffff1673ffffffffffffffffffffffffffffffffffffffff1681526020019081526020016000206004018190555060003373ffffffffffffffffffffffffffffffffffffffff168260405161214590615777565b60006040518083038185875af1925050503d8060008114612182576040519150601f19603f3d011682016040523d82523d6000602084013e612187565b606091505b50509050806121cb576040517f08c379a00000000000000000000000000000000000000000000000000000000081526004016121c2906157d8565b60405180910390fd5b7fb7b5f0ec05ebf9c593f8285d32192c8b295108dde675ff7b501c89af80e4486a33836040516121fc929190615e63565b60405180910390a15050565b60048081111561221b5761221a6146eb565b5b601860003373ffffffffffffffffffffffffffffffffffffffff1673ffffffffffffffffffffffffffffffffffffffff16815260200190815260200160002060050160009054906101000a900460ff16600481111561227d5761227c6146eb565b5b146122bd576040517f08c379a00000000000000000000000000000000000000000000000000000000081526004016122b490615694565b60405180910390fd5b600354600160009054906101000a900473ffffffffffffffffffffffffffffffffffffffff1673ffffffffffffffffffffffffffffffffffffffff166370a08231336040518263ffffffff1660e01b815260040161231b9190614ec2565b602060405180830381865afa158015612338573d6000803e3d6000fd5b505050506040513d601f19601f8201168201806040525081019061235c9190615eb4565b101561239d576040517f08c379a000000000000000000000000000000000000000000000000000000000815260040161239490615f53565b60405180910390fd5b6000601b60008481526020019081526020016000209050600160038111156123c8576123c76146eb565b5b8160040160030160009054906101000a900460ff1660038111156123ef576123ee6146eb565b5b1461242f576040517f08c379a000000000000000000000000000000000000000000000000000000000815260040161242690615a9f565b60405180910390fd5b6000151581600f0160003373ffffffffffffffffffffffffffffffffffffffff1673ffffffffffffffffffffffffffffffffffffffff16815260200190815260200160002060009054906101000a900460ff161515146124c4576040517f08c379a00000000000000000000000000000000000000000000000000000000081526004016124bb90615fbf565b60405180910390fd5b600181600f0160003373ffffffffffffffffffffffffffffffffffffffff1673ffffffffffffffffffffffffffffffffffffffff16815260200190815260200160002060006101000a81548160ff02191690831515021790555080600401600201600081548092919061253690615c03565b919050555081156125635780600401600001600081548092919061255990615c03565b9190505550612581565b80600401600101600081548092919061257b90615c03565b91905055505b6125896114c8565b505050565b66470de4df8200003410156125d8576040517f08c379a00000000000000000000000000000000000000000000000000000000081526004016125cf90616051565b60405180910390fd5b600060048111156125ec576125eb6146eb565b5b601860008373ffffffffffffffffffffffffffffffffffffffff1673ffffffffffffffffffffffffffffffffffffffff16815260200190815260200160002060050160009054906101000a900460ff16600481111561264e5761264d6146eb565b5b1461268e576040517f08c379a0000000000000000000000000000000000000000000000000000000008152600401612685906160bd565b60405180910390fd5b6126966143c6565b81816000019073ffffffffffffffffffffffffffffffffffffffff16908173ffffffffffffffffffffffffffffffffffffffff16815250504281602001818152505060048160a0019060048111156126f1576126f06146eb565b5b90816004811115612705576127046146eb565b5b81525050346002600082825461271b9190615522565b925050819055505050565b600480811115612739576127386146eb565b5b601860003373ffffffffffffffffffffffffffffffffffffffff1673ffffffffffffffffffffffffffffffffffffffff16815260200190815260200160002060050160009054906101000a900460ff16600481111561279b5761279a6146eb565b5b146127db576040517f08c379a00000000000000000000000000000000000000000000000000000000081526004016127d290615694565b60405180910390fd5b42601060000154601860003373ffffffffffffffffffffffffffffffffffffffff1673ffffffffffffffffffffffffffffffffffffffff1681526020019081526020016000206002015461282f9190615522565b1061286f576040517f08c379a00000000000000000000000000000000000000000000000000000000081526004016128669061614f565b60405180910390fd5b6014600081548092919061288290615c03565b91905055506000601b6000601454815260200190815260200160002090506014548160000181905550868160010190816128bc9190616311565b50858160020190816128ce9190616311565b50848160030160006101000a81548160ff021916908360038111156128f6576128f56146eb565b5b021790555060008160040160030160006101000a81548160ff02191690836003811115612926576129256146eb565b5b02179055504281600401600401819055503381600b0160006101000a81548173ffffffffffffffffffffffffffffffffffffffff021916908373ffffffffffffffffffffffffffffffffffffffff1602179055508381600c016000019080519060200190612995929190614424565b508281600c0160010190805190602001906129b19291906144ae565b508181600c0160020190805190602001906129cd9291906144fb565b506129d66114c8565b50505050505050565b6004808111156129f2576129f16146eb565b5b601860003373ffffffffffffffffffffffffffffffffffffffff1673ffffffffffffffffffffffffffffffffffffffff16815260200190815260200160002060050160009054906101000a900460ff166004811115612a5457612a536146eb565b5b14612a94576040517f08c379a0000000000000000000000000000000000000000000000000000000008152600401612a8b90615694565b60405180910390fd5b6000601d8281548110612aaa57612aa96157f8565b5b9060005260206000209060070201905060016002811115612ace57612acd6146eb565b5b8160050160009054906101000a900460ff166002811115612af257612af16146eb565b5b14612b32576040517f08c379a0000000000000000000000000000000000000000000000000000000008152600401612b299061642f565b60405180910390fd5b600080612bcb836004015484600601805480602002602001604051908101604052809291908181526020018280548015612bc157602002820191906000526020600020905b8160009054906101000a900473ffffffffffffffffffffffffffffffffffffffff1673ffffffffffffffffffffffffffffffffffffffff1681526020019060010190808311612b77575b50505050506133c8565b601654836002015410612be15760019150612bed565b60009150826003015490505b8260000160009054906101000a900473ffffffffffffffffffffffffffffffffffffffff1673ffffffffffffffffffffffffffffffffffffffff1663e1b9742a828560000160009054906101000a900473ffffffffffffffffffffffffffffffffffffffff16856040518463ffffffff1660e01b8152600401612c7192919061645e565b6000604051808303818588803b158015612c8a57600080fd5b505af1158015612c9e573d6000803e3d6000fd5b5050505050612cab6114c8565b7f91f6aacd27fa3ec374d76835769225dca9f8b9dbe5a5db8fdc057572c642c2e58360000160009054906101000a900473ffffffffffffffffffffffffffffffffffffffff166002604051612d019291906164d3565b60405180910390a150505050565b66470de4df82000081565b60145481565b612d28613286565b60003373ffffffffffffffffffffffffffffffffffffffff16600254604051612d5090615777565b60006040518083038185875af1925050503d8060008114612d8d576040519150601f19603f3d011682016040523d82523d6000602084013e612d92565b606091505b5050905080612dd6576040517f08c379a0000000000000000000000000000000000000000000000000000000008152600401612dcd906157d8565b60405180910390fd5b600060028190555050565b612de9613286565b600073ffffffffffffffffffffffffffffffffffffffff168173ffffffffffffffffffffffffffffffffffffffff1603612e58576040517f08c379a0000000000000000000000000000000000000000000000000000000008152600401612e4f90616581565b60405180910390fd5b612e6181613304565b50565b600480811115612e7757612e766146eb565b5b601860003373ffffffffffffffffffffffffffffffffffffffff1673ffffffffffffffffffffffffffffffffffffffff16815260200190815260200160002060050160009054906101000a900460ff166004811115612ed957612ed86146eb565b5b14612f19576040517f08c379a0000000000000000000000000000000000000000000000000000000008152600401612f1090615694565b60405180910390fd5b6000601b6000838152602001908152602001600020905060026003811115612f4457612f436146eb565b5b8160040160030160009054906101000a900460ff166003811115612f6b57612f6a6146eb565b5b14612fab576040517f08c379a0000000000000000000000000000000000000000000000000000000008152600401612fa2906165ed565b60405180910390fd5b6000816004016006015403612ff5576040517f08c379a0000000000000000000000000000000000000000000000000000000008152600401612fec90616659565b60405180910390fd5b42600d60000154826004016005015461300e9190615522565b1061304e576040517f08c379a0000000000000000000000000000000000000000000000000000000008152600401613045906166c5565b60405180910390fd5b60006003811115613062576130616146eb565b5b8160030160009054906101000a900460ff166003811115613086576130856146eb565b5b036130c6576040517f08c379a00000000000000000000000000000000000000000000000000000000081526004016130bd90616731565b60405180910390fd5b60038160040160030160006101000a81548160ff021916908360038111156130f1576130f06146eb565b5b021790555042816004016006018190555060016003811115613116576131156146eb565b5b8160030160009054906101000a900460ff16600381111561313a576131396146eb565b5b0361314d57613148826134b5565b6131e0565b60026003811115613161576131606146eb565b5b8160030160009054906101000a900460ff166003811115613185576131846146eb565b5b036131985761319382613b01565b6131df565b6003808111156131ab576131aa6146eb565b5b8160030160009054906101000a900460ff1660038111156131cf576131ce6146eb565b5b036131de576131dd82613f35565b5b5b5b600160009054906101000a900473ffffffffffffffffffffffffffffffffffffffff1673ffffffffffffffffffffffffffffffffffffffff1663a9059cbb3360016040518363ffffffff1660e01b815260040161323e9291906159e8565b6020604051808303816000875af115801561325d573d6000803e3d6000fd5b505050506040513d601f19601f820116820180604052508101906132819190615a26565b505050565b61328e614265565b73ffffffffffffffffffffffffffffffffffffffff166132ac611a67565b73ffffffffffffffffffffffffffffffffffffffff1614613302576040517f08c379a00000000000000000000000000000000000000000000000000000000081526004016132f99061679d565b60405180910390fd5b565b60008060009054906101000a900473ffffffffffffffffffffffffffffffffffffffff169050816000806101000a81548173ffffffffffffffffffffffffffffffffffffffff021916908373ffffffffffffffffffffffffffffffffffffffff1602179055508173ffffffffffffffffffffffffffffffffffffffff168173ffffffffffffffffffffffffffffffffffffffff167f8be0079c531659141344cd1fd0a4f28419497f9722a3daafe3b4186f6b6457e060405160405180910390a35050565b60008151836133d791906167ec565b905060008251846133e8919061681d565b905060005b835181101561349557826018600086848151811061340e5761340d6157f8565b5b602002602001015173ffffffffffffffffffffffffffffffffffffffff1673ffffffffffffffffffffffffffffffffffffffff16815260200190815260200160002060040160008282546134629190615522565b92505081905550826002600082825461347b919061684e565b92505081905550808061348d90615c03565b9150506133ed565b5080600260008282546134a89190615522565b9250508190555050505050565b6004808111156134c8576134c76146eb565b5b601860003373ffffffffffffffffffffffffffffffffffffffff1673ffffffffffffffffffffffffffffffffffffffff16815260200190815260200160002060050160009054906101000a900460ff16600481111561352a576135296146eb565b5b1461356a576040517f08c379a000000000000000000000000000000000000000000000000000000000815260040161356190615694565b60405180910390fd5b6000601b6000838152602001908152602001600020600c016040518060600160405290816000820180548060200260200160405190810160405280929190818152602001828054801561361257602002820191906000526020600020905b8160009054906101000a900473ffffffffffffffffffffffffffffffffffffffff1673ffffffffffffffffffffffffffffffffffffffff16815260200190600101908083116135c8575b505050505081526020016001820180548060200260200160405190810160405280929190818152602001828054801561366a57602002820191906000526020600020905b815481526020019060010190808311613656575b5050505050815260200160028201805480602002602001604051908101604052809291908181526020016000905b828210156137445783829060005260206000200180546136b790615585565b80601f01602080910402602001604051908101604052809291908181526020018280546136e390615585565b80156137305780601f1061370557610100808354040283529160200191613730565b820191906000526020600020905b81548152906001019060200180831161371357829003601f168201915b505050505081526020019060010190613698565b505050508152505090506000600a604051806060016040529081600082015481526020016001820154815260200160028201548152505090506000600d60405180606001604052908160008201548152602001600182015481526020016002820154815250509050600060106040518060600160405290816000820154815260200160018201548152602001600282015481525050905060008460400151519050846020015151811461382c576040517f08c379a0000000000000000000000000000000000000000000000000000000008152600401613823906168ce565b60405180910390fd5b6000810361386f576040517f08c379a00000000000000000000000000000000000000000000000000000000081526004016138669061693a565b60405180910390fd5b61387c856040015161426d565b6138bb576040517f08c379a00000000000000000000000000000000000000000000000000000000081526004016138b2906169cc565b60405180910390fd5b60005b81811015613af8576000866040015182815181106138df576138de6157f8565b5b60200260200101516040516020016138f79190616a28565b604051602081830303815290604052805190602001209050600087602001518381518110613928576139276157f8565b5b6020026020010151905060405160200161394190616a8b565b6040516020818303038152906040528051906020012082036139c35786602001518110158015613975575086604001518111155b6139b4576040517f08c379a00000000000000000000000000000000000000000000000000000000081526004016139ab90616aec565b60405180910390fd5b80600a60000181905550613ae3565b6040516020016139d290616b58565b604051602081830303815290604052805190602001208203613a545785602001518110158015613a06575085604001518111155b613a45576040517f08c379a0000000000000000000000000000000000000000000000000000000008152600401613a3c90616bb9565b60405180910390fd5b80600d60000181905550613ae2565b604051602001613a6390616c25565b604051602081830303815290604052805190602001208203613ae15784602001518110158015613a97575084604001518111155b613ad6576040517f08c379a0000000000000000000000000000000000000000000000000000000008152600401613acd90616c86565b60405180910390fd5b806010600001819055505b5b5b50508080613af090615c03565b9150506138be565b50505050505050565b600480811115613b1457613b136146eb565b5b601860003373ffffffffffffffffffffffffffffffffffffffff1673ffffffffffffffffffffffffffffffffffffffff16815260200190815260200160002060050160009054906101000a900460ff166004811115613b7657613b756146eb565b5b14613bb6576040517f08c379a0000000000000000000000000000000000000000000000000000000008152600401613bad90615694565b60405180910390fd5b6000601b6000838152602001908152602001600020600c0160405180606001604052908160008201805480602002602001604051908101604052809291908181526020018280548015613c5e57602002820191906000526020600020905b8160009054906101000a900473ffffffffffffffffffffffffffffffffffffffff1673ffffffffffffffffffffffffffffffffffffffff1681526020019060010190808311613c14575b5050505050815260200160018201805480602002602001604051908101604052809291908181526020018280548015613cb657602002820191906000526020600020905b815481526020019060010190808311613ca2575b5050505050815260200160028201805480602002602001604051908101604052809291908181526020016000905b82821015613d90578382906000526020600020018054613d0390615585565b80601f0160208091040260200160405190810160405280929190818152602001828054613d2f90615585565b8015613d7c5780601f10613d5157610100808354040283529160200191613d7c565b820191906000526020600020905b815481529060010190602001808311613d5f57829003601f168201915b505050505081526020019060010190613ce4565b5050505081525050905080602001515181600001515114613de6576040517f08c379a0000000000000000000000000000000000000000000000000000000008152600401613ddd906168ce565b60405180910390fd5b600081600001515103613e2e576040517f08c379a0000000000000000000000000000000000000000000000000000000008152600401613e259061693a565b60405180910390fd5b6000805b826000015151811015613f2f57600160009054906101000a900473ffffffffffffffffffffffffffffffffffffffff1673ffffffffffffffffffffffffffffffffffffffff1663a9059cbb84600001518381518110613e9457613e936157f8565b5b602002602001015185602001518481518110613eb357613eb26157f8565b5b60200260200101516040518363ffffffff1660e01b8152600401613ed8929190616ca6565b6020604051808303816000875af1158015613ef7573d6000803e3d6000fd5b505050506040513d601f19601f82011682018060405250810190613f1b9190615a26565b508080613f2790615c03565b915050613e32565b50505050565b600480811115613f4857613f476146eb565b5b601860003373ffffffffffffffffffffffffffffffffffffffff1673ffffffffffffffffffffffffffffffffffffffff16815260200190815260200160002060050160009054906101000a900460ff166004811115613faa57613fa96146eb565b5b14613fea576040517f08c379a0000000000000000000000000000000000000000000000000000000008152600401613fe190615694565b60405180910390fd5b6000601b6000838152602001908152602001600020600c016040518060600160405290816000820180548060200260200160405190810160405280929190818152602001828054801561409257602002820191906000526020600020905b8160009054906101000a900473ffffffffffffffffffffffffffffffffffffffff1673ffffffffffffffffffffffffffffffffffffffff1681526020019060010190808311614048575b50505050508152602001600182018054806020026020016040519081016040528092919081815260200182805480156140ea57602002820191906000526020600020905b8154815260200190600101908083116140d6575b5050505050815260200160028201805480602002602001604051908101604052809291908181526020016000905b828210156141c457838290600052602060002001805461413790615585565b80601f016020809104026020016040519081016040528092919081815260200182805461416390615585565b80156141b05780601f10614185576101008083540402835291602001916141b0565b820191906000526020600020905b81548152906001019060200180831161419357829003601f168201915b505050505081526020019060010190614118565b50505050815250509050600081600001515103614216576040517f08c379a000000000000000000000000000000000000000000000000000000000815260040161420d9061693a565b60405180910390fd5b60005b8160000151518110156142605761424d826000015182815181106142405761423f6157f8565b5b6020026020010151611e81565b808061425890615c03565b915050614219565b505050565b600033905090565b600080600090505b8251811015614356576000805b601a8054905081101561433157601a81815481106142a3576142a26157f8565b5b906000526020600020016040516020016142bd9190616d52565b604051602081830303815290604052805190602001208584815181106142e6576142e56157f8565b5b60200260200101516040516020016142fe9190616a28565b604051602081830303815290604052805190602001200361431e57600191505b808061432990615c03565b915050614282565b50806143425760009250505061435c565b50808061434e90615c03565b915050614275565b50600190505b919050565b6040518060e00160405280600073ffffffffffffffffffffffffffffffffffffffff16815260200160008152602001600081526020016000815260200160008152602001600060028111156143b9576143b86146eb565b5b8152602001606081525090565b6040518060c00160405280600073ffffffffffffffffffffffffffffffffffffffff168152602001600081526020016000815260200160008152602001600081526020016000600481111561441e5761441d6146eb565b5b81525090565b82805482825590600052602060002090810192821561449d579160200282015b8281111561449c5782518260006101000a81548173ffffffffffffffffffffffffffffffffffffffff021916908373ffffffffffffffffffffffffffffffffffffffff16021790555091602001919060010190614444565b5b5090506144aa9190614554565b5090565b8280548282559060005260206000209081019282156144ea579160200282015b828111156144e95782518255916020019190600101906144ce565b5b5090506144f79190614554565b5090565b828054828255906000526020600020908101928215614543579160200282015b828111156145425782518290816145329190616311565b509160200191906001019061451b565b5b5090506145509190614571565b5090565b5b8082111561456d576000816000905550600101614555565b5090565b5b8082111561459157600081816145889190614595565b50600101614572565b5090565b5080546145a190615585565b6000825580601f106145b357506145d2565b601f0160209004906000526020600020908101906145d19190614554565b5b50565b6000604051905090565b600080fd5b600080fd5b6000819050919050565b6145fc816145e9565b811461460757600080fd5b50565b600081359050614619816145f3565b92915050565b600060208284031215614635576146346145df565b5b60006146438482850161460a565b91505092915050565b614655816145e9565b82525050565b600081519050919050565b600082825260208201905092915050565b60005b8381101561469557808201518184015260208101905061467a565b60008484015250505050565b6000601f19601f8301169050919050565b60006146bd8261465b565b6146c78185614666565b93506146d7818560208601614677565b6146e0816146a1565b840191505092915050565b7f4e487b7100000000000000000000000000000000000000000000000000000000600052602160045260246000fd5b6004811061472b5761472a6146eb565b5b50565b600081905061473c8261471a565b919050565b600061474c8261472e565b9050919050565b61475c81614741565b82525050565b61476b816145e9565b82525050565b60048110614782576147816146eb565b5b50565b600081905061479382614771565b919050565b60006147a382614785565b9050919050565b6147b381614798565b82525050565b60e0820160008201516147cf6000850182614762565b5060208201516147e26020850182614762565b5060408201516147f56040850182614762565b50606082015161480860608501826147aa565b50608082015161481b6080850182614762565b5060a082015161482e60a0850182614762565b5060c082015161484160c0850182614762565b50505050565b600073ffffffffffffffffffffffffffffffffffffffff82169050919050565b600061487282614847565b9050919050565b61488281614867565b82525050565b600081519050919050565b600082825260208201905092915050565b6000819050602082019050919050565b6148bd81614867565b82525050565b60006148cf83836148b4565b60208301905092915050565b6000602082019050919050565b60006148f382614888565b6148fd8185614893565b9350614908836148a4565b8060005b8381101561493957815161492088826148c3565b975061492b836148db565b92505060018101905061490c565b5085935050505092915050565b600081519050919050565b600082825260208201905092915050565b6000819050602082019050919050565b600061497e8383614762565b60208301905092915050565b6000602082019050919050565b60006149a282614946565b6149ac8185614951565b93506149b783614962565b8060005b838110156149e85781516149cf8882614972565b97506149da8361498a565b9250506001810190506149bb565b5085935050505092915050565b600081519050919050565b600082825260208201905092915050565b6000819050602082019050919050565b600082825260208201905092915050565b6000614a3d8261465b565b614a478185614a21565b9350614a57818560208601614677565b614a60816146a1565b840191505092915050565b6000614a778383614a32565b905092915050565b6000602082019050919050565b6000614a97826149f5565b614aa18185614a00565b935083602082028501614ab385614a11565b8060005b85811015614aef5784840389528151614ad08582614a6b565b9450614adb83614a7f565b925060208a01995050600181019050614ab7565b50829750879550505050505092915050565b60006060830160008301518482036000860152614b1e82826148e8565b91505060208301518482036020860152614b388282614997565b91505060408301518482036040860152614b528282614a8c565b9150508091505092915050565b60006101a082019050614b75600083018a61464c565b8181036020830152614b8781896146b2565b90508181036040830152614b9b81886146b2565b9050614baa6060830187614753565b614bb760808301866147b9565b614bc5610160830185614879565b818103610180830152614bd88184614b01565b905098975050505050505050565b614bef81614867565b8114614bfa57600080fd5b50565b600081359050614c0c81614be6565b92915050565b600060208284031215614c2857614c276145df565b5b6000614c3684828501614bfd565b91505092915050565b60058110614c5057614c4f6146eb565b5b50565b6000819050614c6182614c3f565b919050565b6000614c7182614c53565b9050919050565b614c8181614c66565b82525050565b600060c082019050614c9c6000830189614879565b614ca9602083018861464c565b614cb6604083018761464c565b614cc3606083018661464c565b614cd0608083018561464c565b614cdd60a0830184614c78565b979650505050505050565b60038110614cf957614cf86146eb565b5b50565b6000819050614d0a82614ce8565b919050565b6000614d1a82614cfc565b9050919050565b614d2a81614d0f565b82525050565b600060c082019050614d456000830189614879565b614d52602083018861464c565b614d5f604083018761464c565b614d6c606083018661464c565b614d79608083018561464c565b614d8660a0830184614d21565b979650505050505050565b6000602082019050614da6600083018461464c565b92915050565b6000606082019050614dc1600083018661464c565b614dce602083018561464c565b614ddb604083018461464c565b949350505050565b60058110614df057600080fd5b50565b600081359050614e0281614de3565b92915050565b60008060408385031215614e1f57614e1e6145df565b5b6000614e2d85828601614bfd565b9250506020614e3e85828601614df3565b9150509250929050565b6000819050919050565b6000614e6d614e68614e6384614847565b614e48565b614847565b9050919050565b6000614e7f82614e52565b9050919050565b6000614e9182614e74565b9050919050565b614ea181614e86565b82525050565b6000602082019050614ebc6000830184614e98565b92915050565b6000602082019050614ed76000830184614879565b92915050565b60008115159050919050565b614ef281614edd565b8114614efd57600080fd5b50565b600081359050614f0f81614ee9565b92915050565b60008060408385031215614f2c57614f2b6145df565b5b6000614f3a8582860161460a565b9250506020614f4b85828601614f00565b9150509250929050565b600080600060608486031215614f6e57614f6d6145df565b5b6000614f7c86828701614bfd565b9350506020614f8d8682870161460a565b9250506040614f9e8682870161460a565b9150509250925092565b600080fd5b600080fd5b7f4e487b7100000000000000000000000000000000000000000000000000000000600052604160045260246000fd5b614fea826146a1565b810181811067ffffffffffffffff8211171561500957615008614fb2565b5b80604052505050565b600061501c6145d5565b90506150288282614fe1565b919050565b600067ffffffffffffffff82111561504857615047614fb2565b5b615051826146a1565b9050602081019050919050565b82818337600083830152505050565b600061508061507b8461502d565b615012565b90508281526020810184848401111561509c5761509b614fad565b5b6150a784828561505e565b509392505050565b600082601f8301126150c4576150c3614fa8565b5b81356150d484826020860161506d565b91505092915050565b600481106150ea57600080fd5b50565b6000813590506150fc816150dd565b92915050565b600067ffffffffffffffff82111561511d5761511c614fb2565b5b602082029050602081019050919050565b600080fd5b600061514661514184615102565b615012565b905080838252602082019050602084028301858111156151695761516861512e565b5b835b81811015615192578061517e8882614bfd565b84526020840193505060208101905061516b565b5050509392505050565b600082601f8301126151b1576151b0614fa8565b5b81356151c1848260208601615133565b91505092915050565b600067ffffffffffffffff8211156151e5576151e4614fb2565b5b602082029050602081019050919050565b6000615209615204846151ca565b615012565b9050808382526020820190506020840283018581111561522c5761522b61512e565b5b835b818110156152555780615241888261460a565b84526020840193505060208101905061522e565b5050509392505050565b600082601f83011261527457615273614fa8565b5b81356152848482602086016151f6565b91505092915050565b600067ffffffffffffffff8211156152a8576152a7614fb2565b5b602082029050602081019050919050565b60006152cc6152c78461528d565b615012565b905080838252602082019050602084028301858111156152ef576152ee61512e565b5b835b8181101561533657803567ffffffffffffffff81111561531457615313614fa8565b5b80860161532189826150af565b855260208501945050506020810190506152f1565b5050509392505050565b600082601f83011261535557615354614fa8565b5b81356153658482602086016152b9565b91505092915050565b60008060008060008060c0878903121561538b5761538a6145df565b5b600087013567ffffffffffffffff8111156153a9576153a86145e4565b5b6153b589828a016150af565b965050602087013567ffffffffffffffff8111156153d6576153d56145e4565b5b6153e289828a016150af565b95505060406153f389828a016150ed565b945050606087013567ffffffffffffffff811115615414576154136145e4565b5b61542089828a0161519c565b935050608087013567ffffffffffffffff811115615441576154406145e4565b5b61544d89828a0161525f565b92505060a087013567ffffffffffffffff81111561546e5761546d6145e4565b5b61547a89828a01615340565b9150509295509295509295565b7f596f75206e65656420746f2073656e6420736f6d652045746865720000000000600082015250565b60006154bd601b83614666565b91506154c882615487565b602082019050919050565b600060208201905081810360008301526154ec816154b0565b9050919050565b7f4e487b7100000000000000000000000000000000000000000000000000000000600052601160045260246000fd5b600061552d826145e9565b9150615538836145e9565b92508282019050808211156155505761554f6154f3565b5b92915050565b7f4e487b7100000000000000000000000000000000000000000000000000000000600052602260045260246000fd5b6000600282049050600182168061559d57607f821691505b6020821081036155b0576155af615556565b5b50919050565b7f4f6e6c79206d656d6265722063616e2064656369646520746f206c656176652060008201527f7468652044414f00000000000000000000000000000000000000000000000000602082015250565b6000615612602783614666565b915061561d826155b6565b604082019050919050565b6000602082019050818103600083015261564181615605565b9050919050565b7f596f7520617265206e6f742061206d656d626572000000000000000000000000600082015250565b600061567e601483614666565b915061568982615648565b602082019050919050565b600060208201905081810360008301526156ad81615671565b9050919050565b7f596f75206e65656420746f20776169742032382064617973206265666f72652060008201527f6c656176696e67207468652044414f0000000000000000000000000000000000602082015250565b6000615710602f83614666565b915061571b826156b4565b604082019050919050565b6000602082019050818103600083015261573f81615703565b9050919050565b600081905092915050565b50565b6000615761600083615746565b915061576c82615751565b600082019050919050565b600061578282615754565b9150819050919050565b7f5472616e73666572206661696c65642e00000000000000000000000000000000600082015250565b60006157c2601083614666565b91506157cd8261578c565b602082019050919050565b600060208201905081810360008301526157f1816157b5565b9050919050565b7f4e487b7100000000000000000000000000000000000000000000000000000000600052603260045260246000fd5b7f54686520706f6c6c206973206e6f74207375626d697474656400000000000000600082015250565b600061585d601983614666565b915061586882615827565b602082019050919050565b6000602082019050818103600083015261588c81615850565b9050919050565b7f54686520706f6c6c207375626d697373696f6e206973206e6f742066696e697360008201527f6865640000000000000000000000000000000000000000000000000000000000602082015250565b60006158ef602383614666565b91506158fa82615893565b604082019050919050565b6000602082019050818103600083015261591e816158e2565b9050919050565b7f506f6c6c20636c6f736564000000000000000000000000000000000000000000600082015250565b600061595b600b83614666565b915061596682615925565b602082019050919050565b60006060820190506159866000830185614879565b6159936020830184614d21565b81810360408301526159a48161594e565b90509392505050565b6000819050919050565b60006159d26159cd6159c8846159ad565b614e48565b6145e9565b9050919050565b6159e2816159b7565b82525050565b60006040820190506159fd6000830185614879565b615a0a60208301846159d9565b9392505050565b600081519050615a2081614ee9565b92915050565b600060208284031215615a3c57615a3b6145df565b5b6000615a4a84828501615a11565b91505092915050565b7f506f6c6c206973206e6f74206f70656e00000000000000000000000000000000600082015250565b6000615a89601083614666565b9150615a9482615a53565b602082019050919050565b60006020820190508181036000830152615ab881615a7c565b9050919050565b7f506f6c6c20697320616c726561647920636c6f73656400000000000000000000600082015250565b6000615af5601683614666565b9150615b0082615abf565b602082019050919050565b60006020820190508181036000830152615b2481615ae8565b9050919050565b7f566f74696e6720706572696f64206973206e6f74206f76657200000000000000600082015250565b6000615b61601983614666565b9150615b6c82615b2b565b602082019050919050565b60006020820190508181036000830152615b9081615b54565b9050919050565b7f54686520706f6c6c207375626d697373696f6e20697320636c6f736564000000600082015250565b6000615bcd601d83614666565b9150615bd882615b97565b602082019050919050565b60006020820190508181036000830152615bfc81615bc0565b9050919050565b6000615c0e826145e9565b91507fffffffffffffffffffffffffffffffffffffffffffffffffffffffffffffffff8203615c4057615c3f6154f3565b5b600182019050919050565b7f54686520506f6c6c2073686f756c64207375626d697420697473656c66000000600082015250565b6000615c81601d83614666565b9150615c8c82615c4b565b602082019050919050565b60006020820190508181036000830152615cb081615c74565b9050919050565b7f506f6c6c207375626d6974746564000000000000000000000000000000000000600082015250565b6000615ced600e83614666565b9150615cf882615cb7565b602082019050919050565b6000606082019050615d186000830185614879565b615d256020830184614d21565b8181036040830152615d3681615ce0565b90509392505050565b7f41646472657373206973206e6f742061206d656d626572000000000000000000600082015250565b6000615d75601783614666565b9150615d8082615d3f565b602082019050919050565b60006020820190508181036000830152615da481615d68565b9050919050565b7f596f7520646f6e2774206861766520616e792072657761726400000000000000600082015250565b6000615de1601983614666565b9150615dec82615dab565b602082019050919050565b60006020820190508181036000830152615e1081615dd4565b9050919050565b7f52657761726420636c61696d6564000000000000000000000000000000000000600082015250565b6000615e4d600e83614666565b9150615e5882615e17565b602082019050919050565b6000606082019050615e786000830185614879565b615e85602083018461464c565b8181036040830152615e9681615e40565b90509392505050565b600081519050615eae816145f3565b92915050565b600060208284031215615eca57615ec96145df565b5b6000615ed884828501615e9f565b91505092915050565b7f596f75206e65656420746f2068617665206174206c656173742031204450547460008201527f6f6b656e20746f20766f74650000000000000000000000000000000000000000602082015250565b6000615f3d602c83614666565b9150615f4882615ee1565b604082019050919050565b60006020820190508181036000830152615f6c81615f30565b9050919050565b7f596f7520616c726561647920766f746564000000000000000000000000000000600082015250565b6000615fa9601183614666565b9150615fb482615f73565b602082019050919050565b60006020820190508181036000830152615fd881615f9c565b9050919050565b7f596f75206e65656420746f2073656e64206174206c6561737420302e3032206560008201527f7468657200000000000000000000000000000000000000000000000000000000602082015250565b600061603b602483614666565b915061604682615fdf565b604082019050919050565b6000602082019050818103600083015261606a8161602e565b9050919050565b7f596f752061726520616c72656164792061206d656d6265720000000000000000600082015250565b60006160a7601883614666565b91506160b282616071565b602082019050919050565b600060208201905081810360008301526160d68161609a565b9050919050565b7f596f752063616e206f6e6c7920637265617465206f6e652070726f706f73616c60008201527f2065766572792034206461797300000000000000000000000000000000000000602082015250565b6000616139602d83614666565b9150616144826160dd565b604082019050919050565b600060208201905081810360008301526161688161612c565b9050919050565b60008190508160005260206000209050919050565b60006020601f8301049050919050565b600082821b905092915050565b6000600883026161d17fffffffffffffffffffffffffffffffffffffffffffffffffffffffffffffffff82616194565b6161db8683616194565b95508019841693508086168417925050509392505050565b600061620e616209616204846145e9565b614e48565b6145e9565b9050919050565b6000819050919050565b616228836161f3565b61623c61623482616215565b8484546161a1565b825550505050565b600090565b616251616244565b61625c81848461621f565b505050565b5b8181101561628057616275600082616249565b600181019050616262565b5050565b601f8211156162c5576162968161616f565b61629f84616184565b810160208510156162ae578190505b6162c26162ba85616184565b830182616261565b50505b505050565b600082821c905092915050565b60006162e8600019846008026162ca565b1980831691505092915050565b600061630183836162d7565b9150826002028217905092915050565b61631a8261465b565b67ffffffffffffffff81111561633357616332614fb2565b5b61633d8254615585565b616348828285616284565b600060209050601f83116001811461637b5760008415616369578287015190505b61637385826162f5565b8655506163db565b601f1984166163898661616f565b60005b828110156163b15784890151825560018201915060208501945060208101905061638c565b868310156163ce57848901516163ca601f8916826162d7565b8355505b6001600288020188555050505b505050505050565b7f54686520706f6c6c206973206e6f7420636c6f73656400000000000000000000600082015250565b6000616419601683614666565b9150616424826163e3565b602082019050919050565b600060208201905081810360008301526164488161640c565b9050919050565b61645881614edd565b82525050565b60006040820190506164736000830185614879565b616480602083018461644f565b9392505050565b7f506f6c6c2076616c696461746564000000000000000000000000000000000000600082015250565b60006164bd600e83614666565b91506164c882616487565b602082019050919050565b60006060820190506164e86000830185614879565b6164f56020830184614d21565b8181036040830152616506816164b0565b90509392505050565b7f4f776e61626c653a206e6577206f776e657220697320746865207a65726f206160008201527f6464726573730000000000000000000000000000000000000000000000000000602082015250565b600061656b602683614666565b91506165768261650f565b604082019050919050565b6000602082019050818103600083015261659a8161655e565b9050919050565b7f506f6c6c206973206e6f7420636c6f7365640000000000000000000000000000600082015250565b60006165d7601283614666565b91506165e2826165a1565b602082019050919050565b60006020820190508181036000830152616606816165ca565b9050919050565b7f506f6c6c20697320616c72656164792065786563757465640000000000000000600082015250565b6000616643601883614666565b915061664e8261660d565b602082019050919050565b6000602082019050818103600083015261667281616636565b9050919050565b7f457865637574696f6e2064656c6179206973206e6f74206f7665720000000000600082015250565b60006166af601b83614666565b91506166ba82616679565b602082019050919050565b600060208201905081810360008301526166de816166a2565b9050919050565b7f50726f706f73616c206973206e6f7420616e20657865637574696f6e00000000600082015250565b600061671b601c83614666565b9150616726826166e5565b602082019050919050565b6000602082019050818103600083015261674a8161670e565b9050919050565b7f4f776e61626c653a2063616c6c6572206973206e6f7420746865206f776e6572600082015250565b6000616787602083614666565b915061679282616751565b602082019050919050565b600060208201905081810360008301526167b68161677a565b9050919050565b7f4e487b7100000000000000000000000000000000000000000000000000000000600052601260045260246000fd5b60006167f7826145e9565b9150616802836145e9565b925082616812576168116167bd565b5b828204905092915050565b6000616828826145e9565b9150616833836145e9565b925082616843576168426167bd565b5b828206905092915050565b6000616859826145e9565b9150616864836145e9565b925082820390508181111561687c5761687b6154f3565b5b92915050565b7f5061796c6f6164206c656e677468206d69736d61746368000000000000000000600082015250565b60006168b8601783614666565b91506168c382616882565b602082019050919050565b600060208201905081810360008301526168e7816168ab565b9050919050565b7f5061796c6f616420697320656d70747900000000000000000000000000000000600082015250565b6000616924601083614666565b915061692f826168ee565b602082019050919050565b6000602082019050818103600083015261695381616917565b9050919050565b7f5061796c6f616420636f6e7461696e73206e6f6e20757064617461626c65207660008201527f61726961626c6573000000000000000000000000000000000000000000000000602082015250565b60006169b6602883614666565b91506169c18261695a565b604082019050919050565b600060208201905081810360008301526169e5816169a9565b9050919050565b600081905092915050565b6000616a028261465b565b616a0c81856169ec565b9350616a1c818560208601614677565b80840191505092915050565b6000616a3482846169f7565b915081905092915050565b7f566f74696e674475726174696f6e000000000000000000000000000000000000600082015250565b6000616a75600e836169ec565b9150616a8082616a3f565b600e82019050919050565b6000616a9682616a68565b9150819050919050565b7f566f74696e67206475726174696f6e206f7574206f662072616e676500000000600082015250565b6000616ad6601c83614666565b9150616ae182616aa0565b602082019050919050565b60006020820190508181036000830152616b0581616ac9565b9050919050565b7f457865637574696f6e44656c6179000000000000000000000000000000000000600082015250565b6000616b42600e836169ec565b9150616b4d82616b0c565b600e82019050919050565b6000616b6382616b35565b9150819050919050565b7f457865637574696f6e2064656c6179206f7574206f662072616e676500000000600082015250565b6000616ba3601c83614666565b9150616bae82616b6d565b602082019050919050565b60006020820190508181036000830152616bd281616b96565b9050919050565b7f4372656174696f6e44656c617900000000000000000000000000000000000000600082015250565b6000616c0f600d836169ec565b9150616c1a82616bd9565b600d82019050919050565b6000616c3082616c02565b9150819050919050565b7f4372656174696f6e2064656c6179206f7574206f662072616e67650000000000600082015250565b6000616c70601b83614666565b9150616c7b82616c3a565b602082019050919050565b60006020820190508181036000830152616c9f81616c63565b9050919050565b6000604082019050616cbb6000830185614879565b616cc8602083018461464c565b9392505050565b60008154616cdc81615585565b616ce681866169ec565b94506001821660008114616d015760018114616d1657616d49565b60ff1983168652811515820286019350616d49565b616d1f8561616f565b60005b83811015616d4157815481890152600182019150602081019050616d22565b838801955050505b50505092915050565b6000616d5e8284616ccf565b91508190509291505056fea26469706673582212204ded9275a6892dbdf8bcc4262387f725eab20f62e55d440ed741e1523b1e4aaa64736f6c6343000813003360806040523480156200001157600080fd5b506040516200197c3803806200197c833981810160405281019062000037919062000299565b6040518060400160405280600581526020017f44504f4c4c0000000000000000000000000000000000000000000000000000008152506040518060400160405280600381526020017f44505400000000000000000000000000000000000000000000000000000000008152508160039081620000b491906200053b565b508060049081620000c691906200053b565b505050620000db3382620000e260201b60201c565b506200073d565b600073ffffffffffffffffffffffffffffffffffffffff168273ffffffffffffffffffffffffffffffffffffffff160362000154576040517f08c379a00000000000000000000000000000000000000000000000000000000081526004016200014b9062000683565b60405180910390fd5b62000168600083836200024f60201b60201c565b80600260008282546200017c9190620006d4565b92505081905550806000808473ffffffffffffffffffffffffffffffffffffffff1673ffffffffffffffffffffffffffffffffffffffff168152602001908152602001600020600082825401925050819055508173ffffffffffffffffffffffffffffffffffffffff16600073ffffffffffffffffffffffffffffffffffffffff167fddf252ad1be2c89b69c2b068fc378daa952ba7f163c4a11628f55a4df523b3ef836040516200022f919062000720565b60405180910390a36200024b600083836200025460201b60201c565b5050565b505050565b505050565b600080fd5b6000819050919050565b62000273816200025e565b81146200027f57600080fd5b50565b600081519050620002938162000268565b92915050565b600060208284031215620002b257620002b162000259565b5b6000620002c28482850162000282565b91505092915050565b600081519050919050565b7f4e487b7100000000000000000000000000000000000000000000000000000000600052604160045260246000fd5b7f4e487b7100000000000000000000000000000000000000000000000000000000600052602260045260246000fd5b600060028204905060018216806200034d57607f821691505b60208210810362000363576200036262000305565b5b50919050565b60008190508160005260206000209050919050565b60006020601f8301049050919050565b600082821b905092915050565b600060088302620003cd7fffffffffffffffffffffffffffffffffffffffffffffffffffffffffffffffff826200038e565b620003d986836200038e565b95508019841693508086168417925050509392505050565b6000819050919050565b60006200041c6200041662000410846200025e565b620003f1565b6200025e565b9050919050565b6000819050919050565b6200043883620003fb565b62000450620004478262000423565b8484546200039b565b825550505050565b600090565b6200046762000458565b620004748184846200042d565b505050565b5b818110156200049c57620004906000826200045d565b6001810190506200047a565b5050565b601f821115620004eb57620004b58162000369565b620004c0846200037e565b81016020851015620004d0578190505b620004e8620004df856200037e565b83018262000479565b50505b505050565b600082821c905092915050565b60006200051060001984600802620004f0565b1980831691505092915050565b60006200052b8383620004fd565b9150826002028217905092915050565b6200054682620002cb565b67ffffffffffffffff811115620005625762000561620002d6565b5b6200056e825462000334565b6200057b828285620004a0565b600060209050601f831160018114620005b357600084156200059e578287015190505b620005aa85826200051d565b8655506200061a565b601f198416620005c38662000369565b60005b82811015620005ed57848901518255600182019150602085019450602081019050620005c6565b868310156200060d578489015162000609601f891682620004fd565b8355505b6001600288020188555050505b505050505050565b600082825260208201905092915050565b7f45524332303a206d696e7420746f20746865207a65726f206164647265737300600082015250565b60006200066b601f8362000622565b9150620006788262000633565b602082019050919050565b600060208201905081810360008301526200069e816200065c565b9050919050565b7f4e487b7100000000000000000000000000000000000000000000000000000000600052601160045260246000fd5b6000620006e1826200025e565b9150620006ee836200025e565b9250828201905080821115620007095762000708620006a5565b5b92915050565b6200071a816200025e565b82525050565b60006020820190506200073760008301846200070f565b92915050565b61122f806200074d6000396000f3fe608060405234801561001057600080fd5b50600436106100a95760003560e01c80633950935111610071578063395093511461016857806370a082311461019857806395d89b41146101c8578063a457c2d7146101e6578063a9059cbb14610216578063dd62ed3e14610246576100a9565b806306fdde03146100ae578063095ea7b3146100cc57806318160ddd146100fc57806323b872dd1461011a578063313ce5671461014a575b600080fd5b6100b6610276565b6040516100c39190610b0c565b60405180910390f35b6100e660048036038101906100e19190610bc7565b610308565b6040516100f39190610c22565b60405180910390f35b61010461032b565b6040516101119190610c4c565b60405180910390f35b610134600480360381019061012f9190610c67565b610335565b6040516101419190610c22565b60405180910390f35b610152610364565b60405161015f9190610cd6565b60405180910390f35b610182600480360381019061017d9190610bc7565b61036d565b60405161018f9190610c22565b60405180910390f35b6101b260048036038101906101ad9190610cf1565b6103a4565b6040516101bf9190610c4c565b60405180910390f35b6101d06103ec565b6040516101dd9190610b0c565b60405180910390f35b61020060048036038101906101fb9190610bc7565b61047e565b60405161020d9190610c22565b60405180910390f35b610230600480360381019061022b9190610bc7565b6104f5565b60405161023d9190610c22565b60405180910390f35b610260600480360381019061025b9190610d1e565b610518565b60405161026d9190610c4c565b60405180910390f35b60606003805461028590610d8d565b80601f01602080910402602001604051908101604052809291908181526020018280546102b190610d8d565b80156102fe5780601f106102d3576101008083540402835291602001916102fe565b820191906000526020600020905b8154815290600101906020018083116102e157829003601f168201915b5050505050905090565b60008061031361059f565b90506103208185856105a7565b600191505092915050565b6000600254905090565b60008061034061059f565b905061034d858285610770565b6103588585856107fc565b60019150509392505050565b60006012905090565b60008061037861059f565b905061039981858561038a8589610518565b6103949190610ded565b6105a7565b600191505092915050565b60008060008373ffffffffffffffffffffffffffffffffffffffff1673ffffffffffffffffffffffffffffffffffffffff168152602001908152602001600020549050919050565b6060600480546103fb90610d8d565b80601f016020809104026020016040519081016040528092919081815260200182805461042790610d8d565b80156104745780601f1061044957610100808354040283529160200191610474565b820191906000526020600020905b81548152906001019060200180831161045757829003601f168201915b5050505050905090565b60008061048961059f565b905060006104978286610518565b9050838110156104dc576040517f08c379a00000000000000000000000000000000000000000000000000000000081526004016104d390610e93565b60405180910390fd5b6104e982868684036105a7565b60019250505092915050565b60008061050061059f565b905061050d8185856107fc565b600191505092915050565b6000600160008473ffffffffffffffffffffffffffffffffffffffff1673ffffffffffffffffffffffffffffffffffffffff16815260200190815260200160002060008373ffffffffffffffffffffffffffffffffffffffff1673ffffffffffffffffffffffffffffffffffffffff16815260200190815260200160002054905092915050565b600033905090565b600073ffffffffffffffffffffffffffffffffffffffff168373ffffffffffffffffffffffffffffffffffffffff1603610616576040517f08c379a000000000000000000000000000000000000000000000000000000000815260040161060d90610f25565b60405180910390fd5b600073ffffffffffffffffffffffffffffffffffffffff168273ffffffffffffffffffffffffffffffffffffffff1603610685576040517f08c379a000000000000000000000000000000000000000000000000000000000815260040161067c90610fb7565b60405180910390fd5b80600160008573ffffffffffffffffffffffffffffffffffffffff1673ffffffffffffffffffffffffffffffffffffffff16815260200190815260200160002060008473ffffffffffffffffffffffffffffffffffffffff1673ffffffffffffffffffffffffffffffffffffffff168152602001908152602001600020819055508173ffffffffffffffffffffffffffffffffffffffff168373ffffffffffffffffffffffffffffffffffffffff167f8c5be1e5ebec7d5bd14f71427d1e84f3dd0314c0f7b2291e5b200ac8c7c3b925836040516107639190610c4c565b60405180910390a3505050565b600061077c8484610518565b90507fffffffffffffffffffffffffffffffffffffffffffffffffffffffffffffffff81146107f657818110156107e8576040517f08c379a00000000000000000000000000000000000000000000000000000000081526004016107df90611023565b60405180910390fd5b6107f584848484036105a7565b5b50505050565b600073ffffffffffffffffffffffffffffffffffffffff168373ffffffffffffffffffffffffffffffffffffffff160361086b576040517f08c379a0000000000000000000000000000000000000000000000000000000008152600401610862906110b5565b60405180910390fd5b600073ffffffffffffffffffffffffffffffffffffffff168273ffffffffffffffffffffffffffffffffffffffff16036108da576040517f08c379a00000000000000000000000000000000000000000000000000000000081526004016108d190611147565b60405180910390fd5b6108e5838383610a72565b60008060008573ffffffffffffffffffffffffffffffffffffffff1673ffffffffffffffffffffffffffffffffffffffff1681526020019081526020016000205490508181101561096b576040517f08c379a0000000000000000000000000000000000000000000000000000000008152600401610962906111d9565b60405180910390fd5b8181036000808673ffffffffffffffffffffffffffffffffffffffff1673ffffffffffffffffffffffffffffffffffffffff16815260200190815260200160002081905550816000808573ffffffffffffffffffffffffffffffffffffffff1673ffffffffffffffffffffffffffffffffffffffff168152602001908152602001600020600082825401925050819055508273ffffffffffffffffffffffffffffffffffffffff168473ffffffffffffffffffffffffffffffffffffffff167fddf252ad1be2c89b69c2b068fc378daa952ba7f163c4a11628f55a4df523b3ef84604051610a599190610c4c565b60405180910390a3610a6c848484610a77565b50505050565b505050565b505050565b600081519050919050565b600082825260208201905092915050565b60005b83811015610ab6578082015181840152602081019050610a9b565b60008484015250505050565b6000601f19601f8301169050919050565b6000610ade82610a7c565b610ae88185610a87565b9350610af8818560208601610a98565b610b0181610ac2565b840191505092915050565b60006020820190508181036000830152610b268184610ad3565b905092915050565b600080fd5b600073ffffffffffffffffffffffffffffffffffffffff82169050919050565b6000610b5e82610b33565b9050919050565b610b6e81610b53565b8114610b7957600080fd5b50565b600081359050610b8b81610b65565b92915050565b6000819050919050565b610ba481610b91565b8114610baf57600080fd5b50565b600081359050610bc181610b9b565b92915050565b60008060408385031215610bde57610bdd610b2e565b5b6000610bec85828601610b7c565b9250506020610bfd85828601610bb2565b9150509250929050565b60008115159050919050565b610c1c81610c07565b82525050565b6000602082019050610c376000830184610c13565b92915050565b610c4681610b91565b82525050565b6000602082019050610c616000830184610c3d565b92915050565b600080600060608486031215610c8057610c7f610b2e565b5b6000610c8e86828701610b7c565b9350506020610c9f86828701610b7c565b9250506040610cb086828701610bb2565b9150509250925092565b600060ff82169050919050565b610cd081610cba565b82525050565b6000602082019050610ceb6000830184610cc7565b92915050565b600060208284031215610d0757610d06610b2e565b5b6000610d1584828501610b7c565b91505092915050565b60008060408385031215610d3557610d34610b2e565b5b6000610d4385828601610b7c565b9250506020610d5485828601610b7c565b9150509250929050565b7f4e487b7100000000000000000000000000000000000000000000000000000000600052602260045260246000fd5b60006002820490506001821680610da557607f821691505b602082108103610db857610db7610d5e565b5b50919050565b7f4e487b7100000000000000000000000000000000000000000000000000000000600052601160045260246000fd5b6000610df882610b91565b9150610e0383610b91565b9250828201905080821115610e1b57610e1a610dbe565b5b92915050565b7f45524332303a2064656372656173656420616c6c6f77616e63652062656c6f7760008201527f207a65726f000000000000000000000000000000000000000000000000000000602082015250565b6000610e7d602583610a87565b9150610e8882610e21565b604082019050919050565b60006020820190508181036000830152610eac81610e70565b9050919050565b7f45524332303a20617070726f76652066726f6d20746865207a65726f2061646460008201527f7265737300000000000000000000000000000000000000000000000000000000602082015250565b6000610f0f602483610a87565b9150610f1a82610eb3565b604082019050919050565b60006020820190508181036000830152610f3e81610f02565b9050919050565b7f45524332303a20617070726f766520746f20746865207a65726f20616464726560008201527f7373000000000000000000000000000000000000000000000000000000000000602082015250565b6000610fa1602283610a87565b9150610fac82610f45565b604082019050919050565b60006020820190508181036000830152610fd081610f94565b9050919050565b7f45524332303a20696e73756666696369656e7420616c6c6f77616e6365000000600082015250565b600061100d601d83610a87565b915061101882610fd7565b602082019050919050565b6000602082019050818103600083015261103c81611000565b9050919050565b7f45524332303a207472616e736665722066726f6d20746865207a65726f20616460008201527f6472657373000000000000000000000000000000000000000000000000000000602082015250565b600061109f602583610a87565b91506110aa82611043565b604082019050919050565b600060208201905081810360008301526110ce81611092565b9050919050565b7f45524332303a207472616e7366657220746f20746865207a65726f206164647260008201527f6573730000000000000000000000000000000000000000000000000000000000602082015250565b6000611131602383610a87565b915061113c826110d5565b604082019050919050565b6000602082019050818103600083015261116081611124565b9050919050565b7f45524332303a207472616e7366657220616d6f756e742065786365656473206260008201527f616c616e63650000000000000000000000000000000000000000000000000000602082015250565b60006111c3602683610a87565b91506111ce82611167565b604082019050919050565b600060208201905081810360008301526111f2816111b6565b905091905056fea26469706673582212209bed254a26eac31b0f13b9891fc64c73ca074d7a0345001763132c864444008e64736f6c63430008130033",
  "immutableReferences": {},
  "source": "// SPDX-License-Identifier: MIT\n\n/*\n * This is the main contract of the DAO, later there will be a master for proposals implementing\n * new logic with the use of plugins (facets like) to allow upgradability and flexibility\n * \n * At the moment, it contains :\n * -the logic for the DAO inheriting from other contracts\n * -and here the DAO treasury management (replaced later by a vault contract)\n * -and the logic for Polls submission and validation\n * (see DPollMember.sol, DPollVoting.sol, DPollStorage.sol, DPollToken.sol, IPollValidator.sol, IDAOPollSubmission.sol for each part of the DAO)\n * \n * This step of the treasury is simple : \n * -the DAO (in member contract) receive, lock and unlock ETH \n * -the DAO accepte ETH donation and an emergencyWithdraw function is implemented to allow the DAO to withdraw all the ETH (this is a POC only) \n *\n * About the Polls submission and validation :\n * -a poll owner can submit a poll to the DAO by sending its address and some ETH to the DAO (50% will be given to validators, 50% to the treasury if the poll is validated)\n * -the DAO members can vote for the poll\n * -a certain amount of vote is required to close the poll (3 as example for now) (later : in a certain delay)\n * -then the DAO members can validate or invalidate the poll calling the setValidation function of the PollValidator contract\n *\n * ATTENTION : in the purpose of this exam, the functionalities are limited to the minimum (to respect delay),\n * -all time constraints (delay, duration) concerning the polls validation are removed (to facilitate tests and live demo)\n * \n * \n * @todo :\n * -for next versions :\n * +a process to disable the emergencyWithdraw function will be implemented, as well as pausable modifier and process to renonce to ownership and disable the team acces...\n * +a multisig wallet will be implemented to allow the team to manage the DAO treasury the time to time test the dapp and the DAO, this multisig will be disabled later\n * +a better management and naming of role and access \n * +more settings available to be updated or added by the DAO as well as plugins (google like contracts for example...)\n * +more complex incentives system to reward members and validators and a stacking mechanism with the use of the treasury\n * +a separation of the funds locked to pay services, communications, dev... and those used to inject in defi protocols to generate interests (... tokenomics not yet finished)\n *\n */\n\n\npragma solidity 0.8.19;\n\nimport \"@openzeppelin/contracts/access/Ownable.sol\";\nimport \"./DPollStorage.sol\";\nimport \"./DPollMember.sol\";\nimport \"./DPollVoting.sol\";\nimport \"./DPollToken.sol\";\nimport \"./IPollValidator.sol\";\n\ncontract DPOllDAO is DPollVoting {\n    //eth balance of the DAO\n    event PollStatusChange(address pollAddress, SubmissionStatus newStatus, string message);\n    event DAOBalanceTansfer(address to, uint amount, string action);\n\n    constructor() {\n        DAObalance = 0;\n        DPTtoken = new DPollToken(1_000_000);\n        grantRole(msg.sender, MemberRole.OWNER);\n    }\n\n    receive() external payable {\n        //donation to the DAO\n        deposit();\n    }\n\n    fallback() external payable {\n        //donation to the DAO\n        deposit();\n    }\n\n    function deposit() public payable {\n        require(msg.value > 0, \"You need to send some Ether\");\n        DAObalance += msg.value;\n    }\n\n    function emergencyWithdraw() public onlyOwner {\n        (bool success, ) = payable(msg.sender).call{value: DAObalance}(\"\");\n        require(success, \"Transfer failed.\");\n        DAObalance = 0;\n    }\n\n    //:::::::::::::::::::::::::::: POLL SUBMISSION ::::::::::::::::::::::::\n\n    //DAo receive the money and store the amount to split between validators and DAO\n    //whan the validation is set the validators reward balance is updated\n    //if the poll is unvalidated, the DAO amount is given back to the poll owner\n\n    function submitPoll(address _pollAddress, uint _toValidators, uint _toDAO) external payable {\n        require(msg.sender == _pollAddress, \"The Poll should submit itself\");\n        require(msg.value >= 0.01 ether, \"You need to send some Ether\"); //min poll is 0.05 and 10% to validators 10% to DAO\n        PollSubmission memory newPollSubmission;\n        newPollSubmission.pollAddress = _pollAddress;\n        // newPollSubmission.submissionDate = block.timestamp;\n        newPollSubmission.status = SubmissionStatus.SUBMITTED;\n        newPollSubmission.amountToDAO = _toDAO;\n        newPollSubmission.amountToValidators = _toValidators;\n        DAObalance += msg.value;\n        emit PollStatusChange(_pollAddress, SubmissionStatus.SUBMITTED, \"Poll submitted\");\n    }\n\n    function voteForPoll(uint _pollSubmissionId, bool _vote) public {\n        require(members[msg.sender].role == MemberRole.MEMBER, \"You are not a member\");\n        PollSubmission storage pollSubmission = pollSubmissions[_pollSubmissionId];\n        require(pollSubmission.status == SubmissionStatus.SUBMITTED, \"The poll is not submitted\");\n        // require(pollSubmission.submissionDate + pollSubmissionDuration < block.timestamp, \"The poll submission is closed\");\n        require(pollSubmission.validators.length < requiredValidators, \"The poll submission is closed\");\n        \n        pollSubmission.validators.push(msg.sender);\n\n        if (_vote) {\n            pollSubmission.voteCount++;\n        }\n\n        rewardAction();\n    }\n\n    //due to restriction and later time constraints, no modifier to allow automatisation of the workflow\n    function closeSubmission(uint _pollSubmissionId) public {\n        require(members[msg.sender].role == MemberRole.MEMBER, \"You are not a member\");\n        PollSubmission storage pollSubmission = pollSubmissions[_pollSubmissionId];\n        require(pollSubmission.status == SubmissionStatus.SUBMITTED, \"The poll is not submitted\");\n        // require(pollSubmission.submissionDate + pollSubmissionDuration <= block.timestamp, \"The poll submission is closed\");\n        require(pollSubmission.validators.length >= requiredValidators, \"The poll submission is not finished\");\n        \n        pollSubmission.status = SubmissionStatus.CLOSED;\n        rewardAction();\n        emit PollStatusChange(pollSubmission.pollAddress, SubmissionStatus.CLOSED, \"Poll closed\");\n    }\n\n    function setValidation(uint _pollSubmissionId) public {\n        require(members[msg.sender].role == MemberRole.MEMBER, \"You are not a member\");\n        PollSubmission storage pollSubmission = pollSubmissions[_pollSubmissionId];\n        require(pollSubmission.status == SubmissionStatus.CLOSED, \"The poll is not closed\");\n        \n        bool isValid;\n        uint amount;\n        rewardValidators(pollSubmission.amountToValidators, pollSubmission.validators);\n\n        if(pollSubmission.voteCount >= requiredValidations) {\n            isValid = true;\n        } else {\n            isValid = false;\n            amount = pollSubmission.amountToDAO;\n        }\n\n        IPollValidator(pollSubmission.pollAddress).setPollValidation{value: amount}(pollSubmission.pollAddress, isValid);\n\n        rewardAction();\n\n        emit PollStatusChange(pollSubmission.pollAddress, SubmissionStatus.VALIDATED, \"Poll validated\");\n    }\n\n    //^pay validator no matter the result, the result of the division is gievn to the DAO\n    function rewardValidators(uint _amount, address[] memory _validators) internal {\n        uint amount = _amount / _validators.length;\n        uint rest = _amount % _validators.length;\n        for (uint i = 0; i < _validators.length; i++) {\n            members[_validators[i]].rewardsBlance += amount;\n            DAObalance -= amount;\n        }\n        DAObalance += rest;\n    }\n\n    function withdrawReward() public {\n        require(members[msg.sender].rewardsBlance > 0, \"You don't have any reward\");\n        uint amount = members[msg.sender].rewardsBlance;\n        members[msg.sender].rewardsBlance = 0;\n        (bool success, ) = payable(msg.sender).call{value: amount}(\"\");\n        require(success, \"Transfer failed.\");\n\n        emit DAOBalanceTansfer(msg.sender, amount, \"Reward claimed\");\n    }\n\n    \n\n}",
  "sourcePath": "/home/ibournubuntu/ALYRA/PROJET_FINAL/DPoll/truffle/contracts/DPollDAO.sol",
  "compiler": {
    "name": "solc",
    "version": "0.8.19+commit.7dd6d404.Emscripten.clang"
  },
  "schemaVersion": "3.4.14",
  "updatedAt": "2023-07-20T22:18:38.029Z",
  "devdoc": {
    "kind": "dev",
    "methods": {
      "owner()": {
        "details": "Returns the address of the current owner."
      },
      "renounceOwnership()": {
        "details": "Leaves the contract without owner. It will not be possible to call `onlyOwner` functions. Can only be called by the current owner. NOTE: Renouncing ownership will leave the contract without an owner, thereby disabling any functionality that is only available to the owner."
      },
      "transferOwnership(address)": {
        "details": "Transfers ownership of the contract to a new account (`newOwner`). Can only be called by the current owner."
      }
    },
    "version": 1
  },
  "userdoc": {
    "kind": "user",
    "methods": {},
    "version": 1
  }
}