{
  "contractName": "DPollPluginValidator",
  "abi": [
    {
      "inputs": [
        {
          "internalType": "address",
          "name": "_DAOaddress",
          "type": "address"
        }
      ],
      "stateMutability": "nonpayable",
      "type": "constructor"
    },
    {
      "anonymous": false,
      "inputs": [
        {
          "indexed": false,
          "internalType": "address",
          "name": "to",
          "type": "address"
        },
        {
          "indexed": false,
          "internalType": "uint256",
          "name": "amount",
          "type": "uint256"
        },
        {
          "indexed": false,
          "internalType": "string",
          "name": "action",
          "type": "string"
        }
      ],
      "name": "DAOBalanceTansfer",
      "type": "event"
    },
    {
      "anonymous": false,
      "inputs": [
        {
          "indexed": true,
          "internalType": "address",
          "name": "previousOwner",
          "type": "address"
        },
        {
          "indexed": true,
          "internalType": "address",
          "name": "newOwner",
          "type": "address"
        }
      ],
      "name": "OwnershipTransferred",
      "type": "event"
    },
    {
      "anonymous": false,
      "inputs": [
        {
          "indexed": false,
          "internalType": "address",
          "name": "pollAddress",
          "type": "address"
        },
        {
          "indexed": false,
          "internalType": "enum DPollPluginValidator.SubmissionStatus",
          "name": "newStatus",
          "type": "uint8"
        },
        {
          "indexed": false,
          "internalType": "string",
          "name": "message",
          "type": "string"
        }
      ],
      "name": "PollStatusChange",
      "type": "event"
    },
    {
      "inputs": [],
      "name": "DAOAddress",
      "outputs": [
        {
          "internalType": "address",
          "name": "",
          "type": "address"
        }
      ],
      "stateMutability": "view",
      "type": "function",
      "constant": true
    },
    {
      "inputs": [],
      "name": "dpollDAO",
      "outputs": [
        {
          "internalType": "contract DPollDAO",
          "name": "",
          "type": "address"
        }
      ],
      "stateMutability": "view",
      "type": "function",
      "constant": true
    },
    {
      "inputs": [],
      "name": "owner",
      "outputs": [
        {
          "internalType": "address",
          "name": "",
          "type": "address"
        }
      ],
      "stateMutability": "view",
      "type": "function",
      "constant": true
    },
    {
      "inputs": [],
      "name": "pollSubmissionDuration",
      "outputs": [
        {
          "internalType": "uint256",
          "name": "",
          "type": "uint256"
        }
      ],
      "stateMutability": "view",
      "type": "function",
      "constant": true
    },
    {
      "inputs": [
        {
          "internalType": "address",
          "name": "",
          "type": "address"
        }
      ],
      "name": "pollSubmissionIds",
      "outputs": [
        {
          "internalType": "uint256",
          "name": "",
          "type": "uint256"
        }
      ],
      "stateMutability": "view",
      "type": "function",
      "constant": true
    },
    {
      "inputs": [
        {
          "internalType": "uint256",
          "name": "",
          "type": "uint256"
        }
      ],
      "name": "pollSubmissions",
      "outputs": [
        {
          "internalType": "address",
          "name": "pollAddress",
          "type": "address"
        },
        {
          "internalType": "uint256",
          "name": "submissionDate",
          "type": "uint256"
        },
        {
          "internalType": "uint256",
          "name": "voteCount",
          "type": "uint256"
        },
        {
          "internalType": "uint256",
          "name": "amountToDAO",
          "type": "uint256"
        },
        {
          "internalType": "uint256",
          "name": "amountToValidators",
          "type": "uint256"
        },
        {
          "internalType": "enum DPollPluginValidator.SubmissionStatus",
          "name": "status",
          "type": "uint8"
        }
      ],
      "stateMutability": "view",
      "type": "function",
      "constant": true
    },
    {
      "inputs": [],
      "name": "renounceOwnership",
      "outputs": [],
      "stateMutability": "nonpayable",
      "type": "function"
    },
    {
      "inputs": [],
      "name": "requiredValidations",
      "outputs": [
        {
          "internalType": "uint256",
          "name": "",
          "type": "uint256"
        }
      ],
      "stateMutability": "view",
      "type": "function",
      "constant": true
    },
    {
      "inputs": [],
      "name": "requiredValidators",
      "outputs": [
        {
          "internalType": "uint256",
          "name": "",
          "type": "uint256"
        }
      ],
      "stateMutability": "view",
      "type": "function",
      "constant": true
    },
    {
      "inputs": [
        {
          "internalType": "address",
          "name": "newOwner",
          "type": "address"
        }
      ],
      "name": "transferOwnership",
      "outputs": [],
      "stateMutability": "nonpayable",
      "type": "function"
    },
    {
      "inputs": [
        {
          "internalType": "address",
          "name": "",
          "type": "address"
        },
        {
          "internalType": "uint256",
          "name": "",
          "type": "uint256"
        }
      ],
      "name": "validatorsVotes",
      "outputs": [
        {
          "internalType": "bool",
          "name": "",
          "type": "bool"
        }
      ],
      "stateMutability": "view",
      "type": "function",
      "constant": true
    },
    {
      "inputs": [
        {
          "internalType": "address",
          "name": "_pollAddress",
          "type": "address"
        },
        {
          "internalType": "uint256",
          "name": "_toValidators",
          "type": "uint256"
        },
        {
          "internalType": "uint256",
          "name": "_toDAO",
          "type": "uint256"
        }
      ],
      "name": "submitPoll",
      "outputs": [],
      "stateMutability": "payable",
      "type": "function",
      "payable": true
    },
    {
      "inputs": [
        {
          "internalType": "uint256",
          "name": "_pollSubmissionId",
          "type": "uint256"
        },
        {
          "internalType": "bool",
          "name": "_vote",
          "type": "bool"
        }
      ],
      "name": "voteForPoll",
      "outputs": [],
      "stateMutability": "nonpayable",
      "type": "function"
    },
    {
      "inputs": [
        {
          "internalType": "uint256",
          "name": "_pollSubmissionId",
          "type": "uint256"
        }
      ],
      "name": "closeSubmission",
      "outputs": [],
      "stateMutability": "nonpayable",
      "type": "function"
    },
    {
      "inputs": [
        {
          "internalType": "uint256",
          "name": "_pollSubmissionId",
          "type": "uint256"
        }
      ],
      "name": "setValidation",
      "outputs": [],
      "stateMutability": "nonpayable",
      "type": "function"
    }
  ],
  "bytecode": "0x60806040523480156200001157600080fd5b50604051620026a7380380620026a7833981810160405281019062000037919062000238565b620000576200004b6200010260201b60201c565b6200010a60201b60201c565b80600260006101000a81548173ffffffffffffffffffffffffffffffffffffffff021916908373ffffffffffffffffffffffffffffffffffffffff160217905550600260009054906101000a900473ffffffffffffffffffffffffffffffffffffffff16600160006101000a81548173ffffffffffffffffffffffffffffffffffffffff021916908373ffffffffffffffffffffffffffffffffffffffff160217905550506200026a565b600033905090565b60008060009054906101000a900473ffffffffffffffffffffffffffffffffffffffff169050816000806101000a81548173ffffffffffffffffffffffffffffffffffffffff021916908373ffffffffffffffffffffffffffffffffffffffff1602179055508173ffffffffffffffffffffffffffffffffffffffff168173ffffffffffffffffffffffffffffffffffffffff167f8be0079c531659141344cd1fd0a4f28419497f9722a3daafe3b4186f6b6457e060405160405180910390a35050565b600080fd5b600073ffffffffffffffffffffffffffffffffffffffff82169050919050565b60006200020082620001d3565b9050919050565b6200021281620001f3565b81146200021e57600080fd5b50565b600081519050620002328162000207565b92915050565b600060208284031215620002515762000250620001ce565b5b6000620002618482850162000221565b91505092915050565b61242d806200027a6000396000f3fe6080604052600436106100e85760003560e01c8063aae95a601161008a578063cb58bd3111610059578063cb58bd31146102da578063d392eab114610305578063d824fc5e14610330578063f2fde38b14610359576100e8565b8063aae95a601461022d578063aba7074e14610258578063b46411c314610281578063b49d6ecb1461029d576100e8565b8063715018a6116100c6578063715018a6146101835780638da5cb5b1461019a57806397c875dd146101c55780639d02003c146101f0576100e8565b80630996636b146100ed5780630de1e2b41461012f5780630ff1b9291461015a575b600080fd5b3480156100f957600080fd5b50610114600480360381019061010f91906116f0565b610382565b604051610126969594939291906117e4565b60405180910390f35b34801561013b57600080fd5b506101446103fb565b6040516101519190611845565b60405180910390f35b34801561016657600080fd5b50610181600480360381019061017c91906116f0565b610400565b005b34801561018f57600080fd5b50610198610729565b005b3480156101a657600080fd5b506101af61073d565b6040516101bc9190611860565b60405180910390f35b3480156101d157600080fd5b506101da610766565b6040516101e79190611845565b60405180910390f35b3480156101fc57600080fd5b50610217600480360381019061021291906118a7565b61076b565b6040516102249190611902565b60405180910390f35b34801561023957600080fd5b5061024261079a565b60405161024f9190611845565b60405180910390f35b34801561026457600080fd5b5061027f600480360381019061027a9190611949565b6107a1565b005b61029b60048036038101906102969190611989565b610be5565b005b3480156102a957600080fd5b506102c460048036038101906102bf91906119dc565b610f33565b6040516102d19190611845565b60405180910390f35b3480156102e657600080fd5b506102ef610f4b565b6040516102fc9190611a68565b60405180910390f35b34801561031157600080fd5b5061031a610f71565b6040516103279190611860565b60405180910390f35b34801561033c57600080fd5b50610357600480360381019061035291906116f0565b610f97565b005b34801561036557600080fd5b50610380600480360381019061037b91906119dc565b6113dc565b005b6003818154811061039257600080fd5b90600052602060002090600702016000915090508060000160009054906101000a900473ffffffffffffffffffffffffffffffffffffffff16908060010154908060020154908060030154908060040154908060050160009054906101000a900460ff16905086565b600281565b600160009054906101000a900473ffffffffffffffffffffffffffffffffffffffff1673ffffffffffffffffffffffffffffffffffffffff1663a230c524336040518263ffffffff1660e01b815260040161045b9190611860565b602060405180830381865afa158015610478573d6000803e3d6000fd5b505050506040513d601f19601f8201168201806040525081019061049c9190611a98565b6104db576040517f08c379a00000000000000000000000000000000000000000000000000000000081526004016104d290611b22565b60405180910390fd5b806003805490508110610523576040517f08c379a000000000000000000000000000000000000000000000000000000000815260040161051a90611b8e565b60405180910390fd5b60006003838154811061053957610538611bae565b5b906000526020600020906007020190506000600281111561055d5761055c61176d565b5b8160050160009054906101000a900460ff1660028111156105815761058061176d565b5b146105c1576040517f08c379a00000000000000000000000000000000000000000000000000000000081526004016105b890611c29565b60405180910390fd5b60038160060180549050101561060c576040517f08c379a000000000000000000000000000000000000000000000000000000000815260040161060390611cbb565b60405180910390fd5b60018160050160006101000a81548160ff021916908360028111156106345761063361176d565b5b0217905550600160009054906101000a900473ffffffffffffffffffffffffffffffffffffffff1673ffffffffffffffffffffffffffffffffffffffff16634754857c336040518263ffffffff1660e01b81526004016106949190611860565b600060405180830381600087803b1580156106ae57600080fd5b505af11580156106c2573d6000803e3d6000fd5b505050507f91f6aacd27fa3ec374d76835769225dca9f8b9dbe5a5db8fdc057572c642c2e58160000160009054906101000a900473ffffffffffffffffffffffffffffffffffffffff16600160405161071c929190611d27565b60405180910390a1505050565b61073161145f565b61073b60006114dd565b565b60008060009054906101000a900473ffffffffffffffffffffffffffffffffffffffff16905090565b600381565b60056020528160005260406000206020528060005260406000206000915091509054906101000a900460ff1681565b62093a8081565b600160009054906101000a900473ffffffffffffffffffffffffffffffffffffffff1673ffffffffffffffffffffffffffffffffffffffff1663a230c524336040518263ffffffff1660e01b81526004016107fc9190611860565b602060405180830381865afa158015610819573d6000803e3d6000fd5b505050506040513d601f19601f8201168201806040525081019061083d9190611a98565b61087c576040517f08c379a000000000000000000000000000000000000000000000000000000000815260040161087390611b22565b60405180910390fd5b8160038054905081106108c4576040517f08c379a00000000000000000000000000000000000000000000000000000000081526004016108bb90611b8e565b60405180910390fd5b6000600384815481106108da576108d9611bae565b5b90600052602060002090600702019050600060028111156108fe576108fd61176d565b5b8160050160009054906101000a900460ff1660028111156109225761092161176d565b5b14610962576040517f08c379a000000000000000000000000000000000000000000000000000000000815260040161095990611c29565b60405180910390fd5b60038160060180549050106109ac576040517f08c379a00000000000000000000000000000000000000000000000000000000081526004016109a390611daf565b60405180910390fd5b600560003373ffffffffffffffffffffffffffffffffffffffff1673ffffffffffffffffffffffffffffffffffffffff168152602001908152602001600020600085815260200190815260200160002060009054906101000a900460ff1615610a4a576040517f08c379a0000000000000000000000000000000000000000000000000000000008152600401610a4190611e1b565b60405180910390fd5b80600601339080600181540180825580915050600190039060005260206000200160009091909190916101000a81548173ffffffffffffffffffffffffffffffffffffffff021916908373ffffffffffffffffffffffffffffffffffffffff1602179055506001600560003373ffffffffffffffffffffffffffffffffffffffff1673ffffffffffffffffffffffffffffffffffffffff168152602001908152602001600020600086815260200190815260200160002060006101000a81548160ff0219169083151502179055508215610b3957806002016000815480929190610b3390611e6a565b91905055505b600160009054906101000a900473ffffffffffffffffffffffffffffffffffffffff1673ffffffffffffffffffffffffffffffffffffffff16634754857c336040518263ffffffff1660e01b8152600401610b949190611860565b600060405180830381600087803b158015610bae57600080fd5b505af1158015610bc2573d6000803e3d6000fd5b505050506003816006018054905003610bdf57610bde84610f97565b5b50505050565b828073ffffffffffffffffffffffffffffffffffffffff163373ffffffffffffffffffffffffffffffffffffffff1614610c54576040517f08c379a0000000000000000000000000000000000000000000000000000000008152600401610c4b90611efe565b60405180910390fd5b60008284610c629190611f1e565b90506000600460008773ffffffffffffffffffffffffffffffffffffffff1673ffffffffffffffffffffffffffffffffffffffff16815260200190815260200160002054905060008114610ceb576040517f08c379a0000000000000000000000000000000000000000000000000000000008152600401610ce290611f9e565b60405180910390fd5b662386f26fc10000341080610cff57508134105b15610d3f576040517f08c379a0000000000000000000000000000000000000000000000000000000008152600401610d369061200a565b60405180910390fd5b610d476115a9565b86816000019073ffffffffffffffffffffffffffffffffffffffff16908173ffffffffffffffffffffffffffffffffffffffff1681525050848160600181815250508581608001818152505082341115610db1578234610da7919061202a565b8160600181815250505b600381908060018154018082558091505060019003906000526020600020906007020160009091909190915060008201518160000160006101000a81548173ffffffffffffffffffffffffffffffffffffffff021916908373ffffffffffffffffffffffffffffffffffffffff1602179055506020820151816001015560408201518160020155606082015181600301556080820151816004015560a08201518160050160006101000a81548160ff02191690836002811115610e7757610e7661176d565b5b021790555060c0820151816006019080519060200190610e9892919061160e565b5050506001600380549050610ead919061202a565b600460008973ffffffffffffffffffffffffffffffffffffffff1673ffffffffffffffffffffffffffffffffffffffff168152602001908152602001600020819055507f91f6aacd27fa3ec374d76835769225dca9f8b9dbe5a5db8fdc057572c642c2e5876000604051610f229291906120aa565b60405180910390a150505050505050565b60046020528060005260406000206000915090505481565b600160009054906101000a900473ffffffffffffffffffffffffffffffffffffffff1681565b600260009054906101000a900473ffffffffffffffffffffffffffffffffffffffff1681565b600160009054906101000a900473ffffffffffffffffffffffffffffffffffffffff1673ffffffffffffffffffffffffffffffffffffffff1663a230c524336040518263ffffffff1660e01b8152600401610ff29190611860565b602060405180830381865afa15801561100f573d6000803e3d6000fd5b505050506040513d601f19601f820116820180604052508101906110339190611a98565b611072576040517f08c379a000000000000000000000000000000000000000000000000000000000815260040161106990611b22565b60405180910390fd5b8060038054905081106110ba576040517f08c379a00000000000000000000000000000000000000000000000000000000081526004016110b190611b8e565b60405180910390fd5b6000600383815481106110d0576110cf611bae565b5b90600052602060002090600702019050806004015481600301546110f49190611f1e565b471015611136576040517f08c379a000000000000000000000000000000000000000000000000000000000815260040161112d9061200a565b60405180910390fd5b600080826003015490506000600284600201541061115e576001925083600301549050600091505b60028460050160006101000a81548160ff021916908360028111156111865761118561176d565b5b0217905550600160009054906101000a900473ffffffffffffffffffffffffffffffffffffffff1673ffffffffffffffffffffffffffffffffffffffff1663556947cf8560040154836111d99190611f1e565b838760040154886006016040518563ffffffff1660e01b81526004016112019392919061220a565b6000604051808303818588803b15801561121a57600080fd5b505af115801561122e573d6000803e3d6000fd5b50505050508360000160009054906101000a900473ffffffffffffffffffffffffffffffffffffffff1673ffffffffffffffffffffffffffffffffffffffff1663e1b9742a838660000160009054906101000a900473ffffffffffffffffffffffffffffffffffffffff16866040518463ffffffff1660e01b81526004016112b7929190612248565b6000604051808303818588803b1580156112d057600080fd5b505af11580156112e4573d6000803e3d6000fd5b5050505050600160009054906101000a900473ffffffffffffffffffffffffffffffffffffffff1673ffffffffffffffffffffffffffffffffffffffff16634754857c336040518263ffffffff1660e01b81526004016113449190611860565b600060405180830381600087803b15801561135e57600080fd5b505af1158015611372573d6000803e3d6000fd5b505050507f91f6aacd27fa3ec374d76835769225dca9f8b9dbe5a5db8fdc057572c642c2e58460000160009054906101000a900473ffffffffffffffffffffffffffffffffffffffff1660026040516113cc9291906122bd565b60405180910390a1505050505050565b6113e461145f565b600073ffffffffffffffffffffffffffffffffffffffff168173ffffffffffffffffffffffffffffffffffffffff1603611453576040517f08c379a000000000000000000000000000000000000000000000000000000000815260040161144a9061236b565b60405180910390fd5b61145c816114dd565b50565b6114676115a1565b73ffffffffffffffffffffffffffffffffffffffff1661148561073d565b73ffffffffffffffffffffffffffffffffffffffff16146114db576040517f08c379a00000000000000000000000000000000000000000000000000000000081526004016114d2906123d7565b60405180910390fd5b565b60008060009054906101000a900473ffffffffffffffffffffffffffffffffffffffff169050816000806101000a81548173ffffffffffffffffffffffffffffffffffffffff021916908373ffffffffffffffffffffffffffffffffffffffff1602179055508173ffffffffffffffffffffffffffffffffffffffff168173ffffffffffffffffffffffffffffffffffffffff167f8be0079c531659141344cd1fd0a4f28419497f9722a3daafe3b4186f6b6457e060405160405180910390a35050565b600033905090565b6040518060e00160405280600073ffffffffffffffffffffffffffffffffffffffff16815260200160008152602001600081526020016000815260200160008152602001600060028111156116015761160061176d565b5b8152602001606081525090565b828054828255906000526020600020908101928215611687579160200282015b828111156116865782518260006101000a81548173ffffffffffffffffffffffffffffffffffffffff021916908373ffffffffffffffffffffffffffffffffffffffff1602179055509160200191906001019061162e565b5b5090506116949190611698565b5090565b5b808211156116b1576000816000905550600101611699565b5090565b600080fd5b6000819050919050565b6116cd816116ba565b81146116d857600080fd5b50565b6000813590506116ea816116c4565b92915050565b600060208284031215611706576117056116b5565b5b6000611714848285016116db565b91505092915050565b600073ffffffffffffffffffffffffffffffffffffffff82169050919050565b60006117488261171d565b9050919050565b6117588161173d565b82525050565b611767816116ba565b82525050565b7f4e487b7100000000000000000000000000000000000000000000000000000000600052602160045260246000fd5b600381106117ad576117ac61176d565b5b50565b60008190506117be8261179c565b919050565b60006117ce826117b0565b9050919050565b6117de816117c3565b82525050565b600060c0820190506117f9600083018961174f565b611806602083018861175e565b611813604083018761175e565b611820606083018661175e565b61182d608083018561175e565b61183a60a08301846117d5565b979650505050505050565b600060208201905061185a600083018461175e565b92915050565b6000602082019050611875600083018461174f565b92915050565b6118848161173d565b811461188f57600080fd5b50565b6000813590506118a18161187b565b92915050565b600080604083850312156118be576118bd6116b5565b5b60006118cc85828601611892565b92505060206118dd858286016116db565b9150509250929050565b60008115159050919050565b6118fc816118e7565b82525050565b600060208201905061191760008301846118f3565b92915050565b611926816118e7565b811461193157600080fd5b50565b6000813590506119438161191d565b92915050565b600080604083850312156119605761195f6116b5565b5b600061196e858286016116db565b925050602061197f85828601611934565b9150509250929050565b6000806000606084860312156119a2576119a16116b5565b5b60006119b086828701611892565b93505060206119c1868287016116db565b92505060406119d2868287016116db565b9150509250925092565b6000602082840312156119f2576119f16116b5565b5b6000611a0084828501611892565b91505092915050565b6000819050919050565b6000611a2e611a29611a248461171d565b611a09565b61171d565b9050919050565b6000611a4082611a13565b9050919050565b6000611a5282611a35565b9050919050565b611a6281611a47565b82525050565b6000602082019050611a7d6000830184611a59565b92915050565b600081519050611a928161191d565b92915050565b600060208284031215611aae57611aad6116b5565b5b6000611abc84828501611a83565b91505092915050565b600082825260208201905092915050565b7f596f7520617265206e6f742061206d656d626572000000000000000000000000600082015250565b6000611b0c601483611ac5565b9150611b1782611ad6565b602082019050919050565b60006020820190508181036000830152611b3b81611aff565b9050919050565b7f54686520706f6c6c20646f6573206e6f74206578697374000000000000000000600082015250565b6000611b78601783611ac5565b9150611b8382611b42565b602082019050919050565b60006020820190508181036000830152611ba781611b6b565b9050919050565b7f4e487b7100000000000000000000000000000000000000000000000000000000600052603260045260246000fd5b7f54686520706f6c6c206973206e6f74207375626d697474656400000000000000600082015250565b6000611c13601983611ac5565b9150611c1e82611bdd565b602082019050919050565b60006020820190508181036000830152611c4281611c06565b9050919050565b7f54686520706f6c6c207375626d697373696f6e206973206e6f742066696e697360008201527f6865640000000000000000000000000000000000000000000000000000000000602082015250565b6000611ca5602383611ac5565b9150611cb082611c49565b604082019050919050565b60006020820190508181036000830152611cd481611c98565b9050919050565b7f506f6c6c20636c6f736564000000000000000000000000000000000000000000600082015250565b6000611d11600b83611ac5565b9150611d1c82611cdb565b602082019050919050565b6000606082019050611d3c600083018561174f565b611d4960208301846117d5565b8181036040830152611d5a81611d04565b90509392505050565b7f416c726561647920656e6f75676820766f746573000000000000000000000000600082015250565b6000611d99601483611ac5565b9150611da482611d63565b602082019050919050565b60006020820190508181036000830152611dc881611d8c565b9050919050565b7f416c726561647920766f74656400000000000000000000000000000000000000600082015250565b6000611e05600d83611ac5565b9150611e1082611dcf565b602082019050919050565b60006020820190508181036000830152611e3481611df8565b9050919050565b7f4e487b7100000000000000000000000000000000000000000000000000000000600052601160045260246000fd5b6000611e75826116ba565b91507fffffffffffffffffffffffffffffffffffffffffffffffffffffffffffffffff8203611ea757611ea6611e3b565b5b600182019050919050565b7f54686520506f6c6c2073686f756c64207375626d697420697473656c66000000600082015250565b6000611ee8601d83611ac5565b9150611ef382611eb2565b602082019050919050565b60006020820190508181036000830152611f1781611edb565b9050919050565b6000611f29826116ba565b9150611f34836116ba565b9250828201905080821115611f4c57611f4b611e3b565b5b92915050565b7f506f6c6c20616c7265616479207375626d697474656400000000000000000000600082015250565b6000611f88601683611ac5565b9150611f9382611f52565b602082019050919050565b60006020820190508181036000830152611fb781611f7b565b9050919050565b7f4e6f7420656e6f7567682066756e647300000000000000000000000000000000600082015250565b6000611ff4601083611ac5565b9150611fff82611fbe565b602082019050919050565b6000602082019050818103600083015261202381611fe7565b9050919050565b6000612035826116ba565b9150612040836116ba565b925082820390508181111561205857612057611e3b565b5b92915050565b7f506f6c6c207375626d6974746564000000000000000000000000000000000000600082015250565b6000612094600e83611ac5565b915061209f8261205e565b602082019050919050565b60006060820190506120bf600083018561174f565b6120cc60208301846117d5565b81810360408301526120dd81612087565b90509392505050565b600081549050919050565b600082825260208201905092915050565b60008190508160005260206000209050919050565b6121208161173d565b82525050565b60006121328383612117565b60208301905092915050565b60008160001c9050919050565b600073ffffffffffffffffffffffffffffffffffffffff82169050919050565b600061217e6121798361213e565b61214b565b9050919050565b6000612191825461216b565b9050919050565b6000600182019050919050565b60006121b0826120e6565b6121ba81856120f1565b93506121c583612102565b8060005b838110156121fd576121da82612185565b6121e48882612126565b97506121ef83612198565b9250506001810190506121c9565b5085935050505092915050565b600060608201905061221f600083018661175e565b61222c602083018561175e565b818103604083015261223e81846121a5565b9050949350505050565b600060408201905061225d600083018561174f565b61226a60208301846118f3565b9392505050565b7f506f6c6c2076616c696461746564000000000000000000000000000000000000600082015250565b60006122a7600e83611ac5565b91506122b282612271565b602082019050919050565b60006060820190506122d2600083018561174f565b6122df60208301846117d5565b81810360408301526122f08161229a565b90509392505050565b7f4f776e61626c653a206e6577206f776e657220697320746865207a65726f206160008201527f6464726573730000000000000000000000000000000000000000000000000000602082015250565b6000612355602683611ac5565b9150612360826122f9565b604082019050919050565b6000602082019050818103600083015261238481612348565b9050919050565b7f4f776e61626c653a2063616c6c6572206973206e6f7420746865206f776e6572600082015250565b60006123c1602083611ac5565b91506123cc8261238b565b602082019050919050565b600060208201905081810360008301526123f0816123b4565b905091905056fea2646970667358221220308d09163a84dccbf7f7886027191e362c440e27f857a8e100e964a699b7c19564736f6c63430008130033",
  "immutableReferences": {},
  "source": "// SPDX-License-Identifier: MIT\n\npragma solidity 0.8.19;\n /*\n  * For this exam :\n  * -Validation of poll are keeped simple : 3 validators are required to validate a poll and 2 voting for to validate it\n  * -Time constraints are removed to facilitate tests and live demo\n  *\n  * see comment of voteForPoll function for last changes to speed the process for the exam (steps are skipped)\n  * \n  * -the flow is :\n  * +a poll is submitted to the DAO by sending its address and some ETH to the DAO (50% will be given to validators, 50% to the treasury if the poll is validated)\n  * +DAO members can vote for the poll\n  * +a certain amount of vote is required to close the poll (3 as example for now) (later : in a certain delay)\n  * +then the DAO members can validate or invalidate the poll calling the setValidation function of the PollValidator contract\n  *\n  * -in case of validation of the poll : the plugin send the funds to the DAO to pay validators and DAO (updating the balances to be claim later)\n  * -in case of invalidation of the poll : the plugin send the funds to the DAO to pay validator fees (updating the balances to be claim later) and \n  * send back the DAO fees to the poll when calling the setPollValidation function of the poll (the poll can claim it later)\n  */\n\nimport \"@openzeppelin/contracts/access/Ownable.sol\";\nimport \"./IPollValidator.sol\";\nimport \"./DPollDAO.sol\";\n\n/**\n@title DPollPluginValidator\n@author ibourn\n@notice This contract is used to manage the polls validation\n@dev This contract is a plugin for the DAO, it is used to validate or invalidate a poll. It's splitted as a plugin to allow upgradability and flexibility and to reduce the size of the DAO contract\n */\n\ncontract DPollPluginValidator is Ownable {\n    enum SubmissionStatus {SUBMITTED, CLOSED, VALIDATED }\n\n    struct PollSubmission {\n        address pollAddress;\n        uint256 submissionDate;\n        uint256 voteCount;\n        uint256 amountToDAO;\n        uint256 amountToValidators;\n        SubmissionStatus status;\n        address[] validators;\n    }\n\n    DPollDAO public dpollDAO;\n    address public DAOAddress;\n\n    uint256 public constant requiredValidators = 3;\n    uint256 public constant requiredValidations = 2;\n    uint256 public constant pollSubmissionDuration = 1 weeks;\n\n    PollSubmission[] public pollSubmissions;\n    mapping(address => uint256) public pollSubmissionIds;\n    mapping (address => mapping (uint256 => bool)) public validatorsVotes;\n\n    event PollStatusChange(address pollAddress, SubmissionStatus newStatus, string message);\n    event DAOBalanceTansfer(address to, uint amount, string action);\n\n\n    modifier onlyDAOmember() {\n        require(dpollDAO.isMember(msg.sender), \"You are not a member\");\n        _;\n    }\n    modifier onlySelfSubmit(address _pollAddress) {\n        require(msg.sender == _pollAddress, \"The Poll should submit itself\");\n        _;\n    }\n    modifier onlyExisting(uint _pollSubmissionId) {\n        require(_pollSubmissionId < pollSubmissions.length, \"The poll does not exist\");\n        _;\n    }\n\n\n    constructor(address _DAOaddress) {\n        DAOAddress = _DAOaddress;\n        dpollDAO = DPollDAO(DAOAddress);\n    }\n\n    /**\n    @notice allows to submit a poll to the DAO\n    @dev no existing poll have initial id 0, so we use it to check if the poll is already submitted\n    @dev the poll calling can't be ID 0 as its status don't allow it to resubmit\n    @dev A fake contract could call it again without status restriction and thus later \n    @dev have side effect on validation vote but as only the poll address are stored and validator have to call\n    @dev themselves the poll to check its description and validate it, it's not a problem, they will vote against it\n    @dev A check could be to compare this poll address with a mapping in the factory to check if it's a clone\n    @param _pollAddress the address of the poll to submit\n    @param _toValidators the amount of ETH to pay to validators\n    @param _toDAO the amount of ETH to pay to the DAO\n     */\n    function submitPoll(address _pollAddress, uint _toValidators, uint _toDAO) external payable onlySelfSubmit(_pollAddress) {\n        uint totalRecieved = _toValidators + _toDAO;\n        uint pollSubmissionId = pollSubmissionIds[_pollAddress];\n        if (pollSubmissionId != 0) {\n            revert (\"Poll already submitted\");\n        }\n        if (msg.value < 0.01 ether || msg.value < totalRecieved) {\n            revert (\"Not enough funds\");\n        }\n\n        PollSubmission memory newPollSubmission;\n        newPollSubmission.pollAddress = _pollAddress;\n        // newPollSubmission.submissionDate = block.timestamp;\n        // newPollSubmission.status = SubmissionStatus.SUBMITTED;//default\n        newPollSubmission.amountToDAO = _toDAO;\n        newPollSubmission.amountToValidators = _toValidators;\n        if (msg.value > totalRecieved) {\n            newPollSubmission.amountToDAO = msg.value - totalRecieved;\n        }\n        pollSubmissions.push(newPollSubmission);\n        pollSubmissionIds[_pollAddress] = pollSubmissions.length - 1;\n        \n        emit PollStatusChange(_pollAddress, SubmissionStatus.SUBMITTED, \"Poll submitted\");\n    }\n\n    /*\n    thnik to add a getter for the number of vote to be done (now there's no way but getting all data and counting in frontend)\n    */\n    /*\n    REFACTORING FOR THE EXAM TO SHORTEN THE PROCESS : the last voter needed trigger setValidation autmoatically\n    */\n    function voteForPoll(uint _pollSubmissionId, bool _vote) public onlyDAOmember() onlyExisting(_pollSubmissionId) {\n\n        PollSubmission storage pollSubmission = pollSubmissions[_pollSubmissionId];\n        require(pollSubmission.status == SubmissionStatus.SUBMITTED, \"The poll is not submitted\");\n        // require(pollSubmission.submissionDate + pollSubmissionDuration < block.timestamp, \"The poll submission is closed\");\n        require(pollSubmission.validators.length < requiredValidators, \"Already enough votes\");\n        require(!validatorsVotes[msg.sender][_pollSubmissionId], \"Already voted\");\n        \n        pollSubmission.validators.push(msg.sender);\n        validatorsVotes[msg.sender][_pollSubmissionId] = true;\n\n        if (_vote) {\n            pollSubmission.voteCount++;\n        }\n\n        dpollDAO.rewardValidator(msg.sender);\n\n\n        //added for the exam (see comment above)\n        if (pollSubmission.validators.length == requiredValidators) {\n            setValidation(_pollSubmissionId);\n        }\n    }\n\n    /*\n    see previous comment (voteForPoll) this function is skipped at the moment\n    */\n    //due to restriction and later time constraints, no modifier to allow automatisation of the workflow\n    function closeSubmission(uint _pollSubmissionId) public onlyDAOmember() onlyExisting(_pollSubmissionId) {\n        PollSubmission storage pollSubmission = pollSubmissions[_pollSubmissionId];\n        require(pollSubmission.status == SubmissionStatus.SUBMITTED, \"The poll is not submitted\");\n        // require(pollSubmission.submissionDate + pollSubmissionDuration <= block.timestamp, \"The poll submission is closed\");\n        require(pollSubmission.validators.length >= requiredValidators, \"The poll submission is not finished\");\n        \n        pollSubmission.status = SubmissionStatus.CLOSED;\n        dpollDAO.rewardValidator(msg.sender);\n        emit PollStatusChange(pollSubmission.pollAddress, SubmissionStatus.CLOSED, \"Poll closed\");\n    }\n\n    /*\n    see previous comment (voteForPoll) this function is called automatically at the moment SHOULD BE PASS AS PRIVATE\n    */\n    /*\n    ATTENTION in this case the last validator will pay fees for the tx!! (not as previously thought)\n    */\n    function setValidation(uint _pollSubmissionId) public onlyDAOmember() onlyExisting(_pollSubmissionId) {\n        PollSubmission storage pollSubmission = pollSubmissions[_pollSubmissionId];\n        // require(pollSubmission.status == SubmissionStatus.CLOSED, \"The poll is not closed\");\n        require(address(this).balance >= pollSubmission.amountToDAO + pollSubmission.amountToValidators, \"Not enough funds\");\n        \n        //default state : poll not validated\n        bool isValid;\n        uint amountBack = pollSubmission.amountToDAO;\n        uint daoAmount;\n\n        if(pollSubmission.voteCount >= requiredValidations) {\n            isValid = true;\n            daoAmount = pollSubmission.amountToDAO;\n            amountBack = 0;\n        } \n\n        pollSubmission.status = SubmissionStatus.VALIDATED;\n        //Send fund to pay validators (and DAO if validated)\n        dpollDAO.payValidation{value: daoAmount + pollSubmission.amountToValidators}(daoAmount, pollSubmission.amountToValidators, pollSubmission.validators);\n        \n        //Set validation state of the poll and refund from DAO fees if not validated\n        IPollValidator(pollSubmission.pollAddress).setPollValidation{value: amountBack}(pollSubmission.pollAddress, isValid);\n\n        dpollDAO.rewardValidator(msg.sender);\n        emit PollStatusChange(pollSubmission.pollAddress, SubmissionStatus.VALIDATED, \"Poll validated\");\n    }\n    \n\n}",
  "sourcePath": "/home/ibournubuntu/ALYRA/PROJET_FINAL/DPoll/truffle/contracts/DPollPluginValidator.sol",
  "compiler": {
    "name": "solc",
    "version": "0.8.19+commit.7dd6d404.Emscripten.clang"
  },
  "schemaVersion": "3.4.14",
  "updatedAt": "2023-07-26T01:38:39.187Z",
  "networkType": "ethereum",
  "devdoc": {
    "author": "ibourn",
    "details": "This contract is a plugin for the DAO, it is used to validate or invalidate a poll. It's splitted as a plugin to allow upgradability and flexibility and to reduce the size of the DAO contract",
    "kind": "dev",
    "methods": {
      "owner()": {
        "details": "Returns the address of the current owner."
      },
      "renounceOwnership()": {
        "details": "Leaves the contract without owner. It will not be possible to call `onlyOwner` functions. Can only be called by the current owner. NOTE: Renouncing ownership will leave the contract without an owner, thereby disabling any functionality that is only available to the owner."
      },
      "submitPoll(address,uint256,uint256)": {
        "details": "no existing poll have initial id 0, so we use it to check if the poll is already submittedthe poll calling can't be ID 0 as its status don't allow it to resubmitA fake contract could call it again without status restriction and thus later have side effect on validation vote but as only the poll address are stored and validator have to callthemselves the poll to check its description and validate it, it's not a problem, they will vote against itA check could be to compare this poll address with a mapping in the factory to check if it's a clone",
        "params": {
          "_pollAddress": "the address of the poll to submit",
          "_toDAO": "the amount of ETH to pay to the DAO",
          "_toValidators": "the amount of ETH to pay to validators"
        }
      },
      "transferOwnership(address)": {
        "details": "Transfers ownership of the contract to a new account (`newOwner`). Can only be called by the current owner."
      }
    },
    "title": "DPollPluginValidator",
    "version": 1
  },
  "userdoc": {
    "kind": "user",
    "methods": {
      "submitPoll(address,uint256,uint256)": {
        "notice": "allows to submit a poll to the DAO"
      }
    },
    "notice": "This contract is used to manage the polls validation",
    "version": 1
  }
}