{
  "contractName": "DPollDAO",
  "abi": [
    {
      "inputs": [],
      "stateMutability": "nonpayable",
      "type": "constructor"
    },
    {
      "anonymous": false,
      "inputs": [
        {
          "indexed": false,
          "internalType": "address",
          "name": "to",
          "type": "address"
        },
        {
          "indexed": false,
          "internalType": "address",
          "name": "from",
          "type": "address"
        },
        {
          "indexed": false,
          "internalType": "uint256",
          "name": "amount",
          "type": "uint256"
        },
        {
          "indexed": false,
          "internalType": "string",
          "name": "action",
          "type": "string"
        }
      ],
      "name": "DAOBalanceTansfer",
      "type": "event"
    },
    {
      "anonymous": false,
      "inputs": [
        {
          "indexed": false,
          "internalType": "address",
          "name": "to",
          "type": "address"
        },
        {
          "indexed": false,
          "internalType": "uint256",
          "name": "amount",
          "type": "uint256"
        },
        {
          "indexed": false,
          "internalType": "string",
          "name": "action",
          "type": "string"
        }
      ],
      "name": "DAOTokenTransfer",
      "type": "event"
    },
    {
      "anonymous": false,
      "inputs": [
        {
          "indexed": true,
          "internalType": "address",
          "name": "previousOwner",
          "type": "address"
        },
        {
          "indexed": true,
          "internalType": "address",
          "name": "newOwner",
          "type": "address"
        }
      ],
      "name": "OwnershipTransferred",
      "type": "event"
    },
    {
      "inputs": [],
      "name": "DAOPollValidatorAddress",
      "outputs": [
        {
          "internalType": "address",
          "name": "",
          "type": "address"
        }
      ],
      "stateMutability": "view",
      "type": "function",
      "constant": true
    },
    {
      "inputs": [],
      "name": "DAOProposalsAddress",
      "outputs": [
        {
          "internalType": "address",
          "name": "",
          "type": "address"
        }
      ],
      "stateMutability": "view",
      "type": "function",
      "constant": true
    },
    {
      "inputs": [],
      "name": "DAO_MEMBERSHIP_FEE",
      "outputs": [
        {
          "internalType": "uint256",
          "name": "",
          "type": "uint256"
        }
      ],
      "stateMutability": "view",
      "type": "function",
      "constant": true
    },
    {
      "inputs": [],
      "name": "DAObalance",
      "outputs": [
        {
          "internalType": "uint256",
          "name": "",
          "type": "uint256"
        }
      ],
      "stateMutability": "view",
      "type": "function",
      "constant": true
    },
    {
      "inputs": [],
      "name": "DPTtoken",
      "outputs": [
        {
          "internalType": "contract DPollToken",
          "name": "",
          "type": "address"
        }
      ],
      "stateMutability": "view",
      "type": "function",
      "constant": true
    },
    {
      "inputs": [
        {
          "internalType": "address",
          "name": "_memberAddress",
          "type": "address"
        }
      ],
      "name": "addMember",
      "outputs": [],
      "stateMutability": "payable",
      "type": "function",
      "payable": true
    },
    {
      "inputs": [
        {
          "internalType": "address",
          "name": "_memberAddress",
          "type": "address"
        }
      ],
      "name": "getMember",
      "outputs": [
        {
          "components": [
            {
              "internalType": "address",
              "name": "memberAddress",
              "type": "address"
            },
            {
              "internalType": "uint256",
              "name": "memberSince",
              "type": "uint256"
            },
            {
              "internalType": "uint256",
              "name": "lastProposalCreation",
              "type": "uint256"
            },
            {
              "internalType": "uint256",
              "name": "balance",
              "type": "uint256"
            },
            {
              "internalType": "uint256",
              "name": "rewardsBalance",
              "type": "uint256"
            },
            {
              "internalType": "enum DPollStorage.MemberRole",
              "name": "role",
              "type": "uint8"
            }
          ],
          "internalType": "struct DPollStorage.Member",
          "name": "",
          "type": "tuple"
        }
      ],
      "stateMutability": "view",
      "type": "function",
      "constant": true
    },
    {
      "inputs": [],
      "name": "getMembersCount",
      "outputs": [
        {
          "internalType": "uint256",
          "name": "",
          "type": "uint256"
        }
      ],
      "stateMutability": "view",
      "type": "function",
      "constant": true
    },
    {
      "inputs": [
        {
          "internalType": "address",
          "name": "_memberAddress",
          "type": "address"
        }
      ],
      "name": "isMember",
      "outputs": [
        {
          "internalType": "bool",
          "name": "",
          "type": "bool"
        }
      ],
      "stateMutability": "view",
      "type": "function",
      "constant": true
    },
    {
      "inputs": [
        {
          "internalType": "address",
          "name": "_memberAddress",
          "type": "address"
        }
      ],
      "name": "isMemberExtCall",
      "outputs": [
        {
          "internalType": "bool",
          "name": "",
          "type": "bool"
        }
      ],
      "stateMutability": "view",
      "type": "function",
      "constant": true
    },
    {
      "inputs": [
        {
          "internalType": "address",
          "name": "",
          "type": "address"
        }
      ],
      "name": "members",
      "outputs": [
        {
          "internalType": "address",
          "name": "memberAddress",
          "type": "address"
        },
        {
          "internalType": "uint256",
          "name": "memberSince",
          "type": "uint256"
        },
        {
          "internalType": "uint256",
          "name": "lastProposalCreation",
          "type": "uint256"
        },
        {
          "internalType": "uint256",
          "name": "balance",
          "type": "uint256"
        },
        {
          "internalType": "uint256",
          "name": "rewardsBalance",
          "type": "uint256"
        },
        {
          "internalType": "enum DPollStorage.MemberRole",
          "name": "role",
          "type": "uint8"
        }
      ],
      "stateMutability": "view",
      "type": "function",
      "constant": true
    },
    {
      "inputs": [
        {
          "internalType": "uint256",
          "name": "",
          "type": "uint256"
        }
      ],
      "name": "membersList",
      "outputs": [
        {
          "internalType": "address",
          "name": "memberAddress",
          "type": "address"
        },
        {
          "internalType": "uint256",
          "name": "memberSince",
          "type": "uint256"
        },
        {
          "internalType": "uint256",
          "name": "lastProposalCreation",
          "type": "uint256"
        },
        {
          "internalType": "uint256",
          "name": "balance",
          "type": "uint256"
        },
        {
          "internalType": "uint256",
          "name": "rewardsBalance",
          "type": "uint256"
        },
        {
          "internalType": "enum DPollStorage.MemberRole",
          "name": "role",
          "type": "uint8"
        }
      ],
      "stateMutability": "view",
      "type": "function",
      "constant": true
    },
    {
      "inputs": [],
      "name": "owner",
      "outputs": [
        {
          "internalType": "address",
          "name": "",
          "type": "address"
        }
      ],
      "stateMutability": "view",
      "type": "function",
      "constant": true
    },
    {
      "inputs": [
        {
          "internalType": "address",
          "name": "_memberAddress",
          "type": "address"
        }
      ],
      "name": "removeMember",
      "outputs": [],
      "stateMutability": "nonpayable",
      "type": "function"
    },
    {
      "inputs": [],
      "name": "renounceOwnership",
      "outputs": [],
      "stateMutability": "nonpayable",
      "type": "function"
    },
    {
      "inputs": [
        {
          "internalType": "address",
          "name": "newOwner",
          "type": "address"
        }
      ],
      "name": "transferOwnership",
      "outputs": [],
      "stateMutability": "nonpayable",
      "type": "function"
    },
    {
      "inputs": [],
      "name": "getDPTtokenAddress",
      "outputs": [
        {
          "internalType": "address",
          "name": "",
          "type": "address"
        }
      ],
      "stateMutability": "view",
      "type": "function",
      "constant": true
    },
    {
      "inputs": [],
      "name": "getDAOBalance",
      "outputs": [
        {
          "internalType": "uint256",
          "name": "",
          "type": "uint256"
        }
      ],
      "stateMutability": "view",
      "type": "function",
      "constant": true
    },
    {
      "inputs": [],
      "name": "getValidatorPluginAddress",
      "outputs": [
        {
          "internalType": "address",
          "name": "",
          "type": "address"
        }
      ],
      "stateMutability": "view",
      "type": "function",
      "constant": true
    },
    {
      "inputs": [],
      "name": "getProposalsPluginAddress",
      "outputs": [
        {
          "internalType": "address",
          "name": "",
          "type": "address"
        }
      ],
      "stateMutability": "view",
      "type": "function",
      "constant": true
    },
    {
      "inputs": [
        {
          "internalType": "address",
          "name": "_pluginAddress",
          "type": "address"
        }
      ],
      "name": "setValidatorPluginAddress",
      "outputs": [],
      "stateMutability": "nonpayable",
      "type": "function"
    },
    {
      "inputs": [
        {
          "internalType": "address",
          "name": "_pluginAddress",
          "type": "address"
        }
      ],
      "name": "setProposalsPluginAddress",
      "outputs": [],
      "stateMutability": "nonpayable",
      "type": "function"
    },
    {
      "inputs": [],
      "name": "deposit",
      "outputs": [],
      "stateMutability": "payable",
      "type": "function",
      "payable": true
    },
    {
      "inputs": [
        {
          "internalType": "uint256",
          "name": "_amountToDAO",
          "type": "uint256"
        },
        {
          "internalType": "uint256",
          "name": "_amountToValidators",
          "type": "uint256"
        },
        {
          "internalType": "address[]",
          "name": "_validators",
          "type": "address[]"
        }
      ],
      "name": "payValidation",
      "outputs": [],
      "stateMutability": "payable",
      "type": "function",
      "payable": true
    },
    {
      "inputs": [],
      "name": "withdrawReward",
      "outputs": [],
      "stateMutability": "nonpayable",
      "type": "function"
    },
    {
      "inputs": [
        {
          "internalType": "address",
          "name": "_to",
          "type": "address"
        }
      ],
      "name": "rewardValidator",
      "outputs": [],
      "stateMutability": "nonpayable",
      "type": "function"
    },
    {
      "inputs": [
        {
          "internalType": "address",
          "name": "_to",
          "type": "address"
        }
      ],
      "name": "rewardVoter",
      "outputs": [],
      "stateMutability": "nonpayable",
      "type": "function"
    }
  ],
  "bytecode": "0x60806040523480156200001157600080fd5b506200003262000026620000d660201b60201c565b620000de60201b60201c565b600060048190555069d3c21bcecceda10000006040516200005390620002dd565b6200005f919062000342565b604051809103906000f0801580156200007c573d6000803e3d6000fd5b50600360006101000a81548173ffffffffffffffffffffffffffffffffffffffff021916908373ffffffffffffffffffffffffffffffffffffffff160217905550620000d0336001620001a260201b60201c565b62000411565b600033905090565b60008060009054906101000a900473ffffffffffffffffffffffffffffffffffffffff169050816000806101000a81548173ffffffffffffffffffffffffffffffffffffffff021916908373ffffffffffffffffffffffffffffffffffffffff1602179055508173ffffffffffffffffffffffffffffffffffffffff168173ffffffffffffffffffffffffffffffffffffffff167f8be0079c531659141344cd1fd0a4f28419497f9722a3daafe3b4186f6b6457e060405160405180910390a35050565b620001b26200022360201b60201c565b80600560008473ffffffffffffffffffffffffffffffffffffffff1673ffffffffffffffffffffffffffffffffffffffff16815260200190815260200160002060050160006101000a81548160ff021916908360018111156200021a57620002196200035f565b5b02179055505050565b62000233620000d660201b60201c565b73ffffffffffffffffffffffffffffffffffffffff1662000259620002b460201b60201c565b73ffffffffffffffffffffffffffffffffffffffff1614620002b2576040517f08c379a0000000000000000000000000000000000000000000000000000000008152600401620002a990620003ef565b60405180910390fd5b565b60008060009054906101000a900473ffffffffffffffffffffffffffffffffffffffff16905090565b61197c80620031fd83390190565b6000819050919050565b6000819050919050565b6000819050919050565b60006200032a620003246200031e84620002eb565b620002ff565b620002f5565b9050919050565b6200033c8162000309565b82525050565b600060208201905062000359600083018462000331565b92915050565b7f4e487b7100000000000000000000000000000000000000000000000000000000600052602160045260246000fd5b600082825260208201905092915050565b7f4f776e61626c653a2063616c6c6572206973206e6f7420746865206f776e6572600082015250565b6000620003d76020836200038e565b9150620003e4826200039f565b602082019050919050565b600060208201905081810360008301526200040a81620003c8565b9050919050565b612ddc80620004216000396000f3fe60806040526004361061019c5760003560e01c8063715018a6116100ec578063c885bc581161008a578063d825de3411610064578063d825de3414610571578063ea778dc01461059c578063ed02e405146105c7578063f2fde38b146105f25761019c565b8063c885bc5814610534578063ca6d56dc1461054b578063d0e30db0146105675761019c565b80638912620c116100c65780638912620c146104765780638da5cb5b146104a1578063a230c524146104cc578063b1ad5979146105095761019c565b8063715018a6146104095780637d39bb59146104205780638656ea8b1461044b5761019c565b80632ada259611610159578063467b774011610133578063467b7740146103725780634754857c1461039b578063556947cf146103c45780636faa7d01146103e05761019c565b80632ada2596146102df57806335b1c8051461031c5780633978e653146103475761019c565b8063076af049146101a157806308ae4b0c146101de57806309772f8f146102205780630b1ca49a1461024b57806313b8ad31146102745780631a1b8b6a146102b6575b600080fd5b3480156101ad57600080fd5b506101c860048036038101906101c39190611cb2565b61061b565b6040516101d59190611cfa565b60405180910390f35b3480156101ea57600080fd5b5061020560048036038101906102009190611cb2565b61062d565b60405161021796959493929190611db4565b60405180910390f35b34801561022c57600080fd5b50610235610696565b6040516102429190611e15565b60405180910390f35b34801561025757600080fd5b50610272600480360381019061026d9190611cb2565b6106a3565b005b34801561028057600080fd5b5061029b60048036038101906102969190611e5c565b610ac1565b6040516102ad96959493929190611db4565b60405180910390f35b3480156102c257600080fd5b506102dd60048036038101906102d89190611cb2565b610b3a565b005b3480156102eb57600080fd5b5061030660048036038101906103019190611cb2565b610bd6565b6040516103139190611f31565b60405180910390f35b34801561032857600080fd5b50610331610ce8565b60405161033e9190611f4c565b60405180910390f35b34801561035357600080fd5b5061035c610d12565b6040516103699190611f4c565b60405180910390f35b34801561037e57600080fd5b5061039960048036038101906103949190611cb2565b610d3c565b005b3480156103a757600080fd5b506103c260048036038101906103bd9190611cb2565b610d88565b005b6103de60048036038101906103d991906120c0565b610e24565b005b3480156103ec57600080fd5b5061040760048036038101906104029190611cb2565b610ff0565b005b34801561041557600080fd5b5061041e61103c565b005b34801561042c57600080fd5b50610435611050565b6040516104429190611f4c565b60405180910390f35b34801561045757600080fd5b50610460611076565b60405161046d9190611f4c565b60405180910390f35b34801561048257600080fd5b5061048b6110a0565b604051610498919061218e565b60405180910390f35b3480156104ad57600080fd5b506104b66110c6565b6040516104c39190611f4c565b60405180910390f35b3480156104d857600080fd5b506104f360048036038101906104ee9190611cb2565b6110ef565b6040516105009190611cfa565b60405180910390f35b34801561051557600080fd5b5061051e61116e565b60405161052b9190611e15565b60405180910390f35b34801561054057600080fd5b50610549611174565b005b61056560048036038101906105609190611cb2565b611373565b005b61056f611730565b005b34801561057d57600080fd5b506105866117c9565b6040516105939190611e15565b60405180910390f35b3480156105a857600080fd5b506105b16117d4565b6040516105be9190611e15565b60405180910390f35b3480156105d357600080fd5b506105dc6117de565b6040516105e99190611f4c565b60405180910390f35b3480156105fe57600080fd5b5061061960048036038101906106149190611cb2565b611804565b005b6000610626826110ef565b9050919050565b60056020528060005260406000206000915090508060000160009054906101000a900473ffffffffffffffffffffffffffffffffffffffff16908060010154908060020154908060030154908060040154908060050160009054906101000a900460ff16905086565b6000600680549050905090565b6001808111156106b6576106b5611d3d565b5b600560003373ffffffffffffffffffffffffffffffffffffffff1673ffffffffffffffffffffffffffffffffffffffff16815260200190815260200160002060050160009054906101000a900460ff16600181111561071857610717611d3d565b5b14610758576040517f08c379a000000000000000000000000000000000000000000000000000000000815260040161074f90612206565b60405180910390fd5b3373ffffffffffffffffffffffffffffffffffffffff168173ffffffffffffffffffffffffffffffffffffffff16146107c6576040517f08c379a00000000000000000000000000000000000000000000000000000000081526004016107bd90612298565b60405180910390fd5b6000600560008373ffffffffffffffffffffffffffffffffffffffff1673ffffffffffffffffffffffffffffffffffffffff1681526020019081526020016000206040518060c00160405290816000820160009054906101000a900473ffffffffffffffffffffffffffffffffffffffff1673ffffffffffffffffffffffffffffffffffffffff1673ffffffffffffffffffffffffffffffffffffffff168152602001600182015481526020016002820154815260200160038201548152602001600482015481526020016005820160009054906101000a900460ff1660018111156108b5576108b4611d3d565b5b60018111156108c7576108c6611d3d565b5b815250509050426224ea0082602001516108e191906122e7565b10610921576040517f08c379a00000000000000000000000000000000000000000000000000000000081526004016109189061238d565b60405180910390fd5b6000816060015190506000600560008573ffffffffffffffffffffffffffffffffffffffff1673ffffffffffffffffffffffffffffffffffffffff1681526020019081526020016000206003018190555060008373ffffffffffffffffffffffffffffffffffffffff1682604051610998906123de565b60006040518083038185875af1925050503d80600081146109d5576040519150601f19603f3d011682016040523d82523d6000602084013e6109da565b606091505b5050905080610a1e576040517f08c379a0000000000000000000000000000000000000000000000000000000008152600401610a159061243f565b60405180910390fd5b600560008573ffffffffffffffffffffffffffffffffffffffff1673ffffffffffffffffffffffffffffffffffffffff168152602001908152602001600020600080820160006101000a81549073ffffffffffffffffffffffffffffffffffffffff021916905560018201600090556002820160009055600382016000905560048201600090556005820160006101000a81549060ff0219169055505050505050565b60068181548110610ad157600080fd5b90600052602060002090600602016000915090508060000160009054906101000a900473ffffffffffffffffffffffffffffffffffffffff16908060010154908060020154908060030154908060040154908060050160009054906101000a900460ff16905086565b600260009054906101000a900473ffffffffffffffffffffffffffffffffffffffff1673ffffffffffffffffffffffffffffffffffffffff163373ffffffffffffffffffffffffffffffffffffffff1614610bca576040517f08c379a0000000000000000000000000000000000000000000000000000000008152600401610bc1906124d1565b60405180910390fd5b610bd381611887565b50565b610bde611be2565b600560008373ffffffffffffffffffffffffffffffffffffffff1673ffffffffffffffffffffffffffffffffffffffff1681526020019081526020016000206040518060c00160405290816000820160009054906101000a900473ffffffffffffffffffffffffffffffffffffffff1673ffffffffffffffffffffffffffffffffffffffff1673ffffffffffffffffffffffffffffffffffffffff168152602001600182015481526020016002820154815260200160038201548152602001600482015481526020016005820160009054906101000a900460ff166001811115610ccb57610cca611d3d565b5b6001811115610cdd57610cdc611d3d565b5b815250509050919050565b6000600260009054906101000a900473ffffffffffffffffffffffffffffffffffffffff16905090565b6000600160009054906101000a900473ffffffffffffffffffffffffffffffffffffffff16905090565b610d44611a98565b80600260006101000a81548173ffffffffffffffffffffffffffffffffffffffff021916908373ffffffffffffffffffffffffffffffffffffffff16021790555050565b600160009054906101000a900473ffffffffffffffffffffffffffffffffffffffff1673ffffffffffffffffffffffffffffffffffffffff163373ffffffffffffffffffffffffffffffffffffffff1614610e18576040517f08c379a0000000000000000000000000000000000000000000000000000000008152600401610e0f90612563565b60405180910390fd5b610e2181611887565b50565b600160009054906101000a900473ffffffffffffffffffffffffffffffffffffffff1673ffffffffffffffffffffffffffffffffffffffff163373ffffffffffffffffffffffffffffffffffffffff1614610eb4576040517f08c379a0000000000000000000000000000000000000000000000000000000008152600401610eab90612563565b60405180910390fd5b348284610ec191906122e7565b1115610f02576040517f08c379a0000000000000000000000000000000000000000000000000000000008152600401610ef9906125f5565b60405180910390fd5b8260046000828254610f1491906122e7565b925050819055506000815183610f2a9190612644565b90506000825184610f3b9190612675565b905060005b8351811015610fcf578260056000868481518110610f6157610f606126a6565b5b602002602001015173ffffffffffffffffffffffffffffffffffffffff1673ffffffffffffffffffffffffffffffffffffffff1681526020019081526020016000206004016000828254610fb591906122e7565b925050819055508080610fc7906126d5565b915050610f40565b508060046000828254610fe291906122e7565b925050819055505050505050565b610ff8611a98565b80600160006101000a81548173ffffffffffffffffffffffffffffffffffffffff021916908373ffffffffffffffffffffffffffffffffffffffff16021790555050565b611044611a98565b61104e6000611b16565b565b600260009054906101000a900473ffffffffffffffffffffffffffffffffffffffff1681565b6000600360009054906101000a900473ffffffffffffffffffffffffffffffffffffffff16905090565b600360009054906101000a900473ffffffffffffffffffffffffffffffffffffffff1681565b60008060009054906101000a900473ffffffffffffffffffffffffffffffffffffffff16905090565b600060018081111561110457611103611d3d565b5b600560008473ffffffffffffffffffffffffffffffffffffffff1673ffffffffffffffffffffffffffffffffffffffff16815260200190815260200160002060050160009054906101000a900460ff16600181111561116657611165611d3d565b5b149050919050565b60045481565b6000600560003373ffffffffffffffffffffffffffffffffffffffff1673ffffffffffffffffffffffffffffffffffffffff16815260200190815260200160002060040154116111f9576040517f08c379a00000000000000000000000000000000000000000000000000000000081526004016111f090612769565b60405180910390fd5b6000600560003373ffffffffffffffffffffffffffffffffffffffff1673ffffffffffffffffffffffffffffffffffffffff1681526020019081526020016000206004015490506000600560003373ffffffffffffffffffffffffffffffffffffffff1673ffffffffffffffffffffffffffffffffffffffff1681526020019081526020016000206004018190555060003373ffffffffffffffffffffffffffffffffffffffff16826040516112ae906123de565b60006040518083038185875af1925050503d80600081146112eb576040519150601f19603f3d011682016040523d82523d6000602084013e6112f0565b606091505b5050905080611334576040517f08c379a000000000000000000000000000000000000000000000000000000000815260040161132b9061243f565b60405180910390fd5b7fe52c4cefe1ae4b31e6e478a3e34c8b2d0b3ad75d8d03663240fc2927353c2a14333084604051611367939291906127d5565b60405180910390a15050565b66470de4df8200003410156113bd576040517f08c379a00000000000000000000000000000000000000000000000000000000081526004016113b490612891565b60405180910390fd5b600060018111156113d1576113d0611d3d565b5b600560008373ffffffffffffffffffffffffffffffffffffffff1673ffffffffffffffffffffffffffffffffffffffff16815260200190815260200160002060050160009054906101000a900460ff16600181111561143357611432611d3d565b5b14611473576040517f08c379a000000000000000000000000000000000000000000000000000000000815260040161146a906128fd565b60405180910390fd5b6000600560008373ffffffffffffffffffffffffffffffffffffffff1673ffffffffffffffffffffffffffffffffffffffff16815260200190815260200160002060010154146114f8576040517f08c379a00000000000000000000000000000000000000000000000000000000081526004016114ef90612969565b60405180910390fd5b611500611be2565b81816000019073ffffffffffffffffffffffffffffffffffffffff16908173ffffffffffffffffffffffffffffffffffffffff16815250504281602001818152505060018160a00190600181111561155b5761155a611d3d565b5b9081600181111561156f5761156e611d3d565b5b8152505034816060018181525050600681908060018154018082558091505060019003906000526020600020906006020160009091909190915060008201518160000160006101000a81548173ffffffffffffffffffffffffffffffffffffffff021916908373ffffffffffffffffffffffffffffffffffffffff1602179055506020820151816001015560408201518160020155606082015181600301556080820151816004015560a08201518160050160006101000a81548160ff0219169083600181111561164357611642611d3d565b5b0217905550505080600560008473ffffffffffffffffffffffffffffffffffffffff1673ffffffffffffffffffffffffffffffffffffffff16815260200190815260200160002060008201518160000160006101000a81548173ffffffffffffffffffffffffffffffffffffffff021916908373ffffffffffffffffffffffffffffffffffffffff1602179055506020820151816001015560408201518160020155606082015181600301556080820151816004015560a08201518160050160006101000a81548160ff0219169083600181111561172457611723611d3d565b5b02179055509050505050565b60003411611773576040517f08c379a000000000000000000000000000000000000000000000000000000000815260040161176a906129d5565b60405180910390fd5b346004600082825461178591906122e7565b925050819055507fe52c4cefe1ae4b31e6e478a3e34c8b2d0b3ad75d8d03663240fc2927353c2a143033346040516117bf93929190612a41565b60405180910390a1565b66470de4df82000081565b6000600454905090565b600160009054906101000a900473ffffffffffffffffffffffffffffffffffffffff1681565b61180c611a98565b600073ffffffffffffffffffffffffffffffffffffffff168173ffffffffffffffffffffffffffffffffffffffff160361187b576040517f08c379a000000000000000000000000000000000000000000000000000000000815260040161187290612afd565b60405180910390fd5b61188481611b16565b50565b600073ffffffffffffffffffffffffffffffffffffffff168173ffffffffffffffffffffffffffffffffffffffff16036118f6576040517f08c379a00000000000000000000000000000000000000000000000000000000081526004016118ed90612b69565b60405180910390fd5b60018081111561190957611908611d3d565b5b600560008373ffffffffffffffffffffffffffffffffffffffff1673ffffffffffffffffffffffffffffffffffffffff16815260200190815260200160002060050160009054906101000a900460ff16600181111561196b5761196a611d3d565b5b146119ab576040517f08c379a00000000000000000000000000000000000000000000000000000000081526004016119a290612bd5565b60405180910390fd5b600360009054906101000a900473ffffffffffffffffffffffffffffffffffffffff1673ffffffffffffffffffffffffffffffffffffffff1663a9059cbb82670de0b6b3a76400006040518363ffffffff1660e01b8152600401611a10929190612c30565b6020604051808303816000875af1158015611a2f573d6000803e3d6000fd5b505050506040513d601f19601f82011682018060405250810190611a539190612c85565b507f4a6c6915fec850b4436575e437c9042ba03d784d64b7c08d7de29ea249b49fe181670de0b6b3a7640000604051611a8d929190612cfe565b60405180910390a150565b611aa0611bda565b73ffffffffffffffffffffffffffffffffffffffff16611abe6110c6565b73ffffffffffffffffffffffffffffffffffffffff1614611b14576040517f08c379a0000000000000000000000000000000000000000000000000000000008152600401611b0b90612d86565b60405180910390fd5b565b60008060009054906101000a900473ffffffffffffffffffffffffffffffffffffffff169050816000806101000a81548173ffffffffffffffffffffffffffffffffffffffff021916908373ffffffffffffffffffffffffffffffffffffffff1602179055508173ffffffffffffffffffffffffffffffffffffffff168173ffffffffffffffffffffffffffffffffffffffff167f8be0079c531659141344cd1fd0a4f28419497f9722a3daafe3b4186f6b6457e060405160405180910390a35050565b600033905090565b6040518060c00160405280600073ffffffffffffffffffffffffffffffffffffffff1681526020016000815260200160008152602001600081526020016000815260200160006001811115611c3a57611c39611d3d565b5b81525090565b6000604051905090565b600080fd5b600080fd5b600073ffffffffffffffffffffffffffffffffffffffff82169050919050565b6000611c7f82611c54565b9050919050565b611c8f81611c74565b8114611c9a57600080fd5b50565b600081359050611cac81611c86565b92915050565b600060208284031215611cc857611cc7611c4a565b5b6000611cd684828501611c9d565b91505092915050565b60008115159050919050565b611cf481611cdf565b82525050565b6000602082019050611d0f6000830184611ceb565b92915050565b611d1e81611c74565b82525050565b6000819050919050565b611d3781611d24565b82525050565b7f4e487b7100000000000000000000000000000000000000000000000000000000600052602160045260246000fd5b60028110611d7d57611d7c611d3d565b5b50565b6000819050611d8e82611d6c565b919050565b6000611d9e82611d80565b9050919050565b611dae81611d93565b82525050565b600060c082019050611dc96000830189611d15565b611dd66020830188611d2e565b611de36040830187611d2e565b611df06060830186611d2e565b611dfd6080830185611d2e565b611e0a60a0830184611da5565b979650505050505050565b6000602082019050611e2a6000830184611d2e565b92915050565b611e3981611d24565b8114611e4457600080fd5b50565b600081359050611e5681611e30565b92915050565b600060208284031215611e7257611e71611c4a565b5b6000611e8084828501611e47565b91505092915050565b611e9281611c74565b82525050565b611ea181611d24565b82525050565b611eb081611d93565b82525050565b60c082016000820151611ecc6000850182611e89565b506020820151611edf6020850182611e98565b506040820151611ef26040850182611e98565b506060820151611f056060850182611e98565b506080820151611f186080850182611e98565b5060a0820151611f2b60a0850182611ea7565b50505050565b600060c082019050611f466000830184611eb6565b92915050565b6000602082019050611f616000830184611d15565b92915050565b600080fd5b6000601f19601f8301169050919050565b7f4e487b7100000000000000000000000000000000000000000000000000000000600052604160045260246000fd5b611fb582611f6c565b810181811067ffffffffffffffff82111715611fd457611fd3611f7d565b5b80604052505050565b6000611fe7611c40565b9050611ff38282611fac565b919050565b600067ffffffffffffffff82111561201357612012611f7d565b5b602082029050602081019050919050565b600080fd5b600061203c61203784611ff8565b611fdd565b9050808382526020820190506020840283018581111561205f5761205e612024565b5b835b8181101561208857806120748882611c9d565b845260208401935050602081019050612061565b5050509392505050565b600082601f8301126120a7576120a6611f67565b5b81356120b7848260208601612029565b91505092915050565b6000806000606084860312156120d9576120d8611c4a565b5b60006120e786828701611e47565b93505060206120f886828701611e47565b925050604084013567ffffffffffffffff81111561211957612118611c4f565b5b61212586828701612092565b9150509250925092565b6000819050919050565b600061215461214f61214a84611c54565b61212f565b611c54565b9050919050565b600061216682612139565b9050919050565b60006121788261215b565b9050919050565b6121888161216d565b82525050565b60006020820190506121a3600083018461217f565b92915050565b600082825260208201905092915050565b7f596f7520617265206e6f742061206d656d626572000000000000000000000000600082015250565b60006121f06014836121a9565b91506121fb826121ba565b602082019050919050565b6000602082019050818103600083015261221f816121e3565b9050919050565b7f4f6e6c79206d656d6265722063616e2064656369646520746f206c656176652060008201527f7468652044414f00000000000000000000000000000000000000000000000000602082015250565b60006122826027836121a9565b915061228d82612226565b604082019050919050565b600060208201905081810360008301526122b181612275565b9050919050565b7f4e487b7100000000000000000000000000000000000000000000000000000000600052601160045260246000fd5b60006122f282611d24565b91506122fd83611d24565b9250828201905080821115612315576123146122b8565b5b92915050565b7f596f75206e65656420746f20776169742032382064617973206265666f72652060008201527f6c656176696e67207468652044414f0000000000000000000000000000000000602082015250565b6000612377602f836121a9565b91506123828261231b565b604082019050919050565b600060208201905081810360008301526123a68161236a565b9050919050565b600081905092915050565b50565b60006123c86000836123ad565b91506123d3826123b8565b600082019050919050565b60006123e9826123bb565b9150819050919050565b7f5472616e73666572206661696c65642e00000000000000000000000000000000600082015250565b60006124296010836121a9565b9150612434826123f3565b602082019050919050565b600060208201905081810360008301526124588161241c565b9050919050565b7f4f6e6c79207468652070726f706f73616c7320636f6e74726163742063616e2060008201527f72657761726420766f7465727300000000000000000000000000000000000000602082015250565b60006124bb602d836121a9565b91506124c68261245f565b604082019050919050565b600060208201905081810360008301526124ea816124ae565b9050919050565b7f4f6e6c79207468652076616c696461746f7220636f6e74726163742063616e2060008201527f7265776172642076616c696461746f7273000000000000000000000000000000602082015250565b600061254d6031836121a9565b9150612558826124f1565b604082019050919050565b6000602082019050818103600083015261257c81612540565b9050919050565b7f54686520616d6f756e7420746f2073706c697420646f6e74206d61746368207460008201527f686520616d6f756e742073656e74000000000000000000000000000000000000602082015250565b60006125df602e836121a9565b91506125ea82612583565b604082019050919050565b6000602082019050818103600083015261260e816125d2565b9050919050565b7f4e487b7100000000000000000000000000000000000000000000000000000000600052601260045260246000fd5b600061264f82611d24565b915061265a83611d24565b92508261266a57612669612615565b5b828204905092915050565b600061268082611d24565b915061268b83611d24565b92508261269b5761269a612615565b5b828206905092915050565b7f4e487b7100000000000000000000000000000000000000000000000000000000600052603260045260246000fd5b60006126e082611d24565b91507fffffffffffffffffffffffffffffffffffffffffffffffffffffffffffffffff8203612712576127116122b8565b5b600182019050919050565b7f596f7520646f6e2774206861766520616e792072657761726400000000000000600082015250565b60006127536019836121a9565b915061275e8261271d565b602082019050919050565b6000602082019050818103600083015261278281612746565b9050919050565b7f52657761726420636c61696d6564000000000000000000000000000000000000600082015250565b60006127bf600e836121a9565b91506127ca82612789565b602082019050919050565b60006080820190506127ea6000830186611d15565b6127f76020830185611d15565b6128046040830184611d2e565b8181036060830152612815816127b2565b9050949350505050565b7f596f75206e65656420746f2073656e64206174206c6561737420302e3032206560008201527f7468657200000000000000000000000000000000000000000000000000000000602082015250565b600061287b6024836121a9565b91506128868261281f565b604082019050919050565b600060208201905081810360008301526128aa8161286e565b9050919050565b7f596f752061726520616c72656164792061206d656d6265720000000000000000600082015250565b60006128e76018836121a9565b91506128f2826128b1565b602082019050919050565b60006020820190508181036000830152612916816128da565b9050919050565b7f416c726561647920696e207468652044414f0000000000000000000000000000600082015250565b60006129536012836121a9565b915061295e8261291d565b602082019050919050565b6000602082019050818103600083015261298281612946565b9050919050565b7f596f75206e65656420746f2073656e6420736f6d652045746865720000000000600082015250565b60006129bf601b836121a9565b91506129ca82612989565b602082019050919050565b600060208201905081810360008301526129ee816129b2565b9050919050565b7f4465706f73697400000000000000000000000000000000000000000000000000600082015250565b6000612a2b6007836121a9565b9150612a36826129f5565b602082019050919050565b6000608082019050612a566000830186611d15565b612a636020830185611d15565b612a706040830184611d2e565b8181036060830152612a8181612a1e565b9050949350505050565b7f4f776e61626c653a206e6577206f776e657220697320746865207a65726f206160008201527f6464726573730000000000000000000000000000000000000000000000000000602082015250565b6000612ae76026836121a9565b9150612af282612a8b565b604082019050919050565b60006020820190508181036000830152612b1681612ada565b9050919050565b7f496e76616c696420616464726573730000000000000000000000000000000000600082015250565b6000612b53600f836121a9565b9150612b5e82612b1d565b602082019050919050565b60006020820190508181036000830152612b8281612b46565b9050919050565b7f4e6f74206d656d62657200000000000000000000000000000000000000000000600082015250565b6000612bbf600a836121a9565b9150612bca82612b89565b602082019050919050565b60006020820190508181036000830152612bee81612bb2565b9050919050565b6000819050919050565b6000612c1a612c15612c1084612bf5565b61212f565b611d24565b9050919050565b612c2a81612bff565b82525050565b6000604082019050612c456000830185611d15565b612c526020830184612c21565b9392505050565b612c6281611cdf565b8114612c6d57600080fd5b50565b600081519050612c7f81612c59565b92915050565b600060208284031215612c9b57612c9a611c4a565b5b6000612ca984828501612c70565b91505092915050565b7f5265776172640000000000000000000000000000000000000000000000000000600082015250565b6000612ce86006836121a9565b9150612cf382612cb2565b602082019050919050565b6000606082019050612d136000830185611d15565b612d206020830184612c21565b8181036040830152612d3181612cdb565b90509392505050565b7f4f776e61626c653a2063616c6c6572206973206e6f7420746865206f776e6572600082015250565b6000612d706020836121a9565b9150612d7b82612d3a565b602082019050919050565b60006020820190508181036000830152612d9f81612d63565b905091905056fea2646970667358221220164dd88d9c1aa5b7dfcf576007749f397f46e1433c2fa1a4fd302f9f032b527964736f6c6343000813003360806040523480156200001157600080fd5b506040516200197c3803806200197c833981810160405281019062000037919062000299565b6040518060400160405280600581526020017f44504f4c4c0000000000000000000000000000000000000000000000000000008152506040518060400160405280600381526020017f44505400000000000000000000000000000000000000000000000000000000008152508160039081620000b491906200053b565b508060049081620000c691906200053b565b505050620000db3382620000e260201b60201c565b506200073d565b600073ffffffffffffffffffffffffffffffffffffffff168273ffffffffffffffffffffffffffffffffffffffff160362000154576040517f08c379a00000000000000000000000000000000000000000000000000000000081526004016200014b9062000683565b60405180910390fd5b62000168600083836200024f60201b60201c565b80600260008282546200017c9190620006d4565b92505081905550806000808473ffffffffffffffffffffffffffffffffffffffff1673ffffffffffffffffffffffffffffffffffffffff168152602001908152602001600020600082825401925050819055508173ffffffffffffffffffffffffffffffffffffffff16600073ffffffffffffffffffffffffffffffffffffffff167fddf252ad1be2c89b69c2b068fc378daa952ba7f163c4a11628f55a4df523b3ef836040516200022f919062000720565b60405180910390a36200024b600083836200025460201b60201c565b5050565b505050565b505050565b600080fd5b6000819050919050565b62000273816200025e565b81146200027f57600080fd5b50565b600081519050620002938162000268565b92915050565b600060208284031215620002b257620002b162000259565b5b6000620002c28482850162000282565b91505092915050565b600081519050919050565b7f4e487b7100000000000000000000000000000000000000000000000000000000600052604160045260246000fd5b7f4e487b7100000000000000000000000000000000000000000000000000000000600052602260045260246000fd5b600060028204905060018216806200034d57607f821691505b60208210810362000363576200036262000305565b5b50919050565b60008190508160005260206000209050919050565b60006020601f8301049050919050565b600082821b905092915050565b600060088302620003cd7fffffffffffffffffffffffffffffffffffffffffffffffffffffffffffffffff826200038e565b620003d986836200038e565b95508019841693508086168417925050509392505050565b6000819050919050565b60006200041c6200041662000410846200025e565b620003f1565b6200025e565b9050919050565b6000819050919050565b6200043883620003fb565b62000450620004478262000423565b8484546200039b565b825550505050565b600090565b6200046762000458565b620004748184846200042d565b505050565b5b818110156200049c57620004906000826200045d565b6001810190506200047a565b5050565b601f821115620004eb57620004b58162000369565b620004c0846200037e565b81016020851015620004d0578190505b620004e8620004df856200037e565b83018262000479565b50505b505050565b600082821c905092915050565b60006200051060001984600802620004f0565b1980831691505092915050565b60006200052b8383620004fd565b9150826002028217905092915050565b6200054682620002cb565b67ffffffffffffffff811115620005625762000561620002d6565b5b6200056e825462000334565b6200057b828285620004a0565b600060209050601f831160018114620005b357600084156200059e578287015190505b620005aa85826200051d565b8655506200061a565b601f198416620005c38662000369565b60005b82811015620005ed57848901518255600182019150602085019450602081019050620005c6565b868310156200060d578489015162000609601f891682620004fd565b8355505b6001600288020188555050505b505050505050565b600082825260208201905092915050565b7f45524332303a206d696e7420746f20746865207a65726f206164647265737300600082015250565b60006200066b601f8362000622565b9150620006788262000633565b602082019050919050565b600060208201905081810360008301526200069e816200065c565b9050919050565b7f4e487b7100000000000000000000000000000000000000000000000000000000600052601160045260246000fd5b6000620006e1826200025e565b9150620006ee836200025e565b9250828201905080821115620007095762000708620006a5565b5b92915050565b6200071a816200025e565b82525050565b60006020820190506200073760008301846200070f565b92915050565b61122f806200074d6000396000f3fe608060405234801561001057600080fd5b50600436106100a95760003560e01c80633950935111610071578063395093511461016857806370a082311461019857806395d89b41146101c8578063a457c2d7146101e6578063a9059cbb14610216578063dd62ed3e14610246576100a9565b806306fdde03146100ae578063095ea7b3146100cc57806318160ddd146100fc57806323b872dd1461011a578063313ce5671461014a575b600080fd5b6100b6610276565b6040516100c39190610b0c565b60405180910390f35b6100e660048036038101906100e19190610bc7565b610308565b6040516100f39190610c22565b60405180910390f35b61010461032b565b6040516101119190610c4c565b60405180910390f35b610134600480360381019061012f9190610c67565b610335565b6040516101419190610c22565b60405180910390f35b610152610364565b60405161015f9190610cd6565b60405180910390f35b610182600480360381019061017d9190610bc7565b61036d565b60405161018f9190610c22565b60405180910390f35b6101b260048036038101906101ad9190610cf1565b6103a4565b6040516101bf9190610c4c565b60405180910390f35b6101d06103ec565b6040516101dd9190610b0c565b60405180910390f35b61020060048036038101906101fb9190610bc7565b61047e565b60405161020d9190610c22565b60405180910390f35b610230600480360381019061022b9190610bc7565b6104f5565b60405161023d9190610c22565b60405180910390f35b610260600480360381019061025b9190610d1e565b610518565b60405161026d9190610c4c565b60405180910390f35b60606003805461028590610d8d565b80601f01602080910402602001604051908101604052809291908181526020018280546102b190610d8d565b80156102fe5780601f106102d3576101008083540402835291602001916102fe565b820191906000526020600020905b8154815290600101906020018083116102e157829003601f168201915b5050505050905090565b60008061031361059f565b90506103208185856105a7565b600191505092915050565b6000600254905090565b60008061034061059f565b905061034d858285610770565b6103588585856107fc565b60019150509392505050565b60006012905090565b60008061037861059f565b905061039981858561038a8589610518565b6103949190610ded565b6105a7565b600191505092915050565b60008060008373ffffffffffffffffffffffffffffffffffffffff1673ffffffffffffffffffffffffffffffffffffffff168152602001908152602001600020549050919050565b6060600480546103fb90610d8d565b80601f016020809104026020016040519081016040528092919081815260200182805461042790610d8d565b80156104745780601f1061044957610100808354040283529160200191610474565b820191906000526020600020905b81548152906001019060200180831161045757829003601f168201915b5050505050905090565b60008061048961059f565b905060006104978286610518565b9050838110156104dc576040517f08c379a00000000000000000000000000000000000000000000000000000000081526004016104d390610e93565b60405180910390fd5b6104e982868684036105a7565b60019250505092915050565b60008061050061059f565b905061050d8185856107fc565b600191505092915050565b6000600160008473ffffffffffffffffffffffffffffffffffffffff1673ffffffffffffffffffffffffffffffffffffffff16815260200190815260200160002060008373ffffffffffffffffffffffffffffffffffffffff1673ffffffffffffffffffffffffffffffffffffffff16815260200190815260200160002054905092915050565b600033905090565b600073ffffffffffffffffffffffffffffffffffffffff168373ffffffffffffffffffffffffffffffffffffffff1603610616576040517f08c379a000000000000000000000000000000000000000000000000000000000815260040161060d90610f25565b60405180910390fd5b600073ffffffffffffffffffffffffffffffffffffffff168273ffffffffffffffffffffffffffffffffffffffff1603610685576040517f08c379a000000000000000000000000000000000000000000000000000000000815260040161067c90610fb7565b60405180910390fd5b80600160008573ffffffffffffffffffffffffffffffffffffffff1673ffffffffffffffffffffffffffffffffffffffff16815260200190815260200160002060008473ffffffffffffffffffffffffffffffffffffffff1673ffffffffffffffffffffffffffffffffffffffff168152602001908152602001600020819055508173ffffffffffffffffffffffffffffffffffffffff168373ffffffffffffffffffffffffffffffffffffffff167f8c5be1e5ebec7d5bd14f71427d1e84f3dd0314c0f7b2291e5b200ac8c7c3b925836040516107639190610c4c565b60405180910390a3505050565b600061077c8484610518565b90507fffffffffffffffffffffffffffffffffffffffffffffffffffffffffffffffff81146107f657818110156107e8576040517f08c379a00000000000000000000000000000000000000000000000000000000081526004016107df90611023565b60405180910390fd5b6107f584848484036105a7565b5b50505050565b600073ffffffffffffffffffffffffffffffffffffffff168373ffffffffffffffffffffffffffffffffffffffff160361086b576040517f08c379a0000000000000000000000000000000000000000000000000000000008152600401610862906110b5565b60405180910390fd5b600073ffffffffffffffffffffffffffffffffffffffff168273ffffffffffffffffffffffffffffffffffffffff16036108da576040517f08c379a00000000000000000000000000000000000000000000000000000000081526004016108d190611147565b60405180910390fd5b6108e5838383610a72565b60008060008573ffffffffffffffffffffffffffffffffffffffff1673ffffffffffffffffffffffffffffffffffffffff1681526020019081526020016000205490508181101561096b576040517f08c379a0000000000000000000000000000000000000000000000000000000008152600401610962906111d9565b60405180910390fd5b8181036000808673ffffffffffffffffffffffffffffffffffffffff1673ffffffffffffffffffffffffffffffffffffffff16815260200190815260200160002081905550816000808573ffffffffffffffffffffffffffffffffffffffff1673ffffffffffffffffffffffffffffffffffffffff168152602001908152602001600020600082825401925050819055508273ffffffffffffffffffffffffffffffffffffffff168473ffffffffffffffffffffffffffffffffffffffff167fddf252ad1be2c89b69c2b068fc378daa952ba7f163c4a11628f55a4df523b3ef84604051610a599190610c4c565b60405180910390a3610a6c848484610a77565b50505050565b505050565b505050565b600081519050919050565b600082825260208201905092915050565b60005b83811015610ab6578082015181840152602081019050610a9b565b60008484015250505050565b6000601f19601f8301169050919050565b6000610ade82610a7c565b610ae88185610a87565b9350610af8818560208601610a98565b610b0181610ac2565b840191505092915050565b60006020820190508181036000830152610b268184610ad3565b905092915050565b600080fd5b600073ffffffffffffffffffffffffffffffffffffffff82169050919050565b6000610b5e82610b33565b9050919050565b610b6e81610b53565b8114610b7957600080fd5b50565b600081359050610b8b81610b65565b92915050565b6000819050919050565b610ba481610b91565b8114610baf57600080fd5b50565b600081359050610bc181610b9b565b92915050565b60008060408385031215610bde57610bdd610b2e565b5b6000610bec85828601610b7c565b9250506020610bfd85828601610bb2565b9150509250929050565b60008115159050919050565b610c1c81610c07565b82525050565b6000602082019050610c376000830184610c13565b92915050565b610c4681610b91565b82525050565b6000602082019050610c616000830184610c3d565b92915050565b600080600060608486031215610c8057610c7f610b2e565b5b6000610c8e86828701610b7c565b9350506020610c9f86828701610b7c565b9250506040610cb086828701610bb2565b9150509250925092565b600060ff82169050919050565b610cd081610cba565b82525050565b6000602082019050610ceb6000830184610cc7565b92915050565b600060208284031215610d0757610d06610b2e565b5b6000610d1584828501610b7c565b91505092915050565b60008060408385031215610d3557610d34610b2e565b5b6000610d4385828601610b7c565b9250506020610d5485828601610b7c565b9150509250929050565b7f4e487b7100000000000000000000000000000000000000000000000000000000600052602260045260246000fd5b60006002820490506001821680610da557607f821691505b602082108103610db857610db7610d5e565b5b50919050565b7f4e487b7100000000000000000000000000000000000000000000000000000000600052601160045260246000fd5b6000610df882610b91565b9150610e0383610b91565b9250828201905080821115610e1b57610e1a610dbe565b5b92915050565b7f45524332303a2064656372656173656420616c6c6f77616e63652062656c6f7760008201527f207a65726f000000000000000000000000000000000000000000000000000000602082015250565b6000610e7d602583610a87565b9150610e8882610e21565b604082019050919050565b60006020820190508181036000830152610eac81610e70565b9050919050565b7f45524332303a20617070726f76652066726f6d20746865207a65726f2061646460008201527f7265737300000000000000000000000000000000000000000000000000000000602082015250565b6000610f0f602483610a87565b9150610f1a82610eb3565b604082019050919050565b60006020820190508181036000830152610f3e81610f02565b9050919050565b7f45524332303a20617070726f766520746f20746865207a65726f20616464726560008201527f7373000000000000000000000000000000000000000000000000000000000000602082015250565b6000610fa1602283610a87565b9150610fac82610f45565b604082019050919050565b60006020820190508181036000830152610fd081610f94565b9050919050565b7f45524332303a20696e73756666696369656e7420616c6c6f77616e6365000000600082015250565b600061100d601d83610a87565b915061101882610fd7565b602082019050919050565b6000602082019050818103600083015261103c81611000565b9050919050565b7f45524332303a207472616e736665722066726f6d20746865207a65726f20616460008201527f6472657373000000000000000000000000000000000000000000000000000000602082015250565b600061109f602583610a87565b91506110aa82611043565b604082019050919050565b600060208201905081810360008301526110ce81611092565b9050919050565b7f45524332303a207472616e7366657220746f20746865207a65726f206164647260008201527f6573730000000000000000000000000000000000000000000000000000000000602082015250565b6000611131602383610a87565b915061113c826110d5565b604082019050919050565b6000602082019050818103600083015261116081611124565b9050919050565b7f45524332303a207472616e7366657220616d6f756e742065786365656473206260008201527f616c616e63650000000000000000000000000000000000000000000000000000602082015250565b60006111c3602683610a87565b91506111ce82611167565b604082019050919050565b600060208201905081810360008301526111f2816111b6565b905091905056fea26469706673582212209bed254a26eac31b0f13b9891fc64c73ca074d7a0345001763132c864444008e64736f6c63430008130033",
  "immutableReferences": {},
  "source": "// SPDX-License-Identifier: MIT\n\npragma solidity 0.8.19;\n/*\n * This is the main contract of the DAO, later there will be a master for proposals implementing\n * new logic with the use of plugins (facets like) to allow upgradability and flexibility\n * \n * At the moment, it contains :\n * -the logic for the DAO inheriting from other contracts\n * (see DPollMember.sol, DPollStorage.sol, DPollToken.sol, IPollValidator.sol, IDAOPollSubmission.sol for each part of the DAO)\n * -and here the DAO treasury management (replaced later by a vault contract)\n * -and the logic for Polls submission and validation\n * \n * This step of the treasury is simple : \n * -the DAO  receives funds and updates balance of member and treasury, members can then claim their rewards in token (for DAO actions) or ETH (for poll validation)\n * -the DAO acceptes ETH donation and an emergencyWithdraw function is implemented to allow the DAO to withdraw all the ETH (this is a POC only) \n * -AT CREATION : the DAO creates and mints 1_000_000 DPT token. DAO has the total supply and can send it to members as rewards\n *\n * About Poll submissions : see DPollPluginValidator.sol managing this part, locking the fund till the poll is validated or not and then sending it to the DAO or back to the poll owner\n * About DAO proposals : see DPollPluginProposals.sol managing votes and their execution\n *\n * ATTENTION : in the purpose of this exam, the functionalities are limited to the minimum (to respect delay),\n * -all time constraints (delay, duration) concerning the polls validation are removed (to facilitate tests and live demo)\n * \n * ABOUT MEMBERS BALANCES :\n * -member balance is the entry fees claimable later (28days of locking period), in this case to leave the DAO\n * -rewardsBalance is all eth fees gained for paid actions of the DAO (at the moment only for poll validators) claimable as soons as they are available\n * -DPT token is the governance token of the DAO, it is transfert directly to member when they're rewarded for their participation to the DAO\n * +It could later allow more complex incentives system to reward members (with stacking... and using it to ponderate their votes...)\n * +It allows to share a part of the DAO and later to trade it on a DEX\n *\n * -the tokenomics is not yet finished...\n *\n *\n * @todo :\n * -for next versions :\n * +a process to disable the emergencyWithdraw function will be implemented, as well as pausable modifier and process to renonce to ownership and disable the team acces...\n * +a multisig wallet will be implemented to allow the team to manage the DAO treasury the time to time test the dapp and the DAO, this multisig will be disabled later\n * +a better management and naming of role and access \n * +more settings available to be updated or added by the DAO as well as plugins (google like contracts for example...)\n * +more complex incentives system to reward members and validators and a stacking mechanism with the use of the treasury\n * +a separation of the funds locked to pay services, communications, dev... and those used to inject in defi protocols to generate interests (... tokenomics not yet finished)\n *\n */\n\n\n\nimport \"@openzeppelin/contracts/access/Ownable.sol\";\nimport \"./DPollStorage.sol\";\nimport \"./DPollMember.sol\";\nimport \"./DPollToken.sol\";\nimport \"./IPollValidator.sol\";\n// import \"./IDPollPluginValidator.sol\";\n\ncontract DPollDAO is DPollMember {\n    //eth balance of the DAO\n    // event PollStatusChange(address pollAddress, SubmissionStatus newStatus, string message);\n    event DAOBalanceTansfer(address to, address from, uint amount, string action);\n    event DAOTokenTransfer(address to, uint amount, string action);\n\n    constructor() {\n        DAObalance = 0;\n        DPTtoken = new DPollToken(1_000_000 * 10 ** 18);\n        \n        grantRole(msg.sender, MemberRole.MEMBER);\n    }\n\n    function getDPTtokenAddress() public view returns (address) {\n        return address(DPTtoken);\n    }\n\n    function getDAOBalance() public view returns (uint256) {\n        return DAObalance;\n    }\n\n    function getValidatorPluginAddress() public view returns (address) {\n        return DAOPollValidatorAddress;\n    }\n    function getProposalsPluginAddress() public view returns (address) {\n        return DAOProposalsAddress;\n    }\n    //later, passed a delay or a proposal, only the DAO will be abble to call this function\n    function setValidatorPluginAddress(address _pluginAddress) public onlyOwner {\n        DAOPollValidatorAddress = _pluginAddress;\n        // DAOPollValidator = DPollPluginValidator(DAOPollValidatorAddress);\n    }\n\n   \n    function setProposalsPluginAddress(address _pluginAddress) public onlyOwner {\n        DAOProposalsAddress = _pluginAddress;\n        // DAOPollValidator = DPollPluginValidator(DAOPollValidatorAddress);\n    }\n    // receive() external payable {\n    //     //donation to the DAO\n    //     deposit();\n    // }\n\n    // fallback() external payable {\n    //     //donation to the DAO\n    //     deposit();\n    // }\n\n    function deposit() public payable {\n        require(msg.value > 0, \"You need to send some Ether\");\n        DAObalance += msg.value;\n        emit DAOBalanceTansfer(address(this), msg.sender, msg.value, \"Deposit\");\n    } \n\n    //:::::::::::::::::::::::::::: POLL SUBMISSION ::::::::::::::::::::::::\n    function payValidation(uint _amountToDAO, uint _amountToValidators, address[] memory _validators) external payable {\n        require(msg.sender == DAOPollValidatorAddress, \"Only the validator contract can reward validators\");\n        require(_amountToDAO + _amountToValidators <= msg.value, \"The amount to split dont match the amount sent\");\n        DAObalance += _amountToDAO;\n        uint amount = _amountToValidators / _validators.length;\n        uint rest = _amountToValidators % _validators.length;\n        \n        for (uint i = 0; i < _validators.length; i++) {\n            members[_validators[i]].rewardsBalance += amount;\n            // DAObalance -= amount;\n        }\n        DAObalance += rest;\n    }\n\n    function withdrawReward() public {\n        require(members[msg.sender].rewardsBalance > 0, \"You don't have any reward\");\n        uint amount = members[msg.sender].rewardsBalance;\n        members[msg.sender].rewardsBalance = 0;\n        (bool success, ) = payable(msg.sender).call{value: amount}(\"\");\n        require(success, \"Transfer failed.\");\n\n        emit DAOBalanceTansfer(msg.sender, address(this), amount, \"Reward claimed\");\n    }\n\n\n\n    // function emergencyWithdraw() public onlyOwner {\n    //     (bool success, ) = payable(msg.sender).call{value: DAObalance}(\"\");\n    //     require(success, \"Transfer failed.\");\n    //     DAObalance = 0;\n    // }\n\n   //DAo receive the money and store the amount to split between validators and DAO\n    //whan the validation is set the validators reward balance is updated\n    //if the poll is unvalidated, the DAO amount is given back to the poll owner\n    //en token\n    //called by pluginValidator\n    function rewardValidator(address _to) external {\n        require(msg.sender == DAOPollValidatorAddress, \"Only the validator contract can reward validators\");\n        rewardAction(_to);\n    }\n//called by pluginProposals\n    function rewardVoter(address _to) external {\n        require(msg.sender == DAOProposalsAddress, \"Only the proposals contract can reward voters\");\n        rewardAction(_to);\n    }\n\n\n    function rewardAction(address _to) internal {\n        require(_to != address(0), \"Invalid address\");\n        require(members[_to].role == MemberRole.MEMBER, \"Not member\");\n        //1token (18 decimals) for now\n        DPTtoken.transfer(_to, 1 * 10 ** 18);\n\n\n        emit DAOTokenTransfer(_to, 1 * 10 ** 18 , \"Reward\");\n    }\n\n\n}\n",
  "sourcePath": "/home/ibournubuntu/ALYRA/PROJET_FINAL/DPoll/truffle/contracts/DPollDAO.sol",
  "compiler": {
    "name": "solc",
    "version": "0.8.19+commit.7dd6d404.Emscripten.clang"
  },
  "schemaVersion": "3.4.14",
  "updatedAt": "2023-07-26T20:33:07.968Z",
  "networkType": "ethereum",
  "devdoc": {
    "kind": "dev",
    "methods": {
      "owner()": {
        "details": "Returns the address of the current owner."
      },
      "renounceOwnership()": {
        "details": "Leaves the contract without owner. It will not be possible to call `onlyOwner` functions. Can only be called by the current owner. NOTE: Renouncing ownership will leave the contract without an owner, thereby disabling any functionality that is only available to the owner."
      },
      "transferOwnership(address)": {
        "details": "Transfers ownership of the contract to a new account (`newOwner`). Can only be called by the current owner."
      }
    },
    "version": 1
  },
  "userdoc": {
    "kind": "user",
    "methods": {},
    "version": 1
  }
}