{
  "contractName": "PollView",
  "abi": [
    {
      "anonymous": false,
      "inputs": [
        {
          "indexed": true,
          "internalType": "address",
          "name": "previousOwner",
          "type": "address"
        },
        {
          "indexed": true,
          "internalType": "address",
          "name": "newOwner",
          "type": "address"
        }
      ],
      "name": "OwnershipTransferred",
      "type": "event"
    },
    {
      "inputs": [],
      "name": "DAOaddress",
      "outputs": [
        {
          "internalType": "address",
          "name": "",
          "type": "address"
        }
      ],
      "stateMutability": "view",
      "type": "function"
    },
    {
      "inputs": [],
      "name": "MAX_CHOICES_COUNT",
      "outputs": [
        {
          "internalType": "uint256",
          "name": "",
          "type": "uint256"
        }
      ],
      "stateMutability": "view",
      "type": "function"
    },
    {
      "inputs": [],
      "name": "MAX_CHOICES_LENGTH",
      "outputs": [
        {
          "internalType": "uint256",
          "name": "",
          "type": "uint256"
        }
      ],
      "stateMutability": "view",
      "type": "function"
    },
    {
      "inputs": [],
      "name": "MAX_RESPONDENTS_LENGTH",
      "outputs": [
        {
          "internalType": "uint256",
          "name": "",
          "type": "uint256"
        }
      ],
      "stateMutability": "view",
      "type": "function"
    },
    {
      "inputs": [],
      "name": "MAX_TOPICS_LENGTH",
      "outputs": [
        {
          "internalType": "uint256",
          "name": "",
          "type": "uint256"
        }
      ],
      "stateMutability": "view",
      "type": "function"
    },
    {
      "inputs": [],
      "name": "MIN_POLL_AMOUNT",
      "outputs": [
        {
          "internalType": "uint256",
          "name": "",
          "type": "uint256"
        }
      ],
      "stateMutability": "view",
      "type": "function"
    },
    {
      "inputs": [],
      "name": "MIN_RESPONDENT_AMOUNT",
      "outputs": [
        {
          "internalType": "uint256",
          "name": "",
          "type": "uint256"
        }
      ],
      "stateMutability": "view",
      "type": "function"
    },
    {
      "inputs": [],
      "name": "certifierAddress",
      "outputs": [
        {
          "internalType": "address",
          "name": "",
          "type": "address"
        }
      ],
      "stateMutability": "view",
      "type": "function"
    },
    {
      "inputs": [],
      "name": "owner",
      "outputs": [
        {
          "internalType": "address",
          "name": "",
          "type": "address"
        }
      ],
      "stateMutability": "view",
      "type": "function"
    },
    {
      "inputs": [],
      "name": "renounceOwnership",
      "outputs": [],
      "stateMutability": "nonpayable",
      "type": "function"
    },
    {
      "inputs": [
        {
          "internalType": "address",
          "name": "newOwner",
          "type": "address"
        }
      ],
      "name": "transferOwnership",
      "outputs": [],
      "stateMutability": "nonpayable",
      "type": "function"
    },
    {
      "inputs": [],
      "name": "getRequiredResponseCount",
      "outputs": [
        {
          "internalType": "uint256",
          "name": "",
          "type": "uint256"
        }
      ],
      "stateMutability": "view",
      "type": "function"
    },
    {
      "inputs": [],
      "name": "getRespondentsCount",
      "outputs": [
        {
          "internalType": "uint256",
          "name": "",
          "type": "uint256"
        }
      ],
      "stateMutability": "view",
      "type": "function"
    },
    {
      "inputs": [],
      "name": "getPollInformations",
      "outputs": [
        {
          "internalType": "string",
          "name": "",
          "type": "string"
        },
        {
          "internalType": "string",
          "name": "",
          "type": "string"
        }
      ],
      "stateMutability": "view",
      "type": "function"
    },
    {
      "inputs": [],
      "name": "getBalance",
      "outputs": [
        {
          "internalType": "uint256",
          "name": "",
          "type": "uint256"
        }
      ],
      "stateMutability": "view",
      "type": "function"
    },
    {
      "inputs": [],
      "name": "getAmountToRespondent",
      "outputs": [
        {
          "internalType": "uint256",
          "name": "",
          "type": "uint256"
        }
      ],
      "stateMutability": "view",
      "type": "function"
    },
    {
      "inputs": [],
      "name": "getAmountToDAO",
      "outputs": [
        {
          "internalType": "uint256",
          "name": "",
          "type": "uint256"
        }
      ],
      "stateMutability": "view",
      "type": "function"
    },
    {
      "inputs": [],
      "name": "getAmountToValidators",
      "outputs": [
        {
          "internalType": "uint256",
          "name": "",
          "type": "uint256"
        }
      ],
      "stateMutability": "view",
      "type": "function"
    },
    {
      "inputs": [],
      "name": "getRespondentReward",
      "outputs": [
        {
          "internalType": "uint256",
          "name": "",
          "type": "uint256"
        }
      ],
      "stateMutability": "view",
      "type": "function"
    },
    {
      "inputs": [],
      "name": "getPollStatus",
      "outputs": [
        {
          "internalType": "enum PollStorage.PollStatus",
          "name": "",
          "type": "uint8"
        }
      ],
      "stateMutability": "view",
      "type": "function"
    },
    {
      "inputs": [],
      "name": "getPollStatusExt",
      "outputs": [
        {
          "internalType": "uint8",
          "name": "",
          "type": "uint8"
        }
      ],
      "stateMutability": "view",
      "type": "function"
    },
    {
      "inputs": [],
      "name": "getIsCanceled",
      "outputs": [
        {
          "internalType": "bool",
          "name": "",
          "type": "bool"
        }
      ],
      "stateMutability": "view",
      "type": "function"
    },
    {
      "inputs": [
        {
          "internalType": "uint256",
          "name": "_id",
          "type": "uint256"
        }
      ],
      "name": "getTopic",
      "outputs": [
        {
          "components": [
            {
              "internalType": "uint256",
              "name": "firstChoiceIndex",
              "type": "uint256"
            },
            {
              "internalType": "string",
              "name": "question",
              "type": "string"
            },
            {
              "internalType": "string[]",
              "name": "choices",
              "type": "string[]"
            }
          ],
          "internalType": "struct PollStorage.Topic",
          "name": "",
          "type": "tuple"
        }
      ],
      "stateMutability": "view",
      "type": "function"
    },
    {
      "inputs": [],
      "name": "getTopicsLength",
      "outputs": [
        {
          "internalType": "uint256",
          "name": "",
          "type": "uint256"
        }
      ],
      "stateMutability": "view",
      "type": "function"
    },
    {
      "inputs": [],
      "name": "getTopics",
      "outputs": [
        {
          "components": [
            {
              "internalType": "uint256",
              "name": "firstChoiceIndex",
              "type": "uint256"
            },
            {
              "internalType": "string",
              "name": "question",
              "type": "string"
            },
            {
              "internalType": "string[]",
              "name": "choices",
              "type": "string[]"
            }
          ],
          "internalType": "struct PollStorage.Topic[]",
          "name": "",
          "type": "tuple[]"
        }
      ],
      "stateMutability": "view",
      "type": "function"
    }
  ],
  "bytecode": "0x608060405234801561001057600080fd5b5061002d61002261003260201b60201c565b61003a60201b60201c565b6100fe565b600033905090565b60008060009054906101000a900473ffffffffffffffffffffffffffffffffffffffff169050816000806101000a81548173ffffffffffffffffffffffffffffffffffffffff021916908373ffffffffffffffffffffffffffffffffffffffff1602179055508173ffffffffffffffffffffffffffffffffffffffff168173ffffffffffffffffffffffffffffffffffffffff167f8be0079c531659141344cd1fd0a4f28419497f9722a3daafe3b4186f6b6457e060405160405180910390a35050565b6114398061010d6000396000f3fe608060405234801561001057600080fd5b50600436106101725760003560e01c80636a5543e9116100de5780638da5cb5b11610097578063f2fde38b11610071578063f2fde38b146103ec578063f64b0af914610408578063fee0117714610426578063ff4c4e0d1461044457610172565b80638da5cb5b14610392578063a6154064146103b0578063a92a4fae146103ce57610172565b80636a5543e9146102e05780636b126209146102fe578063715018a61461031c5780637165889614610326578063883032e8146103565780638c062e4e1461037457610172565b80633bbe2497116101305780633bbe24971461022c57806342587e721461024a578063442da8bd1461026857806346b7bc911461028657806349cf2eae146102a45780634b4d7aeb146102c257610172565b8062cc86bd1461017757806312065fe0146101955780631dd17d2f146101b35780632a0e1c4f146101d1578063383da4b1146101ef5780633bb3ba3d1461020d575b600080fd5b61017f610462565b60405161018c9190610cb3565b60405180910390f35b61019d61046c565b6040516101aa9190610cb3565b60405180910390f35b6101bb610476565b6040516101c89190610cb3565b60405180910390f35b6101d961047b565b6040516101e69190610ce9565b60405180910390f35b6101f7610492565b6040516102049190610cb3565b60405180910390f35b610215610497565b604051610223929190610d94565b60405180910390f35b6102346105be565b6040516102419190610cb3565b60405180910390f35b6102526105c9565b60405161025f9190610cb3565b60405180910390f35b6102706105d3565b60405161027d9190610cb3565b60405180910390f35b61028e6105dd565b60405161029b9190610cb3565b60405180910390f35b6102ac610624565b6040516102b99190610e0c565b60405180910390f35b6102ca61064a565b6040516102d79190610e43565b60405180910390f35b6102e8610673565b6040516102f59190610cb3565b60405180910390f35b610306610680565b6040516103139190610cb3565b60405180910390f35b610324610686565b005b610340600480360381019061033b9190610e8f565b61069a565b60405161034d919061102e565b60405180910390f35b61035e61084b565b60405161036b91906110c7565b60405180910390f35b61037c610862565b6040516103899190610e0c565b60405180910390f35b61039a610888565b6040516103a79190610e0c565b60405180910390f35b6103b86108b1565b6040516103c59190610cb3565b60405180910390f35b6103d66108b7565b6040516103e39190610cb3565b60405180910390f35b6104066004803603810190610401919061110e565b6108c4565b005b610410610947565b60405161041d9190610cb3565b60405180910390f35b61042e610951565b60405161043b9190611254565b60405180910390f35b61044c610b25565b6040516104599190610cb3565b60405180910390f35b6000600354905090565b6000600854905090565b600a81565b6000600c60019054906101000a900460ff16905090565b603281565b606080600560068180546104aa906112a5565b80601f01602080910402602001604051908101604052809291908181526020018280546104d6906112a5565b80156105235780601f106104f857610100808354040283529160200191610523565b820191906000526020600020905b81548152906001019060200180831161050657829003601f168201915b50505050509150808054610536906112a5565b80601f0160208091040260200160405190810160405280929190818152602001828054610562906112a5565b80156105af5780601f10610584576101008083540402835291602001916105af565b820191906000526020600020905b81548152906001019060200180831161059257829003601f168201915b50505050509050915091509091565b66b1a2bc2ec5000081565b655af3107a400081565b6000600b54905090565b6000600d60003373ffffffffffffffffffffffffffffffffffffffff1673ffffffffffffffffffffffffffffffffffffffff16815260200190815260200160002054905090565b600260009054906101000a900473ffffffffffffffffffffffffffffffffffffffff1681565b6000600c60009054906101000a900460ff16600581111561066e5761066d611050565b5b905090565b6000600f80549050905090565b6103e881565b61068e610b2f565b6106986000610bad565b565b6106a2610c79565b600e82815481106106b6576106b56112d6565b5b9060005260206000209060030201604051806060016040529081600082015481526020016001820180546106e9906112a5565b80601f0160208091040260200160405190810160405280929190818152602001828054610715906112a5565b80156107625780601f1061073757610100808354040283529160200191610762565b820191906000526020600020905b81548152906001019060200180831161074557829003601f168201915b5050505050815260200160028201805480602002602001604051908101604052809291908181526020016000905b8282101561083c5783829060005260206000200180546107af906112a5565b80601f01602080910402602001604051908101604052809291908181526020018280546107db906112a5565b80156108285780601f106107fd57610100808354040283529160200191610828565b820191906000526020600020905b81548152906001019060200180831161080b57829003601f168201915b505050505081526020019060010190610790565b50505050815250509050919050565b6000600c60009054906101000a900460ff16905090565b600160009054906101000a900473ffffffffffffffffffffffffffffffffffffffff1681565b60008060009054906101000a900473ffffffffffffffffffffffffffffffffffffffff16905090565b61010081565b6000600e80549050905090565b6108cc610b2f565b600073ffffffffffffffffffffffffffffffffffffffff168173ffffffffffffffffffffffffffffffffffffffff160361093b576040517f08c379a000000000000000000000000000000000000000000000000000000000815260040161093290611377565b60405180910390fd5b61094481610bad565b50565b6000600954905090565b6060600e805480602002602001604051908101604052809291908181526020016000905b82821015610b1c5783829060005260206000209060030201604051806060016040529081600082015481526020016001820180546109b2906112a5565b80601f01602080910402602001604051908101604052809291908181526020018280546109de906112a5565b8015610a2b5780601f10610a0057610100808354040283529160200191610a2b565b820191906000526020600020905b815481529060010190602001808311610a0e57829003601f168201915b5050505050815260200160028201805480602002602001604051908101604052809291908181526020016000905b82821015610b05578382906000526020600020018054610a78906112a5565b80601f0160208091040260200160405190810160405280929190818152602001828054610aa4906112a5565b8015610af15780601f10610ac657610100808354040283529160200191610af1565b820191906000526020600020905b815481529060010190602001808311610ad457829003601f168201915b505050505081526020019060010190610a59565b505050508152505081526020019060010190610975565b50505050905090565b6000600a54905090565b610b37610c71565b73ffffffffffffffffffffffffffffffffffffffff16610b55610888565b73ffffffffffffffffffffffffffffffffffffffff1614610bab576040517f08c379a0000000000000000000000000000000000000000000000000000000008152600401610ba2906113e3565b60405180910390fd5b565b60008060009054906101000a900473ffffffffffffffffffffffffffffffffffffffff169050816000806101000a81548173ffffffffffffffffffffffffffffffffffffffff021916908373ffffffffffffffffffffffffffffffffffffffff1602179055508173ffffffffffffffffffffffffffffffffffffffff168173ffffffffffffffffffffffffffffffffffffffff167f8be0079c531659141344cd1fd0a4f28419497f9722a3daafe3b4186f6b6457e060405160405180910390a35050565b600033905090565b60405180606001604052806000815260200160608152602001606081525090565b6000819050919050565b610cad81610c9a565b82525050565b6000602082019050610cc86000830184610ca4565b92915050565b60008115159050919050565b610ce381610cce565b82525050565b6000602082019050610cfe6000830184610cda565b92915050565b600081519050919050565b600082825260208201905092915050565b60005b83811015610d3e578082015181840152602081019050610d23565b60008484015250505050565b6000601f19601f8301169050919050565b6000610d6682610d04565b610d708185610d0f565b9350610d80818560208601610d20565b610d8981610d4a565b840191505092915050565b60006040820190508181036000830152610dae8185610d5b565b90508181036020830152610dc28184610d5b565b90509392505050565b600073ffffffffffffffffffffffffffffffffffffffff82169050919050565b6000610df682610dcb565b9050919050565b610e0681610deb565b82525050565b6000602082019050610e216000830184610dfd565b92915050565b600060ff82169050919050565b610e3d81610e27565b82525050565b6000602082019050610e586000830184610e34565b92915050565b600080fd5b610e6c81610c9a565b8114610e7757600080fd5b50565b600081359050610e8981610e63565b92915050565b600060208284031215610ea557610ea4610e5e565b5b6000610eb384828501610e7a565b91505092915050565b610ec581610c9a565b82525050565b600082825260208201905092915050565b6000610ee782610d04565b610ef18185610ecb565b9350610f01818560208601610d20565b610f0a81610d4a565b840191505092915050565b600081519050919050565b600082825260208201905092915050565b6000819050602082019050919050565b6000610f4d8383610edc565b905092915050565b6000602082019050919050565b6000610f6d82610f15565b610f778185610f20565b935083602082028501610f8985610f31565b8060005b85811015610fc55784840389528151610fa68582610f41565b9450610fb183610f55565b925060208a01995050600181019050610f8d565b50829750879550505050505092915050565b6000606083016000830151610fef6000860182610ebc565b50602083015184820360208601526110078282610edc565b915050604083015184820360408601526110218282610f62565b9150508091505092915050565b600060208201905081810360008301526110488184610fd7565b905092915050565b7f4e487b7100000000000000000000000000000000000000000000000000000000600052602160045260246000fd5b600681106110905761108f611050565b5b50565b60008190506110a18261107f565b919050565b60006110b182611093565b9050919050565b6110c1816110a6565b82525050565b60006020820190506110dc60008301846110b8565b92915050565b6110eb81610deb565b81146110f657600080fd5b50565b600081359050611108816110e2565b92915050565b60006020828403121561112457611123610e5e565b5b6000611132848285016110f9565b91505092915050565b600081519050919050565b600082825260208201905092915050565b6000819050602082019050919050565b600060608301600083015161117f6000860182610ebc565b50602083015184820360208601526111978282610edc565b915050604083015184820360408601526111b18282610f62565b9150508091505092915050565b60006111ca8383611167565b905092915050565b6000602082019050919050565b60006111ea8261113b565b6111f48185611146565b93508360208202850161120685611157565b8060005b85811015611242578484038952815161122385826111be565b945061122e836111d2565b925060208a0199505060018101905061120a565b50829750879550505050505092915050565b6000602082019050818103600083015261126e81846111df565b905092915050565b7f4e487b7100000000000000000000000000000000000000000000000000000000600052602260045260246000fd5b600060028204905060018216806112bd57607f821691505b6020821081036112d0576112cf611276565b5b50919050565b7f4e487b7100000000000000000000000000000000000000000000000000000000600052603260045260246000fd5b7f4f776e61626c653a206e6577206f776e657220697320746865207a65726f206160008201527f6464726573730000000000000000000000000000000000000000000000000000602082015250565b6000611361602683610d0f565b915061136c82611305565b604082019050919050565b6000602082019050818103600083015261139081611354565b9050919050565b7f4f776e61626c653a2063616c6c6572206973206e6f7420746865206f776e6572600082015250565b60006113cd602083610d0f565b91506113d882611397565b602082019050919050565b600060208201905081810360008301526113fc816113c0565b905091905056fea2646970667358221220bafa79ce10afa8b49c0e1930bac66a9f6f0f0bfaedfd9008d0c95c78fd69a69964736f6c63430008130033",
  "immutableReferences": {},
  "source": "// SPDX-License-Identifier: MIT\n\npragma solidity 0.8.19;\n\n\n/**\n@title PollView\n@author ibourn\n@notice This contract contains all the getters of the poll contract \n@dev it inherits from PollStorage to access the state variables\n@dev (see PollMaster.sol for comments & explanations)\n@inheritdoc Ownable\n */\n\nimport \"./PollStorage.sol\";\nimport \"./IPollView.sol\";\n\ncontract PollView is PollStorage, IPollView {\n\n    // :::::::::::::::::::::::::: GETTERS :::::::::::::::::::::::::::::: //\n    // function getTimestampLimit() external view returns (uint) {\n    //     return timestampLimit;\n    // }\n\n    function getRequiredResponseCount() external view returns (uint) {\n        return requiredResponseCount;\n    }\n\n    function getRespondentsCount() external view returns (uint) {\n        return answers.length;\n    }\n\n    function getPollInformations() external view returns (string memory, string memory) {\n        return (pollName, pollDescription);\n    }\n\n    function getBalance() external view returns (uint) {\n        return balance;\n    }\n\n    function getAmountToRespondent() external view returns (uint) {\n        return amountToRespondent;\n    }\n\n    function getAmountToDAO() external view returns (uint) {\n        return amountToDAO;\n    }\n\n    function getAmountToValidators() external view returns (uint) {\n        return amountToValidators;\n    }\n\n    function getRespondentReward() external view returns (uint) {\n        return balances[msg.sender];\n    }\n\n    function getPollStatus() external view returns (PollStatus) {\n        return pollStatus;\n    }\n    //test clone call via int\n    function getPollStatusExt() external view returns (uint8) {\n        return uint8(pollStatus);\n    }\n    function getIsCanceled() external view returns (bool) {\n        return isCanceled;\n    }\n\n\n    function getTopic(uint _id) external view returns (Topic memory) {\n        return topics[_id];\n    }\n\n    function getTopicsLength() external view returns (uint) {\n        return topics.length;\n    }\n\n    function getTopics() external view returns (Topic[] memory) {\n        return topics;\n    }\n\n  \n}",
  "sourcePath": "/home/ibournubuntu/ALYRA/PROJET_FINAL/DPoll/truffle/contracts/PollView.sol",
  "compiler": {
    "name": "solc",
    "version": "0.8.19+commit.7dd6d404.Emscripten.clang"
  },
  "schemaVersion": "3.4.14",
  "updatedAt": "2023-07-25T13:10:37.206Z",
  "devdoc": {
    "kind": "dev",
    "methods": {
      "owner()": {
        "details": "Returns the address of the current owner."
      },
      "renounceOwnership()": {
        "details": "Leaves the contract without owner. It will not be possible to call `onlyOwner` functions. Can only be called by the current owner. NOTE: Renouncing ownership will leave the contract without an owner, thereby disabling any functionality that is only available to the owner."
      },
      "transferOwnership(address)": {
        "details": "Transfers ownership of the contract to a new account (`newOwner`). Can only be called by the current owner."
      }
    },
    "version": 1
  },
  "userdoc": {
    "kind": "user",
    "methods": {},
    "version": 1
  }
}