{
  "contractName": "PollUser",
  "abi": [
    {
      "anonymous": false,
      "inputs": [
        {
          "indexed": true,
          "internalType": "address",
          "name": "previousOwner",
          "type": "address"
        },
        {
          "indexed": true,
          "internalType": "address",
          "name": "newOwner",
          "type": "address"
        }
      ],
      "name": "OwnershipTransferred",
      "type": "event"
    },
    {
      "anonymous": false,
      "inputs": [
        {
          "indexed": false,
          "internalType": "enum PollStorage.PollStatus",
          "name": "previousStatus",
          "type": "uint8"
        },
        {
          "indexed": false,
          "internalType": "enum PollStorage.PollStatus",
          "name": "newStatus",
          "type": "uint8"
        }
      ],
      "name": "PollStatusChange",
      "type": "event"
    },
    {
      "anonymous": false,
      "inputs": [
        {
          "indexed": false,
          "internalType": "address",
          "name": "_to",
          "type": "address"
        },
        {
          "indexed": false,
          "internalType": "uint256",
          "name": "_amount",
          "type": "uint256"
        },
        {
          "indexed": false,
          "internalType": "string",
          "name": "_message",
          "type": "string"
        }
      ],
      "name": "PollWithdrawal",
      "type": "event"
    },
    {
      "anonymous": false,
      "inputs": [
        {
          "indexed": false,
          "internalType": "uint256",
          "name": "topicsAdded",
          "type": "uint256"
        },
        {
          "indexed": false,
          "internalType": "uint256",
          "name": "topicsCount",
          "type": "uint256"
        },
        {
          "indexed": false,
          "internalType": "uint256",
          "name": "totalChoicesCount",
          "type": "uint256"
        }
      ],
      "name": "TopicsAdded",
      "type": "event"
    },
    {
      "inputs": [],
      "name": "DAOaddress",
      "outputs": [
        {
          "internalType": "address",
          "name": "",
          "type": "address"
        }
      ],
      "stateMutability": "view",
      "type": "function"
    },
    {
      "inputs": [],
      "name": "MAX_CHOICES_COUNT",
      "outputs": [
        {
          "internalType": "uint256",
          "name": "",
          "type": "uint256"
        }
      ],
      "stateMutability": "view",
      "type": "function"
    },
    {
      "inputs": [],
      "name": "MAX_CHOICES_LENGTH",
      "outputs": [
        {
          "internalType": "uint256",
          "name": "",
          "type": "uint256"
        }
      ],
      "stateMutability": "view",
      "type": "function"
    },
    {
      "inputs": [],
      "name": "MAX_RESPONDENTS_LENGTH",
      "outputs": [
        {
          "internalType": "uint256",
          "name": "",
          "type": "uint256"
        }
      ],
      "stateMutability": "view",
      "type": "function"
    },
    {
      "inputs": [],
      "name": "MAX_TOPICS_LENGTH",
      "outputs": [
        {
          "internalType": "uint256",
          "name": "",
          "type": "uint256"
        }
      ],
      "stateMutability": "view",
      "type": "function"
    },
    {
      "inputs": [],
      "name": "MIN_POLL_AMOUNT",
      "outputs": [
        {
          "internalType": "uint256",
          "name": "",
          "type": "uint256"
        }
      ],
      "stateMutability": "view",
      "type": "function"
    },
    {
      "inputs": [],
      "name": "MIN_RESPONDENT_AMOUNT",
      "outputs": [
        {
          "internalType": "uint256",
          "name": "",
          "type": "uint256"
        }
      ],
      "stateMutability": "view",
      "type": "function"
    },
    {
      "inputs": [
        {
          "internalType": "string",
          "name": "_question",
          "type": "string"
        },
        {
          "internalType": "string[]",
          "name": "_choices",
          "type": "string[]"
        }
      ],
      "name": "addTopic",
      "outputs": [],
      "stateMutability": "nonpayable",
      "type": "function"
    },
    {
      "inputs": [
        {
          "internalType": "string[]",
          "name": "_questions",
          "type": "string[]"
        },
        {
          "internalType": "string[][]",
          "name": "_choices",
          "type": "string[][]"
        }
      ],
      "name": "addTopicsBatch",
      "outputs": [],
      "stateMutability": "nonpayable",
      "type": "function"
    },
    {
      "inputs": [],
      "name": "certifierAddress",
      "outputs": [
        {
          "internalType": "address",
          "name": "",
          "type": "address"
        }
      ],
      "stateMutability": "view",
      "type": "function"
    },
    {
      "inputs": [],
      "name": "claimRefund",
      "outputs": [],
      "stateMutability": "nonpayable",
      "type": "function"
    },
    {
      "inputs": [],
      "name": "endPoll",
      "outputs": [],
      "stateMutability": "nonpayable",
      "type": "function"
    },
    {
      "inputs": [],
      "name": "getAmountToDAO",
      "outputs": [
        {
          "internalType": "uint256",
          "name": "",
          "type": "uint256"
        }
      ],
      "stateMutability": "view",
      "type": "function"
    },
    {
      "inputs": [],
      "name": "getAmountToRespondent",
      "outputs": [
        {
          "internalType": "uint256",
          "name": "",
          "type": "uint256"
        }
      ],
      "stateMutability": "view",
      "type": "function"
    },
    {
      "inputs": [],
      "name": "getAmountToValidators",
      "outputs": [
        {
          "internalType": "uint256",
          "name": "",
          "type": "uint256"
        }
      ],
      "stateMutability": "view",
      "type": "function"
    },
    {
      "inputs": [],
      "name": "getBalance",
      "outputs": [
        {
          "internalType": "uint256",
          "name": "",
          "type": "uint256"
        }
      ],
      "stateMutability": "view",
      "type": "function"
    },
    {
      "inputs": [],
      "name": "getIsCanceled",
      "outputs": [
        {
          "internalType": "bool",
          "name": "",
          "type": "bool"
        }
      ],
      "stateMutability": "view",
      "type": "function"
    },
    {
      "inputs": [],
      "name": "getPackedAnswers",
      "outputs": [
        {
          "internalType": "uint256[]",
          "name": "",
          "type": "uint256[]"
        }
      ],
      "stateMutability": "view",
      "type": "function"
    },
    {
      "inputs": [],
      "name": "getPollInformations",
      "outputs": [
        {
          "internalType": "string",
          "name": "",
          "type": "string"
        },
        {
          "internalType": "string",
          "name": "",
          "type": "string"
        }
      ],
      "stateMutability": "view",
      "type": "function"
    },
    {
      "inputs": [],
      "name": "getPollStatus",
      "outputs": [
        {
          "internalType": "enum PollStorage.PollStatus",
          "name": "",
          "type": "uint8"
        }
      ],
      "stateMutability": "view",
      "type": "function"
    },
    {
      "inputs": [],
      "name": "getPollStatusExt",
      "outputs": [
        {
          "internalType": "uint8",
          "name": "",
          "type": "uint8"
        }
      ],
      "stateMutability": "view",
      "type": "function"
    },
    {
      "inputs": [],
      "name": "getRequiredResponseCount",
      "outputs": [
        {
          "internalType": "uint256",
          "name": "",
          "type": "uint256"
        }
      ],
      "stateMutability": "view",
      "type": "function"
    },
    {
      "inputs": [],
      "name": "getRespondentReward",
      "outputs": [
        {
          "internalType": "uint256",
          "name": "",
          "type": "uint256"
        }
      ],
      "stateMutability": "view",
      "type": "function"
    },
    {
      "inputs": [],
      "name": "getRespondentsCount",
      "outputs": [
        {
          "internalType": "uint256",
          "name": "",
          "type": "uint256"
        }
      ],
      "stateMutability": "view",
      "type": "function"
    },
    {
      "inputs": [
        {
          "internalType": "uint256",
          "name": "_answerId",
          "type": "uint256"
        }
      ],
      "name": "getSelectedChoicesByAnswer",
      "outputs": [
        {
          "internalType": "uint256[]",
          "name": "",
          "type": "uint256[]"
        }
      ],
      "stateMutability": "view",
      "type": "function"
    },
    {
      "inputs": [
        {
          "internalType": "uint256",
          "name": "_id",
          "type": "uint256"
        }
      ],
      "name": "getTopic",
      "outputs": [
        {
          "components": [
            {
              "internalType": "uint256",
              "name": "firstChoiceIndex",
              "type": "uint256"
            },
            {
              "internalType": "string",
              "name": "question",
              "type": "string"
            },
            {
              "internalType": "string[]",
              "name": "choices",
              "type": "string[]"
            }
          ],
          "internalType": "struct PollStorage.Topic",
          "name": "",
          "type": "tuple"
        }
      ],
      "stateMutability": "view",
      "type": "function"
    },
    {
      "inputs": [],
      "name": "getTopics",
      "outputs": [
        {
          "components": [
            {
              "internalType": "uint256",
              "name": "firstChoiceIndex",
              "type": "uint256"
            },
            {
              "internalType": "string",
              "name": "question",
              "type": "string"
            },
            {
              "internalType": "string[]",
              "name": "choices",
              "type": "string[]"
            }
          ],
          "internalType": "struct PollStorage.Topic[]",
          "name": "",
          "type": "tuple[]"
        }
      ],
      "stateMutability": "view",
      "type": "function"
    },
    {
      "inputs": [],
      "name": "getTopicsLength",
      "outputs": [
        {
          "internalType": "uint256",
          "name": "",
          "type": "uint256"
        }
      ],
      "stateMutability": "view",
      "type": "function"
    },
    {
      "inputs": [],
      "name": "getUnpackedAnswers",
      "outputs": [
        {
          "internalType": "uint256[][]",
          "name": "",
          "type": "uint256[][]"
        }
      ],
      "stateMutability": "view",
      "type": "function"
    },
    {
      "inputs": [],
      "name": "owner",
      "outputs": [
        {
          "internalType": "address",
          "name": "",
          "type": "address"
        }
      ],
      "stateMutability": "view",
      "type": "function"
    },
    {
      "inputs": [],
      "name": "renounceOwnership",
      "outputs": [],
      "stateMutability": "nonpayable",
      "type": "function"
    },
    {
      "inputs": [
        {
          "internalType": "address",
          "name": "pollAddress",
          "type": "address"
        },
        {
          "internalType": "bool",
          "name": "isValid",
          "type": "bool"
        }
      ],
      "name": "setPollValidation",
      "outputs": [],
      "stateMutability": "payable",
      "type": "function"
    },
    {
      "inputs": [],
      "name": "submitPoll",
      "outputs": [],
      "stateMutability": "nonpayable",
      "type": "function"
    },
    {
      "inputs": [
        {
          "internalType": "address",
          "name": "newOwner",
          "type": "address"
        }
      ],
      "name": "transferOwnership",
      "outputs": [],
      "stateMutability": "nonpayable",
      "type": "function"
    },
    {
      "inputs": [],
      "name": "getEligibility",
      "outputs": [
        {
          "internalType": "bool",
          "name": "",
          "type": "bool"
        }
      ],
      "stateMutability": "view",
      "type": "function"
    },
    {
      "inputs": [
        {
          "internalType": "uint256[]",
          "name": "_chosenChoices",
          "type": "uint256[]"
        },
        {
          "internalType": "bytes32",
          "name": "_eligibilityProof",
          "type": "bytes32"
        }
      ],
      "name": "addAnswer",
      "outputs": [],
      "stateMutability": "nonpayable",
      "type": "function"
    },
    {
      "inputs": [],
      "name": "claimReward",
      "outputs": [],
      "stateMutability": "nonpayable",
      "type": "function"
    }
  ],
  "bytecode": "0x60806040523480156200001157600080fd5b5062000032620000266200003860201b60201c565b6200004060201b60201c565b62000104565b600033905090565b60008060009054906101000a900473ffffffffffffffffffffffffffffffffffffffff169050816000806101000a81548173ffffffffffffffffffffffffffffffffffffffff021916908373ffffffffffffffffffffffffffffffffffffffff1602179055508173ffffffffffffffffffffffffffffffffffffffff168173ffffffffffffffffffffffffffffffffffffffff167f8be0079c531659141344cd1fd0a4f28419497f9722a3daafe3b4186f6b6457e060405160405180910390a35050565b61487080620001146000396000f3fe6080604052600436106102195760003560e01c80637165889611610123578063b5545a3c116100ab578063f5d4d2a81161006f578063f5d4d2a81461072a578063f64b0af914610755578063f73649f614610780578063fee01177146107a9578063ff4c4e0d146107d457610219565b8063b5545a3c1461068e578063b88a802f146106a5578063e1b9742a146106bc578063ef98cd62146106d8578063f2fde38b1461070157610219565b80638d99b2eb116100f25780638d99b2eb146105b95780638da5cb5b146105d0578063a3948a0d146105fb578063a615406414610638578063a92a4fae1461066357610219565b806371658896146104fd5780638389a3eb1461053a578063883032e8146105635780638c062e4e1461058e57610219565b806342587e72116101a65780634b4d7aeb116101755780634b4d7aeb1461043a57806356528cac146104655780636a5543e9146104905780636b126209146104bb578063715018a6146104e657610219565b806342587e721461038e578063442da8bd146103b957806346b7bc91146103e457806349cf2eae1461040f57610219565b80631dd17d2f116101ed5780631dd17d2f146102b65780632a0e1c4f146102e1578063383da4b11461030c5780633bb3ba3d146103375780633bbe24971461036357610219565b8062cc86bd1461021e57806305f9d4ad1461024957806312065fe0146102605780631a7316ab1461028b575b600080fd5b34801561022a57600080fd5b506102336107ff565b60405161024091906127f3565b60405180910390f35b34801561025557600080fd5b5061025e610809565b005b34801561026c57600080fd5b5061027561099a565b60405161028291906127f3565b60405180910390f35b34801561029757600080fd5b506102a06109a4565b6040516102ad9190612829565b60405180910390f35b3480156102c257600080fd5b506102cb610a70565b6040516102d891906127f3565b60405180910390f35b3480156102ed57600080fd5b506102f6610a75565b6040516103039190612829565b60405180910390f35b34801561031857600080fd5b50610321610a8c565b60405161032e91906127f3565b60405180910390f35b34801561034357600080fd5b5061034c610a91565b60405161035a9291906128d4565b60405180910390f35b34801561036f57600080fd5b50610378610bb8565b60405161038591906127f3565b60405180910390f35b34801561039a57600080fd5b506103a3610bc3565b6040516103b091906127f3565b60405180910390f35b3480156103c557600080fd5b506103ce610bcd565b6040516103db91906127f3565b60405180910390f35b3480156103f057600080fd5b506103f9610bd7565b60405161040691906127f3565b60405180910390f35b34801561041b57600080fd5b50610424610c1e565b604051610431919061294c565b60405180910390f35b34801561044657600080fd5b5061044f610c44565b60405161045c9190612983565b60405180910390f35b34801561047157600080fd5b5061047a610c6d565b6040516104879190612a5c565b60405180910390f35b34801561049c57600080fd5b506104a5610d42565b6040516104b291906127f3565b60405180910390f35b3480156104c757600080fd5b506104d0610d4f565b6040516104dd91906127f3565b60405180910390f35b3480156104f257600080fd5b506104fb610d55565b005b34801561050957600080fd5b50610524600480360381019061051f9190612abe565b610d69565b6040516105319190612c4e565b60405180910390f35b34801561054657600080fd5b50610561600480360381019061055c9190612d2b565b610f1a565b005b34801561056f57600080fd5b50610578611146565b6040516105859190612e23565b60405180910390f35b34801561059a57600080fd5b506105a361115d565b6040516105b0919061294c565b60405180910390f35b3480156105c557600080fd5b506105ce611183565b005b3480156105dc57600080fd5b506105e561122e565b6040516105f2919061294c565b60405180910390f35b34801561060757600080fd5b50610622600480360381019061061d9190612abe565b611257565b60405161062f9190612a5c565b60405180910390f35b34801561064457600080fd5b5061064d611304565b60405161065a91906127f3565b60405180910390f35b34801561066f57600080fd5b5061067861130a565b60405161068591906127f3565b60405180910390f35b34801561069a57600080fd5b506106a3611317565b005b3480156106b157600080fd5b506106ba61139e565b005b6106d660048036038101906106d19190612e96565b61168b565b005b3480156106e457600080fd5b506106ff60048036038101906106fa9190612f2c565b6118cd565b005b34801561070d57600080fd5b5061072860048036038101906107239190612fad565b611b2d565b005b34801561073657600080fd5b5061073f611bb0565b60405161074c919061310b565b60405180910390f35b34801561076157600080fd5b5061076a611cd9565b60405161077791906127f3565b60405180910390f35b34801561078c57600080fd5b506107a760048036038101906107a291906131b9565b611ce3565b005b3480156107b557600080fd5b506107be611f1c565b6040516107cb9190613332565b60405180910390f35b3480156107e057600080fd5b506107e96120f0565b6040516107f691906127f3565b60405180910390f35b6000600354905090565b6108116120fa565b6000600581111561082557610824612dac565b5b600c60009054906101000a900460ff16600581111561084757610846612dac565b5b14610887576040517f08c379a000000000000000000000000000000000000000000000000000000000815260040161087e906133a0565b60405180910390fd5b6000600954600a5461089991906133ef565b9050600160009054906101000a900473ffffffffffffffffffffffffffffffffffffffff1673ffffffffffffffffffffffffffffffffffffffff1663b46411c38230600a546009546040518563ffffffff1660e01b81526004016108ff93929190613423565b6000604051808303818588803b15801561091857600080fd5b505af115801561092c573d6000803e3d6000fd5b50505050506001600c60006101000a81548160ff0219169083600581111561095757610956612dac565b5b02179055507f20f7c135505514c16ee7e30eb8127c87b82a910a6b28e61ad0feb1a77473f4fe6000600160405161098f92919061345a565b60405180910390a150565b6000600854905090565b60006040516020016109b590613500565b60405160208183030381529060405280519060200120600260009054906101000a900473ffffffffffffffffffffffffffffffffffffffff1673ffffffffffffffffffffffffffffffffffffffff1663384d405b6007336040518363ffffffff1660e01b8152600401610a2992919061360e565b602060405180830381865afa158015610a46573d6000803e3d6000fd5b505050506040513d601f19601f82011682018060405250810190610a6a9190613653565b14905090565b600a81565b6000600c60019054906101000a900460ff16905090565b603281565b60608060056006818054610aa490613544565b80601f0160208091040260200160405190810160405280929190818152602001828054610ad090613544565b8015610b1d5780601f10610af257610100808354040283529160200191610b1d565b820191906000526020600020905b815481529060010190602001808311610b0057829003601f168201915b50505050509150808054610b3090613544565b80601f0160208091040260200160405190810160405280929190818152602001828054610b5c90613544565b8015610ba95780601f10610b7e57610100808354040283529160200191610ba9565b820191906000526020600020905b815481529060010190602001808311610b8c57829003601f168201915b50505050509050915091509091565b66b1a2bc2ec5000081565b655af3107a400081565b6000600b54905090565b6000600d60003373ffffffffffffffffffffffffffffffffffffffff1673ffffffffffffffffffffffffffffffffffffffff16815260200190815260200160002054905090565b600260009054906101000a900473ffffffffffffffffffffffffffffffffffffffff1681565b6000600c60009054906101000a900460ff166005811115610c6857610c67612dac565b5b905090565b6060610c776120fa565b600580811115610c8a57610c89612dac565b5b600c60009054906101000a900460ff166005811115610cac57610cab612dac565b5b14610cec576040517f08c379a0000000000000000000000000000000000000000000000000000000008152600401610ce3906136cc565b60405180910390fd5b600f805480602002602001604051908101604052809291908181526020018280548015610d3857602002820191906000526020600020905b815481526020019060010190808311610d24575b5050505050905090565b6000600f80549050905090565b6103e881565b610d5d6120fa565b610d676000612178565b565b610d716126df565b600e8281548110610d8557610d846136ec565b5b906000526020600020906003020160405180606001604052908160008201548152602001600182018054610db890613544565b80601f0160208091040260200160405190810160405280929190818152602001828054610de490613544565b8015610e315780601f10610e0657610100808354040283529160200191610e31565b820191906000526020600020905b815481529060010190602001808311610e1457829003601f168201915b5050505050815260200160028201805480602002602001604051908101604052809291908181526020016000905b82821015610f0b578382906000526020600020018054610e7e90613544565b80601f0160208091040260200160405190810160405280929190818152602001828054610eaa90613544565b8015610ef75780601f10610ecc57610100808354040283529160200191610ef7565b820191906000526020600020905b815481529060010190602001808311610eda57829003601f168201915b505050505081526020019060010190610e5f565b50505050815250509050919050565b610f226120fa565b818190508484905014610f6a576040517f08c379a0000000000000000000000000000000000000000000000000000000008152600401610f6190613767565b60405180910390fd5b600060045490506000600e905060005b868690508110156110f157610f8d6126df565b83816000018181525050878783818110610faa57610fa96136ec565b5b9050602002810190610fbc9190613796565b8080601f016020809104026020016040519081016040528093929190818152602001838380828437600081840152601f19601f82011690508083019250505050505050816020018190525085858381811061101a576110196136ec565b5b905060200281019061102c91906137f9565b906110379190613a3f565b8160400181905250858583818110611052576110516136ec565b5b905060200281019061106491906137f9565b90508461107191906133ef565b9350828190806001815401808255809150506001900390600052602060002090600302016000909190919091506000820151816000015560208201518160010190816110bd9190613beb565b5060408201518160020190805190602001906110da929190612700565b5050505080806110e990613cbd565b915050610f7a565b50816004819055507fbf7e450152e82a72724b6c2028c2955b2294c0579262526315aa44919e2be9c586869050600e8054905060045460405161113693929190613d05565b60405180910390a1505050505050565b6000600c60009054906101000a900460ff16905090565b600160009054906101000a900473ffffffffffffffffffffffffffffffffffffffff1681565b61118b6120fa565b6004600581111561119f5761119e612dac565b5b600c60009054906101000a900460ff1660058111156111c1576111c0612dac565b5b14611201576040517f08c379a00000000000000000000000000000000000000000000000000000000081526004016111f890613d88565b60405180910390fd5b6005600c60006101000a81548160ff0219169083600581111561122757611226612dac565b5b0217905550565b60008060009054906101000a900473ffffffffffffffffffffffffffffffffffffffff16905090565b60606112616120fa565b60058081111561127457611273612dac565b5b600c60009054906101000a900460ff16600581111561129657611295612dac565b5b146112d6576040517f08c379a00000000000000000000000000000000000000000000000000000000081526004016112cd906136cc565b60405180910390fd5b6112fd600f83815481106112ed576112ec6136ec565b5b906000526020600020015461223c565b9050919050565b61010081565b6000600e80549050905090565b61131f6120fa565b60058081111561133257611331612dac565b5b600c60009054906101000a900460ff16600581111561135457611353612dac565b5b14611394576040517f08c379a000000000000000000000000000000000000000000000000000000000815260040161138b90613df4565b60405180910390fd5b61139c6122f8565b565b6005808111156113b1576113b0612dac565b5b600c60009054906101000a900460ff1660058111156113d3576113d2612dac565b5b14611413576040517f08c379a000000000000000000000000000000000000000000000000000000000815260040161140a906136cc565b60405180910390fd5b6000600d60003373ffffffffffffffffffffffffffffffffffffffff1673ffffffffffffffffffffffffffffffffffffffff1681526020019081526020016000205403611495576040517f08c379a000000000000000000000000000000000000000000000000000000000815260040161148c90613e60565b60405180910390fd5b600d60003373ffffffffffffffffffffffffffffffffffffffff1673ffffffffffffffffffffffffffffffffffffffff168152602001908152602001600020546008541015611519576040517f08c379a000000000000000000000000000000000000000000000000000000000815260040161151090613ecc565b60405180910390fd5b6000600d60003373ffffffffffffffffffffffffffffffffffffffff1673ffffffffffffffffffffffffffffffffffffffff1681526020019081526020016000205490506000600d60003373ffffffffffffffffffffffffffffffffffffffff1673ffffffffffffffffffffffffffffffffffffffff1681526020019081526020016000208190555060003373ffffffffffffffffffffffffffffffffffffffff16826040516115c890613f1d565b60006040518083038185875af1925050503d8060008114611605576040519150601f19603f3d011682016040523d82523d6000602084013e61160a565b606091505b505090508061164e576040517f08c379a000000000000000000000000000000000000000000000000000000000815260040161164590613f7e565b60405180910390fd5b7fbb23de5c4d0ac7c049b292881397f32ddab597aebe0859c2baf41548d5c20c37338360405161167f929190613fea565b60405180910390a15050565b600160009054906101000a900473ffffffffffffffffffffffffffffffffffffffff1673ffffffffffffffffffffffffffffffffffffffff163373ffffffffffffffffffffffffffffffffffffffff161461171b576040517f08c379a000000000000000000000000000000000000000000000000000000000815260040161171290614072565b60405180910390fd5b6001600581111561172f5761172e612dac565b5b600c60009054906101000a900460ff16600581111561175157611750612dac565b5b14611791576040517f08c379a0000000000000000000000000000000000000000000000000000000008152600401611788906140de565b60405180910390fd5b3073ffffffffffffffffffffffffffffffffffffffff168273ffffffffffffffffffffffffffffffffffffffff16146117ff576040517f08c379a00000000000000000000000000000000000000000000000000000000081526004016117f69061414a565b60405180910390fd5b808061180d57506009543410155b61184c576040517f08c379a0000000000000000000000000000000000000000000000000000000008152600401611843906141b6565b60405180910390fd5b8015611882576004600c60006101000a81548160ff0219169083600581111561187857611877612dac565b5b02179055506118c9565b6001600c60016101000a81548160ff0219169083151502179055506005600c60006101000a81548160ff021916908360058111156118c3576118c2612dac565b5b02179055505b5050565b6118d56120fa565b600060058111156118e9576118e8612dac565b5b600c60009054906101000a900460ff16600581111561190b5761190a612dac565b5b1461194b576040517f08c379a0000000000000000000000000000000000000000000000000000000008152600401611942906133a0565b60405180910390fd5b600a828290501115611992576040517f08c379a000000000000000000000000000000000000000000000000000000000815260040161198990614222565b60405180910390fd5b6032828290506004546119a591906133ef565b11156119e6576040517f08c379a00000000000000000000000000000000000000000000000000000000081526004016119dd9061428e565b60405180910390fd5b6119ee6126df565b60045481600001818152505084848080601f016020809104026020016040519081016040528093929190818152602001838380828437600081840152601f19601f820116905080830192505050505050508160200181905250828290611a549190613a3f565b81604001819052508282905060046000828254611a7191906133ef565b92505081905550600e819080600181540180825580915050600190039060005260206000209060030201600090919091909150600082015181600001556020820151816001019081611ac39190613beb565b506040820151816002019080519060200190611ae0929190612700565b5050507fbf7e450152e82a72724b6c2028c2955b2294c0579262526315aa44919e2be9c56001600e80549050600454604051611b1e939291906142e9565b60405180910390a15050505050565b611b356120fa565b600073ffffffffffffffffffffffffffffffffffffffff168173ffffffffffffffffffffffffffffffffffffffff1603611ba4576040517f08c379a0000000000000000000000000000000000000000000000000000000008152600401611b9b90614392565b60405180910390fd5b611bad81612178565b50565b6060611bba6120fa565b600580811115611bcd57611bcc612dac565b5b600c60009054906101000a900460ff166005811115611bef57611bee612dac565b5b14611c2f576040517f08c379a0000000000000000000000000000000000000000000000000000000008152600401611c26906136cc565b60405180910390fd5b6000600f80549050905060008167ffffffffffffffff811115611c5557611c5461385c565b5b604051908082528060200260200182016040528015611c8857816020015b6060815260200190600190039081611c735790505b50905060005b82811015611cd057611c9f81611257565b828281518110611cb257611cb16136ec565b5b60200260200101819052508080611cc890613cbd565b915050611c8e565b50809250505090565b6000600954905090565b60046005811115611cf757611cf6612dac565b5b600c60009054906101000a900460ff166005811115611d1957611d18612dac565b5b14611d59576040517f08c379a0000000000000000000000000000000000000000000000000000000008152600401611d5090613d88565b60405180910390fd5b6000600d60003373ffffffffffffffffffffffffffffffffffffffff1673ffffffffffffffffffffffffffffffffffffffff1681526020019081526020016000205414611ddb576040517f08c379a0000000000000000000000000000000000000000000000000000000008152600401611dd2906143fe565b60405180910390fd5b600454838390501115611e23576040517f08c379a0000000000000000000000000000000000000000000000000000000008152600401611e1a9061446a565b60405180910390fd5b611e2b6109a4565b611e6a576040517f08c379a0000000000000000000000000000000000000000000000000000000008152600401611e61906144d6565b60405180910390fd5b6004548383600186869050611e7f91906144f6565b818110611e8f57611e8e6136ec565b5b9050602002013510611ed6576040517f08c379a0000000000000000000000000000000000000000000000000000000008152600401611ecd90614576565b60405180910390fd5b6000611ee28484612482565b9050600f819080600181540180825580915050600190039060005260206000200160009091909190915055611f163361255f565b50505050565b6060600e805480602002602001604051908101604052809291908181526020016000905b828210156120e7578382906000526020600020906003020160405180606001604052908160008201548152602001600182018054611f7d90613544565b80601f0160208091040260200160405190810160405280929190818152602001828054611fa990613544565b8015611ff65780601f10611fcb57610100808354040283529160200191611ff6565b820191906000526020600020905b815481529060010190602001808311611fd957829003601f168201915b5050505050815260200160028201805480602002602001604051908101604052809291908181526020016000905b828210156120d057838290600052602060002001805461204390613544565b80601f016020809104026020016040519081016040528092919081815260200182805461206f90613544565b80156120bc5780601f10612091576101008083540402835291602001916120bc565b820191906000526020600020905b81548152906001019060200180831161209f57829003601f168201915b505050505081526020019060010190612024565b505050508152505081526020019060010190611f40565b50505050905090565b6000600a54905090565b61210261269e565b73ffffffffffffffffffffffffffffffffffffffff1661212061122e565b73ffffffffffffffffffffffffffffffffffffffff1614612176576040517f08c379a000000000000000000000000000000000000000000000000000000000815260040161216d906145e2565b60405180910390fd5b565b60008060009054906101000a900473ffffffffffffffffffffffffffffffffffffffff169050816000806101000a81548173ffffffffffffffffffffffffffffffffffffffff021916908373ffffffffffffffffffffffffffffffffffffffff1602179055508173ffffffffffffffffffffffffffffffffffffffff168173ffffffffffffffffffffffffffffffffffffffff167f8be0079c531659141344cd1fd0a4f28419497f9722a3daafe3b4186f6b6457e060405160405180910390a35050565b60606000612249836126a6565b905060008167ffffffffffffffff8111156122675761226661385c565b5b6040519080825280602002602001820160405280156122955781602001602082028036833780820191505090505b5090506000805b6101008110156122ec576000816001901b8716146122e157808383815181106122c8576122c76136ec565b5b602002602001018181525050816122de90613cbd565b91505b80600101905061229c565b50819350505050919050565b6123006120fa565b600060085411612345576040517f08c379a000000000000000000000000000000000000000000000000000000000815260040161233c906141b6565b60405180910390fd5b47600854111561238a576040517f08c379a000000000000000000000000000000000000000000000000000000000815260040161238190613ecc565b60405180910390fd5b60006008549050600060088190555060003373ffffffffffffffffffffffffffffffffffffffff16826040516123bf90613f1d565b60006040518083038185875af1925050503d80600081146123fc576040519150601f19603f3d011682016040523d82523d6000602084013e612401565b606091505b5050905080612445576040517f08c379a000000000000000000000000000000000000000000000000000000000815260040161243c9061464e565b60405180910390fd5b7fbb23de5c4d0ac7c049b292881397f32ddab597aebe0859c2baf41548d5c20c3733836040516124769291906146ba565b60405180910390a15050565b6000808383905090506101008111156124d0576040517f08c379a00000000000000000000000000000000000000000000000000000000081526004016124c790614742565b60405180910390fd5b60008060005b83811015612552578686828181106124f1576124f06136ec565b5b90506020020135925060ff83111561253e576040517f08c379a0000000000000000000000000000000000000000000000000000000008152600401612535906147ae565b60405180910390fd5b826001901b821791508060010190506124d6565b5080935050505092915050565b6000600d60008373ffffffffffffffffffffffffffffffffffffffff1673ffffffffffffffffffffffffffffffffffffffff16815260200190815260200160002054146125e1576040517f08c379a00000000000000000000000000000000000000000000000000000000081526004016125d89061481a565b60405180910390fd5b600b546008541015612628576040517f08c379a000000000000000000000000000000000000000000000000000000000815260040161261f90613ecc565b60405180910390fd5b600b546008600082825461263c91906144f6565b92505081905550600b54600d60008373ffffffffffffffffffffffffffffffffffffffff1673ffffffffffffffffffffffffffffffffffffffff168152602001908152602001600020600082825461269491906133ef565b9250508190555050565b600033905090565b60008060008390505b60008111156126d55760018116826126c791906133ef565b9150600181901c90506126af565b8192505050919050565b60405180606001604052806000815260200160608152602001606081525090565b828054828255906000526020600020908101928215612748579160200282015b828111156127475782518290816127379190613beb565b5091602001919060010190612720565b5b5090506127559190612759565b5090565b5b808211156127795760008181612770919061277d565b5060010161275a565b5090565b50805461278990613544565b6000825580601f1061279b57506127ba565b601f0160209004906000526020600020908101906127b991906127bd565b5b50565b5b808211156127d65760008160009055506001016127be565b5090565b6000819050919050565b6127ed816127da565b82525050565b600060208201905061280860008301846127e4565b92915050565b60008115159050919050565b6128238161280e565b82525050565b600060208201905061283e600083018461281a565b92915050565b600081519050919050565b600082825260208201905092915050565b60005b8381101561287e578082015181840152602081019050612863565b60008484015250505050565b6000601f19601f8301169050919050565b60006128a682612844565b6128b0818561284f565b93506128c0818560208601612860565b6128c98161288a565b840191505092915050565b600060408201905081810360008301526128ee818561289b565b90508181036020830152612902818461289b565b90509392505050565b600073ffffffffffffffffffffffffffffffffffffffff82169050919050565b60006129368261290b565b9050919050565b6129468161292b565b82525050565b6000602082019050612961600083018461293d565b92915050565b600060ff82169050919050565b61297d81612967565b82525050565b60006020820190506129986000830184612974565b92915050565b600081519050919050565b600082825260208201905092915050565b6000819050602082019050919050565b6129d3816127da565b82525050565b60006129e583836129ca565b60208301905092915050565b6000602082019050919050565b6000612a098261299e565b612a1381856129a9565b9350612a1e836129ba565b8060005b83811015612a4f578151612a3688826129d9565b9750612a41836129f1565b925050600181019050612a22565b5085935050505092915050565b60006020820190508181036000830152612a7681846129fe565b905092915050565b6000604051905090565b600080fd5b600080fd5b612a9b816127da565b8114612aa657600080fd5b50565b600081359050612ab881612a92565b92915050565b600060208284031215612ad457612ad3612a88565b5b6000612ae284828501612aa9565b91505092915050565b600082825260208201905092915050565b6000612b0782612844565b612b118185612aeb565b9350612b21818560208601612860565b612b2a8161288a565b840191505092915050565b600081519050919050565b600082825260208201905092915050565b6000819050602082019050919050565b6000612b6d8383612afc565b905092915050565b6000602082019050919050565b6000612b8d82612b35565b612b978185612b40565b935083602082028501612ba985612b51565b8060005b85811015612be55784840389528151612bc68582612b61565b9450612bd183612b75565b925060208a01995050600181019050612bad565b50829750879550505050505092915050565b6000606083016000830151612c0f60008601826129ca565b5060208301518482036020860152612c278282612afc565b91505060408301518482036040860152612c418282612b82565b9150508091505092915050565b60006020820190508181036000830152612c688184612bf7565b905092915050565b600080fd5b600080fd5b600080fd5b60008083601f840112612c9557612c94612c70565b5b8235905067ffffffffffffffff811115612cb257612cb1612c75565b5b602083019150836020820283011115612cce57612ccd612c7a565b5b9250929050565b60008083601f840112612ceb57612cea612c70565b5b8235905067ffffffffffffffff811115612d0857612d07612c75565b5b602083019150836020820283011115612d2457612d23612c7a565b5b9250929050565b60008060008060408587031215612d4557612d44612a88565b5b600085013567ffffffffffffffff811115612d6357612d62612a8d565b5b612d6f87828801612c7f565b9450945050602085013567ffffffffffffffff811115612d9257612d91612a8d565b5b612d9e87828801612cd5565b925092505092959194509250565b7f4e487b7100000000000000000000000000000000000000000000000000000000600052602160045260246000fd5b60068110612dec57612deb612dac565b5b50565b6000819050612dfd82612ddb565b919050565b6000612e0d82612def565b9050919050565b612e1d81612e02565b82525050565b6000602082019050612e386000830184612e14565b92915050565b612e478161292b565b8114612e5257600080fd5b50565b600081359050612e6481612e3e565b92915050565b612e738161280e565b8114612e7e57600080fd5b50565b600081359050612e9081612e6a565b92915050565b60008060408385031215612ead57612eac612a88565b5b6000612ebb85828601612e55565b9250506020612ecc85828601612e81565b9150509250929050565b60008083601f840112612eec57612eeb612c70565b5b8235905067ffffffffffffffff811115612f0957612f08612c75565b5b602083019150836001820283011115612f2557612f24612c7a565b5b9250929050565b60008060008060408587031215612f4657612f45612a88565b5b600085013567ffffffffffffffff811115612f6457612f63612a8d565b5b612f7087828801612ed6565b9450945050602085013567ffffffffffffffff811115612f9357612f92612a8d565b5b612f9f87828801612c7f565b925092505092959194509250565b600060208284031215612fc357612fc2612a88565b5b6000612fd184828501612e55565b91505092915050565b600081519050919050565b600082825260208201905092915050565b6000819050602082019050919050565b600082825260208201905092915050565b60006130228261299e565b61302c8185613006565b9350613037836129ba565b8060005b8381101561306857815161304f88826129d9565b975061305a836129f1565b92505060018101905061303b565b5085935050505092915050565b60006130818383613017565b905092915050565b6000602082019050919050565b60006130a182612fda565b6130ab8185612fe5565b9350836020820285016130bd85612ff6565b8060005b858110156130f957848403895281516130da8582613075565b94506130e583613089565b925060208a019950506001810190506130c1565b50829750879550505050505092915050565b600060208201905081810360008301526131258184613096565b905092915050565b60008083601f84011261314357613142612c70565b5b8235905067ffffffffffffffff8111156131605761315f612c75565b5b60208301915083602082028301111561317c5761317b612c7a565b5b9250929050565b6000819050919050565b61319681613183565b81146131a157600080fd5b50565b6000813590506131b38161318d565b92915050565b6000806000604084860312156131d2576131d1612a88565b5b600084013567ffffffffffffffff8111156131f0576131ef612a8d565b5b6131fc8682870161312d565b9350935050602061320f868287016131a4565b9150509250925092565b600081519050919050565b600082825260208201905092915050565b6000819050602082019050919050565b600060608301600083015161325d60008601826129ca565b50602083015184820360208601526132758282612afc565b9150506040830151848203604086015261328f8282612b82565b9150508091505092915050565b60006132a88383613245565b905092915050565b6000602082019050919050565b60006132c882613219565b6132d28185613224565b9350836020820285016132e485613235565b8060005b858110156133205784840389528151613301858261329c565b945061330c836132b0565b925060208a019950506001810190506132e8565b50829750879550505050505092915050565b6000602082019050818103600083015261334c81846132bd565b905092915050565b7f506f6c6c20616c7265616479207375626d697474656400000000000000000000600082015250565b600061338a60168361284f565b915061339582613354565b602082019050919050565b600060208201905081810360008301526133b98161337d565b9050919050565b7f4e487b7100000000000000000000000000000000000000000000000000000000600052601160045260246000fd5b60006133fa826127da565b9150613405836127da565b925082820190508082111561341d5761341c6133c0565b5b92915050565b6000606082019050613438600083018661293d565b61344560208301856127e4565b61345260408301846127e4565b949350505050565b600060408201905061346f6000830185612e14565b61347c6020830184612e14565b9392505050565b600081905092915050565b7f4920636c61696d2074686973206164647265737320697320636572746966696560008201527f6400000000000000000000000000000000000000000000000000000000000000602082015250565b60006134ea602183613483565b91506134f58261348e565b602182019050919050565b600061350b826134dd565b9150819050919050565b7f4e487b7100000000000000000000000000000000000000000000000000000000600052602260045260246000fd5b6000600282049050600182168061355c57607f821691505b60208210810361356f5761356e613515565b5b50919050565b60008190508160005260206000209050919050565b6000815461359781613544565b6135a1818661284f565b945060018216600081146135bc57600181146135d257613605565b60ff198316865281151560200286019350613605565b6135db85613575565b60005b838110156135fd578154818901526001820191506020810190506135de565b808801955050505b50505092915050565b60006040820190508181036000830152613628818561358a565b9050613637602083018461293d565b9392505050565b60008151905061364d8161318d565b92915050565b60006020828403121561366957613668612a88565b5b60006136778482850161363e565b91505092915050565b7f506f6c6c696e67206e6f7420656e646564000000000000000000000000000000600082015250565b60006136b660118361284f565b91506136c182613680565b602082019050919050565b600060208201905081810360008301526136e5816136a9565b9050919050565b7f4e487b7100000000000000000000000000000000000000000000000000000000600052603260045260246000fd5b7f417272617973206d7573742068617665207468652073616d65206c656e677468600082015250565b600061375160208361284f565b915061375c8261371b565b602082019050919050565b6000602082019050818103600083015261378081613744565b9050919050565b600080fd5b600080fd5b600080fd5b600080833560016020038436030381126137b3576137b2613787565b5b80840192508235915067ffffffffffffffff8211156137d5576137d461378c565b5b6020830192506001820236038313156137f1576137f0613791565b5b509250929050565b6000808335600160200384360303811261381657613815613787565b5b80840192508235915067ffffffffffffffff8211156138385761383761378c565b5b60208301925060208202360383131561385457613853613791565b5b509250929050565b7f4e487b7100000000000000000000000000000000000000000000000000000000600052604160045260246000fd5b6138948261288a565b810181811067ffffffffffffffff821117156138b3576138b261385c565b5b80604052505050565b60006138c6612a7e565b90506138d2828261388b565b919050565b600067ffffffffffffffff8211156138f2576138f161385c565b5b602082029050602081019050919050565b600080fd5b600067ffffffffffffffff8211156139235761392261385c565b5b61392c8261288a565b9050602081019050919050565b82818337600083830152505050565b600061395b61395684613908565b6138bc565b90508281526020810184848401111561397757613976613903565b5b613982848285613939565b509392505050565b600082601f83011261399f5761399e612c70565b5b81356139af848260208601613948565b91505092915050565b60006139cb6139c6846138d7565b6138bc565b905080838252602082019050602084028301858111156139ee576139ed612c7a565b5b835b81811015613a3557803567ffffffffffffffff811115613a1357613a12612c70565b5b808601613a20898261398a565b855260208501945050506020810190506139f0565b5050509392505050565b6000613a4c3684846139b8565b905092915050565b60006020601f8301049050919050565b600082821b905092915050565b600060088302613aa17fffffffffffffffffffffffffffffffffffffffffffffffffffffffffffffffff82613a64565b613aab8683613a64565b95508019841693508086168417925050509392505050565b6000819050919050565b6000613ae8613ae3613ade846127da565b613ac3565b6127da565b9050919050565b6000819050919050565b613b0283613acd565b613b16613b0e82613aef565b848454613a71565b825550505050565b600090565b613b2b613b1e565b613b36818484613af9565b505050565b5b81811015613b5a57613b4f600082613b23565b600181019050613b3c565b5050565b601f821115613b9f57613b7081613575565b613b7984613a54565b81016020851015613b88578190505b613b9c613b9485613a54565b830182613b3b565b50505b505050565b600082821c905092915050565b6000613bc260001984600802613ba4565b1980831691505092915050565b6000613bdb8383613bb1565b9150826002028217905092915050565b613bf482612844565b67ffffffffffffffff811115613c0d57613c0c61385c565b5b613c178254613544565b613c22828285613b5e565b600060209050601f831160018114613c555760008415613c43578287015190505b613c4d8582613bcf565b865550613cb5565b601f198416613c6386613575565b60005b82811015613c8b57848901518255600182019150602085019450602081019050613c66565b86831015613ca85784890151613ca4601f891682613bb1565b8355505b6001600288020188555050505b505050505050565b6000613cc8826127da565b91507fffffffffffffffffffffffffffffffffffffffffffffffffffffffffffffffff8203613cfa57613cf96133c0565b5b600182019050919050565b6000606082019050613d1a60008301866127e4565b613d2760208301856127e4565b613d3460408301846127e4565b949350505050565b7f506f6c6c696e67206e6f74207374617274656400000000000000000000000000600082015250565b6000613d7260138361284f565b9150613d7d82613d3c565b602082019050919050565b60006020820190508181036000830152613da181613d65565b9050919050565b7f506f6c6c20616c72656164792064697374726962757465640000000000000000600082015250565b6000613dde60188361284f565b9150613de982613da8565b602082019050919050565b60006020820190508181036000830152613e0d81613dd1565b9050919050565b7f416c726561647920636c61696d65640000000000000000000000000000000000600082015250565b6000613e4a600f8361284f565b9150613e5582613e14565b602082019050919050565b60006020820190508181036000830152613e7981613e3d565b9050919050565b7f4e6f7420656e6f7567682066756e647300000000000000000000000000000000600082015250565b6000613eb660108361284f565b9150613ec182613e80565b602082019050919050565b60006020820190508181036000830152613ee581613ea9565b9050919050565b600081905092915050565b50565b6000613f07600083613eec565b9150613f1282613ef7565b600082019050919050565b6000613f2882613efa565b9150819050919050565b7f5472616e73666572206661696c65640000000000000000000000000000000000600082015250565b6000613f68600f8361284f565b9150613f7382613f32565b602082019050919050565b60006020820190508181036000830152613f9781613f5b565b9050919050565b7f52657761726420636c61696d6564000000000000000000000000000000000000600082015250565b6000613fd4600e8361284f565b9150613fdf82613f9e565b602082019050919050565b6000606082019050613fff600083018561293d565b61400c60208301846127e4565b818103604083015261401d81613fc7565b90509392505050565b7f4f6e6c792044414f2063616e2063616c6c20746869732066756e6374696f6e00600082015250565b600061405c601f8361284f565b915061406782614026565b602082019050919050565b6000602082019050818103600083015261408b8161404f565b9050919050565b7f506f6c6c206e6f74207375626d69747465640000000000000000000000000000600082015250565b60006140c860128361284f565b91506140d382614092565b602082019050919050565b600060208201905081810360008301526140f7816140bb565b9050919050565b7f57726f6e6720706f6c6c20616464726573730000000000000000000000000000600082015250565b600061413460128361284f565b915061413f826140fe565b602082019050919050565b6000602082019050818103600083015261416381614127565b9050919050565b7f4e6f2066756e647320746f20726566756e640000000000000000000000000000600082015250565b60006141a060128361284f565b91506141ab8261416a565b602082019050919050565b600060208201905081810360008301526141cf81614193565b9050919050565b7f546f6f206d616e792063686f6963657300000000000000000000000000000000600082015250565b600061420c60108361284f565b9150614217826141d6565b602082019050919050565b6000602082019050818103600083015261423b816141ff565b9050919050565b7f546f6f206d616e7920746f706963730000000000000000000000000000000000600082015250565b6000614278600f8361284f565b915061428382614242565b602082019050919050565b600060208201905081810360008301526142a78161426b565b9050919050565b6000819050919050565b60006142d36142ce6142c9846142ae565b613ac3565b6127da565b9050919050565b6142e3816142b8565b82525050565b60006060820190506142fe60008301866142da565b61430b60208301856127e4565b61431860408301846127e4565b949350505050565b7f4f776e61626c653a206e6577206f776e657220697320746865207a65726f206160008201527f6464726573730000000000000000000000000000000000000000000000000000602082015250565b600061437c60268361284f565b915061438782614320565b604082019050919050565b600060208201905081810360008301526143ab8161436f565b9050919050565b7f416c726561647920616e73776572656400000000000000000000000000000000600082015250565b60006143e860108361284f565b91506143f3826143b2565b602082019050919050565b60006020820190508181036000830152614417816143db565b9050919050565b7f57726f6e67206e756d626572206f6620616e7377657273000000000000000000600082015250565b600061445460178361284f565b915061445f8261441e565b602082019050919050565b6000602082019050818103600083015261448381614447565b9050919050565b7f4e6f7420656c696769626c650000000000000000000000000000000000000000600082015250565b60006144c0600c8361284f565b91506144cb8261448a565b602082019050919050565b600060208201905081810360008301526144ef816144b3565b9050919050565b6000614501826127da565b915061450c836127da565b9250828203905081811115614524576145236133c0565b5b92915050565b7f416e73776572206f7574206f662072616e676500000000000000000000000000600082015250565b600061456060138361284f565b915061456b8261452a565b602082019050919050565b6000602082019050818103600083015261458f81614553565b9050919050565b7f4f776e61626c653a2063616c6c6572206973206e6f7420746865206f776e6572600082015250565b60006145cc60208361284f565b91506145d782614596565b602082019050919050565b600060208201905081810360008301526145fb816145bf565b9050919050565b7f526566756e64206661696c656400000000000000000000000000000000000000600082015250565b6000614638600d8361284f565b915061464382614602565b602082019050919050565b600060208201905081810360008301526146678161462b565b9050919050565b7f526566756e6420746f206f776e65720000000000000000000000000000000000600082015250565b60006146a4600f8361284f565b91506146af8261466e565b602082019050919050565b60006060820190506146cf600083018561293d565b6146dc60208301846127e4565b81810360408301526146ed81614697565b90509392505050565b7f546f6f206d616e79206269747320746f207365742e0000000000000000000000600082015250565b600061472c60158361284f565b9150614737826146f6565b602082019050919050565b6000602082019050818103600083015261475b8161471f565b9050919050565b7f42697420746f20736574206f7574206f662072616e67652e0000000000000000600082015250565b600061479860188361284f565b91506147a382614762565b602082019050919050565b600060208201905081810360008301526147c78161478b565b9050919050565b7f416c726561647920757064617465640000000000000000000000000000000000600082015250565b6000614804600f8361284f565b915061480f826147ce565b602082019050919050565b60006020820190508181036000830152614833816147f7565b905091905056fea2646970667358221220b53f2342dc97c547ff127ba213757b9885b806f3c62f9155adfbfcd90144e99764736f6c63430008130033",
  "immutableReferences": {},
  "source": "// SPDX-License-Identifier: MIT\n\npragma solidity 0.8.19;\n\n/**\n@title PollUser\n@author ibourn\n@notice This contract contains the respondents functions\n@notice results are not not cumulative but separate, as the owner could want to do a cross-data analysis\n@notice addresses are not linked directly to answers\n@dev The contract inherits from PollAdmin (and so from PollView, PollStorage, Ownable)\n@dev (see PollMaster.sol for comments & explanations)\n@inheritdoc Ownable\n */\nimport \"./PollAdmin.sol\";\nimport \"./IPollUser.sol\";\nimport \"./Certifier.sol\";\n\n//IPollUser\ncontract PollUser is PollAdmin, IPollUser {\n\n\n    // :::::::::::::::::::::::::: GETTERS :::::::::::::::::::::::::::::: //\n//internal\n    function getEligibility() public view returns (bool) {\n        return Certifier(certifierAddress).getEligibilityProof(eligibilityCriteria, msg.sender) == PSEUDO_PROOF;\n    }\n\n    // :::::::::::::::::::::::::: SETTERS :::::::::::::::::::::::::::::: //\n\n    /**\n    @notice This function allow to answer to the poll\n    @dev it update the balance of the respondent to allow him to claim the reward\n    @dev index of choices start from 0 and should be ordered as the choices in the topics in order to revert earlier in case of invalid answer (function in helpers will revert later if not)\n    @param _chosenChoices is an array of uint representing the index of the choices chosen by the respondent (in the order of the all choices and starting from 0)\n     */\n    function addAnswer(uint[] calldata _chosenChoices, bytes32 _eligibilityProof) external {\n        require(pollStatus == PollStatus.PollingStarted, 'Polling not started');\n        require(balances[msg.sender] == 0, 'Already answered');\n        require(_chosenChoices.length <= totalChoicesCount, 'Wrong number of answers');\n        require(getEligibility(), 'Not eligible');\n        //check last num (index of choice) <= totalChoicesCount\n        require(_chosenChoices[_chosenChoices.length - 1] < totalChoicesCount, 'Answer out of range');\n\n        uint256 _answer = setBitsFromPositions(_chosenChoices);\n\n        // respondents.push(msg.sender);\n        answers.push(_answer);\n        // responded[msg.sender] = true;\n\n        _updateRespondentBalance(msg.sender);\n\n    }\n\n    /**\n    @notice This function allow to claim the reward\n    @dev it send the reward to the respondent\n     */\n    function claimReward() external {\n        require(pollStatus == PollStatus.PollingEnded, 'Polling not ended');\n        require(balances[msg.sender] != 0, 'Already claimed');\n        require(balance >= balances[msg.sender], 'Not enough funds');\n        uint amountToSend = balances[msg.sender];\n        balances[msg.sender] = 0;\n        (bool res,) = msg.sender.call{value: amountToSend}(\"\");\n        require(res, \"Transfer failed\");\n\n        emit PollWithdrawal(msg.sender, amountToSend, 'Reward claimed');\n    }\n\n    /**\n    @notice this function update the balance of the respondent setting it to the amountToRespondent\n    @dev it's a private function called by addAnswer\n    @param _respondent is the address of the respondent\n     */\n    function _updateRespondentBalance(address _respondent) private {\n    // require(responded[_respondent] == true, 'Not answered yet');\n    require(balances[_respondent] == 0, 'Already updated');\n    require(balance >= amountToRespondent, 'Not enough funds');\n        balance -= amountToRespondent;\n        balances[_respondent] += amountToRespondent;\n    }\n}",
  "sourcePath": "/home/ibournubuntu/ALYRA/PROJET_FINAL/DPoll/truffle/contracts/PollUser.sol",
  "compiler": {
    "name": "solc",
    "version": "0.8.19+commit.7dd6d404.Emscripten.clang"
  },
  "schemaVersion": "3.4.14",
  "updatedAt": "2023-07-25T17:57:00.835Z",
  "devdoc": {
    "kind": "dev",
    "methods": {
      "addAnswer(uint256[],bytes32)": {
        "details": "it update the balance of the respondent to allow him to claim the rewardindex of choices start from 0 and should be ordered as the choices in the topics in order to revert earlier in case of invalid answer (function in helpers will revert later if not)",
        "params": {
          "_chosenChoices": "is an array of uint representing the index of the choices chosen by the respondent (in the order of the all choices and starting from 0)"
        }
      },
      "addTopic(string,string[])": {
        "details": "the choices are an array of string",
        "params": {
          "_choices": "is an array of string representing the choices of the topic",
          "_question": "is the question of the topic"
        }
      },
      "addTopicsBatch(string[],string[][])": {
        "details": "structure of choice : [topic choices][topics] / read/write : a.[topic n][choice n] / lenght : a.length == topics.length",
        "params": {
          "_choices": "is an array of array of string representing the choices of the topics",
          "_questions": "is an array of string representing the questions of the topics"
        }
      },
      "claimReward()": {
        "details": "it send the reward to the respondent"
      },
      "endPoll()": {
        "details": "LATER : delay and number of answers will allow to set requirements to end the Poll by everybody (not only the owner), with incentives to automate the process"
      },
      "getPackedAnswers()": {
        "details": "answers are packed so each answer is a uint flagging the choices of the respondent",
        "returns": {
          "_0": "answers is an array of uint representing the answers of the poll"
        }
      },
      "getSelectedChoicesByAnswer(uint256)": {
        "details": "one answer is a uint256 where each bit represent an available choice : 1 is selected, 0 is not selected",
        "params": {
          "_answerId": "is the index of the answer in the answers array"
        },
        "returns": {
          "_0": "an array of uint representing the selected choices of the respondent (in the order of all choices in topics)"
        }
      },
      "getUnpackedAnswers()": {
        "details": "answers are unpacked so each result is the index of a choice selected by a respondentcall getSelectedChoicesByAnswer() to get the selected choices of a respondentuse answers.length to get the number of respondents",
        "returns": {
          "_0": "an array of all respondets answers as an array of uint corresponding to the index of the choices selected by the respondent (reading :[choices][respondents])"
        }
      },
      "owner()": {
        "details": "Returns the address of the current owner."
      },
      "renounceOwnership()": {
        "details": "Leaves the contract without owner. It will not be possible to call `onlyOwner` functions. Can only be called by the current owner. NOTE: Renouncing ownership will leave the contract without an owner, thereby disabling any functionality that is only available to the owner."
      },
      "setPollValidation(address,bool)": {
        "details": "if the poll is validated, the DAO will pay the validators and the DAOif the poll is rejected, the DAO will refund the owner balance less the validators fees (owner should claim it back later)it set the timestampLimit to the end of the poll and start the poll",
        "params": {
          "isValid": "is a boolean to validate or reject the poll",
          "pollAddress": "is the address of the poll to validate (this contract)"
        }
      },
      "transferOwnership(address)": {
        "details": "Transfers ownership of the contract to a new account (`newOwner`). Can only be called by the current owner."
      }
    },
    "version": 1
  },
  "userdoc": {
    "kind": "user",
    "methods": {
      "addAnswer(uint256[],bytes32)": {
        "notice": "This function allow to answer to the poll"
      },
      "addTopic(string,string[])": {
        "notice": "This function allows to add a topic : a question and its choices"
      },
      "addTopicsBatch(string[],string[][])": {
        "notice": "This function allows to add topics : questions and their choices, in batch"
      },
      "claimRefund()": {
        "notice": "allows the admin to withdraw the funds of the poll in case of rejection by the DAO or if the poll end without enough respondents"
      },
      "claimReward()": {
        "notice": "This function allow to claim the reward"
      },
      "endPoll()": {
        "notice": "allows the admin to end the poll"
      },
      "getPackedAnswers()": {
        "notice": "get all the answers of the poll"
      },
      "getSelectedChoicesByAnswer(uint256)": {
        "notice": "This function return the selected choices of topics of a respondent"
      },
      "getUnpackedAnswers()": {
        "notice": "get all the answers of the poll"
      },
      "setPollValidation(address,bool)": {
        "notice": "allows the DAO to validate or reject the poll"
      },
      "submitPoll()": {
        "notice": "allows the admin to submit the poll to the DAO for validation (validators will check for illegal content...) "
      }
    },
    "version": 1
  }
}