{
  "contractName": "PollUser",
  "abi": [
    {
      "anonymous": false,
      "inputs": [
        {
          "indexed": true,
          "internalType": "address",
          "name": "previousOwner",
          "type": "address"
        },
        {
          "indexed": true,
          "internalType": "address",
          "name": "newOwner",
          "type": "address"
        }
      ],
      "name": "OwnershipTransferred",
      "type": "event"
    },
    {
      "anonymous": false,
      "inputs": [
        {
          "indexed": false,
          "internalType": "enum PollStorage.PollStatus",
          "name": "previousStatus",
          "type": "uint8"
        },
        {
          "indexed": false,
          "internalType": "enum PollStorage.PollStatus",
          "name": "newStatus",
          "type": "uint8"
        }
      ],
      "name": "PollStatusChange",
      "type": "event"
    },
    {
      "anonymous": false,
      "inputs": [
        {
          "indexed": false,
          "internalType": "address",
          "name": "_to",
          "type": "address"
        },
        {
          "indexed": false,
          "internalType": "uint256",
          "name": "_amount",
          "type": "uint256"
        },
        {
          "indexed": false,
          "internalType": "string",
          "name": "_message",
          "type": "string"
        }
      ],
      "name": "PollWithdrawal",
      "type": "event"
    },
    {
      "anonymous": false,
      "inputs": [
        {
          "indexed": false,
          "internalType": "uint256",
          "name": "topicsAdded",
          "type": "uint256"
        },
        {
          "indexed": false,
          "internalType": "uint256",
          "name": "topicsCount",
          "type": "uint256"
        },
        {
          "indexed": false,
          "internalType": "uint256",
          "name": "totalChoicesCount",
          "type": "uint256"
        }
      ],
      "name": "TopicsAdded",
      "type": "event"
    },
    {
      "inputs": [],
      "name": "DAOaddress",
      "outputs": [
        {
          "internalType": "address",
          "name": "",
          "type": "address"
        }
      ],
      "stateMutability": "view",
      "type": "function"
    },
    {
      "inputs": [],
      "name": "MAX_CHOICES_COUNT",
      "outputs": [
        {
          "internalType": "uint256",
          "name": "",
          "type": "uint256"
        }
      ],
      "stateMutability": "view",
      "type": "function"
    },
    {
      "inputs": [],
      "name": "MAX_CHOICES_LENGTH",
      "outputs": [
        {
          "internalType": "uint256",
          "name": "",
          "type": "uint256"
        }
      ],
      "stateMutability": "view",
      "type": "function"
    },
    {
      "inputs": [],
      "name": "MAX_RESPONDENTS_LENGTH",
      "outputs": [
        {
          "internalType": "uint256",
          "name": "",
          "type": "uint256"
        }
      ],
      "stateMutability": "view",
      "type": "function"
    },
    {
      "inputs": [],
      "name": "MAX_TOPICS_LENGTH",
      "outputs": [
        {
          "internalType": "uint256",
          "name": "",
          "type": "uint256"
        }
      ],
      "stateMutability": "view",
      "type": "function"
    },
    {
      "inputs": [],
      "name": "MIN_POLL_AMOUNT",
      "outputs": [
        {
          "internalType": "uint256",
          "name": "",
          "type": "uint256"
        }
      ],
      "stateMutability": "view",
      "type": "function"
    },
    {
      "inputs": [],
      "name": "MIN_RESPONDENT_AMOUNT",
      "outputs": [
        {
          "internalType": "uint256",
          "name": "",
          "type": "uint256"
        }
      ],
      "stateMutability": "view",
      "type": "function"
    },
    {
      "inputs": [
        {
          "internalType": "string",
          "name": "_question",
          "type": "string"
        },
        {
          "internalType": "string[]",
          "name": "_choices",
          "type": "string[]"
        }
      ],
      "name": "addTopic",
      "outputs": [],
      "stateMutability": "nonpayable",
      "type": "function"
    },
    {
      "inputs": [
        {
          "internalType": "string[]",
          "name": "_questions",
          "type": "string[]"
        },
        {
          "internalType": "string[][]",
          "name": "_choices",
          "type": "string[][]"
        }
      ],
      "name": "addTopicsBatch",
      "outputs": [],
      "stateMutability": "nonpayable",
      "type": "function"
    },
    {
      "inputs": [],
      "name": "certifierAddress",
      "outputs": [
        {
          "internalType": "address",
          "name": "",
          "type": "address"
        }
      ],
      "stateMutability": "view",
      "type": "function"
    },
    {
      "inputs": [],
      "name": "claimRefund",
      "outputs": [],
      "stateMutability": "nonpayable",
      "type": "function"
    },
    {
      "inputs": [],
      "name": "endPoll",
      "outputs": [],
      "stateMutability": "nonpayable",
      "type": "function"
    },
    {
      "inputs": [],
      "name": "getAmountToDAO",
      "outputs": [
        {
          "internalType": "uint256",
          "name": "",
          "type": "uint256"
        }
      ],
      "stateMutability": "view",
      "type": "function"
    },
    {
      "inputs": [],
      "name": "getAmountToRespondent",
      "outputs": [
        {
          "internalType": "uint256",
          "name": "",
          "type": "uint256"
        }
      ],
      "stateMutability": "view",
      "type": "function"
    },
    {
      "inputs": [],
      "name": "getAmountToValidators",
      "outputs": [
        {
          "internalType": "uint256",
          "name": "",
          "type": "uint256"
        }
      ],
      "stateMutability": "view",
      "type": "function"
    },
    {
      "inputs": [],
      "name": "getBalance",
      "outputs": [
        {
          "internalType": "uint256",
          "name": "",
          "type": "uint256"
        }
      ],
      "stateMutability": "view",
      "type": "function"
    },
    {
      "inputs": [],
      "name": "getIsCanceled",
      "outputs": [
        {
          "internalType": "bool",
          "name": "",
          "type": "bool"
        }
      ],
      "stateMutability": "view",
      "type": "function"
    },
    {
      "inputs": [],
      "name": "getPackedAnswers",
      "outputs": [
        {
          "internalType": "uint256[]",
          "name": "",
          "type": "uint256[]"
        }
      ],
      "stateMutability": "view",
      "type": "function"
    },
    {
      "inputs": [],
      "name": "getPollInformations",
      "outputs": [
        {
          "internalType": "string",
          "name": "",
          "type": "string"
        },
        {
          "internalType": "string",
          "name": "",
          "type": "string"
        }
      ],
      "stateMutability": "view",
      "type": "function"
    },
    {
      "inputs": [],
      "name": "getPollStatus",
      "outputs": [
        {
          "internalType": "enum PollStorage.PollStatus",
          "name": "",
          "type": "uint8"
        }
      ],
      "stateMutability": "view",
      "type": "function"
    },
    {
      "inputs": [],
      "name": "getPollStatusExt",
      "outputs": [
        {
          "internalType": "uint8",
          "name": "",
          "type": "uint8"
        }
      ],
      "stateMutability": "view",
      "type": "function"
    },
    {
      "inputs": [],
      "name": "getRequiredResponseCount",
      "outputs": [
        {
          "internalType": "uint256",
          "name": "",
          "type": "uint256"
        }
      ],
      "stateMutability": "view",
      "type": "function"
    },
    {
      "inputs": [],
      "name": "getRespondentReward",
      "outputs": [
        {
          "internalType": "uint256",
          "name": "",
          "type": "uint256"
        }
      ],
      "stateMutability": "view",
      "type": "function"
    },
    {
      "inputs": [],
      "name": "getRespondentsCount",
      "outputs": [
        {
          "internalType": "uint256",
          "name": "",
          "type": "uint256"
        }
      ],
      "stateMutability": "view",
      "type": "function"
    },
    {
      "inputs": [
        {
          "internalType": "uint256",
          "name": "_answerId",
          "type": "uint256"
        }
      ],
      "name": "getSelectedChoicesByAnswer",
      "outputs": [
        {
          "internalType": "uint256[]",
          "name": "",
          "type": "uint256[]"
        }
      ],
      "stateMutability": "view",
      "type": "function"
    },
    {
      "inputs": [
        {
          "internalType": "uint256",
          "name": "_id",
          "type": "uint256"
        }
      ],
      "name": "getTopic",
      "outputs": [
        {
          "components": [
            {
              "internalType": "uint256",
              "name": "firstChoiceIndex",
              "type": "uint256"
            },
            {
              "internalType": "string",
              "name": "question",
              "type": "string"
            },
            {
              "internalType": "string[]",
              "name": "choices",
              "type": "string[]"
            }
          ],
          "internalType": "struct PollStorage.Topic",
          "name": "",
          "type": "tuple"
        }
      ],
      "stateMutability": "view",
      "type": "function"
    },
    {
      "inputs": [],
      "name": "getTopics",
      "outputs": [
        {
          "components": [
            {
              "internalType": "uint256",
              "name": "firstChoiceIndex",
              "type": "uint256"
            },
            {
              "internalType": "string",
              "name": "question",
              "type": "string"
            },
            {
              "internalType": "string[]",
              "name": "choices",
              "type": "string[]"
            }
          ],
          "internalType": "struct PollStorage.Topic[]",
          "name": "",
          "type": "tuple[]"
        }
      ],
      "stateMutability": "view",
      "type": "function"
    },
    {
      "inputs": [],
      "name": "getTopicsLength",
      "outputs": [
        {
          "internalType": "uint256",
          "name": "",
          "type": "uint256"
        }
      ],
      "stateMutability": "view",
      "type": "function"
    },
    {
      "inputs": [],
      "name": "getUnpackedAnswers",
      "outputs": [
        {
          "internalType": "uint256[][]",
          "name": "",
          "type": "uint256[][]"
        }
      ],
      "stateMutability": "view",
      "type": "function"
    },
    {
      "inputs": [],
      "name": "owner",
      "outputs": [
        {
          "internalType": "address",
          "name": "",
          "type": "address"
        }
      ],
      "stateMutability": "view",
      "type": "function"
    },
    {
      "inputs": [],
      "name": "renounceOwnership",
      "outputs": [],
      "stateMutability": "nonpayable",
      "type": "function"
    },
    {
      "inputs": [
        {
          "internalType": "address",
          "name": "pollAddress",
          "type": "address"
        },
        {
          "internalType": "bool",
          "name": "isValid",
          "type": "bool"
        }
      ],
      "name": "setPollValidation",
      "outputs": [],
      "stateMutability": "payable",
      "type": "function"
    },
    {
      "inputs": [],
      "name": "submitPoll",
      "outputs": [],
      "stateMutability": "nonpayable",
      "type": "function"
    },
    {
      "inputs": [
        {
          "internalType": "address",
          "name": "newOwner",
          "type": "address"
        }
      ],
      "name": "transferOwnership",
      "outputs": [],
      "stateMutability": "nonpayable",
      "type": "function"
    },
    {
      "inputs": [],
      "name": "validatorAddress",
      "outputs": [
        {
          "internalType": "address",
          "name": "",
          "type": "address"
        }
      ],
      "stateMutability": "view",
      "type": "function"
    },
    {
      "inputs": [],
      "name": "getEligibility",
      "outputs": [
        {
          "internalType": "bool",
          "name": "",
          "type": "bool"
        }
      ],
      "stateMutability": "view",
      "type": "function"
    },
    {
      "inputs": [
        {
          "internalType": "uint256[]",
          "name": "_chosenChoices",
          "type": "uint256[]"
        },
        {
          "internalType": "bytes32",
          "name": "_eligibilityProof",
          "type": "bytes32"
        }
      ],
      "name": "addAnswer",
      "outputs": [],
      "stateMutability": "nonpayable",
      "type": "function"
    },
    {
      "inputs": [],
      "name": "claimReward",
      "outputs": [],
      "stateMutability": "nonpayable",
      "type": "function"
    }
  ],
  "bytecode": "0x60806040523480156200001157600080fd5b5062000032620000266200003860201b60201c565b6200004060201b60201c565b62000104565b600033905090565b60008060009054906101000a900473ffffffffffffffffffffffffffffffffffffffff169050816000806101000a81548173ffffffffffffffffffffffffffffffffffffffff021916908373ffffffffffffffffffffffffffffffffffffffff1602179055508173ffffffffffffffffffffffffffffffffffffffff168173ffffffffffffffffffffffffffffffffffffffff167f8be0079c531659141344cd1fd0a4f28419497f9722a3daafe3b4186f6b6457e060405160405180910390a35050565b6148cc80620001146000396000f3fe6080604052600436106102245760003560e01c80637165889611610123578063b5545a3c116100ab578063f5d4d2a81161006f578063f5d4d2a814610760578063f64b0af91461078b578063f73649f6146107b6578063fee01177146107df578063ff4c4e0d1461080a57610224565b8063b5545a3c146106c4578063b88a802f146106db578063e1b9742a146106f2578063ef98cd621461070e578063f2fde38b1461073757610224565b80638d99b2eb116100f25780638d99b2eb146105ef5780638da5cb5b14610606578063a3948a0d14610631578063a61540641461066e578063a92a4fae1461069957610224565b806371658896146105335780638389a3eb14610570578063883032e8146105995780638c062e4e146105c457610224565b80633fe4676e116101b15780634b4d7aeb116101755780634b4d7aeb1461047057806356528cac1461049b5780636a5543e9146104c65780636b126209146104f1578063715018a61461051c57610224565b80633fe4676e1461039957806342587e72146103c4578063442da8bd146103ef57806346b7bc911461041a57806349cf2eae1461044557610224565b80631dd17d2f116101f85780631dd17d2f146102c15780632a0e1c4f146102ec578063383da4b1146103175780633bb3ba3d146103425780633bbe24971461036e57610224565b8062cc86bd1461022957806305f9d4ad1461025457806312065fe01461026b5780631a7316ab14610296575b600080fd5b34801561023557600080fd5b5061023e610835565b60405161024b919061284f565b60405180910390f35b34801561026057600080fd5b5061026961083f565b005b34801561027757600080fd5b506102806109d0565b60405161028d919061284f565b60405180910390f35b3480156102a257600080fd5b506102ab6109da565b6040516102b89190612885565b60405180910390f35b3480156102cd57600080fd5b506102d6610aa6565b6040516102e3919061284f565b60405180910390f35b3480156102f857600080fd5b50610301610aab565b60405161030e9190612885565b60405180910390f35b34801561032357600080fd5b5061032c610ac2565b604051610339919061284f565b60405180910390f35b34801561034e57600080fd5b50610357610ac7565b604051610365929190612930565b60405180910390f35b34801561037a57600080fd5b50610383610bee565b604051610390919061284f565b60405180910390f35b3480156103a557600080fd5b506103ae610bf9565b6040516103bb91906129a8565b60405180910390f35b3480156103d057600080fd5b506103d9610c1f565b6040516103e6919061284f565b60405180910390f35b3480156103fb57600080fd5b50610404610c29565b604051610411919061284f565b60405180910390f35b34801561042657600080fd5b5061042f610c33565b60405161043c919061284f565b60405180910390f35b34801561045157600080fd5b5061045a610c7a565b60405161046791906129a8565b60405180910390f35b34801561047c57600080fd5b50610485610ca0565b60405161049291906129df565b60405180910390f35b3480156104a757600080fd5b506104b0610cc9565b6040516104bd9190612ab8565b60405180910390f35b3480156104d257600080fd5b506104db610d9e565b6040516104e8919061284f565b60405180910390f35b3480156104fd57600080fd5b50610506610dab565b604051610513919061284f565b60405180910390f35b34801561052857600080fd5b50610531610db1565b005b34801561053f57600080fd5b5061055a60048036038101906105559190612b1a565b610dc5565b6040516105679190612caa565b60405180910390f35b34801561057c57600080fd5b5061059760048036038101906105929190612d87565b610f76565b005b3480156105a557600080fd5b506105ae6111a2565b6040516105bb9190612e7f565b60405180910390f35b3480156105d057600080fd5b506105d96111b9565b6040516105e691906129a8565b60405180910390f35b3480156105fb57600080fd5b506106046111df565b005b34801561061257600080fd5b5061061b61128a565b60405161062891906129a8565b60405180910390f35b34801561063d57600080fd5b5061065860048036038101906106539190612b1a565b6112b3565b6040516106659190612ab8565b60405180910390f35b34801561067a57600080fd5b50610683611360565b604051610690919061284f565b60405180910390f35b3480156106a557600080fd5b506106ae611366565b6040516106bb919061284f565b60405180910390f35b3480156106d057600080fd5b506106d9611373565b005b3480156106e757600080fd5b506106f06113fa565b005b61070c60048036038101906107079190612ef2565b6116e7565b005b34801561071a57600080fd5b5061073560048036038101906107309190612f88565b611929565b005b34801561074357600080fd5b5061075e60048036038101906107599190613009565b611b89565b005b34801561076c57600080fd5b50610775611c0c565b6040516107829190613167565b60405180910390f35b34801561079757600080fd5b506107a0611d35565b6040516107ad919061284f565b60405180910390f35b3480156107c257600080fd5b506107dd60048036038101906107d89190613215565b611d3f565b005b3480156107eb57600080fd5b506107f4611f78565b604051610801919061338e565b60405180910390f35b34801561081657600080fd5b5061081f61214c565b60405161082c919061284f565b60405180910390f35b6000600454905090565b610847612156565b6000600581111561085b5761085a612e08565b5b600d60009054906101000a900460ff16600581111561087d5761087c612e08565b5b146108bd576040517f08c379a00000000000000000000000000000000000000000000000000000000081526004016108b4906133fc565b60405180910390fd5b6000600a54600b546108cf919061344b565b9050600360009054906101000a900473ffffffffffffffffffffffffffffffffffffffff1673ffffffffffffffffffffffffffffffffffffffff1663b46411c38230600b54600a546040518563ffffffff1660e01b81526004016109359392919061347f565b6000604051808303818588803b15801561094e57600080fd5b505af1158015610962573d6000803e3d6000fd5b50505050506001600d60006101000a81548160ff0219169083600581111561098d5761098c612e08565b5b02179055507f20f7c135505514c16ee7e30eb8127c87b82a910a6b28e61ad0feb1a77473f4fe600060016040516109c59291906134b6565b60405180910390a150565b6000600954905090565b60006040516020016109eb9061355c565b60405160208183030381529060405280519060200120600260009054906101000a900473ffffffffffffffffffffffffffffffffffffffff1673ffffffffffffffffffffffffffffffffffffffff1663384d405b6008336040518363ffffffff1660e01b8152600401610a5f92919061366a565b602060405180830381865afa158015610a7c573d6000803e3d6000fd5b505050506040513d601f19601f82011682018060405250810190610aa091906136af565b14905090565b600a81565b6000600d60019054906101000a900460ff16905090565b603281565b60608060066007818054610ada906135a0565b80601f0160208091040260200160405190810160405280929190818152602001828054610b06906135a0565b8015610b535780601f10610b2857610100808354040283529160200191610b53565b820191906000526020600020905b815481529060010190602001808311610b3657829003601f168201915b50505050509150808054610b66906135a0565b80601f0160208091040260200160405190810160405280929190818152602001828054610b92906135a0565b8015610bdf5780601f10610bb457610100808354040283529160200191610bdf565b820191906000526020600020905b815481529060010190602001808311610bc257829003601f168201915b50505050509050915091509091565b66b1a2bc2ec5000081565b600360009054906101000a900473ffffffffffffffffffffffffffffffffffffffff1681565b655af3107a400081565b6000600c54905090565b6000600e60003373ffffffffffffffffffffffffffffffffffffffff1673ffffffffffffffffffffffffffffffffffffffff16815260200190815260200160002054905090565b600260009054906101000a900473ffffffffffffffffffffffffffffffffffffffff1681565b6000600d60009054906101000a900460ff166005811115610cc457610cc3612e08565b5b905090565b6060610cd3612156565b600580811115610ce657610ce5612e08565b5b600d60009054906101000a900460ff166005811115610d0857610d07612e08565b5b14610d48576040517f08c379a0000000000000000000000000000000000000000000000000000000008152600401610d3f90613728565b60405180910390fd5b6010805480602002602001604051908101604052809291908181526020018280548015610d9457602002820191906000526020600020905b815481526020019060010190808311610d80575b5050505050905090565b6000601080549050905090565b6103e881565b610db9612156565b610dc360006121d4565b565b610dcd61273b565b600f8281548110610de157610de0613748565b5b906000526020600020906003020160405180606001604052908160008201548152602001600182018054610e14906135a0565b80601f0160208091040260200160405190810160405280929190818152602001828054610e40906135a0565b8015610e8d5780601f10610e6257610100808354040283529160200191610e8d565b820191906000526020600020905b815481529060010190602001808311610e7057829003601f168201915b5050505050815260200160028201805480602002602001604051908101604052809291908181526020016000905b82821015610f67578382906000526020600020018054610eda906135a0565b80601f0160208091040260200160405190810160405280929190818152602001828054610f06906135a0565b8015610f535780601f10610f2857610100808354040283529160200191610f53565b820191906000526020600020905b815481529060010190602001808311610f3657829003601f168201915b505050505081526020019060010190610ebb565b50505050815250509050919050565b610f7e612156565b818190508484905014610fc6576040517f08c379a0000000000000000000000000000000000000000000000000000000008152600401610fbd906137c3565b60405180910390fd5b600060055490506000600f905060005b8686905081101561114d57610fe961273b565b8381600001818152505087878381811061100657611005613748565b5b905060200281019061101891906137f2565b8080601f016020809104026020016040519081016040528093929190818152602001838380828437600081840152601f19601f82011690508083019250505050505050816020018190525085858381811061107657611075613748565b5b90506020028101906110889190613855565b906110939190613a9b565b81604001819052508585838181106110ae576110ad613748565b5b90506020028101906110c09190613855565b9050846110cd919061344b565b9350828190806001815401808255809150506001900390600052602060002090600302016000909190919091506000820151816000015560208201518160010190816111199190613c47565b50604082015181600201908051906020019061113692919061275c565b50505050808061114590613d19565b915050610fd6565b50816005819055507fbf7e450152e82a72724b6c2028c2955b2294c0579262526315aa44919e2be9c586869050600f8054905060055460405161119293929190613d61565b60405180910390a1505050505050565b6000600d60009054906101000a900460ff16905090565b600160009054906101000a900473ffffffffffffffffffffffffffffffffffffffff1681565b6111e7612156565b600460058111156111fb576111fa612e08565b5b600d60009054906101000a900460ff16600581111561121d5761121c612e08565b5b1461125d576040517f08c379a000000000000000000000000000000000000000000000000000000000815260040161125490613de4565b60405180910390fd5b6005600d60006101000a81548160ff0219169083600581111561128357611282612e08565b5b0217905550565b60008060009054906101000a900473ffffffffffffffffffffffffffffffffffffffff16905090565b60606112bd612156565b6005808111156112d0576112cf612e08565b5b600d60009054906101000a900460ff1660058111156112f2576112f1612e08565b5b14611332576040517f08c379a000000000000000000000000000000000000000000000000000000000815260040161132990613728565b60405180910390fd5b6113596010838154811061134957611348613748565b5b9060005260206000200154612298565b9050919050565b61010081565b6000600f80549050905090565b61137b612156565b60058081111561138e5761138d612e08565b5b600d60009054906101000a900460ff1660058111156113b0576113af612e08565b5b146113f0576040517f08c379a00000000000000000000000000000000000000000000000000000000081526004016113e790613e50565b60405180910390fd5b6113f8612354565b565b60058081111561140d5761140c612e08565b5b600d60009054906101000a900460ff16600581111561142f5761142e612e08565b5b1461146f576040517f08c379a000000000000000000000000000000000000000000000000000000000815260040161146690613728565b60405180910390fd5b6000600e60003373ffffffffffffffffffffffffffffffffffffffff1673ffffffffffffffffffffffffffffffffffffffff16815260200190815260200160002054036114f1576040517f08c379a00000000000000000000000000000000000000000000000000000000081526004016114e890613ebc565b60405180910390fd5b600e60003373ffffffffffffffffffffffffffffffffffffffff1673ffffffffffffffffffffffffffffffffffffffff168152602001908152602001600020546009541015611575576040517f08c379a000000000000000000000000000000000000000000000000000000000815260040161156c90613f28565b60405180910390fd5b6000600e60003373ffffffffffffffffffffffffffffffffffffffff1673ffffffffffffffffffffffffffffffffffffffff1681526020019081526020016000205490506000600e60003373ffffffffffffffffffffffffffffffffffffffff1673ffffffffffffffffffffffffffffffffffffffff1681526020019081526020016000208190555060003373ffffffffffffffffffffffffffffffffffffffff168260405161162490613f79565b60006040518083038185875af1925050503d8060008114611661576040519150601f19603f3d011682016040523d82523d6000602084013e611666565b606091505b50509050806116aa576040517f08c379a00000000000000000000000000000000000000000000000000000000081526004016116a190613fda565b60405180910390fd5b7fbb23de5c4d0ac7c049b292881397f32ddab597aebe0859c2baf41548d5c20c3733836040516116db929190614046565b60405180910390a15050565b600160009054906101000a900473ffffffffffffffffffffffffffffffffffffffff1673ffffffffffffffffffffffffffffffffffffffff163373ffffffffffffffffffffffffffffffffffffffff1614611777576040517f08c379a000000000000000000000000000000000000000000000000000000000815260040161176e906140ce565b60405180910390fd5b6001600581111561178b5761178a612e08565b5b600d60009054906101000a900460ff1660058111156117ad576117ac612e08565b5b146117ed576040517f08c379a00000000000000000000000000000000000000000000000000000000081526004016117e49061413a565b60405180910390fd5b3073ffffffffffffffffffffffffffffffffffffffff168273ffffffffffffffffffffffffffffffffffffffff161461185b576040517f08c379a0000000000000000000000000000000000000000000000000000000008152600401611852906141a6565b60405180910390fd5b80806118695750600a543410155b6118a8576040517f08c379a000000000000000000000000000000000000000000000000000000000815260040161189f90614212565b60405180910390fd5b80156118de576004600d60006101000a81548160ff021916908360058111156118d4576118d3612e08565b5b0217905550611925565b6001600d60016101000a81548160ff0219169083151502179055506005600d60006101000a81548160ff0219169083600581111561191f5761191e612e08565b5b02179055505b5050565b611931612156565b6000600581111561194557611944612e08565b5b600d60009054906101000a900460ff16600581111561196757611966612e08565b5b146119a7576040517f08c379a000000000000000000000000000000000000000000000000000000000815260040161199e906133fc565b60405180910390fd5b600a8282905011156119ee576040517f08c379a00000000000000000000000000000000000000000000000000000000081526004016119e59061427e565b60405180910390fd5b603282829050600554611a01919061344b565b1115611a42576040517f08c379a0000000000000000000000000000000000000000000000000000000008152600401611a39906142ea565b60405180910390fd5b611a4a61273b565b60055481600001818152505084848080601f016020809104026020016040519081016040528093929190818152602001838380828437600081840152601f19601f820116905080830192505050505050508160200181905250828290611ab09190613a9b565b81604001819052508282905060056000828254611acd919061344b565b92505081905550600f819080600181540180825580915050600190039060005260206000209060030201600090919091909150600082015181600001556020820151816001019081611b1f9190613c47565b506040820151816002019080519060200190611b3c92919061275c565b5050507fbf7e450152e82a72724b6c2028c2955b2294c0579262526315aa44919e2be9c56001600f80549050600554604051611b7a93929190614345565b60405180910390a15050505050565b611b91612156565b600073ffffffffffffffffffffffffffffffffffffffff168173ffffffffffffffffffffffffffffffffffffffff1603611c00576040517f08c379a0000000000000000000000000000000000000000000000000000000008152600401611bf7906143ee565b60405180910390fd5b611c09816121d4565b50565b6060611c16612156565b600580811115611c2957611c28612e08565b5b600d60009054906101000a900460ff166005811115611c4b57611c4a612e08565b5b14611c8b576040517f08c379a0000000000000000000000000000000000000000000000000000000008152600401611c8290613728565b60405180910390fd5b6000601080549050905060008167ffffffffffffffff811115611cb157611cb06138b8565b5b604051908082528060200260200182016040528015611ce457816020015b6060815260200190600190039081611ccf5790505b50905060005b82811015611d2c57611cfb816112b3565b828281518110611d0e57611d0d613748565b5b60200260200101819052508080611d2490613d19565b915050611cea565b50809250505090565b6000600a54905090565b60046005811115611d5357611d52612e08565b5b600d60009054906101000a900460ff166005811115611d7557611d74612e08565b5b14611db5576040517f08c379a0000000000000000000000000000000000000000000000000000000008152600401611dac90613de4565b60405180910390fd5b6000600e60003373ffffffffffffffffffffffffffffffffffffffff1673ffffffffffffffffffffffffffffffffffffffff1681526020019081526020016000205414611e37576040517f08c379a0000000000000000000000000000000000000000000000000000000008152600401611e2e9061445a565b60405180910390fd5b600554838390501115611e7f576040517f08c379a0000000000000000000000000000000000000000000000000000000008152600401611e76906144c6565b60405180910390fd5b611e876109da565b611ec6576040517f08c379a0000000000000000000000000000000000000000000000000000000008152600401611ebd90614532565b60405180910390fd5b6005548383600186869050611edb9190614552565b818110611eeb57611eea613748565b5b9050602002013510611f32576040517f08c379a0000000000000000000000000000000000000000000000000000000008152600401611f29906145d2565b60405180910390fd5b6000611f3e84846124de565b90506010819080600181540180825580915050600190039060005260206000200160009091909190915055611f72336125bb565b50505050565b6060600f805480602002602001604051908101604052809291908181526020016000905b82821015612143578382906000526020600020906003020160405180606001604052908160008201548152602001600182018054611fd9906135a0565b80601f0160208091040260200160405190810160405280929190818152602001828054612005906135a0565b80156120525780601f1061202757610100808354040283529160200191612052565b820191906000526020600020905b81548152906001019060200180831161203557829003601f168201915b5050505050815260200160028201805480602002602001604051908101604052809291908181526020016000905b8282101561212c57838290600052602060002001805461209f906135a0565b80601f01602080910402602001604051908101604052809291908181526020018280546120cb906135a0565b80156121185780601f106120ed57610100808354040283529160200191612118565b820191906000526020600020905b8154815290600101906020018083116120fb57829003601f168201915b505050505081526020019060010190612080565b505050508152505081526020019060010190611f9c565b50505050905090565b6000600b54905090565b61215e6126fa565b73ffffffffffffffffffffffffffffffffffffffff1661217c61128a565b73ffffffffffffffffffffffffffffffffffffffff16146121d2576040517f08c379a00000000000000000000000000000000000000000000000000000000081526004016121c99061463e565b60405180910390fd5b565b60008060009054906101000a900473ffffffffffffffffffffffffffffffffffffffff169050816000806101000a81548173ffffffffffffffffffffffffffffffffffffffff021916908373ffffffffffffffffffffffffffffffffffffffff1602179055508173ffffffffffffffffffffffffffffffffffffffff168173ffffffffffffffffffffffffffffffffffffffff167f8be0079c531659141344cd1fd0a4f28419497f9722a3daafe3b4186f6b6457e060405160405180910390a35050565b606060006122a583612702565b905060008167ffffffffffffffff8111156122c3576122c26138b8565b5b6040519080825280602002602001820160405280156122f15781602001602082028036833780820191505090505b5090506000805b610100811015612348576000816001901b87161461233d578083838151811061232457612323613748565b5b6020026020010181815250508161233a90613d19565b91505b8060010190506122f8565b50819350505050919050565b61235c612156565b6000600954116123a1576040517f08c379a000000000000000000000000000000000000000000000000000000000815260040161239890614212565b60405180910390fd5b4760095411156123e6576040517f08c379a00000000000000000000000000000000000000000000000000000000081526004016123dd90613f28565b60405180910390fd5b60006009549050600060098190555060003373ffffffffffffffffffffffffffffffffffffffff168260405161241b90613f79565b60006040518083038185875af1925050503d8060008114612458576040519150601f19603f3d011682016040523d82523d6000602084013e61245d565b606091505b50509050806124a1576040517f08c379a0000000000000000000000000000000000000000000000000000000008152600401612498906146aa565b60405180910390fd5b7fbb23de5c4d0ac7c049b292881397f32ddab597aebe0859c2baf41548d5c20c3733836040516124d2929190614716565b60405180910390a15050565b60008083839050905061010081111561252c576040517f08c379a00000000000000000000000000000000000000000000000000000000081526004016125239061479e565b60405180910390fd5b60008060005b838110156125ae5786868281811061254d5761254c613748565b5b90506020020135925060ff83111561259a576040517f08c379a00000000000000000000000000000000000000000000000000000000081526004016125919061480a565b60405180910390fd5b826001901b82179150806001019050612532565b5080935050505092915050565b6000600e60008373ffffffffffffffffffffffffffffffffffffffff1673ffffffffffffffffffffffffffffffffffffffff168152602001908152602001600020541461263d576040517f08c379a000000000000000000000000000000000000000000000000000000000815260040161263490614876565b60405180910390fd5b600c546009541015612684576040517f08c379a000000000000000000000000000000000000000000000000000000000815260040161267b90613f28565b60405180910390fd5b600c54600960008282546126989190614552565b92505081905550600c54600e60008373ffffffffffffffffffffffffffffffffffffffff1673ffffffffffffffffffffffffffffffffffffffff16815260200190815260200160002060008282546126f0919061344b565b9250508190555050565b600033905090565b60008060008390505b6000811115612731576001811682612723919061344b565b9150600181901c905061270b565b8192505050919050565b60405180606001604052806000815260200160608152602001606081525090565b8280548282559060005260206000209081019282156127a4579160200282015b828111156127a35782518290816127939190613c47565b509160200191906001019061277c565b5b5090506127b191906127b5565b5090565b5b808211156127d557600081816127cc91906127d9565b506001016127b6565b5090565b5080546127e5906135a0565b6000825580601f106127f75750612816565b601f0160209004906000526020600020908101906128159190612819565b5b50565b5b8082111561283257600081600090555060010161281a565b5090565b6000819050919050565b61284981612836565b82525050565b60006020820190506128646000830184612840565b92915050565b60008115159050919050565b61287f8161286a565b82525050565b600060208201905061289a6000830184612876565b92915050565b600081519050919050565b600082825260208201905092915050565b60005b838110156128da5780820151818401526020810190506128bf565b60008484015250505050565b6000601f19601f8301169050919050565b6000612902826128a0565b61290c81856128ab565b935061291c8185602086016128bc565b612925816128e6565b840191505092915050565b6000604082019050818103600083015261294a81856128f7565b9050818103602083015261295e81846128f7565b90509392505050565b600073ffffffffffffffffffffffffffffffffffffffff82169050919050565b600061299282612967565b9050919050565b6129a281612987565b82525050565b60006020820190506129bd6000830184612999565b92915050565b600060ff82169050919050565b6129d9816129c3565b82525050565b60006020820190506129f460008301846129d0565b92915050565b600081519050919050565b600082825260208201905092915050565b6000819050602082019050919050565b612a2f81612836565b82525050565b6000612a418383612a26565b60208301905092915050565b6000602082019050919050565b6000612a65826129fa565b612a6f8185612a05565b9350612a7a83612a16565b8060005b83811015612aab578151612a928882612a35565b9750612a9d83612a4d565b925050600181019050612a7e565b5085935050505092915050565b60006020820190508181036000830152612ad28184612a5a565b905092915050565b6000604051905090565b600080fd5b600080fd5b612af781612836565b8114612b0257600080fd5b50565b600081359050612b1481612aee565b92915050565b600060208284031215612b3057612b2f612ae4565b5b6000612b3e84828501612b05565b91505092915050565b600082825260208201905092915050565b6000612b63826128a0565b612b6d8185612b47565b9350612b7d8185602086016128bc565b612b86816128e6565b840191505092915050565b600081519050919050565b600082825260208201905092915050565b6000819050602082019050919050565b6000612bc98383612b58565b905092915050565b6000602082019050919050565b6000612be982612b91565b612bf38185612b9c565b935083602082028501612c0585612bad565b8060005b85811015612c415784840389528151612c228582612bbd565b9450612c2d83612bd1565b925060208a01995050600181019050612c09565b50829750879550505050505092915050565b6000606083016000830151612c6b6000860182612a26565b5060208301518482036020860152612c838282612b58565b91505060408301518482036040860152612c9d8282612bde565b9150508091505092915050565b60006020820190508181036000830152612cc48184612c53565b905092915050565b600080fd5b600080fd5b600080fd5b60008083601f840112612cf157612cf0612ccc565b5b8235905067ffffffffffffffff811115612d0e57612d0d612cd1565b5b602083019150836020820283011115612d2a57612d29612cd6565b5b9250929050565b60008083601f840112612d4757612d46612ccc565b5b8235905067ffffffffffffffff811115612d6457612d63612cd1565b5b602083019150836020820283011115612d8057612d7f612cd6565b5b9250929050565b60008060008060408587031215612da157612da0612ae4565b5b600085013567ffffffffffffffff811115612dbf57612dbe612ae9565b5b612dcb87828801612cdb565b9450945050602085013567ffffffffffffffff811115612dee57612ded612ae9565b5b612dfa87828801612d31565b925092505092959194509250565b7f4e487b7100000000000000000000000000000000000000000000000000000000600052602160045260246000fd5b60068110612e4857612e47612e08565b5b50565b6000819050612e5982612e37565b919050565b6000612e6982612e4b565b9050919050565b612e7981612e5e565b82525050565b6000602082019050612e946000830184612e70565b92915050565b612ea381612987565b8114612eae57600080fd5b50565b600081359050612ec081612e9a565b92915050565b612ecf8161286a565b8114612eda57600080fd5b50565b600081359050612eec81612ec6565b92915050565b60008060408385031215612f0957612f08612ae4565b5b6000612f1785828601612eb1565b9250506020612f2885828601612edd565b9150509250929050565b60008083601f840112612f4857612f47612ccc565b5b8235905067ffffffffffffffff811115612f6557612f64612cd1565b5b602083019150836001820283011115612f8157612f80612cd6565b5b9250929050565b60008060008060408587031215612fa257612fa1612ae4565b5b600085013567ffffffffffffffff811115612fc057612fbf612ae9565b5b612fcc87828801612f32565b9450945050602085013567ffffffffffffffff811115612fef57612fee612ae9565b5b612ffb87828801612cdb565b925092505092959194509250565b60006020828403121561301f5761301e612ae4565b5b600061302d84828501612eb1565b91505092915050565b600081519050919050565b600082825260208201905092915050565b6000819050602082019050919050565b600082825260208201905092915050565b600061307e826129fa565b6130888185613062565b935061309383612a16565b8060005b838110156130c45781516130ab8882612a35565b97506130b683612a4d565b925050600181019050613097565b5085935050505092915050565b60006130dd8383613073565b905092915050565b6000602082019050919050565b60006130fd82613036565b6131078185613041565b93508360208202850161311985613052565b8060005b85811015613155578484038952815161313685826130d1565b9450613141836130e5565b925060208a0199505060018101905061311d565b50829750879550505050505092915050565b6000602082019050818103600083015261318181846130f2565b905092915050565b60008083601f84011261319f5761319e612ccc565b5b8235905067ffffffffffffffff8111156131bc576131bb612cd1565b5b6020830191508360208202830111156131d8576131d7612cd6565b5b9250929050565b6000819050919050565b6131f2816131df565b81146131fd57600080fd5b50565b60008135905061320f816131e9565b92915050565b60008060006040848603121561322e5761322d612ae4565b5b600084013567ffffffffffffffff81111561324c5761324b612ae9565b5b61325886828701613189565b9350935050602061326b86828701613200565b9150509250925092565b600081519050919050565b600082825260208201905092915050565b6000819050602082019050919050565b60006060830160008301516132b96000860182612a26565b50602083015184820360208601526132d18282612b58565b915050604083015184820360408601526132eb8282612bde565b9150508091505092915050565b600061330483836132a1565b905092915050565b6000602082019050919050565b600061332482613275565b61332e8185613280565b93508360208202850161334085613291565b8060005b8581101561337c578484038952815161335d85826132f8565b94506133688361330c565b925060208a01995050600181019050613344565b50829750879550505050505092915050565b600060208201905081810360008301526133a88184613319565b905092915050565b7f506f6c6c20616c7265616479207375626d697474656400000000000000000000600082015250565b60006133e66016836128ab565b91506133f1826133b0565b602082019050919050565b60006020820190508181036000830152613415816133d9565b9050919050565b7f4e487b7100000000000000000000000000000000000000000000000000000000600052601160045260246000fd5b600061345682612836565b915061346183612836565b92508282019050808211156134795761347861341c565b5b92915050565b60006060820190506134946000830186612999565b6134a16020830185612840565b6134ae6040830184612840565b949350505050565b60006040820190506134cb6000830185612e70565b6134d86020830184612e70565b9392505050565b600081905092915050565b7f4920636c61696d2074686973206164647265737320697320636572746966696560008201527f6400000000000000000000000000000000000000000000000000000000000000602082015250565b60006135466021836134df565b9150613551826134ea565b602182019050919050565b600061356782613539565b9150819050919050565b7f4e487b7100000000000000000000000000000000000000000000000000000000600052602260045260246000fd5b600060028204905060018216806135b857607f821691505b6020821081036135cb576135ca613571565b5b50919050565b60008190508160005260206000209050919050565b600081546135f3816135a0565b6135fd81866128ab565b94506001821660008114613618576001811461362e57613661565b60ff198316865281151560200286019350613661565b613637856135d1565b60005b838110156136595781548189015260018201915060208101905061363a565b808801955050505b50505092915050565b6000604082019050818103600083015261368481856135e6565b90506136936020830184612999565b9392505050565b6000815190506136a9816131e9565b92915050565b6000602082840312156136c5576136c4612ae4565b5b60006136d38482850161369a565b91505092915050565b7f506f6c6c696e67206e6f7420656e646564000000000000000000000000000000600082015250565b60006137126011836128ab565b915061371d826136dc565b602082019050919050565b6000602082019050818103600083015261374181613705565b9050919050565b7f4e487b7100000000000000000000000000000000000000000000000000000000600052603260045260246000fd5b7f417272617973206d7573742068617665207468652073616d65206c656e677468600082015250565b60006137ad6020836128ab565b91506137b882613777565b602082019050919050565b600060208201905081810360008301526137dc816137a0565b9050919050565b600080fd5b600080fd5b600080fd5b6000808335600160200384360303811261380f5761380e6137e3565b5b80840192508235915067ffffffffffffffff821115613831576138306137e8565b5b60208301925060018202360383131561384d5761384c6137ed565b5b509250929050565b60008083356001602003843603038112613872576138716137e3565b5b80840192508235915067ffffffffffffffff821115613894576138936137e8565b5b6020830192506020820236038313156138b0576138af6137ed565b5b509250929050565b7f4e487b7100000000000000000000000000000000000000000000000000000000600052604160045260246000fd5b6138f0826128e6565b810181811067ffffffffffffffff8211171561390f5761390e6138b8565b5b80604052505050565b6000613922612ada565b905061392e82826138e7565b919050565b600067ffffffffffffffff82111561394e5761394d6138b8565b5b602082029050602081019050919050565b600080fd5b600067ffffffffffffffff82111561397f5761397e6138b8565b5b613988826128e6565b9050602081019050919050565b82818337600083830152505050565b60006139b76139b284613964565b613918565b9050828152602081018484840111156139d3576139d261395f565b5b6139de848285613995565b509392505050565b600082601f8301126139fb576139fa612ccc565b5b8135613a0b8482602086016139a4565b91505092915050565b6000613a27613a2284613933565b613918565b90508083825260208201905060208402830185811115613a4a57613a49612cd6565b5b835b81811015613a9157803567ffffffffffffffff811115613a6f57613a6e612ccc565b5b808601613a7c89826139e6565b85526020850194505050602081019050613a4c565b5050509392505050565b6000613aa8368484613a14565b905092915050565b60006020601f8301049050919050565b600082821b905092915050565b600060088302613afd7fffffffffffffffffffffffffffffffffffffffffffffffffffffffffffffffff82613ac0565b613b078683613ac0565b95508019841693508086168417925050509392505050565b6000819050919050565b6000613b44613b3f613b3a84612836565b613b1f565b612836565b9050919050565b6000819050919050565b613b5e83613b29565b613b72613b6a82613b4b565b848454613acd565b825550505050565b600090565b613b87613b7a565b613b92818484613b55565b505050565b5b81811015613bb657613bab600082613b7f565b600181019050613b98565b5050565b601f821115613bfb57613bcc816135d1565b613bd584613ab0565b81016020851015613be4578190505b613bf8613bf085613ab0565b830182613b97565b50505b505050565b600082821c905092915050565b6000613c1e60001984600802613c00565b1980831691505092915050565b6000613c378383613c0d565b9150826002028217905092915050565b613c50826128a0565b67ffffffffffffffff811115613c6957613c686138b8565b5b613c7382546135a0565b613c7e828285613bba565b600060209050601f831160018114613cb15760008415613c9f578287015190505b613ca98582613c2b565b865550613d11565b601f198416613cbf866135d1565b60005b82811015613ce757848901518255600182019150602085019450602081019050613cc2565b86831015613d045784890151613d00601f891682613c0d565b8355505b6001600288020188555050505b505050505050565b6000613d2482612836565b91507fffffffffffffffffffffffffffffffffffffffffffffffffffffffffffffffff8203613d5657613d5561341c565b5b600182019050919050565b6000606082019050613d766000830186612840565b613d836020830185612840565b613d906040830184612840565b949350505050565b7f506f6c6c696e67206e6f74207374617274656400000000000000000000000000600082015250565b6000613dce6013836128ab565b9150613dd982613d98565b602082019050919050565b60006020820190508181036000830152613dfd81613dc1565b9050919050565b7f506f6c6c20616c72656164792064697374726962757465640000000000000000600082015250565b6000613e3a6018836128ab565b9150613e4582613e04565b602082019050919050565b60006020820190508181036000830152613e6981613e2d565b9050919050565b7f416c726561647920636c61696d65640000000000000000000000000000000000600082015250565b6000613ea6600f836128ab565b9150613eb182613e70565b602082019050919050565b60006020820190508181036000830152613ed581613e99565b9050919050565b7f4e6f7420656e6f7567682066756e647300000000000000000000000000000000600082015250565b6000613f126010836128ab565b9150613f1d82613edc565b602082019050919050565b60006020820190508181036000830152613f4181613f05565b9050919050565b600081905092915050565b50565b6000613f63600083613f48565b9150613f6e82613f53565b600082019050919050565b6000613f8482613f56565b9150819050919050565b7f5472616e73666572206661696c65640000000000000000000000000000000000600082015250565b6000613fc4600f836128ab565b9150613fcf82613f8e565b602082019050919050565b60006020820190508181036000830152613ff381613fb7565b9050919050565b7f52657761726420636c61696d6564000000000000000000000000000000000000600082015250565b6000614030600e836128ab565b915061403b82613ffa565b602082019050919050565b600060608201905061405b6000830185612999565b6140686020830184612840565b818103604083015261407981614023565b90509392505050565b7f4f6e6c792044414f2063616e2063616c6c20746869732066756e6374696f6e00600082015250565b60006140b8601f836128ab565b91506140c382614082565b602082019050919050565b600060208201905081810360008301526140e7816140ab565b9050919050565b7f506f6c6c206e6f74207375626d69747465640000000000000000000000000000600082015250565b60006141246012836128ab565b915061412f826140ee565b602082019050919050565b6000602082019050818103600083015261415381614117565b9050919050565b7f57726f6e6720706f6c6c20616464726573730000000000000000000000000000600082015250565b60006141906012836128ab565b915061419b8261415a565b602082019050919050565b600060208201905081810360008301526141bf81614183565b9050919050565b7f4e6f2066756e647320746f20726566756e640000000000000000000000000000600082015250565b60006141fc6012836128ab565b9150614207826141c6565b602082019050919050565b6000602082019050818103600083015261422b816141ef565b9050919050565b7f546f6f206d616e792063686f6963657300000000000000000000000000000000600082015250565b60006142686010836128ab565b915061427382614232565b602082019050919050565b600060208201905081810360008301526142978161425b565b9050919050565b7f546f6f206d616e7920746f706963730000000000000000000000000000000000600082015250565b60006142d4600f836128ab565b91506142df8261429e565b602082019050919050565b60006020820190508181036000830152614303816142c7565b9050919050565b6000819050919050565b600061432f61432a6143258461430a565b613b1f565b612836565b9050919050565b61433f81614314565b82525050565b600060608201905061435a6000830186614336565b6143676020830185612840565b6143746040830184612840565b949350505050565b7f4f776e61626c653a206e6577206f776e657220697320746865207a65726f206160008201527f6464726573730000000000000000000000000000000000000000000000000000602082015250565b60006143d86026836128ab565b91506143e38261437c565b604082019050919050565b60006020820190508181036000830152614407816143cb565b9050919050565b7f416c726561647920616e73776572656400000000000000000000000000000000600082015250565b60006144446010836128ab565b915061444f8261440e565b602082019050919050565b6000602082019050818103600083015261447381614437565b9050919050565b7f57726f6e67206e756d626572206f6620616e7377657273000000000000000000600082015250565b60006144b06017836128ab565b91506144bb8261447a565b602082019050919050565b600060208201905081810360008301526144df816144a3565b9050919050565b7f4e6f7420656c696769626c650000000000000000000000000000000000000000600082015250565b600061451c600c836128ab565b9150614527826144e6565b602082019050919050565b6000602082019050818103600083015261454b8161450f565b9050919050565b600061455d82612836565b915061456883612836565b92508282039050818111156145805761457f61341c565b5b92915050565b7f416e73776572206f7574206f662072616e676500000000000000000000000000600082015250565b60006145bc6013836128ab565b91506145c782614586565b602082019050919050565b600060208201905081810360008301526145eb816145af565b9050919050565b7f4f776e61626c653a2063616c6c6572206973206e6f7420746865206f776e6572600082015250565b60006146286020836128ab565b9150614633826145f2565b602082019050919050565b600060208201905081810360008301526146578161461b565b9050919050565b7f526566756e64206661696c656400000000000000000000000000000000000000600082015250565b6000614694600d836128ab565b915061469f8261465e565b602082019050919050565b600060208201905081810360008301526146c381614687565b9050919050565b7f526566756e6420746f206f776e65720000000000000000000000000000000000600082015250565b6000614700600f836128ab565b915061470b826146ca565b602082019050919050565b600060608201905061472b6000830185612999565b6147386020830184612840565b8181036040830152614749816146f3565b90509392505050565b7f546f6f206d616e79206269747320746f207365742e0000000000000000000000600082015250565b60006147886015836128ab565b915061479382614752565b602082019050919050565b600060208201905081810360008301526147b78161477b565b9050919050565b7f42697420746f20736574206f7574206f662072616e67652e0000000000000000600082015250565b60006147f46018836128ab565b91506147ff826147be565b602082019050919050565b60006020820190508181036000830152614823816147e7565b9050919050565b7f416c726561647920757064617465640000000000000000000000000000000000600082015250565b6000614860600f836128ab565b915061486b8261482a565b602082019050919050565b6000602082019050818103600083015261488f81614853565b905091905056fea2646970667358221220dcf274be2c205ef757c78a06f13873b59b18275636a7f107f7538cef3ef0441064736f6c63430008130033",
  "immutableReferences": {},
  "source": "// SPDX-License-Identifier: MIT\n\npragma solidity 0.8.19;\n\n/**\n@title PollUser\n@author ibourn\n@notice This contract contains the respondents functions\n@notice results are not not cumulative but separate, as the owner could want to do a cross-data analysis\n@notice addresses are not linked directly to answers\n@dev The contract inherits from PollAdmin (and so from PollView, PollStorage, Ownable)\n@dev (see PollMaster.sol for comments & explanations)\n@inheritdoc Ownable\n */\nimport \"./PollAdmin.sol\";\nimport \"./IPollUser.sol\";\nimport \"./Certifier.sol\";\n\n//IPollUser\ncontract PollUser is PollAdmin, IPollUser {\n\n\n    // :::::::::::::::::::::::::: GETTERS :::::::::::::::::::::::::::::: //\n//internal\n    function getEligibility() public view returns (bool) {\n        return Certifier(certifierAddress).getEligibilityProof(eligibilityCriteria, msg.sender) == PSEUDO_PROOF;\n    }\n\n    // :::::::::::::::::::::::::: SETTERS :::::::::::::::::::::::::::::: //\n\n    /**\n    @notice This function allow to answer to the poll\n    @dev it update the balance of the respondent to allow him to claim the reward\n    @dev index of choices start from 0 and should be ordered as the choices in the topics in order to revert earlier in case of invalid answer (function in helpers will revert later if not)\n    @param _chosenChoices is an array of uint representing the index of the choices chosen by the respondent (in the order of the all choices and starting from 0)\n     */\n    function addAnswer(uint[] calldata _chosenChoices, bytes32 _eligibilityProof) external {\n        require(pollStatus == PollStatus.PollingStarted, 'Polling not started');\n        require(balances[msg.sender] == 0, 'Already answered');\n        require(_chosenChoices.length <= totalChoicesCount, 'Wrong number of answers');\n        require(getEligibility(), 'Not eligible');\n        //check last num (index of choice) <= totalChoicesCount\n        require(_chosenChoices[_chosenChoices.length - 1] < totalChoicesCount, 'Answer out of range');\n\n        uint256 _answer = setBitsFromPositions(_chosenChoices);\n\n        // respondents.push(msg.sender);\n        answers.push(_answer);\n        // responded[msg.sender] = true;\n\n        _updateRespondentBalance(msg.sender);\n\n    }\n\n    /**\n    @notice This function allow to claim the reward\n    @dev it send the reward to the respondent\n     */\n    function claimReward() external {\n        require(pollStatus == PollStatus.PollingEnded, 'Polling not ended');\n        require(balances[msg.sender] != 0, 'Already claimed');\n        require(balance >= balances[msg.sender], 'Not enough funds');\n        uint amountToSend = balances[msg.sender];\n        balances[msg.sender] = 0;\n        (bool res,) = msg.sender.call{value: amountToSend}(\"\");\n        require(res, \"Transfer failed\");\n\n        emit PollWithdrawal(msg.sender, amountToSend, 'Reward claimed');\n    }\n\n    /**\n    @notice this function update the balance of the respondent setting it to the amountToRespondent\n    @dev it's a private function called by addAnswer\n    @param _respondent is the address of the respondent\n     */\n    function _updateRespondentBalance(address _respondent) private {\n    // require(responded[_respondent] == true, 'Not answered yet');\n    require(balances[_respondent] == 0, 'Already updated');\n    require(balance >= amountToRespondent, 'Not enough funds');\n        balance -= amountToRespondent;\n        balances[_respondent] += amountToRespondent;\n    }\n}",
  "sourcePath": "/home/ibournubuntu/ALYRA/PROJET_FINAL/DPoll/truffle/contracts/PollUser.sol",
  "compiler": {
    "name": "solc",
    "version": "0.8.19+commit.7dd6d404.Emscripten.clang"
  },
  "schemaVersion": "3.4.14",
  "updatedAt": "2023-07-25T23:44:32.828Z",
  "devdoc": {
    "kind": "dev",
    "methods": {
      "addAnswer(uint256[],bytes32)": {
        "details": "it update the balance of the respondent to allow him to claim the rewardindex of choices start from 0 and should be ordered as the choices in the topics in order to revert earlier in case of invalid answer (function in helpers will revert later if not)",
        "params": {
          "_chosenChoices": "is an array of uint representing the index of the choices chosen by the respondent (in the order of the all choices and starting from 0)"
        }
      },
      "addTopic(string,string[])": {
        "details": "the choices are an array of string",
        "params": {
          "_choices": "is an array of string representing the choices of the topic",
          "_question": "is the question of the topic"
        }
      },
      "addTopicsBatch(string[],string[][])": {
        "details": "structure of choice : [topic choices][topics] / read/write : a.[topic n][choice n] / lenght : a.length == topics.length",
        "params": {
          "_choices": "is an array of array of string representing the choices of the topics",
          "_questions": "is an array of string representing the questions of the topics"
        }
      },
      "claimReward()": {
        "details": "it send the reward to the respondent"
      },
      "endPoll()": {
        "details": "LATER : delay and number of answers will allow to set requirements to end the Poll by everybody (not only the owner), with incentives to automate the process"
      },
      "getPackedAnswers()": {
        "details": "answers are packed so each answer is a uint flagging the choices of the respondent",
        "returns": {
          "_0": "answers is an array of uint representing the answers of the poll"
        }
      },
      "getSelectedChoicesByAnswer(uint256)": {
        "details": "one answer is a uint256 where each bit represent an available choice : 1 is selected, 0 is not selected",
        "params": {
          "_answerId": "is the index of the answer in the answers array"
        },
        "returns": {
          "_0": "an array of uint representing the selected choices of the respondent (in the order of all choices in topics)"
        }
      },
      "getUnpackedAnswers()": {
        "details": "answers are unpacked so each result is the index of a choice selected by a respondentcall getSelectedChoicesByAnswer() to get the selected choices of a respondentuse answers.length to get the number of respondents",
        "returns": {
          "_0": "an array of all respondets answers as an array of uint corresponding to the index of the choices selected by the respondent (reading :[choices][respondents])"
        }
      },
      "owner()": {
        "details": "Returns the address of the current owner."
      },
      "renounceOwnership()": {
        "details": "Leaves the contract without owner. It will not be possible to call `onlyOwner` functions. Can only be called by the current owner. NOTE: Renouncing ownership will leave the contract without an owner, thereby disabling any functionality that is only available to the owner."
      },
      "setPollValidation(address,bool)": {
        "details": "if the poll is validated, the DAO will pay the validators and the DAOif the poll is rejected, the DAO will refund the owner balance less the validators fees (owner should claim it back later)it set the timestampLimit to the end of the poll and start the poll",
        "params": {
          "isValid": "is a boolean to validate or reject the poll",
          "pollAddress": "is the address of the poll to validate (this contract)"
        }
      },
      "transferOwnership(address)": {
        "details": "Transfers ownership of the contract to a new account (`newOwner`). Can only be called by the current owner."
      }
    },
    "version": 1
  },
  "userdoc": {
    "kind": "user",
    "methods": {
      "addAnswer(uint256[],bytes32)": {
        "notice": "This function allow to answer to the poll"
      },
      "addTopic(string,string[])": {
        "notice": "This function allows to add a topic : a question and its choices"
      },
      "addTopicsBatch(string[],string[][])": {
        "notice": "This function allows to add topics : questions and their choices, in batch"
      },
      "claimRefund()": {
        "notice": "allows the admin to withdraw the funds of the poll in case of rejection by the DAO or if the poll end without enough respondents"
      },
      "claimReward()": {
        "notice": "This function allow to claim the reward"
      },
      "endPoll()": {
        "notice": "allows the admin to end the poll"
      },
      "getPackedAnswers()": {
        "notice": "get all the answers of the poll"
      },
      "getSelectedChoicesByAnswer(uint256)": {
        "notice": "This function return the selected choices of topics of a respondent"
      },
      "getUnpackedAnswers()": {
        "notice": "get all the answers of the poll"
      },
      "setPollValidation(address,bool)": {
        "notice": "allows the DAO to validate or reject the poll"
      },
      "submitPoll()": {
        "notice": "allows the admin to submit the poll to the DAO for validation (validators will check for illegal content...) "
      }
    },
    "version": 1
  }
}