{
  "contractName": "PollView",
  "abi": [
    {
      "anonymous": false,
      "inputs": [
        {
          "indexed": true,
          "internalType": "address",
          "name": "previousOwner",
          "type": "address"
        },
        {
          "indexed": true,
          "internalType": "address",
          "name": "newOwner",
          "type": "address"
        }
      ],
      "name": "OwnershipTransferred",
      "type": "event"
    },
    {
      "inputs": [],
      "name": "DAOaddress",
      "outputs": [
        {
          "internalType": "address",
          "name": "",
          "type": "address"
        }
      ],
      "stateMutability": "view",
      "type": "function"
    },
    {
      "inputs": [],
      "name": "MAX_CHOICES_COUNT",
      "outputs": [
        {
          "internalType": "uint256",
          "name": "",
          "type": "uint256"
        }
      ],
      "stateMutability": "view",
      "type": "function"
    },
    {
      "inputs": [],
      "name": "MAX_CHOICES_LENGTH",
      "outputs": [
        {
          "internalType": "uint256",
          "name": "",
          "type": "uint256"
        }
      ],
      "stateMutability": "view",
      "type": "function"
    },
    {
      "inputs": [],
      "name": "MAX_RESPONDENTS_LENGTH",
      "outputs": [
        {
          "internalType": "uint256",
          "name": "",
          "type": "uint256"
        }
      ],
      "stateMutability": "view",
      "type": "function"
    },
    {
      "inputs": [],
      "name": "MAX_TOPICS_LENGTH",
      "outputs": [
        {
          "internalType": "uint256",
          "name": "",
          "type": "uint256"
        }
      ],
      "stateMutability": "view",
      "type": "function"
    },
    {
      "inputs": [],
      "name": "MIN_POLL_AMOUNT",
      "outputs": [
        {
          "internalType": "uint256",
          "name": "",
          "type": "uint256"
        }
      ],
      "stateMutability": "view",
      "type": "function"
    },
    {
      "inputs": [],
      "name": "MIN_RESPONDENT_AMOUNT",
      "outputs": [
        {
          "internalType": "uint256",
          "name": "",
          "type": "uint256"
        }
      ],
      "stateMutability": "view",
      "type": "function"
    },
    {
      "inputs": [],
      "name": "certifierAddress",
      "outputs": [
        {
          "internalType": "address",
          "name": "",
          "type": "address"
        }
      ],
      "stateMutability": "view",
      "type": "function"
    },
    {
      "inputs": [],
      "name": "owner",
      "outputs": [
        {
          "internalType": "address",
          "name": "",
          "type": "address"
        }
      ],
      "stateMutability": "view",
      "type": "function"
    },
    {
      "inputs": [],
      "name": "renounceOwnership",
      "outputs": [],
      "stateMutability": "nonpayable",
      "type": "function"
    },
    {
      "inputs": [
        {
          "internalType": "address",
          "name": "newOwner",
          "type": "address"
        }
      ],
      "name": "transferOwnership",
      "outputs": [],
      "stateMutability": "nonpayable",
      "type": "function"
    },
    {
      "inputs": [],
      "name": "getRequiredResponseCount",
      "outputs": [
        {
          "internalType": "uint256",
          "name": "",
          "type": "uint256"
        }
      ],
      "stateMutability": "view",
      "type": "function"
    },
    {
      "inputs": [],
      "name": "getRespondentsCount",
      "outputs": [
        {
          "internalType": "uint256",
          "name": "",
          "type": "uint256"
        }
      ],
      "stateMutability": "view",
      "type": "function"
    },
    {
      "inputs": [],
      "name": "getPollInformations",
      "outputs": [
        {
          "internalType": "string",
          "name": "",
          "type": "string"
        },
        {
          "internalType": "string",
          "name": "",
          "type": "string"
        }
      ],
      "stateMutability": "view",
      "type": "function"
    },
    {
      "inputs": [],
      "name": "getBalance",
      "outputs": [
        {
          "internalType": "uint256",
          "name": "",
          "type": "uint256"
        }
      ],
      "stateMutability": "view",
      "type": "function"
    },
    {
      "inputs": [],
      "name": "getAmountToRespondent",
      "outputs": [
        {
          "internalType": "uint256",
          "name": "",
          "type": "uint256"
        }
      ],
      "stateMutability": "view",
      "type": "function"
    },
    {
      "inputs": [],
      "name": "getAmountToDAO",
      "outputs": [
        {
          "internalType": "uint256",
          "name": "",
          "type": "uint256"
        }
      ],
      "stateMutability": "view",
      "type": "function"
    },
    {
      "inputs": [],
      "name": "getAmountToValidators",
      "outputs": [
        {
          "internalType": "uint256",
          "name": "",
          "type": "uint256"
        }
      ],
      "stateMutability": "view",
      "type": "function"
    },
    {
      "inputs": [],
      "name": "getRespondentReward",
      "outputs": [
        {
          "internalType": "uint256",
          "name": "",
          "type": "uint256"
        }
      ],
      "stateMutability": "view",
      "type": "function"
    },
    {
      "inputs": [],
      "name": "getPollStatus",
      "outputs": [
        {
          "internalType": "enum PollStorage.PollStatus",
          "name": "",
          "type": "uint8"
        }
      ],
      "stateMutability": "view",
      "type": "function"
    },
    {
      "inputs": [],
      "name": "getIsCanceled",
      "outputs": [
        {
          "internalType": "bool",
          "name": "",
          "type": "bool"
        }
      ],
      "stateMutability": "view",
      "type": "function"
    },
    {
      "inputs": [
        {
          "internalType": "uint256",
          "name": "_id",
          "type": "uint256"
        }
      ],
      "name": "getTopic",
      "outputs": [
        {
          "components": [
            {
              "internalType": "uint256",
              "name": "firstChoiceIndex",
              "type": "uint256"
            },
            {
              "internalType": "string",
              "name": "question",
              "type": "string"
            },
            {
              "internalType": "string[]",
              "name": "choices",
              "type": "string[]"
            }
          ],
          "internalType": "struct PollStorage.Topic",
          "name": "",
          "type": "tuple"
        }
      ],
      "stateMutability": "view",
      "type": "function"
    },
    {
      "inputs": [],
      "name": "getTopicsLength",
      "outputs": [
        {
          "internalType": "uint256",
          "name": "",
          "type": "uint256"
        }
      ],
      "stateMutability": "view",
      "type": "function"
    },
    {
      "inputs": [],
      "name": "getTopics",
      "outputs": [
        {
          "components": [
            {
              "internalType": "uint256",
              "name": "firstChoiceIndex",
              "type": "uint256"
            },
            {
              "internalType": "string",
              "name": "question",
              "type": "string"
            },
            {
              "internalType": "string[]",
              "name": "choices",
              "type": "string[]"
            }
          ],
          "internalType": "struct PollStorage.Topic[]",
          "name": "",
          "type": "tuple[]"
        }
      ],
      "stateMutability": "view",
      "type": "function"
    }
  ],
  "bytecode": "0x608060405234801561001057600080fd5b5061002d61002261003260201b60201c565b61003a60201b60201c565b6100fe565b600033905090565b60008060009054906101000a900473ffffffffffffffffffffffffffffffffffffffff169050816000806101000a81548173ffffffffffffffffffffffffffffffffffffffff021916908373ffffffffffffffffffffffffffffffffffffffff1602179055508173ffffffffffffffffffffffffffffffffffffffff168173ffffffffffffffffffffffffffffffffffffffff167f8be0079c531659141344cd1fd0a4f28419497f9722a3daafe3b4186f6b6457e060405160405180910390a35050565b6113a08061010d6000396000f3fe608060405234801561001057600080fd5b50600436106101575760003560e01c80636b126209116100c3578063a61540641161007c578063a615406414610377578063a92a4fae14610395578063f2fde38b146103b3578063f64b0af9146103cf578063fee01177146103ed578063ff4c4e0d1461040b57610157565b80636b126209146102c5578063715018a6146102e357806371658896146102ed578063883032e81461031d5780638c062e4e1461033b5780638da5cb5b1461035957610157565b80633bbe2497116101155780633bbe24971461021157806342587e721461022f578063442da8bd1461024d57806346b7bc911461026b57806349cf2eae146102895780636a5543e9146102a757610157565b8062cc86bd1461015c57806312065fe01461017a5780631dd17d2f146101985780632a0e1c4f146101b6578063383da4b1146101d45780633bb3ba3d146101f2575b600080fd5b610164610429565b6040516101719190610c51565b60405180910390f35b610182610433565b60405161018f9190610c51565b60405180910390f35b6101a061043d565b6040516101ad9190610c51565b60405180910390f35b6101be610442565b6040516101cb9190610c87565b60405180910390f35b6101dc610459565b6040516101e99190610c51565b60405180910390f35b6101fa61045e565b604051610208929190610d32565b60405180910390f35b610219610585565b6040516102269190610c51565b60405180910390f35b610237610590565b6040516102449190610c51565b60405180910390f35b61025561059a565b6040516102629190610c51565b60405180910390f35b6102736105a4565b6040516102809190610c51565b60405180910390f35b6102916105eb565b60405161029e9190610daa565b60405180910390f35b6102af610611565b6040516102bc9190610c51565b60405180910390f35b6102cd61061e565b6040516102da9190610c51565b60405180910390f35b6102eb610624565b005b61030760048036038101906103029190610df6565b610638565b6040516103149190610f95565b60405180910390f35b6103256107e9565b604051610332919061102e565b60405180910390f35b610343610800565b6040516103509190610daa565b60405180910390f35b610361610826565b60405161036e9190610daa565b60405180910390f35b61037f61084f565b60405161038c9190610c51565b60405180910390f35b61039d610855565b6040516103aa9190610c51565b60405180910390f35b6103cd60048036038101906103c89190611075565b610862565b005b6103d76108e5565b6040516103e49190610c51565b60405180910390f35b6103f56108ef565b60405161040291906111bb565b60405180910390f35b610413610ac3565b6040516104209190610c51565b60405180910390f35b6000600354905090565b6000600854905090565b600a81565b6000600c60019054906101000a900460ff16905090565b603281565b606080600560068180546104719061120c565b80601f016020809104026020016040519081016040528092919081815260200182805461049d9061120c565b80156104ea5780601f106104bf576101008083540402835291602001916104ea565b820191906000526020600020905b8154815290600101906020018083116104cd57829003601f168201915b505050505091508080546104fd9061120c565b80601f01602080910402602001604051908101604052809291908181526020018280546105299061120c565b80156105765780601f1061054b57610100808354040283529160200191610576565b820191906000526020600020905b81548152906001019060200180831161055957829003601f168201915b50505050509050915091509091565b66b1a2bc2ec5000081565b655af3107a400081565b6000600b54905090565b6000600d60003373ffffffffffffffffffffffffffffffffffffffff1673ffffffffffffffffffffffffffffffffffffffff16815260200190815260200160002054905090565b600260009054906101000a900473ffffffffffffffffffffffffffffffffffffffff1681565b6000600f80549050905090565b6103e881565b61062c610acd565b6106366000610b4b565b565b610640610c17565b600e82815481106106545761065361123d565b5b9060005260206000209060030201604051806060016040529081600082015481526020016001820180546106879061120c565b80601f01602080910402602001604051908101604052809291908181526020018280546106b39061120c565b80156107005780601f106106d557610100808354040283529160200191610700565b820191906000526020600020905b8154815290600101906020018083116106e357829003601f168201915b5050505050815260200160028201805480602002602001604051908101604052809291908181526020016000905b828210156107da57838290600052602060002001805461074d9061120c565b80601f01602080910402602001604051908101604052809291908181526020018280546107799061120c565b80156107c65780601f1061079b576101008083540402835291602001916107c6565b820191906000526020600020905b8154815290600101906020018083116107a957829003601f168201915b50505050508152602001906001019061072e565b50505050815250509050919050565b6000600c60009054906101000a900460ff16905090565b600160009054906101000a900473ffffffffffffffffffffffffffffffffffffffff1681565b60008060009054906101000a900473ffffffffffffffffffffffffffffffffffffffff16905090565b61010081565b6000600e80549050905090565b61086a610acd565b600073ffffffffffffffffffffffffffffffffffffffff168173ffffffffffffffffffffffffffffffffffffffff16036108d9576040517f08c379a00000000000000000000000000000000000000000000000000000000081526004016108d0906112de565b60405180910390fd5b6108e281610b4b565b50565b6000600954905090565b6060600e805480602002602001604051908101604052809291908181526020016000905b82821015610aba5783829060005260206000209060030201604051806060016040529081600082015481526020016001820180546109509061120c565b80601f016020809104026020016040519081016040528092919081815260200182805461097c9061120c565b80156109c95780601f1061099e576101008083540402835291602001916109c9565b820191906000526020600020905b8154815290600101906020018083116109ac57829003601f168201915b5050505050815260200160028201805480602002602001604051908101604052809291908181526020016000905b82821015610aa3578382906000526020600020018054610a169061120c565b80601f0160208091040260200160405190810160405280929190818152602001828054610a429061120c565b8015610a8f5780601f10610a6457610100808354040283529160200191610a8f565b820191906000526020600020905b815481529060010190602001808311610a7257829003601f168201915b5050505050815260200190600101906109f7565b505050508152505081526020019060010190610913565b50505050905090565b6000600a54905090565b610ad5610c0f565b73ffffffffffffffffffffffffffffffffffffffff16610af3610826565b73ffffffffffffffffffffffffffffffffffffffff1614610b49576040517f08c379a0000000000000000000000000000000000000000000000000000000008152600401610b409061134a565b60405180910390fd5b565b60008060009054906101000a900473ffffffffffffffffffffffffffffffffffffffff169050816000806101000a81548173ffffffffffffffffffffffffffffffffffffffff021916908373ffffffffffffffffffffffffffffffffffffffff1602179055508173ffffffffffffffffffffffffffffffffffffffff168173ffffffffffffffffffffffffffffffffffffffff167f8be0079c531659141344cd1fd0a4f28419497f9722a3daafe3b4186f6b6457e060405160405180910390a35050565b600033905090565b60405180606001604052806000815260200160608152602001606081525090565b6000819050919050565b610c4b81610c38565b82525050565b6000602082019050610c666000830184610c42565b92915050565b60008115159050919050565b610c8181610c6c565b82525050565b6000602082019050610c9c6000830184610c78565b92915050565b600081519050919050565b600082825260208201905092915050565b60005b83811015610cdc578082015181840152602081019050610cc1565b60008484015250505050565b6000601f19601f8301169050919050565b6000610d0482610ca2565b610d0e8185610cad565b9350610d1e818560208601610cbe565b610d2781610ce8565b840191505092915050565b60006040820190508181036000830152610d4c8185610cf9565b90508181036020830152610d608184610cf9565b90509392505050565b600073ffffffffffffffffffffffffffffffffffffffff82169050919050565b6000610d9482610d69565b9050919050565b610da481610d89565b82525050565b6000602082019050610dbf6000830184610d9b565b92915050565b600080fd5b610dd381610c38565b8114610dde57600080fd5b50565b600081359050610df081610dca565b92915050565b600060208284031215610e0c57610e0b610dc5565b5b6000610e1a84828501610de1565b91505092915050565b610e2c81610c38565b82525050565b600082825260208201905092915050565b6000610e4e82610ca2565b610e588185610e32565b9350610e68818560208601610cbe565b610e7181610ce8565b840191505092915050565b600081519050919050565b600082825260208201905092915050565b6000819050602082019050919050565b6000610eb48383610e43565b905092915050565b6000602082019050919050565b6000610ed482610e7c565b610ede8185610e87565b935083602082028501610ef085610e98565b8060005b85811015610f2c5784840389528151610f0d8582610ea8565b9450610f1883610ebc565b925060208a01995050600181019050610ef4565b50829750879550505050505092915050565b6000606083016000830151610f566000860182610e23565b5060208301518482036020860152610f6e8282610e43565b91505060408301518482036040860152610f888282610ec9565b9150508091505092915050565b60006020820190508181036000830152610faf8184610f3e565b905092915050565b7f4e487b7100000000000000000000000000000000000000000000000000000000600052602160045260246000fd5b60068110610ff757610ff6610fb7565b5b50565b600081905061100882610fe6565b919050565b600061101882610ffa565b9050919050565b6110288161100d565b82525050565b6000602082019050611043600083018461101f565b92915050565b61105281610d89565b811461105d57600080fd5b50565b60008135905061106f81611049565b92915050565b60006020828403121561108b5761108a610dc5565b5b600061109984828501611060565b91505092915050565b600081519050919050565b600082825260208201905092915050565b6000819050602082019050919050565b60006060830160008301516110e66000860182610e23565b50602083015184820360208601526110fe8282610e43565b915050604083015184820360408601526111188282610ec9565b9150508091505092915050565b600061113183836110ce565b905092915050565b6000602082019050919050565b6000611151826110a2565b61115b81856110ad565b93508360208202850161116d856110be565b8060005b858110156111a9578484038952815161118a8582611125565b945061119583611139565b925060208a01995050600181019050611171565b50829750879550505050505092915050565b600060208201905081810360008301526111d58184611146565b905092915050565b7f4e487b7100000000000000000000000000000000000000000000000000000000600052602260045260246000fd5b6000600282049050600182168061122457607f821691505b602082108103611237576112366111dd565b5b50919050565b7f4e487b7100000000000000000000000000000000000000000000000000000000600052603260045260246000fd5b7f4f776e61626c653a206e6577206f776e657220697320746865207a65726f206160008201527f6464726573730000000000000000000000000000000000000000000000000000602082015250565b60006112c8602683610cad565b91506112d38261126c565b604082019050919050565b600060208201905081810360008301526112f7816112bb565b9050919050565b7f4f776e61626c653a2063616c6c6572206973206e6f7420746865206f776e6572600082015250565b6000611334602083610cad565b915061133f826112fe565b602082019050919050565b6000602082019050818103600083015261136381611327565b905091905056fea2646970667358221220612386c228ea8e129cec1c1a2b409da13d8e4c6856be80ec5eb6bf15fc0f0aac64736f6c63430008130033",
  "immutableReferences": {},
  "source": "// SPDX-License-Identifier: MIT\n\npragma solidity 0.8.19;\n\n\n/**\n@title PollView\n@author ibourn\n@notice This contract contains all the getters of the poll contract \n@dev it inherits from PollStorage to access the state variables\n@dev (see PollMaster.sol for comments & explanations)\n@inheritdoc Ownable\n */\n\nimport \"./PollStorage.sol\";\n\ncontract PollView is PollStorage {\n\n    // :::::::::::::::::::::::::: GETTERS :::::::::::::::::::::::::::::: //\n    // function getTimestampLimit() external view returns (uint) {\n    //     return timestampLimit;\n    // }\n\n    function getRequiredResponseCount() external view returns (uint) {\n        return requiredResponseCount;\n    }\n\n    function getRespondentsCount() external view returns (uint) {\n        return answers.length;\n    }\n\n    function getPollInformations() external view returns (string memory, string memory) {\n        return (pollName, pollDescription);\n    }\n\n    function getBalance() external view returns (uint) {\n        return balance;\n    }\n\n    function getAmountToRespondent() external view returns (uint) {\n        return amountToRespondent;\n    }\n\n    function getAmountToDAO() external view returns (uint) {\n        return amountToDAO;\n    }\n\n    function getAmountToValidators() external view returns (uint) {\n        return amountToValidators;\n    }\n\n    function getRespondentReward() external view returns (uint) {\n        return balances[msg.sender];\n    }\n\n    function getPollStatus() external view returns (PollStatus) {\n        return pollStatus;\n    }\n\n    function getIsCanceled() external view returns (bool) {\n        return isCanceled;\n    }\n\n\n    function getTopic(uint _id) external view returns (Topic memory) {\n        return topics[_id];\n    }\n\n    function getTopicsLength() external view returns (uint) {\n        return topics.length;\n    }\n\n    function getTopics() external view returns (Topic[] memory) {\n        return topics;\n    }\n\n  \n}",
  "sourcePath": "/home/ibournubuntu/ALYRA/PROJET_FINAL/DPoll/truffle/contracts/PollView.sol",
  "compiler": {
    "name": "solc",
    "version": "0.8.19+commit.7dd6d404.Emscripten.clang"
  },
  "schemaVersion": "3.4.14",
  "updatedAt": "2023-07-20T22:25:51.434Z",
  "devdoc": {
    "kind": "dev",
    "methods": {
      "owner()": {
        "details": "Returns the address of the current owner."
      },
      "renounceOwnership()": {
        "details": "Leaves the contract without owner. It will not be possible to call `onlyOwner` functions. Can only be called by the current owner. NOTE: Renouncing ownership will leave the contract without an owner, thereby disabling any functionality that is only available to the owner."
      },
      "transferOwnership(address)": {
        "details": "Transfers ownership of the contract to a new account (`newOwner`). Can only be called by the current owner."
      }
    },
    "version": 1
  },
  "userdoc": {
    "kind": "user",
    "methods": {},
    "version": 1
  }
}