{
  "contractName": "PollUser",
  "abi": [
    {
      "anonymous": false,
      "inputs": [
        {
          "indexed": true,
          "internalType": "address",
          "name": "previousOwner",
          "type": "address"
        },
        {
          "indexed": true,
          "internalType": "address",
          "name": "newOwner",
          "type": "address"
        }
      ],
      "name": "OwnershipTransferred",
      "type": "event"
    },
    {
      "anonymous": false,
      "inputs": [
        {
          "indexed": false,
          "internalType": "enum PollStorage.PollStatus",
          "name": "previousStatus",
          "type": "uint8"
        },
        {
          "indexed": false,
          "internalType": "enum PollStorage.PollStatus",
          "name": "newStatus",
          "type": "uint8"
        }
      ],
      "name": "PollStatusChange",
      "type": "event"
    },
    {
      "anonymous": false,
      "inputs": [
        {
          "indexed": false,
          "internalType": "address",
          "name": "_to",
          "type": "address"
        },
        {
          "indexed": false,
          "internalType": "uint256",
          "name": "_amount",
          "type": "uint256"
        },
        {
          "indexed": false,
          "internalType": "string",
          "name": "_message",
          "type": "string"
        }
      ],
      "name": "PollWithdrawal",
      "type": "event"
    },
    {
      "anonymous": false,
      "inputs": [
        {
          "indexed": false,
          "internalType": "uint256",
          "name": "topicsAdded",
          "type": "uint256"
        },
        {
          "indexed": false,
          "internalType": "uint256",
          "name": "topicsCount",
          "type": "uint256"
        },
        {
          "indexed": false,
          "internalType": "uint256",
          "name": "totalChoicesCount",
          "type": "uint256"
        }
      ],
      "name": "TopicsAdded",
      "type": "event"
    },
    {
      "inputs": [],
      "name": "DAOaddress",
      "outputs": [
        {
          "internalType": "address",
          "name": "",
          "type": "address"
        }
      ],
      "stateMutability": "view",
      "type": "function"
    },
    {
      "inputs": [],
      "name": "MAX_CHOICES_COUNT",
      "outputs": [
        {
          "internalType": "uint256",
          "name": "",
          "type": "uint256"
        }
      ],
      "stateMutability": "view",
      "type": "function"
    },
    {
      "inputs": [],
      "name": "MAX_CHOICES_LENGTH",
      "outputs": [
        {
          "internalType": "uint256",
          "name": "",
          "type": "uint256"
        }
      ],
      "stateMutability": "view",
      "type": "function"
    },
    {
      "inputs": [],
      "name": "MAX_RESPONDENTS_LENGTH",
      "outputs": [
        {
          "internalType": "uint256",
          "name": "",
          "type": "uint256"
        }
      ],
      "stateMutability": "view",
      "type": "function"
    },
    {
      "inputs": [],
      "name": "MAX_TOPICS_LENGTH",
      "outputs": [
        {
          "internalType": "uint256",
          "name": "",
          "type": "uint256"
        }
      ],
      "stateMutability": "view",
      "type": "function"
    },
    {
      "inputs": [],
      "name": "MIN_POLL_AMOUNT",
      "outputs": [
        {
          "internalType": "uint256",
          "name": "",
          "type": "uint256"
        }
      ],
      "stateMutability": "view",
      "type": "function"
    },
    {
      "inputs": [],
      "name": "MIN_RESPONDENT_AMOUNT",
      "outputs": [
        {
          "internalType": "uint256",
          "name": "",
          "type": "uint256"
        }
      ],
      "stateMutability": "view",
      "type": "function"
    },
    {
      "inputs": [
        {
          "internalType": "string",
          "name": "_question",
          "type": "string"
        },
        {
          "internalType": "string[]",
          "name": "_choices",
          "type": "string[]"
        }
      ],
      "name": "addTopic",
      "outputs": [],
      "stateMutability": "nonpayable",
      "type": "function"
    },
    {
      "inputs": [
        {
          "internalType": "string[]",
          "name": "_questions",
          "type": "string[]"
        },
        {
          "internalType": "string[][]",
          "name": "_choices",
          "type": "string[][]"
        }
      ],
      "name": "addTopicsBatch",
      "outputs": [],
      "stateMutability": "nonpayable",
      "type": "function"
    },
    {
      "inputs": [],
      "name": "certifierAddress",
      "outputs": [
        {
          "internalType": "address",
          "name": "",
          "type": "address"
        }
      ],
      "stateMutability": "view",
      "type": "function"
    },
    {
      "inputs": [],
      "name": "claimRefund",
      "outputs": [],
      "stateMutability": "nonpayable",
      "type": "function"
    },
    {
      "inputs": [],
      "name": "endPoll",
      "outputs": [],
      "stateMutability": "nonpayable",
      "type": "function"
    },
    {
      "inputs": [],
      "name": "getAmountToDAO",
      "outputs": [
        {
          "internalType": "uint256",
          "name": "",
          "type": "uint256"
        }
      ],
      "stateMutability": "view",
      "type": "function"
    },
    {
      "inputs": [],
      "name": "getAmountToRespondent",
      "outputs": [
        {
          "internalType": "uint256",
          "name": "",
          "type": "uint256"
        }
      ],
      "stateMutability": "view",
      "type": "function"
    },
    {
      "inputs": [],
      "name": "getAmountToValidators",
      "outputs": [
        {
          "internalType": "uint256",
          "name": "",
          "type": "uint256"
        }
      ],
      "stateMutability": "view",
      "type": "function"
    },
    {
      "inputs": [],
      "name": "getBalance",
      "outputs": [
        {
          "internalType": "uint256",
          "name": "",
          "type": "uint256"
        }
      ],
      "stateMutability": "view",
      "type": "function"
    },
    {
      "inputs": [],
      "name": "getIsCanceled",
      "outputs": [
        {
          "internalType": "bool",
          "name": "",
          "type": "bool"
        }
      ],
      "stateMutability": "view",
      "type": "function"
    },
    {
      "inputs": [],
      "name": "getPackedAnswers",
      "outputs": [
        {
          "internalType": "uint256[]",
          "name": "",
          "type": "uint256[]"
        }
      ],
      "stateMutability": "view",
      "type": "function"
    },
    {
      "inputs": [],
      "name": "getPollInformations",
      "outputs": [
        {
          "internalType": "string",
          "name": "",
          "type": "string"
        },
        {
          "internalType": "string",
          "name": "",
          "type": "string"
        }
      ],
      "stateMutability": "view",
      "type": "function"
    },
    {
      "inputs": [],
      "name": "getPollStatus",
      "outputs": [
        {
          "internalType": "enum PollStorage.PollStatus",
          "name": "",
          "type": "uint8"
        }
      ],
      "stateMutability": "view",
      "type": "function"
    },
    {
      "inputs": [],
      "name": "getRequiredResponseCount",
      "outputs": [
        {
          "internalType": "uint256",
          "name": "",
          "type": "uint256"
        }
      ],
      "stateMutability": "view",
      "type": "function"
    },
    {
      "inputs": [],
      "name": "getRespondentReward",
      "outputs": [
        {
          "internalType": "uint256",
          "name": "",
          "type": "uint256"
        }
      ],
      "stateMutability": "view",
      "type": "function"
    },
    {
      "inputs": [],
      "name": "getRespondentsCount",
      "outputs": [
        {
          "internalType": "uint256",
          "name": "",
          "type": "uint256"
        }
      ],
      "stateMutability": "view",
      "type": "function"
    },
    {
      "inputs": [
        {
          "internalType": "uint256",
          "name": "_answerId",
          "type": "uint256"
        }
      ],
      "name": "getSelectedChoicesByAnswer",
      "outputs": [
        {
          "internalType": "uint256[]",
          "name": "",
          "type": "uint256[]"
        }
      ],
      "stateMutability": "view",
      "type": "function"
    },
    {
      "inputs": [
        {
          "internalType": "uint256",
          "name": "_id",
          "type": "uint256"
        }
      ],
      "name": "getTopic",
      "outputs": [
        {
          "components": [
            {
              "internalType": "uint256",
              "name": "firstChoiceIndex",
              "type": "uint256"
            },
            {
              "internalType": "string",
              "name": "question",
              "type": "string"
            },
            {
              "internalType": "string[]",
              "name": "choices",
              "type": "string[]"
            }
          ],
          "internalType": "struct PollStorage.Topic",
          "name": "",
          "type": "tuple"
        }
      ],
      "stateMutability": "view",
      "type": "function"
    },
    {
      "inputs": [],
      "name": "getTopics",
      "outputs": [
        {
          "components": [
            {
              "internalType": "uint256",
              "name": "firstChoiceIndex",
              "type": "uint256"
            },
            {
              "internalType": "string",
              "name": "question",
              "type": "string"
            },
            {
              "internalType": "string[]",
              "name": "choices",
              "type": "string[]"
            }
          ],
          "internalType": "struct PollStorage.Topic[]",
          "name": "",
          "type": "tuple[]"
        }
      ],
      "stateMutability": "view",
      "type": "function"
    },
    {
      "inputs": [],
      "name": "getTopicsLength",
      "outputs": [
        {
          "internalType": "uint256",
          "name": "",
          "type": "uint256"
        }
      ],
      "stateMutability": "view",
      "type": "function"
    },
    {
      "inputs": [],
      "name": "getUnpackedAnswers",
      "outputs": [
        {
          "internalType": "uint256[][]",
          "name": "",
          "type": "uint256[][]"
        }
      ],
      "stateMutability": "view",
      "type": "function"
    },
    {
      "inputs": [],
      "name": "owner",
      "outputs": [
        {
          "internalType": "address",
          "name": "",
          "type": "address"
        }
      ],
      "stateMutability": "view",
      "type": "function"
    },
    {
      "inputs": [],
      "name": "renounceOwnership",
      "outputs": [],
      "stateMutability": "nonpayable",
      "type": "function"
    },
    {
      "inputs": [
        {
          "internalType": "address",
          "name": "pollAddress",
          "type": "address"
        },
        {
          "internalType": "bool",
          "name": "isValid",
          "type": "bool"
        }
      ],
      "name": "setPollValidation",
      "outputs": [],
      "stateMutability": "payable",
      "type": "function"
    },
    {
      "inputs": [],
      "name": "submitPoll",
      "outputs": [],
      "stateMutability": "nonpayable",
      "type": "function"
    },
    {
      "inputs": [
        {
          "internalType": "address",
          "name": "newOwner",
          "type": "address"
        }
      ],
      "name": "transferOwnership",
      "outputs": [],
      "stateMutability": "nonpayable",
      "type": "function"
    },
    {
      "inputs": [],
      "name": "getEligibility",
      "outputs": [
        {
          "internalType": "bool",
          "name": "",
          "type": "bool"
        }
      ],
      "stateMutability": "view",
      "type": "function"
    },
    {
      "inputs": [
        {
          "internalType": "uint256[]",
          "name": "_chosenChoices",
          "type": "uint256[]"
        },
        {
          "internalType": "bytes32",
          "name": "_eligibilityProof",
          "type": "bytes32"
        }
      ],
      "name": "addAnswer",
      "outputs": [],
      "stateMutability": "nonpayable",
      "type": "function"
    },
    {
      "inputs": [],
      "name": "claimReward",
      "outputs": [],
      "stateMutability": "nonpayable",
      "type": "function"
    }
  ],
  "bytecode": "0x60806040523480156200001157600080fd5b5062000032620000266200003860201b60201c565b6200004060201b60201c565b62000104565b600033905090565b60008060009054906101000a900473ffffffffffffffffffffffffffffffffffffffff169050816000806101000a81548173ffffffffffffffffffffffffffffffffffffffff021916908373ffffffffffffffffffffffffffffffffffffffff1602179055508173ffffffffffffffffffffffffffffffffffffffff168173ffffffffffffffffffffffffffffffffffffffff167f8be0079c531659141344cd1fd0a4f28419497f9722a3daafe3b4186f6b6457e060405160405180910390a35050565b6147da80620001146000396000f3fe60806040526004361061020e5760003560e01c80638389a3eb11610118578063b88a802f116100a0578063f5d4d2a81161006f578063f5d4d2a8146106f4578063f64b0af91461071f578063f73649f61461074a578063fee0117714610773578063ff4c4e0d1461079e5761020e565b8063b88a802f1461066f578063e1b9742a14610686578063ef98cd62146106a2578063f2fde38b146106cb5761020e565b80638da5cb5b116100e75780638da5cb5b1461059a578063a3948a0d146105c5578063a615406414610602578063a92a4fae1461062d578063b5545a3c146106585761020e565b80638389a3eb14610504578063883032e81461052d5780638c062e4e146105585780638d99b2eb146105835761020e565b806342587e721161019b57806356528cac1161016a57806356528cac1461042f5780636a5543e91461045a5780636b12620914610485578063715018a6146104b057806371658896146104c75761020e565b806342587e7214610383578063442da8bd146103ae57806346b7bc91146103d957806349cf2eae146104045761020e565b80631dd17d2f116101e25780631dd17d2f146102ab5780632a0e1c4f146102d6578063383da4b1146103015780633bb3ba3d1461032c5780633bbe2497146103585761020e565b8062cc86bd1461021357806305f9d4ad1461023e57806312065fe0146102555780631a7316ab14610280575b600080fd5b34801561021f57600080fd5b506102286107c9565b6040516102359190612794565b60405180910390f35b34801561024a57600080fd5b506102536107d3565b005b34801561026157600080fd5b5061026a610964565b6040516102779190612794565b60405180910390f35b34801561028c57600080fd5b5061029561096e565b6040516102a291906127ca565b60405180910390f35b3480156102b757600080fd5b506102c0610a3a565b6040516102cd9190612794565b60405180910390f35b3480156102e257600080fd5b506102eb610a3f565b6040516102f891906127ca565b60405180910390f35b34801561030d57600080fd5b50610316610a56565b6040516103239190612794565b60405180910390f35b34801561033857600080fd5b50610341610a5b565b60405161034f929190612875565b60405180910390f35b34801561036457600080fd5b5061036d610b82565b60405161037a9190612794565b60405180910390f35b34801561038f57600080fd5b50610398610b8d565b6040516103a59190612794565b60405180910390f35b3480156103ba57600080fd5b506103c3610b97565b6040516103d09190612794565b60405180910390f35b3480156103e557600080fd5b506103ee610ba1565b6040516103fb9190612794565b60405180910390f35b34801561041057600080fd5b50610419610be8565b60405161042691906128ed565b60405180910390f35b34801561043b57600080fd5b50610444610c0e565b60405161045191906129c6565b60405180910390f35b34801561046657600080fd5b5061046f610ce3565b60405161047c9190612794565b60405180910390f35b34801561049157600080fd5b5061049a610cf0565b6040516104a79190612794565b60405180910390f35b3480156104bc57600080fd5b506104c5610cf6565b005b3480156104d357600080fd5b506104ee60048036038101906104e99190612a28565b610d0a565b6040516104fb9190612bb8565b60405180910390f35b34801561051057600080fd5b5061052b60048036038101906105269190612c95565b610ebb565b005b34801561053957600080fd5b506105426110e7565b60405161054f9190612d8d565b60405180910390f35b34801561056457600080fd5b5061056d6110fe565b60405161057a91906128ed565b60405180910390f35b34801561058f57600080fd5b50610598611124565b005b3480156105a657600080fd5b506105af6111cf565b6040516105bc91906128ed565b60405180910390f35b3480156105d157600080fd5b506105ec60048036038101906105e79190612a28565b6111f8565b6040516105f991906129c6565b60405180910390f35b34801561060e57600080fd5b506106176112a5565b6040516106249190612794565b60405180910390f35b34801561063957600080fd5b506106426112ab565b60405161064f9190612794565b60405180910390f35b34801561066457600080fd5b5061066d6112b8565b005b34801561067b57600080fd5b5061068461133f565b005b6106a0600480360381019061069b9190612e00565b61162c565b005b3480156106ae57600080fd5b506106c960048036038101906106c49190612e96565b61186e565b005b3480156106d757600080fd5b506106f260048036038101906106ed9190612f17565b611ace565b005b34801561070057600080fd5b50610709611b51565b6040516107169190613075565b60405180910390f35b34801561072b57600080fd5b50610734611c7a565b6040516107419190612794565b60405180910390f35b34801561075657600080fd5b50610771600480360381019061076c9190613123565b611c84565b005b34801561077f57600080fd5b50610788611ebd565b604051610795919061329c565b60405180910390f35b3480156107aa57600080fd5b506107b3612091565b6040516107c09190612794565b60405180910390f35b6000600354905090565b6107db61209b565b600060058111156107ef576107ee612d16565b5b600c60009054906101000a900460ff16600581111561081157610810612d16565b5b14610851576040517f08c379a00000000000000000000000000000000000000000000000000000000081526004016108489061330a565b60405180910390fd5b6000600954600a546108639190613359565b9050600160009054906101000a900473ffffffffffffffffffffffffffffffffffffffff1673ffffffffffffffffffffffffffffffffffffffff1663b46411c38230600a546009546040518563ffffffff1660e01b81526004016108c99392919061338d565b6000604051808303818588803b1580156108e257600080fd5b505af11580156108f6573d6000803e3d6000fd5b50505050506001600c60006101000a81548160ff0219169083600581111561092157610920612d16565b5b02179055507f20f7c135505514c16ee7e30eb8127c87b82a910a6b28e61ad0feb1a77473f4fe600060016040516109599291906133c4565b60405180910390a150565b6000600854905090565b600060405160200161097f9061346a565b60405160208183030381529060405280519060200120600260009054906101000a900473ffffffffffffffffffffffffffffffffffffffff1673ffffffffffffffffffffffffffffffffffffffff1663384d405b6007336040518363ffffffff1660e01b81526004016109f3929190613578565b602060405180830381865afa158015610a10573d6000803e3d6000fd5b505050506040513d601f19601f82011682018060405250810190610a3491906135bd565b14905090565b600a81565b6000600c60019054906101000a900460ff16905090565b603281565b60608060056006818054610a6e906134ae565b80601f0160208091040260200160405190810160405280929190818152602001828054610a9a906134ae565b8015610ae75780601f10610abc57610100808354040283529160200191610ae7565b820191906000526020600020905b815481529060010190602001808311610aca57829003601f168201915b50505050509150808054610afa906134ae565b80601f0160208091040260200160405190810160405280929190818152602001828054610b26906134ae565b8015610b735780601f10610b4857610100808354040283529160200191610b73565b820191906000526020600020905b815481529060010190602001808311610b5657829003601f168201915b50505050509050915091509091565b66b1a2bc2ec5000081565b655af3107a400081565b6000600b54905090565b6000600d60003373ffffffffffffffffffffffffffffffffffffffff1673ffffffffffffffffffffffffffffffffffffffff16815260200190815260200160002054905090565b600260009054906101000a900473ffffffffffffffffffffffffffffffffffffffff1681565b6060610c1861209b565b600580811115610c2b57610c2a612d16565b5b600c60009054906101000a900460ff166005811115610c4d57610c4c612d16565b5b14610c8d576040517f08c379a0000000000000000000000000000000000000000000000000000000008152600401610c8490613636565b60405180910390fd5b600f805480602002602001604051908101604052809291908181526020018280548015610cd957602002820191906000526020600020905b815481526020019060010190808311610cc5575b5050505050905090565b6000600f80549050905090565b6103e881565b610cfe61209b565b610d086000612119565b565b610d12612680565b600e8281548110610d2657610d25613656565b5b906000526020600020906003020160405180606001604052908160008201548152602001600182018054610d59906134ae565b80601f0160208091040260200160405190810160405280929190818152602001828054610d85906134ae565b8015610dd25780601f10610da757610100808354040283529160200191610dd2565b820191906000526020600020905b815481529060010190602001808311610db557829003601f168201915b5050505050815260200160028201805480602002602001604051908101604052809291908181526020016000905b82821015610eac578382906000526020600020018054610e1f906134ae565b80601f0160208091040260200160405190810160405280929190818152602001828054610e4b906134ae565b8015610e985780601f10610e6d57610100808354040283529160200191610e98565b820191906000526020600020905b815481529060010190602001808311610e7b57829003601f168201915b505050505081526020019060010190610e00565b50505050815250509050919050565b610ec361209b565b818190508484905014610f0b576040517f08c379a0000000000000000000000000000000000000000000000000000000008152600401610f02906136d1565b60405180910390fd5b600060045490506000600e905060005b8686905081101561109257610f2e612680565b83816000018181525050878783818110610f4b57610f4a613656565b5b9050602002810190610f5d9190613700565b8080601f016020809104026020016040519081016040528093929190818152602001838380828437600081840152601f19601f820116905080830192505050505050508160200181905250858583818110610fbb57610fba613656565b5b9050602002810190610fcd9190613763565b90610fd891906139a9565b8160400181905250858583818110610ff357610ff2613656565b5b90506020028101906110059190613763565b9050846110129190613359565b93508281908060018154018082558091505060019003906000526020600020906003020160009091909190915060008201518160000155602082015181600101908161105e9190613b55565b50604082015181600201908051906020019061107b9291906126a1565b50505050808061108a90613c27565b915050610f1b565b50816004819055507fbf7e450152e82a72724b6c2028c2955b2294c0579262526315aa44919e2be9c586869050600e805490506004546040516110d793929190613c6f565b60405180910390a1505050505050565b6000600c60009054906101000a900460ff16905090565b600160009054906101000a900473ffffffffffffffffffffffffffffffffffffffff1681565b61112c61209b565b600460058111156111405761113f612d16565b5b600c60009054906101000a900460ff16600581111561116257611161612d16565b5b146111a2576040517f08c379a000000000000000000000000000000000000000000000000000000000815260040161119990613cf2565b60405180910390fd5b6005600c60006101000a81548160ff021916908360058111156111c8576111c7612d16565b5b0217905550565b60008060009054906101000a900473ffffffffffffffffffffffffffffffffffffffff16905090565b606061120261209b565b60058081111561121557611214612d16565b5b600c60009054906101000a900460ff16600581111561123757611236612d16565b5b14611277576040517f08c379a000000000000000000000000000000000000000000000000000000000815260040161126e90613636565b60405180910390fd5b61129e600f838154811061128e5761128d613656565b5b90600052602060002001546121dd565b9050919050565b61010081565b6000600e80549050905090565b6112c061209b565b6005808111156112d3576112d2612d16565b5b600c60009054906101000a900460ff1660058111156112f5576112f4612d16565b5b14611335576040517f08c379a000000000000000000000000000000000000000000000000000000000815260040161132c90613d5e565b60405180910390fd5b61133d612299565b565b60058081111561135257611351612d16565b5b600c60009054906101000a900460ff16600581111561137457611373612d16565b5b146113b4576040517f08c379a00000000000000000000000000000000000000000000000000000000081526004016113ab90613636565b60405180910390fd5b6000600d60003373ffffffffffffffffffffffffffffffffffffffff1673ffffffffffffffffffffffffffffffffffffffff1681526020019081526020016000205403611436576040517f08c379a000000000000000000000000000000000000000000000000000000000815260040161142d90613dca565b60405180910390fd5b600d60003373ffffffffffffffffffffffffffffffffffffffff1673ffffffffffffffffffffffffffffffffffffffff1681526020019081526020016000205460085410156114ba576040517f08c379a00000000000000000000000000000000000000000000000000000000081526004016114b190613e36565b60405180910390fd5b6000600d60003373ffffffffffffffffffffffffffffffffffffffff1673ffffffffffffffffffffffffffffffffffffffff1681526020019081526020016000205490506000600d60003373ffffffffffffffffffffffffffffffffffffffff1673ffffffffffffffffffffffffffffffffffffffff1681526020019081526020016000208190555060003373ffffffffffffffffffffffffffffffffffffffff168260405161156990613e87565b60006040518083038185875af1925050503d80600081146115a6576040519150601f19603f3d011682016040523d82523d6000602084013e6115ab565b606091505b50509050806115ef576040517f08c379a00000000000000000000000000000000000000000000000000000000081526004016115e690613ee8565b60405180910390fd5b7fbb23de5c4d0ac7c049b292881397f32ddab597aebe0859c2baf41548d5c20c373383604051611620929190613f54565b60405180910390a15050565b600160009054906101000a900473ffffffffffffffffffffffffffffffffffffffff1673ffffffffffffffffffffffffffffffffffffffff163373ffffffffffffffffffffffffffffffffffffffff16146116bc576040517f08c379a00000000000000000000000000000000000000000000000000000000081526004016116b390613fdc565b60405180910390fd5b600160058111156116d0576116cf612d16565b5b600c60009054906101000a900460ff1660058111156116f2576116f1612d16565b5b14611732576040517f08c379a000000000000000000000000000000000000000000000000000000000815260040161172990614048565b60405180910390fd5b3073ffffffffffffffffffffffffffffffffffffffff168273ffffffffffffffffffffffffffffffffffffffff16146117a0576040517f08c379a0000000000000000000000000000000000000000000000000000000008152600401611797906140b4565b60405180910390fd5b80806117ae57506009543410155b6117ed576040517f08c379a00000000000000000000000000000000000000000000000000000000081526004016117e490614120565b60405180910390fd5b8015611823576004600c60006101000a81548160ff0219169083600581111561181957611818612d16565b5b021790555061186a565b6001600c60016101000a81548160ff0219169083151502179055506005600c60006101000a81548160ff0219169083600581111561186457611863612d16565b5b02179055505b5050565b61187661209b565b6000600581111561188a57611889612d16565b5b600c60009054906101000a900460ff1660058111156118ac576118ab612d16565b5b146118ec576040517f08c379a00000000000000000000000000000000000000000000000000000000081526004016118e39061330a565b60405180910390fd5b600a828290501115611933576040517f08c379a000000000000000000000000000000000000000000000000000000000815260040161192a9061418c565b60405180910390fd5b6032828290506004546119469190613359565b1115611987576040517f08c379a000000000000000000000000000000000000000000000000000000000815260040161197e906141f8565b60405180910390fd5b61198f612680565b60045481600001818152505084848080601f016020809104026020016040519081016040528093929190818152602001838380828437600081840152601f19601f8201169050808301925050505050505081602001819052508282906119f591906139a9565b81604001819052508282905060046000828254611a129190613359565b92505081905550600e819080600181540180825580915050600190039060005260206000209060030201600090919091909150600082015181600001556020820151816001019081611a649190613b55565b506040820151816002019080519060200190611a819291906126a1565b5050507fbf7e450152e82a72724b6c2028c2955b2294c0579262526315aa44919e2be9c56001600e80549050600454604051611abf93929190614253565b60405180910390a15050505050565b611ad661209b565b600073ffffffffffffffffffffffffffffffffffffffff168173ffffffffffffffffffffffffffffffffffffffff1603611b45576040517f08c379a0000000000000000000000000000000000000000000000000000000008152600401611b3c906142fc565b60405180910390fd5b611b4e81612119565b50565b6060611b5b61209b565b600580811115611b6e57611b6d612d16565b5b600c60009054906101000a900460ff166005811115611b9057611b8f612d16565b5b14611bd0576040517f08c379a0000000000000000000000000000000000000000000000000000000008152600401611bc790613636565b60405180910390fd5b6000600f80549050905060008167ffffffffffffffff811115611bf657611bf56137c6565b5b604051908082528060200260200182016040528015611c2957816020015b6060815260200190600190039081611c145790505b50905060005b82811015611c7157611c40816111f8565b828281518110611c5357611c52613656565b5b60200260200101819052508080611c6990613c27565b915050611c2f565b50809250505090565b6000600954905090565b60046005811115611c9857611c97612d16565b5b600c60009054906101000a900460ff166005811115611cba57611cb9612d16565b5b14611cfa576040517f08c379a0000000000000000000000000000000000000000000000000000000008152600401611cf190613cf2565b60405180910390fd5b6000600d60003373ffffffffffffffffffffffffffffffffffffffff1673ffffffffffffffffffffffffffffffffffffffff1681526020019081526020016000205414611d7c576040517f08c379a0000000000000000000000000000000000000000000000000000000008152600401611d7390614368565b60405180910390fd5b600454838390501115611dc4576040517f08c379a0000000000000000000000000000000000000000000000000000000008152600401611dbb906143d4565b60405180910390fd5b611dcc61096e565b611e0b576040517f08c379a0000000000000000000000000000000000000000000000000000000008152600401611e0290614440565b60405180910390fd5b6004548383600186869050611e209190614460565b818110611e3057611e2f613656565b5b9050602002013510611e77576040517f08c379a0000000000000000000000000000000000000000000000000000000008152600401611e6e906144e0565b60405180910390fd5b6000611e838484612423565b9050600f819080600181540180825580915050600190039060005260206000200160009091909190915055611eb733612500565b50505050565b6060600e805480602002602001604051908101604052809291908181526020016000905b82821015612088578382906000526020600020906003020160405180606001604052908160008201548152602001600182018054611f1e906134ae565b80601f0160208091040260200160405190810160405280929190818152602001828054611f4a906134ae565b8015611f975780601f10611f6c57610100808354040283529160200191611f97565b820191906000526020600020905b815481529060010190602001808311611f7a57829003601f168201915b5050505050815260200160028201805480602002602001604051908101604052809291908181526020016000905b82821015612071578382906000526020600020018054611fe4906134ae565b80601f0160208091040260200160405190810160405280929190818152602001828054612010906134ae565b801561205d5780601f106120325761010080835404028352916020019161205d565b820191906000526020600020905b81548152906001019060200180831161204057829003601f168201915b505050505081526020019060010190611fc5565b505050508152505081526020019060010190611ee1565b50505050905090565b6000600a54905090565b6120a361263f565b73ffffffffffffffffffffffffffffffffffffffff166120c16111cf565b73ffffffffffffffffffffffffffffffffffffffff1614612117576040517f08c379a000000000000000000000000000000000000000000000000000000000815260040161210e9061454c565b60405180910390fd5b565b60008060009054906101000a900473ffffffffffffffffffffffffffffffffffffffff169050816000806101000a81548173ffffffffffffffffffffffffffffffffffffffff021916908373ffffffffffffffffffffffffffffffffffffffff1602179055508173ffffffffffffffffffffffffffffffffffffffff168173ffffffffffffffffffffffffffffffffffffffff167f8be0079c531659141344cd1fd0a4f28419497f9722a3daafe3b4186f6b6457e060405160405180910390a35050565b606060006121ea83612647565b905060008167ffffffffffffffff811115612208576122076137c6565b5b6040519080825280602002602001820160405280156122365781602001602082028036833780820191505090505b5090506000805b61010081101561228d576000816001901b871614612282578083838151811061226957612268613656565b5b6020026020010181815250508161227f90613c27565b91505b80600101905061223d565b50819350505050919050565b6122a161209b565b6000600854116122e6576040517f08c379a00000000000000000000000000000000000000000000000000000000081526004016122dd90614120565b60405180910390fd5b47600854111561232b576040517f08c379a000000000000000000000000000000000000000000000000000000000815260040161232290613e36565b60405180910390fd5b60006008549050600060088190555060003373ffffffffffffffffffffffffffffffffffffffff168260405161236090613e87565b60006040518083038185875af1925050503d806000811461239d576040519150601f19603f3d011682016040523d82523d6000602084013e6123a2565b606091505b50509050806123e6576040517f08c379a00000000000000000000000000000000000000000000000000000000081526004016123dd906145b8565b60405180910390fd5b7fbb23de5c4d0ac7c049b292881397f32ddab597aebe0859c2baf41548d5c20c373383604051612417929190614624565b60405180910390a15050565b600080838390509050610100811115612471576040517f08c379a0000000000000000000000000000000000000000000000000000000008152600401612468906146ac565b60405180910390fd5b60008060005b838110156124f35786868281811061249257612491613656565b5b90506020020135925060ff8311156124df576040517f08c379a00000000000000000000000000000000000000000000000000000000081526004016124d690614718565b60405180910390fd5b826001901b82179150806001019050612477565b5080935050505092915050565b6000600d60008373ffffffffffffffffffffffffffffffffffffffff1673ffffffffffffffffffffffffffffffffffffffff1681526020019081526020016000205414612582576040517f08c379a000000000000000000000000000000000000000000000000000000000815260040161257990614784565b60405180910390fd5b600b5460085410156125c9576040517f08c379a00000000000000000000000000000000000000000000000000000000081526004016125c090613e36565b60405180910390fd5b600b54600860008282546125dd9190614460565b92505081905550600b54600d60008373ffffffffffffffffffffffffffffffffffffffff1673ffffffffffffffffffffffffffffffffffffffff16815260200190815260200160002060008282546126359190613359565b9250508190555050565b600033905090565b60008060008390505b60008111156126765760018116826126689190613359565b9150600181901c9050612650565b8192505050919050565b60405180606001604052806000815260200160608152602001606081525090565b8280548282559060005260206000209081019282156126e9579160200282015b828111156126e85782518290816126d89190613b55565b50916020019190600101906126c1565b5b5090506126f691906126fa565b5090565b5b8082111561271a5760008181612711919061271e565b506001016126fb565b5090565b50805461272a906134ae565b6000825580601f1061273c575061275b565b601f01602090049060005260206000209081019061275a919061275e565b5b50565b5b8082111561277757600081600090555060010161275f565b5090565b6000819050919050565b61278e8161277b565b82525050565b60006020820190506127a96000830184612785565b92915050565b60008115159050919050565b6127c4816127af565b82525050565b60006020820190506127df60008301846127bb565b92915050565b600081519050919050565b600082825260208201905092915050565b60005b8381101561281f578082015181840152602081019050612804565b60008484015250505050565b6000601f19601f8301169050919050565b6000612847826127e5565b61285181856127f0565b9350612861818560208601612801565b61286a8161282b565b840191505092915050565b6000604082019050818103600083015261288f818561283c565b905081810360208301526128a3818461283c565b90509392505050565b600073ffffffffffffffffffffffffffffffffffffffff82169050919050565b60006128d7826128ac565b9050919050565b6128e7816128cc565b82525050565b600060208201905061290260008301846128de565b92915050565b600081519050919050565b600082825260208201905092915050565b6000819050602082019050919050565b61293d8161277b565b82525050565b600061294f8383612934565b60208301905092915050565b6000602082019050919050565b600061297382612908565b61297d8185612913565b935061298883612924565b8060005b838110156129b95781516129a08882612943565b97506129ab8361295b565b92505060018101905061298c565b5085935050505092915050565b600060208201905081810360008301526129e08184612968565b905092915050565b6000604051905090565b600080fd5b600080fd5b612a058161277b565b8114612a1057600080fd5b50565b600081359050612a22816129fc565b92915050565b600060208284031215612a3e57612a3d6129f2565b5b6000612a4c84828501612a13565b91505092915050565b600082825260208201905092915050565b6000612a71826127e5565b612a7b8185612a55565b9350612a8b818560208601612801565b612a948161282b565b840191505092915050565b600081519050919050565b600082825260208201905092915050565b6000819050602082019050919050565b6000612ad78383612a66565b905092915050565b6000602082019050919050565b6000612af782612a9f565b612b018185612aaa565b935083602082028501612b1385612abb565b8060005b85811015612b4f5784840389528151612b308582612acb565b9450612b3b83612adf565b925060208a01995050600181019050612b17565b50829750879550505050505092915050565b6000606083016000830151612b796000860182612934565b5060208301518482036020860152612b918282612a66565b91505060408301518482036040860152612bab8282612aec565b9150508091505092915050565b60006020820190508181036000830152612bd28184612b61565b905092915050565b600080fd5b600080fd5b600080fd5b60008083601f840112612bff57612bfe612bda565b5b8235905067ffffffffffffffff811115612c1c57612c1b612bdf565b5b602083019150836020820283011115612c3857612c37612be4565b5b9250929050565b60008083601f840112612c5557612c54612bda565b5b8235905067ffffffffffffffff811115612c7257612c71612bdf565b5b602083019150836020820283011115612c8e57612c8d612be4565b5b9250929050565b60008060008060408587031215612caf57612cae6129f2565b5b600085013567ffffffffffffffff811115612ccd57612ccc6129f7565b5b612cd987828801612be9565b9450945050602085013567ffffffffffffffff811115612cfc57612cfb6129f7565b5b612d0887828801612c3f565b925092505092959194509250565b7f4e487b7100000000000000000000000000000000000000000000000000000000600052602160045260246000fd5b60068110612d5657612d55612d16565b5b50565b6000819050612d6782612d45565b919050565b6000612d7782612d59565b9050919050565b612d8781612d6c565b82525050565b6000602082019050612da26000830184612d7e565b92915050565b612db1816128cc565b8114612dbc57600080fd5b50565b600081359050612dce81612da8565b92915050565b612ddd816127af565b8114612de857600080fd5b50565b600081359050612dfa81612dd4565b92915050565b60008060408385031215612e1757612e166129f2565b5b6000612e2585828601612dbf565b9250506020612e3685828601612deb565b9150509250929050565b60008083601f840112612e5657612e55612bda565b5b8235905067ffffffffffffffff811115612e7357612e72612bdf565b5b602083019150836001820283011115612e8f57612e8e612be4565b5b9250929050565b60008060008060408587031215612eb057612eaf6129f2565b5b600085013567ffffffffffffffff811115612ece57612ecd6129f7565b5b612eda87828801612e40565b9450945050602085013567ffffffffffffffff811115612efd57612efc6129f7565b5b612f0987828801612be9565b925092505092959194509250565b600060208284031215612f2d57612f2c6129f2565b5b6000612f3b84828501612dbf565b91505092915050565b600081519050919050565b600082825260208201905092915050565b6000819050602082019050919050565b600082825260208201905092915050565b6000612f8c82612908565b612f968185612f70565b9350612fa183612924565b8060005b83811015612fd2578151612fb98882612943565b9750612fc48361295b565b925050600181019050612fa5565b5085935050505092915050565b6000612feb8383612f81565b905092915050565b6000602082019050919050565b600061300b82612f44565b6130158185612f4f565b93508360208202850161302785612f60565b8060005b8581101561306357848403895281516130448582612fdf565b945061304f83612ff3565b925060208a0199505060018101905061302b565b50829750879550505050505092915050565b6000602082019050818103600083015261308f8184613000565b905092915050565b60008083601f8401126130ad576130ac612bda565b5b8235905067ffffffffffffffff8111156130ca576130c9612bdf565b5b6020830191508360208202830111156130e6576130e5612be4565b5b9250929050565b6000819050919050565b613100816130ed565b811461310b57600080fd5b50565b60008135905061311d816130f7565b92915050565b60008060006040848603121561313c5761313b6129f2565b5b600084013567ffffffffffffffff81111561315a576131596129f7565b5b61316686828701613097565b935093505060206131798682870161310e565b9150509250925092565b600081519050919050565b600082825260208201905092915050565b6000819050602082019050919050565b60006060830160008301516131c76000860182612934565b50602083015184820360208601526131df8282612a66565b915050604083015184820360408601526131f98282612aec565b9150508091505092915050565b600061321283836131af565b905092915050565b6000602082019050919050565b600061323282613183565b61323c818561318e565b93508360208202850161324e8561319f565b8060005b8581101561328a578484038952815161326b8582613206565b94506132768361321a565b925060208a01995050600181019050613252565b50829750879550505050505092915050565b600060208201905081810360008301526132b68184613227565b905092915050565b7f506f6c6c20616c7265616479207375626d697474656400000000000000000000600082015250565b60006132f46016836127f0565b91506132ff826132be565b602082019050919050565b60006020820190508181036000830152613323816132e7565b9050919050565b7f4e487b7100000000000000000000000000000000000000000000000000000000600052601160045260246000fd5b60006133648261277b565b915061336f8361277b565b92508282019050808211156133875761338661332a565b5b92915050565b60006060820190506133a260008301866128de565b6133af6020830185612785565b6133bc6040830184612785565b949350505050565b60006040820190506133d96000830185612d7e565b6133e66020830184612d7e565b9392505050565b600081905092915050565b7f4920636c61696d2074686973206164647265737320697320636572746966696560008201527f6400000000000000000000000000000000000000000000000000000000000000602082015250565b60006134546021836133ed565b915061345f826133f8565b602182019050919050565b600061347582613447565b9150819050919050565b7f4e487b7100000000000000000000000000000000000000000000000000000000600052602260045260246000fd5b600060028204905060018216806134c657607f821691505b6020821081036134d9576134d861347f565b5b50919050565b60008190508160005260206000209050919050565b60008154613501816134ae565b61350b81866127f0565b94506001821660008114613526576001811461353c5761356f565b60ff19831686528115156020028601935061356f565b613545856134df565b60005b8381101561356757815481890152600182019150602081019050613548565b808801955050505b50505092915050565b6000604082019050818103600083015261359281856134f4565b90506135a160208301846128de565b9392505050565b6000815190506135b7816130f7565b92915050565b6000602082840312156135d3576135d26129f2565b5b60006135e1848285016135a8565b91505092915050565b7f506f6c6c696e67206e6f7420656e646564000000000000000000000000000000600082015250565b60006136206011836127f0565b915061362b826135ea565b602082019050919050565b6000602082019050818103600083015261364f81613613565b9050919050565b7f4e487b7100000000000000000000000000000000000000000000000000000000600052603260045260246000fd5b7f417272617973206d7573742068617665207468652073616d65206c656e677468600082015250565b60006136bb6020836127f0565b91506136c682613685565b602082019050919050565b600060208201905081810360008301526136ea816136ae565b9050919050565b600080fd5b600080fd5b600080fd5b6000808335600160200384360303811261371d5761371c6136f1565b5b80840192508235915067ffffffffffffffff82111561373f5761373e6136f6565b5b60208301925060018202360383131561375b5761375a6136fb565b5b509250929050565b600080833560016020038436030381126137805761377f6136f1565b5b80840192508235915067ffffffffffffffff8211156137a2576137a16136f6565b5b6020830192506020820236038313156137be576137bd6136fb565b5b509250929050565b7f4e487b7100000000000000000000000000000000000000000000000000000000600052604160045260246000fd5b6137fe8261282b565b810181811067ffffffffffffffff8211171561381d5761381c6137c6565b5b80604052505050565b60006138306129e8565b905061383c82826137f5565b919050565b600067ffffffffffffffff82111561385c5761385b6137c6565b5b602082029050602081019050919050565b600080fd5b600067ffffffffffffffff82111561388d5761388c6137c6565b5b6138968261282b565b9050602081019050919050565b82818337600083830152505050565b60006138c56138c084613872565b613826565b9050828152602081018484840111156138e1576138e061386d565b5b6138ec8482856138a3565b509392505050565b600082601f83011261390957613908612bda565b5b81356139198482602086016138b2565b91505092915050565b600061393561393084613841565b613826565b9050808382526020820190506020840283018581111561395857613957612be4565b5b835b8181101561399f57803567ffffffffffffffff81111561397d5761397c612bda565b5b80860161398a89826138f4565b8552602085019450505060208101905061395a565b5050509392505050565b60006139b6368484613922565b905092915050565b60006020601f8301049050919050565b600082821b905092915050565b600060088302613a0b7fffffffffffffffffffffffffffffffffffffffffffffffffffffffffffffffff826139ce565b613a1586836139ce565b95508019841693508086168417925050509392505050565b6000819050919050565b6000613a52613a4d613a488461277b565b613a2d565b61277b565b9050919050565b6000819050919050565b613a6c83613a37565b613a80613a7882613a59565b8484546139db565b825550505050565b600090565b613a95613a88565b613aa0818484613a63565b505050565b5b81811015613ac457613ab9600082613a8d565b600181019050613aa6565b5050565b601f821115613b0957613ada816134df565b613ae3846139be565b81016020851015613af2578190505b613b06613afe856139be565b830182613aa5565b50505b505050565b600082821c905092915050565b6000613b2c60001984600802613b0e565b1980831691505092915050565b6000613b458383613b1b565b9150826002028217905092915050565b613b5e826127e5565b67ffffffffffffffff811115613b7757613b766137c6565b5b613b8182546134ae565b613b8c828285613ac8565b600060209050601f831160018114613bbf5760008415613bad578287015190505b613bb78582613b39565b865550613c1f565b601f198416613bcd866134df565b60005b82811015613bf557848901518255600182019150602085019450602081019050613bd0565b86831015613c125784890151613c0e601f891682613b1b565b8355505b6001600288020188555050505b505050505050565b6000613c328261277b565b91507fffffffffffffffffffffffffffffffffffffffffffffffffffffffffffffffff8203613c6457613c6361332a565b5b600182019050919050565b6000606082019050613c846000830186612785565b613c916020830185612785565b613c9e6040830184612785565b949350505050565b7f506f6c6c696e67206e6f74207374617274656400000000000000000000000000600082015250565b6000613cdc6013836127f0565b9150613ce782613ca6565b602082019050919050565b60006020820190508181036000830152613d0b81613ccf565b9050919050565b7f506f6c6c20616c72656164792064697374726962757465640000000000000000600082015250565b6000613d486018836127f0565b9150613d5382613d12565b602082019050919050565b60006020820190508181036000830152613d7781613d3b565b9050919050565b7f416c726561647920636c61696d65640000000000000000000000000000000000600082015250565b6000613db4600f836127f0565b9150613dbf82613d7e565b602082019050919050565b60006020820190508181036000830152613de381613da7565b9050919050565b7f4e6f7420656e6f7567682066756e647300000000000000000000000000000000600082015250565b6000613e206010836127f0565b9150613e2b82613dea565b602082019050919050565b60006020820190508181036000830152613e4f81613e13565b9050919050565b600081905092915050565b50565b6000613e71600083613e56565b9150613e7c82613e61565b600082019050919050565b6000613e9282613e64565b9150819050919050565b7f5472616e73666572206661696c65640000000000000000000000000000000000600082015250565b6000613ed2600f836127f0565b9150613edd82613e9c565b602082019050919050565b60006020820190508181036000830152613f0181613ec5565b9050919050565b7f52657761726420636c61696d6564000000000000000000000000000000000000600082015250565b6000613f3e600e836127f0565b9150613f4982613f08565b602082019050919050565b6000606082019050613f6960008301856128de565b613f766020830184612785565b8181036040830152613f8781613f31565b90509392505050565b7f4f6e6c792044414f2063616e2063616c6c20746869732066756e6374696f6e00600082015250565b6000613fc6601f836127f0565b9150613fd182613f90565b602082019050919050565b60006020820190508181036000830152613ff581613fb9565b9050919050565b7f506f6c6c206e6f74207375626d69747465640000000000000000000000000000600082015250565b60006140326012836127f0565b915061403d82613ffc565b602082019050919050565b6000602082019050818103600083015261406181614025565b9050919050565b7f57726f6e6720706f6c6c20616464726573730000000000000000000000000000600082015250565b600061409e6012836127f0565b91506140a982614068565b602082019050919050565b600060208201905081810360008301526140cd81614091565b9050919050565b7f4e6f2066756e647320746f20726566756e640000000000000000000000000000600082015250565b600061410a6012836127f0565b9150614115826140d4565b602082019050919050565b60006020820190508181036000830152614139816140fd565b9050919050565b7f546f6f206d616e792063686f6963657300000000000000000000000000000000600082015250565b60006141766010836127f0565b915061418182614140565b602082019050919050565b600060208201905081810360008301526141a581614169565b9050919050565b7f546f6f206d616e7920746f706963730000000000000000000000000000000000600082015250565b60006141e2600f836127f0565b91506141ed826141ac565b602082019050919050565b60006020820190508181036000830152614211816141d5565b9050919050565b6000819050919050565b600061423d61423861423384614218565b613a2d565b61277b565b9050919050565b61424d81614222565b82525050565b60006060820190506142686000830186614244565b6142756020830185612785565b6142826040830184612785565b949350505050565b7f4f776e61626c653a206e6577206f776e657220697320746865207a65726f206160008201527f6464726573730000000000000000000000000000000000000000000000000000602082015250565b60006142e66026836127f0565b91506142f18261428a565b604082019050919050565b60006020820190508181036000830152614315816142d9565b9050919050565b7f416c726561647920616e73776572656400000000000000000000000000000000600082015250565b60006143526010836127f0565b915061435d8261431c565b602082019050919050565b6000602082019050818103600083015261438181614345565b9050919050565b7f57726f6e67206e756d626572206f6620616e7377657273000000000000000000600082015250565b60006143be6017836127f0565b91506143c982614388565b602082019050919050565b600060208201905081810360008301526143ed816143b1565b9050919050565b7f4e6f7420656c696769626c650000000000000000000000000000000000000000600082015250565b600061442a600c836127f0565b9150614435826143f4565b602082019050919050565b600060208201905081810360008301526144598161441d565b9050919050565b600061446b8261277b565b91506144768361277b565b925082820390508181111561448e5761448d61332a565b5b92915050565b7f416e73776572206f7574206f662072616e676500000000000000000000000000600082015250565b60006144ca6013836127f0565b91506144d582614494565b602082019050919050565b600060208201905081810360008301526144f9816144bd565b9050919050565b7f4f776e61626c653a2063616c6c6572206973206e6f7420746865206f776e6572600082015250565b60006145366020836127f0565b915061454182614500565b602082019050919050565b6000602082019050818103600083015261456581614529565b9050919050565b7f526566756e64206661696c656400000000000000000000000000000000000000600082015250565b60006145a2600d836127f0565b91506145ad8261456c565b602082019050919050565b600060208201905081810360008301526145d181614595565b9050919050565b7f526566756e6420746f206f776e65720000000000000000000000000000000000600082015250565b600061460e600f836127f0565b9150614619826145d8565b602082019050919050565b600060608201905061463960008301856128de565b6146466020830184612785565b818103604083015261465781614601565b90509392505050565b7f546f6f206d616e79206269747320746f207365742e0000000000000000000000600082015250565b60006146966015836127f0565b91506146a182614660565b602082019050919050565b600060208201905081810360008301526146c581614689565b9050919050565b7f42697420746f20736574206f7574206f662072616e67652e0000000000000000600082015250565b60006147026018836127f0565b915061470d826146cc565b602082019050919050565b60006020820190508181036000830152614731816146f5565b9050919050565b7f416c726561647920757064617465640000000000000000000000000000000000600082015250565b600061476e600f836127f0565b915061477982614738565b602082019050919050565b6000602082019050818103600083015261479d81614761565b905091905056fea264697066735822122062329d838dbbe97a02cde175c6e1652eeb5754db576e9c4c01b528fb5096d95a64736f6c63430008130033",
  "immutableReferences": {},
  "source": "// SPDX-License-Identifier: MIT\n\npragma solidity 0.8.19;\n\n/**\n@title PollUser\n@author ibourn\n@notice This contract contains the respondents functions\n@notice results are not not cumulative but separate, as the owner could want to do a cross-data analysis\n@notice addresses are not linked directly to answers\n@dev The contract inherits from PollAdmin (and so from PollView, PollStorage, Ownable)\n@dev (see PollMaster.sol for comments & explanations)\n@inheritdoc Ownable\n */\nimport \"./PollAdmin.sol\";\nimport \"./IPollUser.sol\";\nimport \"./Certifier.sol\";\n\n//IPollUser\ncontract PollUser is PollAdmin, IPollUser {\n\n\n    // :::::::::::::::::::::::::: GETTERS :::::::::::::::::::::::::::::: //\n//internal\n    function getEligibility() public view returns (bool) {\n        return Certifier(certifierAddress).getEligibilityProof(eligibilityCriteria, msg.sender) == PSEUDO_PROOF;\n    }\n\n    // :::::::::::::::::::::::::: SETTERS :::::::::::::::::::::::::::::: //\n\n    /**\n    @notice This function allow to answer to the poll\n    @dev it update the balance of the respondent to allow him to claim the reward\n    @dev index of choices start from 0 and should be ordered as the choices in the topics in order to revert earlier in case of invalid answer (function in helpers will revert later if not)\n    @param _chosenChoices is an array of uint representing the index of the choices chosen by the respondent (in the order of the all choices and starting from 0)\n     */\n    function addAnswer(uint[] calldata _chosenChoices, bytes32 _eligibilityProof) external {\n        require(pollStatus == PollStatus.PollingStarted, 'Polling not started');\n        require(balances[msg.sender] == 0, 'Already answered');\n        require(_chosenChoices.length <= totalChoicesCount, 'Wrong number of answers');\n        require(getEligibility(), 'Not eligible');\n        //check last num (index of choice) <= totalChoicesCount\n        require(_chosenChoices[_chosenChoices.length - 1] < totalChoicesCount, 'Answer out of range');\n\n        uint256 _answer = setBitsFromPositions(_chosenChoices);\n\n        // respondents.push(msg.sender);\n        answers.push(_answer);\n        // responded[msg.sender] = true;\n\n        _updateRespondentBalance(msg.sender);\n\n    }\n\n    /**\n    @notice This function allow to claim the reward\n    @dev it send the reward to the respondent\n     */\n    function claimReward() external {\n        require(pollStatus == PollStatus.PollingEnded, 'Polling not ended');\n        require(balances[msg.sender] != 0, 'Already claimed');\n        require(balance >= balances[msg.sender], 'Not enough funds');\n        uint amountToSend = balances[msg.sender];\n        balances[msg.sender] = 0;\n        (bool res,) = msg.sender.call{value: amountToSend}(\"\");\n        require(res, \"Transfer failed\");\n\n        emit PollWithdrawal(msg.sender, amountToSend, 'Reward claimed');\n    }\n\n    /**\n    @notice this function update the balance of the respondent setting it to the amountToRespondent\n    @dev it's a private function called by addAnswer\n    @param _respondent is the address of the respondent\n     */\n    function _updateRespondentBalance(address _respondent) private {\n    // require(responded[_respondent] == true, 'Not answered yet');\n    require(balances[_respondent] == 0, 'Already updated');\n    require(balance >= amountToRespondent, 'Not enough funds');\n        balance -= amountToRespondent;\n        balances[_respondent] += amountToRespondent;\n    }\n}",
  "sourcePath": "/home/ibournubuntu/ALYRA/PROJET_FINAL/DPoll/truffle/contracts/PollUser.sol",
  "compiler": {
    "name": "solc",
    "version": "0.8.19+commit.7dd6d404.Emscripten.clang"
  },
  "schemaVersion": "3.4.14",
  "updatedAt": "2023-07-24T01:19:11.551Z",
  "devdoc": {
    "kind": "dev",
    "methods": {
      "addAnswer(uint256[],bytes32)": {
        "details": "it update the balance of the respondent to allow him to claim the rewardindex of choices start from 0 and should be ordered as the choices in the topics in order to revert earlier in case of invalid answer (function in helpers will revert later if not)",
        "params": {
          "_chosenChoices": "is an array of uint representing the index of the choices chosen by the respondent (in the order of the all choices and starting from 0)"
        }
      },
      "addTopic(string,string[])": {
        "details": "the choices are an array of string",
        "params": {
          "_choices": "is an array of string representing the choices of the topic",
          "_question": "is the question of the topic"
        }
      },
      "addTopicsBatch(string[],string[][])": {
        "details": "structure of choice : [topic choices][topics] / read/write : a.[topic n][choice n] / lenght : a.length == topics.length",
        "params": {
          "_choices": "is an array of array of string representing the choices of the topics",
          "_questions": "is an array of string representing the questions of the topics"
        }
      },
      "claimReward()": {
        "details": "it send the reward to the respondent"
      },
      "endPoll()": {
        "details": "LATER : delay and number of answers will allow to set requirements to end the Poll by everybody (not only the owner), with incentives to automate the process"
      },
      "getPackedAnswers()": {
        "details": "answers are packed so each answer is a uint flagging the choices of the respondent",
        "returns": {
          "_0": "answers is an array of uint representing the answers of the poll"
        }
      },
      "getSelectedChoicesByAnswer(uint256)": {
        "details": "one answer is a uint256 where each bit represent an available choice : 1 is selected, 0 is not selected",
        "params": {
          "_answerId": "is the index of the answer in the answers array"
        },
        "returns": {
          "_0": "an array of uint representing the selected choices of the respondent (in the order of all choices in topics)"
        }
      },
      "getUnpackedAnswers()": {
        "details": "answers are unpacked so each result is the index of a choice selected by a respondentcall getSelectedChoicesByAnswer() to get the selected choices of a respondentuse answers.length to get the number of respondents",
        "returns": {
          "_0": "an array of all respondets answers as an array of uint corresponding to the index of the choices selected by the respondent (reading :[choices][respondents])"
        }
      },
      "owner()": {
        "details": "Returns the address of the current owner."
      },
      "renounceOwnership()": {
        "details": "Leaves the contract without owner. It will not be possible to call `onlyOwner` functions. Can only be called by the current owner. NOTE: Renouncing ownership will leave the contract without an owner, thereby disabling any functionality that is only available to the owner."
      },
      "setPollValidation(address,bool)": {
        "details": "if the poll is validated, the DAO will pay the validators and the DAOif the poll is rejected, the DAO will refund the owner balance less the validators fees (owner should claim it back later)it set the timestampLimit to the end of the poll and start the poll",
        "params": {
          "isValid": "is a boolean to validate or reject the poll",
          "pollAddress": "is the address of the poll to validate (this contract)"
        }
      },
      "transferOwnership(address)": {
        "details": "Transfers ownership of the contract to a new account (`newOwner`). Can only be called by the current owner."
      }
    },
    "version": 1
  },
  "userdoc": {
    "kind": "user",
    "methods": {
      "addAnswer(uint256[],bytes32)": {
        "notice": "This function allow to answer to the poll"
      },
      "addTopic(string,string[])": {
        "notice": "This function allows to add a topic : a question and its choices"
      },
      "addTopicsBatch(string[],string[][])": {
        "notice": "This function allows to add topics : questions and their choices, in batch"
      },
      "claimRefund()": {
        "notice": "allows the admin to withdraw the funds of the poll in case of rejection by the DAO or if the poll end without enough respondents"
      },
      "claimReward()": {
        "notice": "This function allow to claim the reward"
      },
      "endPoll()": {
        "notice": "allows the admin to end the poll"
      },
      "getPackedAnswers()": {
        "notice": "get all the answers of the poll"
      },
      "getSelectedChoicesByAnswer(uint256)": {
        "notice": "This function return the selected choices of topics of a respondent"
      },
      "getUnpackedAnswers()": {
        "notice": "get all the answers of the poll"
      },
      "setPollValidation(address,bool)": {
        "notice": "allows the DAO to validate or reject the poll"
      },
      "submitPoll()": {
        "notice": "allows the admin to submit the poll to the DAO for validation (validators will check for illegal content...) "
      }
    },
    "version": 1
  }
}