{
  "contractName": "PollFactory",
  "abi": [
    {
      "inputs": [
        {
          "internalType": "address",
          "name": "_DAOaddress",
          "type": "address"
        },
        {
          "internalType": "address",
          "name": "_certifierAddress",
          "type": "address"
        },
        {
          "internalType": "address",
          "name": "_dPollPluginValidatorAddress",
          "type": "address"
        }
      ],
      "stateMutability": "nonpayable",
      "type": "constructor"
    },
    {
      "anonymous": false,
      "inputs": [
        {
          "indexed": true,
          "internalType": "address",
          "name": "previousOwner",
          "type": "address"
        },
        {
          "indexed": true,
          "internalType": "address",
          "name": "newOwner",
          "type": "address"
        }
      ],
      "name": "OwnershipTransferred",
      "type": "event"
    },
    {
      "anonymous": false,
      "inputs": [
        {
          "indexed": false,
          "internalType": "address",
          "name": "newPollContract",
          "type": "address"
        },
        {
          "indexed": false,
          "internalType": "address",
          "name": "pollMasterAddress",
          "type": "address"
        },
        {
          "indexed": false,
          "internalType": "address",
          "name": "creator",
          "type": "address"
        }
      ],
      "name": "PollCreated",
      "type": "event"
    },
    {
      "inputs": [],
      "name": "DAOaddress",
      "outputs": [
        {
          "internalType": "address",
          "name": "",
          "type": "address"
        }
      ],
      "stateMutability": "view",
      "type": "function",
      "constant": true
    },
    {
      "inputs": [],
      "name": "DPollPluginValidatorAddress",
      "outputs": [
        {
          "internalType": "address",
          "name": "",
          "type": "address"
        }
      ],
      "stateMutability": "view",
      "type": "function",
      "constant": true
    },
    {
      "inputs": [],
      "name": "certifierAddress",
      "outputs": [
        {
          "internalType": "address",
          "name": "",
          "type": "address"
        }
      ],
      "stateMutability": "view",
      "type": "function",
      "constant": true
    },
    {
      "inputs": [],
      "name": "owner",
      "outputs": [
        {
          "internalType": "address",
          "name": "",
          "type": "address"
        }
      ],
      "stateMutability": "view",
      "type": "function",
      "constant": true
    },
    {
      "inputs": [],
      "name": "pollMasterAddress",
      "outputs": [
        {
          "internalType": "address",
          "name": "",
          "type": "address"
        }
      ],
      "stateMutability": "view",
      "type": "function",
      "constant": true
    },
    {
      "inputs": [],
      "name": "renounceOwnership",
      "outputs": [],
      "stateMutability": "nonpayable",
      "type": "function"
    },
    {
      "inputs": [
        {
          "internalType": "address",
          "name": "newOwner",
          "type": "address"
        }
      ],
      "name": "transferOwnership",
      "outputs": [],
      "stateMutability": "nonpayable",
      "type": "function"
    },
    {
      "inputs": [
        {
          "internalType": "address",
          "name": "_pollMasterAddress",
          "type": "address"
        }
      ],
      "name": "setPollMasterAddress",
      "outputs": [],
      "stateMutability": "nonpayable",
      "type": "function"
    },
    {
      "inputs": [
        {
          "internalType": "uint256",
          "name": "_requiredResponseCount",
          "type": "uint256"
        },
        {
          "internalType": "string",
          "name": "_pollName",
          "type": "string"
        },
        {
          "internalType": "string",
          "name": "_pollDescription",
          "type": "string"
        },
        {
          "internalType": "string",
          "name": "_eligibilityCriteria",
          "type": "string"
        }
      ],
      "name": "createPollContract",
      "outputs": [
        {
          "internalType": "address",
          "name": "",
          "type": "address"
        }
      ],
      "stateMutability": "payable",
      "type": "function",
      "payable": true
    },
    {
      "inputs": [],
      "name": "getMasterPollAddress",
      "outputs": [
        {
          "internalType": "address",
          "name": "",
          "type": "address"
        }
      ],
      "stateMutability": "view",
      "type": "function",
      "constant": true
    },
    {
      "inputs": [],
      "name": "getPollClonesAddresses",
      "outputs": [
        {
          "internalType": "address[]",
          "name": "",
          "type": "address[]"
        }
      ],
      "stateMutability": "view",
      "type": "function",
      "constant": true
    }
  ],
  "bytecode": "0x60806040523480156200001157600080fd5b50604051620016d0380380620016d083398181016040528101906200003791906200033d565b620000576200004b6200020760201b60201c565b6200020f60201b60201c565b600073ffffffffffffffffffffffffffffffffffffffff168373ffffffffffffffffffffffffffffffffffffffff1603620000c9576040517f08c379a0000000000000000000000000000000000000000000000000000000008152600401620000c090620003fa565b60405180910390fd5b600073ffffffffffffffffffffffffffffffffffffffff168273ffffffffffffffffffffffffffffffffffffffff16036200013b576040517f08c379a000000000000000000000000000000000000000000000000000000000815260040162000132906200046c565b60405180910390fd5b82600160006101000a81548173ffffffffffffffffffffffffffffffffffffffff021916908373ffffffffffffffffffffffffffffffffffffffff16021790555081600260006101000a81548173ffffffffffffffffffffffffffffffffffffffff021916908373ffffffffffffffffffffffffffffffffffffffff16021790555080600360006101000a81548173ffffffffffffffffffffffffffffffffffffffff021916908373ffffffffffffffffffffffffffffffffffffffff1602179055505050506200048e565b600033905090565b60008060009054906101000a900473ffffffffffffffffffffffffffffffffffffffff169050816000806101000a81548173ffffffffffffffffffffffffffffffffffffffff021916908373ffffffffffffffffffffffffffffffffffffffff1602179055508173ffffffffffffffffffffffffffffffffffffffff168173ffffffffffffffffffffffffffffffffffffffff167f8be0079c531659141344cd1fd0a4f28419497f9722a3daafe3b4186f6b6457e060405160405180910390a35050565b600080fd5b600073ffffffffffffffffffffffffffffffffffffffff82169050919050565b60006200030582620002d8565b9050919050565b6200031781620002f8565b81146200032357600080fd5b50565b60008151905062000337816200030c565b92915050565b600080600060608486031215620003595762000358620002d3565b5b6000620003698682870162000326565b93505060206200037c8682870162000326565b92505060406200038f8682870162000326565b9150509250925092565b600082825260208201905092915050565b7f44414f2061646472657373206973207265717569726564000000000000000000600082015250565b6000620003e260178362000399565b9150620003ef82620003aa565b602082019050919050565b600060208201905081810360008301526200041581620003d3565b9050919050565b7f4365727469666965722061646472657373206973207265717569726564000000600082015250565b600062000454601d8362000399565b915062000461826200041c565b602082019050919050565b60006020820190508181036000830152620004878162000445565b9050919050565b611232806200049e6000396000f3fe60806040526004361061009c5760003560e01c80638c062e4e116100645780638c062e4e146101695780638da5cb5b14610194578063ad1e78d9146101bf578063dbc5d867146101ea578063eac8d31714610213578063f2fde38b1461023e5761009c565b8063235a2a36146100a15780633c4cba10146100d157806349cf2eae146100fc578063544e8d0f14610127578063715018a614610152575b600080fd5b6100bb60048036038101906100b69190610b4e565b610267565b6040516100c89190610c58565b60405180910390f35b3480156100dd57600080fd5b506100e66105b8565b6040516100f39190610c58565b60405180910390f35b34801561010857600080fd5b506101116105de565b60405161011e9190610c58565b60405180910390f35b34801561013357600080fd5b5061013c610604565b6040516101499190610d31565b60405180910390f35b34801561015e57600080fd5b50610167610692565b005b34801561017557600080fd5b5061017e6106a6565b60405161018b9190610c58565b60405180910390f35b3480156101a057600080fd5b506101a96106cc565b6040516101b69190610c58565b60405180910390f35b3480156101cb57600080fd5b506101d46106f5565b6040516101e19190610c58565b60405180910390f35b3480156101f657600080fd5b50610211600480360381019061020c9190610d7f565b61071f565b005b34801561021f57600080fd5b506102286107fc565b6040516102359190610c58565b60405180910390f35b34801561024a57600080fd5b5061026560048036038101906102609190610d7f565b610822565b005b60008073ffffffffffffffffffffffffffffffffffffffff16600160009054906101000a900473ffffffffffffffffffffffffffffffffffffffff1673ffffffffffffffffffffffffffffffffffffffff16036102f9576040517f08c379a00000000000000000000000000000000000000000000000000000000081526004016102f090610e09565b60405180910390fd5b600160009054906101000a900473ffffffffffffffffffffffffffffffffffffffff1673ffffffffffffffffffffffffffffffffffffffff1663076af049336040518263ffffffff1660e01b81526004016103549190610c58565b602060405180830381865afa158015610371573d6000803e3d6000fd5b505050506040513d601f19601f820116820180604052508101906103959190610e61565b6103d4576040517f08c379a00000000000000000000000000000000000000000000000000000000081526004016103cb90610eda565b60405180910390fd5b6000610401600460009054906101000a900473ffffffffffffffffffffffffffffffffffffffff166108a5565b90508073ffffffffffffffffffffffffffffffffffffffff166313cd83e93433600160009054906101000a900473ffffffffffffffffffffffffffffffffffffffff16600260009054906101000a900473ffffffffffffffffffffffffffffffffffffffff16600360009054906101000a900473ffffffffffffffffffffffffffffffffffffffff168f8f8f8f8f8f8f6040518d63ffffffff1660e01b81526004016104b79b9a99989796959493929190610f56565b6000604051808303818588803b1580156104d057600080fd5b505af11580156104e4573d6000803e3d6000fd5b50505050506005819080600181540180825580915050600190039060005260206000200160009091909190916101000a81548173ffffffffffffffffffffffffffffffffffffffff021916908373ffffffffffffffffffffffffffffffffffffffff1602179055507f0dfa012e11a8b6542953cd25e36280d5785c078f082c6b59ac799ba96c26aec481600460009054906101000a900473ffffffffffffffffffffffffffffffffffffffff16336040516105a193929190610fef565b60405180910390a180915050979650505050505050565b600460009054906101000a900473ffffffffffffffffffffffffffffffffffffffff1681565b600260009054906101000a900473ffffffffffffffffffffffffffffffffffffffff1681565b6060600580548060200260200160405190810160405280929190818152602001828054801561068857602002820191906000526020600020905b8160009054906101000a900473ffffffffffffffffffffffffffffffffffffffff1673ffffffffffffffffffffffffffffffffffffffff168152602001906001019080831161063e575b5050505050905090565b61069a61095f565b6106a460006109dd565b565b600160009054906101000a900473ffffffffffffffffffffffffffffffffffffffff1681565b60008060009054906101000a900473ffffffffffffffffffffffffffffffffffffffff16905090565b6000600460009054906101000a900473ffffffffffffffffffffffffffffffffffffffff16905090565b61072761095f565b600073ffffffffffffffffffffffffffffffffffffffff16600460009054906101000a900473ffffffffffffffffffffffffffffffffffffffff1673ffffffffffffffffffffffffffffffffffffffff16146107b8576040517f08c379a00000000000000000000000000000000000000000000000000000000081526004016107af90611072565b60405180910390fd5b80600460006101000a81548173ffffffffffffffffffffffffffffffffffffffff021916908373ffffffffffffffffffffffffffffffffffffffff16021790555050565b600360009054906101000a900473ffffffffffffffffffffffffffffffffffffffff1681565b61082a61095f565b600073ffffffffffffffffffffffffffffffffffffffff168173ffffffffffffffffffffffffffffffffffffffff1603610899576040517f08c379a000000000000000000000000000000000000000000000000000000000815260040161089090611104565b60405180910390fd5b6108a2816109dd565b50565b6000763d602d80600a3d3981f3363d3d373d3d3d363d730000008260601b60e81c176000526e5af43d82803e903d91602b57fd5bf38260781b17602052603760096000f09050600073ffffffffffffffffffffffffffffffffffffffff168173ffffffffffffffffffffffffffffffffffffffff160361095a576040517f08c379a000000000000000000000000000000000000000000000000000000000815260040161095190611170565b60405180910390fd5b919050565b610967610aa1565b73ffffffffffffffffffffffffffffffffffffffff166109856106cc565b73ffffffffffffffffffffffffffffffffffffffff16146109db576040517f08c379a00000000000000000000000000000000000000000000000000000000081526004016109d2906111dc565b60405180910390fd5b565b60008060009054906101000a900473ffffffffffffffffffffffffffffffffffffffff169050816000806101000a81548173ffffffffffffffffffffffffffffffffffffffff021916908373ffffffffffffffffffffffffffffffffffffffff1602179055508173ffffffffffffffffffffffffffffffffffffffff168173ffffffffffffffffffffffffffffffffffffffff167f8be0079c531659141344cd1fd0a4f28419497f9722a3daafe3b4186f6b6457e060405160405180910390a35050565b600033905090565b600080fd5b600080fd5b6000819050919050565b610ac681610ab3565b8114610ad157600080fd5b50565b600081359050610ae381610abd565b92915050565b600080fd5b600080fd5b600080fd5b60008083601f840112610b0e57610b0d610ae9565b5b8235905067ffffffffffffffff811115610b2b57610b2a610aee565b5b602083019150836001820283011115610b4757610b46610af3565b5b9250929050565b60008060008060008060006080888a031215610b6d57610b6c610aa9565b5b6000610b7b8a828b01610ad4565b975050602088013567ffffffffffffffff811115610b9c57610b9b610aae565b5b610ba88a828b01610af8565b9650965050604088013567ffffffffffffffff811115610bcb57610bca610aae565b5b610bd78a828b01610af8565b9450945050606088013567ffffffffffffffff811115610bfa57610bf9610aae565b5b610c068a828b01610af8565b925092505092959891949750929550565b600073ffffffffffffffffffffffffffffffffffffffff82169050919050565b6000610c4282610c17565b9050919050565b610c5281610c37565b82525050565b6000602082019050610c6d6000830184610c49565b92915050565b600081519050919050565b600082825260208201905092915050565b6000819050602082019050919050565b610ca881610c37565b82525050565b6000610cba8383610c9f565b60208301905092915050565b6000602082019050919050565b6000610cde82610c73565b610ce88185610c7e565b9350610cf383610c8f565b8060005b83811015610d24578151610d0b8882610cae565b9750610d1683610cc6565b925050600181019050610cf7565b5085935050505092915050565b60006020820190508181036000830152610d4b8184610cd3565b905092915050565b610d5c81610c37565b8114610d6757600080fd5b50565b600081359050610d7981610d53565b92915050565b600060208284031215610d9557610d94610aa9565b5b6000610da384828501610d6a565b91505092915050565b600082825260208201905092915050565b7f44414f2061646472657373206973207265717569726564000000000000000000600082015250565b6000610df3601783610dac565b9150610dfe82610dbd565b602082019050919050565b60006020820190508181036000830152610e2281610de6565b9050919050565b60008115159050919050565b610e3e81610e29565b8114610e4957600080fd5b50565b600081519050610e5b81610e35565b92915050565b600060208284031215610e7757610e76610aa9565b5b6000610e8584828501610e4c565b91505092915050565b7f596f7520617265206e6f742061206d656d626572000000000000000000000000600082015250565b6000610ec4601483610dac565b9150610ecf82610e8e565b602082019050919050565b60006020820190508181036000830152610ef381610eb7565b9050919050565b610f0381610ab3565b82525050565b82818337600083830152505050565b6000601f19601f8301169050919050565b6000610f358385610dac565b9350610f42838584610f09565b610f4b83610f18565b840190509392505050565b600061010082019050610f6c600083018e610c49565b610f79602083018d610c49565b610f86604083018c610c49565b610f93606083018b610c49565b610fa0608083018a610efa565b81810360a0830152610fb381888a610f29565b905081810360c0830152610fc8818688610f29565b905081810360e0830152610fdd818486610f29565b90509c9b505050505050505050505050565b60006060820190506110046000830186610c49565b6110116020830185610c49565b61101e6040830184610c49565b949350505050565b7f506f6c6c206d6173746572206164647265737320616c72656164792073657400600082015250565b600061105c601f83610dac565b915061106782611026565b602082019050919050565b6000602082019050818103600083015261108b8161104f565b9050919050565b7f4f776e61626c653a206e6577206f776e657220697320746865207a65726f206160008201527f6464726573730000000000000000000000000000000000000000000000000000602082015250565b60006110ee602683610dac565b91506110f982611092565b604082019050919050565b6000602082019050818103600083015261111d816110e1565b9050919050565b7f455243313136373a20637265617465206661696c656400000000000000000000600082015250565b600061115a601683610dac565b915061116582611124565b602082019050919050565b600060208201905081810360008301526111898161114d565b9050919050565b7f4f776e61626c653a2063616c6c6572206973206e6f7420746865206f776e6572600082015250565b60006111c6602083610dac565b91506111d182611190565b602082019050919050565b600060208201905081810360008301526111f5816111b9565b905091905056fea264697066735822122046a58e0629299d9d00cab76e27ba027ae865a474d87cf69edb3183dd21329fa364736f6c63430008130033",
  "immutableReferences": {},
  "source": "// SPDX-License-Identifier: MIT\n\npragma solidity 0.8.19;\n\nimport \"../node_modules/@openzeppelin/contracts/proxy/Clones.sol\";\nimport \"../node_modules/@openzeppelin/contracts/access/Ownable.sol\";\nimport \"./IPollInitiator.sol\"; \nimport \"./PollMaster.sol\";\nimport \"./IDAOmembership.sol\"; //create interface (isMember..)\n\n/*\n * In the purpose of this exam factory is minimalist : pollMasterAddress is set by the owner of the factory once only (no upgrade of the master poll contract)\n *\n * @todo : \n * -set the DAO address as owner of the factory. At the moment, the owner is the deployer of the factory, it should be the same as the deployer of the DAO\n * -manage poll versions by adding new master poll contracts and keeping track of the clones addresses versions\n */\n\n/**\n@title PollFactory\n@author ibourn\n@notice This is the factory used to create poll contract clones from poll master contract\n-In this structure : 1 poll == 1 clone contract with its storage context\n-Master Poll Address needs to be set before creating a poll\n*/\ncontract PollFactory is Ownable, IPollInitiator {\n\n  address public DAOaddress;\n  address public certifierAddress;\n  address public DPollPluginValidatorAddress;\n  address public pollMasterAddress;\n  address[] pollCloneAddresses;\n\n  event PollCreated(address newPollContract, address pollMasterAddress, address creator);\n  //get isMember from DAO for msg.sender\n  modifier onlyDAOmember() {\n    require(DAOaddress != address(0), 'DAO address is required');\n    require(IDAOmembership(DAOaddress).isMemberExtCall(msg.sender), \"You are not a member\");\n   _;\n  }\n//utilise constructor pour set le DAO address c plus cohrent\n  constructor(address _DAOaddress, address _certifierAddress, address _dPollPluginValidatorAddress) {\n    require(_DAOaddress != address(0), 'DAO address is required');\n    require(_certifierAddress != address(0), 'Certifier address is required');\n    DAOaddress = _DAOaddress;\n    certifierAddress = _certifierAddress;\n    DPollPluginValidatorAddress = _dPollPluginValidatorAddress;\n  }\n  /**\n  @notice allows to set the master voting addres from which votes will be cloned\n  */\n  function setPollMasterAddress(address _pollMasterAddress) external onlyOwner {\n    require(pollMasterAddress == address(0), 'Poll master address already set');\n    pollMasterAddress = _pollMasterAddress;\n  }\n\n  // function setDAOAddress(address _DAOaddress) external onlyOwner {\n  //   require(DAOaddress == address(0), 'DAO address already set');\n  //   DAOaddress = _DAOaddress;\n  // }\n\n\n  /**\n  @notice function to create a new poll. One poll == one clone contract with its storage context.\n  @dev payment is done here to avoid DoS attack by creating a lot of clones\n  @return the clone address, it allows with Interfaces to participate to the poll as admin, respondent or DAO\n  */\n  function createPollContract(\n        // uint _duration,\n        uint _requiredResponseCount,\n        string calldata _pollName,\n        string calldata _pollDescription,\n        string calldata _eligibilityCriteria\n  ) \n        external \n        payable \n        onlyDAOmember() \n        returns(address) \n  {\n    address pollClone = Clones.clone(pollMasterAddress);\n\n    PollMaster(pollClone).initialize{value: msg.value}(\n        msg.sender, \n        DAOaddress,\n        certifierAddress,\n        DPollPluginValidatorAddress,\n        // _duration,\n        _requiredResponseCount,\n        _pollName,\n        _pollDescription,\n        _eligibilityCriteria\n    );  \n\n    pollCloneAddresses.push(pollClone);\n\n    emit PollCreated(pollClone, pollMasterAddress, msg.sender);\n    return pollClone;\n  }\n\n  /**\n  @notice getter to get the address of master poll contract\n  @return address of current master poll contract\n  */\n  function getMasterPollAddress() external view returns(address) {\n      return pollMasterAddress;\n  }\n\n  /**\n  @notice getter to get addresses of each poll created\n  @return an array of clone addresses\n  */\n  function getPollClonesAddresses() external view returns(address[] memory) {\n      return pollCloneAddresses;\n  }\n}",
  "sourcePath": "/home/ibournubuntu/ALYRA/PROJET_FINAL/DPoll/truffle/contracts/PollFactory.sol",
  "compiler": {
    "name": "solc",
    "version": "0.8.19+commit.7dd6d404.Emscripten.clang"
  },
  "schemaVersion": "3.4.14",
  "updatedAt": "2023-07-26T01:38:39.161Z",
  "networkType": "ethereum",
  "devdoc": {
    "author": "ibourn",
    "kind": "dev",
    "methods": {
      "createPollContract(uint256,string,string,string)": {
        "details": "payment is done here to avoid DoS attack by creating a lot of clones",
        "returns": {
          "_0": "the clone address, it allows with Interfaces to participate to the poll as admin, respondent or DAO"
        }
      },
      "getMasterPollAddress()": {
        "returns": {
          "_0": "address of current master poll contract"
        }
      },
      "getPollClonesAddresses()": {
        "returns": {
          "_0": "an array of clone addresses"
        }
      },
      "owner()": {
        "details": "Returns the address of the current owner."
      },
      "renounceOwnership()": {
        "details": "Leaves the contract without owner. It will not be possible to call `onlyOwner` functions. Can only be called by the current owner. NOTE: Renouncing ownership will leave the contract without an owner, thereby disabling any functionality that is only available to the owner."
      },
      "transferOwnership(address)": {
        "details": "Transfers ownership of the contract to a new account (`newOwner`). Can only be called by the current owner."
      }
    },
    "title": "PollFactory",
    "version": 1
  },
  "userdoc": {
    "kind": "user",
    "methods": {
      "createPollContract(uint256,string,string,string)": {
        "notice": "function to create a new poll. One poll == one clone contract with its storage context."
      },
      "getMasterPollAddress()": {
        "notice": "getter to get the address of master poll contract"
      },
      "getPollClonesAddresses()": {
        "notice": "getter to get addresses of each poll created"
      },
      "setPollMasterAddress(address)": {
        "notice": "allows to set the master voting addres from which votes will be cloned"
      }
    },
    "notice": "This is the factory used to create poll contract clones from poll master contract -In this structure : 1 poll == 1 clone contract with its storage context -Master Poll Address needs to be set before creating a poll",
    "version": 1
  }
}