{
  "contractName": "PollMaster",
  "abi": [
    {
      "inputs": [
        {
          "internalType": "address",
          "name": "_factory",
          "type": "address"
        }
      ],
      "stateMutability": "nonpayable",
      "type": "constructor"
    },
    {
      "anonymous": false,
      "inputs": [
        {
          "indexed": true,
          "internalType": "address",
          "name": "previousOwner",
          "type": "address"
        },
        {
          "indexed": true,
          "internalType": "address",
          "name": "newOwner",
          "type": "address"
        }
      ],
      "name": "OwnershipTransferred",
      "type": "event"
    },
    {
      "anonymous": false,
      "inputs": [
        {
          "indexed": false,
          "internalType": "enum PollStorage.PollStatus",
          "name": "previousStatus",
          "type": "uint8"
        },
        {
          "indexed": false,
          "internalType": "enum PollStorage.PollStatus",
          "name": "newStatus",
          "type": "uint8"
        }
      ],
      "name": "PollStatusChange",
      "type": "event"
    },
    {
      "anonymous": false,
      "inputs": [
        {
          "indexed": false,
          "internalType": "address",
          "name": "_to",
          "type": "address"
        },
        {
          "indexed": false,
          "internalType": "uint256",
          "name": "_amount",
          "type": "uint256"
        },
        {
          "indexed": false,
          "internalType": "string",
          "name": "_message",
          "type": "string"
        }
      ],
      "name": "PollWithdrawal",
      "type": "event"
    },
    {
      "anonymous": false,
      "inputs": [
        {
          "indexed": false,
          "internalType": "uint256",
          "name": "topicsAdded",
          "type": "uint256"
        },
        {
          "indexed": false,
          "internalType": "uint256",
          "name": "topicsCount",
          "type": "uint256"
        },
        {
          "indexed": false,
          "internalType": "uint256",
          "name": "totalChoicesCount",
          "type": "uint256"
        }
      ],
      "name": "TopicsAdded",
      "type": "event"
    },
    {
      "inputs": [],
      "name": "DAOaddress",
      "outputs": [
        {
          "internalType": "address",
          "name": "",
          "type": "address"
        }
      ],
      "stateMutability": "view",
      "type": "function",
      "constant": true
    },
    {
      "inputs": [],
      "name": "MAX_CHOICES_COUNT",
      "outputs": [
        {
          "internalType": "uint256",
          "name": "",
          "type": "uint256"
        }
      ],
      "stateMutability": "view",
      "type": "function",
      "constant": true
    },
    {
      "inputs": [],
      "name": "MAX_CHOICES_LENGTH",
      "outputs": [
        {
          "internalType": "uint256",
          "name": "",
          "type": "uint256"
        }
      ],
      "stateMutability": "view",
      "type": "function",
      "constant": true
    },
    {
      "inputs": [],
      "name": "MAX_RESPONDENTS_LENGTH",
      "outputs": [
        {
          "internalType": "uint256",
          "name": "",
          "type": "uint256"
        }
      ],
      "stateMutability": "view",
      "type": "function",
      "constant": true
    },
    {
      "inputs": [],
      "name": "MAX_TOPICS_LENGTH",
      "outputs": [
        {
          "internalType": "uint256",
          "name": "",
          "type": "uint256"
        }
      ],
      "stateMutability": "view",
      "type": "function",
      "constant": true
    },
    {
      "inputs": [],
      "name": "MIN_POLL_AMOUNT",
      "outputs": [
        {
          "internalType": "uint256",
          "name": "",
          "type": "uint256"
        }
      ],
      "stateMutability": "view",
      "type": "function",
      "constant": true
    },
    {
      "inputs": [],
      "name": "MIN_RESPONDENT_AMOUNT",
      "outputs": [
        {
          "internalType": "uint256",
          "name": "",
          "type": "uint256"
        }
      ],
      "stateMutability": "view",
      "type": "function",
      "constant": true
    },
    {
      "inputs": [
        {
          "internalType": "uint256[]",
          "name": "_chosenChoices",
          "type": "uint256[]"
        },
        {
          "internalType": "bytes32",
          "name": "_eligibilityProof",
          "type": "bytes32"
        }
      ],
      "name": "addAnswer",
      "outputs": [],
      "stateMutability": "nonpayable",
      "type": "function"
    },
    {
      "inputs": [
        {
          "internalType": "string",
          "name": "_question",
          "type": "string"
        },
        {
          "internalType": "string[]",
          "name": "_choices",
          "type": "string[]"
        }
      ],
      "name": "addTopic",
      "outputs": [],
      "stateMutability": "nonpayable",
      "type": "function"
    },
    {
      "inputs": [
        {
          "internalType": "string[]",
          "name": "_questions",
          "type": "string[]"
        },
        {
          "internalType": "string[][]",
          "name": "_choices",
          "type": "string[][]"
        }
      ],
      "name": "addTopicsBatch",
      "outputs": [],
      "stateMutability": "nonpayable",
      "type": "function"
    },
    {
      "inputs": [],
      "name": "certifierAddress",
      "outputs": [
        {
          "internalType": "address",
          "name": "",
          "type": "address"
        }
      ],
      "stateMutability": "view",
      "type": "function",
      "constant": true
    },
    {
      "inputs": [],
      "name": "claimRefund",
      "outputs": [],
      "stateMutability": "nonpayable",
      "type": "function"
    },
    {
      "inputs": [],
      "name": "claimReward",
      "outputs": [],
      "stateMutability": "nonpayable",
      "type": "function"
    },
    {
      "inputs": [],
      "name": "endPoll",
      "outputs": [],
      "stateMutability": "nonpayable",
      "type": "function"
    },
    {
      "inputs": [],
      "name": "getAmountToDAO",
      "outputs": [
        {
          "internalType": "uint256",
          "name": "",
          "type": "uint256"
        }
      ],
      "stateMutability": "view",
      "type": "function",
      "constant": true
    },
    {
      "inputs": [],
      "name": "getAmountToRespondent",
      "outputs": [
        {
          "internalType": "uint256",
          "name": "",
          "type": "uint256"
        }
      ],
      "stateMutability": "view",
      "type": "function",
      "constant": true
    },
    {
      "inputs": [],
      "name": "getAmountToValidators",
      "outputs": [
        {
          "internalType": "uint256",
          "name": "",
          "type": "uint256"
        }
      ],
      "stateMutability": "view",
      "type": "function",
      "constant": true
    },
    {
      "inputs": [],
      "name": "getBalance",
      "outputs": [
        {
          "internalType": "uint256",
          "name": "",
          "type": "uint256"
        }
      ],
      "stateMutability": "view",
      "type": "function",
      "constant": true
    },
    {
      "inputs": [],
      "name": "getEligibility",
      "outputs": [
        {
          "internalType": "bool",
          "name": "",
          "type": "bool"
        }
      ],
      "stateMutability": "view",
      "type": "function",
      "constant": true
    },
    {
      "inputs": [],
      "name": "getIsCanceled",
      "outputs": [
        {
          "internalType": "bool",
          "name": "",
          "type": "bool"
        }
      ],
      "stateMutability": "view",
      "type": "function",
      "constant": true
    },
    {
      "inputs": [],
      "name": "getPackedAnswers",
      "outputs": [
        {
          "internalType": "uint256[]",
          "name": "",
          "type": "uint256[]"
        }
      ],
      "stateMutability": "view",
      "type": "function",
      "constant": true
    },
    {
      "inputs": [],
      "name": "getPollInformations",
      "outputs": [
        {
          "internalType": "string",
          "name": "",
          "type": "string"
        },
        {
          "internalType": "string",
          "name": "",
          "type": "string"
        }
      ],
      "stateMutability": "view",
      "type": "function",
      "constant": true
    },
    {
      "inputs": [],
      "name": "getPollStatus",
      "outputs": [
        {
          "internalType": "enum PollStorage.PollStatus",
          "name": "",
          "type": "uint8"
        }
      ],
      "stateMutability": "view",
      "type": "function",
      "constant": true
    },
    {
      "inputs": [],
      "name": "getPollStatusExt",
      "outputs": [
        {
          "internalType": "uint8",
          "name": "",
          "type": "uint8"
        }
      ],
      "stateMutability": "view",
      "type": "function",
      "constant": true
    },
    {
      "inputs": [],
      "name": "getRequiredResponseCount",
      "outputs": [
        {
          "internalType": "uint256",
          "name": "",
          "type": "uint256"
        }
      ],
      "stateMutability": "view",
      "type": "function",
      "constant": true
    },
    {
      "inputs": [],
      "name": "getRespondentReward",
      "outputs": [
        {
          "internalType": "uint256",
          "name": "",
          "type": "uint256"
        }
      ],
      "stateMutability": "view",
      "type": "function",
      "constant": true
    },
    {
      "inputs": [],
      "name": "getRespondentsCount",
      "outputs": [
        {
          "internalType": "uint256",
          "name": "",
          "type": "uint256"
        }
      ],
      "stateMutability": "view",
      "type": "function",
      "constant": true
    },
    {
      "inputs": [
        {
          "internalType": "uint256",
          "name": "_answerId",
          "type": "uint256"
        }
      ],
      "name": "getSelectedChoicesByAnswer",
      "outputs": [
        {
          "internalType": "uint256[]",
          "name": "",
          "type": "uint256[]"
        }
      ],
      "stateMutability": "view",
      "type": "function",
      "constant": true
    },
    {
      "inputs": [
        {
          "internalType": "uint256",
          "name": "_id",
          "type": "uint256"
        }
      ],
      "name": "getTopic",
      "outputs": [
        {
          "components": [
            {
              "internalType": "uint256",
              "name": "firstChoiceIndex",
              "type": "uint256"
            },
            {
              "internalType": "string",
              "name": "question",
              "type": "string"
            },
            {
              "internalType": "string[]",
              "name": "choices",
              "type": "string[]"
            }
          ],
          "internalType": "struct PollStorage.Topic",
          "name": "",
          "type": "tuple"
        }
      ],
      "stateMutability": "view",
      "type": "function",
      "constant": true
    },
    {
      "inputs": [],
      "name": "getTopics",
      "outputs": [
        {
          "components": [
            {
              "internalType": "uint256",
              "name": "firstChoiceIndex",
              "type": "uint256"
            },
            {
              "internalType": "string",
              "name": "question",
              "type": "string"
            },
            {
              "internalType": "string[]",
              "name": "choices",
              "type": "string[]"
            }
          ],
          "internalType": "struct PollStorage.Topic[]",
          "name": "",
          "type": "tuple[]"
        }
      ],
      "stateMutability": "view",
      "type": "function",
      "constant": true
    },
    {
      "inputs": [],
      "name": "getTopicsLength",
      "outputs": [
        {
          "internalType": "uint256",
          "name": "",
          "type": "uint256"
        }
      ],
      "stateMutability": "view",
      "type": "function",
      "constant": true
    },
    {
      "inputs": [],
      "name": "getUnpackedAnswers",
      "outputs": [
        {
          "internalType": "uint256[][]",
          "name": "",
          "type": "uint256[][]"
        }
      ],
      "stateMutability": "view",
      "type": "function",
      "constant": true
    },
    {
      "inputs": [],
      "name": "owner",
      "outputs": [
        {
          "internalType": "address",
          "name": "",
          "type": "address"
        }
      ],
      "stateMutability": "view",
      "type": "function",
      "constant": true
    },
    {
      "inputs": [],
      "name": "renounceOwnership",
      "outputs": [],
      "stateMutability": "nonpayable",
      "type": "function"
    },
    {
      "inputs": [
        {
          "internalType": "address",
          "name": "pollAddress",
          "type": "address"
        },
        {
          "internalType": "bool",
          "name": "isValid",
          "type": "bool"
        }
      ],
      "name": "setPollValidation",
      "outputs": [],
      "stateMutability": "payable",
      "type": "function",
      "payable": true
    },
    {
      "inputs": [],
      "name": "submitPoll",
      "outputs": [],
      "stateMutability": "nonpayable",
      "type": "function"
    },
    {
      "inputs": [
        {
          "internalType": "address",
          "name": "newOwner",
          "type": "address"
        }
      ],
      "name": "transferOwnership",
      "outputs": [],
      "stateMutability": "nonpayable",
      "type": "function"
    },
    {
      "inputs": [],
      "name": "validatorAddress",
      "outputs": [
        {
          "internalType": "address",
          "name": "",
          "type": "address"
        }
      ],
      "stateMutability": "view",
      "type": "function",
      "constant": true
    },
    {
      "inputs": [
        {
          "internalType": "address",
          "name": "_newOwner",
          "type": "address"
        },
        {
          "internalType": "address",
          "name": "_DAOaddress",
          "type": "address"
        },
        {
          "internalType": "address",
          "name": "_certifierAddress",
          "type": "address"
        },
        {
          "internalType": "address",
          "name": "_validatorAddress",
          "type": "address"
        },
        {
          "internalType": "uint256",
          "name": "_requiredResponseCount",
          "type": "uint256"
        },
        {
          "internalType": "string",
          "name": "_pollName",
          "type": "string"
        },
        {
          "internalType": "string",
          "name": "_pollDescription",
          "type": "string"
        },
        {
          "internalType": "string",
          "name": "_eligibilityCriteria",
          "type": "string"
        }
      ],
      "name": "initialize",
      "outputs": [],
      "stateMutability": "payable",
      "type": "function",
      "payable": true
    }
  ],
  "bytecode": "0x60a06040526000601160006101000a81548160ff0219169083151502179055503480156200002c57600080fd5b506040516200576a3803806200576a833981810160405281019062000052919062000203565b6200007262000066620000cd60201b60201c565b620000d560201b60201c565b6200009262000086620000cd60201b60201c565b620000d560201b60201c565b8073ffffffffffffffffffffffffffffffffffffffff1660808173ffffffffffffffffffffffffffffffffffffffff16815250505062000235565b600033905090565b60008060009054906101000a900473ffffffffffffffffffffffffffffffffffffffff169050816000806101000a81548173ffffffffffffffffffffffffffffffffffffffff021916908373ffffffffffffffffffffffffffffffffffffffff1602179055508173ffffffffffffffffffffffffffffffffffffffff168173ffffffffffffffffffffffffffffffffffffffff167f8be0079c531659141344cd1fd0a4f28419497f9722a3daafe3b4186f6b6457e060405160405180910390a35050565b600080fd5b600073ffffffffffffffffffffffffffffffffffffffff82169050919050565b6000620001cb826200019e565b9050919050565b620001dd81620001be565b8114620001e957600080fd5b50565b600081519050620001fd81620001d2565b92915050565b6000602082840312156200021c576200021b62000199565b5b60006200022c84828501620001ec565b91505092915050565b608051615519620002516000396000610a6e01526155196000f3fe60806040526004361061022f5760003560e01c8063715018a61161012e578063b5545a3c116100ab578063f5d4d2a81161006f578063f5d4d2a814610787578063f64b0af9146107b2578063f73649f6146107dd578063fee0117714610806578063ff4c4e0d146108315761022f565b8063b5545a3c146106eb578063b88a802f14610702578063e1b9742a14610719578063ef98cd6214610735578063f2fde38b1461075e5761022f565b80638d99b2eb116100f25780638d99b2eb146106165780638da5cb5b1461062d578063a3948a0d14610658578063a615406414610695578063a92a4fae146106c05761022f565b8063715018a614610543578063716588961461055a5780638389a3eb14610597578063883032e8146105c05780638c062e4e146105eb5761022f565b80633bbe2497116101bc57806349cf2eae1161018057806349cf2eae1461046c5780634b4d7aeb1461049757806356528cac146104c25780636a5543e9146104ed5780636b126209146105185761022f565b80633bbe2497146103955780633fe4676e146103c057806342587e72146103eb578063442da8bd1461041657806346b7bc91146104415761022f565b80631a7316ab116102035780631a7316ab146102bd5780631dd17d2f146102e85780632a0e1c4f14610313578063383da4b11461033e5780633bb3ba3d146103695761022f565b8062cc86bd1461023457806305f9d4ad1461025f57806312065fe01461027657806313cd83e9146102a1575b600080fd5b34801561024057600080fd5b5061024961085c565b6040516102569190612d92565b60405180910390f35b34801561026b57600080fd5b50610274610866565b005b34801561028257600080fd5b5061028b6109f7565b6040516102989190612d92565b60405180910390f35b6102bb60048036038101906102b69190612eb0565b610a01565b005b3480156102c957600080fd5b506102d2610b77565b6040516102df9190612fe3565b60405180910390f35b3480156102f457600080fd5b506102fd610c43565b60405161030a9190612d92565b60405180910390f35b34801561031f57600080fd5b50610328610c48565b6040516103359190612fe3565b60405180910390f35b34801561034a57600080fd5b50610353610c5f565b6040516103609190612d92565b60405180910390f35b34801561037557600080fd5b5061037e610c64565b60405161038c92919061308e565b60405180910390f35b3480156103a157600080fd5b506103aa610d8b565b6040516103b79190612d92565b60405180910390f35b3480156103cc57600080fd5b506103d5610d96565b6040516103e291906130d4565b60405180910390f35b3480156103f757600080fd5b50610400610dbc565b60405161040d9190612d92565b60405180910390f35b34801561042257600080fd5b5061042b610dc6565b6040516104389190612d92565b60405180910390f35b34801561044d57600080fd5b50610456610dd0565b6040516104639190612d92565b60405180910390f35b34801561047857600080fd5b50610481610e17565b60405161048e91906130d4565b60405180910390f35b3480156104a357600080fd5b506104ac610e3d565b6040516104b9919061310b565b60405180910390f35b3480156104ce57600080fd5b506104d7610e66565b6040516104e491906131e4565b60405180910390f35b3480156104f957600080fd5b50610502610f3b565b60405161050f9190612d92565b60405180910390f35b34801561052457600080fd5b5061052d610f48565b60405161053a9190612d92565b60405180910390f35b34801561054f57600080fd5b50610558610f4e565b005b34801561056657600080fd5b50610581600480360381019061057c9190613206565b610f62565b60405161058e9190613396565b60405180910390f35b3480156105a357600080fd5b506105be60048036038101906105b99190613464565b611113565b005b3480156105cc57600080fd5b506105d561133f565b6040516105e2919061355c565b60405180910390f35b3480156105f757600080fd5b50610600611356565b60405161060d91906130d4565b60405180910390f35b34801561062257600080fd5b5061062b61137c565b005b34801561063957600080fd5b50610642611427565b60405161064f91906130d4565b60405180910390f35b34801561066457600080fd5b5061067f600480360381019061067a9190613206565b611450565b60405161068c91906131e4565b60405180910390f35b3480156106a157600080fd5b506106aa6114fd565b6040516106b79190612d92565b60405180910390f35b3480156106cc57600080fd5b506106d5611503565b6040516106e29190612d92565b60405180910390f35b3480156106f757600080fd5b50610700611510565b005b34801561070e57600080fd5b50610717611597565b005b610733600480360381019061072e91906135a3565b611884565b005b34801561074157600080fd5b5061075c600480360381019061075791906135e3565b611ac6565b005b34801561076a57600080fd5b5061078560048036038101906107809190613664565b611d26565b005b34801561079357600080fd5b5061079c611da9565b6040516107a991906137c2565b60405180910390f35b3480156107be57600080fd5b506107c7611ed2565b6040516107d49190612d92565b60405180910390f35b3480156107e957600080fd5b5061080460048036038101906107ff9190613870565b611edc565b005b34801561081257600080fd5b5061081b612115565b60405161082891906139e9565b60405180910390f35b34801561083d57600080fd5b506108466122e9565b6040516108539190612d92565b60405180910390f35b6000600454905090565b61086e6122f3565b60006005811115610882576108816134e5565b5b600d60009054906101000a900460ff1660058111156108a4576108a36134e5565b5b146108e4576040517f08c379a00000000000000000000000000000000000000000000000000000000081526004016108db90613a57565b60405180910390fd5b6000600a54600b546108f69190613aa6565b9050600360009054906101000a900473ffffffffffffffffffffffffffffffffffffffff1673ffffffffffffffffffffffffffffffffffffffff1663b46411c38230600b54600a546040518563ffffffff1660e01b815260040161095c93929190613ada565b6000604051808303818588803b15801561097557600080fd5b505af1158015610989573d6000803e3d6000fd5b50505050506001600d60006101000a81548160ff021916908360058111156109b4576109b36134e5565b5b02179055507f20f7c135505514c16ee7e30eb8127c87b82a910a6b28e61ad0feb1a77473f4fe600060016040516109ec929190613b11565b60405180910390a150565b6000600954905090565b601160009054906101000a900460ff1615610a51576040517f08c379a0000000000000000000000000000000000000000000000000000000008152600401610a4890613bac565b60405180910390fd5b6001601160006101000a81548160ff0219169083151502179055507f000000000000000000000000000000000000000000000000000000000000000073ffffffffffffffffffffffffffffffffffffffff16610aab612371565b73ffffffffffffffffffffffffffffffffffffffff1614610b01576040517f08c379a0000000000000000000000000000000000000000000000000000000008152600401610af890613c3e565b60405180910390fd5b6103e8871115610b46576040517f08c379a0000000000000000000000000000000000000000000000000000000008152600401610b3d90613caa565b60405180910390fd5b610b4f8b612379565b610b618a8a8a8a8a8a8a8a8a8a6123f4565b610b6a34612615565b5050505050505050505050565b6000604051602001610b8890613d47565b60405160208183030381529060405280519060200120600260009054906101000a900473ffffffffffffffffffffffffffffffffffffffff1673ffffffffffffffffffffffffffffffffffffffff1663384d405b6008336040518363ffffffff1660e01b8152600401610bfc929190613e55565b602060405180830381865afa158015610c19573d6000803e3d6000fd5b505050506040513d601f19601f82011682018060405250810190610c3d9190613e9a565b14905090565b600a81565b6000600d60019054906101000a900460ff16905090565b603281565b60608060066007818054610c7790613d8b565b80601f0160208091040260200160405190810160405280929190818152602001828054610ca390613d8b565b8015610cf05780601f10610cc557610100808354040283529160200191610cf0565b820191906000526020600020905b815481529060010190602001808311610cd357829003601f168201915b50505050509150808054610d0390613d8b565b80601f0160208091040260200160405190810160405280929190818152602001828054610d2f90613d8b565b8015610d7c5780601f10610d5157610100808354040283529160200191610d7c565b820191906000526020600020905b815481529060010190602001808311610d5f57829003601f168201915b50505050509050915091509091565b66b1a2bc2ec5000081565b600360009054906101000a900473ffffffffffffffffffffffffffffffffffffffff1681565b655af3107a400081565b6000600c54905090565b6000600e60003373ffffffffffffffffffffffffffffffffffffffff1673ffffffffffffffffffffffffffffffffffffffff16815260200190815260200160002054905090565b600260009054906101000a900473ffffffffffffffffffffffffffffffffffffffff1681565b6000600d60009054906101000a900460ff166005811115610e6157610e606134e5565b5b905090565b6060610e706122f3565b600580811115610e8357610e826134e5565b5b600d60009054906101000a900460ff166005811115610ea557610ea46134e5565b5b14610ee5576040517f08c379a0000000000000000000000000000000000000000000000000000000008152600401610edc90613f13565b60405180910390fd5b6010805480602002602001604051908101604052809291908181526020018280548015610f3157602002820191906000526020600020905b815481526020019060010190808311610f1d575b5050505050905090565b6000601080549050905090565b6103e881565b610f566122f3565b610f60600061271f565b565b610f6a612c7e565b600f8281548110610f7e57610f7d613f33565b5b906000526020600020906003020160405180606001604052908160008201548152602001600182018054610fb190613d8b565b80601f0160208091040260200160405190810160405280929190818152602001828054610fdd90613d8b565b801561102a5780601f10610fff5761010080835404028352916020019161102a565b820191906000526020600020905b81548152906001019060200180831161100d57829003601f168201915b5050505050815260200160028201805480602002602001604051908101604052809291908181526020016000905b8282101561110457838290600052602060002001805461107790613d8b565b80601f01602080910402602001604051908101604052809291908181526020018280546110a390613d8b565b80156110f05780601f106110c5576101008083540402835291602001916110f0565b820191906000526020600020905b8154815290600101906020018083116110d357829003601f168201915b505050505081526020019060010190611058565b50505050815250509050919050565b61111b6122f3565b818190508484905014611163576040517f08c379a000000000000000000000000000000000000000000000000000000000815260040161115a90613fae565b60405180910390fd5b600060055490506000600f905060005b868690508110156112ea57611186612c7e565b838160000181815250508787838181106111a3576111a2613f33565b5b90506020028101906111b59190613fdd565b8080601f016020809104026020016040519081016040528093929190818152602001838380828437600081840152601f19601f82011690508083019250505050505050816020018190525085858381811061121357611212613f33565b5b90506020028101906112259190614040565b906112309190614286565b816040018190525085858381811061124b5761124a613f33565b5b905060200281019061125d9190614040565b90508461126a9190613aa6565b9350828190806001815401808255809150506001900390600052602060002090600302016000909190919091506000820151816000015560208201518160010190816112b69190614432565b5060408201518160020190805190602001906112d3929190612c9f565b5050505080806112e290614504565b915050611173565b50816005819055507fbf7e450152e82a72724b6c2028c2955b2294c0579262526315aa44919e2be9c586869050600f8054905060055460405161132f9392919061454c565b60405180910390a1505050505050565b6000600d60009054906101000a900460ff16905090565b600160009054906101000a900473ffffffffffffffffffffffffffffffffffffffff1681565b6113846122f3565b60046005811115611398576113976134e5565b5b600d60009054906101000a900460ff1660058111156113ba576113b96134e5565b5b146113fa576040517f08c379a00000000000000000000000000000000000000000000000000000000081526004016113f1906145cf565b60405180910390fd5b6005600d60006101000a81548160ff021916908360058111156114205761141f6134e5565b5b0217905550565b60008060009054906101000a900473ffffffffffffffffffffffffffffffffffffffff16905090565b606061145a6122f3565b60058081111561146d5761146c6134e5565b5b600d60009054906101000a900460ff16600581111561148f5761148e6134e5565b5b146114cf576040517f08c379a00000000000000000000000000000000000000000000000000000000081526004016114c690613f13565b60405180910390fd5b6114f6601083815481106114e6576114e5613f33565b5b90600052602060002001546127e3565b9050919050565b61010081565b6000600f80549050905090565b6115186122f3565b60058081111561152b5761152a6134e5565b5b600d60009054906101000a900460ff16600581111561154d5761154c6134e5565b5b1461158d576040517f08c379a00000000000000000000000000000000000000000000000000000000081526004016115849061463b565b60405180910390fd5b61159561289f565b565b6005808111156115aa576115a96134e5565b5b600d60009054906101000a900460ff1660058111156115cc576115cb6134e5565b5b1461160c576040517f08c379a000000000000000000000000000000000000000000000000000000000815260040161160390613f13565b60405180910390fd5b6000600e60003373ffffffffffffffffffffffffffffffffffffffff1673ffffffffffffffffffffffffffffffffffffffff168152602001908152602001600020540361168e576040517f08c379a0000000000000000000000000000000000000000000000000000000008152600401611685906146a7565b60405180910390fd5b600e60003373ffffffffffffffffffffffffffffffffffffffff1673ffffffffffffffffffffffffffffffffffffffff168152602001908152602001600020546009541015611712576040517f08c379a000000000000000000000000000000000000000000000000000000000815260040161170990614713565b60405180910390fd5b6000600e60003373ffffffffffffffffffffffffffffffffffffffff1673ffffffffffffffffffffffffffffffffffffffff1681526020019081526020016000205490506000600e60003373ffffffffffffffffffffffffffffffffffffffff1673ffffffffffffffffffffffffffffffffffffffff1681526020019081526020016000208190555060003373ffffffffffffffffffffffffffffffffffffffff16826040516117c190614764565b60006040518083038185875af1925050503d80600081146117fe576040519150601f19603f3d011682016040523d82523d6000602084013e611803565b606091505b5050905080611847576040517f08c379a000000000000000000000000000000000000000000000000000000000815260040161183e906147c5565b60405180910390fd5b7fbb23de5c4d0ac7c049b292881397f32ddab597aebe0859c2baf41548d5c20c373383604051611878929190614831565b60405180910390a15050565b600160009054906101000a900473ffffffffffffffffffffffffffffffffffffffff1673ffffffffffffffffffffffffffffffffffffffff163373ffffffffffffffffffffffffffffffffffffffff1614611914576040517f08c379a000000000000000000000000000000000000000000000000000000000815260040161190b906148b9565b60405180910390fd5b60016005811115611928576119276134e5565b5b600d60009054906101000a900460ff16600581111561194a576119496134e5565b5b1461198a576040517f08c379a000000000000000000000000000000000000000000000000000000000815260040161198190614925565b60405180910390fd5b3073ffffffffffffffffffffffffffffffffffffffff168273ffffffffffffffffffffffffffffffffffffffff16146119f8576040517f08c379a00000000000000000000000000000000000000000000000000000000081526004016119ef90614991565b60405180910390fd5b8080611a065750600a543410155b611a45576040517f08c379a0000000000000000000000000000000000000000000000000000000008152600401611a3c906149fd565b60405180910390fd5b8015611a7b576004600d60006101000a81548160ff02191690836005811115611a7157611a706134e5565b5b0217905550611ac2565b6001600d60016101000a81548160ff0219169083151502179055506005600d60006101000a81548160ff02191690836005811115611abc57611abb6134e5565b5b02179055505b5050565b611ace6122f3565b60006005811115611ae257611ae16134e5565b5b600d60009054906101000a900460ff166005811115611b0457611b036134e5565b5b14611b44576040517f08c379a0000000000000000000000000000000000000000000000000000000008152600401611b3b90613a57565b60405180910390fd5b600a828290501115611b8b576040517f08c379a0000000000000000000000000000000000000000000000000000000008152600401611b8290614a69565b60405180910390fd5b603282829050600554611b9e9190613aa6565b1115611bdf576040517f08c379a0000000000000000000000000000000000000000000000000000000008152600401611bd690614ad5565b60405180910390fd5b611be7612c7e565b60055481600001818152505084848080601f016020809104026020016040519081016040528093929190818152602001838380828437600081840152601f19601f820116905080830192505050505050508160200181905250828290611c4d9190614286565b81604001819052508282905060056000828254611c6a9190613aa6565b92505081905550600f819080600181540180825580915050600190039060005260206000209060030201600090919091909150600082015181600001556020820151816001019081611cbc9190614432565b506040820151816002019080519060200190611cd9929190612c9f565b5050507fbf7e450152e82a72724b6c2028c2955b2294c0579262526315aa44919e2be9c56001600f80549050600554604051611d1793929190614b30565b60405180910390a15050505050565b611d2e6122f3565b600073ffffffffffffffffffffffffffffffffffffffff168173ffffffffffffffffffffffffffffffffffffffff1603611d9d576040517f08c379a0000000000000000000000000000000000000000000000000000000008152600401611d9490614bd9565b60405180910390fd5b611da68161271f565b50565b6060611db36122f3565b600580811115611dc657611dc56134e5565b5b600d60009054906101000a900460ff166005811115611de857611de76134e5565b5b14611e28576040517f08c379a0000000000000000000000000000000000000000000000000000000008152600401611e1f90613f13565b60405180910390fd5b6000601080549050905060008167ffffffffffffffff811115611e4e57611e4d6140a3565b5b604051908082528060200260200182016040528015611e8157816020015b6060815260200190600190039081611e6c5790505b50905060005b82811015611ec957611e9881611450565b828281518110611eab57611eaa613f33565b5b60200260200101819052508080611ec190614504565b915050611e87565b50809250505090565b6000600a54905090565b60046005811115611ef057611eef6134e5565b5b600d60009054906101000a900460ff166005811115611f1257611f116134e5565b5b14611f52576040517f08c379a0000000000000000000000000000000000000000000000000000000008152600401611f49906145cf565b60405180910390fd5b6000600e60003373ffffffffffffffffffffffffffffffffffffffff1673ffffffffffffffffffffffffffffffffffffffff1681526020019081526020016000205414611fd4576040517f08c379a0000000000000000000000000000000000000000000000000000000008152600401611fcb90614c45565b60405180910390fd5b60055483839050111561201c576040517f08c379a000000000000000000000000000000000000000000000000000000000815260040161201390614cb1565b60405180910390fd5b612024610b77565b612063576040517f08c379a000000000000000000000000000000000000000000000000000000000815260040161205a90614d1d565b60405180910390fd5b60055483836001868690506120789190614d3d565b81811061208857612087613f33565b5b90506020020135106120cf576040517f08c379a00000000000000000000000000000000000000000000000000000000081526004016120c690614dbd565b60405180910390fd5b60006120db8484612a29565b9050601081908060018154018082558091505060019003906000526020600020016000909190919091505561210f33612b06565b50505050565b6060600f805480602002602001604051908101604052809291908181526020016000905b828210156122e057838290600052602060002090600302016040518060600160405290816000820154815260200160018201805461217690613d8b565b80601f01602080910402602001604051908101604052809291908181526020018280546121a290613d8b565b80156121ef5780601f106121c4576101008083540402835291602001916121ef565b820191906000526020600020905b8154815290600101906020018083116121d257829003601f168201915b5050505050815260200160028201805480602002602001604051908101604052809291908181526020016000905b828210156122c957838290600052602060002001805461223c90613d8b565b80601f016020809104026020016040519081016040528092919081815260200182805461226890613d8b565b80156122b55780601f1061228a576101008083540402835291602001916122b5565b820191906000526020600020905b81548152906001019060200180831161229857829003601f168201915b50505050508152602001906001019061221d565b505050508152505081526020019060010190612139565b50505050905090565b6000600b54905090565b6122fb612371565b73ffffffffffffffffffffffffffffffffffffffff16612319611427565b73ffffffffffffffffffffffffffffffffffffffff161461236f576040517f08c379a000000000000000000000000000000000000000000000000000000000815260040161236690614e29565b60405180910390fd5b565b600033905090565b600073ffffffffffffffffffffffffffffffffffffffff168173ffffffffffffffffffffffffffffffffffffffff16036123e8576040517f08c379a00000000000000000000000000000000000000000000000000000000081526004016123df90614bd9565b60405180910390fd5b6123f18161271f565b50565b60008711612437576040517f08c379a000000000000000000000000000000000000000000000000000000000815260040161242e90614ebb565b60405180910390fd5b6000868690501161247d576040517f08c379a000000000000000000000000000000000000000000000000000000000815260040161247490614f27565b60405180910390fd5b600084849050116124c3576040517f08c379a00000000000000000000000000000000000000000000000000000000081526004016124ba90614fb9565b60405180910390fd5b60008282905011612509576040517f08c379a00000000000000000000000000000000000000000000000000000000081526004016125009061504b565b60405180910390fd5b86600481905550858560069182612521929190615076565b50838360079182612533929190615076565b50818160089182612545929190615076565b5089600160006101000a81548173ffffffffffffffffffffffffffffffffffffffff021916908373ffffffffffffffffffffffffffffffffffffffff16021790555088600260006101000a81548173ffffffffffffffffffffffffffffffffffffffff021916908373ffffffffffffffffffffffffffffffffffffffff16021790555087600360006101000a81548173ffffffffffffffffffffffffffffffffffffffff021916908373ffffffffffffffffffffffffffffffffffffffff16021790555050505050505050505050565b600454655af3107a40006126299190615146565b66b1a2bc2ec5000061263b9190613aa6565b81101561267d576040517f08c379a0000000000000000000000000000000000000000000000000000000008152600401612674906151fa565b60405180910390fd5b806009819055506064600a826126939190615146565b61269d9190615249565b600a819055506064600a826126b29190615146565b6126bc9190615249565b600b819055506000600b54600a54836126d59190614d3d565b6126df9190614d3d565b9050600454816126ef919061527a565b600a60008282546127009190613aa6565b92505081905550600454816127159190615249565b600c819055505050565b60008060009054906101000a900473ffffffffffffffffffffffffffffffffffffffff169050816000806101000a81548173ffffffffffffffffffffffffffffffffffffffff021916908373ffffffffffffffffffffffffffffffffffffffff1602179055508173ffffffffffffffffffffffffffffffffffffffff168173ffffffffffffffffffffffffffffffffffffffff167f8be0079c531659141344cd1fd0a4f28419497f9722a3daafe3b4186f6b6457e060405160405180910390a35050565b606060006127f083612c45565b905060008167ffffffffffffffff81111561280e5761280d6140a3565b5b60405190808252806020026020018201604052801561283c5781602001602082028036833780820191505090505b5090506000805b610100811015612893576000816001901b871614612888578083838151811061286f5761286e613f33565b5b6020026020010181815250508161288590614504565b91505b806001019050612843565b50819350505050919050565b6128a76122f3565b6000600954116128ec576040517f08c379a00000000000000000000000000000000000000000000000000000000081526004016128e3906149fd565b60405180910390fd5b476009541115612931576040517f08c379a000000000000000000000000000000000000000000000000000000000815260040161292890614713565b60405180910390fd5b60006009549050600060098190555060003373ffffffffffffffffffffffffffffffffffffffff168260405161296690614764565b60006040518083038185875af1925050503d80600081146129a3576040519150601f19603f3d011682016040523d82523d6000602084013e6129a8565b606091505b50509050806129ec576040517f08c379a00000000000000000000000000000000000000000000000000000000081526004016129e3906152f7565b60405180910390fd5b7fbb23de5c4d0ac7c049b292881397f32ddab597aebe0859c2baf41548d5c20c373383604051612a1d929190615363565b60405180910390a15050565b600080838390509050610100811115612a77576040517f08c379a0000000000000000000000000000000000000000000000000000000008152600401612a6e906153eb565b60405180910390fd5b60008060005b83811015612af957868682818110612a9857612a97613f33565b5b90506020020135925060ff831115612ae5576040517f08c379a0000000000000000000000000000000000000000000000000000000008152600401612adc90615457565b60405180910390fd5b826001901b82179150806001019050612a7d565b5080935050505092915050565b6000600e60008373ffffffffffffffffffffffffffffffffffffffff1673ffffffffffffffffffffffffffffffffffffffff1681526020019081526020016000205414612b88576040517f08c379a0000000000000000000000000000000000000000000000000000000008152600401612b7f906154c3565b60405180910390fd5b600c546009541015612bcf576040517f08c379a0000000000000000000000000000000000000000000000000000000008152600401612bc690614713565b60405180910390fd5b600c5460096000828254612be39190614d3d565b92505081905550600c54600e60008373ffffffffffffffffffffffffffffffffffffffff1673ffffffffffffffffffffffffffffffffffffffff1681526020019081526020016000206000828254612c3b9190613aa6565b9250508190555050565b60008060008390505b6000811115612c74576001811682612c669190613aa6565b9150600181901c9050612c4e565b8192505050919050565b60405180606001604052806000815260200160608152602001606081525090565b828054828255906000526020600020908101928215612ce7579160200282015b82811115612ce6578251829081612cd69190614432565b5091602001919060010190612cbf565b5b509050612cf49190612cf8565b5090565b5b80821115612d185760008181612d0f9190612d1c565b50600101612cf9565b5090565b508054612d2890613d8b565b6000825580601f10612d3a5750612d59565b601f016020900490600052602060002090810190612d589190612d5c565b5b50565b5b80821115612d75576000816000905550600101612d5d565b5090565b6000819050919050565b612d8c81612d79565b82525050565b6000602082019050612da76000830184612d83565b92915050565b6000604051905090565b600080fd5b600080fd5b600073ffffffffffffffffffffffffffffffffffffffff82169050919050565b6000612dec82612dc1565b9050919050565b612dfc81612de1565b8114612e0757600080fd5b50565b600081359050612e1981612df3565b92915050565b612e2881612d79565b8114612e3357600080fd5b50565b600081359050612e4581612e1f565b92915050565b600080fd5b600080fd5b600080fd5b60008083601f840112612e7057612e6f612e4b565b5b8235905067ffffffffffffffff811115612e8d57612e8c612e50565b5b602083019150836001820283011115612ea957612ea8612e55565b5b9250929050565b60008060008060008060008060008060006101008c8e031215612ed657612ed5612db7565b5b6000612ee48e828f01612e0a565b9b50506020612ef58e828f01612e0a565b9a50506040612f068e828f01612e0a565b9950506060612f178e828f01612e0a565b9850506080612f288e828f01612e36565b97505060a08c013567ffffffffffffffff811115612f4957612f48612dbc565b5b612f558e828f01612e5a565b965096505060c08c013567ffffffffffffffff811115612f7857612f77612dbc565b5b612f848e828f01612e5a565b945094505060e08c013567ffffffffffffffff811115612fa757612fa6612dbc565b5b612fb38e828f01612e5a565b92509250509295989b509295989b9093969950565b60008115159050919050565b612fdd81612fc8565b82525050565b6000602082019050612ff86000830184612fd4565b92915050565b600081519050919050565b600082825260208201905092915050565b60005b8381101561303857808201518184015260208101905061301d565b60008484015250505050565b6000601f19601f8301169050919050565b600061306082612ffe565b61306a8185613009565b935061307a81856020860161301a565b61308381613044565b840191505092915050565b600060408201905081810360008301526130a88185613055565b905081810360208301526130bc8184613055565b90509392505050565b6130ce81612de1565b82525050565b60006020820190506130e960008301846130c5565b92915050565b600060ff82169050919050565b613105816130ef565b82525050565b600060208201905061312060008301846130fc565b92915050565b600081519050919050565b600082825260208201905092915050565b6000819050602082019050919050565b61315b81612d79565b82525050565b600061316d8383613152565b60208301905092915050565b6000602082019050919050565b600061319182613126565b61319b8185613131565b93506131a683613142565b8060005b838110156131d75781516131be8882613161565b97506131c983613179565b9250506001810190506131aa565b5085935050505092915050565b600060208201905081810360008301526131fe8184613186565b905092915050565b60006020828403121561321c5761321b612db7565b5b600061322a84828501612e36565b91505092915050565b600082825260208201905092915050565b600061324f82612ffe565b6132598185613233565b935061326981856020860161301a565b61327281613044565b840191505092915050565b600081519050919050565b600082825260208201905092915050565b6000819050602082019050919050565b60006132b58383613244565b905092915050565b6000602082019050919050565b60006132d58261327d565b6132df8185613288565b9350836020820285016132f185613299565b8060005b8581101561332d578484038952815161330e85826132a9565b9450613319836132bd565b925060208a019950506001810190506132f5565b50829750879550505050505092915050565b60006060830160008301516133576000860182613152565b506020830151848203602086015261336f8282613244565b9150506040830151848203604086015261338982826132ca565b9150508091505092915050565b600060208201905081810360008301526133b0818461333f565b905092915050565b60008083601f8401126133ce576133cd612e4b565b5b8235905067ffffffffffffffff8111156133eb576133ea612e50565b5b60208301915083602082028301111561340757613406612e55565b5b9250929050565b60008083601f84011261342457613423612e4b565b5b8235905067ffffffffffffffff81111561344157613440612e50565b5b60208301915083602082028301111561345d5761345c612e55565b5b9250929050565b6000806000806040858703121561347e5761347d612db7565b5b600085013567ffffffffffffffff81111561349c5761349b612dbc565b5b6134a8878288016133b8565b9450945050602085013567ffffffffffffffff8111156134cb576134ca612dbc565b5b6134d78782880161340e565b925092505092959194509250565b7f4e487b7100000000000000000000000000000000000000000000000000000000600052602160045260246000fd5b60068110613525576135246134e5565b5b50565b600081905061353682613514565b919050565b600061354682613528565b9050919050565b6135568161353b565b82525050565b6000602082019050613571600083018461354d565b92915050565b61358081612fc8565b811461358b57600080fd5b50565b60008135905061359d81613577565b92915050565b600080604083850312156135ba576135b9612db7565b5b60006135c885828601612e0a565b92505060206135d98582860161358e565b9150509250929050565b600080600080604085870312156135fd576135fc612db7565b5b600085013567ffffffffffffffff81111561361b5761361a612dbc565b5b61362787828801612e5a565b9450945050602085013567ffffffffffffffff81111561364a57613649612dbc565b5b613656878288016133b8565b925092505092959194509250565b60006020828403121561367a57613679612db7565b5b600061368884828501612e0a565b91505092915050565b600081519050919050565b600082825260208201905092915050565b6000819050602082019050919050565b600082825260208201905092915050565b60006136d982613126565b6136e381856136bd565b93506136ee83613142565b8060005b8381101561371f5781516137068882613161565b975061371183613179565b9250506001810190506136f2565b5085935050505092915050565b600061373883836136ce565b905092915050565b6000602082019050919050565b600061375882613691565b613762818561369c565b935083602082028501613774856136ad565b8060005b858110156137b05784840389528151613791858261372c565b945061379c83613740565b925060208a01995050600181019050613778565b50829750879550505050505092915050565b600060208201905081810360008301526137dc818461374d565b905092915050565b60008083601f8401126137fa576137f9612e4b565b5b8235905067ffffffffffffffff81111561381757613816612e50565b5b60208301915083602082028301111561383357613832612e55565b5b9250929050565b6000819050919050565b61384d8161383a565b811461385857600080fd5b50565b60008135905061386a81613844565b92915050565b60008060006040848603121561388957613888612db7565b5b600084013567ffffffffffffffff8111156138a7576138a6612dbc565b5b6138b3868287016137e4565b935093505060206138c68682870161385b565b9150509250925092565b600081519050919050565b600082825260208201905092915050565b6000819050602082019050919050565b60006060830160008301516139146000860182613152565b506020830151848203602086015261392c8282613244565b9150506040830151848203604086015261394682826132ca565b9150508091505092915050565b600061395f83836138fc565b905092915050565b6000602082019050919050565b600061397f826138d0565b61398981856138db565b93508360208202850161399b856138ec565b8060005b858110156139d757848403895281516139b88582613953565b94506139c383613967565b925060208a0199505060018101905061399f565b50829750879550505050505092915050565b60006020820190508181036000830152613a038184613974565b905092915050565b7f506f6c6c20616c7265616479207375626d697474656400000000000000000000600082015250565b6000613a41601683613009565b9150613a4c82613a0b565b602082019050919050565b60006020820190508181036000830152613a7081613a34565b9050919050565b7f4e487b7100000000000000000000000000000000000000000000000000000000600052601160045260246000fd5b6000613ab182612d79565b9150613abc83612d79565b9250828201905080821115613ad457613ad3613a77565b5b92915050565b6000606082019050613aef60008301866130c5565b613afc6020830185612d83565b613b096040830184612d83565b949350505050565b6000604082019050613b26600083018561354d565b613b33602083018461354d565b9392505050565b7f4f776e61626c653a206f776e65727368697020697320616c726561647920696e60008201527f697469616c697a65640000000000000000000000000000000000000000000000602082015250565b6000613b96602983613009565b9150613ba182613b3a565b604082019050919050565b60006020820190508181036000830152613bc581613b89565b9050919050565b7f4f776e61626c653a2063616c6c6572206973206e6f742074686520666972737460008201527f206f776e65720000000000000000000000000000000000000000000000000000602082015250565b6000613c28602683613009565b9150613c3382613bcc565b604082019050919050565b60006020820190508181036000830152613c5781613c1b565b9050919050565b7f546f6f206d616e7920726573706f6e64656e7473000000000000000000000000600082015250565b6000613c94601483613009565b9150613c9f82613c5e565b602082019050919050565b60006020820190508181036000830152613cc381613c87565b9050919050565b600081905092915050565b7f4920636c61696d2074686973206164647265737320697320636572746966696560008201527f6400000000000000000000000000000000000000000000000000000000000000602082015250565b6000613d31602183613cca565b9150613d3c82613cd5565b602182019050919050565b6000613d5282613d24565b9150819050919050565b7f4e487b7100000000000000000000000000000000000000000000000000000000600052602260045260246000fd5b60006002820490506001821680613da357607f821691505b602082108103613db657613db5613d5c565b5b50919050565b60008190508160005260206000209050919050565b60008154613dde81613d8b565b613de88186613009565b94506001821660008114613e035760018114613e1957613e4c565b60ff198316865281151560200286019350613e4c565b613e2285613dbc565b60005b83811015613e4457815481890152600182019150602081019050613e25565b808801955050505b50505092915050565b60006040820190508181036000830152613e6f8185613dd1565b9050613e7e60208301846130c5565b9392505050565b600081519050613e9481613844565b92915050565b600060208284031215613eb057613eaf612db7565b5b6000613ebe84828501613e85565b91505092915050565b7f506f6c6c696e67206e6f7420656e646564000000000000000000000000000000600082015250565b6000613efd601183613009565b9150613f0882613ec7565b602082019050919050565b60006020820190508181036000830152613f2c81613ef0565b9050919050565b7f4e487b7100000000000000000000000000000000000000000000000000000000600052603260045260246000fd5b7f417272617973206d7573742068617665207468652073616d65206c656e677468600082015250565b6000613f98602083613009565b9150613fa382613f62565b602082019050919050565b60006020820190508181036000830152613fc781613f8b565b9050919050565b600080fd5b600080fd5b600080fd5b60008083356001602003843603038112613ffa57613ff9613fce565b5b80840192508235915067ffffffffffffffff82111561401c5761401b613fd3565b5b60208301925060018202360383131561403857614037613fd8565b5b509250929050565b6000808335600160200384360303811261405d5761405c613fce565b5b80840192508235915067ffffffffffffffff82111561407f5761407e613fd3565b5b60208301925060208202360383131561409b5761409a613fd8565b5b509250929050565b7f4e487b7100000000000000000000000000000000000000000000000000000000600052604160045260246000fd5b6140db82613044565b810181811067ffffffffffffffff821117156140fa576140f96140a3565b5b80604052505050565b600061410d612dad565b905061411982826140d2565b919050565b600067ffffffffffffffff821115614139576141386140a3565b5b602082029050602081019050919050565b600080fd5b600067ffffffffffffffff82111561416a576141696140a3565b5b61417382613044565b9050602081019050919050565b82818337600083830152505050565b60006141a261419d8461414f565b614103565b9050828152602081018484840111156141be576141bd61414a565b5b6141c9848285614180565b509392505050565b600082601f8301126141e6576141e5612e4b565b5b81356141f684826020860161418f565b91505092915050565b600061421261420d8461411e565b614103565b9050808382526020820190506020840283018581111561423557614234612e55565b5b835b8181101561427c57803567ffffffffffffffff81111561425a57614259612e4b565b5b80860161426789826141d1565b85526020850194505050602081019050614237565b5050509392505050565b60006142933684846141ff565b905092915050565b60006020601f8301049050919050565b600082821b905092915050565b6000600883026142e87fffffffffffffffffffffffffffffffffffffffffffffffffffffffffffffffff826142ab565b6142f286836142ab565b95508019841693508086168417925050509392505050565b6000819050919050565b600061432f61432a61432584612d79565b61430a565b612d79565b9050919050565b6000819050919050565b61434983614314565b61435d61435582614336565b8484546142b8565b825550505050565b600090565b614372614365565b61437d818484614340565b505050565b5b818110156143a15761439660008261436a565b600181019050614383565b5050565b601f8211156143e6576143b781613dbc565b6143c08461429b565b810160208510156143cf578190505b6143e36143db8561429b565b830182614382565b50505b505050565b600082821c905092915050565b6000614409600019846008026143eb565b1980831691505092915050565b600061442283836143f8565b9150826002028217905092915050565b61443b82612ffe565b67ffffffffffffffff811115614454576144536140a3565b5b61445e8254613d8b565b6144698282856143a5565b600060209050601f83116001811461449c576000841561448a578287015190505b6144948582614416565b8655506144fc565b601f1984166144aa86613dbc565b60005b828110156144d2578489015182556001820191506020850194506020810190506144ad565b868310156144ef57848901516144eb601f8916826143f8565b8355505b6001600288020188555050505b505050505050565b600061450f82612d79565b91507fffffffffffffffffffffffffffffffffffffffffffffffffffffffffffffffff820361454157614540613a77565b5b600182019050919050565b60006060820190506145616000830186612d83565b61456e6020830185612d83565b61457b6040830184612d83565b949350505050565b7f506f6c6c696e67206e6f74207374617274656400000000000000000000000000600082015250565b60006145b9601383613009565b91506145c482614583565b602082019050919050565b600060208201905081810360008301526145e8816145ac565b9050919050565b7f506f6c6c20616c72656164792064697374726962757465640000000000000000600082015250565b6000614625601883613009565b9150614630826145ef565b602082019050919050565b6000602082019050818103600083015261465481614618565b9050919050565b7f416c726561647920636c61696d65640000000000000000000000000000000000600082015250565b6000614691600f83613009565b915061469c8261465b565b602082019050919050565b600060208201905081810360008301526146c081614684565b9050919050565b7f4e6f7420656e6f7567682066756e647300000000000000000000000000000000600082015250565b60006146fd601083613009565b9150614708826146c7565b602082019050919050565b6000602082019050818103600083015261472c816146f0565b9050919050565b600081905092915050565b50565b600061474e600083614733565b91506147598261473e565b600082019050919050565b600061476f82614741565b9150819050919050565b7f5472616e73666572206661696c65640000000000000000000000000000000000600082015250565b60006147af600f83613009565b91506147ba82614779565b602082019050919050565b600060208201905081810360008301526147de816147a2565b9050919050565b7f52657761726420636c61696d6564000000000000000000000000000000000000600082015250565b600061481b600e83613009565b9150614826826147e5565b602082019050919050565b600060608201905061484660008301856130c5565b6148536020830184612d83565b81810360408301526148648161480e565b90509392505050565b7f4f6e6c792044414f2063616e2063616c6c20746869732066756e6374696f6e00600082015250565b60006148a3601f83613009565b91506148ae8261486d565b602082019050919050565b600060208201905081810360008301526148d281614896565b9050919050565b7f506f6c6c206e6f74207375626d69747465640000000000000000000000000000600082015250565b600061490f601283613009565b915061491a826148d9565b602082019050919050565b6000602082019050818103600083015261493e81614902565b9050919050565b7f57726f6e6720706f6c6c20616464726573730000000000000000000000000000600082015250565b600061497b601283613009565b915061498682614945565b602082019050919050565b600060208201905081810360008301526149aa8161496e565b9050919050565b7f4e6f2066756e647320746f20726566756e640000000000000000000000000000600082015250565b60006149e7601283613009565b91506149f2826149b1565b602082019050919050565b60006020820190508181036000830152614a16816149da565b9050919050565b7f546f6f206d616e792063686f6963657300000000000000000000000000000000600082015250565b6000614a53601083613009565b9150614a5e82614a1d565b602082019050919050565b60006020820190508181036000830152614a8281614a46565b9050919050565b7f546f6f206d616e7920746f706963730000000000000000000000000000000000600082015250565b6000614abf600f83613009565b9150614aca82614a89565b602082019050919050565b60006020820190508181036000830152614aee81614ab2565b9050919050565b6000819050919050565b6000614b1a614b15614b1084614af5565b61430a565b612d79565b9050919050565b614b2a81614aff565b82525050565b6000606082019050614b456000830186614b21565b614b526020830185612d83565b614b5f6040830184612d83565b949350505050565b7f4f776e61626c653a206e6577206f776e657220697320746865207a65726f206160008201527f6464726573730000000000000000000000000000000000000000000000000000602082015250565b6000614bc3602683613009565b9150614bce82614b67565b604082019050919050565b60006020820190508181036000830152614bf281614bb6565b9050919050565b7f416c726561647920616e73776572656400000000000000000000000000000000600082015250565b6000614c2f601083613009565b9150614c3a82614bf9565b602082019050919050565b60006020820190508181036000830152614c5e81614c22565b9050919050565b7f57726f6e67206e756d626572206f6620616e7377657273000000000000000000600082015250565b6000614c9b601783613009565b9150614ca682614c65565b602082019050919050565b60006020820190508181036000830152614cca81614c8e565b9050919050565b7f4e6f7420656c696769626c650000000000000000000000000000000000000000600082015250565b6000614d07600c83613009565b9150614d1282614cd1565b602082019050919050565b60006020820190508181036000830152614d3681614cfa565b9050919050565b6000614d4882612d79565b9150614d5383612d79565b9250828203905081811115614d6b57614d6a613a77565b5b92915050565b7f416e73776572206f7574206f662072616e676500000000000000000000000000600082015250565b6000614da7601383613009565b9150614db282614d71565b602082019050919050565b60006020820190508181036000830152614dd681614d9a565b9050919050565b7f4f776e61626c653a2063616c6c6572206973206e6f7420746865206f776e6572600082015250565b6000614e13602083613009565b9150614e1e82614ddd565b602082019050919050565b60006020820190508181036000830152614e4281614e06565b9050919050565b7f526573706f6e64656e7473207468726573686f6c64206d75737420626520677260008201527f6561746572207468616e20300000000000000000000000000000000000000000602082015250565b6000614ea5602c83613009565b9150614eb082614e49565b604082019050919050565b60006020820190508181036000830152614ed481614e98565b9050919050565b7f506f6c6c206e616d65206d757374206e6f7420626520656d7074790000000000600082015250565b6000614f11601b83613009565b9150614f1c82614edb565b602082019050919050565b60006020820190508181036000830152614f4081614f04565b9050919050565b7f506f6c6c206465736372697074696f6e206d757374206e6f7420626520656d7060008201527f7479000000000000000000000000000000000000000000000000000000000000602082015250565b6000614fa3602283613009565b9150614fae82614f47565b604082019050919050565b60006020820190508181036000830152614fd281614f96565b9050919050565b7f456c69676962696c697479206372697465726961206d757374206e6f7420626560008201527f20656d7074790000000000000000000000000000000000000000000000000000602082015250565b6000615035602683613009565b915061504082614fd9565b604082019050919050565b6000602082019050818103600083015261506481615028565b9050919050565b600082905092915050565b615080838361506b565b67ffffffffffffffff811115615099576150986140a3565b5b6150a38254613d8b565b6150ae8282856143a5565b6000601f8311600181146150dd57600084156150cb578287013590505b6150d58582614416565b86555061513d565b601f1984166150eb86613dbc565b60005b82811015615113578489013582556001820191506020850194506020810190506150ee565b86831015615130578489013561512c601f8916826143f8565b8355505b6001600288020188555050505b50505050505050565b600061515182612d79565b915061515c83612d79565b925082820261516a81612d79565b9150828204841483151761518157615180613a77565b5b5092915050565b7f46756e647320696e666572696f7220746f20706f6c6c206d696e696d756d206360008201527f6f73740000000000000000000000000000000000000000000000000000000000602082015250565b60006151e4602383613009565b91506151ef82615188565b604082019050919050565b60006020820190508181036000830152615213816151d7565b9050919050565b7f4e487b7100000000000000000000000000000000000000000000000000000000600052601260045260246000fd5b600061525482612d79565b915061525f83612d79565b92508261526f5761526e61521a565b5b828204905092915050565b600061528582612d79565b915061529083612d79565b9250826152a05761529f61521a565b5b828206905092915050565b7f526566756e64206661696c656400000000000000000000000000000000000000600082015250565b60006152e1600d83613009565b91506152ec826152ab565b602082019050919050565b60006020820190508181036000830152615310816152d4565b9050919050565b7f526566756e6420746f206f776e65720000000000000000000000000000000000600082015250565b600061534d600f83613009565b915061535882615317565b602082019050919050565b600060608201905061537860008301856130c5565b6153856020830184612d83565b818103604083015261539681615340565b90509392505050565b7f546f6f206d616e79206269747320746f207365742e0000000000000000000000600082015250565b60006153d5601583613009565b91506153e08261539f565b602082019050919050565b60006020820190508181036000830152615404816153c8565b9050919050565b7f42697420746f20736574206f7574206f662072616e67652e0000000000000000600082015250565b6000615441601883613009565b915061544c8261540b565b602082019050919050565b6000602082019050818103600083015261547081615434565b9050919050565b7f416c726561647920757064617465640000000000000000000000000000000000600082015250565b60006154ad600f83613009565b91506154b882615477565b602082019050919050565b600060208201905081810360008301526154dc816154a0565b905091905056fea264697066735822122060e18d16a05daefb1de5a48141c309f22b91c3b6e24ca04716dbabba298add5364736f6c63430008130033",
  "immutableReferences": {
    "4098": [
      {
        "length": 32,
        "start": 2670
      }
    ]
  },
  "source": "// SPDX-License-Identifier: MIT\n\npragma solidity 0.8.19;\n\n/*\n * In the purpose of this exam, the functionalities are limited to the minimum (to respect delay)\n *\n * this contract :\n * -init a poll (someone wishing to create a poll must become a DAO member before... it avoid spamming)\n *\n * -it should be sumbitted to the DAO for validation (sending the funds to pay validators and DAO)\n *\n * -after validation, the poll can be started (if poll is not validated the DAO resend the funds to the owner less the validators fees, owner should claim it back later)\n *\n * -the poll can be answered by any eligible respondents\n *\n * -in the context of this MVP eligbility is simulated by a fake certifier contract (see Certifier.sol) so all respondent are eligible\n *\n * -the number of respondents is limited to a maximum for the first version\n *\n * -TO FACILITATE TEST AND LIVE DEMO during the exam : all time limits are removed (duration, delay, timestampLimit) and so not implemented\n *\n * -Amount here are in wei and set to facilitate tests and live demo and the testnet if needed (0.05 ether + 0.001 ether * number of respondents)\n *\n *--------------------------------------------------------------------------------------------------------\n * Deviation from the scope of application :\n *\n * - in case of a poll end without the required number of respondents, the respondents can claim their rewards (otherwise a malicious poll creator could\n * set a very big required number of respondents to avoid paying them as it will not be reached, but he could read the memory of the contract to get the answers before the end\n * to have a competitive advantage as only the validators will be paid)\n *\n * - a minimum amount is set to avoid a poll with a very low amount with : 0.05 ether + 0.0001 ether * number of respondents\n *\n *--------------------------------------------------------------------------------------------------------\n * @todo :\n * -case of a more targeted survey : \n * + add a 'withWhitelist' option and a merkle tree management to set a batch of respondents\n * + this option will skip the eligibility check\n *\n * -manage big poll with pagination (or splitting the poll in multiple clones) to avoid gas limit DoS attack\n * + it implies calculating and testing functions to find the more flexible and secure solution to manage different scenario (more topics, more respondents, more choices, more answers...)\n *\n * -add a reset process to allow a new poll with the same contract in case of unvalid poll (manage the new payment to validators for this case)\n *\n * -make the amount states, percentage to pay ... customizable (to let the DAO update these params with proposals)\n *\n * -add an incentive to respond in time (use root square to decrease the reward with time ?)\n *\n * -function to end the poll... without modifier to let access later to bots to perform actions (incentives could be added to run poll automatically)\n * need reenabling reuire with delay and number of answers \n *\n * -automisation of the workflow will be enabled with pollValidated process, the above modification and associated events\n */\n\n\n/**\n@title PollMaster\n@author ibourn\n@notice This contract allows to initialize a poll, and after validation, to respond to it. It also allows to manage ownership of clones \n@notice results are not not cumulative but separate, as the owner could want to do a cross-data analysis\n@notice addresses are not linked directly to answers\n@dev The contract inherits from PollUser (and so from PollAdmin, PollView, PollStorage, Ownable)\n@inheritdoc Ownable\n */\n\nimport \"./PollUser.sol\";\n\n\ncontract PollMaster is PollUser {\n    /**\n    @dev states used to manage master and clones ownership. FirstOwner must be the factory as it creates clones\n    */\n    address private immutable firstOwner;\n    /**\n    @dev it's important that value is false (even if false is the default value, i set it for clear code reading)\n    */\n    bool private initizalized = false;\n\n\n   /**\n    @notice transfer ownership of PollMaster and set the factory as 'firstOwner' \n    */\n    constructor(address _factory) {\n        _transferOwnership(_msgSender());\n        firstOwner = _factory;\n    }\n\n     /**\n    @notice manages the ownership of clones \n    - This action is needed to avoid : clone owner == address(0) and ownhership theft vulnerability \n    - as there's no constructor in clone we must call an init function at creation.\n    - it will check that clone is not initialized and that caller (msg.sender) is the factory (firstOwner) to allow\n    transferOfOwnership to the admin (_newOwner)\n    */\n    function initialize(\n        address _newOwner, \n        address _DAOaddress,\n        address _certifierAddress,\n        address _validatorAddress,\n        // uint _duration,\n        uint _requiredResponseCount,\n        string calldata _pollName,\n        string calldata _pollDescription,\n        string calldata _eligibilityCriteria\n        ) \n        external\n        payable\n        {\n        require(!initizalized, \"Ownable: ownership is already initialized\");\n        initizalized = true;\n        require(_msgSender() == firstOwner, \"Ownable: caller is not the first owner\");\n        require(_requiredResponseCount <= MAX_RESPONDENTS_LENGTH, 'Too many respondents');\n\n        _initializeOwnership(_newOwner);\n        _initializeSettings(_DAOaddress, _certifierAddress, _validatorAddress, _requiredResponseCount, _pollName, _pollDescription, _eligibilityCriteria);\n        _initializeAmounts(msg.value);\n    }\n\n    /**\n    @dev clone is initialized and ownership set, we can transfer it to newOwner (should be admin address)\n    */\n    function _initializeOwnership(address newOwner) private {\n        require(newOwner != address(0), \"Ownable: new owner is the zero address\");\n\n        _transferOwnership(newOwner);\n    }\n\n   /*\n    function _initialize private onlyOwner {\n        not necessary as it's done at initialization and funciton is private\n        */\n    /**\n    @dev set general settings with the params passed by the factory to the initialize function\n     */\n    function _initializeSettings(\n        address _DAOaddress,\n        address _certifierAddress,\n        address _validatorAddress,\n        // uint _duration,\n        uint _requiredResponseCount,\n        string calldata _pollName,\n        string calldata _pollDescription,\n        string calldata _eligibilityCriteria\n        ) private {\n        // require(pollStatus == PollStatus.PollInitialized, 'Poll already initialized');\n        // require(_duration > 0, 'Duration must be greater than 0');\n        require(_requiredResponseCount > 0, 'Respondents threshold must be greater than 0');\n        require(bytes(_pollName).length > 0, 'Poll name must not be empty');\n        require(bytes(_pollDescription).length > 0, 'Poll description must not be empty');\n        require(bytes(_eligibilityCriteria).length > 0, 'Eligibility criteria must not be empty');\n        // duration = _duration;\n        requiredResponseCount = _requiredResponseCount;\n        // pollStatus = PollStatus.PollInitialized;\n        pollName = _pollName;\n        pollDescription = _pollDescription;\n        eligibilityCriteria = _eligibilityCriteria;\n\n        DAOaddress = _DAOaddress;\n        certifierAddress = _certifierAddress;\n        validatorAddress = _validatorAddress;\n    }  \n\n    /*\n    function _initializeAmounts(uint _amountSent) private onlyOwner {\n        not necessary as it's done at initialization and funciton is private\n        */\n    /**\n    @dev set amounts settings with the params passed by the factory to initialize function\n     */\n    function _initializeAmounts(uint _amountSent) private  {\n        // require(pollStatus == PollStatus.PollInitialized, 'Poll already distributed');\n        require(_amountSent >= (MIN_POLL_AMOUNT + (MIN_RESPONDENT_AMOUNT * requiredResponseCount)), 'Funds inferior to poll minimum cost');\n\n        balance = _amountSent;    \n        amountToDAO = _amountSent * PERCENTAGE_TO_DAO / 100;\n        amountToValidators = _amountSent * PERCENTAGE_TO_VALIDATORS / 100;\n    \n        uint balanceToUsers = _amountSent - amountToDAO - amountToValidators;\n        amountToDAO += balanceToUsers % requiredResponseCount;\n        amountToRespondent = balanceToUsers / requiredResponseCount; //cast to uint \n    }\n}   ",
  "sourcePath": "/home/ibournubuntu/ALYRA/PROJET_FINAL/DPoll/truffle/contracts/PollMaster.sol",
  "compiler": {
    "name": "solc",
    "version": "0.8.19+commit.7dd6d404.Emscripten.clang"
  },
  "schemaVersion": "3.4.14",
  "updatedAt": "2023-07-26T01:38:39.148Z",
  "networkType": "ethereum",
  "devdoc": {
    "kind": "dev",
    "methods": {
      "addAnswer(uint256[],bytes32)": {
        "details": "it update the balance of the respondent to allow him to claim the rewardindex of choices start from 0 and should be ordered as the choices in the topics in order to revert earlier in case of invalid answer (function in helpers will revert later if not)",
        "params": {
          "_chosenChoices": "is an array of uint representing the index of the choices chosen by the respondent (in the order of the all choices and starting from 0)"
        }
      },
      "addTopic(string,string[])": {
        "details": "the choices are an array of string",
        "params": {
          "_choices": "is an array of string representing the choices of the topic",
          "_question": "is the question of the topic"
        }
      },
      "addTopicsBatch(string[],string[][])": {
        "details": "structure of choice : [topic choices][topics] / read/write : a.[topic n][choice n] / lenght : a.length == topics.length",
        "params": {
          "_choices": "is an array of array of string representing the choices of the topics",
          "_questions": "is an array of string representing the questions of the topics"
        }
      },
      "claimReward()": {
        "details": "it send the reward to the respondent"
      },
      "endPoll()": {
        "details": "LATER : delay and number of answers will allow to set requirements to end the Poll by everybody (not only the owner), with incentives to automate the process"
      },
      "getPackedAnswers()": {
        "details": "answers are packed so each answer is a uint flagging the choices of the respondent",
        "returns": {
          "_0": "answers is an array of uint representing the answers of the poll"
        }
      },
      "getSelectedChoicesByAnswer(uint256)": {
        "details": "one answer is a uint256 where each bit represent an available choice : 1 is selected, 0 is not selected",
        "params": {
          "_answerId": "is the index of the answer in the answers array"
        },
        "returns": {
          "_0": "an array of uint representing the selected choices of the respondent (in the order of all choices in topics)"
        }
      },
      "getUnpackedAnswers()": {
        "details": "answers are unpacked so each result is the index of a choice selected by a respondentcall getSelectedChoicesByAnswer() to get the selected choices of a respondentuse answers.length to get the number of respondents",
        "returns": {
          "_0": "an array of all respondets answers as an array of uint corresponding to the index of the choices selected by the respondent (reading :[choices][respondents])"
        }
      },
      "owner()": {
        "details": "Returns the address of the current owner."
      },
      "renounceOwnership()": {
        "details": "Leaves the contract without owner. It will not be possible to call `onlyOwner` functions. Can only be called by the current owner. NOTE: Renouncing ownership will leave the contract without an owner, thereby disabling any functionality that is only available to the owner."
      },
      "setPollValidation(address,bool)": {
        "details": "if the poll is validated, the DAO will pay the validators and the DAOif the poll is rejected, the DAO will refund the owner balance less the validators fees (owner should claim it back later)it set the timestampLimit to the end of the poll and start the poll",
        "params": {
          "isValid": "is a boolean to validate or reject the poll",
          "pollAddress": "is the address of the poll to validate (this contract)"
        }
      },
      "transferOwnership(address)": {
        "details": "Transfers ownership of the contract to a new account (`newOwner`). Can only be called by the current owner."
      }
    },
    "stateVariables": {
      "firstOwner": {
        "details": "states used to manage master and clones ownership. FirstOwner must be the factory as it creates clones"
      },
      "initizalized": {
        "details": "it's important that value is false (even if false is the default value, i set it for clear code reading)"
      }
    },
    "version": 1
  },
  "userdoc": {
    "kind": "user",
    "methods": {
      "addAnswer(uint256[],bytes32)": {
        "notice": "This function allow to answer to the poll"
      },
      "addTopic(string,string[])": {
        "notice": "This function allows to add a topic : a question and its choices"
      },
      "addTopicsBatch(string[],string[][])": {
        "notice": "This function allows to add topics : questions and their choices, in batch"
      },
      "claimRefund()": {
        "notice": "allows the admin to withdraw the funds of the poll in case of rejection by the DAO or if the poll end without enough respondents"
      },
      "claimReward()": {
        "notice": "This function allow to claim the reward"
      },
      "constructor": {
        "notice": "transfer ownership of PollMaster and set the factory as 'firstOwner' "
      },
      "endPoll()": {
        "notice": "allows the admin to end the poll"
      },
      "getPackedAnswers()": {
        "notice": "get all the answers of the poll"
      },
      "getSelectedChoicesByAnswer(uint256)": {
        "notice": "This function return the selected choices of topics of a respondent"
      },
      "getUnpackedAnswers()": {
        "notice": "get all the answers of the poll"
      },
      "initialize(address,address,address,address,uint256,string,string,string)": {
        "notice": "manages the ownership of clones  - This action is needed to avoid : clone owner == address(0) and ownhership theft vulnerability  - as there's no constructor in clone we must call an init function at creation. - it will check that clone is not initialized and that caller (msg.sender) is the factory (firstOwner) to allow transferOfOwnership to the admin (_newOwner)"
      },
      "setPollValidation(address,bool)": {
        "notice": "allows the DAO to validate or reject the poll"
      },
      "submitPoll()": {
        "notice": "allows the admin to submit the poll to the DAO for validation (validators will check for illegal content...) "
      }
    },
    "version": 1
  }
}