{
  "contractName": "PollStorage",
  "abi": [
    {
      "anonymous": false,
      "inputs": [
        {
          "indexed": true,
          "internalType": "address",
          "name": "previousOwner",
          "type": "address"
        },
        {
          "indexed": true,
          "internalType": "address",
          "name": "newOwner",
          "type": "address"
        }
      ],
      "name": "OwnershipTransferred",
      "type": "event"
    },
    {
      "inputs": [],
      "name": "DAOaddress",
      "outputs": [
        {
          "internalType": "address",
          "name": "",
          "type": "address"
        }
      ],
      "stateMutability": "view",
      "type": "function"
    },
    {
      "inputs": [],
      "name": "MAX_CHOICES_COUNT",
      "outputs": [
        {
          "internalType": "uint256",
          "name": "",
          "type": "uint256"
        }
      ],
      "stateMutability": "view",
      "type": "function"
    },
    {
      "inputs": [],
      "name": "MAX_CHOICES_LENGTH",
      "outputs": [
        {
          "internalType": "uint256",
          "name": "",
          "type": "uint256"
        }
      ],
      "stateMutability": "view",
      "type": "function"
    },
    {
      "inputs": [],
      "name": "MAX_RESPONDENTS_LENGTH",
      "outputs": [
        {
          "internalType": "uint256",
          "name": "",
          "type": "uint256"
        }
      ],
      "stateMutability": "view",
      "type": "function"
    },
    {
      "inputs": [],
      "name": "MAX_TOPICS_LENGTH",
      "outputs": [
        {
          "internalType": "uint256",
          "name": "",
          "type": "uint256"
        }
      ],
      "stateMutability": "view",
      "type": "function"
    },
    {
      "inputs": [],
      "name": "MIN_POLL_AMOUNT",
      "outputs": [
        {
          "internalType": "uint256",
          "name": "",
          "type": "uint256"
        }
      ],
      "stateMutability": "view",
      "type": "function"
    },
    {
      "inputs": [],
      "name": "MIN_RESPONDENT_AMOUNT",
      "outputs": [
        {
          "internalType": "uint256",
          "name": "",
          "type": "uint256"
        }
      ],
      "stateMutability": "view",
      "type": "function"
    },
    {
      "inputs": [],
      "name": "certifierAddress",
      "outputs": [
        {
          "internalType": "address",
          "name": "",
          "type": "address"
        }
      ],
      "stateMutability": "view",
      "type": "function"
    },
    {
      "inputs": [],
      "name": "owner",
      "outputs": [
        {
          "internalType": "address",
          "name": "",
          "type": "address"
        }
      ],
      "stateMutability": "view",
      "type": "function"
    },
    {
      "inputs": [],
      "name": "renounceOwnership",
      "outputs": [],
      "stateMutability": "nonpayable",
      "type": "function"
    },
    {
      "inputs": [
        {
          "internalType": "address",
          "name": "newOwner",
          "type": "address"
        }
      ],
      "name": "transferOwnership",
      "outputs": [],
      "stateMutability": "nonpayable",
      "type": "function"
    }
  ],
  "bytecode": "0x608060405234801561001057600080fd5b5061002d61002261003260201b60201c565b61003a60201b60201c565b6100fe565b600033905090565b60008060009054906101000a900473ffffffffffffffffffffffffffffffffffffffff169050816000806101000a81548173ffffffffffffffffffffffffffffffffffffffff021916908373ffffffffffffffffffffffffffffffffffffffff1602179055508173ffffffffffffffffffffffffffffffffffffffff168173ffffffffffffffffffffffffffffffffffffffff167f8be0079c531659141344cd1fd0a4f28419497f9722a3daafe3b4186f6b6457e060405160405180910390a35050565b6106968061010d6000396000f3fe608060405234801561001057600080fd5b50600436106100a95760003560e01c80636b126209116100715780636b12620914610144578063715018a6146101625780638c062e4e1461016c5780638da5cb5b1461018a578063a6154064146101a8578063f2fde38b146101c6576100a9565b80631dd17d2f146100ae578063383da4b1146100cc5780633bbe2497146100ea57806342587e721461010857806349cf2eae14610126575b600080fd5b6100b66101e2565b6040516100c3919061047c565b60405180910390f35b6100d46101e7565b6040516100e1919061047c565b60405180910390f35b6100f26101ec565b6040516100ff919061047c565b60405180910390f35b6101106101f7565b60405161011d919061047c565b60405180910390f35b61012e610201565b60405161013b91906104d8565b60405180910390f35b61014c610227565b604051610159919061047c565b60405180910390f35b61016a61022d565b005b610174610241565b60405161018191906104d8565b60405180910390f35b610192610267565b60405161019f91906104d8565b60405180910390f35b6101b0610290565b6040516101bd919061047c565b60405180910390f35b6101e060048036038101906101db9190610524565b610296565b005b600a81565b603281565b66b1a2bc2ec5000081565b655af3107a400081565b600260009054906101000a900473ffffffffffffffffffffffffffffffffffffffff1681565b6103e881565b610235610319565b61023f6000610397565b565b600160009054906101000a900473ffffffffffffffffffffffffffffffffffffffff1681565b60008060009054906101000a900473ffffffffffffffffffffffffffffffffffffffff16905090565b61010081565b61029e610319565b600073ffffffffffffffffffffffffffffffffffffffff168173ffffffffffffffffffffffffffffffffffffffff160361030d576040517f08c379a0000000000000000000000000000000000000000000000000000000008152600401610304906105d4565b60405180910390fd5b61031681610397565b50565b61032161045b565b73ffffffffffffffffffffffffffffffffffffffff1661033f610267565b73ffffffffffffffffffffffffffffffffffffffff1614610395576040517f08c379a000000000000000000000000000000000000000000000000000000000815260040161038c90610640565b60405180910390fd5b565b60008060009054906101000a900473ffffffffffffffffffffffffffffffffffffffff169050816000806101000a81548173ffffffffffffffffffffffffffffffffffffffff021916908373ffffffffffffffffffffffffffffffffffffffff1602179055508173ffffffffffffffffffffffffffffffffffffffff168173ffffffffffffffffffffffffffffffffffffffff167f8be0079c531659141344cd1fd0a4f28419497f9722a3daafe3b4186f6b6457e060405160405180910390a35050565b600033905090565b6000819050919050565b61047681610463565b82525050565b6000602082019050610491600083018461046d565b92915050565b600073ffffffffffffffffffffffffffffffffffffffff82169050919050565b60006104c282610497565b9050919050565b6104d2816104b7565b82525050565b60006020820190506104ed60008301846104c9565b92915050565b600080fd5b610501816104b7565b811461050c57600080fd5b50565b60008135905061051e816104f8565b92915050565b60006020828403121561053a576105396104f3565b5b60006105488482850161050f565b91505092915050565b600082825260208201905092915050565b7f4f776e61626c653a206e6577206f776e657220697320746865207a65726f206160008201527f6464726573730000000000000000000000000000000000000000000000000000602082015250565b60006105be602683610551565b91506105c982610562565b604082019050919050565b600060208201905081810360008301526105ed816105b1565b9050919050565b7f4f776e61626c653a2063616c6c6572206973206e6f7420746865206f776e6572600082015250565b600061062a602083610551565b9150610635826105f4565b602082019050919050565b600060208201905081810360008301526106598161061d565b905091905056fea26469706673582212205990dfc4d738abfae1e1beed27ed338be587911cf9391a39c54c33f09d8ead4464736f6c63430008130033",
  "immutableReferences": {},
  "source": "// SPDX-License-Identifier: MIT\n\npragma solidity 0.8.19;\n\n/**\n@title PollStorage\n@author ibourn\n@dev This contract contains the storage of the poll, internal visibility is precised to make it more readable\n@dev (see PollMaster.sol for comments & explanations)\n@inheritdoc Ownable\n */\nimport \"../node_modules/@openzeppelin/contracts/access/Ownable.sol\"; \nimport \"./Certifier.sol\";\n\ncontract PollStorage is Ownable {\n\n    // :::::::::::::::::::::::::: ENUMS & STRUCTS ::::::::::::::::::::::::: //\n    /**\n    @dev Workflow status of the poll \n    @dev RegisteringWhitelist is optional, not implemented yet (for 'private' polls)\n    @dev PollSubmitted partially implemented (it will allow later to reformulate in case of invalidation)\n    @dev ATTENTION : RegisteringWhiteListe and PollValidated are skipped in this early version\n     */\n    enum PollStatus {\n        PollInitialized,\n        PollSubmitted,\n        PollValidated,\n        RegisteringWhitelist,\n        PollingStarted,\n        PollingEnded\n    }\n\n    /**\n    @dev Topic struct\n    @dev multi selection of choices per topic is allowed\n    @dev firstChoiceIndex facilitates the construction of the poll and the answers\n    @param firstChoiceIndex is the index of the first choice in the list of all cumulated and ordored choices\n    @param question is the subject of one topic of the poll\n    @param choices is the list of choices for one topic of the poll\n     */\n    struct Topic {\n        uint firstChoiceIndex;\n        string question;\n        string[] choices;\n    \n    }\n\n    // :::::::::::::::::::::::::: CONSTANTS :::::::::::::::::::::::::::::: //\n    /**\n    @dev minimum amount to create a poll : 0.05 ether\n     */\n    uint public constant MIN_POLL_AMOUNT = 50000000000000000; // = 0.05 ether\n    /**\n    // @dev minimum amount per respondent to be paid to create a poll : 0.0001 ether\n    //  */\n    uint public constant MIN_RESPONDENT_AMOUNT = 100000000000000; // = 0.0001 ether\n    /**\n    @dev LIMITATION : AT THE MOMENT : limited poll < 50 questions and < 10 choices for 100 respondents\n     */\n    uint public constant MAX_CHOICES_LENGTH = 10;\n    uint public constant MAX_TOPICS_LENGTH = 50;\n    /**\n    @dev LIMITATION : AT THE MOMENT : there's a limit of 256 choices per poll (add more buffers to manage more choices)\n     */\n    uint public constant MAX_CHOICES_COUNT = 256;\n    /**\n    @dev LIMITATION : AT THE MOMENT : we limit the number of respondents. Need to optimize process of getting answers for bigger polls\n     */    \n    uint public constant MAX_RESPONDENTS_LENGTH = 1000;\n    /**\n    @dev pseudo proof of certification (see Certifier contract in Certifier.sol)\n     */\n    bytes32 internal constant PSEUDO_PROOF = keccak256(abi.encodePacked(\"I claim this address is certified\" ));\n    /** \n    @dev percentage of amount paid for the poll going to validators\n     */\n    uint internal constant PERCENTAGE_TO_VALIDATORS = 10;\n    /**\n    @dev percentage of amount paid for the poll going to DAO\n     */\n    uint internal constant PERCENTAGE_TO_DAO = 10;\n\n\n    // :::::::::::::::::::::::::: VARIABLES :::::::::::::::::::::::::::::: //\n    /*\n    @todo NEED TEMP DAO TO REPSOND TO THE CONTRACT\n    */\n    address public DAOaddress;\n    address public certifierAddress;\n\n    // :::::::::::::::::::::::::: params defined by the owner :::::::::::: //\n    /*time limitation and delay are remove for the exam to facilitate tests and live demo*/\n    // /**\n    // @dev duration of the poll in seconds\n    //  */\n    // uint internal duration;\n    // /**\n    // @dev timestamp of the end of the poll (time of the validation + duration)\n    //  */\n    // uint internal timestampLimit;\n    /**\n    @dev number of answers the owner of the poll wants to get to close the poll\n     */\n    uint internal requiredResponseCount;\n    /**\n    @dev total number of choices of the poll / used also during topics addition to set the firstChoiceIndex of the next topic\n     */\n    uint internal totalChoicesCount;\n    // /**\n    // @dev UTILITY state used to construct the poll structure (it's the index of the last choice of the previous topic in the list of all choices)\n    //  */\n    // uint internal prevChoiceIndex;\n    // /**\n    // @dev UTILITY state used to construct the poll structure (it's the index of the last choice of the previous topic in the list of all choices)\n    //  */\n    // uint internal respondent;\n    /**\n    @dev name of the poll\n     */\n    string internal pollName; \n    /**\n    @dev description of the poll\n     */\n    string internal pollDescription; \n    /**\n    @dev to be replaced by struct : object/options (see Certifier contract in Certifier.sol)\n     */\n    string internal eligibilityCriteria;\n\n\n\n\n    // :::::::::::::::::::::::::: params of the contract ::::::::::::::::: //\n    /*@todo: pack in a struct to optimize storage*/\n    /**\n    @dev balance of the contract\n     */\n    uint internal balance; //balance of the contract\n    /**\n    @dev amount to be paid to the DAO if the poll is validated (10% of the amount sent to create the poll)\n     */\n    uint internal amountToDAO; \n    /**\n    @dev amount to be paid to the validators if the poll is validated (10% of the amount sent to create the poll)\n     */\n    uint internal amountToValidators; \n    /**\n    @dev amount to be paid to the respondents if the poll is validated (80% of the amount sent to create the poll / number of respondents)\n     */\n    uint internal amountToRespondent; \n    // /**\n    // @dev state used to manage master and clones ownership. FirstOwner must be the factory as it creates clones\n    // */\n    // address internal immutable firstOwner;\n    /**\n    @dev current status of the poll\n     */\n    PollStatus internal pollStatus;\n    /**\n    @dev true if the DAO invalidates the poll, the poll can't continue\n     */\n    bool internal isCanceled;\n    // /**\n    // @dev it's important that value is false (even if false is the default value, i set it for clear code reading)\n    // */\n    // bool internal initizalized = false;\n\n    // :::::::::::::::::::::::::: MAPPING,ARRAY... :::::::::::::::::::::::::::::: //\n    /**\n    @dev this contains amount to be claimed by the respondents\n     */\n    mapping (address => uint) internal balances;\n    /**\n    @dev this contains the list of questions and choices\n    */\n    Topic[] internal topics;\n    /**\n    @dev this contains the chronological list of answers (not linked to the respondent address directly)\n    @dev one respondent's answer is a uint256 flagging the choices of the respondent (one bit is one index of total choices in order of topic choices / 1 = choosen answer)\n     */\n    uint256[] internal answers;\n\n    // mapping (address => bool) internal responded; //hasAnswered\n    // address[] internal respondents; // to add if linked to the DAO for extra rewards\n\n\n\n\n\n////EFFACER LA SUITE\n\n\n    // function getRespondents() external view returns (address[] memory) {\n    //     return respondents;\n    // }\n\n    // function getRespondentsLength() external view returns (uint) {\n    //     return respondents.length;\n    // }\n\n    // function getAnswers() external view returns (uint[][] memory) {\n    //     return answers;\n    // // }\n\n    // function getAnswersLength() external view returns (uint) {\n    //     return answers.length;\n    // }\n\n    // function getWorkflowStatus() external view returns (PollStatus) {\n    //     return pollStatus;\n    // }   \n\n    // function getDuration() external view returns (uint) {\n    //     return duration;\n    // }\n\n    // function getRespondentsThreshold() external view returns (uint) {\n    //     return requiredResponseCount;\n    // }\n\n\n\n\n\n\n\n}\n",
  "sourcePath": "/home/ibournubuntu/ALYRA/PROJET_FINAL/DPoll/truffle/contracts/PollStorage.sol",
  "compiler": {
    "name": "solc",
    "version": "0.8.19+commit.7dd6d404.Emscripten.clang"
  },
  "schemaVersion": "3.4.14",
  "updatedAt": "2023-07-25T13:10:37.195Z",
  "devdoc": {
    "kind": "dev",
    "methods": {
      "owner()": {
        "details": "Returns the address of the current owner."
      },
      "renounceOwnership()": {
        "details": "Leaves the contract without owner. It will not be possible to call `onlyOwner` functions. Can only be called by the current owner. NOTE: Renouncing ownership will leave the contract without an owner, thereby disabling any functionality that is only available to the owner."
      },
      "transferOwnership(address)": {
        "details": "Transfers ownership of the contract to a new account (`newOwner`). Can only be called by the current owner."
      }
    },
    "stateVariables": {
      "MAX_CHOICES_COUNT": {
        "details": "LIMITATION : AT THE MOMENT : there's a limit of 256 choices per poll (add more buffers to manage more choices)"
      },
      "MAX_CHOICES_LENGTH": {
        "details": "LIMITATION : AT THE MOMENT : limited poll < 50 questions and < 10 choices for 100 respondents"
      },
      "MAX_RESPONDENTS_LENGTH": {
        "details": "LIMITATION : AT THE MOMENT : we limit the number of respondents. Need to optimize process of getting answers for bigger polls"
      },
      "MIN_POLL_AMOUNT": {
        "details": "minimum amount to create a poll : 0.05 ether"
      },
      "MIN_RESPONDENT_AMOUNT": {
        "details": "minimum amount per respondent to be paid to create a poll : 0.0001 ether //  "
      },
      "PERCENTAGE_TO_DAO": {
        "details": "percentage of amount paid for the poll going to DAO"
      },
      "PERCENTAGE_TO_VALIDATORS": {
        "details": "percentage of amount paid for the poll going to validators"
      },
      "PSEUDO_PROOF": {
        "details": "pseudo proof of certification (see Certifier contract in Certifier.sol)"
      },
      "amountToDAO": {
        "details": "amount to be paid to the DAO if the poll is validated (10% of the amount sent to create the poll)"
      },
      "amountToRespondent": {
        "details": "amount to be paid to the respondents if the poll is validated (80% of the amount sent to create the poll / number of respondents)"
      },
      "amountToValidators": {
        "details": "amount to be paid to the validators if the poll is validated (10% of the amount sent to create the poll)"
      },
      "answers": {
        "details": "this contains the chronological list of answers (not linked to the respondent address directly)one respondent's answer is a uint256 flagging the choices of the respondent (one bit is one index of total choices in order of topic choices / 1 = choosen answer)"
      },
      "balance": {
        "details": "balance of the contract"
      },
      "balances": {
        "details": "this contains amount to be claimed by the respondents"
      },
      "eligibilityCriteria": {
        "details": "to be replaced by struct : object/options (see Certifier contract in Certifier.sol)"
      },
      "isCanceled": {
        "details": "true if the DAO invalidates the poll, the poll can't continue"
      },
      "pollDescription": {
        "details": "description of the poll"
      },
      "pollName": {
        "details": "name of the poll"
      },
      "pollStatus": {
        "details": "current status of the poll"
      },
      "requiredResponseCount": {
        "details": "number of answers the owner of the poll wants to get to close the poll"
      },
      "topics": {
        "details": "this contains the list of questions and choices"
      },
      "totalChoicesCount": {
        "details": "total number of choices of the poll / used also during topics addition to set the firstChoiceIndex of the next topic"
      }
    },
    "version": 1
  },
  "userdoc": {
    "kind": "user",
    "methods": {},
    "version": 1
  }
}