{
  "contractName": "PollAdmin",
  "abi": [
    {
      "anonymous": false,
      "inputs": [
        {
          "indexed": true,
          "internalType": "address",
          "name": "previousOwner",
          "type": "address"
        },
        {
          "indexed": true,
          "internalType": "address",
          "name": "newOwner",
          "type": "address"
        }
      ],
      "name": "OwnershipTransferred",
      "type": "event"
    },
    {
      "anonymous": false,
      "inputs": [
        {
          "indexed": false,
          "internalType": "enum PollStorage.PollStatus",
          "name": "previousStatus",
          "type": "uint8"
        },
        {
          "indexed": false,
          "internalType": "enum PollStorage.PollStatus",
          "name": "newStatus",
          "type": "uint8"
        }
      ],
      "name": "PollStatusChange",
      "type": "event"
    },
    {
      "anonymous": false,
      "inputs": [
        {
          "indexed": false,
          "internalType": "address",
          "name": "_to",
          "type": "address"
        },
        {
          "indexed": false,
          "internalType": "uint256",
          "name": "_amount",
          "type": "uint256"
        },
        {
          "indexed": false,
          "internalType": "string",
          "name": "_message",
          "type": "string"
        }
      ],
      "name": "PollWithdrawal",
      "type": "event"
    },
    {
      "anonymous": false,
      "inputs": [
        {
          "indexed": false,
          "internalType": "uint256",
          "name": "topicsAdded",
          "type": "uint256"
        },
        {
          "indexed": false,
          "internalType": "uint256",
          "name": "topicsCount",
          "type": "uint256"
        },
        {
          "indexed": false,
          "internalType": "uint256",
          "name": "totalChoicesCount",
          "type": "uint256"
        }
      ],
      "name": "TopicsAdded",
      "type": "event"
    },
    {
      "inputs": [],
      "name": "DAOaddress",
      "outputs": [
        {
          "internalType": "address",
          "name": "",
          "type": "address"
        }
      ],
      "stateMutability": "view",
      "type": "function"
    },
    {
      "inputs": [],
      "name": "MAX_CHOICES_COUNT",
      "outputs": [
        {
          "internalType": "uint256",
          "name": "",
          "type": "uint256"
        }
      ],
      "stateMutability": "view",
      "type": "function"
    },
    {
      "inputs": [],
      "name": "MAX_CHOICES_LENGTH",
      "outputs": [
        {
          "internalType": "uint256",
          "name": "",
          "type": "uint256"
        }
      ],
      "stateMutability": "view",
      "type": "function"
    },
    {
      "inputs": [],
      "name": "MAX_RESPONDENTS_LENGTH",
      "outputs": [
        {
          "internalType": "uint256",
          "name": "",
          "type": "uint256"
        }
      ],
      "stateMutability": "view",
      "type": "function"
    },
    {
      "inputs": [],
      "name": "MAX_TOPICS_LENGTH",
      "outputs": [
        {
          "internalType": "uint256",
          "name": "",
          "type": "uint256"
        }
      ],
      "stateMutability": "view",
      "type": "function"
    },
    {
      "inputs": [],
      "name": "MIN_POLL_AMOUNT",
      "outputs": [
        {
          "internalType": "uint256",
          "name": "",
          "type": "uint256"
        }
      ],
      "stateMutability": "view",
      "type": "function"
    },
    {
      "inputs": [],
      "name": "MIN_RESPONDENT_AMOUNT",
      "outputs": [
        {
          "internalType": "uint256",
          "name": "",
          "type": "uint256"
        }
      ],
      "stateMutability": "view",
      "type": "function"
    },
    {
      "inputs": [],
      "name": "certifierAddress",
      "outputs": [
        {
          "internalType": "address",
          "name": "",
          "type": "address"
        }
      ],
      "stateMutability": "view",
      "type": "function"
    },
    {
      "inputs": [],
      "name": "getAmountToDAO",
      "outputs": [
        {
          "internalType": "uint256",
          "name": "",
          "type": "uint256"
        }
      ],
      "stateMutability": "view",
      "type": "function"
    },
    {
      "inputs": [],
      "name": "getAmountToRespondent",
      "outputs": [
        {
          "internalType": "uint256",
          "name": "",
          "type": "uint256"
        }
      ],
      "stateMutability": "view",
      "type": "function"
    },
    {
      "inputs": [],
      "name": "getAmountToValidators",
      "outputs": [
        {
          "internalType": "uint256",
          "name": "",
          "type": "uint256"
        }
      ],
      "stateMutability": "view",
      "type": "function"
    },
    {
      "inputs": [],
      "name": "getBalance",
      "outputs": [
        {
          "internalType": "uint256",
          "name": "",
          "type": "uint256"
        }
      ],
      "stateMutability": "view",
      "type": "function"
    },
    {
      "inputs": [],
      "name": "getIsCanceled",
      "outputs": [
        {
          "internalType": "bool",
          "name": "",
          "type": "bool"
        }
      ],
      "stateMutability": "view",
      "type": "function"
    },
    {
      "inputs": [],
      "name": "getPollInformations",
      "outputs": [
        {
          "internalType": "string",
          "name": "",
          "type": "string"
        },
        {
          "internalType": "string",
          "name": "",
          "type": "string"
        }
      ],
      "stateMutability": "view",
      "type": "function"
    },
    {
      "inputs": [],
      "name": "getPollStatus",
      "outputs": [
        {
          "internalType": "enum PollStorage.PollStatus",
          "name": "",
          "type": "uint8"
        }
      ],
      "stateMutability": "view",
      "type": "function"
    },
    {
      "inputs": [],
      "name": "getPollStatusExt",
      "outputs": [
        {
          "internalType": "uint8",
          "name": "",
          "type": "uint8"
        }
      ],
      "stateMutability": "view",
      "type": "function"
    },
    {
      "inputs": [],
      "name": "getRequiredResponseCount",
      "outputs": [
        {
          "internalType": "uint256",
          "name": "",
          "type": "uint256"
        }
      ],
      "stateMutability": "view",
      "type": "function"
    },
    {
      "inputs": [],
      "name": "getRespondentReward",
      "outputs": [
        {
          "internalType": "uint256",
          "name": "",
          "type": "uint256"
        }
      ],
      "stateMutability": "view",
      "type": "function"
    },
    {
      "inputs": [],
      "name": "getRespondentsCount",
      "outputs": [
        {
          "internalType": "uint256",
          "name": "",
          "type": "uint256"
        }
      ],
      "stateMutability": "view",
      "type": "function"
    },
    {
      "inputs": [
        {
          "internalType": "uint256",
          "name": "_id",
          "type": "uint256"
        }
      ],
      "name": "getTopic",
      "outputs": [
        {
          "components": [
            {
              "internalType": "uint256",
              "name": "firstChoiceIndex",
              "type": "uint256"
            },
            {
              "internalType": "string",
              "name": "question",
              "type": "string"
            },
            {
              "internalType": "string[]",
              "name": "choices",
              "type": "string[]"
            }
          ],
          "internalType": "struct PollStorage.Topic",
          "name": "",
          "type": "tuple"
        }
      ],
      "stateMutability": "view",
      "type": "function"
    },
    {
      "inputs": [],
      "name": "getTopics",
      "outputs": [
        {
          "components": [
            {
              "internalType": "uint256",
              "name": "firstChoiceIndex",
              "type": "uint256"
            },
            {
              "internalType": "string",
              "name": "question",
              "type": "string"
            },
            {
              "internalType": "string[]",
              "name": "choices",
              "type": "string[]"
            }
          ],
          "internalType": "struct PollStorage.Topic[]",
          "name": "",
          "type": "tuple[]"
        }
      ],
      "stateMutability": "view",
      "type": "function"
    },
    {
      "inputs": [],
      "name": "getTopicsLength",
      "outputs": [
        {
          "internalType": "uint256",
          "name": "",
          "type": "uint256"
        }
      ],
      "stateMutability": "view",
      "type": "function"
    },
    {
      "inputs": [],
      "name": "owner",
      "outputs": [
        {
          "internalType": "address",
          "name": "",
          "type": "address"
        }
      ],
      "stateMutability": "view",
      "type": "function"
    },
    {
      "inputs": [],
      "name": "renounceOwnership",
      "outputs": [],
      "stateMutability": "nonpayable",
      "type": "function"
    },
    {
      "inputs": [
        {
          "internalType": "address",
          "name": "newOwner",
          "type": "address"
        }
      ],
      "name": "transferOwnership",
      "outputs": [],
      "stateMutability": "nonpayable",
      "type": "function"
    },
    {
      "inputs": [],
      "name": "validatorAddress",
      "outputs": [
        {
          "internalType": "address",
          "name": "",
          "type": "address"
        }
      ],
      "stateMutability": "view",
      "type": "function"
    },
    {
      "inputs": [
        {
          "internalType": "uint256",
          "name": "_answerId",
          "type": "uint256"
        }
      ],
      "name": "getSelectedChoicesByAnswer",
      "outputs": [
        {
          "internalType": "uint256[]",
          "name": "",
          "type": "uint256[]"
        }
      ],
      "stateMutability": "view",
      "type": "function"
    },
    {
      "inputs": [],
      "name": "getPackedAnswers",
      "outputs": [
        {
          "internalType": "uint256[]",
          "name": "",
          "type": "uint256[]"
        }
      ],
      "stateMutability": "view",
      "type": "function"
    },
    {
      "inputs": [],
      "name": "getUnpackedAnswers",
      "outputs": [
        {
          "internalType": "uint256[][]",
          "name": "",
          "type": "uint256[][]"
        }
      ],
      "stateMutability": "view",
      "type": "function"
    },
    {
      "inputs": [
        {
          "internalType": "string",
          "name": "_question",
          "type": "string"
        },
        {
          "internalType": "string[]",
          "name": "_choices",
          "type": "string[]"
        }
      ],
      "name": "addTopic",
      "outputs": [],
      "stateMutability": "nonpayable",
      "type": "function"
    },
    {
      "inputs": [
        {
          "internalType": "string[]",
          "name": "_questions",
          "type": "string[]"
        },
        {
          "internalType": "string[][]",
          "name": "_choices",
          "type": "string[][]"
        }
      ],
      "name": "addTopicsBatch",
      "outputs": [],
      "stateMutability": "nonpayable",
      "type": "function"
    },
    {
      "inputs": [],
      "name": "submitPoll",
      "outputs": [],
      "stateMutability": "nonpayable",
      "type": "function"
    },
    {
      "inputs": [
        {
          "internalType": "address",
          "name": "pollAddress",
          "type": "address"
        },
        {
          "internalType": "bool",
          "name": "isValid",
          "type": "bool"
        }
      ],
      "name": "setPollValidation",
      "outputs": [],
      "stateMutability": "payable",
      "type": "function"
    },
    {
      "inputs": [],
      "name": "endPoll",
      "outputs": [],
      "stateMutability": "nonpayable",
      "type": "function"
    },
    {
      "inputs": [],
      "name": "claimRefund",
      "outputs": [],
      "stateMutability": "nonpayable",
      "type": "function"
    }
  ],
  "bytecode": "0x60806040523480156200001157600080fd5b5062000032620000266200003860201b60201c565b6200004060201b60201c565b62000104565b600033905090565b60008060009054906101000a900473ffffffffffffffffffffffffffffffffffffffff169050816000806101000a81548173ffffffffffffffffffffffffffffffffffffffff021916908373ffffffffffffffffffffffffffffffffffffffff1602179055508173ffffffffffffffffffffffffffffffffffffffff168173ffffffffffffffffffffffffffffffffffffffff167f8be0079c531659141344cd1fd0a4f28419497f9722a3daafe3b4186f6b6457e060405160405180910390a35050565b61393680620001146000396000f3fe6080604052600436106102035760003560e01c8063715018a611610118578063a92a4fae116100a0578063f2fde38b1161006f578063f2fde38b146106d4578063f5d4d2a8146106fd578063f64b0af914610728578063fee0117714610753578063ff4c4e0d1461077e57610203565b8063a92a4fae1461064d578063b5545a3c14610678578063e1b9742a1461068f578063ef98cd62146106ab57610203565b80638c062e4e116100e75780638c062e4e146105785780638d99b2eb146105a35780638da5cb5b146105ba578063a3948a0d146105e5578063a61540641461062257610203565b8063715018a6146104d057806371658896146104e75780638389a3eb14610524578063883032e81461054d57610203565b80633fe4676e1161019b57806349cf2eae1161016a57806349cf2eae146103f95780634b4d7aeb1461042457806356528cac1461044f5780636a5543e91461047a5780636b126209146104a557610203565b80633fe4676e1461034d57806342587e7214610378578063442da8bd146103a357806346b7bc91146103ce57610203565b80632a0e1c4f116101d75780632a0e1c4f146102a0578063383da4b1146102cb5780633bb3ba3d146102f65780633bbe24971461032257610203565b8062cc86bd1461020857806305f9d4ad1461023357806312065fe01461024a5780631dd17d2f14610275575b600080fd5b34801561021457600080fd5b5061021d6107a9565b60405161022a9190611fb5565b60405180910390f35b34801561023f57600080fd5b506102486107b3565b005b34801561025657600080fd5b5061025f610944565b60405161026c9190611fb5565b60405180910390f35b34801561028157600080fd5b5061028a61094e565b6040516102979190611fb5565b60405180910390f35b3480156102ac57600080fd5b506102b5610953565b6040516102c29190611feb565b60405180910390f35b3480156102d757600080fd5b506102e061096a565b6040516102ed9190611fb5565b60405180910390f35b34801561030257600080fd5b5061030b61096f565b604051610319929190612096565b60405180910390f35b34801561032e57600080fd5b50610337610a96565b6040516103449190611fb5565b60405180910390f35b34801561035957600080fd5b50610362610aa1565b60405161036f919061210e565b60405180910390f35b34801561038457600080fd5b5061038d610ac7565b60405161039a9190611fb5565b60405180910390f35b3480156103af57600080fd5b506103b8610ad1565b6040516103c59190611fb5565b60405180910390f35b3480156103da57600080fd5b506103e3610adb565b6040516103f09190611fb5565b60405180910390f35b34801561040557600080fd5b5061040e610b22565b60405161041b919061210e565b60405180910390f35b34801561043057600080fd5b50610439610b48565b6040516104469190612145565b60405180910390f35b34801561045b57600080fd5b50610464610b71565b604051610471919061221e565b60405180910390f35b34801561048657600080fd5b5061048f610c46565b60405161049c9190611fb5565b60405180910390f35b3480156104b157600080fd5b506104ba610c53565b6040516104c79190611fb5565b60405180910390f35b3480156104dc57600080fd5b506104e5610c59565b005b3480156104f357600080fd5b5061050e60048036038101906105099190612280565b610c6d565b60405161051b9190612410565b60405180910390f35b34801561053057600080fd5b5061054b600480360381019061054691906124ed565b610e1e565b005b34801561055957600080fd5b5061056261104a565b60405161056f91906125e5565b60405180910390f35b34801561058457600080fd5b5061058d611061565b60405161059a919061210e565b60405180910390f35b3480156105af57600080fd5b506105b8611087565b005b3480156105c657600080fd5b506105cf611132565b6040516105dc919061210e565b60405180910390f35b3480156105f157600080fd5b5061060c60048036038101906106079190612280565b61115b565b604051610619919061221e565b60405180910390f35b34801561062e57600080fd5b50610637611208565b6040516106449190611fb5565b60405180910390f35b34801561065957600080fd5b5061066261120e565b60405161066f9190611fb5565b60405180910390f35b34801561068457600080fd5b5061068d61121b565b005b6106a960048036038101906106a49190612658565b6112a2565b005b3480156106b757600080fd5b506106d260048036038101906106cd91906126ee565b6114e4565b005b3480156106e057600080fd5b506106fb60048036038101906106f6919061276f565b611744565b005b34801561070957600080fd5b506107126117c7565b60405161071f91906128cd565b60405180910390f35b34801561073457600080fd5b5061073d6118f0565b60405161074a9190611fb5565b60405180910390f35b34801561075f57600080fd5b506107686118fa565b6040516107759190612a08565b60405180910390f35b34801561078a57600080fd5b50610793611ace565b6040516107a09190611fb5565b60405180910390f35b6000600454905090565b6107bb611ad8565b600060058111156107cf576107ce61256e565b5b600d60009054906101000a900460ff1660058111156107f1576107f061256e565b5b14610831576040517f08c379a000000000000000000000000000000000000000000000000000000000815260040161082890612a76565b60405180910390fd5b6000600a54600b546108439190612ac5565b9050600360009054906101000a900473ffffffffffffffffffffffffffffffffffffffff1673ffffffffffffffffffffffffffffffffffffffff1663b46411c38230600b54600a546040518563ffffffff1660e01b81526004016108a993929190612af9565b6000604051808303818588803b1580156108c257600080fd5b505af11580156108d6573d6000803e3d6000fd5b50505050506001600d60006101000a81548160ff021916908360058111156109015761090061256e565b5b02179055507f20f7c135505514c16ee7e30eb8127c87b82a910a6b28e61ad0feb1a77473f4fe60006001604051610939929190612b30565b60405180910390a150565b6000600954905090565b600a81565b6000600d60019054906101000a900460ff16905090565b603281565b6060806006600781805461098290612b88565b80601f01602080910402602001604051908101604052809291908181526020018280546109ae90612b88565b80156109fb5780601f106109d0576101008083540402835291602001916109fb565b820191906000526020600020905b8154815290600101906020018083116109de57829003601f168201915b50505050509150808054610a0e90612b88565b80601f0160208091040260200160405190810160405280929190818152602001828054610a3a90612b88565b8015610a875780601f10610a5c57610100808354040283529160200191610a87565b820191906000526020600020905b815481529060010190602001808311610a6a57829003601f168201915b50505050509050915091509091565b66b1a2bc2ec5000081565b600360009054906101000a900473ffffffffffffffffffffffffffffffffffffffff1681565b655af3107a400081565b6000600c54905090565b6000600e60003373ffffffffffffffffffffffffffffffffffffffff1673ffffffffffffffffffffffffffffffffffffffff16815260200190815260200160002054905090565b600260009054906101000a900473ffffffffffffffffffffffffffffffffffffffff1681565b6000600d60009054906101000a900460ff166005811115610b6c57610b6b61256e565b5b905090565b6060610b7b611ad8565b600580811115610b8e57610b8d61256e565b5b600d60009054906101000a900460ff166005811115610bb057610baf61256e565b5b14610bf0576040517f08c379a0000000000000000000000000000000000000000000000000000000008152600401610be790612c05565b60405180910390fd5b6010805480602002602001604051908101604052809291908181526020018280548015610c3c57602002820191906000526020600020905b815481526020019060010190808311610c28575b5050505050905090565b6000601080549050905090565b6103e881565b610c61611ad8565b610c6b6000611b56565b565b610c75611ea1565b600f8281548110610c8957610c88612c25565b5b906000526020600020906003020160405180606001604052908160008201548152602001600182018054610cbc90612b88565b80601f0160208091040260200160405190810160405280929190818152602001828054610ce890612b88565b8015610d355780601f10610d0a57610100808354040283529160200191610d35565b820191906000526020600020905b815481529060010190602001808311610d1857829003601f168201915b5050505050815260200160028201805480602002602001604051908101604052809291908181526020016000905b82821015610e0f578382906000526020600020018054610d8290612b88565b80601f0160208091040260200160405190810160405280929190818152602001828054610dae90612b88565b8015610dfb5780601f10610dd057610100808354040283529160200191610dfb565b820191906000526020600020905b815481529060010190602001808311610dde57829003601f168201915b505050505081526020019060010190610d63565b50505050815250509050919050565b610e26611ad8565b818190508484905014610e6e576040517f08c379a0000000000000000000000000000000000000000000000000000000008152600401610e6590612ca0565b60405180910390fd5b600060055490506000600f905060005b86869050811015610ff557610e91611ea1565b83816000018181525050878783818110610eae57610ead612c25565b5b9050602002810190610ec09190612ccf565b8080601f016020809104026020016040519081016040528093929190818152602001838380828437600081840152601f19601f820116905080830192505050505050508160200181905250858583818110610f1e57610f1d612c25565b5b9050602002810190610f309190612d32565b90610f3b9190612f78565b8160400181905250858583818110610f5657610f55612c25565b5b9050602002810190610f689190612d32565b905084610f759190612ac5565b935082819080600181540180825580915050600190039060005260206000209060030201600090919091909150600082015181600001556020820151816001019081610fc19190613139565b506040820151816002019080519060200190610fde929190611ec2565b505050508080610fed9061320b565b915050610e7e565b50816005819055507fbf7e450152e82a72724b6c2028c2955b2294c0579262526315aa44919e2be9c586869050600f8054905060055460405161103a93929190613253565b60405180910390a1505050505050565b6000600d60009054906101000a900460ff16905090565b600160009054906101000a900473ffffffffffffffffffffffffffffffffffffffff1681565b61108f611ad8565b600460058111156110a3576110a261256e565b5b600d60009054906101000a900460ff1660058111156110c5576110c461256e565b5b14611105576040517f08c379a00000000000000000000000000000000000000000000000000000000081526004016110fc906132d6565b60405180910390fd5b6005600d60006101000a81548160ff0219169083600581111561112b5761112a61256e565b5b0217905550565b60008060009054906101000a900473ffffffffffffffffffffffffffffffffffffffff16905090565b6060611165611ad8565b6005808111156111785761117761256e565b5b600d60009054906101000a900460ff16600581111561119a5761119961256e565b5b146111da576040517f08c379a00000000000000000000000000000000000000000000000000000000081526004016111d190612c05565b60405180910390fd5b611201601083815481106111f1576111f0612c25565b5b9060005260206000200154611c1a565b9050919050565b61010081565b6000600f80549050905090565b611223611ad8565b6005808111156112365761123561256e565b5b600d60009054906101000a900460ff1660058111156112585761125761256e565b5b14611298576040517f08c379a000000000000000000000000000000000000000000000000000000000815260040161128f90613342565b60405180910390fd5b6112a0611cd6565b565b600160009054906101000a900473ffffffffffffffffffffffffffffffffffffffff1673ffffffffffffffffffffffffffffffffffffffff163373ffffffffffffffffffffffffffffffffffffffff1614611332576040517f08c379a0000000000000000000000000000000000000000000000000000000008152600401611329906133ae565b60405180910390fd5b600160058111156113465761134561256e565b5b600d60009054906101000a900460ff1660058111156113685761136761256e565b5b146113a8576040517f08c379a000000000000000000000000000000000000000000000000000000000815260040161139f9061341a565b60405180910390fd5b3073ffffffffffffffffffffffffffffffffffffffff168273ffffffffffffffffffffffffffffffffffffffff1614611416576040517f08c379a000000000000000000000000000000000000000000000000000000000815260040161140d90613486565b60405180910390fd5b80806114245750600a543410155b611463576040517f08c379a000000000000000000000000000000000000000000000000000000000815260040161145a906134f2565b60405180910390fd5b8015611499576004600d60006101000a81548160ff0219169083600581111561148f5761148e61256e565b5b02179055506114e0565b6001600d60016101000a81548160ff0219169083151502179055506005600d60006101000a81548160ff021916908360058111156114da576114d961256e565b5b02179055505b5050565b6114ec611ad8565b60006005811115611500576114ff61256e565b5b600d60009054906101000a900460ff1660058111156115225761152161256e565b5b14611562576040517f08c379a000000000000000000000000000000000000000000000000000000000815260040161155990612a76565b60405180910390fd5b600a8282905011156115a9576040517f08c379a00000000000000000000000000000000000000000000000000000000081526004016115a09061355e565b60405180910390fd5b6032828290506005546115bc9190612ac5565b11156115fd576040517f08c379a00000000000000000000000000000000000000000000000000000000081526004016115f4906135ca565b60405180910390fd5b611605611ea1565b60055481600001818152505084848080601f016020809104026020016040519081016040528093929190818152602001838380828437600081840152601f19601f82011690508083019250505050505050816020018190525082829061166b9190612f78565b816040018190525082829050600560008282546116889190612ac5565b92505081905550600f8190806001815401808255809150506001900390600052602060002090600302016000909190919091506000820151816000015560208201518160010190816116da9190613139565b5060408201518160020190805190602001906116f7929190611ec2565b5050507fbf7e450152e82a72724b6c2028c2955b2294c0579262526315aa44919e2be9c56001600f8054905060055460405161173593929190613625565b60405180910390a15050505050565b61174c611ad8565b600073ffffffffffffffffffffffffffffffffffffffff168173ffffffffffffffffffffffffffffffffffffffff16036117bb576040517f08c379a00000000000000000000000000000000000000000000000000000000081526004016117b2906136ce565b60405180910390fd5b6117c481611b56565b50565b60606117d1611ad8565b6005808111156117e4576117e361256e565b5b600d60009054906101000a900460ff1660058111156118065761180561256e565b5b14611846576040517f08c379a000000000000000000000000000000000000000000000000000000000815260040161183d90612c05565b60405180910390fd5b6000601080549050905060008167ffffffffffffffff81111561186c5761186b612d95565b5b60405190808252806020026020018201604052801561189f57816020015b606081526020019060019003908161188a5790505b50905060005b828110156118e7576118b68161115b565b8282815181106118c9576118c8612c25565b5b602002602001018190525080806118df9061320b565b9150506118a5565b50809250505090565b6000600a54905090565b6060600f805480602002602001604051908101604052809291908181526020016000905b82821015611ac557838290600052602060002090600302016040518060600160405290816000820154815260200160018201805461195b90612b88565b80601f016020809104026020016040519081016040528092919081815260200182805461198790612b88565b80156119d45780601f106119a9576101008083540402835291602001916119d4565b820191906000526020600020905b8154815290600101906020018083116119b757829003601f168201915b5050505050815260200160028201805480602002602001604051908101604052809291908181526020016000905b82821015611aae578382906000526020600020018054611a2190612b88565b80601f0160208091040260200160405190810160405280929190818152602001828054611a4d90612b88565b8015611a9a5780601f10611a6f57610100808354040283529160200191611a9a565b820191906000526020600020905b815481529060010190602001808311611a7d57829003601f168201915b505050505081526020019060010190611a02565b50505050815250508152602001906001019061191e565b50505050905090565b6000600b54905090565b611ae0611e60565b73ffffffffffffffffffffffffffffffffffffffff16611afe611132565b73ffffffffffffffffffffffffffffffffffffffff1614611b54576040517f08c379a0000000000000000000000000000000000000000000000000000000008152600401611b4b9061373a565b60405180910390fd5b565b60008060009054906101000a900473ffffffffffffffffffffffffffffffffffffffff169050816000806101000a81548173ffffffffffffffffffffffffffffffffffffffff021916908373ffffffffffffffffffffffffffffffffffffffff1602179055508173ffffffffffffffffffffffffffffffffffffffff168173ffffffffffffffffffffffffffffffffffffffff167f8be0079c531659141344cd1fd0a4f28419497f9722a3daafe3b4186f6b6457e060405160405180910390a35050565b60606000611c2783611e68565b905060008167ffffffffffffffff811115611c4557611c44612d95565b5b604051908082528060200260200182016040528015611c735781602001602082028036833780820191505090505b5090506000805b610100811015611cca576000816001901b871614611cbf5780838381518110611ca657611ca5612c25565b5b60200260200101818152505081611cbc9061320b565b91505b806001019050611c7a565b50819350505050919050565b611cde611ad8565b600060095411611d23576040517f08c379a0000000000000000000000000000000000000000000000000000000008152600401611d1a906134f2565b60405180910390fd5b476009541115611d68576040517f08c379a0000000000000000000000000000000000000000000000000000000008152600401611d5f906137a6565b60405180910390fd5b60006009549050600060098190555060003373ffffffffffffffffffffffffffffffffffffffff1682604051611d9d906137f7565b60006040518083038185875af1925050503d8060008114611dda576040519150601f19603f3d011682016040523d82523d6000602084013e611ddf565b606091505b5050905080611e23576040517f08c379a0000000000000000000000000000000000000000000000000000000008152600401611e1a90613858565b60405180910390fd5b7fbb23de5c4d0ac7c049b292881397f32ddab597aebe0859c2baf41548d5c20c373383604051611e549291906138c4565b60405180910390a15050565b600033905090565b60008060008390505b6000811115611e97576001811682611e899190612ac5565b9150600181901c9050611e71565b8192505050919050565b60405180606001604052806000815260200160608152602001606081525090565b828054828255906000526020600020908101928215611f0a579160200282015b82811115611f09578251829081611ef99190613139565b5091602001919060010190611ee2565b5b509050611f179190611f1b565b5090565b5b80821115611f3b5760008181611f329190611f3f565b50600101611f1c565b5090565b508054611f4b90612b88565b6000825580601f10611f5d5750611f7c565b601f016020900490600052602060002090810190611f7b9190611f7f565b5b50565b5b80821115611f98576000816000905550600101611f80565b5090565b6000819050919050565b611faf81611f9c565b82525050565b6000602082019050611fca6000830184611fa6565b92915050565b60008115159050919050565b611fe581611fd0565b82525050565b60006020820190506120006000830184611fdc565b92915050565b600081519050919050565b600082825260208201905092915050565b60005b83811015612040578082015181840152602081019050612025565b60008484015250505050565b6000601f19601f8301169050919050565b600061206882612006565b6120728185612011565b9350612082818560208601612022565b61208b8161204c565b840191505092915050565b600060408201905081810360008301526120b0818561205d565b905081810360208301526120c4818461205d565b90509392505050565b600073ffffffffffffffffffffffffffffffffffffffff82169050919050565b60006120f8826120cd565b9050919050565b612108816120ed565b82525050565b600060208201905061212360008301846120ff565b92915050565b600060ff82169050919050565b61213f81612129565b82525050565b600060208201905061215a6000830184612136565b92915050565b600081519050919050565b600082825260208201905092915050565b6000819050602082019050919050565b61219581611f9c565b82525050565b60006121a7838361218c565b60208301905092915050565b6000602082019050919050565b60006121cb82612160565b6121d5818561216b565b93506121e08361217c565b8060005b838110156122115781516121f8888261219b565b9750612203836121b3565b9250506001810190506121e4565b5085935050505092915050565b6000602082019050818103600083015261223881846121c0565b905092915050565b6000604051905090565b600080fd5b600080fd5b61225d81611f9c565b811461226857600080fd5b50565b60008135905061227a81612254565b92915050565b6000602082840312156122965761229561224a565b5b60006122a48482850161226b565b91505092915050565b600082825260208201905092915050565b60006122c982612006565b6122d381856122ad565b93506122e3818560208601612022565b6122ec8161204c565b840191505092915050565b600081519050919050565b600082825260208201905092915050565b6000819050602082019050919050565b600061232f83836122be565b905092915050565b6000602082019050919050565b600061234f826122f7565b6123598185612302565b93508360208202850161236b85612313565b8060005b858110156123a757848403895281516123888582612323565b945061239383612337565b925060208a0199505060018101905061236f565b50829750879550505050505092915050565b60006060830160008301516123d1600086018261218c565b50602083015184820360208601526123e982826122be565b915050604083015184820360408601526124038282612344565b9150508091505092915050565b6000602082019050818103600083015261242a81846123b9565b905092915050565b600080fd5b600080fd5b600080fd5b60008083601f84011261245757612456612432565b5b8235905067ffffffffffffffff81111561247457612473612437565b5b6020830191508360208202830111156124905761248f61243c565b5b9250929050565b60008083601f8401126124ad576124ac612432565b5b8235905067ffffffffffffffff8111156124ca576124c9612437565b5b6020830191508360208202830111156124e6576124e561243c565b5b9250929050565b600080600080604085870312156125075761250661224a565b5b600085013567ffffffffffffffff8111156125255761252461224f565b5b61253187828801612441565b9450945050602085013567ffffffffffffffff8111156125545761255361224f565b5b61256087828801612497565b925092505092959194509250565b7f4e487b7100000000000000000000000000000000000000000000000000000000600052602160045260246000fd5b600681106125ae576125ad61256e565b5b50565b60008190506125bf8261259d565b919050565b60006125cf826125b1565b9050919050565b6125df816125c4565b82525050565b60006020820190506125fa60008301846125d6565b92915050565b612609816120ed565b811461261457600080fd5b50565b60008135905061262681612600565b92915050565b61263581611fd0565b811461264057600080fd5b50565b6000813590506126528161262c565b92915050565b6000806040838503121561266f5761266e61224a565b5b600061267d85828601612617565b925050602061268e85828601612643565b9150509250929050565b60008083601f8401126126ae576126ad612432565b5b8235905067ffffffffffffffff8111156126cb576126ca612437565b5b6020830191508360018202830111156126e7576126e661243c565b5b9250929050565b600080600080604085870312156127085761270761224a565b5b600085013567ffffffffffffffff8111156127265761272561224f565b5b61273287828801612698565b9450945050602085013567ffffffffffffffff8111156127555761275461224f565b5b61276187828801612441565b925092505092959194509250565b6000602082840312156127855761278461224a565b5b600061279384828501612617565b91505092915050565b600081519050919050565b600082825260208201905092915050565b6000819050602082019050919050565b600082825260208201905092915050565b60006127e482612160565b6127ee81856127c8565b93506127f98361217c565b8060005b8381101561282a578151612811888261219b565b975061281c836121b3565b9250506001810190506127fd565b5085935050505092915050565b600061284383836127d9565b905092915050565b6000602082019050919050565b60006128638261279c565b61286d81856127a7565b93508360208202850161287f856127b8565b8060005b858110156128bb578484038952815161289c8582612837565b94506128a78361284b565b925060208a01995050600181019050612883565b50829750879550505050505092915050565b600060208201905081810360008301526128e78184612858565b905092915050565b600081519050919050565b600082825260208201905092915050565b6000819050602082019050919050565b6000606083016000830151612933600086018261218c565b506020830151848203602086015261294b82826122be565b915050604083015184820360408601526129658282612344565b9150508091505092915050565b600061297e838361291b565b905092915050565b6000602082019050919050565b600061299e826128ef565b6129a881856128fa565b9350836020820285016129ba8561290b565b8060005b858110156129f657848403895281516129d78582612972565b94506129e283612986565b925060208a019950506001810190506129be565b50829750879550505050505092915050565b60006020820190508181036000830152612a228184612993565b905092915050565b7f506f6c6c20616c7265616479207375626d697474656400000000000000000000600082015250565b6000612a60601683612011565b9150612a6b82612a2a565b602082019050919050565b60006020820190508181036000830152612a8f81612a53565b9050919050565b7f4e487b7100000000000000000000000000000000000000000000000000000000600052601160045260246000fd5b6000612ad082611f9c565b9150612adb83611f9c565b9250828201905080821115612af357612af2612a96565b5b92915050565b6000606082019050612b0e60008301866120ff565b612b1b6020830185611fa6565b612b286040830184611fa6565b949350505050565b6000604082019050612b4560008301856125d6565b612b5260208301846125d6565b9392505050565b7f4e487b7100000000000000000000000000000000000000000000000000000000600052602260045260246000fd5b60006002820490506001821680612ba057607f821691505b602082108103612bb357612bb2612b59565b5b50919050565b7f506f6c6c696e67206e6f7420656e646564000000000000000000000000000000600082015250565b6000612bef601183612011565b9150612bfa82612bb9565b602082019050919050565b60006020820190508181036000830152612c1e81612be2565b9050919050565b7f4e487b7100000000000000000000000000000000000000000000000000000000600052603260045260246000fd5b7f417272617973206d7573742068617665207468652073616d65206c656e677468600082015250565b6000612c8a602083612011565b9150612c9582612c54565b602082019050919050565b60006020820190508181036000830152612cb981612c7d565b9050919050565b600080fd5b600080fd5b600080fd5b60008083356001602003843603038112612cec57612ceb612cc0565b5b80840192508235915067ffffffffffffffff821115612d0e57612d0d612cc5565b5b602083019250600182023603831315612d2a57612d29612cca565b5b509250929050565b60008083356001602003843603038112612d4f57612d4e612cc0565b5b80840192508235915067ffffffffffffffff821115612d7157612d70612cc5565b5b602083019250602082023603831315612d8d57612d8c612cca565b5b509250929050565b7f4e487b7100000000000000000000000000000000000000000000000000000000600052604160045260246000fd5b612dcd8261204c565b810181811067ffffffffffffffff82111715612dec57612deb612d95565b5b80604052505050565b6000612dff612240565b9050612e0b8282612dc4565b919050565b600067ffffffffffffffff821115612e2b57612e2a612d95565b5b602082029050602081019050919050565b600080fd5b600067ffffffffffffffff821115612e5c57612e5b612d95565b5b612e658261204c565b9050602081019050919050565b82818337600083830152505050565b6000612e94612e8f84612e41565b612df5565b905082815260208101848484011115612eb057612eaf612e3c565b5b612ebb848285612e72565b509392505050565b600082601f830112612ed857612ed7612432565b5b8135612ee8848260208601612e81565b91505092915050565b6000612f04612eff84612e10565b612df5565b90508083825260208201905060208402830185811115612f2757612f2661243c565b5b835b81811015612f6e57803567ffffffffffffffff811115612f4c57612f4b612432565b5b808601612f598982612ec3565b85526020850194505050602081019050612f29565b5050509392505050565b6000612f85368484612ef1565b905092915050565b60008190508160005260206000209050919050565b60006020601f8301049050919050565b600082821b905092915050565b600060088302612fef7fffffffffffffffffffffffffffffffffffffffffffffffffffffffffffffffff82612fb2565b612ff98683612fb2565b95508019841693508086168417925050509392505050565b6000819050919050565b600061303661303161302c84611f9c565b613011565b611f9c565b9050919050565b6000819050919050565b6130508361301b565b61306461305c8261303d565b848454612fbf565b825550505050565b600090565b61307961306c565b613084818484613047565b505050565b5b818110156130a85761309d600082613071565b60018101905061308a565b5050565b601f8211156130ed576130be81612f8d565b6130c784612fa2565b810160208510156130d6578190505b6130ea6130e285612fa2565b830182613089565b50505b505050565b600082821c905092915050565b6000613110600019846008026130f2565b1980831691505092915050565b600061312983836130ff565b9150826002028217905092915050565b61314282612006565b67ffffffffffffffff81111561315b5761315a612d95565b5b6131658254612b88565b6131708282856130ac565b600060209050601f8311600181146131a35760008415613191578287015190505b61319b858261311d565b865550613203565b601f1984166131b186612f8d565b60005b828110156131d9578489015182556001820191506020850194506020810190506131b4565b868310156131f657848901516131f2601f8916826130ff565b8355505b6001600288020188555050505b505050505050565b600061321682611f9c565b91507fffffffffffffffffffffffffffffffffffffffffffffffffffffffffffffffff820361324857613247612a96565b5b600182019050919050565b60006060820190506132686000830186611fa6565b6132756020830185611fa6565b6132826040830184611fa6565b949350505050565b7f506f6c6c696e67206e6f74207374617274656400000000000000000000000000600082015250565b60006132c0601383612011565b91506132cb8261328a565b602082019050919050565b600060208201905081810360008301526132ef816132b3565b9050919050565b7f506f6c6c20616c72656164792064697374726962757465640000000000000000600082015250565b600061332c601883612011565b9150613337826132f6565b602082019050919050565b6000602082019050818103600083015261335b8161331f565b9050919050565b7f4f6e6c792044414f2063616e2063616c6c20746869732066756e6374696f6e00600082015250565b6000613398601f83612011565b91506133a382613362565b602082019050919050565b600060208201905081810360008301526133c78161338b565b9050919050565b7f506f6c6c206e6f74207375626d69747465640000000000000000000000000000600082015250565b6000613404601283612011565b915061340f826133ce565b602082019050919050565b60006020820190508181036000830152613433816133f7565b9050919050565b7f57726f6e6720706f6c6c20616464726573730000000000000000000000000000600082015250565b6000613470601283612011565b915061347b8261343a565b602082019050919050565b6000602082019050818103600083015261349f81613463565b9050919050565b7f4e6f2066756e647320746f20726566756e640000000000000000000000000000600082015250565b60006134dc601283612011565b91506134e7826134a6565b602082019050919050565b6000602082019050818103600083015261350b816134cf565b9050919050565b7f546f6f206d616e792063686f6963657300000000000000000000000000000000600082015250565b6000613548601083612011565b915061355382613512565b602082019050919050565b600060208201905081810360008301526135778161353b565b9050919050565b7f546f6f206d616e7920746f706963730000000000000000000000000000000000600082015250565b60006135b4600f83612011565b91506135bf8261357e565b602082019050919050565b600060208201905081810360008301526135e3816135a7565b9050919050565b6000819050919050565b600061360f61360a613605846135ea565b613011565b611f9c565b9050919050565b61361f816135f4565b82525050565b600060608201905061363a6000830186613616565b6136476020830185611fa6565b6136546040830184611fa6565b949350505050565b7f4f776e61626c653a206e6577206f776e657220697320746865207a65726f206160008201527f6464726573730000000000000000000000000000000000000000000000000000602082015250565b60006136b8602683612011565b91506136c38261365c565b604082019050919050565b600060208201905081810360008301526136e7816136ab565b9050919050565b7f4f776e61626c653a2063616c6c6572206973206e6f7420746865206f776e6572600082015250565b6000613724602083612011565b915061372f826136ee565b602082019050919050565b6000602082019050818103600083015261375381613717565b9050919050565b7f4e6f7420656e6f7567682066756e647300000000000000000000000000000000600082015250565b6000613790601083612011565b915061379b8261375a565b602082019050919050565b600060208201905081810360008301526137bf81613783565b9050919050565b600081905092915050565b50565b60006137e16000836137c6565b91506137ec826137d1565b600082019050919050565b6000613802826137d4565b9150819050919050565b7f526566756e64206661696c656400000000000000000000000000000000000000600082015250565b6000613842600d83612011565b915061384d8261380c565b602082019050919050565b6000602082019050818103600083015261387181613835565b9050919050565b7f526566756e6420746f206f776e65720000000000000000000000000000000000600082015250565b60006138ae600f83612011565b91506138b982613878565b602082019050919050565b60006060820190506138d960008301856120ff565b6138e66020830184611fa6565b81810360408301526138f7816138a1565b9050939250505056fea2646970667358221220b7e1ca6c526c07fec527985a053a372a471629641d219f09bec86a94043c4f3c64736f6c63430008130033",
  "immutableReferences": {},
  "source": "// SPDX-License-Identifier: MIT\n\npragma solidity 0.8.19;\n\n/**\n@title PollAdmin\n@author ibourn\n@notice This contract allow manage the poll\n@dev The contract inherits from PollView, PollHelpers, Ownable\n@dev (see PollMaster.sol for comments & explanations)\n@inheritdoc Ownable\n\n@todo : add a message to explain the rejection in setPollValidation()\n */\nimport \"./PollHelpers.sol\";\nimport \"./PollView.sol\";\nimport \"./IDAOPollSubmission.sol\";\nimport \"./IPollAdmin.sol\";\nimport \"./IPollValidator.sol\";\n\ncontract PollAdmin is PollView, PollHelpers, IPollAdmin, IPollValidator {\n\n    event PollWithdrawal(address _to, uint _amount, string _message);\n    event PollStatusChange(PollStatus previousStatus, PollStatus newStatus);\n    //no topics in log cause owner may want to not disclose the questions early\n    event TopicsAdded(uint topicsAdded, uint topicsCount, uint totalChoicesCount);\n\n    modifier onlyDao() {\n        require(msg.sender == DAOaddress, 'Only DAO can call this function');\n        _;\n    }\n\n    // :::::::::::::::::::::::::: GETTERS :::::::::::::::::::::::::::::: //\n//ATTENTION MISSING REQUIRE... (like checking if id exist!!!!!)\n    /**\n    @notice This function return the selected choices of topics of a respondent\n    @dev one answer is a uint256 where each bit represent an available choice : 1 is selected, 0 is not selected\n    @param _answerId is the index of the answer in the answers array\n    @return an array of uint representing the selected choices of the respondent (in the order of all choices in topics)\n     */\n    function getSelectedChoicesByAnswer(uint _answerId) public view onlyOwner returns (uint[] memory) {\n        require(pollStatus == PollStatus.PollingEnded, 'Polling not ended');\n        return getSetBitsPositions(answers[_answerId]);\n    }\n  \n    /**\n    @notice get all the answers of the poll\n    @dev answers are packed so each answer is a uint flagging the choices of the respondent\n    @return answers is an array of uint representing the answers of the poll\n     */\n    function getPackedAnswers() external view onlyOwner returns (uint[] memory) {\n                require(pollStatus == PollStatus.PollingEnded, 'Polling not ended');\n        return answers;\n    }\n    \n    /*\n    @todo: optimise the loop (here we acces in the called function to storage), by giving a pointer or copying the array\n     */\n    /**\n    @notice get all the answers of the poll\n    @dev answers are unpacked so each result is the index of a choice selected by a respondent\n    @dev call getSelectedChoicesByAnswer() to get the selected choices of a respondent\n    @dev use answers.length to get the number of respondents\n    @return an array of all respondets answers as an array of uint corresponding to the index of the choices selected by the respondent (reading :[choices][respondents])\n     */\n    function getUnpackedAnswers() external view onlyOwner returns (uint[][] memory) {\n                require(pollStatus == PollStatus.PollingEnded, 'Polling not ended');\n        uint answersCount = answers.length;\n        uint[][] memory _answers = new uint[][](answersCount);\n        for(uint i; i < answersCount; i ++) {\n            _answers[i] = getSelectedChoicesByAnswer(i);\n        }\n        return _answers;\n    }\n\n\n    // :::::::::::::::::::::::::: SETTERS :::::::::::::::::::::::::::::: //\n    /**\n    @notice This function allows to add a topic : a question and its choices\n    @dev the choices are an array of string\n    @param _question is the question of the topic\n    @param _choices is an array of string representing the choices of the topic\n     */\n    function addTopic(string calldata _question, string[] calldata _choices) external onlyOwner {\n        require(pollStatus == PollStatus.PollInitialized, 'Poll already submitted');\n        require(_choices.length <= MAX_CHOICES_LENGTH, 'Too many choices');\n        require(totalChoicesCount + _choices.length <= MAX_TOPICS_LENGTH, 'Too many topics');\n\n        Topic memory topic;\n        topic.firstChoiceIndex = totalChoicesCount;\n        topic.question = _question;\n        topic.choices = _choices;\n        totalChoicesCount += _choices.length;\n        \n        topics.push(topic);\n\n        emit TopicsAdded(1, topics.length, totalChoicesCount);\n    }\n\n\n    // function addTopics(Topic[] calldata _topics) external onlyOwner {\n    //     for (uint i = 0; i < _topics.length; i++) {\n    //         topics.push(_topics[i]);\n    //     }\n\n    //     emit TopicsAdded(_topics.length, topics.length, totalChoicesCount);\n    // }\n\n    /**\n    @notice This function allows to add topics : questions and their choices, in batch\n    @dev structure of choice : [topic choices][topics] / read/write : a.[topic n][choice n] / lenght : a.length == topics.length\n    @param _questions is an array of string representing the questions of the topics\n    @param _choices is an array of array of string representing the choices of the topics\n     */\n    function addTopicsBatch(string[] calldata _questions, string[][] calldata _choices) external onlyOwner {\n        require(_questions.length == _choices.length, 'Arrays must have the same length');\n        uint choicesCount = totalChoicesCount;\n        Topic[] storage currentTopics = topics;\n        for (uint i = 0; i < _questions.length; i++) {\n            Topic memory topic;\n            topic.firstChoiceIndex = choicesCount;\n            topic.question = _questions[i];\n            topic.choices = _choices[i];\n            choicesCount += _choices[i].length;\n            currentTopics.push(topic);\n        }\n        totalChoicesCount = choicesCount;\n\n        emit TopicsAdded(_questions.length, topics.length, totalChoicesCount);\n    }\n\n\n    // :::::::::::::::::::::::::: POLL WORKFLOW :::::::::::::::::::::::::::::: //\n    /**\n    @notice allows the admin to submit the poll to the DAO for validation (validators will check for illegal content...) \n     */\n    function submitPoll() external onlyOwner {\n        require(pollStatus == PollStatus.PollInitialized, 'Poll already submitted');\n    \n        uint amount = amountToValidators + amountToDAO;\n\n        IDAOPollSubmission(validatorAddress).submitPoll{value: amount  }(address(this), amountToValidators, amountToDAO);\n//  DPollPluginValidator(ValidatorAddress).submitPoll{value: amount  }(address(this), amountToValidators, amountToDAO);\n\n        pollStatus = PollStatus.PollSubmitted;  \n\n        emit PollStatusChange(PollStatus.PollInitialized, PollStatus.PollSubmitted);\n    }\n\n\n    /**\n    @notice allows the DAO to validate or reject the poll\n    @dev if the poll is validated, the DAO will pay the validators and the DAO\n    @dev if the poll is rejected, the DAO will refund the owner balance less the validators fees (owner should claim it back later)\n    @dev it set the timestampLimit to the end of the poll and start the poll\n    @param pollAddress is the address of the poll to validate (this contract)\n    @param isValid is a boolean to validate or reject the poll\n     */\n    function setPollValidation(address pollAddress, bool isValid) external payable onlyDao {\n        require(pollStatus == PollStatus.PollSubmitted, 'Poll not submitted');\n        // require(topics.length > 0, 'No topic');\n        require(pollAddress == address(this), 'Wrong poll address'); \n        require(isValid || msg.value >= amountToDAO, 'No funds to refund');\n  \n        if (isValid) {\n            // timestampLimit = block.timestamp + duration;\n            pollStatus = PollStatus.PollingStarted;\n\n        } else {\n            isCanceled = true;\n            pollStatus = PollStatus.PollingEnded;\n        }\n     \n    }\n\n    /**\n    @notice allows the admin to end the poll\n    @dev LATER : delay and number of answers will allow to set requirements to end the Poll by everybody (not only the owner), with incentives to automate the process\n     */\n    function endPoll() external onlyOwner() {\n        require(pollStatus == PollStatus.PollingStarted, 'Polling not started');\n        // require(block.timestamp > timestampLimit || answers.length >= requiredResponseCount, 'Polling not ended');\n       \n        pollStatus = PollStatus.PollingEnded;\n    }\n\n\n    // ::::::::::::::::::::::: FUNDS ::::::::::::::::::::::::::::::::::::::::: //\n    /**\n    @notice allows the admin to withdraw the funds of the poll in case of rejection by the DAO or if the poll end without enough respondents\n     */\n    function claimRefund() external onlyOwner {\n        require(pollStatus == PollStatus.PollingEnded, 'Poll already distributed');\n        _refund();\n    }\n\n//A EFFACER\n    /**\n    // @notice allows to send funds to the DAO and the validators\n    // @dev the amount is split in two : one part for the DAO and one part for the validators\n    // @param _toValidators is the amount to send to the validators\n    // @param _toDAO is the amount to send to the DAO\n    //  */\n    // function _payDAO(uint _toValidators, uint _toDAO) private {\n    //     require(balance >= _toValidators + _toDAO, 'Not enough funds');\n\n    //     uint amount = _toValidators + _toDAO;\n\n    //     balance -= amount;\n\n    //     //FOR TEST waiting for DAO\n    //     (bool res,) = DAOaddress.call{value: amount}(\"from poll\");\n    //     require(res, \"DAO transfer failed\");\n\n    //     //when DAO is ready\n    //     // bool confirmation = DAOaddress.payForPoll{value: amount}(_toValidators, _toDAO);\n    //     // require(res, \"DAO transfer failed\");\n    //     emit PollWithdrawal(DAOaddress, amount, \"DAO and Validators payment\");\n    // }\n\n    /**\n    @notice allows to refund the owner in case of rejection by the DAO or if the poll end without enough respondents\n     */\n    function _refund() private onlyOwner() {\n        require(balance > 0, 'No funds to refund');\n        require(balance <= address(this).balance, 'Not enough funds'); //mismatch between balance and address(this).balance\n        // require(pollStatus == PollStatus.PollingEnded, 'Poll already distributed');\n\n        uint amount = balance;\n        balance = 0;\n        (bool res,) = msg.sender.call{value: amount}(\"\");\n        require(res, \"Refund failed\");\n\n        emit PollWithdrawal(msg.sender, amount, \"Refund to owner\");\n    }\n}",
  "sourcePath": "/home/ibournubuntu/ALYRA/PROJET_FINAL/DPoll/truffle/contracts/PollAdmin.sol",
  "compiler": {
    "name": "solc",
    "version": "0.8.19+commit.7dd6d404.Emscripten.clang"
  },
  "schemaVersion": "3.4.14",
  "updatedAt": "2023-07-25T23:44:32.800Z",
  "devdoc": {
    "kind": "dev",
    "methods": {
      "addTopic(string,string[])": {
        "details": "the choices are an array of string",
        "params": {
          "_choices": "is an array of string representing the choices of the topic",
          "_question": "is the question of the topic"
        }
      },
      "addTopicsBatch(string[],string[][])": {
        "details": "structure of choice : [topic choices][topics] / read/write : a.[topic n][choice n] / lenght : a.length == topics.length",
        "params": {
          "_choices": "is an array of array of string representing the choices of the topics",
          "_questions": "is an array of string representing the questions of the topics"
        }
      },
      "endPoll()": {
        "details": "LATER : delay and number of answers will allow to set requirements to end the Poll by everybody (not only the owner), with incentives to automate the process"
      },
      "getPackedAnswers()": {
        "details": "answers are packed so each answer is a uint flagging the choices of the respondent",
        "returns": {
          "_0": "answers is an array of uint representing the answers of the poll"
        }
      },
      "getSelectedChoicesByAnswer(uint256)": {
        "details": "one answer is a uint256 where each bit represent an available choice : 1 is selected, 0 is not selected",
        "params": {
          "_answerId": "is the index of the answer in the answers array"
        },
        "returns": {
          "_0": "an array of uint representing the selected choices of the respondent (in the order of all choices in topics)"
        }
      },
      "getUnpackedAnswers()": {
        "details": "answers are unpacked so each result is the index of a choice selected by a respondentcall getSelectedChoicesByAnswer() to get the selected choices of a respondentuse answers.length to get the number of respondents",
        "returns": {
          "_0": "an array of all respondets answers as an array of uint corresponding to the index of the choices selected by the respondent (reading :[choices][respondents])"
        }
      },
      "owner()": {
        "details": "Returns the address of the current owner."
      },
      "renounceOwnership()": {
        "details": "Leaves the contract without owner. It will not be possible to call `onlyOwner` functions. Can only be called by the current owner. NOTE: Renouncing ownership will leave the contract without an owner, thereby disabling any functionality that is only available to the owner."
      },
      "setPollValidation(address,bool)": {
        "details": "if the poll is validated, the DAO will pay the validators and the DAOif the poll is rejected, the DAO will refund the owner balance less the validators fees (owner should claim it back later)it set the timestampLimit to the end of the poll and start the poll",
        "params": {
          "isValid": "is a boolean to validate or reject the poll",
          "pollAddress": "is the address of the poll to validate (this contract)"
        }
      },
      "transferOwnership(address)": {
        "details": "Transfers ownership of the contract to a new account (`newOwner`). Can only be called by the current owner."
      }
    },
    "version": 1
  },
  "userdoc": {
    "kind": "user",
    "methods": {
      "addTopic(string,string[])": {
        "notice": "This function allows to add a topic : a question and its choices"
      },
      "addTopicsBatch(string[],string[][])": {
        "notice": "This function allows to add topics : questions and their choices, in batch"
      },
      "claimRefund()": {
        "notice": "allows the admin to withdraw the funds of the poll in case of rejection by the DAO or if the poll end without enough respondents"
      },
      "endPoll()": {
        "notice": "allows the admin to end the poll"
      },
      "getPackedAnswers()": {
        "notice": "get all the answers of the poll"
      },
      "getSelectedChoicesByAnswer(uint256)": {
        "notice": "This function return the selected choices of topics of a respondent"
      },
      "getUnpackedAnswers()": {
        "notice": "get all the answers of the poll"
      },
      "setPollValidation(address,bool)": {
        "notice": "allows the DAO to validate or reject the poll"
      },
      "submitPoll()": {
        "notice": "allows the admin to submit the poll to the DAO for validation (validators will check for illegal content...) "
      }
    },
    "version": 1
  }
}