{
  "contractName": "TestPollHelper",
  "abi": [
    {
      "anonymous": false,
      "inputs": [
        {
          "indexed": true,
          "internalType": "address",
          "name": "previousOwner",
          "type": "address"
        },
        {
          "indexed": true,
          "internalType": "address",
          "name": "newOwner",
          "type": "address"
        }
      ],
      "name": "OwnershipTransferred",
      "type": "event"
    },
    {
      "anonymous": false,
      "inputs": [
        {
          "indexed": false,
          "internalType": "enum PollStorage.PollStatus",
          "name": "previousStatus",
          "type": "uint8"
        },
        {
          "indexed": false,
          "internalType": "enum PollStorage.PollStatus",
          "name": "newStatus",
          "type": "uint8"
        }
      ],
      "name": "PollStatusChange",
      "type": "event"
    },
    {
      "anonymous": false,
      "inputs": [
        {
          "indexed": false,
          "internalType": "address",
          "name": "_to",
          "type": "address"
        },
        {
          "indexed": false,
          "internalType": "uint256",
          "name": "_amount",
          "type": "uint256"
        },
        {
          "indexed": false,
          "internalType": "string",
          "name": "_message",
          "type": "string"
        }
      ],
      "name": "PollWithdrawal",
      "type": "event"
    },
    {
      "anonymous": false,
      "inputs": [
        {
          "indexed": false,
          "internalType": "uint256",
          "name": "topicsAdded",
          "type": "uint256"
        },
        {
          "indexed": false,
          "internalType": "uint256",
          "name": "topicsCount",
          "type": "uint256"
        },
        {
          "indexed": false,
          "internalType": "uint256",
          "name": "totalChoicesCount",
          "type": "uint256"
        }
      ],
      "name": "TopicsAdded",
      "type": "event"
    },
    {
      "inputs": [],
      "name": "DAOaddress",
      "outputs": [
        {
          "internalType": "address",
          "name": "",
          "type": "address"
        }
      ],
      "stateMutability": "view",
      "type": "function"
    },
    {
      "inputs": [],
      "name": "MAX_CHOICES_COUNT",
      "outputs": [
        {
          "internalType": "uint256",
          "name": "",
          "type": "uint256"
        }
      ],
      "stateMutability": "view",
      "type": "function"
    },
    {
      "inputs": [],
      "name": "MAX_CHOICES_LENGTH",
      "outputs": [
        {
          "internalType": "uint256",
          "name": "",
          "type": "uint256"
        }
      ],
      "stateMutability": "view",
      "type": "function"
    },
    {
      "inputs": [],
      "name": "MAX_RESPONDENTS_LENGTH",
      "outputs": [
        {
          "internalType": "uint256",
          "name": "",
          "type": "uint256"
        }
      ],
      "stateMutability": "view",
      "type": "function"
    },
    {
      "inputs": [],
      "name": "MAX_TOPICS_LENGTH",
      "outputs": [
        {
          "internalType": "uint256",
          "name": "",
          "type": "uint256"
        }
      ],
      "stateMutability": "view",
      "type": "function"
    },
    {
      "inputs": [],
      "name": "MIN_POLL_AMOUNT",
      "outputs": [
        {
          "internalType": "uint256",
          "name": "",
          "type": "uint256"
        }
      ],
      "stateMutability": "view",
      "type": "function"
    },
    {
      "inputs": [],
      "name": "MIN_RESPONDENT_AMOUNT",
      "outputs": [
        {
          "internalType": "uint256",
          "name": "",
          "type": "uint256"
        }
      ],
      "stateMutability": "view",
      "type": "function"
    },
    {
      "inputs": [
        {
          "internalType": "uint256[]",
          "name": "_chosenChoices",
          "type": "uint256[]"
        },
        {
          "internalType": "bytes32",
          "name": "_eligibilityProof",
          "type": "bytes32"
        }
      ],
      "name": "addAnswer",
      "outputs": [],
      "stateMutability": "nonpayable",
      "type": "function"
    },
    {
      "inputs": [
        {
          "internalType": "string",
          "name": "_question",
          "type": "string"
        },
        {
          "internalType": "string[]",
          "name": "_choices",
          "type": "string[]"
        }
      ],
      "name": "addTopic",
      "outputs": [],
      "stateMutability": "nonpayable",
      "type": "function"
    },
    {
      "inputs": [
        {
          "internalType": "string[]",
          "name": "_questions",
          "type": "string[]"
        },
        {
          "internalType": "string[][]",
          "name": "_choices",
          "type": "string[][]"
        }
      ],
      "name": "addTopicsBatch",
      "outputs": [],
      "stateMutability": "nonpayable",
      "type": "function"
    },
    {
      "inputs": [],
      "name": "certifierAddress",
      "outputs": [
        {
          "internalType": "address",
          "name": "",
          "type": "address"
        }
      ],
      "stateMutability": "view",
      "type": "function"
    },
    {
      "inputs": [],
      "name": "claimRefund",
      "outputs": [],
      "stateMutability": "nonpayable",
      "type": "function"
    },
    {
      "inputs": [],
      "name": "claimReward",
      "outputs": [],
      "stateMutability": "nonpayable",
      "type": "function"
    },
    {
      "inputs": [],
      "name": "endPoll",
      "outputs": [],
      "stateMutability": "nonpayable",
      "type": "function"
    },
    {
      "inputs": [],
      "name": "getAmountToDAO",
      "outputs": [
        {
          "internalType": "uint256",
          "name": "",
          "type": "uint256"
        }
      ],
      "stateMutability": "view",
      "type": "function"
    },
    {
      "inputs": [],
      "name": "getAmountToRespondent",
      "outputs": [
        {
          "internalType": "uint256",
          "name": "",
          "type": "uint256"
        }
      ],
      "stateMutability": "view",
      "type": "function"
    },
    {
      "inputs": [],
      "name": "getAmountToValidators",
      "outputs": [
        {
          "internalType": "uint256",
          "name": "",
          "type": "uint256"
        }
      ],
      "stateMutability": "view",
      "type": "function"
    },
    {
      "inputs": [],
      "name": "getBalance",
      "outputs": [
        {
          "internalType": "uint256",
          "name": "",
          "type": "uint256"
        }
      ],
      "stateMutability": "view",
      "type": "function"
    },
    {
      "inputs": [],
      "name": "getEligibility",
      "outputs": [
        {
          "internalType": "bool",
          "name": "",
          "type": "bool"
        }
      ],
      "stateMutability": "view",
      "type": "function"
    },
    {
      "inputs": [],
      "name": "getIsCanceled",
      "outputs": [
        {
          "internalType": "bool",
          "name": "",
          "type": "bool"
        }
      ],
      "stateMutability": "view",
      "type": "function"
    },
    {
      "inputs": [],
      "name": "getPackedAnswers",
      "outputs": [
        {
          "internalType": "uint256[]",
          "name": "",
          "type": "uint256[]"
        }
      ],
      "stateMutability": "view",
      "type": "function"
    },
    {
      "inputs": [],
      "name": "getPollInformations",
      "outputs": [
        {
          "internalType": "string",
          "name": "",
          "type": "string"
        },
        {
          "internalType": "string",
          "name": "",
          "type": "string"
        }
      ],
      "stateMutability": "view",
      "type": "function"
    },
    {
      "inputs": [],
      "name": "getPollStatus",
      "outputs": [
        {
          "internalType": "enum PollStorage.PollStatus",
          "name": "",
          "type": "uint8"
        }
      ],
      "stateMutability": "view",
      "type": "function"
    },
    {
      "inputs": [],
      "name": "getPollStatusExt",
      "outputs": [
        {
          "internalType": "uint8",
          "name": "",
          "type": "uint8"
        }
      ],
      "stateMutability": "view",
      "type": "function"
    },
    {
      "inputs": [],
      "name": "getRequiredResponseCount",
      "outputs": [
        {
          "internalType": "uint256",
          "name": "",
          "type": "uint256"
        }
      ],
      "stateMutability": "view",
      "type": "function"
    },
    {
      "inputs": [],
      "name": "getRespondentReward",
      "outputs": [
        {
          "internalType": "uint256",
          "name": "",
          "type": "uint256"
        }
      ],
      "stateMutability": "view",
      "type": "function"
    },
    {
      "inputs": [],
      "name": "getRespondentsCount",
      "outputs": [
        {
          "internalType": "uint256",
          "name": "",
          "type": "uint256"
        }
      ],
      "stateMutability": "view",
      "type": "function"
    },
    {
      "inputs": [
        {
          "internalType": "uint256",
          "name": "_answerId",
          "type": "uint256"
        }
      ],
      "name": "getSelectedChoicesByAnswer",
      "outputs": [
        {
          "internalType": "uint256[]",
          "name": "",
          "type": "uint256[]"
        }
      ],
      "stateMutability": "view",
      "type": "function"
    },
    {
      "inputs": [
        {
          "internalType": "uint256",
          "name": "_id",
          "type": "uint256"
        }
      ],
      "name": "getTopic",
      "outputs": [
        {
          "components": [
            {
              "internalType": "uint256",
              "name": "firstChoiceIndex",
              "type": "uint256"
            },
            {
              "internalType": "string",
              "name": "question",
              "type": "string"
            },
            {
              "internalType": "string[]",
              "name": "choices",
              "type": "string[]"
            }
          ],
          "internalType": "struct PollStorage.Topic",
          "name": "",
          "type": "tuple"
        }
      ],
      "stateMutability": "view",
      "type": "function"
    },
    {
      "inputs": [],
      "name": "getTopics",
      "outputs": [
        {
          "components": [
            {
              "internalType": "uint256",
              "name": "firstChoiceIndex",
              "type": "uint256"
            },
            {
              "internalType": "string",
              "name": "question",
              "type": "string"
            },
            {
              "internalType": "string[]",
              "name": "choices",
              "type": "string[]"
            }
          ],
          "internalType": "struct PollStorage.Topic[]",
          "name": "",
          "type": "tuple[]"
        }
      ],
      "stateMutability": "view",
      "type": "function"
    },
    {
      "inputs": [],
      "name": "getTopicsLength",
      "outputs": [
        {
          "internalType": "uint256",
          "name": "",
          "type": "uint256"
        }
      ],
      "stateMutability": "view",
      "type": "function"
    },
    {
      "inputs": [],
      "name": "getUnpackedAnswers",
      "outputs": [
        {
          "internalType": "uint256[][]",
          "name": "",
          "type": "uint256[][]"
        }
      ],
      "stateMutability": "view",
      "type": "function"
    },
    {
      "inputs": [],
      "name": "owner",
      "outputs": [
        {
          "internalType": "address",
          "name": "",
          "type": "address"
        }
      ],
      "stateMutability": "view",
      "type": "function"
    },
    {
      "inputs": [],
      "name": "renounceOwnership",
      "outputs": [],
      "stateMutability": "nonpayable",
      "type": "function"
    },
    {
      "inputs": [
        {
          "internalType": "address",
          "name": "pollAddress",
          "type": "address"
        },
        {
          "internalType": "bool",
          "name": "isValid",
          "type": "bool"
        }
      ],
      "name": "setPollValidation",
      "outputs": [],
      "stateMutability": "payable",
      "type": "function"
    },
    {
      "inputs": [],
      "name": "submitPoll",
      "outputs": [],
      "stateMutability": "nonpayable",
      "type": "function"
    },
    {
      "inputs": [
        {
          "internalType": "address",
          "name": "newOwner",
          "type": "address"
        }
      ],
      "name": "transferOwnership",
      "outputs": [],
      "stateMutability": "nonpayable",
      "type": "function"
    },
    {
      "inputs": [],
      "name": "validatorAddress",
      "outputs": [
        {
          "internalType": "address",
          "name": "",
          "type": "address"
        }
      ],
      "stateMutability": "view",
      "type": "function"
    },
    {
      "inputs": [
        {
          "internalType": "uint256",
          "name": "_requiredResponseCount",
          "type": "uint256"
        }
      ],
      "name": "setRequiredResponseCount",
      "outputs": [],
      "stateMutability": "nonpayable",
      "type": "function"
    },
    {
      "inputs": [
        {
          "internalType": "uint256",
          "name": "_respondentsCount",
          "type": "uint256"
        }
      ],
      "name": "setRespondentsCount",
      "outputs": [],
      "stateMutability": "nonpayable",
      "type": "function"
    },
    {
      "inputs": [
        {
          "internalType": "string",
          "name": "_pollName",
          "type": "string"
        },
        {
          "internalType": "string",
          "name": "_pollDescription",
          "type": "string"
        }
      ],
      "name": "setPollInformations",
      "outputs": [],
      "stateMutability": "nonpayable",
      "type": "function"
    },
    {
      "inputs": [
        {
          "internalType": "uint256",
          "name": "_balance",
          "type": "uint256"
        }
      ],
      "name": "setBalance",
      "outputs": [],
      "stateMutability": "nonpayable",
      "type": "function"
    },
    {
      "inputs": [
        {
          "internalType": "uint256",
          "name": "_amountToRespondent",
          "type": "uint256"
        }
      ],
      "name": "setAmountToRespondent",
      "outputs": [],
      "stateMutability": "nonpayable",
      "type": "function"
    },
    {
      "inputs": [
        {
          "internalType": "uint256",
          "name": "_amountToDAO",
          "type": "uint256"
        }
      ],
      "name": "setAmountToDAO",
      "outputs": [],
      "stateMutability": "nonpayable",
      "type": "function"
    },
    {
      "inputs": [
        {
          "internalType": "uint256",
          "name": "_amountToValidators",
          "type": "uint256"
        }
      ],
      "name": "setAmountToValidators",
      "outputs": [],
      "stateMutability": "nonpayable",
      "type": "function"
    },
    {
      "inputs": [
        {
          "internalType": "enum PollStorage.PollStatus",
          "name": "_pollStatus",
          "type": "uint8"
        }
      ],
      "name": "setPollStatus",
      "outputs": [],
      "stateMutability": "nonpayable",
      "type": "function"
    },
    {
      "inputs": [
        {
          "internalType": "bool",
          "name": "_isCanceled",
          "type": "bool"
        }
      ],
      "name": "setIsCanceled",
      "outputs": [],
      "stateMutability": "nonpayable",
      "type": "function"
    },
    {
      "inputs": [
        {
          "internalType": "string",
          "name": "_question",
          "type": "string"
        },
        {
          "internalType": "string[]",
          "name": "_choices",
          "type": "string[]"
        }
      ],
      "name": "setTopic",
      "outputs": [],
      "stateMutability": "nonpayable",
      "type": "function"
    },
    {
      "inputs": [
        {
          "internalType": "uint256[]",
          "name": "choicesPerTopic",
          "type": "uint256[]"
        },
        {
          "internalType": "string[]",
          "name": "questions",
          "type": "string[]"
        },
        {
          "internalType": "string[]",
          "name": "choices",
          "type": "string[]"
        }
      ],
      "name": "setTopics",
      "outputs": [],
      "stateMutability": "nonpayable",
      "type": "function"
    },
    {
      "inputs": [
        {
          "internalType": "uint256[]",
          "name": "_answers",
          "type": "uint256[]"
        }
      ],
      "name": "setAnswers",
      "outputs": [],
      "stateMutability": "nonpayable",
      "type": "function"
    },
    {
      "inputs": [
        {
          "internalType": "uint256[]",
          "name": "_chosenChoices",
          "type": "uint256[]"
        }
      ],
      "name": "testSetBitsFromPositions",
      "outputs": [
        {
          "internalType": "uint256",
          "name": "",
          "type": "uint256"
        }
      ],
      "stateMutability": "pure",
      "type": "function"
    },
    {
      "inputs": [
        {
          "internalType": "uint256",
          "name": "_number",
          "type": "uint256"
        }
      ],
      "name": "testGetSetBitsCount",
      "outputs": [
        {
          "internalType": "uint256",
          "name": "",
          "type": "uint256"
        }
      ],
      "stateMutability": "pure",
      "type": "function"
    },
    {
      "inputs": [
        {
          "internalType": "uint256",
          "name": "_number",
          "type": "uint256"
        }
      ],
      "name": "testGetSetBitsPositions",
      "outputs": [
        {
          "internalType": "uint256[]",
          "name": "",
          "type": "uint256[]"
        }
      ],
      "stateMutability": "pure",
      "type": "function"
    }
  ],
  "bytecode": "0x60806040523480156200001157600080fd5b5062000032620000266200003860201b60201c565b6200004060201b60201c565b62000104565b600033905090565b60008060009054906101000a900473ffffffffffffffffffffffffffffffffffffffff169050816000806101000a81548173ffffffffffffffffffffffffffffffffffffffff021916908373ffffffffffffffffffffffffffffffffffffffff1602179055508173ffffffffffffffffffffffffffffffffffffffff168173ffffffffffffffffffffffffffffffffffffffff167f8be0079c531659141344cd1fd0a4f28419497f9722a3daafe3b4186f6b6457e060405160405180910390a35050565b6155a180620001146000396000f3fe6080604052600436106103195760003560e01c806371658896116101ab578063b40b04e0116100f7578063f2fde38b11610095578063f73649f61161006f578063f73649f614610b25578063fb1669ca14610b4e578063fee0117714610b77578063ff4c4e0d14610ba257610319565b8063f2fde38b14610aa6578063f5d4d2a814610acf578063f64b0af914610afa57610319565b8063c3cd058d116100d1578063c3cd058d146109fb578063de83467a14610a24578063e1b9742a14610a61578063ef98cd6214610a7d57610319565b8063b40b04e0146109a4578063b5545a3c146109cd578063b88a802f146109e457610319565b80638da5cb5b11610164578063a61540641161013e578063a6154064146108e8578063a82dcab314610913578063a92a4fae14610950578063af56443a1461097b57610319565b80638da5cb5b14610857578063a16c716714610882578063a3948a0d146108ab57610319565b8063716588961461075b57806376a0db88146107985780638389a3eb146107c1578063883032e8146107ea5780638c062e4e146108155780638d99b2eb1461084057610319565b80633bbe24971161026a5780634b4d7aeb116102235780636a5543e9116101fd5780636a5543e9146106c55780636b126209146106f05780636d02247c1461071b578063715018a61461074457610319565b80634b4d7aeb1461063257806356528cac1461065d5780635b07ff3a1461068857610319565b80633bbe2497146105305780633fe4676e1461055b57806342587e7214610586578063442da8bd146105b157806346b7bc91146105dc57806349cf2eae1461060757610319565b806314ae031d116102d7578063206216c2116102b1578063206216c2146104855780632a0e1c4f146104ae578063383da4b1146104d95780633bb3ba3d1461050457610319565b806314ae031d146104065780631a7316ab1461042f5780631dd17d2f1461045a57610319565b8062cc86bd1461031e5780630256015c1461034957806305f030501461037257806305f9d4ad1461039b57806309405357146103b257806312065fe0146103db575b600080fd5b34801561032a57600080fd5b50610333610bcd565b6040516103409190613132565b60405180910390f35b34801561035557600080fd5b50610370600480360381019061036b91906133e8565b610bd7565b005b34801561037e57600080fd5b5061039960048036038101906103949190613510565b610cd2565b005b3480156103a757600080fd5b506103b0610f2c565b005b3480156103be57600080fd5b506103d960048036038101906103d491906135e9565b6110bd565b005b3480156103e757600080fd5b506103f06110ea565b6040516103fd9190613132565b60405180910390f35b34801561041257600080fd5b5061042d60048036038101906104289190613642565b6110f4565b005b34801561043b57600080fd5b506104446110fe565b604051610451919061368a565b60405180910390f35b34801561046657600080fd5b5061046f6111ca565b60405161047c9190613132565b60405180910390f35b34801561049157600080fd5b506104ac60048036038101906104a79190613642565b6111cf565b005b3480156104ba57600080fd5b506104c3611237565b6040516104d0919061368a565b60405180910390f35b3480156104e557600080fd5b506104ee61124e565b6040516104fb9190613132565b60405180910390f35b34801561051057600080fd5b50610519611253565b604051610527929190613724565b60405180910390f35b34801561053c57600080fd5b5061054561137a565b6040516105529190613132565b60405180910390f35b34801561056757600080fd5b50610570611385565b60405161057d919061379c565b60405180910390f35b34801561059257600080fd5b5061059b6113ab565b6040516105a89190613132565b60405180910390f35b3480156105bd57600080fd5b506105c66113b5565b6040516105d39190613132565b60405180910390f35b3480156105e857600080fd5b506105f16113bf565b6040516105fe9190613132565b60405180910390f35b34801561061357600080fd5b5061061c611406565b604051610629919061379c565b60405180910390f35b34801561063e57600080fd5b5061064761142c565b60405161065491906137d3565b60405180910390f35b34801561066957600080fd5b50610672611455565b60405161067f91906138ac565b60405180910390f35b34801561069457600080fd5b506106af60048036038101906106aa9190613642565b61152a565b6040516106bc91906138ac565b60405180910390f35b3480156106d157600080fd5b506106da61153c565b6040516106e79190613132565b60405180910390f35b3480156106fc57600080fd5b50610705611549565b6040516107129190613132565b60405180910390f35b34801561072757600080fd5b50610742600480360381019061073d9190613642565b61154f565b005b34801561075057600080fd5b50610759611559565b005b34801561076757600080fd5b50610782600480360381019061077d9190613642565b61156d565b60405161078f9190613a31565b60405180910390f35b3480156107a457600080fd5b506107bf60048036038101906107ba9190613a53565b61171e565b005b3480156107cd57600080fd5b506107e860048036038101906107e39190613af6565b611734565b005b3480156107f657600080fd5b506107ff611960565b60405161080c9190613bee565b60405180910390f35b34801561082157600080fd5b5061082a611977565b604051610837919061379c565b60405180910390f35b34801561084c57600080fd5b5061085561199d565b005b34801561086357600080fd5b5061086c611a48565b604051610879919061379c565b60405180910390f35b34801561088e57600080fd5b506108a960048036038101906108a49190613c09565b611a71565b005b3480156108b757600080fd5b506108d260048036038101906108cd9190613642565b611a9b565b6040516108df91906138ac565b60405180910390f35b3480156108f457600080fd5b506108fd611b48565b60405161090a9190613132565b60405180910390f35b34801561091f57600080fd5b5061093a60048036038101906109359190613a53565b611b4e565b6040516109479190613132565b60405180910390f35b34801561095c57600080fd5b50610965611b62565b6040516109729190613132565b60405180910390f35b34801561098757600080fd5b506109a2600480360381019061099d9190613cb6565b611b6f565b005b3480156109b057600080fd5b506109cb60048036038101906109c69190613642565b611b8c565b005b3480156109d957600080fd5b506109e2611b96565b005b3480156109f057600080fd5b506109f9611c1d565b005b348015610a0757600080fd5b50610a226004803603810190610a1d9190613642565b611f0a565b005b348015610a3057600080fd5b50610a4b6004803603810190610a469190613642565b611f14565b604051610a589190613132565b60405180910390f35b610a7b6004803603810190610a769190613d0f565b611f26565b005b348015610a8957600080fd5b50610aa46004803603810190610a9f9190613d4f565b612168565b005b348015610ab257600080fd5b50610acd6004803603810190610ac89190613dd0565b6123c8565b005b348015610adb57600080fd5b50610ae461244b565b604051610af19190613f2e565b60405180910390f35b348015610b0657600080fd5b50610b0f612574565b604051610b1c9190613132565b60405180910390f35b348015610b3157600080fd5b50610b4c6004803603810190610b479190613f86565b61257e565b005b348015610b5a57600080fd5b50610b756004803603810190610b709190613642565b6127b7565b005b348015610b8357600080fd5b50610b8c6127c1565b604051610b9991906140ff565b60405180910390f35b348015610bae57600080fd5b50610bb7612995565b604051610bc49190613132565b60405180910390f35b6000600454905090565b60006005549050610be6612f84565b8181600001818152505084848080601f016020809104026020016040519081016040528093929190818152602001838380828437600081840152601f19601f820116905080830192505050505050508160200181905250828160400181905250825160056000828254610c599190614150565b92505081905550600f819080600181540180825580915050600190039060005260206000209060030201600090919091909150600082015181600001556020820151816001019081610cab9190614390565b506040820151816002019080519060200190610cc8929190612fa5565b5050505050505050565b838390508686905014610d1a576040517f08c379a0000000000000000000000000000000000000000000000000000000008152600401610d11906144ae565b60405180910390fd5b60008484905067ffffffffffffffff811115610d3957610d386131d7565b5b604051908082528060200260200182016040528015610d7257816020015b610d5f612f84565b815260200190600190039081610d575790505b5090506000805b88889050811015610f21576000898983818110610d9957610d986144ce565b5b9050602002013567ffffffffffffffff811115610db957610db86131d7565b5b604051908082528060200260200182016040528015610dec57816020015b6060815260200190600190039081610dd75790505b50905060005b8a8a84818110610e0557610e046144ce565b5b90506020020135811015610eb75786868286610e219190614150565b818110610e3157610e306144ce565b5b9050602002810190610e43919061450c565b8080601f016020809104026020016040519081016040528093929190818152602001838380828437600081840152601f19601f82011690508083019250505050505050828281518110610e9957610e986144ce565b5b60200260200101819052508080610eaf9061456f565b915050610df2565b50898983818110610ecb57610eca6144ce565b5b9050602002013583610edd9190614150565b9250610f0d888884818110610ef557610ef46144ce565b5b9050602002810190610f07919061450c565b83610bd7565b508080610f199061456f565b915050610d79565b505050505050505050565b610f3461299f565b60006005811115610f4857610f47613b77565b5b600d60009054906101000a900460ff166005811115610f6a57610f69613b77565b5b14610faa576040517f08c379a0000000000000000000000000000000000000000000000000000000008152600401610fa190614603565b60405180910390fd5b6000600a54600b54610fbc9190614150565b9050600360009054906101000a900473ffffffffffffffffffffffffffffffffffffffff1673ffffffffffffffffffffffffffffffffffffffff1663b46411c38230600b54600a546040518563ffffffff1660e01b815260040161102293929190614623565b6000604051808303818588803b15801561103b57600080fd5b505af115801561104f573d6000803e3d6000fd5b50505050506001600d60006101000a81548160ff0219169083600581111561107a57611079613b77565b5b02179055507f20f7c135505514c16ee7e30eb8127c87b82a910a6b28e61ad0feb1a77473f4fe600060016040516110b292919061465a565b60405180910390a150565b80600d60006101000a81548160ff021916908360058111156110e2576110e1613b77565b5b021790555050565b6000600954905090565b8060048190555050565b600060405160200161110f90614700565b60405160208183030381529060405280519060200120600260009054906101000a900473ffffffffffffffffffffffffffffffffffffffff1673ffffffffffffffffffffffffffffffffffffffff1663384d405b6008336040518363ffffffff1660e01b8152600401611183929190614799565b602060405180830381865afa1580156111a0573d6000803e3d6000fd5b505050506040513d601f19601f820116820180604052508101906111c491906147de565b14905090565b600a81565b60008167ffffffffffffffff8111156111eb576111ea6131d7565b5b6040519080825280602002602001820160405280156112195781602001602082028036833780820191505090505b5090508060109080519060200190611232929190612ffe565b505050565b6000600d60019054906101000a900460ff16905090565b603281565b60608060066007818054611266906141b3565b80601f0160208091040260200160405190810160405280929190818152602001828054611292906141b3565b80156112df5780601f106112b4576101008083540402835291602001916112df565b820191906000526020600020905b8154815290600101906020018083116112c257829003601f168201915b505050505091508080546112f2906141b3565b80601f016020809104026020016040519081016040528092919081815260200182805461131e906141b3565b801561136b5780601f106113405761010080835404028352916020019161136b565b820191906000526020600020905b81548152906001019060200180831161134e57829003601f168201915b50505050509050915091509091565b66b1a2bc2ec5000081565b600360009054906101000a900473ffffffffffffffffffffffffffffffffffffffff1681565b655af3107a400081565b6000600c54905090565b6000600e60003373ffffffffffffffffffffffffffffffffffffffff1673ffffffffffffffffffffffffffffffffffffffff16815260200190815260200160002054905090565b600260009054906101000a900473ffffffffffffffffffffffffffffffffffffffff1681565b6000600d60009054906101000a900460ff1660058111156114505761144f613b77565b5b905090565b606061145f61299f565b60058081111561147257611471613b77565b5b600d60009054906101000a900460ff16600581111561149457611493613b77565b5b146114d4576040517f08c379a00000000000000000000000000000000000000000000000000000000081526004016114cb90614857565b60405180910390fd5b601080548060200260200160405190810160405280929190818152602001828054801561152057602002820191906000526020600020905b81548152602001906001019080831161150c575b5050505050905090565b606061153582612a1d565b9050919050565b6000601080549050905090565b6103e881565b80600a8190555050565b61156161299f565b61156b6000612ad9565b565b611575612f84565b600f8281548110611589576115886144ce565b5b9060005260206000209060030201604051806060016040529081600082015481526020016001820180546115bc906141b3565b80601f01602080910402602001604051908101604052809291908181526020018280546115e8906141b3565b80156116355780601f1061160a57610100808354040283529160200191611635565b820191906000526020600020905b81548152906001019060200180831161161857829003601f168201915b5050505050815260200160028201805480602002602001604051908101604052809291908181526020016000905b8282101561170f578382906000526020600020018054611682906141b3565b80601f01602080910402602001604051908101604052809291908181526020018280546116ae906141b3565b80156116fb5780601f106116d0576101008083540402835291602001916116fb565b820191906000526020600020905b8154815290600101906020018083116116de57829003601f168201915b505050505081526020019060010190611663565b50505050815250509050919050565b81816010919061172f92919061304b565b505050565b61173c61299f565b818190508484905014611784576040517f08c379a000000000000000000000000000000000000000000000000000000000815260040161177b906148c3565b60405180910390fd5b600060055490506000600f905060005b8686905081101561190b576117a7612f84565b838160000181815250508787838181106117c4576117c36144ce565b5b90506020028101906117d6919061450c565b8080601f016020809104026020016040519081016040528093929190818152602001838380828437600081840152601f19601f820116905080830192505050505050508160200181905250858583818110611834576118336144ce565b5b905060200281019061184691906148e3565b906118519190614946565b816040018190525085858381811061186c5761186b6144ce565b5b905060200281019061187e91906148e3565b90508461188b9190614150565b9350828190806001815401808255809150506001900390600052602060002090600302016000909190919091506000820151816000015560208201518160010190816118d79190614390565b5060408201518160020190805190602001906118f4929190612fa5565b5050505080806119039061456f565b915050611794565b50816005819055507fbf7e450152e82a72724b6c2028c2955b2294c0579262526315aa44919e2be9c586869050600f805490506005546040516119509392919061495b565b60405180910390a1505050505050565b6000600d60009054906101000a900460ff16905090565b600160009054906101000a900473ffffffffffffffffffffffffffffffffffffffff1681565b6119a561299f565b600460058111156119b9576119b8613b77565b5b600d60009054906101000a900460ff1660058111156119db576119da613b77565b5b14611a1b576040517f08c379a0000000000000000000000000000000000000000000000000000000008152600401611a12906149de565b60405180910390fd5b6005600d60006101000a81548160ff02191690836005811115611a4157611a40613b77565b5b0217905550565b60008060009054906101000a900473ffffffffffffffffffffffffffffffffffffffff16905090565b838360069182611a82929190614a09565b50818160079182611a94929190614a09565b5050505050565b6060611aa561299f565b600580811115611ab857611ab7613b77565b5b600d60009054906101000a900460ff166005811115611ada57611ad9613b77565b5b14611b1a576040517f08c379a0000000000000000000000000000000000000000000000000000000008152600401611b1190614857565b60405180910390fd5b611b4160108381548110611b3157611b306144ce565b5b9060005260206000200154612a1d565b9050919050565b61010081565b6000611b5a8383612b9d565b905092915050565b6000600f80549050905090565b80600d60016101000a81548160ff02191690831515021790555050565b80600b8190555050565b611b9e61299f565b600580811115611bb157611bb0613b77565b5b600d60009054906101000a900460ff166005811115611bd357611bd2613b77565b5b14611c13576040517f08c379a0000000000000000000000000000000000000000000000000000000008152600401611c0a90614b25565b60405180910390fd5b611c1b612c7a565b565b600580811115611c3057611c2f613b77565b5b600d60009054906101000a900460ff166005811115611c5257611c51613b77565b5b14611c92576040517f08c379a0000000000000000000000000000000000000000000000000000000008152600401611c8990614857565b60405180910390fd5b6000600e60003373ffffffffffffffffffffffffffffffffffffffff1673ffffffffffffffffffffffffffffffffffffffff1681526020019081526020016000205403611d14576040517f08c379a0000000000000000000000000000000000000000000000000000000008152600401611d0b90614b91565b60405180910390fd5b600e60003373ffffffffffffffffffffffffffffffffffffffff1673ffffffffffffffffffffffffffffffffffffffff168152602001908152602001600020546009541015611d98576040517f08c379a0000000000000000000000000000000000000000000000000000000008152600401611d8f90614bfd565b60405180910390fd5b6000600e60003373ffffffffffffffffffffffffffffffffffffffff1673ffffffffffffffffffffffffffffffffffffffff1681526020019081526020016000205490506000600e60003373ffffffffffffffffffffffffffffffffffffffff1673ffffffffffffffffffffffffffffffffffffffff1681526020019081526020016000208190555060003373ffffffffffffffffffffffffffffffffffffffff1682604051611e4790614c4e565b60006040518083038185875af1925050503d8060008114611e84576040519150601f19603f3d011682016040523d82523d6000602084013e611e89565b606091505b5050905080611ecd576040517f08c379a0000000000000000000000000000000000000000000000000000000008152600401611ec490614caf565b60405180910390fd5b7fbb23de5c4d0ac7c049b292881397f32ddab597aebe0859c2baf41548d5c20c373383604051611efe929190614d1b565b60405180910390a15050565b80600c8190555050565b6000611f1f82612e04565b9050919050565b600160009054906101000a900473ffffffffffffffffffffffffffffffffffffffff1673ffffffffffffffffffffffffffffffffffffffff163373ffffffffffffffffffffffffffffffffffffffff1614611fb6576040517f08c379a0000000000000000000000000000000000000000000000000000000008152600401611fad90614da3565b60405180910390fd5b60016005811115611fca57611fc9613b77565b5b600d60009054906101000a900460ff166005811115611fec57611feb613b77565b5b1461202c576040517f08c379a000000000000000000000000000000000000000000000000000000000815260040161202390614e0f565b60405180910390fd5b3073ffffffffffffffffffffffffffffffffffffffff168273ffffffffffffffffffffffffffffffffffffffff161461209a576040517f08c379a000000000000000000000000000000000000000000000000000000000815260040161209190614e7b565b60405180910390fd5b80806120a85750600a543410155b6120e7576040517f08c379a00000000000000000000000000000000000000000000000000000000081526004016120de90614ee7565b60405180910390fd5b801561211d576004600d60006101000a81548160ff0219169083600581111561211357612112613b77565b5b0217905550612164565b6001600d60016101000a81548160ff0219169083151502179055506005600d60006101000a81548160ff0219169083600581111561215e5761215d613b77565b5b02179055505b5050565b61217061299f565b6000600581111561218457612183613b77565b5b600d60009054906101000a900460ff1660058111156121a6576121a5613b77565b5b146121e6576040517f08c379a00000000000000000000000000000000000000000000000000000000081526004016121dd90614603565b60405180910390fd5b600a82829050111561222d576040517f08c379a000000000000000000000000000000000000000000000000000000000815260040161222490614f53565b60405180910390fd5b6032828290506005546122409190614150565b1115612281576040517f08c379a000000000000000000000000000000000000000000000000000000000815260040161227890614fbf565b60405180910390fd5b612289612f84565b60055481600001818152505084848080601f016020809104026020016040519081016040528093929190818152602001838380828437600081840152601f19601f8201169050808301925050505050505081602001819052508282906122ef9190614946565b8160400181905250828290506005600082825461230c9190614150565b92505081905550600f81908060018154018082558091505060019003906000526020600020906003020160009091909190915060008201518160000155602082015181600101908161235e9190614390565b50604082015181600201908051906020019061237b929190612fa5565b5050507fbf7e450152e82a72724b6c2028c2955b2294c0579262526315aa44919e2be9c56001600f805490506005546040516123b99392919061501a565b60405180910390a15050505050565b6123d061299f565b600073ffffffffffffffffffffffffffffffffffffffff168173ffffffffffffffffffffffffffffffffffffffff160361243f576040517f08c379a0000000000000000000000000000000000000000000000000000000008152600401612436906150c3565b60405180910390fd5b61244881612ad9565b50565b606061245561299f565b60058081111561246857612467613b77565b5b600d60009054906101000a900460ff16600581111561248a57612489613b77565b5b146124ca576040517f08c379a00000000000000000000000000000000000000000000000000000000081526004016124c190614857565b60405180910390fd5b6000601080549050905060008167ffffffffffffffff8111156124f0576124ef6131d7565b5b60405190808252806020026020018201604052801561252357816020015b606081526020019060019003908161250e5790505b50905060005b8281101561256b5761253a81611a9b565b82828151811061254d5761254c6144ce565b5b602002602001018190525080806125639061456f565b915050612529565b50809250505090565b6000600a54905090565b6004600581111561259257612591613b77565b5b600d60009054906101000a900460ff1660058111156125b4576125b3613b77565b5b146125f4576040517f08c379a00000000000000000000000000000000000000000000000000000000081526004016125eb906149de565b60405180910390fd5b6000600e60003373ffffffffffffffffffffffffffffffffffffffff1673ffffffffffffffffffffffffffffffffffffffff1681526020019081526020016000205414612676576040517f08c379a000000000000000000000000000000000000000000000000000000000815260040161266d9061512f565b60405180910390fd5b6005548383905011156126be576040517f08c379a00000000000000000000000000000000000000000000000000000000081526004016126b59061519b565b60405180910390fd5b6126c66110fe565b612705576040517f08c379a00000000000000000000000000000000000000000000000000000000081526004016126fc90615207565b60405180910390fd5b600554838360018686905061271a9190615227565b81811061272a576127296144ce565b5b9050602002013510612771576040517f08c379a0000000000000000000000000000000000000000000000000000000008152600401612768906152a7565b60405180910390fd5b600061277d8484612b9d565b905060108190806001815401808255809150506001900390600052602060002001600090919091909150556127b133612e3d565b50505050565b8060098190555050565b6060600f805480602002602001604051908101604052809291908181526020016000905b8282101561298c578382906000526020600020906003020160405180606001604052908160008201548152602001600182018054612822906141b3565b80601f016020809104026020016040519081016040528092919081815260200182805461284e906141b3565b801561289b5780601f106128705761010080835404028352916020019161289b565b820191906000526020600020905b81548152906001019060200180831161287e57829003601f168201915b5050505050815260200160028201805480602002602001604051908101604052809291908181526020016000905b828210156129755783829060005260206000200180546128e8906141b3565b80601f0160208091040260200160405190810160405280929190818152602001828054612914906141b3565b80156129615780601f1061293657610100808354040283529160200191612961565b820191906000526020600020905b81548152906001019060200180831161294457829003601f168201915b5050505050815260200190600101906128c9565b5050505081525050815260200190600101906127e5565b50505050905090565b6000600b54905090565b6129a7612f7c565b73ffffffffffffffffffffffffffffffffffffffff166129c5611a48565b73ffffffffffffffffffffffffffffffffffffffff1614612a1b576040517f08c379a0000000000000000000000000000000000000000000000000000000008152600401612a1290615313565b60405180910390fd5b565b60606000612a2a83612e04565b905060008167ffffffffffffffff811115612a4857612a476131d7565b5b604051908082528060200260200182016040528015612a765781602001602082028036833780820191505090505b5090506000805b610100811015612acd576000816001901b871614612ac25780838381518110612aa957612aa86144ce565b5b60200260200101818152505081612abf9061456f565b91505b806001019050612a7d565b50819350505050919050565b60008060009054906101000a900473ffffffffffffffffffffffffffffffffffffffff169050816000806101000a81548173ffffffffffffffffffffffffffffffffffffffff021916908373ffffffffffffffffffffffffffffffffffffffff1602179055508173ffffffffffffffffffffffffffffffffffffffff168173ffffffffffffffffffffffffffffffffffffffff167f8be0079c531659141344cd1fd0a4f28419497f9722a3daafe3b4186f6b6457e060405160405180910390a35050565b600080838390509050610100811115612beb576040517f08c379a0000000000000000000000000000000000000000000000000000000008152600401612be29061537f565b60405180910390fd5b60008060005b83811015612c6d57868682818110612c0c57612c0b6144ce565b5b90506020020135925060ff831115612c59576040517f08c379a0000000000000000000000000000000000000000000000000000000008152600401612c50906153eb565b60405180910390fd5b826001901b82179150806001019050612bf1565b5080935050505092915050565b612c8261299f565b600060095411612cc7576040517f08c379a0000000000000000000000000000000000000000000000000000000008152600401612cbe90614ee7565b60405180910390fd5b476009541115612d0c576040517f08c379a0000000000000000000000000000000000000000000000000000000008152600401612d0390614bfd565b60405180910390fd5b60006009549050600060098190555060003373ffffffffffffffffffffffffffffffffffffffff1682604051612d4190614c4e565b60006040518083038185875af1925050503d8060008114612d7e576040519150601f19603f3d011682016040523d82523d6000602084013e612d83565b606091505b5050905080612dc7576040517f08c379a0000000000000000000000000000000000000000000000000000000008152600401612dbe90615457565b60405180910390fd5b7fbb23de5c4d0ac7c049b292881397f32ddab597aebe0859c2baf41548d5c20c373383604051612df89291906154c3565b60405180910390a15050565b60008060008390505b6000811115612e33576001811682612e259190614150565b9150600181901c9050612e0d565b8192505050919050565b6000600e60008373ffffffffffffffffffffffffffffffffffffffff1673ffffffffffffffffffffffffffffffffffffffff1681526020019081526020016000205414612ebf576040517f08c379a0000000000000000000000000000000000000000000000000000000008152600401612eb69061554b565b60405180910390fd5b600c546009541015612f06576040517f08c379a0000000000000000000000000000000000000000000000000000000008152600401612efd90614bfd565b60405180910390fd5b600c5460096000828254612f1a9190615227565b92505081905550600c54600e60008373ffffffffffffffffffffffffffffffffffffffff1673ffffffffffffffffffffffffffffffffffffffff1681526020019081526020016000206000828254612f729190614150565b9250508190555050565b600033905090565b60405180606001604052806000815260200160608152602001606081525090565b828054828255906000526020600020908101928215612fed579160200282015b82811115612fec578251829081612fdc9190614390565b5091602001919060010190612fc5565b5b509050612ffa9190613098565b5090565b82805482825590600052602060002090810192821561303a579160200282015b8281111561303957825182559160200191906001019061301e565b5b50905061304791906130bc565b5090565b828054828255906000526020600020908101928215613087579160200282015b8281111561308657823582559160200191906001019061306b565b5b50905061309491906130bc565b5090565b5b808211156130b857600081816130af91906130d9565b50600101613099565b5090565b5b808211156130d55760008160009055506001016130bd565b5090565b5080546130e5906141b3565b6000825580601f106130f75750613116565b601f01602090049060005260206000209081019061311591906130bc565b5b50565b6000819050919050565b61312c81613119565b82525050565b60006020820190506131476000830184613123565b92915050565b6000604051905090565b600080fd5b600080fd5b600080fd5b600080fd5b600080fd5b60008083601f84011261318657613185613161565b5b8235905067ffffffffffffffff8111156131a3576131a2613166565b5b6020830191508360018202830111156131bf576131be61316b565b5b9250929050565b6000601f19601f8301169050919050565b7f4e487b7100000000000000000000000000000000000000000000000000000000600052604160045260246000fd5b61320f826131c6565b810181811067ffffffffffffffff8211171561322e5761322d6131d7565b5b80604052505050565b600061324161314d565b905061324d8282613206565b919050565b600067ffffffffffffffff82111561326d5761326c6131d7565b5b602082029050602081019050919050565b600080fd5b600067ffffffffffffffff82111561329e5761329d6131d7565b5b6132a7826131c6565b9050602081019050919050565b82818337600083830152505050565b60006132d66132d184613283565b613237565b9050828152602081018484840111156132f2576132f161327e565b5b6132fd8482856132b4565b509392505050565b600082601f83011261331a57613319613161565b5b813561332a8482602086016132c3565b91505092915050565b600061334661334184613252565b613237565b905080838252602082019050602084028301858111156133695761336861316b565b5b835b818110156133b057803567ffffffffffffffff81111561338e5761338d613161565b5b80860161339b8982613305565b8552602085019450505060208101905061336b565b5050509392505050565b600082601f8301126133cf576133ce613161565b5b81356133df848260208601613333565b91505092915050565b60008060006040848603121561340157613400613157565b5b600084013567ffffffffffffffff81111561341f5761341e61315c565b5b61342b86828701613170565b9350935050602084013567ffffffffffffffff81111561344e5761344d61315c565b5b61345a868287016133ba565b9150509250925092565b60008083601f84011261347a57613479613161565b5b8235905067ffffffffffffffff81111561349757613496613166565b5b6020830191508360208202830111156134b3576134b261316b565b5b9250929050565b60008083601f8401126134d0576134cf613161565b5b8235905067ffffffffffffffff8111156134ed576134ec613166565b5b6020830191508360208202830111156135095761350861316b565b5b9250929050565b6000806000806000806060878903121561352d5761352c613157565b5b600087013567ffffffffffffffff81111561354b5761354a61315c565b5b61355789828a01613464565b9650965050602087013567ffffffffffffffff81111561357a5761357961315c565b5b61358689828a016134ba565b9450945050604087013567ffffffffffffffff8111156135a9576135a861315c565b5b6135b589828a016134ba565b92509250509295509295509295565b600681106135d157600080fd5b50565b6000813590506135e3816135c4565b92915050565b6000602082840312156135ff576135fe613157565b5b600061360d848285016135d4565b91505092915050565b61361f81613119565b811461362a57600080fd5b50565b60008135905061363c81613616565b92915050565b60006020828403121561365857613657613157565b5b60006136668482850161362d565b91505092915050565b60008115159050919050565b6136848161366f565b82525050565b600060208201905061369f600083018461367b565b92915050565b600081519050919050565b600082825260208201905092915050565b60005b838110156136df5780820151818401526020810190506136c4565b60008484015250505050565b60006136f6826136a5565b61370081856136b0565b93506137108185602086016136c1565b613719816131c6565b840191505092915050565b6000604082019050818103600083015261373e81856136eb565b9050818103602083015261375281846136eb565b90509392505050565b600073ffffffffffffffffffffffffffffffffffffffff82169050919050565b60006137868261375b565b9050919050565b6137968161377b565b82525050565b60006020820190506137b1600083018461378d565b92915050565b600060ff82169050919050565b6137cd816137b7565b82525050565b60006020820190506137e860008301846137c4565b92915050565b600081519050919050565b600082825260208201905092915050565b6000819050602082019050919050565b61382381613119565b82525050565b6000613835838361381a565b60208301905092915050565b6000602082019050919050565b6000613859826137ee565b61386381856137f9565b935061386e8361380a565b8060005b8381101561389f5781516138868882613829565b975061389183613841565b925050600181019050613872565b5085935050505092915050565b600060208201905081810360008301526138c6818461384e565b905092915050565b600082825260208201905092915050565b60006138ea826136a5565b6138f481856138ce565b93506139048185602086016136c1565b61390d816131c6565b840191505092915050565b600081519050919050565b600082825260208201905092915050565b6000819050602082019050919050565b600061395083836138df565b905092915050565b6000602082019050919050565b600061397082613918565b61397a8185613923565b93508360208202850161398c85613934565b8060005b858110156139c857848403895281516139a98582613944565b94506139b483613958565b925060208a01995050600181019050613990565b50829750879550505050505092915050565b60006060830160008301516139f2600086018261381a565b5060208301518482036020860152613a0a82826138df565b91505060408301518482036040860152613a248282613965565b9150508091505092915050565b60006020820190508181036000830152613a4b81846139da565b905092915050565b60008060208385031215613a6a57613a69613157565b5b600083013567ffffffffffffffff811115613a8857613a8761315c565b5b613a9485828601613464565b92509250509250929050565b60008083601f840112613ab657613ab5613161565b5b8235905067ffffffffffffffff811115613ad357613ad2613166565b5b602083019150836020820283011115613aef57613aee61316b565b5b9250929050565b60008060008060408587031215613b1057613b0f613157565b5b600085013567ffffffffffffffff811115613b2e57613b2d61315c565b5b613b3a878288016134ba565b9450945050602085013567ffffffffffffffff811115613b5d57613b5c61315c565b5b613b6987828801613aa0565b925092505092959194509250565b7f4e487b7100000000000000000000000000000000000000000000000000000000600052602160045260246000fd5b60068110613bb757613bb6613b77565b5b50565b6000819050613bc882613ba6565b919050565b6000613bd882613bba565b9050919050565b613be881613bcd565b82525050565b6000602082019050613c036000830184613bdf565b92915050565b60008060008060408587031215613c2357613c22613157565b5b600085013567ffffffffffffffff811115613c4157613c4061315c565b5b613c4d87828801613170565b9450945050602085013567ffffffffffffffff811115613c7057613c6f61315c565b5b613c7c87828801613170565b925092505092959194509250565b613c938161366f565b8114613c9e57600080fd5b50565b600081359050613cb081613c8a565b92915050565b600060208284031215613ccc57613ccb613157565b5b6000613cda84828501613ca1565b91505092915050565b613cec8161377b565b8114613cf757600080fd5b50565b600081359050613d0981613ce3565b92915050565b60008060408385031215613d2657613d25613157565b5b6000613d3485828601613cfa565b9250506020613d4585828601613ca1565b9150509250929050565b60008060008060408587031215613d6957613d68613157565b5b600085013567ffffffffffffffff811115613d8757613d8661315c565b5b613d9387828801613170565b9450945050602085013567ffffffffffffffff811115613db657613db561315c565b5b613dc2878288016134ba565b925092505092959194509250565b600060208284031215613de657613de5613157565b5b6000613df484828501613cfa565b91505092915050565b600081519050919050565b600082825260208201905092915050565b6000819050602082019050919050565b600082825260208201905092915050565b6000613e45826137ee565b613e4f8185613e29565b9350613e5a8361380a565b8060005b83811015613e8b578151613e728882613829565b9750613e7d83613841565b925050600181019050613e5e565b5085935050505092915050565b6000613ea48383613e3a565b905092915050565b6000602082019050919050565b6000613ec482613dfd565b613ece8185613e08565b935083602082028501613ee085613e19565b8060005b85811015613f1c5784840389528151613efd8582613e98565b9450613f0883613eac565b925060208a01995050600181019050613ee4565b50829750879550505050505092915050565b60006020820190508181036000830152613f488184613eb9565b905092915050565b6000819050919050565b613f6381613f50565b8114613f6e57600080fd5b50565b600081359050613f8081613f5a565b92915050565b600080600060408486031215613f9f57613f9e613157565b5b600084013567ffffffffffffffff811115613fbd57613fbc61315c565b5b613fc986828701613464565b93509350506020613fdc86828701613f71565b9150509250925092565b600081519050919050565b600082825260208201905092915050565b6000819050602082019050919050565b600060608301600083015161402a600086018261381a565b506020830151848203602086015261404282826138df565b9150506040830151848203604086015261405c8282613965565b9150508091505092915050565b60006140758383614012565b905092915050565b6000602082019050919050565b600061409582613fe6565b61409f8185613ff1565b9350836020820285016140b185614002565b8060005b858110156140ed57848403895281516140ce8582614069565b94506140d98361407d565b925060208a019950506001810190506140b5565b50829750879550505050505092915050565b60006020820190508181036000830152614119818461408a565b905092915050565b7f4e487b7100000000000000000000000000000000000000000000000000000000600052601160045260246000fd5b600061415b82613119565b915061416683613119565b925082820190508082111561417e5761417d614121565b5b92915050565b7f4e487b7100000000000000000000000000000000000000000000000000000000600052602260045260246000fd5b600060028204905060018216806141cb57607f821691505b6020821081036141de576141dd614184565b5b50919050565b60008190508160005260206000209050919050565b60006020601f8301049050919050565b600082821b905092915050565b6000600883026142467fffffffffffffffffffffffffffffffffffffffffffffffffffffffffffffffff82614209565b6142508683614209565b95508019841693508086168417925050509392505050565b6000819050919050565b600061428d61428861428384613119565b614268565b613119565b9050919050565b6000819050919050565b6142a783614272565b6142bb6142b382614294565b848454614216565b825550505050565b600090565b6142d06142c3565b6142db81848461429e565b505050565b5b818110156142ff576142f46000826142c8565b6001810190506142e1565b5050565b601f82111561434457614315816141e4565b61431e846141f9565b8101602085101561432d578190505b614341614339856141f9565b8301826142e0565b50505b505050565b600082821c905092915050565b600061436760001984600802614349565b1980831691505092915050565b60006143808383614356565b9150826002028217905092915050565b614399826136a5565b67ffffffffffffffff8111156143b2576143b16131d7565b5b6143bc82546141b3565b6143c7828285614303565b600060209050601f8311600181146143fa57600084156143e8578287015190505b6143f28582614374565b86555061445a565b601f198416614408866141e4565b60005b828110156144305784890151825560018201915060208501945060208101905061440b565b8683101561444d5784890151614449601f891682614356565b8355505b6001600288020188555050505b505050505050565b7f57726f6e67206e756d626572206f66207175657374696f6e7300000000000000600082015250565b60006144986019836136b0565b91506144a382614462565b602082019050919050565b600060208201905081810360008301526144c78161448b565b9050919050565b7f4e487b7100000000000000000000000000000000000000000000000000000000600052603260045260246000fd5b600080fd5b600080fd5b600080fd5b60008083356001602003843603038112614529576145286144fd565b5b80840192508235915067ffffffffffffffff82111561454b5761454a614502565b5b60208301925060018202360383131561456757614566614507565b5b509250929050565b600061457a82613119565b91507fffffffffffffffffffffffffffffffffffffffffffffffffffffffffffffffff82036145ac576145ab614121565b5b600182019050919050565b7f506f6c6c20616c7265616479207375626d697474656400000000000000000000600082015250565b60006145ed6016836136b0565b91506145f8826145b7565b602082019050919050565b6000602082019050818103600083015261461c816145e0565b9050919050565b6000606082019050614638600083018661378d565b6146456020830185613123565b6146526040830184613123565b949350505050565b600060408201905061466f6000830185613bdf565b61467c6020830184613bdf565b9392505050565b600081905092915050565b7f4920636c61696d2074686973206164647265737320697320636572746966696560008201527f6400000000000000000000000000000000000000000000000000000000000000602082015250565b60006146ea602183614683565b91506146f58261468e565b602182019050919050565b600061470b826146dd565b9150819050919050565b60008154614722816141b3565b61472c81866136b0565b94506001821660008114614747576001811461475d57614790565b60ff198316865281151560200286019350614790565b614766856141e4565b60005b8381101561478857815481890152600182019150602081019050614769565b808801955050505b50505092915050565b600060408201905081810360008301526147b38185614715565b90506147c2602083018461378d565b9392505050565b6000815190506147d881613f5a565b92915050565b6000602082840312156147f4576147f3613157565b5b6000614802848285016147c9565b91505092915050565b7f506f6c6c696e67206e6f7420656e646564000000000000000000000000000000600082015250565b60006148416011836136b0565b915061484c8261480b565b602082019050919050565b6000602082019050818103600083015261487081614834565b9050919050565b7f417272617973206d7573742068617665207468652073616d65206c656e677468600082015250565b60006148ad6020836136b0565b91506148b882614877565b602082019050919050565b600060208201905081810360008301526148dc816148a0565b9050919050565b60008083356001602003843603038112614900576148ff6144fd565b5b80840192508235915067ffffffffffffffff82111561492257614921614502565b5b60208301925060208202360383131561493e5761493d614507565b5b509250929050565b6000614953368484613333565b905092915050565b60006060820190506149706000830186613123565b61497d6020830185613123565b61498a6040830184613123565b949350505050565b7f506f6c6c696e67206e6f74207374617274656400000000000000000000000000600082015250565b60006149c86013836136b0565b91506149d382614992565b602082019050919050565b600060208201905081810360008301526149f7816149bb565b9050919050565b600082905092915050565b614a1383836149fe565b67ffffffffffffffff811115614a2c57614a2b6131d7565b5b614a3682546141b3565b614a41828285614303565b6000601f831160018114614a705760008415614a5e578287013590505b614a688582614374565b865550614ad0565b601f198416614a7e866141e4565b60005b82811015614aa657848901358255600182019150602085019450602081019050614a81565b86831015614ac35784890135614abf601f891682614356565b8355505b6001600288020188555050505b50505050505050565b7f506f6c6c20616c72656164792064697374726962757465640000000000000000600082015250565b6000614b0f6018836136b0565b9150614b1a82614ad9565b602082019050919050565b60006020820190508181036000830152614b3e81614b02565b9050919050565b7f416c726561647920636c61696d65640000000000000000000000000000000000600082015250565b6000614b7b600f836136b0565b9150614b8682614b45565b602082019050919050565b60006020820190508181036000830152614baa81614b6e565b9050919050565b7f4e6f7420656e6f7567682066756e647300000000000000000000000000000000600082015250565b6000614be76010836136b0565b9150614bf282614bb1565b602082019050919050565b60006020820190508181036000830152614c1681614bda565b9050919050565b600081905092915050565b50565b6000614c38600083614c1d565b9150614c4382614c28565b600082019050919050565b6000614c5982614c2b565b9150819050919050565b7f5472616e73666572206661696c65640000000000000000000000000000000000600082015250565b6000614c99600f836136b0565b9150614ca482614c63565b602082019050919050565b60006020820190508181036000830152614cc881614c8c565b9050919050565b7f52657761726420636c61696d6564000000000000000000000000000000000000600082015250565b6000614d05600e836136b0565b9150614d1082614ccf565b602082019050919050565b6000606082019050614d30600083018561378d565b614d3d6020830184613123565b8181036040830152614d4e81614cf8565b90509392505050565b7f4f6e6c792044414f2063616e2063616c6c20746869732066756e6374696f6e00600082015250565b6000614d8d601f836136b0565b9150614d9882614d57565b602082019050919050565b60006020820190508181036000830152614dbc81614d80565b9050919050565b7f506f6c6c206e6f74207375626d69747465640000000000000000000000000000600082015250565b6000614df96012836136b0565b9150614e0482614dc3565b602082019050919050565b60006020820190508181036000830152614e2881614dec565b9050919050565b7f57726f6e6720706f6c6c20616464726573730000000000000000000000000000600082015250565b6000614e656012836136b0565b9150614e7082614e2f565b602082019050919050565b60006020820190508181036000830152614e9481614e58565b9050919050565b7f4e6f2066756e647320746f20726566756e640000000000000000000000000000600082015250565b6000614ed16012836136b0565b9150614edc82614e9b565b602082019050919050565b60006020820190508181036000830152614f0081614ec4565b9050919050565b7f546f6f206d616e792063686f6963657300000000000000000000000000000000600082015250565b6000614f3d6010836136b0565b9150614f4882614f07565b602082019050919050565b60006020820190508181036000830152614f6c81614f30565b9050919050565b7f546f6f206d616e7920746f706963730000000000000000000000000000000000600082015250565b6000614fa9600f836136b0565b9150614fb482614f73565b602082019050919050565b60006020820190508181036000830152614fd881614f9c565b9050919050565b6000819050919050565b6000615004614fff614ffa84614fdf565b614268565b613119565b9050919050565b61501481614fe9565b82525050565b600060608201905061502f600083018661500b565b61503c6020830185613123565b6150496040830184613123565b949350505050565b7f4f776e61626c653a206e6577206f776e657220697320746865207a65726f206160008201527f6464726573730000000000000000000000000000000000000000000000000000602082015250565b60006150ad6026836136b0565b91506150b882615051565b604082019050919050565b600060208201905081810360008301526150dc816150a0565b9050919050565b7f416c726561647920616e73776572656400000000000000000000000000000000600082015250565b60006151196010836136b0565b9150615124826150e3565b602082019050919050565b600060208201905081810360008301526151488161510c565b9050919050565b7f57726f6e67206e756d626572206f6620616e7377657273000000000000000000600082015250565b60006151856017836136b0565b91506151908261514f565b602082019050919050565b600060208201905081810360008301526151b481615178565b9050919050565b7f4e6f7420656c696769626c650000000000000000000000000000000000000000600082015250565b60006151f1600c836136b0565b91506151fc826151bb565b602082019050919050565b60006020820190508181036000830152615220816151e4565b9050919050565b600061523282613119565b915061523d83613119565b925082820390508181111561525557615254614121565b5b92915050565b7f416e73776572206f7574206f662072616e676500000000000000000000000000600082015250565b60006152916013836136b0565b915061529c8261525b565b602082019050919050565b600060208201905081810360008301526152c081615284565b9050919050565b7f4f776e61626c653a2063616c6c6572206973206e6f7420746865206f776e6572600082015250565b60006152fd6020836136b0565b9150615308826152c7565b602082019050919050565b6000602082019050818103600083015261532c816152f0565b9050919050565b7f546f6f206d616e79206269747320746f207365742e0000000000000000000000600082015250565b60006153696015836136b0565b915061537482615333565b602082019050919050565b600060208201905081810360008301526153988161535c565b9050919050565b7f42697420746f20736574206f7574206f662072616e67652e0000000000000000600082015250565b60006153d56018836136b0565b91506153e08261539f565b602082019050919050565b60006020820190508181036000830152615404816153c8565b9050919050565b7f526566756e64206661696c656400000000000000000000000000000000000000600082015250565b6000615441600d836136b0565b915061544c8261540b565b602082019050919050565b6000602082019050818103600083015261547081615434565b9050919050565b7f526566756e6420746f206f776e65720000000000000000000000000000000000600082015250565b60006154ad600f836136b0565b91506154b882615477565b602082019050919050565b60006060820190506154d8600083018561378d565b6154e56020830184613123565b81810360408301526154f6816154a0565b90509392505050565b7f416c726561647920757064617465640000000000000000000000000000000000600082015250565b6000615535600f836136b0565b9150615540826154ff565b602082019050919050565b6000602082019050818103600083015261556481615528565b905091905056fea26469706673582212206cddc6faf66be731c0258a436c1a7d256fbdf5508ecb740001f3b8d9be915f3764736f6c63430008130033",
  "immutableReferences": {},
  "source": "// SPDX-License-Identifier: MIT\n\npragma solidity 0.8.19;\n\nimport \"../node_modules/@openzeppelin/contracts/proxy/Clones.sol\";\nimport \"../node_modules/@openzeppelin/contracts/access/Ownable.sol\";\nimport \"./IPollInitiator.sol\"; \nimport \"./PollMaster.sol\";\n\n/*\nThis contract is not intended to be deployed on the mainnet, it is only used to test internals functions and helpers of Poll contracts\n*/\n/**\n@title TestPollHelper\n@author ibourn\n@notice This contract is not intended to be deployed on the mainnet, it is only used to test internals functions and helpers of Poll contracts\n@dev The contract inherits from PollUser (and so from PollAdmin, PollView, PollHelpers, PollStorage)\n@dev each internal function of PollMaster will be called in external functions named as 'test' + the name of the function to test\n@dev setters are added to test the storage and getters before the use by other calinng function in the regular process of the poll\n */\ncontract TestPollHelper is PollUser {\n\n\n    // ::::::::::::::::::::::: MOCKED SETTERS TO TEST EXTERNAL GETTERS in PollView :::::::::::::::::::::::::::::::::: //\n    // function setTimestampLimit(uint _timestampLimit) external {\n    //     timestampLimit = _timestampLimit;\n    // }\n\n    function setRequiredResponseCount(uint _requiredResponseCount) external {\n        requiredResponseCount = _requiredResponseCount;\n    }\n\n    function setRespondentsCount(uint _respondentsCount) external {\n        uint256[] memory _answers = new uint256[](_respondentsCount);\n        answers = _answers;\n    }\n\n    function setPollInformations(string calldata _pollName, string calldata _pollDescription) external {\n        pollName = _pollName;\n        pollDescription = _pollDescription;\n    }\n\n    function setBalance(uint _balance) external {\n        balance = _balance;\n    }\n\n    function setAmountToRespondent(uint _amountToRespondent) external {\n        amountToRespondent = _amountToRespondent;\n    }\n\n    function setAmountToDAO(uint _amountToDAO) external {\n        amountToDAO = _amountToDAO;\n    }\n\n    function setAmountToValidators(uint _amountToValidators) external {\n        amountToValidators = _amountToValidators;\n    }\n\n    function setPollStatus(PollStatus _pollStatus) external {\n        pollStatus = _pollStatus;\n    }\n\n    function setIsCanceled(bool _isCanceled) external {\n        isCanceled = _isCanceled;\n    }\n\n    // function setTopics(Topic[] calldata _topics) external {\n    //     topics = _topics;\n    // }\n    function setTopic(string calldata _question, string[] memory _choices) public {\n        uint choiceCount = totalChoicesCount;\n        Topic memory topic;\n        topic.firstChoiceIndex = choiceCount;\n        topic.question = _question;\n        topic.choices = _choices;\n        totalChoicesCount += _choices.length;\n        topics.push(topic);\n    }\n\n    function setTopics(uint[] calldata choicesPerTopic, string[] calldata questions, string[] calldata choices) external {\n        require(choicesPerTopic.length == questions.length, 'Wrong number of questions');\n        Topic[] memory _topics = new Topic[](questions.length);\n        uint counter =0;\n        for (uint i = 0; i < choicesPerTopic.length; i++) {\n                          string[] memory newchoices = new string[](choicesPerTopic[i]);\n\n            for (uint j = 0; j < choicesPerTopic[i]; j++) {\n              newchoices[j] = choices[counter + j];\n            }\n            counter += choicesPerTopic[i];\n            setTopic(questions[i], newchoices);\n        }\n    }\n\n    function setAnswers(uint[] calldata _answers) external {\n        answers = _answers;\n    }\n\n \n    // ::::::::::::::::::::::: EXTERNAL FUNCTION TO TEST PollHelper :::::::::::::::::::::::::::::::::::::::::::::::::::: //\n\n    function testSetBitsFromPositions(uint[] calldata _chosenChoices) external pure returns(uint256) {\n        return setBitsFromPositions(_chosenChoices);\n    }\n\n    function testGetSetBitsCount(uint256 _number) external pure returns(uint256) {\n        return getSetBitsCount(_number);\n    }\n\n    function testGetSetBitsPositions(uint256 _number) external pure returns(uint256[] memory) {\n        return getSetBitsPositions(_number);\n    }\n\n\n}",
  "sourcePath": "/home/ibournubuntu/ALYRA/PROJET_FINAL/DPoll/truffle/contracts/TestPollHelper.sol",
  "compiler": {
    "name": "solc",
    "version": "0.8.19+commit.7dd6d404.Emscripten.clang"
  },
  "schemaVersion": "3.4.14",
  "updatedAt": "2023-07-25T23:44:32.841Z",
  "devdoc": {
    "author": "ibourn",
    "details": "The contract inherits from PollUser (and so from PollAdmin, PollView, PollHelpers, PollStorage)each internal function of PollMaster will be called in external functions named as 'test' + the name of the function to testsetters are added to test the storage and getters before the use by other calinng function in the regular process of the poll",
    "kind": "dev",
    "methods": {
      "addAnswer(uint256[],bytes32)": {
        "details": "it update the balance of the respondent to allow him to claim the rewardindex of choices start from 0 and should be ordered as the choices in the topics in order to revert earlier in case of invalid answer (function in helpers will revert later if not)",
        "params": {
          "_chosenChoices": "is an array of uint representing the index of the choices chosen by the respondent (in the order of the all choices and starting from 0)"
        }
      },
      "addTopic(string,string[])": {
        "details": "the choices are an array of string",
        "params": {
          "_choices": "is an array of string representing the choices of the topic",
          "_question": "is the question of the topic"
        }
      },
      "addTopicsBatch(string[],string[][])": {
        "details": "structure of choice : [topic choices][topics] / read/write : a.[topic n][choice n] / lenght : a.length == topics.length",
        "params": {
          "_choices": "is an array of array of string representing the choices of the topics",
          "_questions": "is an array of string representing the questions of the topics"
        }
      },
      "claimReward()": {
        "details": "it send the reward to the respondent"
      },
      "endPoll()": {
        "details": "LATER : delay and number of answers will allow to set requirements to end the Poll by everybody (not only the owner), with incentives to automate the process"
      },
      "getPackedAnswers()": {
        "details": "answers are packed so each answer is a uint flagging the choices of the respondent",
        "returns": {
          "_0": "answers is an array of uint representing the answers of the poll"
        }
      },
      "getSelectedChoicesByAnswer(uint256)": {
        "details": "one answer is a uint256 where each bit represent an available choice : 1 is selected, 0 is not selected",
        "params": {
          "_answerId": "is the index of the answer in the answers array"
        },
        "returns": {
          "_0": "an array of uint representing the selected choices of the respondent (in the order of all choices in topics)"
        }
      },
      "getUnpackedAnswers()": {
        "details": "answers are unpacked so each result is the index of a choice selected by a respondentcall getSelectedChoicesByAnswer() to get the selected choices of a respondentuse answers.length to get the number of respondents",
        "returns": {
          "_0": "an array of all respondets answers as an array of uint corresponding to the index of the choices selected by the respondent (reading :[choices][respondents])"
        }
      },
      "owner()": {
        "details": "Returns the address of the current owner."
      },
      "renounceOwnership()": {
        "details": "Leaves the contract without owner. It will not be possible to call `onlyOwner` functions. Can only be called by the current owner. NOTE: Renouncing ownership will leave the contract without an owner, thereby disabling any functionality that is only available to the owner."
      },
      "setPollValidation(address,bool)": {
        "details": "if the poll is validated, the DAO will pay the validators and the DAOif the poll is rejected, the DAO will refund the owner balance less the validators fees (owner should claim it back later)it set the timestampLimit to the end of the poll and start the poll",
        "params": {
          "isValid": "is a boolean to validate or reject the poll",
          "pollAddress": "is the address of the poll to validate (this contract)"
        }
      },
      "transferOwnership(address)": {
        "details": "Transfers ownership of the contract to a new account (`newOwner`). Can only be called by the current owner."
      }
    },
    "title": "TestPollHelper",
    "version": 1
  },
  "userdoc": {
    "kind": "user",
    "methods": {
      "addAnswer(uint256[],bytes32)": {
        "notice": "This function allow to answer to the poll"
      },
      "addTopic(string,string[])": {
        "notice": "This function allows to add a topic : a question and its choices"
      },
      "addTopicsBatch(string[],string[][])": {
        "notice": "This function allows to add topics : questions and their choices, in batch"
      },
      "claimRefund()": {
        "notice": "allows the admin to withdraw the funds of the poll in case of rejection by the DAO or if the poll end without enough respondents"
      },
      "claimReward()": {
        "notice": "This function allow to claim the reward"
      },
      "endPoll()": {
        "notice": "allows the admin to end the poll"
      },
      "getPackedAnswers()": {
        "notice": "get all the answers of the poll"
      },
      "getSelectedChoicesByAnswer(uint256)": {
        "notice": "This function return the selected choices of topics of a respondent"
      },
      "getUnpackedAnswers()": {
        "notice": "get all the answers of the poll"
      },
      "setPollValidation(address,bool)": {
        "notice": "allows the DAO to validate or reject the poll"
      },
      "submitPoll()": {
        "notice": "allows the admin to submit the poll to the DAO for validation (validators will check for illegal content...) "
      }
    },
    "notice": "This contract is not intended to be deployed on the mainnet, it is only used to test internals functions and helpers of Poll contracts",
    "version": 1
  }
}