{
  "contractName": "TestPollHelper",
  "abi": [
    {
      "anonymous": false,
      "inputs": [
        {
          "indexed": true,
          "internalType": "address",
          "name": "previousOwner",
          "type": "address"
        },
        {
          "indexed": true,
          "internalType": "address",
          "name": "newOwner",
          "type": "address"
        }
      ],
      "name": "OwnershipTransferred",
      "type": "event"
    },
    {
      "anonymous": false,
      "inputs": [
        {
          "indexed": false,
          "internalType": "enum PollStorage.PollStatus",
          "name": "previousStatus",
          "type": "uint8"
        },
        {
          "indexed": false,
          "internalType": "enum PollStorage.PollStatus",
          "name": "newStatus",
          "type": "uint8"
        }
      ],
      "name": "PollStatusChange",
      "type": "event"
    },
    {
      "anonymous": false,
      "inputs": [
        {
          "indexed": false,
          "internalType": "address",
          "name": "_to",
          "type": "address"
        },
        {
          "indexed": false,
          "internalType": "uint256",
          "name": "_amount",
          "type": "uint256"
        },
        {
          "indexed": false,
          "internalType": "string",
          "name": "_message",
          "type": "string"
        }
      ],
      "name": "PollWithdrawal",
      "type": "event"
    },
    {
      "anonymous": false,
      "inputs": [
        {
          "indexed": false,
          "internalType": "uint256",
          "name": "topicsAdded",
          "type": "uint256"
        },
        {
          "indexed": false,
          "internalType": "uint256",
          "name": "topicsCount",
          "type": "uint256"
        },
        {
          "indexed": false,
          "internalType": "uint256",
          "name": "totalChoicesCount",
          "type": "uint256"
        }
      ],
      "name": "TopicsAdded",
      "type": "event"
    },
    {
      "inputs": [],
      "name": "DAOaddress",
      "outputs": [
        {
          "internalType": "address",
          "name": "",
          "type": "address"
        }
      ],
      "stateMutability": "view",
      "type": "function"
    },
    {
      "inputs": [],
      "name": "MAX_CHOICES_COUNT",
      "outputs": [
        {
          "internalType": "uint256",
          "name": "",
          "type": "uint256"
        }
      ],
      "stateMutability": "view",
      "type": "function"
    },
    {
      "inputs": [],
      "name": "MAX_CHOICES_LENGTH",
      "outputs": [
        {
          "internalType": "uint256",
          "name": "",
          "type": "uint256"
        }
      ],
      "stateMutability": "view",
      "type": "function"
    },
    {
      "inputs": [],
      "name": "MAX_RESPONDENTS_LENGTH",
      "outputs": [
        {
          "internalType": "uint256",
          "name": "",
          "type": "uint256"
        }
      ],
      "stateMutability": "view",
      "type": "function"
    },
    {
      "inputs": [],
      "name": "MAX_TOPICS_LENGTH",
      "outputs": [
        {
          "internalType": "uint256",
          "name": "",
          "type": "uint256"
        }
      ],
      "stateMutability": "view",
      "type": "function"
    },
    {
      "inputs": [],
      "name": "MIN_POLL_AMOUNT",
      "outputs": [
        {
          "internalType": "uint256",
          "name": "",
          "type": "uint256"
        }
      ],
      "stateMutability": "view",
      "type": "function"
    },
    {
      "inputs": [],
      "name": "MIN_RESPONDENT_AMOUNT",
      "outputs": [
        {
          "internalType": "uint256",
          "name": "",
          "type": "uint256"
        }
      ],
      "stateMutability": "view",
      "type": "function"
    },
    {
      "inputs": [
        {
          "internalType": "uint256[]",
          "name": "_chosenChoices",
          "type": "uint256[]"
        },
        {
          "internalType": "bytes32",
          "name": "_eligibilityProof",
          "type": "bytes32"
        }
      ],
      "name": "addAnswer",
      "outputs": [],
      "stateMutability": "nonpayable",
      "type": "function"
    },
    {
      "inputs": [
        {
          "internalType": "string",
          "name": "_question",
          "type": "string"
        },
        {
          "internalType": "string[]",
          "name": "_choices",
          "type": "string[]"
        }
      ],
      "name": "addTopic",
      "outputs": [],
      "stateMutability": "nonpayable",
      "type": "function"
    },
    {
      "inputs": [
        {
          "internalType": "string[]",
          "name": "_questions",
          "type": "string[]"
        },
        {
          "internalType": "string[][]",
          "name": "_choices",
          "type": "string[][]"
        }
      ],
      "name": "addTopicsBatch",
      "outputs": [],
      "stateMutability": "nonpayable",
      "type": "function"
    },
    {
      "inputs": [],
      "name": "certifierAddress",
      "outputs": [
        {
          "internalType": "address",
          "name": "",
          "type": "address"
        }
      ],
      "stateMutability": "view",
      "type": "function"
    },
    {
      "inputs": [],
      "name": "claimRefund",
      "outputs": [],
      "stateMutability": "nonpayable",
      "type": "function"
    },
    {
      "inputs": [],
      "name": "claimReward",
      "outputs": [],
      "stateMutability": "nonpayable",
      "type": "function"
    },
    {
      "inputs": [],
      "name": "endPoll",
      "outputs": [],
      "stateMutability": "nonpayable",
      "type": "function"
    },
    {
      "inputs": [],
      "name": "getAmountToDAO",
      "outputs": [
        {
          "internalType": "uint256",
          "name": "",
          "type": "uint256"
        }
      ],
      "stateMutability": "view",
      "type": "function"
    },
    {
      "inputs": [],
      "name": "getAmountToRespondent",
      "outputs": [
        {
          "internalType": "uint256",
          "name": "",
          "type": "uint256"
        }
      ],
      "stateMutability": "view",
      "type": "function"
    },
    {
      "inputs": [],
      "name": "getAmountToValidators",
      "outputs": [
        {
          "internalType": "uint256",
          "name": "",
          "type": "uint256"
        }
      ],
      "stateMutability": "view",
      "type": "function"
    },
    {
      "inputs": [],
      "name": "getBalance",
      "outputs": [
        {
          "internalType": "uint256",
          "name": "",
          "type": "uint256"
        }
      ],
      "stateMutability": "view",
      "type": "function"
    },
    {
      "inputs": [],
      "name": "getEligibility",
      "outputs": [
        {
          "internalType": "bool",
          "name": "",
          "type": "bool"
        }
      ],
      "stateMutability": "view",
      "type": "function"
    },
    {
      "inputs": [],
      "name": "getIsCanceled",
      "outputs": [
        {
          "internalType": "bool",
          "name": "",
          "type": "bool"
        }
      ],
      "stateMutability": "view",
      "type": "function"
    },
    {
      "inputs": [],
      "name": "getPackedAnswers",
      "outputs": [
        {
          "internalType": "uint256[]",
          "name": "",
          "type": "uint256[]"
        }
      ],
      "stateMutability": "view",
      "type": "function"
    },
    {
      "inputs": [],
      "name": "getPollInformations",
      "outputs": [
        {
          "internalType": "string",
          "name": "",
          "type": "string"
        },
        {
          "internalType": "string",
          "name": "",
          "type": "string"
        }
      ],
      "stateMutability": "view",
      "type": "function"
    },
    {
      "inputs": [],
      "name": "getPollStatus",
      "outputs": [
        {
          "internalType": "enum PollStorage.PollStatus",
          "name": "",
          "type": "uint8"
        }
      ],
      "stateMutability": "view",
      "type": "function"
    },
    {
      "inputs": [],
      "name": "getPollStatusExt",
      "outputs": [
        {
          "internalType": "uint8",
          "name": "",
          "type": "uint8"
        }
      ],
      "stateMutability": "view",
      "type": "function"
    },
    {
      "inputs": [],
      "name": "getRequiredResponseCount",
      "outputs": [
        {
          "internalType": "uint256",
          "name": "",
          "type": "uint256"
        }
      ],
      "stateMutability": "view",
      "type": "function"
    },
    {
      "inputs": [],
      "name": "getRespondentReward",
      "outputs": [
        {
          "internalType": "uint256",
          "name": "",
          "type": "uint256"
        }
      ],
      "stateMutability": "view",
      "type": "function"
    },
    {
      "inputs": [],
      "name": "getRespondentsCount",
      "outputs": [
        {
          "internalType": "uint256",
          "name": "",
          "type": "uint256"
        }
      ],
      "stateMutability": "view",
      "type": "function"
    },
    {
      "inputs": [
        {
          "internalType": "uint256",
          "name": "_answerId",
          "type": "uint256"
        }
      ],
      "name": "getSelectedChoicesByAnswer",
      "outputs": [
        {
          "internalType": "uint256[]",
          "name": "",
          "type": "uint256[]"
        }
      ],
      "stateMutability": "view",
      "type": "function"
    },
    {
      "inputs": [
        {
          "internalType": "uint256",
          "name": "_id",
          "type": "uint256"
        }
      ],
      "name": "getTopic",
      "outputs": [
        {
          "components": [
            {
              "internalType": "uint256",
              "name": "firstChoiceIndex",
              "type": "uint256"
            },
            {
              "internalType": "string",
              "name": "question",
              "type": "string"
            },
            {
              "internalType": "string[]",
              "name": "choices",
              "type": "string[]"
            }
          ],
          "internalType": "struct PollStorage.Topic",
          "name": "",
          "type": "tuple"
        }
      ],
      "stateMutability": "view",
      "type": "function"
    },
    {
      "inputs": [],
      "name": "getTopics",
      "outputs": [
        {
          "components": [
            {
              "internalType": "uint256",
              "name": "firstChoiceIndex",
              "type": "uint256"
            },
            {
              "internalType": "string",
              "name": "question",
              "type": "string"
            },
            {
              "internalType": "string[]",
              "name": "choices",
              "type": "string[]"
            }
          ],
          "internalType": "struct PollStorage.Topic[]",
          "name": "",
          "type": "tuple[]"
        }
      ],
      "stateMutability": "view",
      "type": "function"
    },
    {
      "inputs": [],
      "name": "getTopicsLength",
      "outputs": [
        {
          "internalType": "uint256",
          "name": "",
          "type": "uint256"
        }
      ],
      "stateMutability": "view",
      "type": "function"
    },
    {
      "inputs": [],
      "name": "getUnpackedAnswers",
      "outputs": [
        {
          "internalType": "uint256[][]",
          "name": "",
          "type": "uint256[][]"
        }
      ],
      "stateMutability": "view",
      "type": "function"
    },
    {
      "inputs": [],
      "name": "owner",
      "outputs": [
        {
          "internalType": "address",
          "name": "",
          "type": "address"
        }
      ],
      "stateMutability": "view",
      "type": "function"
    },
    {
      "inputs": [],
      "name": "renounceOwnership",
      "outputs": [],
      "stateMutability": "nonpayable",
      "type": "function"
    },
    {
      "inputs": [
        {
          "internalType": "address",
          "name": "pollAddress",
          "type": "address"
        },
        {
          "internalType": "bool",
          "name": "isValid",
          "type": "bool"
        }
      ],
      "name": "setPollValidation",
      "outputs": [],
      "stateMutability": "payable",
      "type": "function"
    },
    {
      "inputs": [],
      "name": "submitPoll",
      "outputs": [],
      "stateMutability": "nonpayable",
      "type": "function"
    },
    {
      "inputs": [
        {
          "internalType": "address",
          "name": "newOwner",
          "type": "address"
        }
      ],
      "name": "transferOwnership",
      "outputs": [],
      "stateMutability": "nonpayable",
      "type": "function"
    },
    {
      "inputs": [
        {
          "internalType": "uint256",
          "name": "_requiredResponseCount",
          "type": "uint256"
        }
      ],
      "name": "setRequiredResponseCount",
      "outputs": [],
      "stateMutability": "nonpayable",
      "type": "function"
    },
    {
      "inputs": [
        {
          "internalType": "uint256",
          "name": "_respondentsCount",
          "type": "uint256"
        }
      ],
      "name": "setRespondentsCount",
      "outputs": [],
      "stateMutability": "nonpayable",
      "type": "function"
    },
    {
      "inputs": [
        {
          "internalType": "string",
          "name": "_pollName",
          "type": "string"
        },
        {
          "internalType": "string",
          "name": "_pollDescription",
          "type": "string"
        }
      ],
      "name": "setPollInformations",
      "outputs": [],
      "stateMutability": "nonpayable",
      "type": "function"
    },
    {
      "inputs": [
        {
          "internalType": "uint256",
          "name": "_balance",
          "type": "uint256"
        }
      ],
      "name": "setBalance",
      "outputs": [],
      "stateMutability": "nonpayable",
      "type": "function"
    },
    {
      "inputs": [
        {
          "internalType": "uint256",
          "name": "_amountToRespondent",
          "type": "uint256"
        }
      ],
      "name": "setAmountToRespondent",
      "outputs": [],
      "stateMutability": "nonpayable",
      "type": "function"
    },
    {
      "inputs": [
        {
          "internalType": "uint256",
          "name": "_amountToDAO",
          "type": "uint256"
        }
      ],
      "name": "setAmountToDAO",
      "outputs": [],
      "stateMutability": "nonpayable",
      "type": "function"
    },
    {
      "inputs": [
        {
          "internalType": "uint256",
          "name": "_amountToValidators",
          "type": "uint256"
        }
      ],
      "name": "setAmountToValidators",
      "outputs": [],
      "stateMutability": "nonpayable",
      "type": "function"
    },
    {
      "inputs": [
        {
          "internalType": "enum PollStorage.PollStatus",
          "name": "_pollStatus",
          "type": "uint8"
        }
      ],
      "name": "setPollStatus",
      "outputs": [],
      "stateMutability": "nonpayable",
      "type": "function"
    },
    {
      "inputs": [
        {
          "internalType": "bool",
          "name": "_isCanceled",
          "type": "bool"
        }
      ],
      "name": "setIsCanceled",
      "outputs": [],
      "stateMutability": "nonpayable",
      "type": "function"
    },
    {
      "inputs": [
        {
          "internalType": "string",
          "name": "_question",
          "type": "string"
        },
        {
          "internalType": "string[]",
          "name": "_choices",
          "type": "string[]"
        }
      ],
      "name": "setTopic",
      "outputs": [],
      "stateMutability": "nonpayable",
      "type": "function"
    },
    {
      "inputs": [
        {
          "internalType": "uint256[]",
          "name": "choicesPerTopic",
          "type": "uint256[]"
        },
        {
          "internalType": "string[]",
          "name": "questions",
          "type": "string[]"
        },
        {
          "internalType": "string[]",
          "name": "choices",
          "type": "string[]"
        }
      ],
      "name": "setTopics",
      "outputs": [],
      "stateMutability": "nonpayable",
      "type": "function"
    },
    {
      "inputs": [
        {
          "internalType": "uint256[]",
          "name": "_answers",
          "type": "uint256[]"
        }
      ],
      "name": "setAnswers",
      "outputs": [],
      "stateMutability": "nonpayable",
      "type": "function"
    },
    {
      "inputs": [
        {
          "internalType": "uint256[]",
          "name": "_chosenChoices",
          "type": "uint256[]"
        }
      ],
      "name": "testSetBitsFromPositions",
      "outputs": [
        {
          "internalType": "uint256",
          "name": "",
          "type": "uint256"
        }
      ],
      "stateMutability": "pure",
      "type": "function"
    },
    {
      "inputs": [
        {
          "internalType": "uint256",
          "name": "_number",
          "type": "uint256"
        }
      ],
      "name": "testGetSetBitsCount",
      "outputs": [
        {
          "internalType": "uint256",
          "name": "",
          "type": "uint256"
        }
      ],
      "stateMutability": "pure",
      "type": "function"
    },
    {
      "inputs": [
        {
          "internalType": "uint256",
          "name": "_number",
          "type": "uint256"
        }
      ],
      "name": "testGetSetBitsPositions",
      "outputs": [
        {
          "internalType": "uint256[]",
          "name": "",
          "type": "uint256[]"
        }
      ],
      "stateMutability": "pure",
      "type": "function"
    }
  ],
  "bytecode": "0x60806040523480156200001157600080fd5b5062000032620000266200003860201b60201c565b6200004060201b60201c565b62000104565b600033905090565b60008060009054906101000a900473ffffffffffffffffffffffffffffffffffffffff169050816000806101000a81548173ffffffffffffffffffffffffffffffffffffffff021916908373ffffffffffffffffffffffffffffffffffffffff1602179055508173ffffffffffffffffffffffffffffffffffffffff168173ffffffffffffffffffffffffffffffffffffffff167f8be0079c531659141344cd1fd0a4f28419497f9722a3daafe3b4186f6b6457e060405160405180910390a35050565b61553580620001146000396000f3fe6080604052600436106102fe5760003560e01c806376a0db8811610190578063b5545a3c116100dc578063f2fde38b11610095578063f73649f61161006f578063f73649f614610adf578063fb1669ca14610b08578063fee0117714610b31578063ff4c4e0d14610b5c576102fe565b8063f2fde38b14610a60578063f5d4d2a814610a89578063f64b0af914610ab4576102fe565b8063b5545a3c14610987578063b88a802f1461099e578063c3cd058d146109b5578063de83467a146109de578063e1b9742a14610a1b578063ef98cd6214610a37576102fe565b8063a16c716711610149578063a82dcab311610123578063a82dcab3146108cd578063a92a4fae1461090a578063af56443a14610935578063b40b04e01461095e576102fe565b8063a16c71671461083c578063a3948a0d14610865578063a6154064146108a2576102fe565b806376a0db88146107525780638389a3eb1461077b578063883032e8146107a45780638c062e4e146107cf5780638d99b2eb146107fa5780638da5cb5b14610811576102fe565b80633bbe24971161024f57806356528cac116102085780636b126209116101e25780636b126209146106aa5780636d02247c146106d5578063715018a6146106fe5780637165889614610715576102fe565b806356528cac146106175780635b07ff3a146106425780636a5543e91461067f576102fe565b80633bbe24971461051557806342587e7214610540578063442da8bd1461056b57806346b7bc911461059657806349cf2eae146105c15780634b4d7aeb146105ec576102fe565b806314ae031d116102bc578063206216c211610296578063206216c21461046a5780632a0e1c4f14610493578063383da4b1146104be5780633bb3ba3d146104e9576102fe565b806314ae031d146103eb5780631a7316ab146104145780631dd17d2f1461043f576102fe565b8062cc86bd146103035780630256015c1461032e57806305f030501461035757806305f9d4ad14610380578063094053571461039757806312065fe0146103c0575b600080fd5b34801561030f57600080fd5b50610318610b87565b60405161032591906130c6565b60405180910390f35b34801561033a57600080fd5b506103556004803603810190610350919061337c565b610b91565b005b34801561036357600080fd5b5061037e600480360381019061037991906134a4565b610c8c565b005b34801561038c57600080fd5b50610395610ee6565b005b3480156103a357600080fd5b506103be60048036038101906103b9919061357d565b611077565b005b3480156103cc57600080fd5b506103d56110a4565b6040516103e291906130c6565b60405180910390f35b3480156103f757600080fd5b50610412600480360381019061040d91906135d6565b6110ae565b005b34801561042057600080fd5b506104296110b8565b604051610436919061361e565b60405180910390f35b34801561044b57600080fd5b50610454611184565b60405161046191906130c6565b60405180910390f35b34801561047657600080fd5b50610491600480360381019061048c91906135d6565b611189565b005b34801561049f57600080fd5b506104a86111f1565b6040516104b5919061361e565b60405180910390f35b3480156104ca57600080fd5b506104d3611208565b6040516104e091906130c6565b60405180910390f35b3480156104f557600080fd5b506104fe61120d565b60405161050c9291906136b8565b60405180910390f35b34801561052157600080fd5b5061052a611334565b60405161053791906130c6565b60405180910390f35b34801561054c57600080fd5b5061055561133f565b60405161056291906130c6565b60405180910390f35b34801561057757600080fd5b50610580611349565b60405161058d91906130c6565b60405180910390f35b3480156105a257600080fd5b506105ab611353565b6040516105b891906130c6565b60405180910390f35b3480156105cd57600080fd5b506105d661139a565b6040516105e39190613730565b60405180910390f35b3480156105f857600080fd5b506106016113c0565b60405161060e9190613767565b60405180910390f35b34801561062357600080fd5b5061062c6113e9565b6040516106399190613840565b60405180910390f35b34801561064e57600080fd5b50610669600480360381019061066491906135d6565b6114be565b6040516106769190613840565b60405180910390f35b34801561068b57600080fd5b506106946114d0565b6040516106a191906130c6565b60405180910390f35b3480156106b657600080fd5b506106bf6114dd565b6040516106cc91906130c6565b60405180910390f35b3480156106e157600080fd5b506106fc60048036038101906106f791906135d6565b6114e3565b005b34801561070a57600080fd5b506107136114ed565b005b34801561072157600080fd5b5061073c600480360381019061073791906135d6565b611501565b60405161074991906139c5565b60405180910390f35b34801561075e57600080fd5b50610779600480360381019061077491906139e7565b6116b2565b005b34801561078757600080fd5b506107a2600480360381019061079d9190613a8a565b6116c8565b005b3480156107b057600080fd5b506107b96118f4565b6040516107c69190613b82565b60405180910390f35b3480156107db57600080fd5b506107e461190b565b6040516107f19190613730565b60405180910390f35b34801561080657600080fd5b5061080f611931565b005b34801561081d57600080fd5b506108266119dc565b6040516108339190613730565b60405180910390f35b34801561084857600080fd5b50610863600480360381019061085e9190613b9d565b611a05565b005b34801561087157600080fd5b5061088c600480360381019061088791906135d6565b611a2f565b6040516108999190613840565b60405180910390f35b3480156108ae57600080fd5b506108b7611adc565b6040516108c491906130c6565b60405180910390f35b3480156108d957600080fd5b506108f460048036038101906108ef91906139e7565b611ae2565b60405161090191906130c6565b60405180910390f35b34801561091657600080fd5b5061091f611af6565b60405161092c91906130c6565b60405180910390f35b34801561094157600080fd5b5061095c60048036038101906109579190613c4a565b611b03565b005b34801561096a57600080fd5b50610985600480360381019061098091906135d6565b611b20565b005b34801561099357600080fd5b5061099c611b2a565b005b3480156109aa57600080fd5b506109b3611bb1565b005b3480156109c157600080fd5b506109dc60048036038101906109d791906135d6565b611e9e565b005b3480156109ea57600080fd5b50610a056004803603810190610a0091906135d6565b611ea8565b604051610a1291906130c6565b60405180910390f35b610a356004803603810190610a309190613ca3565b611eba565b005b348015610a4357600080fd5b50610a5e6004803603810190610a599190613ce3565b6120fc565b005b348015610a6c57600080fd5b50610a876004803603810190610a829190613d64565b61235c565b005b348015610a9557600080fd5b50610a9e6123df565b604051610aab9190613ec2565b60405180910390f35b348015610ac057600080fd5b50610ac9612508565b604051610ad691906130c6565b60405180910390f35b348015610aeb57600080fd5b50610b066004803603810190610b019190613f1a565b612512565b005b348015610b1457600080fd5b50610b2f6004803603810190610b2a91906135d6565b61274b565b005b348015610b3d57600080fd5b50610b46612755565b604051610b539190614093565b60405180910390f35b348015610b6857600080fd5b50610b71612929565b604051610b7e91906130c6565b60405180910390f35b6000600354905090565b60006004549050610ba0612f18565b8181600001818152505084848080601f016020809104026020016040519081016040528093929190818152602001838380828437600081840152601f19601f820116905080830192505050505050508160200181905250828160400181905250825160046000828254610c1391906140e4565b92505081905550600e819080600181540180825580915050600190039060005260206000209060030201600090919091909150600082015181600001556020820151816001019081610c659190614324565b506040820151816002019080519060200190610c82929190612f39565b5050505050505050565b838390508686905014610cd4576040517f08c379a0000000000000000000000000000000000000000000000000000000008152600401610ccb90614442565b60405180910390fd5b60008484905067ffffffffffffffff811115610cf357610cf261316b565b5b604051908082528060200260200182016040528015610d2c57816020015b610d19612f18565b815260200190600190039081610d115790505b5090506000805b88889050811015610edb576000898983818110610d5357610d52614462565b5b9050602002013567ffffffffffffffff811115610d7357610d7261316b565b5b604051908082528060200260200182016040528015610da657816020015b6060815260200190600190039081610d915790505b50905060005b8a8a84818110610dbf57610dbe614462565b5b90506020020135811015610e715786868286610ddb91906140e4565b818110610deb57610dea614462565b5b9050602002810190610dfd91906144a0565b8080601f016020809104026020016040519081016040528093929190818152602001838380828437600081840152601f19601f82011690508083019250505050505050828281518110610e5357610e52614462565b5b60200260200101819052508080610e6990614503565b915050610dac565b50898983818110610e8557610e84614462565b5b9050602002013583610e9791906140e4565b9250610ec7888884818110610eaf57610eae614462565b5b9050602002810190610ec191906144a0565b83610b91565b508080610ed390614503565b915050610d33565b505050505050505050565b610eee612933565b60006005811115610f0257610f01613b0b565b5b600c60009054906101000a900460ff166005811115610f2457610f23613b0b565b5b14610f64576040517f08c379a0000000000000000000000000000000000000000000000000000000008152600401610f5b90614597565b60405180910390fd5b6000600954600a54610f7691906140e4565b9050600160009054906101000a900473ffffffffffffffffffffffffffffffffffffffff1673ffffffffffffffffffffffffffffffffffffffff1663b46411c38230600a546009546040518563ffffffff1660e01b8152600401610fdc939291906145b7565b6000604051808303818588803b158015610ff557600080fd5b505af1158015611009573d6000803e3d6000fd5b50505050506001600c60006101000a81548160ff0219169083600581111561103457611033613b0b565b5b02179055507f20f7c135505514c16ee7e30eb8127c87b82a910a6b28e61ad0feb1a77473f4fe6000600160405161106c9291906145ee565b60405180910390a150565b80600c60006101000a81548160ff0219169083600581111561109c5761109b613b0b565b5b021790555050565b6000600854905090565b8060038190555050565b60006040516020016110c990614694565b60405160208183030381529060405280519060200120600260009054906101000a900473ffffffffffffffffffffffffffffffffffffffff1673ffffffffffffffffffffffffffffffffffffffff1663384d405b6007336040518363ffffffff1660e01b815260040161113d92919061472d565b602060405180830381865afa15801561115a573d6000803e3d6000fd5b505050506040513d601f19601f8201168201806040525081019061117e9190614772565b14905090565b600a81565b60008167ffffffffffffffff8111156111a5576111a461316b565b5b6040519080825280602002602001820160405280156111d35781602001602082028036833780820191505090505b50905080600f90805190602001906111ec929190612f92565b505050565b6000600c60019054906101000a900460ff16905090565b603281565b6060806005600681805461122090614147565b80601f016020809104026020016040519081016040528092919081815260200182805461124c90614147565b80156112995780601f1061126e57610100808354040283529160200191611299565b820191906000526020600020905b81548152906001019060200180831161127c57829003601f168201915b505050505091508080546112ac90614147565b80601f01602080910402602001604051908101604052809291908181526020018280546112d890614147565b80156113255780601f106112fa57610100808354040283529160200191611325565b820191906000526020600020905b81548152906001019060200180831161130857829003601f168201915b50505050509050915091509091565b66b1a2bc2ec5000081565b655af3107a400081565b6000600b54905090565b6000600d60003373ffffffffffffffffffffffffffffffffffffffff1673ffffffffffffffffffffffffffffffffffffffff16815260200190815260200160002054905090565b600260009054906101000a900473ffffffffffffffffffffffffffffffffffffffff1681565b6000600c60009054906101000a900460ff1660058111156113e4576113e3613b0b565b5b905090565b60606113f3612933565b60058081111561140657611405613b0b565b5b600c60009054906101000a900460ff16600581111561142857611427613b0b565b5b14611468576040517f08c379a000000000000000000000000000000000000000000000000000000000815260040161145f906147eb565b60405180910390fd5b600f8054806020026020016040519081016040528092919081815260200182805480156114b457602002820191906000526020600020905b8154815260200190600101908083116114a0575b5050505050905090565b60606114c9826129b1565b9050919050565b6000600f80549050905090565b6103e881565b8060098190555050565b6114f5612933565b6114ff6000612a6d565b565b611509612f18565b600e828154811061151d5761151c614462565b5b90600052602060002090600302016040518060600160405290816000820154815260200160018201805461155090614147565b80601f016020809104026020016040519081016040528092919081815260200182805461157c90614147565b80156115c95780601f1061159e576101008083540402835291602001916115c9565b820191906000526020600020905b8154815290600101906020018083116115ac57829003601f168201915b5050505050815260200160028201805480602002602001604051908101604052809291908181526020016000905b828210156116a357838290600052602060002001805461161690614147565b80601f016020809104026020016040519081016040528092919081815260200182805461164290614147565b801561168f5780601f106116645761010080835404028352916020019161168f565b820191906000526020600020905b81548152906001019060200180831161167257829003601f168201915b5050505050815260200190600101906115f7565b50505050815250509050919050565b8181600f91906116c3929190612fdf565b505050565b6116d0612933565b818190508484905014611718576040517f08c379a000000000000000000000000000000000000000000000000000000000815260040161170f90614857565b60405180910390fd5b600060045490506000600e905060005b8686905081101561189f5761173b612f18565b8381600001818152505087878381811061175857611757614462565b5b905060200281019061176a91906144a0565b8080601f016020809104026020016040519081016040528093929190818152602001838380828437600081840152601f19601f8201169050808301925050505050505081602001819052508585838181106117c8576117c7614462565b5b90506020028101906117da9190614877565b906117e591906148da565b8160400181905250858583818110611800576117ff614462565b5b90506020028101906118129190614877565b90508461181f91906140e4565b93508281908060018154018082558091505060019003906000526020600020906003020160009091909190915060008201518160000155602082015181600101908161186b9190614324565b506040820151816002019080519060200190611888929190612f39565b50505050808061189790614503565b915050611728565b50816004819055507fbf7e450152e82a72724b6c2028c2955b2294c0579262526315aa44919e2be9c586869050600e805490506004546040516118e4939291906148ef565b60405180910390a1505050505050565b6000600c60009054906101000a900460ff16905090565b600160009054906101000a900473ffffffffffffffffffffffffffffffffffffffff1681565b611939612933565b6004600581111561194d5761194c613b0b565b5b600c60009054906101000a900460ff16600581111561196f5761196e613b0b565b5b146119af576040517f08c379a00000000000000000000000000000000000000000000000000000000081526004016119a690614972565b60405180910390fd5b6005600c60006101000a81548160ff021916908360058111156119d5576119d4613b0b565b5b0217905550565b60008060009054906101000a900473ffffffffffffffffffffffffffffffffffffffff16905090565b838360059182611a1692919061499d565b50818160069182611a2892919061499d565b5050505050565b6060611a39612933565b600580811115611a4c57611a4b613b0b565b5b600c60009054906101000a900460ff166005811115611a6e57611a6d613b0b565b5b14611aae576040517f08c379a0000000000000000000000000000000000000000000000000000000008152600401611aa5906147eb565b60405180910390fd5b611ad5600f8381548110611ac557611ac4614462565b5b90600052602060002001546129b1565b9050919050565b61010081565b6000611aee8383612b31565b905092915050565b6000600e80549050905090565b80600c60016101000a81548160ff02191690831515021790555050565b80600a8190555050565b611b32612933565b600580811115611b4557611b44613b0b565b5b600c60009054906101000a900460ff166005811115611b6757611b66613b0b565b5b14611ba7576040517f08c379a0000000000000000000000000000000000000000000000000000000008152600401611b9e90614ab9565b60405180910390fd5b611baf612c0e565b565b600580811115611bc457611bc3613b0b565b5b600c60009054906101000a900460ff166005811115611be657611be5613b0b565b5b14611c26576040517f08c379a0000000000000000000000000000000000000000000000000000000008152600401611c1d906147eb565b60405180910390fd5b6000600d60003373ffffffffffffffffffffffffffffffffffffffff1673ffffffffffffffffffffffffffffffffffffffff1681526020019081526020016000205403611ca8576040517f08c379a0000000000000000000000000000000000000000000000000000000008152600401611c9f90614b25565b60405180910390fd5b600d60003373ffffffffffffffffffffffffffffffffffffffff1673ffffffffffffffffffffffffffffffffffffffff168152602001908152602001600020546008541015611d2c576040517f08c379a0000000000000000000000000000000000000000000000000000000008152600401611d2390614b91565b60405180910390fd5b6000600d60003373ffffffffffffffffffffffffffffffffffffffff1673ffffffffffffffffffffffffffffffffffffffff1681526020019081526020016000205490506000600d60003373ffffffffffffffffffffffffffffffffffffffff1673ffffffffffffffffffffffffffffffffffffffff1681526020019081526020016000208190555060003373ffffffffffffffffffffffffffffffffffffffff1682604051611ddb90614be2565b60006040518083038185875af1925050503d8060008114611e18576040519150601f19603f3d011682016040523d82523d6000602084013e611e1d565b606091505b5050905080611e61576040517f08c379a0000000000000000000000000000000000000000000000000000000008152600401611e5890614c43565b60405180910390fd5b7fbb23de5c4d0ac7c049b292881397f32ddab597aebe0859c2baf41548d5c20c373383604051611e92929190614caf565b60405180910390a15050565b80600b8190555050565b6000611eb382612d98565b9050919050565b600160009054906101000a900473ffffffffffffffffffffffffffffffffffffffff1673ffffffffffffffffffffffffffffffffffffffff163373ffffffffffffffffffffffffffffffffffffffff1614611f4a576040517f08c379a0000000000000000000000000000000000000000000000000000000008152600401611f4190614d37565b60405180910390fd5b60016005811115611f5e57611f5d613b0b565b5b600c60009054906101000a900460ff166005811115611f8057611f7f613b0b565b5b14611fc0576040517f08c379a0000000000000000000000000000000000000000000000000000000008152600401611fb790614da3565b60405180910390fd5b3073ffffffffffffffffffffffffffffffffffffffff168273ffffffffffffffffffffffffffffffffffffffff161461202e576040517f08c379a000000000000000000000000000000000000000000000000000000000815260040161202590614e0f565b60405180910390fd5b808061203c57506009543410155b61207b576040517f08c379a000000000000000000000000000000000000000000000000000000000815260040161207290614e7b565b60405180910390fd5b80156120b1576004600c60006101000a81548160ff021916908360058111156120a7576120a6613b0b565b5b02179055506120f8565b6001600c60016101000a81548160ff0219169083151502179055506005600c60006101000a81548160ff021916908360058111156120f2576120f1613b0b565b5b02179055505b5050565b612104612933565b6000600581111561211857612117613b0b565b5b600c60009054906101000a900460ff16600581111561213a57612139613b0b565b5b1461217a576040517f08c379a000000000000000000000000000000000000000000000000000000000815260040161217190614597565b60405180910390fd5b600a8282905011156121c1576040517f08c379a00000000000000000000000000000000000000000000000000000000081526004016121b890614ee7565b60405180910390fd5b6032828290506004546121d491906140e4565b1115612215576040517f08c379a000000000000000000000000000000000000000000000000000000000815260040161220c90614f53565b60405180910390fd5b61221d612f18565b60045481600001818152505084848080601f016020809104026020016040519081016040528093929190818152602001838380828437600081840152601f19601f82011690508083019250505050505050816020018190525082829061228391906148da565b816040018190525082829050600460008282546122a091906140e4565b92505081905550600e8190806001815401808255809150506001900390600052602060002090600302016000909190919091506000820151816000015560208201518160010190816122f29190614324565b50604082015181600201908051906020019061230f929190612f39565b5050507fbf7e450152e82a72724b6c2028c2955b2294c0579262526315aa44919e2be9c56001600e8054905060045460405161234d93929190614fae565b60405180910390a15050505050565b612364612933565b600073ffffffffffffffffffffffffffffffffffffffff168173ffffffffffffffffffffffffffffffffffffffff16036123d3576040517f08c379a00000000000000000000000000000000000000000000000000000000081526004016123ca90615057565b60405180910390fd5b6123dc81612a6d565b50565b60606123e9612933565b6005808111156123fc576123fb613b0b565b5b600c60009054906101000a900460ff16600581111561241e5761241d613b0b565b5b1461245e576040517f08c379a0000000000000000000000000000000000000000000000000000000008152600401612455906147eb565b60405180910390fd5b6000600f80549050905060008167ffffffffffffffff8111156124845761248361316b565b5b6040519080825280602002602001820160405280156124b757816020015b60608152602001906001900390816124a25790505b50905060005b828110156124ff576124ce81611a2f565b8282815181106124e1576124e0614462565b5b602002602001018190525080806124f790614503565b9150506124bd565b50809250505090565b6000600954905090565b6004600581111561252657612525613b0b565b5b600c60009054906101000a900460ff16600581111561254857612547613b0b565b5b14612588576040517f08c379a000000000000000000000000000000000000000000000000000000000815260040161257f90614972565b60405180910390fd5b6000600d60003373ffffffffffffffffffffffffffffffffffffffff1673ffffffffffffffffffffffffffffffffffffffff168152602001908152602001600020541461260a576040517f08c379a0000000000000000000000000000000000000000000000000000000008152600401612601906150c3565b60405180910390fd5b600454838390501115612652576040517f08c379a00000000000000000000000000000000000000000000000000000000081526004016126499061512f565b60405180910390fd5b61265a6110b8565b612699576040517f08c379a00000000000000000000000000000000000000000000000000000000081526004016126909061519b565b60405180910390fd5b60045483836001868690506126ae91906151bb565b8181106126be576126bd614462565b5b9050602002013510612705576040517f08c379a00000000000000000000000000000000000000000000000000000000081526004016126fc9061523b565b60405180910390fd5b60006127118484612b31565b9050600f81908060018154018082558091505060019003906000526020600020016000909190919091505561274533612dd1565b50505050565b8060088190555050565b6060600e805480602002602001604051908101604052809291908181526020016000905b828210156129205783829060005260206000209060030201604051806060016040529081600082015481526020016001820180546127b690614147565b80601f01602080910402602001604051908101604052809291908181526020018280546127e290614147565b801561282f5780601f106128045761010080835404028352916020019161282f565b820191906000526020600020905b81548152906001019060200180831161281257829003601f168201915b5050505050815260200160028201805480602002602001604051908101604052809291908181526020016000905b8282101561290957838290600052602060002001805461287c90614147565b80601f01602080910402602001604051908101604052809291908181526020018280546128a890614147565b80156128f55780601f106128ca576101008083540402835291602001916128f5565b820191906000526020600020905b8154815290600101906020018083116128d857829003601f168201915b50505050508152602001906001019061285d565b505050508152505081526020019060010190612779565b50505050905090565b6000600a54905090565b61293b612f10565b73ffffffffffffffffffffffffffffffffffffffff166129596119dc565b73ffffffffffffffffffffffffffffffffffffffff16146129af576040517f08c379a00000000000000000000000000000000000000000000000000000000081526004016129a6906152a7565b60405180910390fd5b565b606060006129be83612d98565b905060008167ffffffffffffffff8111156129dc576129db61316b565b5b604051908082528060200260200182016040528015612a0a5781602001602082028036833780820191505090505b5090506000805b610100811015612a61576000816001901b871614612a565780838381518110612a3d57612a3c614462565b5b60200260200101818152505081612a5390614503565b91505b806001019050612a11565b50819350505050919050565b60008060009054906101000a900473ffffffffffffffffffffffffffffffffffffffff169050816000806101000a81548173ffffffffffffffffffffffffffffffffffffffff021916908373ffffffffffffffffffffffffffffffffffffffff1602179055508173ffffffffffffffffffffffffffffffffffffffff168173ffffffffffffffffffffffffffffffffffffffff167f8be0079c531659141344cd1fd0a4f28419497f9722a3daafe3b4186f6b6457e060405160405180910390a35050565b600080838390509050610100811115612b7f576040517f08c379a0000000000000000000000000000000000000000000000000000000008152600401612b7690615313565b60405180910390fd5b60008060005b83811015612c0157868682818110612ba057612b9f614462565b5b90506020020135925060ff831115612bed576040517f08c379a0000000000000000000000000000000000000000000000000000000008152600401612be49061537f565b60405180910390fd5b826001901b82179150806001019050612b85565b5080935050505092915050565b612c16612933565b600060085411612c5b576040517f08c379a0000000000000000000000000000000000000000000000000000000008152600401612c5290614e7b565b60405180910390fd5b476008541115612ca0576040517f08c379a0000000000000000000000000000000000000000000000000000000008152600401612c9790614b91565b60405180910390fd5b60006008549050600060088190555060003373ffffffffffffffffffffffffffffffffffffffff1682604051612cd590614be2565b60006040518083038185875af1925050503d8060008114612d12576040519150601f19603f3d011682016040523d82523d6000602084013e612d17565b606091505b5050905080612d5b576040517f08c379a0000000000000000000000000000000000000000000000000000000008152600401612d52906153eb565b60405180910390fd5b7fbb23de5c4d0ac7c049b292881397f32ddab597aebe0859c2baf41548d5c20c373383604051612d8c929190615457565b60405180910390a15050565b60008060008390505b6000811115612dc7576001811682612db991906140e4565b9150600181901c9050612da1565b8192505050919050565b6000600d60008373ffffffffffffffffffffffffffffffffffffffff1673ffffffffffffffffffffffffffffffffffffffff1681526020019081526020016000205414612e53576040517f08c379a0000000000000000000000000000000000000000000000000000000008152600401612e4a906154df565b60405180910390fd5b600b546008541015612e9a576040517f08c379a0000000000000000000000000000000000000000000000000000000008152600401612e9190614b91565b60405180910390fd5b600b5460086000828254612eae91906151bb565b92505081905550600b54600d60008373ffffffffffffffffffffffffffffffffffffffff1673ffffffffffffffffffffffffffffffffffffffff1681526020019081526020016000206000828254612f0691906140e4565b9250508190555050565b600033905090565b60405180606001604052806000815260200160608152602001606081525090565b828054828255906000526020600020908101928215612f81579160200282015b82811115612f80578251829081612f709190614324565b5091602001919060010190612f59565b5b509050612f8e919061302c565b5090565b828054828255906000526020600020908101928215612fce579160200282015b82811115612fcd578251825591602001919060010190612fb2565b5b509050612fdb9190613050565b5090565b82805482825590600052602060002090810192821561301b579160200282015b8281111561301a578235825591602001919060010190612fff565b5b5090506130289190613050565b5090565b5b8082111561304c5760008181613043919061306d565b5060010161302d565b5090565b5b80821115613069576000816000905550600101613051565b5090565b50805461307990614147565b6000825580601f1061308b57506130aa565b601f0160209004906000526020600020908101906130a99190613050565b5b50565b6000819050919050565b6130c0816130ad565b82525050565b60006020820190506130db60008301846130b7565b92915050565b6000604051905090565b600080fd5b600080fd5b600080fd5b600080fd5b600080fd5b60008083601f84011261311a576131196130f5565b5b8235905067ffffffffffffffff811115613137576131366130fa565b5b602083019150836001820283011115613153576131526130ff565b5b9250929050565b6000601f19601f8301169050919050565b7f4e487b7100000000000000000000000000000000000000000000000000000000600052604160045260246000fd5b6131a38261315a565b810181811067ffffffffffffffff821117156131c2576131c161316b565b5b80604052505050565b60006131d56130e1565b90506131e1828261319a565b919050565b600067ffffffffffffffff8211156132015761320061316b565b5b602082029050602081019050919050565b600080fd5b600067ffffffffffffffff8211156132325761323161316b565b5b61323b8261315a565b9050602081019050919050565b82818337600083830152505050565b600061326a61326584613217565b6131cb565b90508281526020810184848401111561328657613285613212565b5b613291848285613248565b509392505050565b600082601f8301126132ae576132ad6130f5565b5b81356132be848260208601613257565b91505092915050565b60006132da6132d5846131e6565b6131cb565b905080838252602082019050602084028301858111156132fd576132fc6130ff565b5b835b8181101561334457803567ffffffffffffffff811115613322576133216130f5565b5b80860161332f8982613299565b855260208501945050506020810190506132ff565b5050509392505050565b600082601f830112613363576133626130f5565b5b81356133738482602086016132c7565b91505092915050565b600080600060408486031215613395576133946130eb565b5b600084013567ffffffffffffffff8111156133b3576133b26130f0565b5b6133bf86828701613104565b9350935050602084013567ffffffffffffffff8111156133e2576133e16130f0565b5b6133ee8682870161334e565b9150509250925092565b60008083601f84011261340e5761340d6130f5565b5b8235905067ffffffffffffffff81111561342b5761342a6130fa565b5b602083019150836020820283011115613447576134466130ff565b5b9250929050565b60008083601f840112613464576134636130f5565b5b8235905067ffffffffffffffff811115613481576134806130fa565b5b60208301915083602082028301111561349d5761349c6130ff565b5b9250929050565b600080600080600080606087890312156134c1576134c06130eb565b5b600087013567ffffffffffffffff8111156134df576134de6130f0565b5b6134eb89828a016133f8565b9650965050602087013567ffffffffffffffff81111561350e5761350d6130f0565b5b61351a89828a0161344e565b9450945050604087013567ffffffffffffffff81111561353d5761353c6130f0565b5b61354989828a0161344e565b92509250509295509295509295565b6006811061356557600080fd5b50565b60008135905061357781613558565b92915050565b600060208284031215613593576135926130eb565b5b60006135a184828501613568565b91505092915050565b6135b3816130ad565b81146135be57600080fd5b50565b6000813590506135d0816135aa565b92915050565b6000602082840312156135ec576135eb6130eb565b5b60006135fa848285016135c1565b91505092915050565b60008115159050919050565b61361881613603565b82525050565b6000602082019050613633600083018461360f565b92915050565b600081519050919050565b600082825260208201905092915050565b60005b83811015613673578082015181840152602081019050613658565b60008484015250505050565b600061368a82613639565b6136948185613644565b93506136a4818560208601613655565b6136ad8161315a565b840191505092915050565b600060408201905081810360008301526136d2818561367f565b905081810360208301526136e6818461367f565b90509392505050565b600073ffffffffffffffffffffffffffffffffffffffff82169050919050565b600061371a826136ef565b9050919050565b61372a8161370f565b82525050565b60006020820190506137456000830184613721565b92915050565b600060ff82169050919050565b6137618161374b565b82525050565b600060208201905061377c6000830184613758565b92915050565b600081519050919050565b600082825260208201905092915050565b6000819050602082019050919050565b6137b7816130ad565b82525050565b60006137c983836137ae565b60208301905092915050565b6000602082019050919050565b60006137ed82613782565b6137f7818561378d565b93506138028361379e565b8060005b8381101561383357815161381a88826137bd565b9750613825836137d5565b925050600181019050613806565b5085935050505092915050565b6000602082019050818103600083015261385a81846137e2565b905092915050565b600082825260208201905092915050565b600061387e82613639565b6138888185613862565b9350613898818560208601613655565b6138a18161315a565b840191505092915050565b600081519050919050565b600082825260208201905092915050565b6000819050602082019050919050565b60006138e48383613873565b905092915050565b6000602082019050919050565b6000613904826138ac565b61390e81856138b7565b935083602082028501613920856138c8565b8060005b8581101561395c578484038952815161393d85826138d8565b9450613948836138ec565b925060208a01995050600181019050613924565b50829750879550505050505092915050565b600060608301600083015161398660008601826137ae565b506020830151848203602086015261399e8282613873565b915050604083015184820360408601526139b882826138f9565b9150508091505092915050565b600060208201905081810360008301526139df818461396e565b905092915050565b600080602083850312156139fe576139fd6130eb565b5b600083013567ffffffffffffffff811115613a1c57613a1b6130f0565b5b613a28858286016133f8565b92509250509250929050565b60008083601f840112613a4a57613a496130f5565b5b8235905067ffffffffffffffff811115613a6757613a666130fa565b5b602083019150836020820283011115613a8357613a826130ff565b5b9250929050565b60008060008060408587031215613aa457613aa36130eb565b5b600085013567ffffffffffffffff811115613ac257613ac16130f0565b5b613ace8782880161344e565b9450945050602085013567ffffffffffffffff811115613af157613af06130f0565b5b613afd87828801613a34565b925092505092959194509250565b7f4e487b7100000000000000000000000000000000000000000000000000000000600052602160045260246000fd5b60068110613b4b57613b4a613b0b565b5b50565b6000819050613b5c82613b3a565b919050565b6000613b6c82613b4e565b9050919050565b613b7c81613b61565b82525050565b6000602082019050613b976000830184613b73565b92915050565b60008060008060408587031215613bb757613bb66130eb565b5b600085013567ffffffffffffffff811115613bd557613bd46130f0565b5b613be187828801613104565b9450945050602085013567ffffffffffffffff811115613c0457613c036130f0565b5b613c1087828801613104565b925092505092959194509250565b613c2781613603565b8114613c3257600080fd5b50565b600081359050613c4481613c1e565b92915050565b600060208284031215613c6057613c5f6130eb565b5b6000613c6e84828501613c35565b91505092915050565b613c808161370f565b8114613c8b57600080fd5b50565b600081359050613c9d81613c77565b92915050565b60008060408385031215613cba57613cb96130eb565b5b6000613cc885828601613c8e565b9250506020613cd985828601613c35565b9150509250929050565b60008060008060408587031215613cfd57613cfc6130eb565b5b600085013567ffffffffffffffff811115613d1b57613d1a6130f0565b5b613d2787828801613104565b9450945050602085013567ffffffffffffffff811115613d4a57613d496130f0565b5b613d568782880161344e565b925092505092959194509250565b600060208284031215613d7a57613d796130eb565b5b6000613d8884828501613c8e565b91505092915050565b600081519050919050565b600082825260208201905092915050565b6000819050602082019050919050565b600082825260208201905092915050565b6000613dd982613782565b613de38185613dbd565b9350613dee8361379e565b8060005b83811015613e1f578151613e0688826137bd565b9750613e11836137d5565b925050600181019050613df2565b5085935050505092915050565b6000613e388383613dce565b905092915050565b6000602082019050919050565b6000613e5882613d91565b613e628185613d9c565b935083602082028501613e7485613dad565b8060005b85811015613eb05784840389528151613e918582613e2c565b9450613e9c83613e40565b925060208a01995050600181019050613e78565b50829750879550505050505092915050565b60006020820190508181036000830152613edc8184613e4d565b905092915050565b6000819050919050565b613ef781613ee4565b8114613f0257600080fd5b50565b600081359050613f1481613eee565b92915050565b600080600060408486031215613f3357613f326130eb565b5b600084013567ffffffffffffffff811115613f5157613f506130f0565b5b613f5d868287016133f8565b93509350506020613f7086828701613f05565b9150509250925092565b600081519050919050565b600082825260208201905092915050565b6000819050602082019050919050565b6000606083016000830151613fbe60008601826137ae565b5060208301518482036020860152613fd68282613873565b91505060408301518482036040860152613ff082826138f9565b9150508091505092915050565b60006140098383613fa6565b905092915050565b6000602082019050919050565b600061402982613f7a565b6140338185613f85565b93508360208202850161404585613f96565b8060005b8581101561408157848403895281516140628582613ffd565b945061406d83614011565b925060208a01995050600181019050614049565b50829750879550505050505092915050565b600060208201905081810360008301526140ad818461401e565b905092915050565b7f4e487b7100000000000000000000000000000000000000000000000000000000600052601160045260246000fd5b60006140ef826130ad565b91506140fa836130ad565b9250828201905080821115614112576141116140b5565b5b92915050565b7f4e487b7100000000000000000000000000000000000000000000000000000000600052602260045260246000fd5b6000600282049050600182168061415f57607f821691505b60208210810361417257614171614118565b5b50919050565b60008190508160005260206000209050919050565b60006020601f8301049050919050565b600082821b905092915050565b6000600883026141da7fffffffffffffffffffffffffffffffffffffffffffffffffffffffffffffffff8261419d565b6141e4868361419d565b95508019841693508086168417925050509392505050565b6000819050919050565b600061422161421c614217846130ad565b6141fc565b6130ad565b9050919050565b6000819050919050565b61423b83614206565b61424f61424782614228565b8484546141aa565b825550505050565b600090565b614264614257565b61426f818484614232565b505050565b5b818110156142935761428860008261425c565b600181019050614275565b5050565b601f8211156142d8576142a981614178565b6142b28461418d565b810160208510156142c1578190505b6142d56142cd8561418d565b830182614274565b50505b505050565b600082821c905092915050565b60006142fb600019846008026142dd565b1980831691505092915050565b600061431483836142ea565b9150826002028217905092915050565b61432d82613639565b67ffffffffffffffff8111156143465761434561316b565b5b6143508254614147565b61435b828285614297565b600060209050601f83116001811461438e576000841561437c578287015190505b6143868582614308565b8655506143ee565b601f19841661439c86614178565b60005b828110156143c45784890151825560018201915060208501945060208101905061439f565b868310156143e157848901516143dd601f8916826142ea565b8355505b6001600288020188555050505b505050505050565b7f57726f6e67206e756d626572206f66207175657374696f6e7300000000000000600082015250565b600061442c601983613644565b9150614437826143f6565b602082019050919050565b6000602082019050818103600083015261445b8161441f565b9050919050565b7f4e487b7100000000000000000000000000000000000000000000000000000000600052603260045260246000fd5b600080fd5b600080fd5b600080fd5b600080833560016020038436030381126144bd576144bc614491565b5b80840192508235915067ffffffffffffffff8211156144df576144de614496565b5b6020830192506001820236038313156144fb576144fa61449b565b5b509250929050565b600061450e826130ad565b91507fffffffffffffffffffffffffffffffffffffffffffffffffffffffffffffffff82036145405761453f6140b5565b5b600182019050919050565b7f506f6c6c20616c7265616479207375626d697474656400000000000000000000600082015250565b6000614581601683613644565b915061458c8261454b565b602082019050919050565b600060208201905081810360008301526145b081614574565b9050919050565b60006060820190506145cc6000830186613721565b6145d960208301856130b7565b6145e660408301846130b7565b949350505050565b60006040820190506146036000830185613b73565b6146106020830184613b73565b9392505050565b600081905092915050565b7f4920636c61696d2074686973206164647265737320697320636572746966696560008201527f6400000000000000000000000000000000000000000000000000000000000000602082015250565b600061467e602183614617565b915061468982614622565b602182019050919050565b600061469f82614671565b9150819050919050565b600081546146b681614147565b6146c08186613644565b945060018216600081146146db57600181146146f157614724565b60ff198316865281151560200286019350614724565b6146fa85614178565b60005b8381101561471c578154818901526001820191506020810190506146fd565b808801955050505b50505092915050565b6000604082019050818103600083015261474781856146a9565b90506147566020830184613721565b9392505050565b60008151905061476c81613eee565b92915050565b600060208284031215614788576147876130eb565b5b60006147968482850161475d565b91505092915050565b7f506f6c6c696e67206e6f7420656e646564000000000000000000000000000000600082015250565b60006147d5601183613644565b91506147e08261479f565b602082019050919050565b60006020820190508181036000830152614804816147c8565b9050919050565b7f417272617973206d7573742068617665207468652073616d65206c656e677468600082015250565b6000614841602083613644565b915061484c8261480b565b602082019050919050565b6000602082019050818103600083015261487081614834565b9050919050565b6000808335600160200384360303811261489457614893614491565b5b80840192508235915067ffffffffffffffff8211156148b6576148b5614496565b5b6020830192506020820236038313156148d2576148d161449b565b5b509250929050565b60006148e73684846132c7565b905092915050565b600060608201905061490460008301866130b7565b61491160208301856130b7565b61491e60408301846130b7565b949350505050565b7f506f6c6c696e67206e6f74207374617274656400000000000000000000000000600082015250565b600061495c601383613644565b915061496782614926565b602082019050919050565b6000602082019050818103600083015261498b8161494f565b9050919050565b600082905092915050565b6149a78383614992565b67ffffffffffffffff8111156149c0576149bf61316b565b5b6149ca8254614147565b6149d5828285614297565b6000601f831160018114614a0457600084156149f2578287013590505b6149fc8582614308565b865550614a64565b601f198416614a1286614178565b60005b82811015614a3a57848901358255600182019150602085019450602081019050614a15565b86831015614a575784890135614a53601f8916826142ea565b8355505b6001600288020188555050505b50505050505050565b7f506f6c6c20616c72656164792064697374726962757465640000000000000000600082015250565b6000614aa3601883613644565b9150614aae82614a6d565b602082019050919050565b60006020820190508181036000830152614ad281614a96565b9050919050565b7f416c726561647920636c61696d65640000000000000000000000000000000000600082015250565b6000614b0f600f83613644565b9150614b1a82614ad9565b602082019050919050565b60006020820190508181036000830152614b3e81614b02565b9050919050565b7f4e6f7420656e6f7567682066756e647300000000000000000000000000000000600082015250565b6000614b7b601083613644565b9150614b8682614b45565b602082019050919050565b60006020820190508181036000830152614baa81614b6e565b9050919050565b600081905092915050565b50565b6000614bcc600083614bb1565b9150614bd782614bbc565b600082019050919050565b6000614bed82614bbf565b9150819050919050565b7f5472616e73666572206661696c65640000000000000000000000000000000000600082015250565b6000614c2d600f83613644565b9150614c3882614bf7565b602082019050919050565b60006020820190508181036000830152614c5c81614c20565b9050919050565b7f52657761726420636c61696d6564000000000000000000000000000000000000600082015250565b6000614c99600e83613644565b9150614ca482614c63565b602082019050919050565b6000606082019050614cc46000830185613721565b614cd160208301846130b7565b8181036040830152614ce281614c8c565b90509392505050565b7f4f6e6c792044414f2063616e2063616c6c20746869732066756e6374696f6e00600082015250565b6000614d21601f83613644565b9150614d2c82614ceb565b602082019050919050565b60006020820190508181036000830152614d5081614d14565b9050919050565b7f506f6c6c206e6f74207375626d69747465640000000000000000000000000000600082015250565b6000614d8d601283613644565b9150614d9882614d57565b602082019050919050565b60006020820190508181036000830152614dbc81614d80565b9050919050565b7f57726f6e6720706f6c6c20616464726573730000000000000000000000000000600082015250565b6000614df9601283613644565b9150614e0482614dc3565b602082019050919050565b60006020820190508181036000830152614e2881614dec565b9050919050565b7f4e6f2066756e647320746f20726566756e640000000000000000000000000000600082015250565b6000614e65601283613644565b9150614e7082614e2f565b602082019050919050565b60006020820190508181036000830152614e9481614e58565b9050919050565b7f546f6f206d616e792063686f6963657300000000000000000000000000000000600082015250565b6000614ed1601083613644565b9150614edc82614e9b565b602082019050919050565b60006020820190508181036000830152614f0081614ec4565b9050919050565b7f546f6f206d616e7920746f706963730000000000000000000000000000000000600082015250565b6000614f3d600f83613644565b9150614f4882614f07565b602082019050919050565b60006020820190508181036000830152614f6c81614f30565b9050919050565b6000819050919050565b6000614f98614f93614f8e84614f73565b6141fc565b6130ad565b9050919050565b614fa881614f7d565b82525050565b6000606082019050614fc36000830186614f9f565b614fd060208301856130b7565b614fdd60408301846130b7565b949350505050565b7f4f776e61626c653a206e6577206f776e657220697320746865207a65726f206160008201527f6464726573730000000000000000000000000000000000000000000000000000602082015250565b6000615041602683613644565b915061504c82614fe5565b604082019050919050565b6000602082019050818103600083015261507081615034565b9050919050565b7f416c726561647920616e73776572656400000000000000000000000000000000600082015250565b60006150ad601083613644565b91506150b882615077565b602082019050919050565b600060208201905081810360008301526150dc816150a0565b9050919050565b7f57726f6e67206e756d626572206f6620616e7377657273000000000000000000600082015250565b6000615119601783613644565b9150615124826150e3565b602082019050919050565b600060208201905081810360008301526151488161510c565b9050919050565b7f4e6f7420656c696769626c650000000000000000000000000000000000000000600082015250565b6000615185600c83613644565b91506151908261514f565b602082019050919050565b600060208201905081810360008301526151b481615178565b9050919050565b60006151c6826130ad565b91506151d1836130ad565b92508282039050818111156151e9576151e86140b5565b5b92915050565b7f416e73776572206f7574206f662072616e676500000000000000000000000000600082015250565b6000615225601383613644565b9150615230826151ef565b602082019050919050565b6000602082019050818103600083015261525481615218565b9050919050565b7f4f776e61626c653a2063616c6c6572206973206e6f7420746865206f776e6572600082015250565b6000615291602083613644565b915061529c8261525b565b602082019050919050565b600060208201905081810360008301526152c081615284565b9050919050565b7f546f6f206d616e79206269747320746f207365742e0000000000000000000000600082015250565b60006152fd601583613644565b9150615308826152c7565b602082019050919050565b6000602082019050818103600083015261532c816152f0565b9050919050565b7f42697420746f20736574206f7574206f662072616e67652e0000000000000000600082015250565b6000615369601883613644565b915061537482615333565b602082019050919050565b600060208201905081810360008301526153988161535c565b9050919050565b7f526566756e64206661696c656400000000000000000000000000000000000000600082015250565b60006153d5600d83613644565b91506153e08261539f565b602082019050919050565b60006020820190508181036000830152615404816153c8565b9050919050565b7f526566756e6420746f206f776e65720000000000000000000000000000000000600082015250565b6000615441600f83613644565b915061544c8261540b565b602082019050919050565b600060608201905061546c6000830185613721565b61547960208301846130b7565b818103604083015261548a81615434565b90509392505050565b7f416c726561647920757064617465640000000000000000000000000000000000600082015250565b60006154c9600f83613644565b91506154d482615493565b602082019050919050565b600060208201905081810360008301526154f8816154bc565b905091905056fea2646970667358221220e34f47e76308372c179f6df633bae6e6b96dc17c10442e1eb810c2c637553d4264736f6c63430008130033",
  "immutableReferences": {},
  "source": "// SPDX-License-Identifier: MIT\n\npragma solidity 0.8.19;\n\nimport \"../node_modules/@openzeppelin/contracts/proxy/Clones.sol\";\nimport \"../node_modules/@openzeppelin/contracts/access/Ownable.sol\";\nimport \"./IPollInitiator.sol\"; \nimport \"./PollMaster.sol\";\n\n/*\nThis contract is not intended to be deployed on the mainnet, it is only used to test internals functions and helpers of Poll contracts\n*/\n/**\n@title TestPollHelper\n@author ibourn\n@notice This contract is not intended to be deployed on the mainnet, it is only used to test internals functions and helpers of Poll contracts\n@dev The contract inherits from PollUser (and so from PollAdmin, PollView, PollHelpers, PollStorage)\n@dev each internal function of PollMaster will be called in external functions named as 'test' + the name of the function to test\n@dev setters are added to test the storage and getters before the use by other calinng function in the regular process of the poll\n */\ncontract TestPollHelper is PollUser {\n\n\n    // ::::::::::::::::::::::: MOCKED SETTERS TO TEST EXTERNAL GETTERS in PollView :::::::::::::::::::::::::::::::::: //\n    // function setTimestampLimit(uint _timestampLimit) external {\n    //     timestampLimit = _timestampLimit;\n    // }\n\n    function setRequiredResponseCount(uint _requiredResponseCount) external {\n        requiredResponseCount = _requiredResponseCount;\n    }\n\n    function setRespondentsCount(uint _respondentsCount) external {\n        uint256[] memory _answers = new uint256[](_respondentsCount);\n        answers = _answers;\n    }\n\n    function setPollInformations(string calldata _pollName, string calldata _pollDescription) external {\n        pollName = _pollName;\n        pollDescription = _pollDescription;\n    }\n\n    function setBalance(uint _balance) external {\n        balance = _balance;\n    }\n\n    function setAmountToRespondent(uint _amountToRespondent) external {\n        amountToRespondent = _amountToRespondent;\n    }\n\n    function setAmountToDAO(uint _amountToDAO) external {\n        amountToDAO = _amountToDAO;\n    }\n\n    function setAmountToValidators(uint _amountToValidators) external {\n        amountToValidators = _amountToValidators;\n    }\n\n    function setPollStatus(PollStatus _pollStatus) external {\n        pollStatus = _pollStatus;\n    }\n\n    function setIsCanceled(bool _isCanceled) external {\n        isCanceled = _isCanceled;\n    }\n\n    // function setTopics(Topic[] calldata _topics) external {\n    //     topics = _topics;\n    // }\n    function setTopic(string calldata _question, string[] memory _choices) public {\n        uint choiceCount = totalChoicesCount;\n        Topic memory topic;\n        topic.firstChoiceIndex = choiceCount;\n        topic.question = _question;\n        topic.choices = _choices;\n        totalChoicesCount += _choices.length;\n        topics.push(topic);\n    }\n\n    function setTopics(uint[] calldata choicesPerTopic, string[] calldata questions, string[] calldata choices) external {\n        require(choicesPerTopic.length == questions.length, 'Wrong number of questions');\n        Topic[] memory _topics = new Topic[](questions.length);\n        uint counter =0;\n        for (uint i = 0; i < choicesPerTopic.length; i++) {\n                          string[] memory newchoices = new string[](choicesPerTopic[i]);\n\n            for (uint j = 0; j < choicesPerTopic[i]; j++) {\n              newchoices[j] = choices[counter + j];\n            }\n            counter += choicesPerTopic[i];\n            setTopic(questions[i], newchoices);\n        }\n    }\n\n    function setAnswers(uint[] calldata _answers) external {\n        answers = _answers;\n    }\n\n \n    // ::::::::::::::::::::::: EXTERNAL FUNCTION TO TEST PollHelper :::::::::::::::::::::::::::::::::::::::::::::::::::: //\n\n    function testSetBitsFromPositions(uint[] calldata _chosenChoices) external pure returns(uint256) {\n        return setBitsFromPositions(_chosenChoices);\n    }\n\n    function testGetSetBitsCount(uint256 _number) external pure returns(uint256) {\n        return getSetBitsCount(_number);\n    }\n\n    function testGetSetBitsPositions(uint256 _number) external pure returns(uint256[] memory) {\n        return getSetBitsPositions(_number);\n    }\n\n\n}",
  "sourcePath": "/home/ibournubuntu/ALYRA/PROJET_FINAL/DPoll/truffle/contracts/TestPollHelper.sol",
  "compiler": {
    "name": "solc",
    "version": "0.8.19+commit.7dd6d404.Emscripten.clang"
  },
  "schemaVersion": "3.4.14",
  "updatedAt": "2023-07-25T17:57:00.861Z",
  "devdoc": {
    "author": "ibourn",
    "details": "The contract inherits from PollUser (and so from PollAdmin, PollView, PollHelpers, PollStorage)each internal function of PollMaster will be called in external functions named as 'test' + the name of the function to testsetters are added to test the storage and getters before the use by other calinng function in the regular process of the poll",
    "kind": "dev",
    "methods": {
      "addAnswer(uint256[],bytes32)": {
        "details": "it update the balance of the respondent to allow him to claim the rewardindex of choices start from 0 and should be ordered as the choices in the topics in order to revert earlier in case of invalid answer (function in helpers will revert later if not)",
        "params": {
          "_chosenChoices": "is an array of uint representing the index of the choices chosen by the respondent (in the order of the all choices and starting from 0)"
        }
      },
      "addTopic(string,string[])": {
        "details": "the choices are an array of string",
        "params": {
          "_choices": "is an array of string representing the choices of the topic",
          "_question": "is the question of the topic"
        }
      },
      "addTopicsBatch(string[],string[][])": {
        "details": "structure of choice : [topic choices][topics] / read/write : a.[topic n][choice n] / lenght : a.length == topics.length",
        "params": {
          "_choices": "is an array of array of string representing the choices of the topics",
          "_questions": "is an array of string representing the questions of the topics"
        }
      },
      "claimReward()": {
        "details": "it send the reward to the respondent"
      },
      "endPoll()": {
        "details": "LATER : delay and number of answers will allow to set requirements to end the Poll by everybody (not only the owner), with incentives to automate the process"
      },
      "getPackedAnswers()": {
        "details": "answers are packed so each answer is a uint flagging the choices of the respondent",
        "returns": {
          "_0": "answers is an array of uint representing the answers of the poll"
        }
      },
      "getSelectedChoicesByAnswer(uint256)": {
        "details": "one answer is a uint256 where each bit represent an available choice : 1 is selected, 0 is not selected",
        "params": {
          "_answerId": "is the index of the answer in the answers array"
        },
        "returns": {
          "_0": "an array of uint representing the selected choices of the respondent (in the order of all choices in topics)"
        }
      },
      "getUnpackedAnswers()": {
        "details": "answers are unpacked so each result is the index of a choice selected by a respondentcall getSelectedChoicesByAnswer() to get the selected choices of a respondentuse answers.length to get the number of respondents",
        "returns": {
          "_0": "an array of all respondets answers as an array of uint corresponding to the index of the choices selected by the respondent (reading :[choices][respondents])"
        }
      },
      "owner()": {
        "details": "Returns the address of the current owner."
      },
      "renounceOwnership()": {
        "details": "Leaves the contract without owner. It will not be possible to call `onlyOwner` functions. Can only be called by the current owner. NOTE: Renouncing ownership will leave the contract without an owner, thereby disabling any functionality that is only available to the owner."
      },
      "setPollValidation(address,bool)": {
        "details": "if the poll is validated, the DAO will pay the validators and the DAOif the poll is rejected, the DAO will refund the owner balance less the validators fees (owner should claim it back later)it set the timestampLimit to the end of the poll and start the poll",
        "params": {
          "isValid": "is a boolean to validate or reject the poll",
          "pollAddress": "is the address of the poll to validate (this contract)"
        }
      },
      "transferOwnership(address)": {
        "details": "Transfers ownership of the contract to a new account (`newOwner`). Can only be called by the current owner."
      }
    },
    "title": "TestPollHelper",
    "version": 1
  },
  "userdoc": {
    "kind": "user",
    "methods": {
      "addAnswer(uint256[],bytes32)": {
        "notice": "This function allow to answer to the poll"
      },
      "addTopic(string,string[])": {
        "notice": "This function allows to add a topic : a question and its choices"
      },
      "addTopicsBatch(string[],string[][])": {
        "notice": "This function allows to add topics : questions and their choices, in batch"
      },
      "claimRefund()": {
        "notice": "allows the admin to withdraw the funds of the poll in case of rejection by the DAO or if the poll end without enough respondents"
      },
      "claimReward()": {
        "notice": "This function allow to claim the reward"
      },
      "endPoll()": {
        "notice": "allows the admin to end the poll"
      },
      "getPackedAnswers()": {
        "notice": "get all the answers of the poll"
      },
      "getSelectedChoicesByAnswer(uint256)": {
        "notice": "This function return the selected choices of topics of a respondent"
      },
      "getUnpackedAnswers()": {
        "notice": "get all the answers of the poll"
      },
      "setPollValidation(address,bool)": {
        "notice": "allows the DAO to validate or reject the poll"
      },
      "submitPoll()": {
        "notice": "allows the admin to submit the poll to the DAO for validation (validators will check for illegal content...) "
      }
    },
    "notice": "This contract is not intended to be deployed on the mainnet, it is only used to test internals functions and helpers of Poll contracts",
    "version": 1
  }
}