{
  "contractName": "TestPollHelper",
  "abi": [
    {
      "anonymous": false,
      "inputs": [
        {
          "indexed": true,
          "internalType": "address",
          "name": "previousOwner",
          "type": "address"
        },
        {
          "indexed": true,
          "internalType": "address",
          "name": "newOwner",
          "type": "address"
        }
      ],
      "name": "OwnershipTransferred",
      "type": "event"
    },
    {
      "anonymous": false,
      "inputs": [
        {
          "indexed": false,
          "internalType": "enum PollStorage.PollStatus",
          "name": "previousStatus",
          "type": "uint8"
        },
        {
          "indexed": false,
          "internalType": "enum PollStorage.PollStatus",
          "name": "newStatus",
          "type": "uint8"
        }
      ],
      "name": "PollStatusChange",
      "type": "event"
    },
    {
      "anonymous": false,
      "inputs": [
        {
          "indexed": false,
          "internalType": "address",
          "name": "_to",
          "type": "address"
        },
        {
          "indexed": false,
          "internalType": "uint256",
          "name": "_amount",
          "type": "uint256"
        },
        {
          "indexed": false,
          "internalType": "string",
          "name": "_message",
          "type": "string"
        }
      ],
      "name": "PollWithdrawal",
      "type": "event"
    },
    {
      "anonymous": false,
      "inputs": [
        {
          "indexed": false,
          "internalType": "uint256",
          "name": "topicsAdded",
          "type": "uint256"
        },
        {
          "indexed": false,
          "internalType": "uint256",
          "name": "topicsCount",
          "type": "uint256"
        },
        {
          "indexed": false,
          "internalType": "uint256",
          "name": "totalChoicesCount",
          "type": "uint256"
        }
      ],
      "name": "TopicsAdded",
      "type": "event"
    },
    {
      "inputs": [],
      "name": "DAOaddress",
      "outputs": [
        {
          "internalType": "address",
          "name": "",
          "type": "address"
        }
      ],
      "stateMutability": "view",
      "type": "function"
    },
    {
      "inputs": [],
      "name": "MAX_CHOICES_COUNT",
      "outputs": [
        {
          "internalType": "uint256",
          "name": "",
          "type": "uint256"
        }
      ],
      "stateMutability": "view",
      "type": "function"
    },
    {
      "inputs": [],
      "name": "MAX_CHOICES_LENGTH",
      "outputs": [
        {
          "internalType": "uint256",
          "name": "",
          "type": "uint256"
        }
      ],
      "stateMutability": "view",
      "type": "function"
    },
    {
      "inputs": [],
      "name": "MAX_RESPONDENTS_LENGTH",
      "outputs": [
        {
          "internalType": "uint256",
          "name": "",
          "type": "uint256"
        }
      ],
      "stateMutability": "view",
      "type": "function"
    },
    {
      "inputs": [],
      "name": "MAX_TOPICS_LENGTH",
      "outputs": [
        {
          "internalType": "uint256",
          "name": "",
          "type": "uint256"
        }
      ],
      "stateMutability": "view",
      "type": "function"
    },
    {
      "inputs": [],
      "name": "MIN_POLL_AMOUNT",
      "outputs": [
        {
          "internalType": "uint256",
          "name": "",
          "type": "uint256"
        }
      ],
      "stateMutability": "view",
      "type": "function"
    },
    {
      "inputs": [],
      "name": "MIN_RESPONDENT_AMOUNT",
      "outputs": [
        {
          "internalType": "uint256",
          "name": "",
          "type": "uint256"
        }
      ],
      "stateMutability": "view",
      "type": "function"
    },
    {
      "inputs": [
        {
          "internalType": "uint256[]",
          "name": "_chosenChoices",
          "type": "uint256[]"
        },
        {
          "internalType": "bytes32",
          "name": "_eligibilityProof",
          "type": "bytes32"
        }
      ],
      "name": "addAnswer",
      "outputs": [],
      "stateMutability": "nonpayable",
      "type": "function"
    },
    {
      "inputs": [
        {
          "internalType": "string",
          "name": "_question",
          "type": "string"
        },
        {
          "internalType": "string[]",
          "name": "_choices",
          "type": "string[]"
        }
      ],
      "name": "addTopic",
      "outputs": [],
      "stateMutability": "nonpayable",
      "type": "function"
    },
    {
      "inputs": [
        {
          "internalType": "string[]",
          "name": "_questions",
          "type": "string[]"
        },
        {
          "internalType": "string[][]",
          "name": "_choices",
          "type": "string[][]"
        }
      ],
      "name": "addTopicsBatch",
      "outputs": [],
      "stateMutability": "nonpayable",
      "type": "function"
    },
    {
      "inputs": [],
      "name": "certifierAddress",
      "outputs": [
        {
          "internalType": "address",
          "name": "",
          "type": "address"
        }
      ],
      "stateMutability": "view",
      "type": "function"
    },
    {
      "inputs": [],
      "name": "claimRefund",
      "outputs": [],
      "stateMutability": "nonpayable",
      "type": "function"
    },
    {
      "inputs": [],
      "name": "claimReward",
      "outputs": [],
      "stateMutability": "nonpayable",
      "type": "function"
    },
    {
      "inputs": [],
      "name": "endPoll",
      "outputs": [],
      "stateMutability": "nonpayable",
      "type": "function"
    },
    {
      "inputs": [],
      "name": "getAmountToDAO",
      "outputs": [
        {
          "internalType": "uint256",
          "name": "",
          "type": "uint256"
        }
      ],
      "stateMutability": "view",
      "type": "function"
    },
    {
      "inputs": [],
      "name": "getAmountToRespondent",
      "outputs": [
        {
          "internalType": "uint256",
          "name": "",
          "type": "uint256"
        }
      ],
      "stateMutability": "view",
      "type": "function"
    },
    {
      "inputs": [],
      "name": "getAmountToValidators",
      "outputs": [
        {
          "internalType": "uint256",
          "name": "",
          "type": "uint256"
        }
      ],
      "stateMutability": "view",
      "type": "function"
    },
    {
      "inputs": [],
      "name": "getBalance",
      "outputs": [
        {
          "internalType": "uint256",
          "name": "",
          "type": "uint256"
        }
      ],
      "stateMutability": "view",
      "type": "function"
    },
    {
      "inputs": [],
      "name": "getEligibility",
      "outputs": [
        {
          "internalType": "bool",
          "name": "",
          "type": "bool"
        }
      ],
      "stateMutability": "view",
      "type": "function"
    },
    {
      "inputs": [],
      "name": "getIsCanceled",
      "outputs": [
        {
          "internalType": "bool",
          "name": "",
          "type": "bool"
        }
      ],
      "stateMutability": "view",
      "type": "function"
    },
    {
      "inputs": [],
      "name": "getPackedAnswers",
      "outputs": [
        {
          "internalType": "uint256[]",
          "name": "",
          "type": "uint256[]"
        }
      ],
      "stateMutability": "view",
      "type": "function"
    },
    {
      "inputs": [],
      "name": "getPollInformations",
      "outputs": [
        {
          "internalType": "string",
          "name": "",
          "type": "string"
        },
        {
          "internalType": "string",
          "name": "",
          "type": "string"
        }
      ],
      "stateMutability": "view",
      "type": "function"
    },
    {
      "inputs": [],
      "name": "getPollStatus",
      "outputs": [
        {
          "internalType": "enum PollStorage.PollStatus",
          "name": "",
          "type": "uint8"
        }
      ],
      "stateMutability": "view",
      "type": "function"
    },
    {
      "inputs": [],
      "name": "getRequiredResponseCount",
      "outputs": [
        {
          "internalType": "uint256",
          "name": "",
          "type": "uint256"
        }
      ],
      "stateMutability": "view",
      "type": "function"
    },
    {
      "inputs": [],
      "name": "getRespondentReward",
      "outputs": [
        {
          "internalType": "uint256",
          "name": "",
          "type": "uint256"
        }
      ],
      "stateMutability": "view",
      "type": "function"
    },
    {
      "inputs": [],
      "name": "getRespondentsCount",
      "outputs": [
        {
          "internalType": "uint256",
          "name": "",
          "type": "uint256"
        }
      ],
      "stateMutability": "view",
      "type": "function"
    },
    {
      "inputs": [
        {
          "internalType": "uint256",
          "name": "_answerId",
          "type": "uint256"
        }
      ],
      "name": "getSelectedChoicesByAnswer",
      "outputs": [
        {
          "internalType": "uint256[]",
          "name": "",
          "type": "uint256[]"
        }
      ],
      "stateMutability": "view",
      "type": "function"
    },
    {
      "inputs": [
        {
          "internalType": "uint256",
          "name": "_id",
          "type": "uint256"
        }
      ],
      "name": "getTopic",
      "outputs": [
        {
          "components": [
            {
              "internalType": "uint256",
              "name": "firstChoiceIndex",
              "type": "uint256"
            },
            {
              "internalType": "string",
              "name": "question",
              "type": "string"
            },
            {
              "internalType": "string[]",
              "name": "choices",
              "type": "string[]"
            }
          ],
          "internalType": "struct PollStorage.Topic",
          "name": "",
          "type": "tuple"
        }
      ],
      "stateMutability": "view",
      "type": "function"
    },
    {
      "inputs": [],
      "name": "getTopics",
      "outputs": [
        {
          "components": [
            {
              "internalType": "uint256",
              "name": "firstChoiceIndex",
              "type": "uint256"
            },
            {
              "internalType": "string",
              "name": "question",
              "type": "string"
            },
            {
              "internalType": "string[]",
              "name": "choices",
              "type": "string[]"
            }
          ],
          "internalType": "struct PollStorage.Topic[]",
          "name": "",
          "type": "tuple[]"
        }
      ],
      "stateMutability": "view",
      "type": "function"
    },
    {
      "inputs": [],
      "name": "getTopicsLength",
      "outputs": [
        {
          "internalType": "uint256",
          "name": "",
          "type": "uint256"
        }
      ],
      "stateMutability": "view",
      "type": "function"
    },
    {
      "inputs": [],
      "name": "getUnpackedAnswers",
      "outputs": [
        {
          "internalType": "uint256[][]",
          "name": "",
          "type": "uint256[][]"
        }
      ],
      "stateMutability": "view",
      "type": "function"
    },
    {
      "inputs": [],
      "name": "owner",
      "outputs": [
        {
          "internalType": "address",
          "name": "",
          "type": "address"
        }
      ],
      "stateMutability": "view",
      "type": "function"
    },
    {
      "inputs": [],
      "name": "renounceOwnership",
      "outputs": [],
      "stateMutability": "nonpayable",
      "type": "function"
    },
    {
      "inputs": [
        {
          "internalType": "address",
          "name": "pollAddress",
          "type": "address"
        },
        {
          "internalType": "bool",
          "name": "isValid",
          "type": "bool"
        }
      ],
      "name": "setPollValidation",
      "outputs": [],
      "stateMutability": "payable",
      "type": "function"
    },
    {
      "inputs": [],
      "name": "submitPoll",
      "outputs": [],
      "stateMutability": "nonpayable",
      "type": "function"
    },
    {
      "inputs": [
        {
          "internalType": "address",
          "name": "newOwner",
          "type": "address"
        }
      ],
      "name": "transferOwnership",
      "outputs": [],
      "stateMutability": "nonpayable",
      "type": "function"
    },
    {
      "inputs": [
        {
          "internalType": "uint256",
          "name": "_requiredResponseCount",
          "type": "uint256"
        }
      ],
      "name": "setRequiredResponseCount",
      "outputs": [],
      "stateMutability": "nonpayable",
      "type": "function"
    },
    {
      "inputs": [
        {
          "internalType": "uint256",
          "name": "_respondentsCount",
          "type": "uint256"
        }
      ],
      "name": "setRespondentsCount",
      "outputs": [],
      "stateMutability": "nonpayable",
      "type": "function"
    },
    {
      "inputs": [
        {
          "internalType": "string",
          "name": "_pollName",
          "type": "string"
        },
        {
          "internalType": "string",
          "name": "_pollDescription",
          "type": "string"
        }
      ],
      "name": "setPollInformations",
      "outputs": [],
      "stateMutability": "nonpayable",
      "type": "function"
    },
    {
      "inputs": [
        {
          "internalType": "uint256",
          "name": "_balance",
          "type": "uint256"
        }
      ],
      "name": "setBalance",
      "outputs": [],
      "stateMutability": "nonpayable",
      "type": "function"
    },
    {
      "inputs": [
        {
          "internalType": "uint256",
          "name": "_amountToRespondent",
          "type": "uint256"
        }
      ],
      "name": "setAmountToRespondent",
      "outputs": [],
      "stateMutability": "nonpayable",
      "type": "function"
    },
    {
      "inputs": [
        {
          "internalType": "uint256",
          "name": "_amountToDAO",
          "type": "uint256"
        }
      ],
      "name": "setAmountToDAO",
      "outputs": [],
      "stateMutability": "nonpayable",
      "type": "function"
    },
    {
      "inputs": [
        {
          "internalType": "uint256",
          "name": "_amountToValidators",
          "type": "uint256"
        }
      ],
      "name": "setAmountToValidators",
      "outputs": [],
      "stateMutability": "nonpayable",
      "type": "function"
    },
    {
      "inputs": [
        {
          "internalType": "enum PollStorage.PollStatus",
          "name": "_pollStatus",
          "type": "uint8"
        }
      ],
      "name": "setPollStatus",
      "outputs": [],
      "stateMutability": "nonpayable",
      "type": "function"
    },
    {
      "inputs": [
        {
          "internalType": "bool",
          "name": "_isCanceled",
          "type": "bool"
        }
      ],
      "name": "setIsCanceled",
      "outputs": [],
      "stateMutability": "nonpayable",
      "type": "function"
    },
    {
      "inputs": [
        {
          "internalType": "string",
          "name": "_question",
          "type": "string"
        },
        {
          "internalType": "string[]",
          "name": "_choices",
          "type": "string[]"
        }
      ],
      "name": "setTopic",
      "outputs": [],
      "stateMutability": "nonpayable",
      "type": "function"
    },
    {
      "inputs": [
        {
          "internalType": "uint256[]",
          "name": "choicesPerTopic",
          "type": "uint256[]"
        },
        {
          "internalType": "string[]",
          "name": "questions",
          "type": "string[]"
        },
        {
          "internalType": "string[]",
          "name": "choices",
          "type": "string[]"
        }
      ],
      "name": "setTopics",
      "outputs": [],
      "stateMutability": "nonpayable",
      "type": "function"
    },
    {
      "inputs": [
        {
          "internalType": "uint256[]",
          "name": "_answers",
          "type": "uint256[]"
        }
      ],
      "name": "setAnswers",
      "outputs": [],
      "stateMutability": "nonpayable",
      "type": "function"
    },
    {
      "inputs": [
        {
          "internalType": "uint256[]",
          "name": "_chosenChoices",
          "type": "uint256[]"
        }
      ],
      "name": "testSetBitsFromPositions",
      "outputs": [
        {
          "internalType": "uint256",
          "name": "",
          "type": "uint256"
        }
      ],
      "stateMutability": "pure",
      "type": "function"
    },
    {
      "inputs": [
        {
          "internalType": "uint256",
          "name": "_number",
          "type": "uint256"
        }
      ],
      "name": "testGetSetBitsCount",
      "outputs": [
        {
          "internalType": "uint256",
          "name": "",
          "type": "uint256"
        }
      ],
      "stateMutability": "pure",
      "type": "function"
    },
    {
      "inputs": [
        {
          "internalType": "uint256",
          "name": "_number",
          "type": "uint256"
        }
      ],
      "name": "testGetSetBitsPositions",
      "outputs": [
        {
          "internalType": "uint256[]",
          "name": "",
          "type": "uint256[]"
        }
      ],
      "stateMutability": "pure",
      "type": "function"
    }
  ],
  "bytecode": "0x60806040523480156200001157600080fd5b5062000032620000266200003860201b60201c565b6200004060201b60201c565b62000104565b600033905090565b60008060009054906101000a900473ffffffffffffffffffffffffffffffffffffffff169050816000806101000a81548173ffffffffffffffffffffffffffffffffffffffff021916908373ffffffffffffffffffffffffffffffffffffffff1602179055508173ffffffffffffffffffffffffffffffffffffffff168173ffffffffffffffffffffffffffffffffffffffff167f8be0079c531659141344cd1fd0a4f28419497f9722a3daafe3b4186f6b6457e060405160405180910390a35050565b61548f80620001146000396000f3fe6080604052600436106102e35760003560e01c806376a0db8811610190578063b5545a3c116100dc578063f2fde38b11610095578063f73649f61161006f578063f73649f614610a99578063fb1669ca14610ac2578063fee0117714610aeb578063ff4c4e0d14610b16576102e3565b8063f2fde38b14610a1a578063f5d4d2a814610a43578063f64b0af914610a6e576102e3565b8063b5545a3c14610941578063b88a802f14610958578063c3cd058d1461096f578063de83467a14610998578063e1b9742a146109d5578063ef98cd62146109f1576102e3565b8063a16c716711610149578063a82dcab311610123578063a82dcab314610887578063a92a4fae146108c4578063af56443a146108ef578063b40b04e014610918576102e3565b8063a16c7167146107f6578063a3948a0d1461081f578063a61540641461085c576102e3565b806376a0db881461070c5780638389a3eb14610735578063883032e81461075e5780638c062e4e146107895780638d99b2eb146107b45780638da5cb5b146107cb576102e3565b80633bb3ba3d1161024f57806356528cac116102085780636b126209116101e25780636b126209146106645780636d02247c1461068f578063715018a6146106b857806371658896146106cf576102e3565b806356528cac146105d15780635b07ff3a146105fc5780636a5543e914610639576102e3565b80633bb3ba3d146104ce5780633bbe2497146104fa57806342587e7214610525578063442da8bd1461055057806346b7bc911461057b57806349cf2eae146105a6576102e3565b806314ae031d116102a157806314ae031d146103d05780631a7316ab146103f95780631dd17d2f14610424578063206216c21461044f5780632a0e1c4f14610478578063383da4b1146104a3576102e3565b8062cc86bd146102e85780630256015c1461031357806305f030501461033c57806305f9d4ad14610365578063094053571461037c57806312065fe0146103a5575b600080fd5b3480156102f457600080fd5b506102fd610b41565b60405161030a9190613057565b60405180910390f35b34801561031f57600080fd5b5061033a6004803603810190610335919061330d565b610b4b565b005b34801561034857600080fd5b50610363600480360381019061035e9190613435565b610c46565b005b34801561037157600080fd5b5061037a610ea0565b005b34801561038857600080fd5b506103a3600480360381019061039e919061350e565b611031565b005b3480156103b157600080fd5b506103ba61105e565b6040516103c79190613057565b60405180910390f35b3480156103dc57600080fd5b506103f760048036038101906103f29190613567565b611068565b005b34801561040557600080fd5b5061040e611072565b60405161041b91906135af565b60405180910390f35b34801561043057600080fd5b5061043961113e565b6040516104469190613057565b60405180910390f35b34801561045b57600080fd5b5061047660048036038101906104719190613567565b611143565b005b34801561048457600080fd5b5061048d6111ab565b60405161049a91906135af565b60405180910390f35b3480156104af57600080fd5b506104b86111c2565b6040516104c59190613057565b60405180910390f35b3480156104da57600080fd5b506104e36111c7565b6040516104f1929190613649565b60405180910390f35b34801561050657600080fd5b5061050f6112ee565b60405161051c9190613057565b60405180910390f35b34801561053157600080fd5b5061053a6112f9565b6040516105479190613057565b60405180910390f35b34801561055c57600080fd5b50610565611303565b6040516105729190613057565b60405180910390f35b34801561058757600080fd5b5061059061130d565b60405161059d9190613057565b60405180910390f35b3480156105b257600080fd5b506105bb611354565b6040516105c891906136c1565b60405180910390f35b3480156105dd57600080fd5b506105e661137a565b6040516105f3919061379a565b60405180910390f35b34801561060857600080fd5b50610623600480360381019061061e9190613567565b61144f565b604051610630919061379a565b60405180910390f35b34801561064557600080fd5b5061064e611461565b60405161065b9190613057565b60405180910390f35b34801561067057600080fd5b5061067961146e565b6040516106869190613057565b60405180910390f35b34801561069b57600080fd5b506106b660048036038101906106b19190613567565b611474565b005b3480156106c457600080fd5b506106cd61147e565b005b3480156106db57600080fd5b506106f660048036038101906106f19190613567565b611492565b604051610703919061391f565b60405180910390f35b34801561071857600080fd5b50610733600480360381019061072e9190613941565b611643565b005b34801561074157600080fd5b5061075c600480360381019061075791906139e4565b611659565b005b34801561076a57600080fd5b50610773611885565b6040516107809190613adc565b60405180910390f35b34801561079557600080fd5b5061079e61189c565b6040516107ab91906136c1565b60405180910390f35b3480156107c057600080fd5b506107c96118c2565b005b3480156107d757600080fd5b506107e061196d565b6040516107ed91906136c1565b60405180910390f35b34801561080257600080fd5b5061081d60048036038101906108189190613af7565b611996565b005b34801561082b57600080fd5b5061084660048036038101906108419190613567565b6119c0565b604051610853919061379a565b60405180910390f35b34801561086857600080fd5b50610871611a6d565b60405161087e9190613057565b60405180910390f35b34801561089357600080fd5b506108ae60048036038101906108a99190613941565b611a73565b6040516108bb9190613057565b60405180910390f35b3480156108d057600080fd5b506108d9611a87565b6040516108e69190613057565b60405180910390f35b3480156108fb57600080fd5b5061091660048036038101906109119190613ba4565b611a94565b005b34801561092457600080fd5b5061093f600480360381019061093a9190613567565b611ab1565b005b34801561094d57600080fd5b50610956611abb565b005b34801561096457600080fd5b5061096d611b42565b005b34801561097b57600080fd5b5061099660048036038101906109919190613567565b611e2f565b005b3480156109a457600080fd5b506109bf60048036038101906109ba9190613567565b611e39565b6040516109cc9190613057565b60405180910390f35b6109ef60048036038101906109ea9190613bfd565b611e4b565b005b3480156109fd57600080fd5b50610a186004803603810190610a139190613c3d565b61208d565b005b348015610a2657600080fd5b50610a416004803603810190610a3c9190613cbe565b6122ed565b005b348015610a4f57600080fd5b50610a58612370565b604051610a659190613e1c565b60405180910390f35b348015610a7a57600080fd5b50610a83612499565b604051610a909190613057565b60405180910390f35b348015610aa557600080fd5b50610ac06004803603810190610abb9190613e74565b6124a3565b005b348015610ace57600080fd5b50610ae96004803603810190610ae49190613567565b6126dc565b005b348015610af757600080fd5b50610b006126e6565b604051610b0d9190613fed565b60405180910390f35b348015610b2257600080fd5b50610b2b6128ba565b604051610b389190613057565b60405180910390f35b6000600354905090565b60006004549050610b5a612ea9565b8181600001818152505084848080601f016020809104026020016040519081016040528093929190818152602001838380828437600081840152601f19601f820116905080830192505050505050508160200181905250828160400181905250825160046000828254610bcd919061403e565b92505081905550600e819080600181540180825580915050600190039060005260206000209060030201600090919091909150600082015181600001556020820151816001019081610c1f919061427e565b506040820151816002019080519060200190610c3c929190612eca565b5050505050505050565b838390508686905014610c8e576040517f08c379a0000000000000000000000000000000000000000000000000000000008152600401610c859061439c565b60405180910390fd5b60008484905067ffffffffffffffff811115610cad57610cac6130fc565b5b604051908082528060200260200182016040528015610ce657816020015b610cd3612ea9565b815260200190600190039081610ccb5790505b5090506000805b88889050811015610e95576000898983818110610d0d57610d0c6143bc565b5b9050602002013567ffffffffffffffff811115610d2d57610d2c6130fc565b5b604051908082528060200260200182016040528015610d6057816020015b6060815260200190600190039081610d4b5790505b50905060005b8a8a84818110610d7957610d786143bc565b5b90506020020135811015610e2b5786868286610d95919061403e565b818110610da557610da46143bc565b5b9050602002810190610db791906143fa565b8080601f016020809104026020016040519081016040528093929190818152602001838380828437600081840152601f19601f82011690508083019250505050505050828281518110610e0d57610e0c6143bc565b5b60200260200101819052508080610e239061445d565b915050610d66565b50898983818110610e3f57610e3e6143bc565b5b9050602002013583610e51919061403e565b9250610e81888884818110610e6957610e686143bc565b5b9050602002810190610e7b91906143fa565b83610b4b565b508080610e8d9061445d565b915050610ced565b505050505050505050565b610ea86128c4565b60006005811115610ebc57610ebb613a65565b5b600c60009054906101000a900460ff166005811115610ede57610edd613a65565b5b14610f1e576040517f08c379a0000000000000000000000000000000000000000000000000000000008152600401610f15906144f1565b60405180910390fd5b6000600954600a54610f30919061403e565b9050600160009054906101000a900473ffffffffffffffffffffffffffffffffffffffff1673ffffffffffffffffffffffffffffffffffffffff1663b46411c38230600a546009546040518563ffffffff1660e01b8152600401610f9693929190614511565b6000604051808303818588803b158015610faf57600080fd5b505af1158015610fc3573d6000803e3d6000fd5b50505050506001600c60006101000a81548160ff02191690836005811115610fee57610fed613a65565b5b02179055507f20f7c135505514c16ee7e30eb8127c87b82a910a6b28e61ad0feb1a77473f4fe60006001604051611026929190614548565b60405180910390a150565b80600c60006101000a81548160ff0219169083600581111561105657611055613a65565b5b021790555050565b6000600854905090565b8060038190555050565b6000604051602001611083906145ee565b60405160208183030381529060405280519060200120600260009054906101000a900473ffffffffffffffffffffffffffffffffffffffff1673ffffffffffffffffffffffffffffffffffffffff1663384d405b6007336040518363ffffffff1660e01b81526004016110f7929190614687565b602060405180830381865afa158015611114573d6000803e3d6000fd5b505050506040513d601f19601f8201168201806040525081019061113891906146cc565b14905090565b600a81565b60008167ffffffffffffffff81111561115f5761115e6130fc565b5b60405190808252806020026020018201604052801561118d5781602001602082028036833780820191505090505b50905080600f90805190602001906111a6929190612f23565b505050565b6000600c60019054906101000a900460ff16905090565b603281565b606080600560068180546111da906140a1565b80601f0160208091040260200160405190810160405280929190818152602001828054611206906140a1565b80156112535780601f1061122857610100808354040283529160200191611253565b820191906000526020600020905b81548152906001019060200180831161123657829003601f168201915b50505050509150808054611266906140a1565b80601f0160208091040260200160405190810160405280929190818152602001828054611292906140a1565b80156112df5780601f106112b4576101008083540402835291602001916112df565b820191906000526020600020905b8154815290600101906020018083116112c257829003601f168201915b50505050509050915091509091565b66b1a2bc2ec5000081565b655af3107a400081565b6000600b54905090565b6000600d60003373ffffffffffffffffffffffffffffffffffffffff1673ffffffffffffffffffffffffffffffffffffffff16815260200190815260200160002054905090565b600260009054906101000a900473ffffffffffffffffffffffffffffffffffffffff1681565b60606113846128c4565b60058081111561139757611396613a65565b5b600c60009054906101000a900460ff1660058111156113b9576113b8613a65565b5b146113f9576040517f08c379a00000000000000000000000000000000000000000000000000000000081526004016113f090614745565b60405180910390fd5b600f80548060200260200160405190810160405280929190818152602001828054801561144557602002820191906000526020600020905b815481526020019060010190808311611431575b5050505050905090565b606061145a82612942565b9050919050565b6000600f80549050905090565b6103e881565b8060098190555050565b6114866128c4565b61149060006129fe565b565b61149a612ea9565b600e82815481106114ae576114ad6143bc565b5b9060005260206000209060030201604051806060016040529081600082015481526020016001820180546114e1906140a1565b80601f016020809104026020016040519081016040528092919081815260200182805461150d906140a1565b801561155a5780601f1061152f5761010080835404028352916020019161155a565b820191906000526020600020905b81548152906001019060200180831161153d57829003601f168201915b5050505050815260200160028201805480602002602001604051908101604052809291908181526020016000905b828210156116345783829060005260206000200180546115a7906140a1565b80601f01602080910402602001604051908101604052809291908181526020018280546115d3906140a1565b80156116205780601f106115f557610100808354040283529160200191611620565b820191906000526020600020905b81548152906001019060200180831161160357829003601f168201915b505050505081526020019060010190611588565b50505050815250509050919050565b8181600f9190611654929190612f70565b505050565b6116616128c4565b8181905084849050146116a9576040517f08c379a00000000000000000000000000000000000000000000000000000000081526004016116a0906147b1565b60405180910390fd5b600060045490506000600e905060005b86869050811015611830576116cc612ea9565b838160000181815250508787838181106116e9576116e86143bc565b5b90506020028101906116fb91906143fa565b8080601f016020809104026020016040519081016040528093929190818152602001838380828437600081840152601f19601f820116905080830192505050505050508160200181905250858583818110611759576117586143bc565b5b905060200281019061176b91906147d1565b906117769190614834565b8160400181905250858583818110611791576117906143bc565b5b90506020028101906117a391906147d1565b9050846117b0919061403e565b9350828190806001815401808255809150506001900390600052602060002090600302016000909190919091506000820151816000015560208201518160010190816117fc919061427e565b506040820151816002019080519060200190611819929190612eca565b5050505080806118289061445d565b9150506116b9565b50816004819055507fbf7e450152e82a72724b6c2028c2955b2294c0579262526315aa44919e2be9c586869050600e8054905060045460405161187593929190614849565b60405180910390a1505050505050565b6000600c60009054906101000a900460ff16905090565b600160009054906101000a900473ffffffffffffffffffffffffffffffffffffffff1681565b6118ca6128c4565b600460058111156118de576118dd613a65565b5b600c60009054906101000a900460ff166005811115611900576118ff613a65565b5b14611940576040517f08c379a0000000000000000000000000000000000000000000000000000000008152600401611937906148cc565b60405180910390fd5b6005600c60006101000a81548160ff0219169083600581111561196657611965613a65565b5b0217905550565b60008060009054906101000a900473ffffffffffffffffffffffffffffffffffffffff16905090565b8383600591826119a79291906148f7565b508181600691826119b99291906148f7565b5050505050565b60606119ca6128c4565b6005808111156119dd576119dc613a65565b5b600c60009054906101000a900460ff1660058111156119ff576119fe613a65565b5b14611a3f576040517f08c379a0000000000000000000000000000000000000000000000000000000008152600401611a3690614745565b60405180910390fd5b611a66600f8381548110611a5657611a556143bc565b5b9060005260206000200154612942565b9050919050565b61010081565b6000611a7f8383612ac2565b905092915050565b6000600e80549050905090565b80600c60016101000a81548160ff02191690831515021790555050565b80600a8190555050565b611ac36128c4565b600580811115611ad657611ad5613a65565b5b600c60009054906101000a900460ff166005811115611af857611af7613a65565b5b14611b38576040517f08c379a0000000000000000000000000000000000000000000000000000000008152600401611b2f90614a13565b60405180910390fd5b611b40612b9f565b565b600580811115611b5557611b54613a65565b5b600c60009054906101000a900460ff166005811115611b7757611b76613a65565b5b14611bb7576040517f08c379a0000000000000000000000000000000000000000000000000000000008152600401611bae90614745565b60405180910390fd5b6000600d60003373ffffffffffffffffffffffffffffffffffffffff1673ffffffffffffffffffffffffffffffffffffffff1681526020019081526020016000205403611c39576040517f08c379a0000000000000000000000000000000000000000000000000000000008152600401611c3090614a7f565b60405180910390fd5b600d60003373ffffffffffffffffffffffffffffffffffffffff1673ffffffffffffffffffffffffffffffffffffffff168152602001908152602001600020546008541015611cbd576040517f08c379a0000000000000000000000000000000000000000000000000000000008152600401611cb490614aeb565b60405180910390fd5b6000600d60003373ffffffffffffffffffffffffffffffffffffffff1673ffffffffffffffffffffffffffffffffffffffff1681526020019081526020016000205490506000600d60003373ffffffffffffffffffffffffffffffffffffffff1673ffffffffffffffffffffffffffffffffffffffff1681526020019081526020016000208190555060003373ffffffffffffffffffffffffffffffffffffffff1682604051611d6c90614b3c565b60006040518083038185875af1925050503d8060008114611da9576040519150601f19603f3d011682016040523d82523d6000602084013e611dae565b606091505b5050905080611df2576040517f08c379a0000000000000000000000000000000000000000000000000000000008152600401611de990614b9d565b60405180910390fd5b7fbb23de5c4d0ac7c049b292881397f32ddab597aebe0859c2baf41548d5c20c373383604051611e23929190614c09565b60405180910390a15050565b80600b8190555050565b6000611e4482612d29565b9050919050565b600160009054906101000a900473ffffffffffffffffffffffffffffffffffffffff1673ffffffffffffffffffffffffffffffffffffffff163373ffffffffffffffffffffffffffffffffffffffff1614611edb576040517f08c379a0000000000000000000000000000000000000000000000000000000008152600401611ed290614c91565b60405180910390fd5b60016005811115611eef57611eee613a65565b5b600c60009054906101000a900460ff166005811115611f1157611f10613a65565b5b14611f51576040517f08c379a0000000000000000000000000000000000000000000000000000000008152600401611f4890614cfd565b60405180910390fd5b3073ffffffffffffffffffffffffffffffffffffffff168273ffffffffffffffffffffffffffffffffffffffff1614611fbf576040517f08c379a0000000000000000000000000000000000000000000000000000000008152600401611fb690614d69565b60405180910390fd5b8080611fcd57506009543410155b61200c576040517f08c379a000000000000000000000000000000000000000000000000000000000815260040161200390614dd5565b60405180910390fd5b8015612042576004600c60006101000a81548160ff0219169083600581111561203857612037613a65565b5b0217905550612089565b6001600c60016101000a81548160ff0219169083151502179055506005600c60006101000a81548160ff0219169083600581111561208357612082613a65565b5b02179055505b5050565b6120956128c4565b600060058111156120a9576120a8613a65565b5b600c60009054906101000a900460ff1660058111156120cb576120ca613a65565b5b1461210b576040517f08c379a0000000000000000000000000000000000000000000000000000000008152600401612102906144f1565b60405180910390fd5b600a828290501115612152576040517f08c379a000000000000000000000000000000000000000000000000000000000815260040161214990614e41565b60405180910390fd5b603282829050600454612165919061403e565b11156121a6576040517f08c379a000000000000000000000000000000000000000000000000000000000815260040161219d90614ead565b60405180910390fd5b6121ae612ea9565b60045481600001818152505084848080601f016020809104026020016040519081016040528093929190818152602001838380828437600081840152601f19601f8201169050808301925050505050505081602001819052508282906122149190614834565b81604001819052508282905060046000828254612231919061403e565b92505081905550600e819080600181540180825580915050600190039060005260206000209060030201600090919091909150600082015181600001556020820151816001019081612283919061427e565b5060408201518160020190805190602001906122a0929190612eca565b5050507fbf7e450152e82a72724b6c2028c2955b2294c0579262526315aa44919e2be9c56001600e805490506004546040516122de93929190614f08565b60405180910390a15050505050565b6122f56128c4565b600073ffffffffffffffffffffffffffffffffffffffff168173ffffffffffffffffffffffffffffffffffffffff1603612364576040517f08c379a000000000000000000000000000000000000000000000000000000000815260040161235b90614fb1565b60405180910390fd5b61236d816129fe565b50565b606061237a6128c4565b60058081111561238d5761238c613a65565b5b600c60009054906101000a900460ff1660058111156123af576123ae613a65565b5b146123ef576040517f08c379a00000000000000000000000000000000000000000000000000000000081526004016123e690614745565b60405180910390fd5b6000600f80549050905060008167ffffffffffffffff811115612415576124146130fc565b5b60405190808252806020026020018201604052801561244857816020015b60608152602001906001900390816124335790505b50905060005b828110156124905761245f816119c0565b828281518110612472576124716143bc565b5b602002602001018190525080806124889061445d565b91505061244e565b50809250505090565b6000600954905090565b600460058111156124b7576124b6613a65565b5b600c60009054906101000a900460ff1660058111156124d9576124d8613a65565b5b14612519576040517f08c379a0000000000000000000000000000000000000000000000000000000008152600401612510906148cc565b60405180910390fd5b6000600d60003373ffffffffffffffffffffffffffffffffffffffff1673ffffffffffffffffffffffffffffffffffffffff168152602001908152602001600020541461259b576040517f08c379a00000000000000000000000000000000000000000000000000000000081526004016125929061501d565b60405180910390fd5b6004548383905011156125e3576040517f08c379a00000000000000000000000000000000000000000000000000000000081526004016125da90615089565b60405180910390fd5b6125eb611072565b61262a576040517f08c379a0000000000000000000000000000000000000000000000000000000008152600401612621906150f5565b60405180910390fd5b600454838360018686905061263f9190615115565b81811061264f5761264e6143bc565b5b9050602002013510612696576040517f08c379a000000000000000000000000000000000000000000000000000000000815260040161268d90615195565b60405180910390fd5b60006126a28484612ac2565b9050600f8190806001815401808255809150506001900390600052602060002001600090919091909150556126d633612d62565b50505050565b8060088190555050565b6060600e805480602002602001604051908101604052809291908181526020016000905b828210156128b1578382906000526020600020906003020160405180606001604052908160008201548152602001600182018054612747906140a1565b80601f0160208091040260200160405190810160405280929190818152602001828054612773906140a1565b80156127c05780601f10612795576101008083540402835291602001916127c0565b820191906000526020600020905b8154815290600101906020018083116127a357829003601f168201915b5050505050815260200160028201805480602002602001604051908101604052809291908181526020016000905b8282101561289a57838290600052602060002001805461280d906140a1565b80601f0160208091040260200160405190810160405280929190818152602001828054612839906140a1565b80156128865780601f1061285b57610100808354040283529160200191612886565b820191906000526020600020905b81548152906001019060200180831161286957829003601f168201915b5050505050815260200190600101906127ee565b50505050815250508152602001906001019061270a565b50505050905090565b6000600a54905090565b6128cc612ea1565b73ffffffffffffffffffffffffffffffffffffffff166128ea61196d565b73ffffffffffffffffffffffffffffffffffffffff1614612940576040517f08c379a000000000000000000000000000000000000000000000000000000000815260040161293790615201565b60405180910390fd5b565b6060600061294f83612d29565b905060008167ffffffffffffffff81111561296d5761296c6130fc565b5b60405190808252806020026020018201604052801561299b5781602001602082028036833780820191505090505b5090506000805b6101008110156129f2576000816001901b8716146129e757808383815181106129ce576129cd6143bc565b5b602002602001018181525050816129e49061445d565b91505b8060010190506129a2565b50819350505050919050565b60008060009054906101000a900473ffffffffffffffffffffffffffffffffffffffff169050816000806101000a81548173ffffffffffffffffffffffffffffffffffffffff021916908373ffffffffffffffffffffffffffffffffffffffff1602179055508173ffffffffffffffffffffffffffffffffffffffff168173ffffffffffffffffffffffffffffffffffffffff167f8be0079c531659141344cd1fd0a4f28419497f9722a3daafe3b4186f6b6457e060405160405180910390a35050565b600080838390509050610100811115612b10576040517f08c379a0000000000000000000000000000000000000000000000000000000008152600401612b079061526d565b60405180910390fd5b60008060005b83811015612b9257868682818110612b3157612b306143bc565b5b90506020020135925060ff831115612b7e576040517f08c379a0000000000000000000000000000000000000000000000000000000008152600401612b75906152d9565b60405180910390fd5b826001901b82179150806001019050612b16565b5080935050505092915050565b612ba76128c4565b600060085411612bec576040517f08c379a0000000000000000000000000000000000000000000000000000000008152600401612be390614dd5565b60405180910390fd5b476008541115612c31576040517f08c379a0000000000000000000000000000000000000000000000000000000008152600401612c2890614aeb565b60405180910390fd5b60006008549050600060088190555060003373ffffffffffffffffffffffffffffffffffffffff1682604051612c6690614b3c565b60006040518083038185875af1925050503d8060008114612ca3576040519150601f19603f3d011682016040523d82523d6000602084013e612ca8565b606091505b5050905080612cec576040517f08c379a0000000000000000000000000000000000000000000000000000000008152600401612ce390615345565b60405180910390fd5b7fbb23de5c4d0ac7c049b292881397f32ddab597aebe0859c2baf41548d5c20c373383604051612d1d9291906153b1565b60405180910390a15050565b60008060008390505b6000811115612d58576001811682612d4a919061403e565b9150600181901c9050612d32565b8192505050919050565b6000600d60008373ffffffffffffffffffffffffffffffffffffffff1673ffffffffffffffffffffffffffffffffffffffff1681526020019081526020016000205414612de4576040517f08c379a0000000000000000000000000000000000000000000000000000000008152600401612ddb90615439565b60405180910390fd5b600b546008541015612e2b576040517f08c379a0000000000000000000000000000000000000000000000000000000008152600401612e2290614aeb565b60405180910390fd5b600b5460086000828254612e3f9190615115565b92505081905550600b54600d60008373ffffffffffffffffffffffffffffffffffffffff1673ffffffffffffffffffffffffffffffffffffffff1681526020019081526020016000206000828254612e97919061403e565b9250508190555050565b600033905090565b60405180606001604052806000815260200160608152602001606081525090565b828054828255906000526020600020908101928215612f12579160200282015b82811115612f11578251829081612f01919061427e565b5091602001919060010190612eea565b5b509050612f1f9190612fbd565b5090565b828054828255906000526020600020908101928215612f5f579160200282015b82811115612f5e578251825591602001919060010190612f43565b5b509050612f6c9190612fe1565b5090565b828054828255906000526020600020908101928215612fac579160200282015b82811115612fab578235825591602001919060010190612f90565b5b509050612fb99190612fe1565b5090565b5b80821115612fdd5760008181612fd49190612ffe565b50600101612fbe565b5090565b5b80821115612ffa576000816000905550600101612fe2565b5090565b50805461300a906140a1565b6000825580601f1061301c575061303b565b601f01602090049060005260206000209081019061303a9190612fe1565b5b50565b6000819050919050565b6130518161303e565b82525050565b600060208201905061306c6000830184613048565b92915050565b6000604051905090565b600080fd5b600080fd5b600080fd5b600080fd5b600080fd5b60008083601f8401126130ab576130aa613086565b5b8235905067ffffffffffffffff8111156130c8576130c761308b565b5b6020830191508360018202830111156130e4576130e3613090565b5b9250929050565b6000601f19601f8301169050919050565b7f4e487b7100000000000000000000000000000000000000000000000000000000600052604160045260246000fd5b613134826130eb565b810181811067ffffffffffffffff82111715613153576131526130fc565b5b80604052505050565b6000613166613072565b9050613172828261312b565b919050565b600067ffffffffffffffff821115613192576131916130fc565b5b602082029050602081019050919050565b600080fd5b600067ffffffffffffffff8211156131c3576131c26130fc565b5b6131cc826130eb565b9050602081019050919050565b82818337600083830152505050565b60006131fb6131f6846131a8565b61315c565b905082815260208101848484011115613217576132166131a3565b5b6132228482856131d9565b509392505050565b600082601f83011261323f5761323e613086565b5b813561324f8482602086016131e8565b91505092915050565b600061326b61326684613177565b61315c565b9050808382526020820190506020840283018581111561328e5761328d613090565b5b835b818110156132d557803567ffffffffffffffff8111156132b3576132b2613086565b5b8086016132c0898261322a565b85526020850194505050602081019050613290565b5050509392505050565b600082601f8301126132f4576132f3613086565b5b8135613304848260208601613258565b91505092915050565b6000806000604084860312156133265761332561307c565b5b600084013567ffffffffffffffff81111561334457613343613081565b5b61335086828701613095565b9350935050602084013567ffffffffffffffff81111561337357613372613081565b5b61337f868287016132df565b9150509250925092565b60008083601f84011261339f5761339e613086565b5b8235905067ffffffffffffffff8111156133bc576133bb61308b565b5b6020830191508360208202830111156133d8576133d7613090565b5b9250929050565b60008083601f8401126133f5576133f4613086565b5b8235905067ffffffffffffffff8111156134125761341161308b565b5b60208301915083602082028301111561342e5761342d613090565b5b9250929050565b600080600080600080606087890312156134525761345161307c565b5b600087013567ffffffffffffffff8111156134705761346f613081565b5b61347c89828a01613389565b9650965050602087013567ffffffffffffffff81111561349f5761349e613081565b5b6134ab89828a016133df565b9450945050604087013567ffffffffffffffff8111156134ce576134cd613081565b5b6134da89828a016133df565b92509250509295509295509295565b600681106134f657600080fd5b50565b600081359050613508816134e9565b92915050565b6000602082840312156135245761352361307c565b5b6000613532848285016134f9565b91505092915050565b6135448161303e565b811461354f57600080fd5b50565b6000813590506135618161353b565b92915050565b60006020828403121561357d5761357c61307c565b5b600061358b84828501613552565b91505092915050565b60008115159050919050565b6135a981613594565b82525050565b60006020820190506135c460008301846135a0565b92915050565b600081519050919050565b600082825260208201905092915050565b60005b838110156136045780820151818401526020810190506135e9565b60008484015250505050565b600061361b826135ca565b61362581856135d5565b93506136358185602086016135e6565b61363e816130eb565b840191505092915050565b600060408201905081810360008301526136638185613610565b905081810360208301526136778184613610565b90509392505050565b600073ffffffffffffffffffffffffffffffffffffffff82169050919050565b60006136ab82613680565b9050919050565b6136bb816136a0565b82525050565b60006020820190506136d660008301846136b2565b92915050565b600081519050919050565b600082825260208201905092915050565b6000819050602082019050919050565b6137118161303e565b82525050565b60006137238383613708565b60208301905092915050565b6000602082019050919050565b6000613747826136dc565b61375181856136e7565b935061375c836136f8565b8060005b8381101561378d5781516137748882613717565b975061377f8361372f565b925050600181019050613760565b5085935050505092915050565b600060208201905081810360008301526137b4818461373c565b905092915050565b600082825260208201905092915050565b60006137d8826135ca565b6137e281856137bc565b93506137f28185602086016135e6565b6137fb816130eb565b840191505092915050565b600081519050919050565b600082825260208201905092915050565b6000819050602082019050919050565b600061383e83836137cd565b905092915050565b6000602082019050919050565b600061385e82613806565b6138688185613811565b93508360208202850161387a85613822565b8060005b858110156138b657848403895281516138978582613832565b94506138a283613846565b925060208a0199505060018101905061387e565b50829750879550505050505092915050565b60006060830160008301516138e06000860182613708565b50602083015184820360208601526138f882826137cd565b915050604083015184820360408601526139128282613853565b9150508091505092915050565b6000602082019050818103600083015261393981846138c8565b905092915050565b600080602083850312156139585761395761307c565b5b600083013567ffffffffffffffff81111561397657613975613081565b5b61398285828601613389565b92509250509250929050565b60008083601f8401126139a4576139a3613086565b5b8235905067ffffffffffffffff8111156139c1576139c061308b565b5b6020830191508360208202830111156139dd576139dc613090565b5b9250929050565b600080600080604085870312156139fe576139fd61307c565b5b600085013567ffffffffffffffff811115613a1c57613a1b613081565b5b613a28878288016133df565b9450945050602085013567ffffffffffffffff811115613a4b57613a4a613081565b5b613a578782880161398e565b925092505092959194509250565b7f4e487b7100000000000000000000000000000000000000000000000000000000600052602160045260246000fd5b60068110613aa557613aa4613a65565b5b50565b6000819050613ab682613a94565b919050565b6000613ac682613aa8565b9050919050565b613ad681613abb565b82525050565b6000602082019050613af16000830184613acd565b92915050565b60008060008060408587031215613b1157613b1061307c565b5b600085013567ffffffffffffffff811115613b2f57613b2e613081565b5b613b3b87828801613095565b9450945050602085013567ffffffffffffffff811115613b5e57613b5d613081565b5b613b6a87828801613095565b925092505092959194509250565b613b8181613594565b8114613b8c57600080fd5b50565b600081359050613b9e81613b78565b92915050565b600060208284031215613bba57613bb961307c565b5b6000613bc884828501613b8f565b91505092915050565b613bda816136a0565b8114613be557600080fd5b50565b600081359050613bf781613bd1565b92915050565b60008060408385031215613c1457613c1361307c565b5b6000613c2285828601613be8565b9250506020613c3385828601613b8f565b9150509250929050565b60008060008060408587031215613c5757613c5661307c565b5b600085013567ffffffffffffffff811115613c7557613c74613081565b5b613c8187828801613095565b9450945050602085013567ffffffffffffffff811115613ca457613ca3613081565b5b613cb0878288016133df565b925092505092959194509250565b600060208284031215613cd457613cd361307c565b5b6000613ce284828501613be8565b91505092915050565b600081519050919050565b600082825260208201905092915050565b6000819050602082019050919050565b600082825260208201905092915050565b6000613d33826136dc565b613d3d8185613d17565b9350613d48836136f8565b8060005b83811015613d79578151613d608882613717565b9750613d6b8361372f565b925050600181019050613d4c565b5085935050505092915050565b6000613d928383613d28565b905092915050565b6000602082019050919050565b6000613db282613ceb565b613dbc8185613cf6565b935083602082028501613dce85613d07565b8060005b85811015613e0a5784840389528151613deb8582613d86565b9450613df683613d9a565b925060208a01995050600181019050613dd2565b50829750879550505050505092915050565b60006020820190508181036000830152613e368184613da7565b905092915050565b6000819050919050565b613e5181613e3e565b8114613e5c57600080fd5b50565b600081359050613e6e81613e48565b92915050565b600080600060408486031215613e8d57613e8c61307c565b5b600084013567ffffffffffffffff811115613eab57613eaa613081565b5b613eb786828701613389565b93509350506020613eca86828701613e5f565b9150509250925092565b600081519050919050565b600082825260208201905092915050565b6000819050602082019050919050565b6000606083016000830151613f186000860182613708565b5060208301518482036020860152613f3082826137cd565b91505060408301518482036040860152613f4a8282613853565b9150508091505092915050565b6000613f638383613f00565b905092915050565b6000602082019050919050565b6000613f8382613ed4565b613f8d8185613edf565b935083602082028501613f9f85613ef0565b8060005b85811015613fdb5784840389528151613fbc8582613f57565b9450613fc783613f6b565b925060208a01995050600181019050613fa3565b50829750879550505050505092915050565b600060208201905081810360008301526140078184613f78565b905092915050565b7f4e487b7100000000000000000000000000000000000000000000000000000000600052601160045260246000fd5b60006140498261303e565b91506140548361303e565b925082820190508082111561406c5761406b61400f565b5b92915050565b7f4e487b7100000000000000000000000000000000000000000000000000000000600052602260045260246000fd5b600060028204905060018216806140b957607f821691505b6020821081036140cc576140cb614072565b5b50919050565b60008190508160005260206000209050919050565b60006020601f8301049050919050565b600082821b905092915050565b6000600883026141347fffffffffffffffffffffffffffffffffffffffffffffffffffffffffffffffff826140f7565b61413e86836140f7565b95508019841693508086168417925050509392505050565b6000819050919050565b600061417b6141766141718461303e565b614156565b61303e565b9050919050565b6000819050919050565b61419583614160565b6141a96141a182614182565b848454614104565b825550505050565b600090565b6141be6141b1565b6141c981848461418c565b505050565b5b818110156141ed576141e26000826141b6565b6001810190506141cf565b5050565b601f82111561423257614203816140d2565b61420c846140e7565b8101602085101561421b578190505b61422f614227856140e7565b8301826141ce565b50505b505050565b600082821c905092915050565b600061425560001984600802614237565b1980831691505092915050565b600061426e8383614244565b9150826002028217905092915050565b614287826135ca565b67ffffffffffffffff8111156142a05761429f6130fc565b5b6142aa82546140a1565b6142b58282856141f1565b600060209050601f8311600181146142e857600084156142d6578287015190505b6142e08582614262565b865550614348565b601f1984166142f6866140d2565b60005b8281101561431e578489015182556001820191506020850194506020810190506142f9565b8683101561433b5784890151614337601f891682614244565b8355505b6001600288020188555050505b505050505050565b7f57726f6e67206e756d626572206f66207175657374696f6e7300000000000000600082015250565b60006143866019836135d5565b915061439182614350565b602082019050919050565b600060208201905081810360008301526143b581614379565b9050919050565b7f4e487b7100000000000000000000000000000000000000000000000000000000600052603260045260246000fd5b600080fd5b600080fd5b600080fd5b60008083356001602003843603038112614417576144166143eb565b5b80840192508235915067ffffffffffffffff821115614439576144386143f0565b5b602083019250600182023603831315614455576144546143f5565b5b509250929050565b60006144688261303e565b91507fffffffffffffffffffffffffffffffffffffffffffffffffffffffffffffffff820361449a5761449961400f565b5b600182019050919050565b7f506f6c6c20616c7265616479207375626d697474656400000000000000000000600082015250565b60006144db6016836135d5565b91506144e6826144a5565b602082019050919050565b6000602082019050818103600083015261450a816144ce565b9050919050565b600060608201905061452660008301866136b2565b6145336020830185613048565b6145406040830184613048565b949350505050565b600060408201905061455d6000830185613acd565b61456a6020830184613acd565b9392505050565b600081905092915050565b7f4920636c61696d2074686973206164647265737320697320636572746966696560008201527f6400000000000000000000000000000000000000000000000000000000000000602082015250565b60006145d8602183614571565b91506145e38261457c565b602182019050919050565b60006145f9826145cb565b9150819050919050565b60008154614610816140a1565b61461a81866135d5565b94506001821660008114614635576001811461464b5761467e565b60ff19831686528115156020028601935061467e565b614654856140d2565b60005b8381101561467657815481890152600182019150602081019050614657565b808801955050505b50505092915050565b600060408201905081810360008301526146a18185614603565b90506146b060208301846136b2565b9392505050565b6000815190506146c681613e48565b92915050565b6000602082840312156146e2576146e161307c565b5b60006146f0848285016146b7565b91505092915050565b7f506f6c6c696e67206e6f7420656e646564000000000000000000000000000000600082015250565b600061472f6011836135d5565b915061473a826146f9565b602082019050919050565b6000602082019050818103600083015261475e81614722565b9050919050565b7f417272617973206d7573742068617665207468652073616d65206c656e677468600082015250565b600061479b6020836135d5565b91506147a682614765565b602082019050919050565b600060208201905081810360008301526147ca8161478e565b9050919050565b600080833560016020038436030381126147ee576147ed6143eb565b5b80840192508235915067ffffffffffffffff8211156148105761480f6143f0565b5b60208301925060208202360383131561482c5761482b6143f5565b5b509250929050565b6000614841368484613258565b905092915050565b600060608201905061485e6000830186613048565b61486b6020830185613048565b6148786040830184613048565b949350505050565b7f506f6c6c696e67206e6f74207374617274656400000000000000000000000000600082015250565b60006148b66013836135d5565b91506148c182614880565b602082019050919050565b600060208201905081810360008301526148e5816148a9565b9050919050565b600082905092915050565b61490183836148ec565b67ffffffffffffffff81111561491a576149196130fc565b5b61492482546140a1565b61492f8282856141f1565b6000601f83116001811461495e576000841561494c578287013590505b6149568582614262565b8655506149be565b601f19841661496c866140d2565b60005b828110156149945784890135825560018201915060208501945060208101905061496f565b868310156149b157848901356149ad601f891682614244565b8355505b6001600288020188555050505b50505050505050565b7f506f6c6c20616c72656164792064697374726962757465640000000000000000600082015250565b60006149fd6018836135d5565b9150614a08826149c7565b602082019050919050565b60006020820190508181036000830152614a2c816149f0565b9050919050565b7f416c726561647920636c61696d65640000000000000000000000000000000000600082015250565b6000614a69600f836135d5565b9150614a7482614a33565b602082019050919050565b60006020820190508181036000830152614a9881614a5c565b9050919050565b7f4e6f7420656e6f7567682066756e647300000000000000000000000000000000600082015250565b6000614ad56010836135d5565b9150614ae082614a9f565b602082019050919050565b60006020820190508181036000830152614b0481614ac8565b9050919050565b600081905092915050565b50565b6000614b26600083614b0b565b9150614b3182614b16565b600082019050919050565b6000614b4782614b19565b9150819050919050565b7f5472616e73666572206661696c65640000000000000000000000000000000000600082015250565b6000614b87600f836135d5565b9150614b9282614b51565b602082019050919050565b60006020820190508181036000830152614bb681614b7a565b9050919050565b7f52657761726420636c61696d6564000000000000000000000000000000000000600082015250565b6000614bf3600e836135d5565b9150614bfe82614bbd565b602082019050919050565b6000606082019050614c1e60008301856136b2565b614c2b6020830184613048565b8181036040830152614c3c81614be6565b90509392505050565b7f4f6e6c792044414f2063616e2063616c6c20746869732066756e6374696f6e00600082015250565b6000614c7b601f836135d5565b9150614c8682614c45565b602082019050919050565b60006020820190508181036000830152614caa81614c6e565b9050919050565b7f506f6c6c206e6f74207375626d69747465640000000000000000000000000000600082015250565b6000614ce76012836135d5565b9150614cf282614cb1565b602082019050919050565b60006020820190508181036000830152614d1681614cda565b9050919050565b7f57726f6e6720706f6c6c20616464726573730000000000000000000000000000600082015250565b6000614d536012836135d5565b9150614d5e82614d1d565b602082019050919050565b60006020820190508181036000830152614d8281614d46565b9050919050565b7f4e6f2066756e647320746f20726566756e640000000000000000000000000000600082015250565b6000614dbf6012836135d5565b9150614dca82614d89565b602082019050919050565b60006020820190508181036000830152614dee81614db2565b9050919050565b7f546f6f206d616e792063686f6963657300000000000000000000000000000000600082015250565b6000614e2b6010836135d5565b9150614e3682614df5565b602082019050919050565b60006020820190508181036000830152614e5a81614e1e565b9050919050565b7f546f6f206d616e7920746f706963730000000000000000000000000000000000600082015250565b6000614e97600f836135d5565b9150614ea282614e61565b602082019050919050565b60006020820190508181036000830152614ec681614e8a565b9050919050565b6000819050919050565b6000614ef2614eed614ee884614ecd565b614156565b61303e565b9050919050565b614f0281614ed7565b82525050565b6000606082019050614f1d6000830186614ef9565b614f2a6020830185613048565b614f376040830184613048565b949350505050565b7f4f776e61626c653a206e6577206f776e657220697320746865207a65726f206160008201527f6464726573730000000000000000000000000000000000000000000000000000602082015250565b6000614f9b6026836135d5565b9150614fa682614f3f565b604082019050919050565b60006020820190508181036000830152614fca81614f8e565b9050919050565b7f416c726561647920616e73776572656400000000000000000000000000000000600082015250565b60006150076010836135d5565b915061501282614fd1565b602082019050919050565b6000602082019050818103600083015261503681614ffa565b9050919050565b7f57726f6e67206e756d626572206f6620616e7377657273000000000000000000600082015250565b60006150736017836135d5565b915061507e8261503d565b602082019050919050565b600060208201905081810360008301526150a281615066565b9050919050565b7f4e6f7420656c696769626c650000000000000000000000000000000000000000600082015250565b60006150df600c836135d5565b91506150ea826150a9565b602082019050919050565b6000602082019050818103600083015261510e816150d2565b9050919050565b60006151208261303e565b915061512b8361303e565b92508282039050818111156151435761514261400f565b5b92915050565b7f416e73776572206f7574206f662072616e676500000000000000000000000000600082015250565b600061517f6013836135d5565b915061518a82615149565b602082019050919050565b600060208201905081810360008301526151ae81615172565b9050919050565b7f4f776e61626c653a2063616c6c6572206973206e6f7420746865206f776e6572600082015250565b60006151eb6020836135d5565b91506151f6826151b5565b602082019050919050565b6000602082019050818103600083015261521a816151de565b9050919050565b7f546f6f206d616e79206269747320746f207365742e0000000000000000000000600082015250565b60006152576015836135d5565b915061526282615221565b602082019050919050565b600060208201905081810360008301526152868161524a565b9050919050565b7f42697420746f20736574206f7574206f662072616e67652e0000000000000000600082015250565b60006152c36018836135d5565b91506152ce8261528d565b602082019050919050565b600060208201905081810360008301526152f2816152b6565b9050919050565b7f526566756e64206661696c656400000000000000000000000000000000000000600082015250565b600061532f600d836135d5565b915061533a826152f9565b602082019050919050565b6000602082019050818103600083015261535e81615322565b9050919050565b7f526566756e6420746f206f776e65720000000000000000000000000000000000600082015250565b600061539b600f836135d5565b91506153a682615365565b602082019050919050565b60006060820190506153c660008301856136b2565b6153d36020830184613048565b81810360408301526153e48161538e565b90509392505050565b7f416c726561647920757064617465640000000000000000000000000000000000600082015250565b6000615423600f836135d5565b915061542e826153ed565b602082019050919050565b6000602082019050818103600083015261545281615416565b905091905056fea2646970667358221220d096b90e19b28ff6785fd28b4933f579c7f9e249664025d8b569f052a9556df764736f6c63430008130033",
  "immutableReferences": {},
  "source": "// SPDX-License-Identifier: MIT\n\npragma solidity 0.8.19;\n\nimport \"../node_modules/@openzeppelin/contracts/proxy/Clones.sol\";\nimport \"../node_modules/@openzeppelin/contracts/access/Ownable.sol\";\nimport \"./IPollInitiator.sol\"; \nimport \"./PollMaster.sol\";\n\n/*\nThis contract is not intended to be deployed on the mainnet, it is only used to test internals functions and helpers of Poll contracts\n*/\n/**\n@title TestPollHelper\n@author ibourn\n@notice This contract is not intended to be deployed on the mainnet, it is only used to test internals functions and helpers of Poll contracts\n@dev The contract inherits from PollUser (and so from PollAdmin, PollView, PollHelpers, PollStorage)\n@dev each internal function of PollMaster will be called in external functions named as 'test' + the name of the function to test\n@dev setters are added to test the storage and getters before the use by other calinng function in the regular process of the poll\n */\ncontract TestPollHelper is PollUser {\n\n\n    // ::::::::::::::::::::::: MOCKED SETTERS TO TEST EXTERNAL GETTERS in PollView :::::::::::::::::::::::::::::::::: //\n    // function setTimestampLimit(uint _timestampLimit) external {\n    //     timestampLimit = _timestampLimit;\n    // }\n\n    function setRequiredResponseCount(uint _requiredResponseCount) external {\n        requiredResponseCount = _requiredResponseCount;\n    }\n\n    function setRespondentsCount(uint _respondentsCount) external {\n        uint256[] memory _answers = new uint256[](_respondentsCount);\n        answers = _answers;\n    }\n\n    function setPollInformations(string calldata _pollName, string calldata _pollDescription) external {\n        pollName = _pollName;\n        pollDescription = _pollDescription;\n    }\n\n    function setBalance(uint _balance) external {\n        balance = _balance;\n    }\n\n    function setAmountToRespondent(uint _amountToRespondent) external {\n        amountToRespondent = _amountToRespondent;\n    }\n\n    function setAmountToDAO(uint _amountToDAO) external {\n        amountToDAO = _amountToDAO;\n    }\n\n    function setAmountToValidators(uint _amountToValidators) external {\n        amountToValidators = _amountToValidators;\n    }\n\n    function setPollStatus(PollStatus _pollStatus) external {\n        pollStatus = _pollStatus;\n    }\n\n    function setIsCanceled(bool _isCanceled) external {\n        isCanceled = _isCanceled;\n    }\n\n    // function setTopics(Topic[] calldata _topics) external {\n    //     topics = _topics;\n    // }\n    function setTopic(string calldata _question, string[] memory _choices) public {\n        uint choiceCount = totalChoicesCount;\n        Topic memory topic;\n        topic.firstChoiceIndex = choiceCount;\n        topic.question = _question;\n        topic.choices = _choices;\n        totalChoicesCount += _choices.length;\n        topics.push(topic);\n    }\n\n    function setTopics(uint[] calldata choicesPerTopic, string[] calldata questions, string[] calldata choices) external {\n        require(choicesPerTopic.length == questions.length, 'Wrong number of questions');\n        Topic[] memory _topics = new Topic[](questions.length);\n        uint counter =0;\n        for (uint i = 0; i < choicesPerTopic.length; i++) {\n                          string[] memory newchoices = new string[](choicesPerTopic[i]);\n\n            for (uint j = 0; j < choicesPerTopic[i]; j++) {\n              newchoices[j] = choices[counter + j];\n            }\n            counter += choicesPerTopic[i];\n            setTopic(questions[i], newchoices);\n        }\n    }\n\n    function setAnswers(uint[] calldata _answers) external {\n        answers = _answers;\n    }\n\n \n    // ::::::::::::::::::::::: EXTERNAL FUNCTION TO TEST PollHelper :::::::::::::::::::::::::::::::::::::::::::::::::::: //\n\n    function testSetBitsFromPositions(uint[] calldata _chosenChoices) external pure returns(uint256) {\n        return setBitsFromPositions(_chosenChoices);\n    }\n\n    function testGetSetBitsCount(uint256 _number) external pure returns(uint256) {\n        return getSetBitsCount(_number);\n    }\n\n    function testGetSetBitsPositions(uint256 _number) external pure returns(uint256[] memory) {\n        return getSetBitsPositions(_number);\n    }\n\n\n}",
  "sourcePath": "/home/ibournubuntu/ALYRA/PROJET_FINAL/DPoll/truffle/contracts/TestPollHelper.sol",
  "compiler": {
    "name": "solc",
    "version": "0.8.19+commit.7dd6d404.Emscripten.clang"
  },
  "schemaVersion": "3.4.14",
  "updatedAt": "2023-07-24T01:19:11.569Z",
  "devdoc": {
    "author": "ibourn",
    "details": "The contract inherits from PollUser (and so from PollAdmin, PollView, PollHelpers, PollStorage)each internal function of PollMaster will be called in external functions named as 'test' + the name of the function to testsetters are added to test the storage and getters before the use by other calinng function in the regular process of the poll",
    "kind": "dev",
    "methods": {
      "addAnswer(uint256[],bytes32)": {
        "details": "it update the balance of the respondent to allow him to claim the rewardindex of choices start from 0 and should be ordered as the choices in the topics in order to revert earlier in case of invalid answer (function in helpers will revert later if not)",
        "params": {
          "_chosenChoices": "is an array of uint representing the index of the choices chosen by the respondent (in the order of the all choices and starting from 0)"
        }
      },
      "addTopic(string,string[])": {
        "details": "the choices are an array of string",
        "params": {
          "_choices": "is an array of string representing the choices of the topic",
          "_question": "is the question of the topic"
        }
      },
      "addTopicsBatch(string[],string[][])": {
        "details": "structure of choice : [topic choices][topics] / read/write : a.[topic n][choice n] / lenght : a.length == topics.length",
        "params": {
          "_choices": "is an array of array of string representing the choices of the topics",
          "_questions": "is an array of string representing the questions of the topics"
        }
      },
      "claimReward()": {
        "details": "it send the reward to the respondent"
      },
      "endPoll()": {
        "details": "LATER : delay and number of answers will allow to set requirements to end the Poll by everybody (not only the owner), with incentives to automate the process"
      },
      "getPackedAnswers()": {
        "details": "answers are packed so each answer is a uint flagging the choices of the respondent",
        "returns": {
          "_0": "answers is an array of uint representing the answers of the poll"
        }
      },
      "getSelectedChoicesByAnswer(uint256)": {
        "details": "one answer is a uint256 where each bit represent an available choice : 1 is selected, 0 is not selected",
        "params": {
          "_answerId": "is the index of the answer in the answers array"
        },
        "returns": {
          "_0": "an array of uint representing the selected choices of the respondent (in the order of all choices in topics)"
        }
      },
      "getUnpackedAnswers()": {
        "details": "answers are unpacked so each result is the index of a choice selected by a respondentcall getSelectedChoicesByAnswer() to get the selected choices of a respondentuse answers.length to get the number of respondents",
        "returns": {
          "_0": "an array of all respondets answers as an array of uint corresponding to the index of the choices selected by the respondent (reading :[choices][respondents])"
        }
      },
      "owner()": {
        "details": "Returns the address of the current owner."
      },
      "renounceOwnership()": {
        "details": "Leaves the contract without owner. It will not be possible to call `onlyOwner` functions. Can only be called by the current owner. NOTE: Renouncing ownership will leave the contract without an owner, thereby disabling any functionality that is only available to the owner."
      },
      "setPollValidation(address,bool)": {
        "details": "if the poll is validated, the DAO will pay the validators and the DAOif the poll is rejected, the DAO will refund the owner balance less the validators fees (owner should claim it back later)it set the timestampLimit to the end of the poll and start the poll",
        "params": {
          "isValid": "is a boolean to validate or reject the poll",
          "pollAddress": "is the address of the poll to validate (this contract)"
        }
      },
      "transferOwnership(address)": {
        "details": "Transfers ownership of the contract to a new account (`newOwner`). Can only be called by the current owner."
      }
    },
    "title": "TestPollHelper",
    "version": 1
  },
  "userdoc": {
    "kind": "user",
    "methods": {
      "addAnswer(uint256[],bytes32)": {
        "notice": "This function allow to answer to the poll"
      },
      "addTopic(string,string[])": {
        "notice": "This function allows to add a topic : a question and its choices"
      },
      "addTopicsBatch(string[],string[][])": {
        "notice": "This function allows to add topics : questions and their choices, in batch"
      },
      "claimRefund()": {
        "notice": "allows the admin to withdraw the funds of the poll in case of rejection by the DAO or if the poll end without enough respondents"
      },
      "claimReward()": {
        "notice": "This function allow to claim the reward"
      },
      "endPoll()": {
        "notice": "allows the admin to end the poll"
      },
      "getPackedAnswers()": {
        "notice": "get all the answers of the poll"
      },
      "getSelectedChoicesByAnswer(uint256)": {
        "notice": "This function return the selected choices of topics of a respondent"
      },
      "getUnpackedAnswers()": {
        "notice": "get all the answers of the poll"
      },
      "setPollValidation(address,bool)": {
        "notice": "allows the DAO to validate or reject the poll"
      },
      "submitPoll()": {
        "notice": "allows the admin to submit the poll to the DAO for validation (validators will check for illegal content...) "
      }
    },
    "notice": "This contract is not intended to be deployed on the mainnet, it is only used to test internals functions and helpers of Poll contracts",
    "version": 1
  }
}